{"contracts/mojo_mc_ERC721.sol":{"MCNFT":{"abi":[{"inputs":[{"internalType":"address","name":"registry","type":"address"}],"stateMutability":"nonpayable","type":"constructor"},{"anonymous":false,"inputs":[{"indexed":true,"internalType":"address","name":"owner","type":"address"},{"indexed":true,"internalType":"address","name":"approved","type":"address"},{"indexed":true,"internalType":"uint256","name":"tokenId","type":"uint256"}],"name":"Approval","type":"event"},{"anonymous":false,"inputs":[{"indexed":true,"internalType":"address","name":"owner","type":"address"},{"indexed":true,"internalType":"address","name":"operator","type":"address"},{"indexed":false,"internalType":"bool","name":"approved","type":"bool"}],"name":"ApprovalForAll","type":"event"},{"anonymous":false,"inputs":[{"indexed":true,"internalType":"address","name":"from","type":"address"},{"indexed":false,"internalType":"uint256","name":"timestamp","type":"uint256"},{"indexed":false,"internalType":"uint256","name":"tokenId","type":"uint256"}],"name":"NewNftMinted","type":"event"},{"anonymous":false,"inputs":[{"indexed":true,"internalType":"bytes32","name":"role","type":"bytes32"},{"indexed":true,"internalType":"bytes32","name":"previousAdminRole","type":"bytes32"},{"indexed":true,"internalType":"bytes32","name":"newAdminRole","type":"bytes32"}],"name":"RoleAdminChanged","type":"event"},{"anonymous":false,"inputs":[{"indexed":true,"internalType":"bytes32","name":"role","type":"bytes32"},{"indexed":true,"internalType":"address","name":"account","type":"address"},{"indexed":true,"internalType":"address","name":"sender","type":"address"}],"name":"RoleGranted","type":"event"},{"anonymous":false,"inputs":[{"indexed":true,"internalType":"bytes32","name":"role","type":"bytes32"},{"indexed":true,"internalType":"address","name":"account","type":"address"},{"indexed":true,"internalType":"address","name":"sender","type":"address"}],"name":"RoleRevoked","type":"event"},{"anonymous":false,"inputs":[{"indexed":true,"internalType":"address","name":"from","type":"address"},{"indexed":true,"internalType":"address","name":"to","type":"address"},{"indexed":true,"internalType":"uint256","name":"tokenId","type":"uint256"}],"name":"Transfer","type":"event"},{"anonymous":false,"inputs":[{"indexed":true,"internalType":"address","name":"from","type":"address"},{"indexed":false,"internalType":"uint256","name":"timestamp","type":"uint256"},{"indexed":false,"internalType":"uint256","name":"_metadataTableId","type":"uint256"},{"indexed":false,"internalType":"string","name":"_address","type":"string"},{"indexed":false,"internalType":"uint256","name":"tokenId","type":"uint256"}],"name":"addressUpdated","type":"event"},{"anonymous":false,"inputs":[{"indexed":true,"internalType":"address","name":"from","type":"address"},{"indexed":false,"internalType":"uint256","name":"timestamp","type":"uint256"},{"indexed":false,"internalType":"uint256","name":"_metadataTableId","type":"uint256"},{"indexed":false,"internalType":"string","name":"_banner_img","type":"string"},{"indexed":false,"internalType":"uint256","name":"tokenId","type":"uint256"}],"name":"bannerImgUpdated","type":"event"},{"anonymous":false,"inputs":[{"indexed":true,"internalType":"address","name":"from","type":"address"},{"indexed":false,"internalType":"uint256","name":"timestamp","type":"uint256"},{"indexed":false,"internalType":"uint256","name":"_metadataTableId","type":"uint256"},{"indexed":false,"internalType":"string","name":"_description","type":"string"},{"indexed":false,"internalType":"uint256","name":"tokenId","type":"uint256"}],"name":"descriptionUpdated","type":"event"},{"anonymous":false,"inputs":[{"indexed":true,"internalType":"address","name":"from","type":"address"},{"indexed":false,"internalType":"uint256","name":"timestamp","type":"uint256"},{"indexed":false,"internalType":"uint256","name":"_metadataTableId","type":"uint256"},{"indexed":false,"internalType":"string","name":"_image","type":"string"},{"indexed":false,"internalType":"uint256","name":"tokenId","type":"uint256"}],"name":"imageUpdated","type":"event"},{"anonymous":false,"inputs":[{"indexed":true,"internalType":"address","name":"from","type":"address"},{"indexed":false,"internalType":"uint256","name":"timestamp","type":"uint256"},{"indexed":false,"internalType":"uint256","name":"_metadataTableId","type":"uint256"},{"indexed":false,"internalType":"string","name":"_name","type":"string"},{"indexed":false,"internalType":"uint256","name":"tokenId","type":"uint256"}],"name":"nameUpdated","type":"event"},{"anonymous":false,"inputs":[{"indexed":true,"internalType":"address","name":"from","type":"address"},{"indexed":false,"internalType":"uint256","name":"timestamp","type":"uint256"},{"indexed":false,"internalType":"uint256","name":"tokenId","type":"uint256"},{"indexed":false,"internalType":"uint256","name":"_trait_id","type":"uint256"}],"name":"newAttributeAdded","type":"event"},{"anonymous":false,"inputs":[{"indexed":true,"internalType":"address","name":"from","type":"address"},{"indexed":false,"internalType":"uint256","name":"timestamp","type":"uint256"},{"indexed":false,"internalType":"uint256","name":"_metadataTableId","type":"uint256"},{"indexed":false,"internalType":"string","name":"_profile_img","type":"string"},{"indexed":false,"internalType":"uint256","name":"tokenId","type":"uint256"}],"name":"profileImgUpdated","type":"event"},{"anonymous":false,"inputs":[{"indexed":true,"internalType":"address","name":"from","type":"address"},{"indexed":false,"internalType":"uint256","name":"timestamp","type":"uint256"},{"indexed":false,"internalType":"uint256","name":"_metadataTableId","type":"uint256"},{"indexed":false,"internalType":"string","name":"_slogan","type":"string"},{"indexed":false,"internalType":"uint256","name":"tokenId","type":"uint256"}],"name":"sloganUpdated","type":"event"},{"anonymous":false,"inputs":[{"indexed":true,"internalType":"address","name":"from","type":"address"},{"indexed":false,"internalType":"uint256","name":"timestamp","type":"uint256"},{"indexed":false,"internalType":"uint256","name":"_attributesTableId","type":"uint256"},{"indexed":false,"internalType":"string","name":"_display_type","type":"string"},{"indexed":false,"internalType":"uint256","name":"tokenId","type":"uint256"},{"indexed":false,"internalType":"uint256","name":"_trait_id","type":"uint256"}],"name":"traitDisplayTypeUpdated","type":"event"},{"anonymous":false,"inputs":[{"indexed":true,"internalType":"address","name":"from","type":"address"},{"indexed":false,"internalType":"uint256","name":"timestamp","type":"uint256"},{"indexed":false,"internalType":"uint256","name":"_attributesTableId","type":"uint256"},{"indexed":false,"internalType":"string","name":"_icon","type":"string"},{"indexed":false,"internalType":"uint256","name":"tokenId","type":"uint256"},{"indexed":false,"internalType":"uint256","name":"_trait_id","type":"uint256"}],"name":"traitIconUpdated","type":"event"},{"anonymous":false,"inputs":[{"indexed":true,"internalType":"address","name":"from","type":"address"},{"indexed":false,"internalType":"uint256","name":"timestamp","type":"uint256"},{"indexed":false,"internalType":"uint256","name":"_attributesTableId","type":"uint256"},{"indexed":false,"internalType":"string","name":"_trait_type","type":"string"},{"indexed":false,"internalType":"uint256","name":"tokenId","type":"uint256"},{"indexed":false,"internalType":"uint256","name":"_trait_id","type":"uint256"}],"name":"traitTypeUpdated","type":"event"},{"anonymous":false,"inputs":[{"indexed":true,"internalType":"address","name":"from","type":"address"},{"indexed":false,"internalType":"uint256","name":"timestamp","type":"uint256"},{"indexed":false,"internalType":"uint256","name":"_attributesTableId","type":"uint256"},{"indexed":false,"internalType":"string","name":"_value","type":"string"},{"indexed":false,"internalType":"uint256","name":"tokenId","type":"uint256"},{"indexed":false,"internalType":"uint256","name":"_trait_id","type":"uint256"}],"name":"valueUpdated","type":"event"},{"anonymous":false,"inputs":[{"indexed":true,"internalType":"address","name":"from","type":"address"},{"indexed":false,"internalType":"uint256","name":"timestamp","type":"uint256"},{"indexed":false,"internalType":"uint256","name":"_metadataTableId","type":"uint256"},{"indexed":false,"internalType":"string","name":"_website","type":"string"},{"indexed":false,"internalType":"uint256","name":"tokenId","type":"uint256"}],"name":"websiteUpdated","type":"event"},{"inputs":[],"name":"DEFAULT_ADMIN_ROLE","outputs":[{"internalType":"bytes32","name":"","type":"bytes32"}],"stateMutability":"view","type":"function"},{"inputs":[{"internalType":"uint256","name":"_tokenId","type":"uint256"},{"internalType":"string","name":"_icon","type":"string"},{"internalType":"string","name":"_display_type","type":"string"},{"internalType":"string","name":"_trait_type","type":"string"},{"internalType":"string","name":"_value","type":"string"}],"name":"add_new_attribute","outputs":[{"internalType":"uint256","name":"","type":"uint256"}],"stateMutability":"nonpayable","type":"function"},{"inputs":[{"internalType":"address","name":"to","type":"address"},{"internalType":"uint256","name":"tokenId","type":"uint256"}],"name":"approve","outputs":[],"stateMutability":"nonpayable","type":"function"},{"inputs":[],"name":"attributesTable","outputs":[{"internalType":"string","name":"","type":"string"}],"stateMutability":"view","type":"function"},{"inputs":[],"name":"attributes_metadataURI","outputs":[{"internalType":"string","name":"","type":"string"}],"stateMutability":"view","type":"function"},{"inputs":[{"internalType":"address","name":"owner","type":"address"}],"name":"balanceOf","outputs":[{"internalType":"uint256","name":"","type":"uint256"}],"stateMutability":"view","type":"function"},{"inputs":[{"internalType":"uint256","name":"tokenId","type":"uint256"}],"name":"getApproved","outputs":[{"internalType":"address","name":"","type":"address"}],"stateMutability":"view","type":"function"},{"inputs":[{"internalType":"bytes32","name":"role","type":"bytes32"}],"name":"getRoleAdmin","outputs":[{"internalType":"bytes32","name":"","type":"bytes32"}],"stateMutability":"view","type":"function"},{"inputs":[{"internalType":"bytes32","name":"role","type":"bytes32"},{"internalType":"address","name":"account","type":"address"}],"name":"grantRole","outputs":[],"stateMutability":"nonpayable","type":"function"},{"inputs":[{"internalType":"bytes32","name":"role","type":"bytes32"},{"internalType":"address","name":"account","type":"address"}],"name":"hasRole","outputs":[{"internalType":"bool","name":"","type":"bool"}],"stateMutability":"view","type":"function"},{"inputs":[{"internalType":"address","name":"owner","type":"address"},{"internalType":"address","name":"operator","type":"address"}],"name":"isApprovedForAll","outputs":[{"internalType":"bool","name":"","type":"bool"}],"stateMutability":"view","type":"function"},{"inputs":[],"name":"mainTable","outputs":[{"internalType":"string","name":"","type":"string"}],"stateMutability":"view","type":"function"},{"inputs":[],"name":"main_metadataURI","outputs":[{"internalType":"string","name":"","type":"string"}],"stateMutability":"view","type":"function"},{"inputs":[],"name":"name","outputs":[{"internalType":"string","name":"","type":"string"}],"stateMutability":"view","type":"function"},{"inputs":[{"internalType":"uint256","name":"tokenId","type":"uint256"}],"name":"ownerOf","outputs":[{"internalType":"address","name":"","type":"address"}],"stateMutability":"view","type":"function"},{"inputs":[{"internalType":"bytes32","name":"role","type":"bytes32"},{"internalType":"address","name":"account","type":"address"}],"name":"renounceRole","outputs":[],"stateMutability":"nonpayable","type":"function"},{"inputs":[{"internalType":"bytes32","name":"role","type":"bytes32"},{"internalType":"address","name":"account","type":"address"}],"name":"revokeRole","outputs":[],"stateMutability":"nonpayable","type":"function"},{"inputs":[{"internalType":"address","name":"to","type":"address"},{"internalType":"string","name":"_name","type":"string"},{"internalType":"string","name":"_description","type":"string"},{"internalType":"string","name":"_image_url","type":"string"},{"internalType":"string","name":"_address","type":"string"},{"internalType":"string","name":"_icon","type":"string"},{"internalType":"string","name":"_display_type","type":"string"},{"internalType":"string","name":"_trait_type","type":"string"},{"internalType":"string","name":"_value","type":"string"}],"name":"safeMint","outputs":[{"internalType":"uint256","name":"","type":"uint256"}],"stateMutability":"nonpayable","type":"function"},{"inputs":[{"internalType":"address","name":"from","type":"address"},{"internalType":"address","name":"to","type":"address"},{"internalType":"uint256","name":"tokenId","type":"uint256"}],"name":"safeTransferFrom","outputs":[],"stateMutability":"nonpayable","type":"function"},{"inputs":[{"internalType":"address","name":"from","type":"address"},{"internalType":"address","name":"to","type":"address"},{"internalType":"uint256","name":"tokenId","type":"uint256"},{"internalType":"bytes","name":"data","type":"bytes"}],"name":"safeTransferFrom","outputs":[],"stateMutability":"nonpayable","type":"function"},{"inputs":[{"internalType":"address","name":"operator","type":"address"},{"internalType":"bool","name":"approved","type":"bool"}],"name":"setApprovalForAll","outputs":[],"stateMutability":"nonpayable","type":"function"},{"inputs":[{"internalType":"string","name":"baseURI","type":"string"}],"name":"setBaseURI","outputs":[],"stateMutability":"nonpayable","type":"function"},{"inputs":[{"internalType":"bytes4","name":"interfaceId","type":"bytes4"}],"name":"supportsInterface","outputs":[{"internalType":"bool","name":"","type":"bool"}],"stateMutability":"view","type":"function"},{"inputs":[],"name":"symbol","outputs":[{"internalType":"string","name":"","type":"string"}],"stateMutability":"view","type":"function"},{"inputs":[{"internalType":"uint256","name":"_tokenId","type":"uint256"}],"name":"tokenURI","outputs":[{"internalType":"string","name":"","type":"string"}],"stateMutability":"view","type":"function"},{"inputs":[{"internalType":"address","name":"from","type":"address"},{"internalType":"address","name":"to","type":"address"},{"internalType":"uint256","name":"tokenId","type":"uint256"}],"name":"transferFrom","outputs":[],"stateMutability":"nonpayable","type":"function"},{"inputs":[{"internalType":"uint256","name":"tokenId","type":"uint256"},{"internalType":"string","name":"_address","type":"string"}],"name":"update_address","outputs":[],"stateMutability":"nonpayable","type":"function"},{"inputs":[{"internalType":"uint256","name":"tokenId","type":"uint256"},{"internalType":"string","name":"_banner_img","type":"string"}],"name":"update_banner_img","outputs":[],"stateMutability":"nonpayable","type":"function"},{"inputs":[{"internalType":"uint256","name":"tokenId","type":"uint256"},{"internalType":"string","name":"_description","type":"string"}],"name":"update_description","outputs":[],"stateMutability":"nonpayable","type":"function"},{"inputs":[{"internalType":"uint256","name":"tokenId","type":"uint256"},{"internalType":"uint256","name":"_trait_id","type":"uint256"},{"internalType":"string","name":"_display_type","type":"string"}],"name":"update_display_type","outputs":[],"stateMutability":"nonpayable","type":"function"},{"inputs":[{"internalType":"uint256","name":"tokenId","type":"uint256"},{"internalType":"uint256","name":"_trait_id","type":"uint256"},{"internalType":"string","name":"_icon","type":"string"}],"name":"update_icon","outputs":[],"stateMutability":"nonpayable","type":"function"},{"inputs":[{"internalType":"uint256","name":"tokenId","type":"uint256"},{"internalType":"string","name":"_image","type":"string"}],"name":"update_image","outputs":[],"stateMutability":"nonpayable","type":"function"},{"inputs":[{"internalType":"uint256","name":"tokenId","type":"uint256"},{"internalType":"string","name":"_name","type":"string"}],"name":"update_name","outputs":[],"stateMutability":"nonpayable","type":"function"},{"inputs":[{"internalType":"uint256","name":"tokenId","type":"uint256"},{"internalType":"string","name":"_profile_img","type":"string"}],"name":"update_profile_img","outputs":[],"stateMutability":"nonpayable","type":"function"},{"inputs":[{"internalType":"uint256","name":"tokenId","type":"uint256"},{"internalType":"string","name":"_slogan","type":"string"}],"name":"update_slogan","outputs":[],"stateMutability":"nonpayable","type":"function"},{"inputs":[{"internalType":"uint256","name":"tokenId","type":"uint256"},{"internalType":"uint256","name":"_trait_id","type":"uint256"},{"internalType":"string","name":"_trait_type","type":"string"}],"name":"update_trait_type","outputs":[],"stateMutability":"nonpayable","type":"function"},{"inputs":[{"internalType":"uint256","name":"tokenId","type":"uint256"},{"internalType":"uint256","name":"_trait_id","type":"uint256"},{"internalType":"string","name":"_value","type":"string"}],"name":"update_value","outputs":[],"stateMutability":"nonpayable","type":"function"},{"inputs":[{"internalType":"uint256","name":"tokenId","type":"uint256"},{"internalType":"string","name":"_website","type":"string"}],"name":"update_website","outputs":[],"stateMutability":"nonpayable","type":"function"}],"evm":{"bytecode":{"linkReferences":{},"object":"60e060405260286080818152906200550260a039805162000029916007916020909101906200052b565b5060408051808201909152600d8082526c4d6f6a6f5f43726561746f727360981b60209092019182526200006091600e916200052b565b503480156200006e57600080fd5b506040516200552a3803806200552a8339810160408190526200009191620005d1565b604080518082018252600c81526b26b7b5379021b932b0ba37b960a11b6020808301918252835180850190945260058452641b58d3919560da1b908401528151919291620000e2916000916200052b565b508051620000f89060019060208401906200052b565b506200010a9150600090503362000369565b600980546001600160a01b0319166001600160a01b038316908117909155633a9151b030600e62000147466200040e602090811b6200242017901c565b6040516020016200015a92919062000715565b6040516020818303038152906040526040518363ffffffff1660e01b8152600401620001889291906200080a565b6020604051808303816000875af1158015620001a8573d6000803e3d6000fd5b505050506040513d601f19601f82011682018060405250810190620001ce91906200084e565b600a81905550600e620001ec466200040e60201b620024201760201c565b62000204600a546200040e60201b620024201760201c565b604051602001620002189392919062000868565b604051602081830303815290604052600c90805190602001906200023e9291906200052b565b506009546001600160a01b0316633a9151b030600e6200026a466200040e602090811b6200242017901c565b6040516020016200027d929190620008bd565b6040516020818303038152906040526040518363ffffffff1660e01b8152600401620002ab9291906200080a565b6020604051808303816000875af1158015620002cb573d6000803e3d6000fd5b505050506040513d601f19601f82011682018060405250810190620002f191906200084e565b600b81905550600e6200030f466200040e60201b620024201760201c565b62000327600b546200040e60201b620024201760201c565b6040516020016200033b9392919062000868565b604051602081830303815290604052600d9080519060200190620003619291906200052b565b505062000a63565b60008281526006602090815260408083206001600160a01b038516845290915290205460ff166200040a5760008281526006602090815260408083206001600160a01b03851684529091529020805460ff19166001179055620003c93390565b6001600160a01b0316816001600160a01b0316837f2f8788117e7eff1d82e926ec794901d17c78024a50270940304540a733656f0d60405160405180910390a45b5050565b606081620004335750506040805180820190915260018152600360fc1b602082015290565b8160005b81156200046357806200044a81620009a0565b91506200045b9050600a83620009d4565b915062000437565b6000816001600160401b03811115620004805762000480620009eb565b6040519080825280601f01601f191660200182016040528015620004ab576020820181803683370190505b5090505b84156200052357620004c360018362000a01565b9150620004d2600a8662000a1b565b620004df90603062000a32565b60f81b818381518110620004f757620004f762000a4d565b60200101906001600160f81b031916908160001a9053506200051b600a86620009d4565b9450620004af565b949350505050565b828054620005399062000603565b90600052602060002090601f0160209004810192826200055d5760008555620005a8565b82601f106200057857805160ff1916838001178555620005a8565b82800160010185558215620005a8579182015b82811115620005a85782518255916020019190600101906200058b565b50620005b6929150620005ba565b5090565b5b80821115620005b65760008155600101620005bb565b600060208284031215620005e457600080fd5b81516001600160a01b0381168114620005fc57600080fd5b9392505050565b600181811c908216806200061857607f821691505b602082108114156200063a57634e487b7160e01b600052602260045260246000fd5b50919050565b8054600090600181811c90808316806200065b57607f831692505b60208084108214156200067e57634e487b7160e01b600052602260045260246000fd5b818015620006955760018114620006a757620006d6565b60ff19861689528489019650620006d6565b60008881526020902060005b86811015620006ce5781548b820152908501908301620006b3565b505084890196505b50505050505092915050565b60005b83811015620006ff578181015183820152602001620006e5565b838111156200070f576000848401525b50505050565b6c021a922a0aa22902a20a126229609d1b8152600062000739600d83018562000640565b605f60f81b8152835162000755816001840160208801620006e2565b7f2028746f6b656e696420696e742c206e616d6520746578742c20646573637269600192909101918201527f7074696f6e20746578742c20696d61676520746578742c20616464726573732060218201527f746578742c20736c6f67616e20746578742c2070726f66696c655f696d67207460418201527f6578742c2062616e6e65725f696d6720746578742c20776562736974652074656061820152637874293b60e01b6081820152608501949350505050565b60018060a01b0383168152604060208201526000825180604084015262000839816060850160208701620006e2565b601f01601f1916919091016060019392505050565b6000602082840312156200086157600080fd5b5051919050565b600062000876828662000640565b605f60f81b808252855162000893816001850160208a01620006e2565b60019201918201528351620008b0816002840160208801620006e2565b0160020195945050505050565b6c021a922a0aa22902a20a126229609d1b81526000620008e1600d83018562000640565b605f60f81b81528351620008fd816001840160208801620006e2565b7f20286d61696e7461626c655f746f6b656e696420696e742c2074726169745f69600192909101918201527f6420696e742c2069636f6e20746578742c20646973706c61795f74797065207460218201527f6578742c2074726169745f7479706520746578742c2076616c75652074657874604182015261293b60f01b6061820152606301949350505050565b634e487b7160e01b600052601160045260246000fd5b6000600019821415620009b757620009b76200098a565b5060010190565b634e487b7160e01b600052601260045260246000fd5b600082620009e657620009e6620009be565b500490565b634e487b7160e01b600052604160045260246000fd5b60008282101562000a165762000a166200098a565b500390565b60008262000a2d5762000a2d620009be565b500690565b6000821982111562000a485762000a486200098a565b500190565b634e487b7160e01b600052603260045260246000fd5b614a8f8062000a736000396000f3fe608060405234801561001057600080fd5b50600436106102925760003560e01c80636352211e11610160578063a217fddf116100d8578063c87b56dd1161008c578063d7d8418f11610071578063d7d8418f14610563578063e985e9c514610576578063f15daa02146105b257600080fd5b8063c87b56dd1461053d578063d547741f1461055057600080fd5b8063a8e62f09116100bd578063a8e62f091461050f578063ab33b05114610517578063b88d4fde1461052a57600080fd5b8063a217fddf146104f4578063a22cb465146104fc57600080fd5b80638586b42f1161012f57806391d148541161011457806391d14854146104a057806395d89b41146104d9578063a1ced596146104e157600080fd5b80638586b42f1461047a578063884580051461048d57600080fd5b80636352211e146104395780636a283ce21461044c57806370a082311461045f5780637bc53be91461047257600080fd5b80632d30c0fc1161020e578063442219ef116101c25780635d21260a116101a75780635d21260a1461040b578063606a96121461041357806360af42751461042657600080fd5b8063442219ef146103e557806355f804b3146103f857600080fd5b8063313e91cb116101f3578063313e91cb146103ac57806336568abe146103bf57806342842e0e146103d257600080fd5b80632d30c0fc146103865780632f2ff15d1461039957600080fd5b8063091a77e711610265578063103a0ddc1161024a578063103a0ddc1461032f57806323b872dd14610342578063248a9ca31461035557600080fd5b8063091a77e714610314578063095ea7b31461031c57600080fd5b8063016376081461029757806301ffc9a7146102ac57806306fdde03146102d4578063081812fc146102e9575b600080fd5b6102aa6102a5366004613285565b6105c5565b005b6102bf6102ba3660046132eb565b6107bb565b60405190151581526020015b60405180910390f35b6102dc6107cc565b6040516102cb9190613360565b6102fc6102f7366004613373565b61085e565b6040516001600160a01b0390911681526020016102cb565b6102dc610885565b6102aa61032a3660046133b1565b6108bc565b6102aa61033d3660046133dd565b6109ee565b6102aa610350366004613424565b610b72565b610378610363366004613373565b60009081526006602052604090206001015490565b6040519081526020016102cb565b6102aa6103943660046133dd565b610bf9565b6102aa6103a7366004613465565b610d71565b6102aa6103ba366004613285565b610d96565b6102aa6103cd366004613465565b610f7a565b6102aa6103e0366004613424565b611006565b6102aa6103f33660046133dd565b611021565b6102aa610406366004613495565b611199565b6102dc6111b7565b6102aa6104213660046133dd565b611245565b6102aa610434366004613285565b6113bd565b6102fc610447366004613373565b6115a1565b6102aa61045a3660046133dd565b611606565b61037861046d3660046134ca565b61177e565b6102dc611818565b6103786104883660046134e7565b611825565b6102aa61049b3660046133dd565b6119df565b6102bf6104ae366004613465565b60009182526006602090815260408084206001600160a01b0393909316845291905290205460ff1690565b6102dc611b57565b6103786104ef366004613638565b611b66565b610378600081565b6102aa61050a3660046136ef565b611d50565b6102dc611d5b565b6102aa6105253660046133dd565b611d7d565b6102aa610538366004613722565b611ef5565b6102dc61054b366004613373565b611f83565b6102aa61055e366004613465565b61209f565b6102aa6105713660046133dd565b6120c4565b6102bf6105843660046137a2565b6001600160a01b03918216600090815260056020908152604080832093909416825291909152205460ff1690565b6102aa6105c0366004613285565b61223c565b6040516331a9108f60e11b81526004810184905233903090636352211e90602401602060405180830381865afa158015610603573d6000803e3d6000fd5b505050506040513d601f19601f8201168201806040525081019061062791906137d0565b6001600160a01b0316146106725760405162461bcd60e51b815260206004820152600d60248201526c24b73b30b634b21037bbb732b960991b60448201526064015b60405180910390fd5b6000838152600f602052604090205482118015906106905750600082115b6106d25760405162461bcd60e51b815260206004820152601360248201527203a3930b4ba2fb4b2103737ba103337bab7321606d1b6044820152606401610669565b600954600b546001600160a01b039091169063eaf5d04e903090600d856106f889612420565b61070189612420565b60405160200161071494939291906138de565b6040516020818303038152906040526040518463ffffffff1660e01b8152600401610741939291906139bb565b600060405180830381600087803b15801561075b57600080fd5b505af115801561076f573d6000803e3d6000fd5b5050600b546040513393507fbc3fdc5c3d813c4a99d9005e48663baa4f6a682afd7bb19427443c53942909c592506107ae9142918690899089906139ec565b60405180910390a2505050565b60006107c682612526565b92915050565b6060600080546107db906137ed565b80601f0160208091040260200160405190810160405280929190818152602001828054610807906137ed565b80156108545780601f1061082957610100808354040283529160200191610854565b820191906000526020600020905b81548152906001019060200180831161083757829003601f168201915b5050505050905090565b600061086982612564565b506000908152600460205260409020546001600160a01b031690565b606060006108916125cb565b905080600d6040516020016108a7929190613a1f565b60405160208183030381529060405291505090565b60006108c7826115a1565b9050806001600160a01b0316836001600160a01b031614156109515760405162461bcd60e51b815260206004820152602160248201527f4552433732313a20617070726f76616c20746f2063757272656e74206f776e6560448201527f72000000000000000000000000000000000000000000000000000000000000006064820152608401610669565b336001600160a01b038216148061096d575061096d8133610584565b6109df5760405162461bcd60e51b815260206004820152603e60248201527f4552433732313a20617070726f76652063616c6c6572206973206e6f7420746f60448201527f6b656e206f776e6572206e6f7220617070726f76656420666f7220616c6c00006064820152608401610669565b6109e983836125da565b505050565b6040516331a9108f60e11b81526004810183905233903090636352211e90602401602060405180830381865afa158015610a2c573d6000803e3d6000fd5b505050506040513d601f19601f82011682018060405250810190610a5091906137d0565b6001600160a01b031614610a965760405162461bcd60e51b815260206004820152600d60248201526c24b73b30b634b21037bbb732b960991b6044820152606401610669565b600954600a546001600160a01b039091169063eaf5d04e903090600c85610abc88612420565b604051602001610ace93929190613a8b565b6040516020818303038152906040526040518463ffffffff1660e01b8152600401610afb939291906139bb565b600060405180830381600087803b158015610b1557600080fd5b505af1158015610b29573d6000803e3d6000fd5b5050600a546040513393507f7b744af363cab769a8bf44672e4ce2224a699270f405e278a2078f251293d5b89250610b6691429186908890613b2b565b60405180910390a25050565b610b7c3382612655565b610bee5760405162461bcd60e51b815260206004820152602e60248201527f4552433732313a2063616c6c6572206973206e6f7420746f6b656e206f776e6560448201527f72206e6f7220617070726f7665640000000000000000000000000000000000006064820152608401610669565b6109e98383836126d3565b6040516331a9108f60e11b81526004810183905233903090636352211e90602401602060405180830381865afa158015610c37573d6000803e3d6000fd5b505050506040513d601f19601f82011682018060405250810190610c5b91906137d0565b6001600160a01b031614610ca15760405162461bcd60e51b815260206004820152600d60248201526c24b73b30b634b21037bbb732b960991b6044820152606401610669565b600954600a546001600160a01b039091169063eaf5d04e903090600c85610cc788612420565b604051602001610cd993929190613b5b565b6040516020818303038152906040526040518463ffffffff1660e01b8152600401610d06939291906139bb565b600060405180830381600087803b158015610d2057600080fd5b505af1158015610d34573d6000803e3d6000fd5b5050600a546040513393507f718061d6f6b3bd0556e7caaaf9cf765f425b72543ab78084cd28716cb17c9d559250610b6691429186908890613b2b565b600082815260066020526040902060010154610d8c816128ad565b6109e983836128b7565b6040516331a9108f60e11b81526004810184905233903090636352211e90602401602060405180830381865afa158015610dd4573d6000803e3d6000fd5b505050506040513d601f19601f82011682018060405250810190610df891906137d0565b6001600160a01b031614610e3e5760405162461bcd60e51b815260206004820152600d60248201526c24b73b30b634b21037bbb732b960991b6044820152606401610669565b6000838152600f60205260409020548211801590610e5c5750600082115b610e9e5760405162461bcd60e51b815260206004820152601360248201527203a3930b4ba2fb4b2103737ba103337bab7321606d1b6044820152606401610669565b600954600b546001600160a01b039091169063eaf5d04e903090600d85610ec489612420565b610ecd89612420565b604051602001610ee09493929190613bfc565b6040516020818303038152906040526040518463ffffffff1660e01b8152600401610f0d939291906139bb565b600060405180830381600087803b158015610f2757600080fd5b505af1158015610f3b573d6000803e3d6000fd5b5050600b546040513393507fec0f0d67678a9d5a686ab06fa92fadb72e148b9ebdead00eb6601b6a1fd07c8f92506107ae9142918690899089906139ec565b6001600160a01b0381163314610ff85760405162461bcd60e51b815260206004820152602f60248201527f416363657373436f6e74726f6c3a2063616e206f6e6c792072656e6f756e636560448201527f20726f6c657320666f722073656c6600000000000000000000000000000000006064820152608401610669565b6110028282612959565b5050565b6109e983838360405180602001604052806000815250611ef5565b6040516331a9108f60e11b81526004810183905233903090636352211e90602401602060405180830381865afa15801561105f573d6000803e3d6000fd5b505050506040513d601f19601f8201168201806040525081019061108391906137d0565b6001600160a01b0316146110c95760405162461bcd60e51b815260206004820152600d60248201526c24b73b30b634b21037bbb732b960991b6044820152606401610669565b600954600a546001600160a01b039091169063eaf5d04e903090600c856110ef88612420565b60405160200161110193929190613cd9565b6040516020818303038152906040526040518463ffffffff1660e01b815260040161112e939291906139bb565b600060405180830381600087803b15801561114857600080fd5b505af115801561115c573d6000803e3d6000fd5b5050600a546040513393507f56142faa60451d3157bcb004137d211d376fccd824ec9087245d41d11cef55809250610b6691429186908890613b2b565b60006111a4816128ad565b81516109e9906007906020850190613140565b600c80546111c4906137ed565b80601f01602080910402602001604051908101604052809291908181526020018280546111f0906137ed565b801561123d5780601f106112125761010080835404028352916020019161123d565b820191906000526020600020905b81548152906001019060200180831161122057829003601f168201915b505050505081565b6040516331a9108f60e11b81526004810183905233903090636352211e90602401602060405180830381865afa158015611283573d6000803e3d6000fd5b505050506040513d601f19601f820116820180604052508101906112a791906137d0565b6001600160a01b0316146112ed5760405162461bcd60e51b815260206004820152600d60248201526c24b73b30b634b21037bbb732b960991b6044820152606401610669565b600954600a546001600160a01b039091169063eaf5d04e903090600c8561131388612420565b60405160200161132593929190613d79565b6040516020818303038152906040526040518463ffffffff1660e01b8152600401611352939291906139bb565b600060405180830381600087803b15801561136c57600080fd5b505af1158015611380573d6000803e3d6000fd5b5050600a546040513393507f34f39ab14bc214fc40236bd17290dea7a5ebbca4716d256a079aa1db9ea901dd9250610b6691429186908890613b2b565b6040516331a9108f60e11b81526004810184905233903090636352211e90602401602060405180830381865afa1580156113fb573d6000803e3d6000fd5b505050506040513d601f19601f8201168201806040525081019061141f91906137d0565b6001600160a01b0316146114655760405162461bcd60e51b815260206004820152600d60248201526c24b73b30b634b21037bbb732b960991b6044820152606401610669565b6000838152600f602052604090205482118015906114835750600082115b6114c55760405162461bcd60e51b815260206004820152601360248201527203a3930b4ba2fb4b2103737ba103337bab7321606d1b6044820152606401610669565b600954600b546001600160a01b039091169063eaf5d04e903090600d856114eb89612420565b6114f489612420565b6040516020016115079493929190613dcb565b6040516020818303038152906040526040518463ffffffff1660e01b8152600401611534939291906139bb565b600060405180830381600087803b15801561154e57600080fd5b505af1158015611562573d6000803e3d6000fd5b5050600b546040513393507f280bb8c24c5b69393733b8cf1779ec264023540e75149b5024de5ea55a41736e92506107ae9142918690899089906139ec565b6000818152600260205260408120546001600160a01b0316806107c65760405162461bcd60e51b815260206004820152601860248201527f4552433732313a20696e76616c696420746f6b656e20494400000000000000006044820152606401610669565b6040516331a9108f60e11b81526004810183905233903090636352211e90602401602060405180830381865afa158015611644573d6000803e3d6000fd5b505050506040513d601f19601f8201168201806040525081019061166891906137d0565b6001600160a01b0316146116ae5760405162461bcd60e51b815260206004820152600d60248201526c24b73b30b634b21037bbb732b960991b6044820152606401610669565b600954600a546001600160a01b039091169063eaf5d04e903090600c856116d488612420565b6040516020016116e693929190613ea8565b6040516020818303038152906040526040518463ffffffff1660e01b8152600401611713939291906139bb565b600060405180830381600087803b15801561172d57600080fd5b505af1158015611741573d6000803e3d6000fd5b5050600a546040513393507f1a4940bc8962feb51c853bd670161c0fffd6e75d6ecfd2d8152403dc30edaec69250610b6691429186908890613b2b565b60006001600160a01b0382166117fc5760405162461bcd60e51b815260206004820152602960248201527f4552433732313a2061646472657373207a65726f206973206e6f74206120766160448201527f6c6964206f776e657200000000000000000000000000000000000000000000006064820152608401610669565b506001600160a01b031660009081526003602052604090205490565b600d80546111c4906137ed565b60008061183160085490565b600954600a549192506001600160a01b03169063eaf5d04e903090600c61185786612420565b8f8f8f8f60405160200161187096959493929190613f48565b6040516020818303038152906040526040518463ffffffff1660e01b815260040161189d939291906139bb565b600060405180830381600087803b1580156118b757600080fd5b505af11580156118cb573d6000803e3d6000fd5b5050600954600b546001600160a01b03909116925063eaf5d04e91503090600d6118f486612420565b8b8b8b8b60405160200161190d96959493929190614059565b6040516020818303038152906040526040518463ffffffff1660e01b815260040161193a939291906139bb565b600060405180830381600087803b15801561195457600080fd5b505af1158015611968573d6000803e3d6000fd5b505050506119768b826129dc565b6000818152600f6020526040902060019055611996600880546001019055565b604080514281526020810183905233917f061b141191d79859f7cc6256c1b9e5f380052197831efe9135841c0ff4de7e63910160405180910390a29a9950505050505050505050565b6040516331a9108f60e11b81526004810183905233903090636352211e90602401602060405180830381865afa158015611a1d573d6000803e3d6000fd5b505050506040513d601f19601f82011682018060405250810190611a4191906137d0565b6001600160a01b031614611a875760405162461bcd60e51b815260206004820152600d60248201526c24b73b30b634b21037bbb732b960991b6044820152606401610669565b600954600a546001600160a01b039091169063eaf5d04e903090600c85611aad88612420565b604051602001611abf9392919061418f565b6040516020818303038152906040526040518463ffffffff1660e01b8152600401611aec939291906139bb565b600060405180830381600087803b158015611b0657600080fd5b505af1158015611b1a573d6000803e3d6000fd5b5050600a546040513393507f17eeeff68e065adc9efa022eeaf7c19b2b74557c99180889d2fae3cfdc2e61539250610b6691429186908890613b2b565b6060600180546107db906137ed565b6040516331a9108f60e11b81526004810186905260009033903090636352211e90602401602060405180830381865afa158015611ba7573d6000803e3d6000fd5b505050506040513d601f19601f82011682018060405250810190611bcb91906137d0565b6001600160a01b031614611c115760405162461bcd60e51b815260206004820152600d60248201526c24b73b30b634b21037bbb732b960991b6044820152606401610669565b6000868152600f6020526040902054600954600b546001600160a01b039091169063eaf5d04e903090600d611c458c612420565b611c58611c53886001614245565b612420565b8c8c8c8c604051602001611c72979695949392919061425d565b6040516020818303038152906040526040518463ffffffff1660e01b8152600401611c9f939291906139bb565b600060405180830381600087803b158015611cb957600080fd5b505af1158015611ccd573d6000803e3d6000fd5b50505050806001611cde9190614245565b6000888152600f6020526040902055337f49f81050f063e5873e3da74c80d522b979ef15124ea45757ce3e838d7e2d703e4289611d1c856001614245565b6040805193845260208401929092529082015260600160405180910390a2611d45816001614245565b979650505050505050565b6110023383836129f6565b60606000611d676125cb565b905080600c6040516020016108a7929190613a1f565b6040516331a9108f60e11b81526004810183905233903090636352211e90602401602060405180830381865afa158015611dbb573d6000803e3d6000fd5b505050506040513d601f19601f82011682018060405250810190611ddf91906137d0565b6001600160a01b031614611e255760405162461bcd60e51b815260206004820152600d60248201526c24b73b30b634b21037bbb732b960991b6044820152606401610669565b600954600a546001600160a01b039091169063eaf5d04e903090600c85611e4b88612420565b604051602001611e5d93929190614343565b6040516020818303038152906040526040518463ffffffff1660e01b8152600401611e8a939291906139bb565b600060405180830381600087803b158015611ea457600080fd5b505af1158015611eb8573d6000803e3d6000fd5b5050600a546040513393507f63091555f1da3fea775fcaaac62cdee68271b079caa14cad48dc56e93bd5f41b9250610b6691429186908890613b2b565b611eff3383612655565b611f715760405162461bcd60e51b815260206004820152602e60248201527f4552433732313a2063616c6c6572206973206e6f7420746f6b656e206f776e6560448201527f72206e6f7220617070726f7665640000000000000000000000000000000000006064820152608401610669565b611f7d84848484612ac5565b50505050565b6000818152600260205260409020546060906001600160a01b03166120105760405162461bcd60e51b815260206004820152602f60248201527f4552433732314d657461646174613a2055524920717565727920666f72206e6f60448201527f6e6578697374656e7420746f6b656e00000000000000000000000000000000006064820152608401610669565b600061201a6125cb565b905080516000141561203c575050604080516020810190915260008152919050565b6000600c600d600c600d60405160200161205994939291906143e3565b6040516020818303038152906040529050818161207586612420565b60405160200161208793929190614705565b60405160208183030381529060405292505050919050565b6000828152600660205260409020600101546120ba816128ad565b6109e98383612959565b6040516331a9108f60e11b81526004810183905233903090636352211e90602401602060405180830381865afa158015612102573d6000803e3d6000fd5b505050506040513d601f19601f8201168201806040525081019061212691906137d0565b6001600160a01b03161461216c5760405162461bcd60e51b815260206004820152600d60248201526c24b73b30b634b21037bbb732b960991b6044820152606401610669565b600954600a546001600160a01b039091169063eaf5d04e903090600c8561219288612420565b6040516020016121a49392919061479e565b6040516020818303038152906040526040518463ffffffff1660e01b81526004016121d1939291906139bb565b600060405180830381600087803b1580156121eb57600080fd5b505af11580156121ff573d6000803e3d6000fd5b5050600a546040513393507f7bfeb9b4d9a31f6694f00919eb3055644ba8dc8f6e4fb339b1a2d8c13b9e52219250610b6691429186908890613b2b565b6040516331a9108f60e11b81526004810184905233903090636352211e90602401602060405180830381865afa15801561227a573d6000803e3d6000fd5b505050506040513d601f19601f8201168201806040525081019061229e91906137d0565b6001600160a01b0316146122e45760405162461bcd60e51b815260206004820152600d60248201526c24b73b30b634b21037bbb732b960991b6044820152606401610669565b6000838152600f602052604090205482118015906123025750600082115b6123445760405162461bcd60e51b815260206004820152601360248201527203a3930b4ba2fb4b2103737ba103337bab7321606d1b6044820152606401610669565b600954600b546001600160a01b039091169063eaf5d04e903090600d8561236a89612420565b61237389612420565b60405160200161238694939291906147f0565b6040516020818303038152906040526040518463ffffffff1660e01b81526004016123b3939291906139bb565b600060405180830381600087803b1580156123cd57600080fd5b505af11580156123e1573d6000803e3d6000fd5b5050600b546040513393507f11bfb7cd1318679cbb7491b824432aaf8d65800ec0a83281dad118a0373a4a2392506107ae9142918690899089906139ec565b6060816124445750506040805180820190915260018152600360fc1b602082015290565b8160005b811561246e5780612458816148cd565b91506124679050600a836148fe565b9150612448565b60008167ffffffffffffffff811115612489576124896131d9565b6040519080825280601f01601f1916602001820160405280156124b3576020820181803683370190505b5090505b841561251e576124c8600183614912565b91506124d5600a86614929565b6124e0906030614245565b60f81b8183815181106124f5576124f561493d565b60200101906001600160f81b031916908160001a905350612517600a866148fe565b94506124b7565b949350505050565b60006001600160e01b031982167f7965db0b0000000000000000000000000000000000000000000000000000000014806107c657506107c682612b43565b6000818152600260205260409020546001600160a01b03166125c85760405162461bcd60e51b815260206004820152601860248201527f4552433732313a20696e76616c696420746f6b656e20494400000000000000006044820152606401610669565b50565b6060600780546107db906137ed565b6000818152600460205260409020805473ffffffffffffffffffffffffffffffffffffffff19166001600160a01b038416908117909155819061261c826115a1565b6001600160a01b03167f8c5be1e5ebec7d5bd14f71427d1e84f3dd0314c0f7b2291e5b200ac8c7c3b92560405160405180910390a45050565b600080612661836115a1565b9050806001600160a01b0316846001600160a01b031614806126a857506001600160a01b0380821660009081526005602090815260408083209388168352929052205460ff165b8061251e5750836001600160a01b03166126c18461085e565b6001600160a01b031614949350505050565b826001600160a01b03166126e6826115a1565b6001600160a01b0316146127625760405162461bcd60e51b815260206004820152602560248201527f4552433732313a207472616e736665722066726f6d20696e636f72726563742060448201527f6f776e65720000000000000000000000000000000000000000000000000000006064820152608401610669565b6001600160a01b0382166127dd5760405162461bcd60e51b8152602060048201526024808201527f4552433732313a207472616e7366657220746f20746865207a65726f2061646460448201527f72657373000000000000000000000000000000000000000000000000000000006064820152608401610669565b6127e86000826125da565b6001600160a01b0383166000908152600360205260408120805460019290612811908490614912565b90915550506001600160a01b038216600090815260036020526040812080546001929061283f908490614245565b9091555050600081815260026020526040808220805473ffffffffffffffffffffffffffffffffffffffff19166001600160a01b0386811691821790925591518493918716917fddf252ad1be2c89b69c2b068fc378daa952ba7f163c4a11628f55a4df523b3ef91a4505050565b6125c88133612bde565b60008281526006602090815260408083206001600160a01b038516845290915290205460ff166110025760008281526006602090815260408083206001600160a01b03851684529091529020805460ff191660011790556129153390565b6001600160a01b0316816001600160a01b0316837f2f8788117e7eff1d82e926ec794901d17c78024a50270940304540a733656f0d60405160405180910390a45050565b60008281526006602090815260408083206001600160a01b038516845290915290205460ff16156110025760008281526006602090815260408083206001600160a01b0385168085529252808320805460ff1916905551339285917ff6391f5c32d9c69d2a47ea670b442974b53935d1edc7fd64eb21e047a839171b9190a45050565b611002828260405180602001604052806000815250612c5e565b816001600160a01b0316836001600160a01b03161415612a585760405162461bcd60e51b815260206004820152601960248201527f4552433732313a20617070726f766520746f2063616c6c6572000000000000006044820152606401610669565b6001600160a01b03838116600081815260056020908152604080832094871680845294825291829020805460ff191686151590811790915591519182527f17307eab39ab6107e8899845ad3d59bd9653f200f220920489ca2b5937696c31910160405180910390a3505050565b612ad08484846126d3565b612adc84848484612cdc565b611f7d5760405162461bcd60e51b815260206004820152603260248201527f4552433732313a207472616e7366657220746f206e6f6e20455243373231526560448201527131b2b4bb32b91034b6b83632b6b2b73a32b960711b6064820152608401610669565b60006001600160e01b031982167f80ac58cd000000000000000000000000000000000000000000000000000000001480612ba657506001600160e01b031982167f5b5e139f00000000000000000000000000000000000000000000000000000000145b806107c657507f01ffc9a7000000000000000000000000000000000000000000000000000000006001600160e01b03198316146107c6565b60008281526006602090815260408083206001600160a01b038516845290915290205460ff1661100257612c1c816001600160a01b03166014612e25565b612c27836020612e25565b604051602001612c38929190614953565b60408051601f198184030181529082905262461bcd60e51b825261066991600401613360565b612c688383612ff1565b612c756000848484612cdc565b6109e95760405162461bcd60e51b815260206004820152603260248201527f4552433732313a207472616e7366657220746f206e6f6e20455243373231526560448201527131b2b4bb32b91034b6b83632b6b2b73a32b960711b6064820152608401610669565b60006001600160a01b0384163b15612e1a57604051630a85bd0160e11b81526001600160a01b0385169063150b7a0290612d209033908990889088906004016149d4565b6020604051808303816000875af1925050508015612d5b575060408051601f3d908101601f19168201909252612d5891810190614a06565b60015b612e00573d808015612d89576040519150601f19603f3d011682016040523d82523d6000602084013e612d8e565b606091505b508051612df85760405162461bcd60e51b815260206004820152603260248201527f4552433732313a207472616e7366657220746f206e6f6e20455243373231526560448201527131b2b4bb32b91034b6b83632b6b2b73a32b960711b6064820152608401610669565b805181602001fd5b6001600160e01b031916630a85bd0160e11b14905061251e565b506001949350505050565b60606000612e34836002614a23565b612e3f906002614245565b67ffffffffffffffff811115612e5757612e576131d9565b6040519080825280601f01601f191660200182016040528015612e81576020820181803683370190505b509050600360fc1b81600081518110612e9c57612e9c61493d565b60200101906001600160f81b031916908160001a9053507f780000000000000000000000000000000000000000000000000000000000000081600181518110612ee757612ee761493d565b60200101906001600160f81b031916908160001a9053506000612f0b846002614a23565b612f16906001614245565b90505b6001811115612f9b577f303132333435363738396162636465660000000000000000000000000000000085600f1660108110612f5757612f5761493d565b1a60f81b828281518110612f6d57612f6d61493d565b60200101906001600160f81b031916908160001a90535060049490941c93612f9481614a42565b9050612f19565b508315612fea5760405162461bcd60e51b815260206004820181905260248201527f537472696e67733a20686578206c656e67746820696e73756666696369656e746044820152606401610669565b9392505050565b6001600160a01b0382166130475760405162461bcd60e51b815260206004820181905260248201527f4552433732313a206d696e7420746f20746865207a65726f20616464726573736044820152606401610669565b6000818152600260205260409020546001600160a01b0316156130ac5760405162461bcd60e51b815260206004820152601c60248201527f4552433732313a20746f6b656e20616c7265616479206d696e746564000000006044820152606401610669565b6001600160a01b03821660009081526003602052604081208054600192906130d5908490614245565b9091555050600081815260026020526040808220805473ffffffffffffffffffffffffffffffffffffffff19166001600160a01b03861690811790915590518392907fddf252ad1be2c89b69c2b068fc378daa952ba7f163c4a11628f55a4df523b3ef908290a45050565b82805461314c906137ed565b90600052602060002090601f01602090048101928261316e57600085556131b4565b82601f1061318757805160ff19168380011785556131b4565b828001600101855582156131b4579182015b828111156131b4578251825591602001919060010190613199565b506131c09291506131c4565b5090565b5b808211156131c057600081556001016131c5565b634e487b7160e01b600052604160045260246000fd5b600067ffffffffffffffff8084111561320a5761320a6131d9565b604051601f8501601f19908116603f01168101908282118183101715613232576132326131d9565b8160405280935085815286868601111561324b57600080fd5b858560208301376000602087830101525050509392505050565b600082601f83011261327657600080fd5b612fea838335602085016131ef565b60008060006060848603121561329a57600080fd5b8335925060208401359150604084013567ffffffffffffffff8111156132bf57600080fd5b6132cb86828701613265565b9150509250925092565b6001600160e01b0319811681146125c857600080fd5b6000602082840312156132fd57600080fd5b8135612fea816132d5565b60005b8381101561332357818101518382015260200161330b565b83811115611f7d5750506000910152565b6000815180845261334c816020860160208601613308565b601f01601f19169290920160200192915050565b602081526000612fea6020830184613334565b60006020828403121561338557600080fd5b5035919050565b6001600160a01b03811681146125c857600080fd5b80356133ac8161338c565b919050565b600080604083850312156133c457600080fd5b82356133cf8161338c565b946020939093013593505050565b600080604083850312156133f057600080fd5b82359150602083013567ffffffffffffffff81111561340e57600080fd5b61341a85828601613265565b9150509250929050565b60008060006060848603121561343957600080fd5b83356134448161338c565b925060208401356134548161338c565b929592945050506040919091013590565b6000806040838503121561347857600080fd5b82359150602083013561348a8161338c565b809150509250929050565b6000602082840312156134a757600080fd5b813567ffffffffffffffff8111156134be57600080fd5b61251e84828501613265565b6000602082840312156134dc57600080fd5b8135612fea8161338c565b60008060008060008060008060006101208a8c03121561350657600080fd5b61350f8a6133a1565b985060208a013567ffffffffffffffff8082111561352c57600080fd5b6135388d838e01613265565b995060408c013591508082111561354e57600080fd5b61355a8d838e01613265565b985060608c013591508082111561357057600080fd5b61357c8d838e01613265565b975060808c013591508082111561359257600080fd5b61359e8d838e01613265565b965060a08c01359150808211156135b457600080fd5b6135c08d838e01613265565b955060c08c01359150808211156135d657600080fd5b6135e28d838e01613265565b945060e08c01359150808211156135f857600080fd5b6136048d838e01613265565b93506101008c013591508082111561361b57600080fd5b506136288c828d01613265565b9150509295985092959850929598565b600080600080600060a0868803121561365057600080fd5b85359450602086013567ffffffffffffffff8082111561366f57600080fd5b61367b89838a01613265565b9550604088013591508082111561369157600080fd5b61369d89838a01613265565b945060608801359150808211156136b357600080fd5b6136bf89838a01613265565b935060808801359150808211156136d557600080fd5b506136e288828901613265565b9150509295509295909350565b6000806040838503121561370257600080fd5b823561370d8161338c565b91506020830135801515811461348a57600080fd5b6000806000806080858703121561373857600080fd5b84356137438161338c565b935060208501356137538161338c565b925060408501359150606085013567ffffffffffffffff81111561377657600080fd5b8501601f8101871361378757600080fd5b613796878235602084016131ef565b91505092959194509250565b600080604083850312156137b557600080fd5b82356137c08161338c565b9150602083013561348a8161338c565b6000602082840312156137e257600080fd5b8151612fea8161338c565b600181811c9082168061380157607f821691505b6020821081141561382257634e487b7160e01b600052602260045260246000fd5b50919050565b8054600090600181811c908083168061384257607f831692505b602080841082141561386457634e487b7160e01b600052602260045260246000fd5b8180156138785760018114613889576138b6565b60ff198616895284890196506138b6565b60008881526020902060005b868110156138ae5781548b820152908501908301613895565b505084890196505b50505050505092915050565b600081516138d4818560208601613308565b9290920192915050565b6602aa82220aa22960cd1b815260006138fa6007830187613828565b7f205345542076616c7565203d20270000000000000000000000000000000000008152855161393081600e840160208a01613308565b7f27205748455245206d61696e7461626c655f746f6b656e6964203d2000000000600e9290910191820152845161396e81602a840160208901613308565b6f01020a722103a3930b4ba2fb4b2101e960851b602a9290910191820152835161399f81603a840160208801613308565b603b60f81b603a9290910191820152603b019695505050505050565b6001600160a01b03841681528260208201526060604082015260006139e36060830184613334565b95945050505050565b85815284602082015260a060408201526000613a0b60a0830186613334565b606083019490945250608001529392505050565b60008351613a31818460208801613308565b7f756e777261703d7472756526657874726163743d66616c736526733d000000009083019081527f53454c4543542532302a25323046524f4d253230000000000000000000000000601c8201526139e36030820185613828565b6602aa82220aa22960cd1b81526000613aa76007830186613828565b7f205345542070726f66696c655f696d67203d202700000000000000000000000081528451613add816014840160208901613308565b71013902ba422a922903a37b5b2b734b2101e960751b601492909101918201528351613b10816026840160208801613308565b603b60f81b6026929091019182015260270195945050505050565b848152836020820152608060408201526000613b4a6080830185613334565b905082606083015295945050505050565b6602aa82220aa22960cd1b81526000613b776007830186613828565b7f2053455420696d616765203d202700000000000000000000000000000000000081528451613bad81600e840160208901613308565b80820191505071013902ba422a922903a37b5b2b734b2101e960751b600e8201528351613be1816020840160208801613308565b603b60f81b6020929091019182015260210195945050505050565b6602aa82220aa22960cd1b81526000613c186007830187613828565b7f205345542074726169745f74797065203d20270000000000000000000000000081528551613c4e816013840160208a01613308565b7f27205748455245206d61696e7461626c655f746f6b656e6964203d2000000000601392909101918201528451613c8c81602f840160208901613308565b6f01020a722103a3930b4ba2fb4b2101e960851b602f92909101918201528351613cbd81603f840160208801613308565b603b60f81b603f92909101918201526040019695505050505050565b6602aa82220aa22960cd1b81526000613cf56007830186613828565b7f2053455420736c6f67616e203d2027000000000000000000000000000000000081528451613d2b81600f840160208901613308565b71013902ba422a922903a37b5b2b734b2101e960751b600f92909101918201528351613d5e816021840160208801613308565b603b60f81b6021929091019182015260220195945050505050565b6602aa82220aa22960cd1b81526000613d956007830186613828565b7f20534554206465736372697074696f6e203d202700000000000000000000000081528451613add816014840160208901613308565b6602aa82220aa22960cd1b81526000613de76007830187613828565b7f205345542069636f6e203d20270000000000000000000000000000000000000081528551613e1d81600d840160208a01613308565b7f27205748455245206d61696e7461626c655f746f6b656e6964203d2000000000600d92909101918201528451613e5b816029840160208901613308565b6f01020a722103a3930b4ba2fb4b2101e960851b602992909101918201528351613e8c816039840160208801613308565b603b60f81b60399290910191820152603a019695505050505050565b6602aa82220aa22960cd1b81526000613ec46007830186613828565b7f20534554206e616d65203d20270000000000000000000000000000000000000081528451613efa81600d840160208901613308565b71013902ba422a922903a37b5b2b734b2101e960751b600d92909101918201528351613f2d81601f840160208801613308565b603b60f81b601f929091019182015260200195945050505050565b6b024a729a2a92a1024a72a27960a51b81526000613f69600c830189613828565b7f2028746f6b656e69642c206e616d652c206465736372697074696f6e2c20696d81527f6167652c2061646472657373292056414c55455320282700000000000000000060208201528751613fc5816037840160208c01613308565b80820191505063272c202760e01b8060378301528751613fec81603b850160208c01613308565b603b920191820152855161400781603f840160208a01613308565b0161401b603f820163272c202760e01b9052565b61402860438201866138c2565b63272c202760e01b8152905061404160048201856138c2565b61272960f01b81526002019998505050505050505050565b6b024a729a2a92a1024a72a27960a51b815260006140f261407d600c84018a613828565b7f20286d61696e7461626c655f746f6b656e69642c2074726169745f69642c206981527f636f6e2c20646973706c61795f747970652c2074726169745f747970652c207660208201527f616c7565292056414c55455320282700000000000000000000000000000000006040820152604f0190565b8751614102818360208c01613308565b80820191505063272c202760e01b808252600360fc1b60048301528060058301528751614136816009850160208c01613308565b60099201918201819052865161415381600d850160208b01613308565b600d920191820152845161416e816011840160208901613308565b016141826011820163272c202760e01b9052565b61404160158201856138c2565b6602aa82220aa22960cd1b815260006141ab6007830186613828565b7f205345542062616e6e65725f696d67203d202700000000000000000000000000815284516141e1816013840160208901613308565b71013902ba422a922903a37b5b2b734b2101e960751b601392909101918201528351614214816025840160208801613308565b603b60f81b6025929091019182015260260195945050505050565b634e487b7160e01b600052601160045260246000fd5b600082198211156142585761425861422f565b500190565b6b024a729a2a92a1024a72a27960a51b8152600061428161407d600c84018b613828565b8851614291818360208d01613308565b63272c202760e01b910181815288519091906142b4816004850160208d01613308565b6004920191820181905287516142d1816008850160208c01613308565b6008920191820181905286516142ee81600c850160208b01613308565b600c9201918201528451614309816010840160208901613308565b0161431d6010820163272c202760e01b9052565b61432a60148201856138c2565b61272960f01b81526002019a9950505050505050505050565b6602aa82220aa22960cd1b8152600061435f6007830186613828565b7f205345542077656273697465203d20270000000000000000000000000000000081528451614395816010840160208901613308565b71013902ba422a922903a37b5b2b734b2101e960751b6010929091019182015283516143c8816022840160208801613308565b603b60f81b6022929091019182015260230195945050505050565b7f53454c4543542532306a736f6e5f6f626a65637425323825323769642532372581527f3243746f6b656e69642532432532376e616d652532372532436e616d6525324360208201527f2532376465736372697074696f6e2532372532436465736372697074696f6e2560408201527f3243253237696d616765253237253243696d616765253243253237616464726560608201527f737325323725324361646472657373253243253237736c6f67616e253237253260808201527f43736c6f67616e25324325323770726f66696c655f696d67253237253243707260a08201527f6f66696c655f696d6725324325323762616e6e65725f696d672532372532436260c08201527f616e6e65725f696d67253243253237776562736974652532372532437765627360e08201527f697465253243253237617474726962757465732532372532436a736f6e5f67726101008201527f6f75705f61727261792532386a736f6e5f6f626a65637425323825323769636f6101208201527f6e25323725324369636f6e253243253237646973706c61795f747970652532376101408201527f253243646973706c61795f7479706525324325323774726169745f74797065256101608201527f323725324374726169745f7479706525324325323776616c75652532372532436101808201527f76616c756525323925323925323925323046524f4d25323000000000000000006101a082015260006146fb6146ac6146a661467d61467761464e61464861461f6101b88a018e613828565b7f2532304a4f494e253230000000000000000000000000000000000000000000008152600a0190565b8b613828565b7f2532304f4e253230000000000000000000000000000000000000000000000000815260080190565b88613828565b7f253245746f6b656e696425323025334425323000000000000000000000000000815260130190565b85613828565b7f2532456d61696e7461626c655f746f6b656e696425323057484552452532307481527f6f6b656e69642533440000000000000000000000000000000000000000000000602082015260290190565b9695505050505050565b60008451614717818460208901613308565b7f756e777261703d7472756526657874726163743d7472756526733d0000000000908301908152845161475181601b840160208901613308565b845191019061476781601b840160208801613308565b7f25323067726f75702532306279253230746f6b656e6964000000000000000000601b929091019182015260320195945050505050565b6602aa82220aa22960cd1b815260006147ba6007830186613828565b7f205345542061646472657373203d20270000000000000000000000000000000081528451614395816010840160208901613308565b6602aa82220aa22960cd1b8152600061480c6007830187613828565b7f2053455420646973706c61795f74797065203d2027000000000000000000000081528551614842816015840160208a01613308565b7f27205748455245206d61696e7461626c655f746f6b656e6964203d2000000000601592909101918201528451614880816031840160208901613308565b6f01020a722103a3930b4ba2fb4b2101e960851b6031929091019182015283516148b1816041840160208801613308565b603b60f81b604192909101918201526042019695505050505050565b60006000198214156148e1576148e161422f565b5060010190565b634e487b7160e01b600052601260045260246000fd5b60008261490d5761490d6148e8565b500490565b6000828210156149245761492461422f565b500390565b600082614938576149386148e8565b500690565b634e487b7160e01b600052603260045260246000fd5b7f416363657373436f6e74726f6c3a206163636f756e742000000000000000000081526000835161498b816017850160208801613308565b7f206973206d697373696e6720726f6c652000000000000000000000000000000060179184019182015283516149c8816028840160208801613308565b01602801949350505050565b60006001600160a01b038087168352808616602084015250836040830152608060608301526146fb6080830184613334565b600060208284031215614a1857600080fd5b8151612fea816132d5565b6000816000190483118215151615614a3d57614a3d61422f565b500290565b600081614a5157614a5161422f565b50600019019056fea2646970667358221220d03eb1b3ed24440453b664c98c621b69c1bcf5157d3e438d4a5dafa6351365fd64736f6c634300080c003368747470733a2f2f746573746e65742e7461626c656c616e642e6e6574776f726b2f71756572793f","opcodes":"PUSH1 0xE0 PUSH1 0x40 MSTORE PUSH1 0x28 PUSH1 0x80 DUP2 DUP2 MSTORE SWAP1 PUSH3 0x5502 PUSH1 0xA0 CODECOPY DUP1 MLOAD PUSH3 0x29 SWAP2 PUSH1 0x7 SWAP2 PUSH1 0x20 SWAP1 SWAP2 ADD SWAP1 PUSH3 0x52B JUMP JUMPDEST POP PUSH1 0x40 DUP1 MLOAD DUP1 DUP3 ADD SWAP1 SWAP2 MSTORE PUSH1 0xD DUP1 DUP3 MSTORE PUSH13 0x4D6F6A6F5F43726561746F7273 PUSH1 0x98 SHL PUSH1 0x20 SWAP1 SWAP3 ADD SWAP2 DUP3 MSTORE PUSH3 0x60 SWAP2 PUSH1 0xE SWAP2 PUSH3 0x52B JUMP JUMPDEST POP CALLVALUE DUP1 ISZERO PUSH3 0x6E JUMPI PUSH1 0x0 DUP1 REVERT JUMPDEST POP PUSH1 0x40 MLOAD PUSH3 0x552A CODESIZE SUB DUP1 PUSH3 0x552A DUP4 CODECOPY DUP2 ADD PUSH1 0x40 DUP2 SWAP1 MSTORE PUSH3 0x91 SWAP2 PUSH3 0x5D1 JUMP JUMPDEST PUSH1 0x40 DUP1 MLOAD DUP1 DUP3 ADD DUP3 MSTORE PUSH1 0xC DUP2 MSTORE PUSH12 0x26B7B5379021B932B0BA37B9 PUSH1 0xA1 SHL PUSH1 0x20 DUP1 DUP4 ADD SWAP2 DUP3 MSTORE DUP4 MLOAD DUP1 DUP6 ADD SWAP1 SWAP5 MSTORE PUSH1 0x5 DUP5 MSTORE PUSH5 0x1B58D39195 PUSH1 0xDA SHL SWAP1 DUP5 ADD MSTORE DUP2 MLOAD SWAP2 SWAP3 SWAP2 PUSH3 0xE2 SWAP2 PUSH1 0x0 SWAP2 PUSH3 0x52B JUMP JUMPDEST POP DUP1 MLOAD PUSH3 0xF8 SWAP1 PUSH1 0x1 SWAP1 PUSH1 0x20 DUP5 ADD SWAP1 PUSH3 0x52B JUMP JUMPDEST POP PUSH3 0x10A SWAP2 POP PUSH1 0x0 SWAP1 POP CALLER PUSH3 0x369 JUMP JUMPDEST PUSH1 0x9 DUP1 SLOAD PUSH1 0x1 PUSH1 0x1 PUSH1 0xA0 SHL SUB NOT AND PUSH1 0x1 PUSH1 0x1 PUSH1 0xA0 SHL SUB DUP4 AND SWAP1 DUP2 OR SWAP1 SWAP2 SSTORE PUSH4 0x3A9151B0 ADDRESS PUSH1 0xE PUSH3 0x147 CHAINID PUSH3 0x40E PUSH1 0x20 SWAP1 DUP2 SHL PUSH3 0x2420 OR SWAP1 SHR JUMP JUMPDEST PUSH1 0x40 MLOAD PUSH1 0x20 ADD PUSH3 0x15A SWAP3 SWAP2 SWAP1 PUSH3 0x715 JUMP JUMPDEST PUSH1 0x40 MLOAD PUSH1 0x20 DUP2 DUP4 SUB SUB DUP2 MSTORE SWAP1 PUSH1 0x40 MSTORE PUSH1 0x40 MLOAD DUP4 PUSH4 0xFFFFFFFF AND PUSH1 0xE0 SHL DUP2 MSTORE PUSH1 0x4 ADD PUSH3 0x188 SWAP3 SWAP2 SWAP1 PUSH3 0x80A JUMP JUMPDEST PUSH1 0x20 PUSH1 0x40 MLOAD DUP1 DUP4 SUB DUP2 PUSH1 0x0 DUP8 GAS CALL ISZERO DUP1 ISZERO PUSH3 0x1A8 JUMPI RETURNDATASIZE PUSH1 0x0 DUP1 RETURNDATACOPY RETURNDATASIZE PUSH1 0x0 REVERT JUMPDEST POP POP POP POP PUSH1 0x40 MLOAD RETURNDATASIZE PUSH1 0x1F NOT PUSH1 0x1F DUP3 ADD AND DUP3 ADD DUP1 PUSH1 0x40 MSTORE POP DUP2 ADD SWAP1 PUSH3 0x1CE SWAP2 SWAP1 PUSH3 0x84E JUMP JUMPDEST PUSH1 0xA DUP2 SWAP1 SSTORE POP PUSH1 0xE PUSH3 0x1EC CHAINID PUSH3 0x40E PUSH1 0x20 SHL PUSH3 0x2420 OR PUSH1 0x20 SHR JUMP JUMPDEST PUSH3 0x204 PUSH1 0xA SLOAD PUSH3 0x40E PUSH1 0x20 SHL PUSH3 0x2420 OR PUSH1 0x20 SHR JUMP JUMPDEST PUSH1 0x40 MLOAD PUSH1 0x20 ADD PUSH3 0x218 SWAP4 SWAP3 SWAP2 SWAP1 PUSH3 0x868 JUMP JUMPDEST PUSH1 0x40 MLOAD PUSH1 0x20 DUP2 DUP4 SUB SUB DUP2 MSTORE SWAP1 PUSH1 0x40 MSTORE PUSH1 0xC SWAP1 DUP1 MLOAD SWAP1 PUSH1 0x20 ADD SWAP1 PUSH3 0x23E SWAP3 SWAP2 SWAP1 PUSH3 0x52B JUMP JUMPDEST POP PUSH1 0x9 SLOAD PUSH1 0x1 PUSH1 0x1 PUSH1 0xA0 SHL SUB AND PUSH4 0x3A9151B0 ADDRESS PUSH1 0xE PUSH3 0x26A CHAINID PUSH3 0x40E PUSH1 0x20 SWAP1 DUP2 SHL PUSH3 0x2420 OR SWAP1 SHR JUMP JUMPDEST PUSH1 0x40 MLOAD PUSH1 0x20 ADD PUSH3 0x27D SWAP3 SWAP2 SWAP1 PUSH3 0x8BD JUMP JUMPDEST PUSH1 0x40 MLOAD PUSH1 0x20 DUP2 DUP4 SUB SUB DUP2 MSTORE SWAP1 PUSH1 0x40 MSTORE PUSH1 0x40 MLOAD DUP4 PUSH4 0xFFFFFFFF AND PUSH1 0xE0 SHL DUP2 MSTORE PUSH1 0x4 ADD PUSH3 0x2AB SWAP3 SWAP2 SWAP1 PUSH3 0x80A JUMP JUMPDEST PUSH1 0x20 PUSH1 0x40 MLOAD DUP1 DUP4 SUB DUP2 PUSH1 0x0 DUP8 GAS CALL ISZERO DUP1 ISZERO PUSH3 0x2CB JUMPI RETURNDATASIZE PUSH1 0x0 DUP1 RETURNDATACOPY RETURNDATASIZE PUSH1 0x0 REVERT JUMPDEST POP POP POP POP PUSH1 0x40 MLOAD RETURNDATASIZE PUSH1 0x1F NOT PUSH1 0x1F DUP3 ADD AND DUP3 ADD DUP1 PUSH1 0x40 MSTORE POP DUP2 ADD SWAP1 PUSH3 0x2F1 SWAP2 SWAP1 PUSH3 0x84E JUMP JUMPDEST PUSH1 0xB DUP2 SWAP1 SSTORE POP PUSH1 0xE PUSH3 0x30F CHAINID PUSH3 0x40E PUSH1 0x20 SHL PUSH3 0x2420 OR PUSH1 0x20 SHR JUMP JUMPDEST PUSH3 0x327 PUSH1 0xB SLOAD PUSH3 0x40E PUSH1 0x20 SHL PUSH3 0x2420 OR PUSH1 0x20 SHR JUMP JUMPDEST PUSH1 0x40 MLOAD PUSH1 0x20 ADD PUSH3 0x33B SWAP4 SWAP3 SWAP2 SWAP1 PUSH3 0x868 JUMP JUMPDEST PUSH1 0x40 MLOAD PUSH1 0x20 DUP2 DUP4 SUB SUB DUP2 MSTORE SWAP1 PUSH1 0x40 MSTORE PUSH1 0xD SWAP1 DUP1 MLOAD SWAP1 PUSH1 0x20 ADD SWAP1 PUSH3 0x361 SWAP3 SWAP2 SWAP1 PUSH3 0x52B JUMP JUMPDEST POP POP PUSH3 0xA63 JUMP JUMPDEST PUSH1 0x0 DUP3 DUP2 MSTORE PUSH1 0x6 PUSH1 0x20 SWAP1 DUP2 MSTORE PUSH1 0x40 DUP1 DUP4 KECCAK256 PUSH1 0x1 PUSH1 0x1 PUSH1 0xA0 SHL SUB DUP6 AND DUP5 MSTORE SWAP1 SWAP2 MSTORE SWAP1 KECCAK256 SLOAD PUSH1 0xFF AND PUSH3 0x40A JUMPI PUSH1 0x0 DUP3 DUP2 MSTORE PUSH1 0x6 PUSH1 0x20 SWAP1 DUP2 MSTORE PUSH1 0x40 DUP1 DUP4 KECCAK256 PUSH1 0x1 PUSH1 0x1 PUSH1 0xA0 SHL SUB DUP6 AND DUP5 MSTORE SWAP1 SWAP2 MSTORE SWAP1 KECCAK256 DUP1 SLOAD PUSH1 0xFF NOT AND PUSH1 0x1 OR SWAP1 SSTORE PUSH3 0x3C9 CALLER SWAP1 JUMP JUMPDEST PUSH1 0x1 PUSH1 0x1 PUSH1 0xA0 SHL SUB AND DUP2 PUSH1 0x1 PUSH1 0x1 PUSH1 0xA0 SHL SUB AND DUP4 PUSH32 0x2F8788117E7EFF1D82E926EC794901D17C78024A50270940304540A733656F0D PUSH1 0x40 MLOAD PUSH1 0x40 MLOAD DUP1 SWAP2 SUB SWAP1 LOG4 JUMPDEST POP POP JUMP JUMPDEST PUSH1 0x60 DUP2 PUSH3 0x433 JUMPI POP POP PUSH1 0x40 DUP1 MLOAD DUP1 DUP3 ADD SWAP1 SWAP2 MSTORE PUSH1 0x1 DUP2 MSTORE PUSH1 0x3 PUSH1 0xFC SHL PUSH1 0x20 DUP3 ADD MSTORE SWAP1 JUMP JUMPDEST DUP2 PUSH1 0x0 JUMPDEST DUP2 ISZERO PUSH3 0x463 JUMPI DUP1 PUSH3 0x44A DUP2 PUSH3 0x9A0 JUMP JUMPDEST SWAP2 POP PUSH3 0x45B SWAP1 POP PUSH1 0xA DUP4 PUSH3 0x9D4 JUMP JUMPDEST SWAP2 POP PUSH3 0x437 JUMP JUMPDEST PUSH1 0x0 DUP2 PUSH1 0x1 PUSH1 0x1 PUSH1 0x40 SHL SUB DUP2 GT ISZERO PUSH3 0x480 JUMPI PUSH3 0x480 PUSH3 0x9EB JUMP JUMPDEST PUSH1 0x40 MLOAD SWAP1 DUP1 DUP3 MSTORE DUP1 PUSH1 0x1F ADD PUSH1 0x1F NOT AND PUSH1 0x20 ADD DUP3 ADD PUSH1 0x40 MSTORE DUP1 ISZERO PUSH3 0x4AB JUMPI PUSH1 0x20 DUP3 ADD DUP2 DUP1 CALLDATASIZE DUP4 CALLDATACOPY ADD SWAP1 POP JUMPDEST POP SWAP1 POP JUMPDEST DUP5 ISZERO PUSH3 0x523 JUMPI PUSH3 0x4C3 PUSH1 0x1 DUP4 PUSH3 0xA01 JUMP JUMPDEST SWAP2 POP PUSH3 0x4D2 PUSH1 0xA DUP7 PUSH3 0xA1B JUMP JUMPDEST PUSH3 0x4DF SWAP1 PUSH1 0x30 PUSH3 0xA32 JUMP JUMPDEST PUSH1 0xF8 SHL DUP2 DUP4 DUP2 MLOAD DUP2 LT PUSH3 0x4F7 JUMPI PUSH3 0x4F7 PUSH3 0xA4D JUMP JUMPDEST PUSH1 0x20 ADD ADD SWAP1 PUSH1 0x1 PUSH1 0x1 PUSH1 0xF8 SHL SUB NOT AND SWAP1 DUP2 PUSH1 0x0 BYTE SWAP1 MSTORE8 POP PUSH3 0x51B PUSH1 0xA DUP7 PUSH3 0x9D4 JUMP JUMPDEST SWAP5 POP PUSH3 0x4AF JUMP JUMPDEST SWAP5 SWAP4 POP POP POP POP JUMP JUMPDEST DUP3 DUP1 SLOAD PUSH3 0x539 SWAP1 PUSH3 0x603 JUMP JUMPDEST SWAP1 PUSH1 0x0 MSTORE PUSH1 0x20 PUSH1 0x0 KECCAK256 SWAP1 PUSH1 0x1F ADD PUSH1 0x20 SWAP1 DIV DUP2 ADD SWAP3 DUP3 PUSH3 0x55D JUMPI PUSH1 0x0 DUP6 SSTORE PUSH3 0x5A8 JUMP JUMPDEST DUP3 PUSH1 0x1F LT PUSH3 0x578 JUMPI DUP1 MLOAD PUSH1 0xFF NOT AND DUP4 DUP1 ADD OR DUP6 SSTORE PUSH3 0x5A8 JUMP JUMPDEST DUP3 DUP1 ADD PUSH1 0x1 ADD DUP6 SSTORE DUP3 ISZERO PUSH3 0x5A8 JUMPI SWAP2 DUP3 ADD JUMPDEST DUP3 DUP2 GT ISZERO PUSH3 0x5A8 JUMPI DUP3 MLOAD DUP3 SSTORE SWAP2 PUSH1 0x20 ADD SWAP2 SWAP1 PUSH1 0x1 ADD SWAP1 PUSH3 0x58B JUMP JUMPDEST POP PUSH3 0x5B6 SWAP3 SWAP2 POP PUSH3 0x5BA JUMP JUMPDEST POP SWAP1 JUMP JUMPDEST JUMPDEST DUP1 DUP3 GT ISZERO PUSH3 0x5B6 JUMPI PUSH1 0x0 DUP2 SSTORE PUSH1 0x1 ADD PUSH3 0x5BB JUMP JUMPDEST PUSH1 0x0 PUSH1 0x20 DUP3 DUP5 SUB SLT ISZERO PUSH3 0x5E4 JUMPI PUSH1 0x0 DUP1 REVERT JUMPDEST DUP2 MLOAD PUSH1 0x1 PUSH1 0x1 PUSH1 0xA0 SHL SUB DUP2 AND DUP2 EQ PUSH3 0x5FC JUMPI PUSH1 0x0 DUP1 REVERT JUMPDEST SWAP4 SWAP3 POP POP POP JUMP JUMPDEST PUSH1 0x1 DUP2 DUP2 SHR SWAP1 DUP3 AND DUP1 PUSH3 0x618 JUMPI PUSH1 0x7F DUP3 AND SWAP2 POP JUMPDEST PUSH1 0x20 DUP3 LT DUP2 EQ ISZERO PUSH3 0x63A JUMPI PUSH4 0x4E487B71 PUSH1 0xE0 SHL PUSH1 0x0 MSTORE PUSH1 0x22 PUSH1 0x4 MSTORE PUSH1 0x24 PUSH1 0x0 REVERT JUMPDEST POP SWAP2 SWAP1 POP JUMP JUMPDEST DUP1 SLOAD PUSH1 0x0 SWAP1 PUSH1 0x1 DUP2 DUP2 SHR SWAP1 DUP1 DUP4 AND DUP1 PUSH3 0x65B JUMPI PUSH1 0x7F DUP4 AND SWAP3 POP JUMPDEST PUSH1 0x20 DUP1 DUP5 LT DUP3 EQ ISZERO PUSH3 0x67E JUMPI PUSH4 0x4E487B71 PUSH1 0xE0 SHL PUSH1 0x0 MSTORE PUSH1 0x22 PUSH1 0x4 MSTORE PUSH1 0x24 PUSH1 0x0 REVERT JUMPDEST DUP2 DUP1 ISZERO PUSH3 0x695 JUMPI PUSH1 0x1 DUP2 EQ PUSH3 0x6A7 JUMPI PUSH3 0x6D6 JUMP JUMPDEST PUSH1 0xFF NOT DUP7 AND DUP10 MSTORE DUP5 DUP10 ADD SWAP7 POP PUSH3 0x6D6 JUMP JUMPDEST PUSH1 0x0 DUP9 DUP2 MSTORE PUSH1 0x20 SWAP1 KECCAK256 PUSH1 0x0 JUMPDEST DUP7 DUP2 LT ISZERO PUSH3 0x6CE JUMPI DUP2 SLOAD DUP12 DUP3 ADD MSTORE SWAP1 DUP6 ADD SWAP1 DUP4 ADD PUSH3 0x6B3 JUMP JUMPDEST POP POP DUP5 DUP10 ADD SWAP7 POP JUMPDEST POP POP POP POP POP POP SWAP3 SWAP2 POP POP JUMP JUMPDEST PUSH1 0x0 JUMPDEST DUP4 DUP2 LT ISZERO PUSH3 0x6FF JUMPI DUP2 DUP2 ADD MLOAD DUP4 DUP3 ADD MSTORE PUSH1 0x20 ADD PUSH3 0x6E5 JUMP JUMPDEST DUP4 DUP2 GT ISZERO PUSH3 0x70F JUMPI PUSH1 0x0 DUP5 DUP5 ADD MSTORE JUMPDEST POP POP POP POP JUMP JUMPDEST PUSH13 0x21A922A0AA22902A20A126229 PUSH1 0x9D SHL DUP2 MSTORE PUSH1 0x0 PUSH3 0x739 PUSH1 0xD DUP4 ADD DUP6 PUSH3 0x640 JUMP JUMPDEST PUSH1 0x5F PUSH1 0xF8 SHL DUP2 MSTORE DUP4 MLOAD PUSH3 0x755 DUP2 PUSH1 0x1 DUP5 ADD PUSH1 0x20 DUP9 ADD PUSH3 0x6E2 JUMP JUMPDEST PUSH32 0x2028746F6B656E696420696E742C206E616D6520746578742C20646573637269 PUSH1 0x1 SWAP3 SWAP1 SWAP2 ADD SWAP2 DUP3 ADD MSTORE PUSH32 0x7074696F6E20746578742C20696D61676520746578742C206164647265737320 PUSH1 0x21 DUP3 ADD MSTORE PUSH32 0x746578742C20736C6F67616E20746578742C2070726F66696C655F696D672074 PUSH1 0x41 DUP3 ADD MSTORE PUSH32 0x6578742C2062616E6E65725F696D6720746578742C2077656273697465207465 PUSH1 0x61 DUP3 ADD MSTORE PUSH4 0x7874293B PUSH1 0xE0 SHL PUSH1 0x81 DUP3 ADD MSTORE PUSH1 0x85 ADD SWAP5 SWAP4 POP POP POP POP JUMP JUMPDEST PUSH1 0x1 DUP1 PUSH1 0xA0 SHL SUB DUP4 AND DUP2 MSTORE PUSH1 0x40 PUSH1 0x20 DUP3 ADD MSTORE PUSH1 0x0 DUP3 MLOAD DUP1 PUSH1 0x40 DUP5 ADD MSTORE PUSH3 0x839 DUP2 PUSH1 0x60 DUP6 ADD PUSH1 0x20 DUP8 ADD PUSH3 0x6E2 JUMP JUMPDEST PUSH1 0x1F ADD PUSH1 0x1F NOT AND SWAP2 SWAP1 SWAP2 ADD PUSH1 0x60 ADD SWAP4 SWAP3 POP POP POP JUMP JUMPDEST PUSH1 0x0 PUSH1 0x20 DUP3 DUP5 SUB SLT ISZERO PUSH3 0x861 JUMPI PUSH1 0x0 DUP1 REVERT JUMPDEST POP MLOAD SWAP2 SWAP1 POP JUMP JUMPDEST PUSH1 0x0 PUSH3 0x876 DUP3 DUP7 PUSH3 0x640 JUMP JUMPDEST PUSH1 0x5F PUSH1 0xF8 SHL DUP1 DUP3 MSTORE DUP6 MLOAD PUSH3 0x893 DUP2 PUSH1 0x1 DUP6 ADD PUSH1 0x20 DUP11 ADD PUSH3 0x6E2 JUMP JUMPDEST PUSH1 0x1 SWAP3 ADD SWAP2 DUP3 ADD MSTORE DUP4 MLOAD PUSH3 0x8B0 DUP2 PUSH1 0x2 DUP5 ADD PUSH1 0x20 DUP9 ADD PUSH3 0x6E2 JUMP JUMPDEST ADD PUSH1 0x2 ADD SWAP6 SWAP5 POP POP POP POP POP JUMP JUMPDEST PUSH13 0x21A922A0AA22902A20A126229 PUSH1 0x9D SHL DUP2 MSTORE PUSH1 0x0 PUSH3 0x8E1 PUSH1 0xD DUP4 ADD DUP6 PUSH3 0x640 JUMP JUMPDEST PUSH1 0x5F PUSH1 0xF8 SHL DUP2 MSTORE DUP4 MLOAD PUSH3 0x8FD DUP2 PUSH1 0x1 DUP5 ADD PUSH1 0x20 DUP9 ADD PUSH3 0x6E2 JUMP JUMPDEST PUSH32 0x20286D61696E7461626C655F746F6B656E696420696E742C2074726169745F69 PUSH1 0x1 SWAP3 SWAP1 SWAP2 ADD SWAP2 DUP3 ADD MSTORE PUSH32 0x6420696E742C2069636F6E20746578742C20646973706C61795F747970652074 PUSH1 0x21 DUP3 ADD MSTORE PUSH32 0x6578742C2074726169745F7479706520746578742C2076616C75652074657874 PUSH1 0x41 DUP3 ADD MSTORE PUSH2 0x293B PUSH1 0xF0 SHL PUSH1 0x61 DUP3 ADD MSTORE PUSH1 0x63 ADD SWAP5 SWAP4 POP POP POP POP JUMP JUMPDEST PUSH4 0x4E487B71 PUSH1 0xE0 SHL PUSH1 0x0 MSTORE PUSH1 0x11 PUSH1 0x4 MSTORE PUSH1 0x24 PUSH1 0x0 REVERT JUMPDEST PUSH1 0x0 PUSH1 0x0 NOT DUP3 EQ ISZERO PUSH3 0x9B7 JUMPI PUSH3 0x9B7 PUSH3 0x98A JUMP JUMPDEST POP PUSH1 0x1 ADD SWAP1 JUMP JUMPDEST PUSH4 0x4E487B71 PUSH1 0xE0 SHL PUSH1 0x0 MSTORE PUSH1 0x12 PUSH1 0x4 MSTORE PUSH1 0x24 PUSH1 0x0 REVERT JUMPDEST PUSH1 0x0 DUP3 PUSH3 0x9E6 JUMPI PUSH3 0x9E6 PUSH3 0x9BE JUMP JUMPDEST POP DIV SWAP1 JUMP JUMPDEST PUSH4 0x4E487B71 PUSH1 0xE0 SHL PUSH1 0x0 MSTORE PUSH1 0x41 PUSH1 0x4 MSTORE PUSH1 0x24 PUSH1 0x0 REVERT JUMPDEST PUSH1 0x0 DUP3 DUP3 LT ISZERO PUSH3 0xA16 JUMPI PUSH3 0xA16 PUSH3 0x98A JUMP JUMPDEST POP SUB SWAP1 JUMP JUMPDEST PUSH1 0x0 DUP3 PUSH3 0xA2D JUMPI PUSH3 0xA2D PUSH3 0x9BE JUMP JUMPDEST POP MOD SWAP1 JUMP JUMPDEST PUSH1 0x0 DUP3 NOT DUP3 GT ISZERO PUSH3 0xA48 JUMPI PUSH3 0xA48 PUSH3 0x98A JUMP JUMPDEST POP ADD SWAP1 JUMP JUMPDEST PUSH4 0x4E487B71 PUSH1 0xE0 SHL PUSH1 0x0 MSTORE PUSH1 0x32 PUSH1 0x4 MSTORE PUSH1 0x24 PUSH1 0x0 REVERT JUMPDEST PUSH2 0x4A8F DUP1 PUSH3 0xA73 PUSH1 0x0 CODECOPY PUSH1 0x0 RETURN INVALID PUSH1 0x80 PUSH1 0x40 MSTORE CALLVALUE DUP1 ISZERO PUSH2 0x10 JUMPI PUSH1 0x0 DUP1 REVERT JUMPDEST POP PUSH1 0x4 CALLDATASIZE LT PUSH2 0x292 JUMPI PUSH1 0x0 CALLDATALOAD PUSH1 0xE0 SHR DUP1 PUSH4 0x6352211E GT PUSH2 0x160 JUMPI DUP1 PUSH4 0xA217FDDF GT PUSH2 0xD8 JUMPI DUP1 PUSH4 0xC87B56DD GT PUSH2 0x8C JUMPI DUP1 PUSH4 0xD7D8418F GT PUSH2 0x71 JUMPI DUP1 PUSH4 0xD7D8418F EQ PUSH2 0x563 JUMPI DUP1 PUSH4 0xE985E9C5 EQ PUSH2 0x576 JUMPI DUP1 PUSH4 0xF15DAA02 EQ PUSH2 0x5B2 JUMPI PUSH1 0x0 DUP1 REVERT JUMPDEST DUP1 PUSH4 0xC87B56DD EQ PUSH2 0x53D JUMPI DUP1 PUSH4 0xD547741F EQ PUSH2 0x550 JUMPI PUSH1 0x0 DUP1 REVERT JUMPDEST DUP1 PUSH4 0xA8E62F09 GT PUSH2 0xBD JUMPI DUP1 PUSH4 0xA8E62F09 EQ PUSH2 0x50F JUMPI DUP1 PUSH4 0xAB33B051 EQ PUSH2 0x517 JUMPI DUP1 PUSH4 0xB88D4FDE EQ PUSH2 0x52A JUMPI PUSH1 0x0 DUP1 REVERT JUMPDEST DUP1 PUSH4 0xA217FDDF EQ PUSH2 0x4F4 JUMPI DUP1 PUSH4 0xA22CB465 EQ PUSH2 0x4FC JUMPI PUSH1 0x0 DUP1 REVERT JUMPDEST DUP1 PUSH4 0x8586B42F GT PUSH2 0x12F JUMPI DUP1 PUSH4 0x91D14854 GT PUSH2 0x114 JUMPI DUP1 PUSH4 0x91D14854 EQ PUSH2 0x4A0 JUMPI DUP1 PUSH4 0x95D89B41 EQ PUSH2 0x4D9 JUMPI DUP1 PUSH4 0xA1CED596 EQ PUSH2 0x4E1 JUMPI PUSH1 0x0 DUP1 REVERT JUMPDEST DUP1 PUSH4 0x8586B42F EQ PUSH2 0x47A JUMPI DUP1 PUSH4 0x88458005 EQ PUSH2 0x48D JUMPI PUSH1 0x0 DUP1 REVERT JUMPDEST DUP1 PUSH4 0x6352211E EQ PUSH2 0x439 JUMPI DUP1 PUSH4 0x6A283CE2 EQ PUSH2 0x44C JUMPI DUP1 PUSH4 0x70A08231 EQ PUSH2 0x45F JUMPI DUP1 PUSH4 0x7BC53BE9 EQ PUSH2 0x472 JUMPI PUSH1 0x0 DUP1 REVERT JUMPDEST DUP1 PUSH4 0x2D30C0FC GT PUSH2 0x20E JUMPI DUP1 PUSH4 0x442219EF GT PUSH2 0x1C2 JUMPI DUP1 PUSH4 0x5D21260A GT PUSH2 0x1A7 JUMPI DUP1 PUSH4 0x5D21260A EQ PUSH2 0x40B JUMPI DUP1 PUSH4 0x606A9612 EQ PUSH2 0x413 JUMPI DUP1 PUSH4 0x60AF4275 EQ PUSH2 0x426 JUMPI PUSH1 0x0 DUP1 REVERT JUMPDEST DUP1 PUSH4 0x442219EF EQ PUSH2 0x3E5 JUMPI DUP1 PUSH4 0x55F804B3 EQ PUSH2 0x3F8 JUMPI PUSH1 0x0 DUP1 REVERT JUMPDEST DUP1 PUSH4 0x313E91CB GT PUSH2 0x1F3 JUMPI DUP1 PUSH4 0x313E91CB EQ PUSH2 0x3AC JUMPI DUP1 PUSH4 0x36568ABE EQ PUSH2 0x3BF JUMPI DUP1 PUSH4 0x42842E0E EQ PUSH2 0x3D2 JUMPI PUSH1 0x0 DUP1 REVERT JUMPDEST DUP1 PUSH4 0x2D30C0FC EQ PUSH2 0x386 JUMPI DUP1 PUSH4 0x2F2FF15D EQ PUSH2 0x399 JUMPI PUSH1 0x0 DUP1 REVERT JUMPDEST DUP1 PUSH4 0x91A77E7 GT PUSH2 0x265 JUMPI DUP1 PUSH4 0x103A0DDC GT PUSH2 0x24A JUMPI DUP1 PUSH4 0x103A0DDC EQ PUSH2 0x32F JUMPI DUP1 PUSH4 0x23B872DD EQ PUSH2 0x342 JUMPI DUP1 PUSH4 0x248A9CA3 EQ PUSH2 0x355 JUMPI PUSH1 0x0 DUP1 REVERT JUMPDEST DUP1 PUSH4 0x91A77E7 EQ PUSH2 0x314 JUMPI DUP1 PUSH4 0x95EA7B3 EQ PUSH2 0x31C JUMPI PUSH1 0x0 DUP1 REVERT JUMPDEST DUP1 PUSH4 0x1637608 EQ PUSH2 0x297 JUMPI DUP1 PUSH4 0x1FFC9A7 EQ PUSH2 0x2AC JUMPI DUP1 PUSH4 0x6FDDE03 EQ PUSH2 0x2D4 JUMPI DUP1 PUSH4 0x81812FC EQ PUSH2 0x2E9 JUMPI JUMPDEST PUSH1 0x0 DUP1 REVERT JUMPDEST PUSH2 0x2AA PUSH2 0x2A5 CALLDATASIZE PUSH1 0x4 PUSH2 0x3285 JUMP JUMPDEST PUSH2 0x5C5 JUMP JUMPDEST STOP JUMPDEST PUSH2 0x2BF PUSH2 0x2BA CALLDATASIZE PUSH1 0x4 PUSH2 0x32EB JUMP JUMPDEST PUSH2 0x7BB JUMP JUMPDEST PUSH1 0x40 MLOAD SWAP1 ISZERO ISZERO DUP2 MSTORE PUSH1 0x20 ADD JUMPDEST PUSH1 0x40 MLOAD DUP1 SWAP2 SUB SWAP1 RETURN JUMPDEST PUSH2 0x2DC PUSH2 0x7CC JUMP JUMPDEST PUSH1 0x40 MLOAD PUSH2 0x2CB SWAP2 SWAP1 PUSH2 0x3360 JUMP JUMPDEST PUSH2 0x2FC PUSH2 0x2F7 CALLDATASIZE PUSH1 0x4 PUSH2 0x3373 JUMP JUMPDEST PUSH2 0x85E JUMP JUMPDEST PUSH1 0x40 MLOAD PUSH1 0x1 PUSH1 0x1 PUSH1 0xA0 SHL SUB SWAP1 SWAP2 AND DUP2 MSTORE PUSH1 0x20 ADD PUSH2 0x2CB JUMP JUMPDEST PUSH2 0x2DC PUSH2 0x885 JUMP JUMPDEST PUSH2 0x2AA PUSH2 0x32A CALLDATASIZE PUSH1 0x4 PUSH2 0x33B1 JUMP JUMPDEST PUSH2 0x8BC JUMP JUMPDEST PUSH2 0x2AA PUSH2 0x33D CALLDATASIZE PUSH1 0x4 PUSH2 0x33DD JUMP JUMPDEST PUSH2 0x9EE JUMP JUMPDEST PUSH2 0x2AA PUSH2 0x350 CALLDATASIZE PUSH1 0x4 PUSH2 0x3424 JUMP JUMPDEST PUSH2 0xB72 JUMP JUMPDEST PUSH2 0x378 PUSH2 0x363 CALLDATASIZE PUSH1 0x4 PUSH2 0x3373 JUMP JUMPDEST PUSH1 0x0 SWAP1 DUP2 MSTORE PUSH1 0x6 PUSH1 0x20 MSTORE PUSH1 0x40 SWAP1 KECCAK256 PUSH1 0x1 ADD SLOAD SWAP1 JUMP JUMPDEST PUSH1 0x40 MLOAD SWAP1 DUP2 MSTORE PUSH1 0x20 ADD PUSH2 0x2CB JUMP JUMPDEST PUSH2 0x2AA PUSH2 0x394 CALLDATASIZE PUSH1 0x4 PUSH2 0x33DD JUMP JUMPDEST PUSH2 0xBF9 JUMP JUMPDEST PUSH2 0x2AA PUSH2 0x3A7 CALLDATASIZE PUSH1 0x4 PUSH2 0x3465 JUMP JUMPDEST PUSH2 0xD71 JUMP JUMPDEST PUSH2 0x2AA PUSH2 0x3BA CALLDATASIZE PUSH1 0x4 PUSH2 0x3285 JUMP JUMPDEST PUSH2 0xD96 JUMP JUMPDEST PUSH2 0x2AA PUSH2 0x3CD CALLDATASIZE PUSH1 0x4 PUSH2 0x3465 JUMP JUMPDEST PUSH2 0xF7A JUMP JUMPDEST PUSH2 0x2AA PUSH2 0x3E0 CALLDATASIZE PUSH1 0x4 PUSH2 0x3424 JUMP JUMPDEST PUSH2 0x1006 JUMP JUMPDEST PUSH2 0x2AA PUSH2 0x3F3 CALLDATASIZE PUSH1 0x4 PUSH2 0x33DD JUMP JUMPDEST PUSH2 0x1021 JUMP JUMPDEST PUSH2 0x2AA PUSH2 0x406 CALLDATASIZE PUSH1 0x4 PUSH2 0x3495 JUMP JUMPDEST PUSH2 0x1199 JUMP JUMPDEST PUSH2 0x2DC PUSH2 0x11B7 JUMP JUMPDEST PUSH2 0x2AA PUSH2 0x421 CALLDATASIZE PUSH1 0x4 PUSH2 0x33DD JUMP JUMPDEST PUSH2 0x1245 JUMP JUMPDEST PUSH2 0x2AA PUSH2 0x434 CALLDATASIZE PUSH1 0x4 PUSH2 0x3285 JUMP JUMPDEST PUSH2 0x13BD JUMP JUMPDEST PUSH2 0x2FC PUSH2 0x447 CALLDATASIZE PUSH1 0x4 PUSH2 0x3373 JUMP JUMPDEST PUSH2 0x15A1 JUMP JUMPDEST PUSH2 0x2AA PUSH2 0x45A CALLDATASIZE PUSH1 0x4 PUSH2 0x33DD JUMP JUMPDEST PUSH2 0x1606 JUMP JUMPDEST PUSH2 0x378 PUSH2 0x46D CALLDATASIZE PUSH1 0x4 PUSH2 0x34CA JUMP JUMPDEST PUSH2 0x177E JUMP JUMPDEST PUSH2 0x2DC PUSH2 0x1818 JUMP JUMPDEST PUSH2 0x378 PUSH2 0x488 CALLDATASIZE PUSH1 0x4 PUSH2 0x34E7 JUMP JUMPDEST PUSH2 0x1825 JUMP JUMPDEST PUSH2 0x2AA PUSH2 0x49B CALLDATASIZE PUSH1 0x4 PUSH2 0x33DD JUMP JUMPDEST PUSH2 0x19DF JUMP JUMPDEST PUSH2 0x2BF PUSH2 0x4AE CALLDATASIZE PUSH1 0x4 PUSH2 0x3465 JUMP JUMPDEST PUSH1 0x0 SWAP2 DUP3 MSTORE PUSH1 0x6 PUSH1 0x20 SWAP1 DUP2 MSTORE PUSH1 0x40 DUP1 DUP5 KECCAK256 PUSH1 0x1 PUSH1 0x1 PUSH1 0xA0 SHL SUB SWAP4 SWAP1 SWAP4 AND DUP5 MSTORE SWAP2 SWAP1 MSTORE SWAP1 KECCAK256 SLOAD PUSH1 0xFF AND SWAP1 JUMP JUMPDEST PUSH2 0x2DC PUSH2 0x1B57 JUMP JUMPDEST PUSH2 0x378 PUSH2 0x4EF CALLDATASIZE PUSH1 0x4 PUSH2 0x3638 JUMP JUMPDEST PUSH2 0x1B66 JUMP JUMPDEST PUSH2 0x378 PUSH1 0x0 DUP2 JUMP JUMPDEST PUSH2 0x2AA PUSH2 0x50A CALLDATASIZE PUSH1 0x4 PUSH2 0x36EF JUMP JUMPDEST PUSH2 0x1D50 JUMP JUMPDEST PUSH2 0x2DC PUSH2 0x1D5B JUMP JUMPDEST PUSH2 0x2AA PUSH2 0x525 CALLDATASIZE PUSH1 0x4 PUSH2 0x33DD JUMP JUMPDEST PUSH2 0x1D7D JUMP JUMPDEST PUSH2 0x2AA PUSH2 0x538 CALLDATASIZE PUSH1 0x4 PUSH2 0x3722 JUMP JUMPDEST PUSH2 0x1EF5 JUMP JUMPDEST PUSH2 0x2DC PUSH2 0x54B CALLDATASIZE PUSH1 0x4 PUSH2 0x3373 JUMP JUMPDEST PUSH2 0x1F83 JUMP JUMPDEST PUSH2 0x2AA PUSH2 0x55E CALLDATASIZE PUSH1 0x4 PUSH2 0x3465 JUMP JUMPDEST PUSH2 0x209F JUMP JUMPDEST PUSH2 0x2AA PUSH2 0x571 CALLDATASIZE PUSH1 0x4 PUSH2 0x33DD JUMP JUMPDEST PUSH2 0x20C4 JUMP JUMPDEST PUSH2 0x2BF PUSH2 0x584 CALLDATASIZE PUSH1 0x4 PUSH2 0x37A2 JUMP JUMPDEST PUSH1 0x1 PUSH1 0x1 PUSH1 0xA0 SHL SUB SWAP2 DUP3 AND PUSH1 0x0 SWAP1 DUP2 MSTORE PUSH1 0x5 PUSH1 0x20 SWAP1 DUP2 MSTORE PUSH1 0x40 DUP1 DUP4 KECCAK256 SWAP4 SWAP1 SWAP5 AND DUP3 MSTORE SWAP2 SWAP1 SWAP2 MSTORE KECCAK256 SLOAD PUSH1 0xFF AND SWAP1 JUMP JUMPDEST PUSH2 0x2AA PUSH2 0x5C0 CALLDATASIZE PUSH1 0x4 PUSH2 0x3285 JUMP JUMPDEST PUSH2 0x223C JUMP JUMPDEST PUSH1 0x40 MLOAD PUSH4 0x31A9108F PUSH1 0xE1 SHL DUP2 MSTORE PUSH1 0x4 DUP2 ADD DUP5 SWAP1 MSTORE CALLER SWAP1 ADDRESS SWAP1 PUSH4 0x6352211E SWAP1 PUSH1 0x24 ADD PUSH1 0x20 PUSH1 0x40 MLOAD DUP1 DUP4 SUB DUP2 DUP7 GAS STATICCALL ISZERO DUP1 ISZERO PUSH2 0x603 JUMPI RETURNDATASIZE PUSH1 0x0 DUP1 RETURNDATACOPY RETURNDATASIZE PUSH1 0x0 REVERT JUMPDEST POP POP POP POP PUSH1 0x40 MLOAD RETURNDATASIZE PUSH1 0x1F NOT PUSH1 0x1F DUP3 ADD AND DUP3 ADD DUP1 PUSH1 0x40 MSTORE POP DUP2 ADD SWAP1 PUSH2 0x627 SWAP2 SWAP1 PUSH2 0x37D0 JUMP JUMPDEST PUSH1 0x1 PUSH1 0x1 PUSH1 0xA0 SHL SUB AND EQ PUSH2 0x672 JUMPI PUSH1 0x40 MLOAD PUSH3 0x461BCD PUSH1 0xE5 SHL DUP2 MSTORE PUSH1 0x20 PUSH1 0x4 DUP3 ADD MSTORE PUSH1 0xD PUSH1 0x24 DUP3 ADD MSTORE PUSH13 0x24B73B30B634B21037BBB732B9 PUSH1 0x99 SHL PUSH1 0x44 DUP3 ADD MSTORE PUSH1 0x64 ADD JUMPDEST PUSH1 0x40 MLOAD DUP1 SWAP2 SUB SWAP1 REVERT JUMPDEST PUSH1 0x0 DUP4 DUP2 MSTORE PUSH1 0xF PUSH1 0x20 MSTORE PUSH1 0x40 SWAP1 KECCAK256 SLOAD DUP3 GT DUP1 ISZERO SWAP1 PUSH2 0x690 JUMPI POP PUSH1 0x0 DUP3 GT JUMPDEST PUSH2 0x6D2 JUMPI PUSH1 0x40 MLOAD PUSH3 0x461BCD PUSH1 0xE5 SHL DUP2 MSTORE PUSH1 0x20 PUSH1 0x4 DUP3 ADD MSTORE PUSH1 0x13 PUSH1 0x24 DUP3 ADD MSTORE PUSH19 0x3A3930B4BA2FB4B2103737BA103337BAB7321 PUSH1 0x6D SHL PUSH1 0x44 DUP3 ADD MSTORE PUSH1 0x64 ADD PUSH2 0x669 JUMP JUMPDEST PUSH1 0x9 SLOAD PUSH1 0xB SLOAD PUSH1 0x1 PUSH1 0x1 PUSH1 0xA0 SHL SUB SWAP1 SWAP2 AND SWAP1 PUSH4 0xEAF5D04E SWAP1 ADDRESS SWAP1 PUSH1 0xD DUP6 PUSH2 0x6F8 DUP10 PUSH2 0x2420 JUMP JUMPDEST PUSH2 0x701 DUP10 PUSH2 0x2420 JUMP JUMPDEST PUSH1 0x40 MLOAD PUSH1 0x20 ADD PUSH2 0x714 SWAP5 SWAP4 SWAP3 SWAP2 SWAP1 PUSH2 0x38DE JUMP JUMPDEST PUSH1 0x40 MLOAD PUSH1 0x20 DUP2 DUP4 SUB SUB DUP2 MSTORE SWAP1 PUSH1 0x40 MSTORE PUSH1 0x40 MLOAD DUP5 PUSH4 0xFFFFFFFF AND PUSH1 0xE0 SHL DUP2 MSTORE PUSH1 0x4 ADD PUSH2 0x741 SWAP4 SWAP3 SWAP2 SWAP1 PUSH2 0x39BB JUMP JUMPDEST PUSH1 0x0 PUSH1 0x40 MLOAD DUP1 DUP4 SUB DUP2 PUSH1 0x0 DUP8 DUP1 EXTCODESIZE ISZERO DUP1 ISZERO PUSH2 0x75B JUMPI PUSH1 0x0 DUP1 REVERT JUMPDEST POP GAS CALL ISZERO DUP1 ISZERO PUSH2 0x76F JUMPI RETURNDATASIZE PUSH1 0x0 DUP1 RETURNDATACOPY RETURNDATASIZE PUSH1 0x0 REVERT JUMPDEST POP POP PUSH1 0xB SLOAD PUSH1 0x40 MLOAD CALLER SWAP4 POP PUSH32 0xBC3FDC5C3D813C4A99D9005E48663BAA4F6A682AFD7BB19427443C53942909C5 SWAP3 POP PUSH2 0x7AE SWAP2 TIMESTAMP SWAP2 DUP7 SWAP1 DUP10 SWAP1 DUP10 SWAP1 PUSH2 0x39EC JUMP JUMPDEST PUSH1 0x40 MLOAD DUP1 SWAP2 SUB SWAP1 LOG2 POP POP POP JUMP JUMPDEST PUSH1 0x0 PUSH2 0x7C6 DUP3 PUSH2 0x2526 JUMP JUMPDEST SWAP3 SWAP2 POP POP JUMP JUMPDEST PUSH1 0x60 PUSH1 0x0 DUP1 SLOAD PUSH2 0x7DB SWAP1 PUSH2 0x37ED JUMP JUMPDEST DUP1 PUSH1 0x1F ADD PUSH1 0x20 DUP1 SWAP2 DIV MUL PUSH1 0x20 ADD PUSH1 0x40 MLOAD SWAP1 DUP2 ADD PUSH1 0x40 MSTORE DUP1 SWAP3 SWAP2 SWAP1 DUP2 DUP2 MSTORE PUSH1 0x20 ADD DUP3 DUP1 SLOAD PUSH2 0x807 SWAP1 PUSH2 0x37ED JUMP JUMPDEST DUP1 ISZERO PUSH2 0x854 JUMPI DUP1 PUSH1 0x1F LT PUSH2 0x829 JUMPI PUSH2 0x100 DUP1 DUP4 SLOAD DIV MUL DUP4 MSTORE SWAP2 PUSH1 0x20 ADD SWAP2 PUSH2 0x854 JUMP JUMPDEST DUP3 ADD SWAP2 SWAP1 PUSH1 0x0 MSTORE PUSH1 0x20 PUSH1 0x0 KECCAK256 SWAP1 JUMPDEST DUP2 SLOAD DUP2 MSTORE SWAP1 PUSH1 0x1 ADD SWAP1 PUSH1 0x20 ADD DUP1 DUP4 GT PUSH2 0x837 JUMPI DUP3 SWAP1 SUB PUSH1 0x1F AND DUP3 ADD SWAP2 JUMPDEST POP POP POP POP POP SWAP1 POP SWAP1 JUMP JUMPDEST PUSH1 0x0 PUSH2 0x869 DUP3 PUSH2 0x2564 JUMP JUMPDEST POP PUSH1 0x0 SWAP1 DUP2 MSTORE PUSH1 0x4 PUSH1 0x20 MSTORE PUSH1 0x40 SWAP1 KECCAK256 SLOAD PUSH1 0x1 PUSH1 0x1 PUSH1 0xA0 SHL SUB AND SWAP1 JUMP JUMPDEST PUSH1 0x60 PUSH1 0x0 PUSH2 0x891 PUSH2 0x25CB JUMP JUMPDEST SWAP1 POP DUP1 PUSH1 0xD PUSH1 0x40 MLOAD PUSH1 0x20 ADD PUSH2 0x8A7 SWAP3 SWAP2 SWAP1 PUSH2 0x3A1F JUMP JUMPDEST PUSH1 0x40 MLOAD PUSH1 0x20 DUP2 DUP4 SUB SUB DUP2 MSTORE SWAP1 PUSH1 0x40 MSTORE SWAP2 POP POP SWAP1 JUMP JUMPDEST PUSH1 0x0 PUSH2 0x8C7 DUP3 PUSH2 0x15A1 JUMP JUMPDEST SWAP1 POP DUP1 PUSH1 0x1 PUSH1 0x1 PUSH1 0xA0 SHL SUB AND DUP4 PUSH1 0x1 PUSH1 0x1 PUSH1 0xA0 SHL SUB AND EQ ISZERO PUSH2 0x951 JUMPI PUSH1 0x40 MLOAD PUSH3 0x461BCD PUSH1 0xE5 SHL DUP2 MSTORE PUSH1 0x20 PUSH1 0x4 DUP3 ADD MSTORE PUSH1 0x21 PUSH1 0x24 DUP3 ADD MSTORE PUSH32 0x4552433732313A20617070726F76616C20746F2063757272656E74206F776E65 PUSH1 0x44 DUP3 ADD MSTORE PUSH32 0x7200000000000000000000000000000000000000000000000000000000000000 PUSH1 0x64 DUP3 ADD MSTORE PUSH1 0x84 ADD PUSH2 0x669 JUMP JUMPDEST CALLER PUSH1 0x1 PUSH1 0x1 PUSH1 0xA0 SHL SUB DUP3 AND EQ DUP1 PUSH2 0x96D JUMPI POP PUSH2 0x96D DUP2 CALLER PUSH2 0x584 JUMP JUMPDEST PUSH2 0x9DF JUMPI PUSH1 0x40 MLOAD PUSH3 0x461BCD PUSH1 0xE5 SHL DUP2 MSTORE PUSH1 0x20 PUSH1 0x4 DUP3 ADD MSTORE PUSH1 0x3E PUSH1 0x24 DUP3 ADD MSTORE PUSH32 0x4552433732313A20617070726F76652063616C6C6572206973206E6F7420746F PUSH1 0x44 DUP3 ADD MSTORE PUSH32 0x6B656E206F776E6572206E6F7220617070726F76656420666F7220616C6C0000 PUSH1 0x64 DUP3 ADD MSTORE PUSH1 0x84 ADD PUSH2 0x669 JUMP JUMPDEST PUSH2 0x9E9 DUP4 DUP4 PUSH2 0x25DA JUMP JUMPDEST POP POP POP JUMP JUMPDEST PUSH1 0x40 MLOAD PUSH4 0x31A9108F PUSH1 0xE1 SHL DUP2 MSTORE PUSH1 0x4 DUP2 ADD DUP4 SWAP1 MSTORE CALLER SWAP1 ADDRESS SWAP1 PUSH4 0x6352211E SWAP1 PUSH1 0x24 ADD PUSH1 0x20 PUSH1 0x40 MLOAD DUP1 DUP4 SUB DUP2 DUP7 GAS STATICCALL ISZERO DUP1 ISZERO PUSH2 0xA2C JUMPI RETURNDATASIZE PUSH1 0x0 DUP1 RETURNDATACOPY RETURNDATASIZE PUSH1 0x0 REVERT JUMPDEST POP POP POP POP PUSH1 0x40 MLOAD RETURNDATASIZE PUSH1 0x1F NOT PUSH1 0x1F DUP3 ADD AND DUP3 ADD DUP1 PUSH1 0x40 MSTORE POP DUP2 ADD SWAP1 PUSH2 0xA50 SWAP2 SWAP1 PUSH2 0x37D0 JUMP JUMPDEST PUSH1 0x1 PUSH1 0x1 PUSH1 0xA0 SHL SUB AND EQ PUSH2 0xA96 JUMPI PUSH1 0x40 MLOAD PUSH3 0x461BCD PUSH1 0xE5 SHL DUP2 MSTORE PUSH1 0x20 PUSH1 0x4 DUP3 ADD MSTORE PUSH1 0xD PUSH1 0x24 DUP3 ADD MSTORE PUSH13 0x24B73B30B634B21037BBB732B9 PUSH1 0x99 SHL PUSH1 0x44 DUP3 ADD MSTORE PUSH1 0x64 ADD PUSH2 0x669 JUMP JUMPDEST PUSH1 0x9 SLOAD PUSH1 0xA SLOAD PUSH1 0x1 PUSH1 0x1 PUSH1 0xA0 SHL SUB SWAP1 SWAP2 AND SWAP1 PUSH4 0xEAF5D04E SWAP1 ADDRESS SWAP1 PUSH1 0xC DUP6 PUSH2 0xABC DUP9 PUSH2 0x2420 JUMP JUMPDEST PUSH1 0x40 MLOAD PUSH1 0x20 ADD PUSH2 0xACE SWAP4 SWAP3 SWAP2 SWAP1 PUSH2 0x3A8B JUMP JUMPDEST PUSH1 0x40 MLOAD PUSH1 0x20 DUP2 DUP4 SUB SUB DUP2 MSTORE SWAP1 PUSH1 0x40 MSTORE PUSH1 0x40 MLOAD DUP5 PUSH4 0xFFFFFFFF AND PUSH1 0xE0 SHL DUP2 MSTORE PUSH1 0x4 ADD PUSH2 0xAFB SWAP4 SWAP3 SWAP2 SWAP1 PUSH2 0x39BB JUMP JUMPDEST PUSH1 0x0 PUSH1 0x40 MLOAD DUP1 DUP4 SUB DUP2 PUSH1 0x0 DUP8 DUP1 EXTCODESIZE ISZERO DUP1 ISZERO PUSH2 0xB15 JUMPI PUSH1 0x0 DUP1 REVERT JUMPDEST POP GAS CALL ISZERO DUP1 ISZERO PUSH2 0xB29 JUMPI RETURNDATASIZE PUSH1 0x0 DUP1 RETURNDATACOPY RETURNDATASIZE PUSH1 0x0 REVERT JUMPDEST POP POP PUSH1 0xA SLOAD PUSH1 0x40 MLOAD CALLER SWAP4 POP PUSH32 0x7B744AF363CAB769A8BF44672E4CE2224A699270F405E278A2078F251293D5B8 SWAP3 POP PUSH2 0xB66 SWAP2 TIMESTAMP SWAP2 DUP7 SWAP1 DUP9 SWAP1 PUSH2 0x3B2B JUMP JUMPDEST PUSH1 0x40 MLOAD DUP1 SWAP2 SUB SWAP1 LOG2 POP POP JUMP JUMPDEST PUSH2 0xB7C CALLER DUP3 PUSH2 0x2655 JUMP JUMPDEST PUSH2 0xBEE JUMPI PUSH1 0x40 MLOAD PUSH3 0x461BCD PUSH1 0xE5 SHL DUP2 MSTORE PUSH1 0x20 PUSH1 0x4 DUP3 ADD MSTORE PUSH1 0x2E PUSH1 0x24 DUP3 ADD MSTORE PUSH32 0x4552433732313A2063616C6C6572206973206E6F7420746F6B656E206F776E65 PUSH1 0x44 DUP3 ADD MSTORE PUSH32 0x72206E6F7220617070726F766564000000000000000000000000000000000000 PUSH1 0x64 DUP3 ADD MSTORE PUSH1 0x84 ADD PUSH2 0x669 JUMP JUMPDEST PUSH2 0x9E9 DUP4 DUP4 DUP4 PUSH2 0x26D3 JUMP JUMPDEST PUSH1 0x40 MLOAD PUSH4 0x31A9108F PUSH1 0xE1 SHL DUP2 MSTORE PUSH1 0x4 DUP2 ADD DUP4 SWAP1 MSTORE CALLER SWAP1 ADDRESS SWAP1 PUSH4 0x6352211E SWAP1 PUSH1 0x24 ADD PUSH1 0x20 PUSH1 0x40 MLOAD DUP1 DUP4 SUB DUP2 DUP7 GAS STATICCALL ISZERO DUP1 ISZERO PUSH2 0xC37 JUMPI RETURNDATASIZE PUSH1 0x0 DUP1 RETURNDATACOPY RETURNDATASIZE PUSH1 0x0 REVERT JUMPDEST POP POP POP POP PUSH1 0x40 MLOAD RETURNDATASIZE PUSH1 0x1F NOT PUSH1 0x1F DUP3 ADD AND DUP3 ADD DUP1 PUSH1 0x40 MSTORE POP DUP2 ADD SWAP1 PUSH2 0xC5B SWAP2 SWAP1 PUSH2 0x37D0 JUMP JUMPDEST PUSH1 0x1 PUSH1 0x1 PUSH1 0xA0 SHL SUB AND EQ PUSH2 0xCA1 JUMPI PUSH1 0x40 MLOAD PUSH3 0x461BCD PUSH1 0xE5 SHL DUP2 MSTORE PUSH1 0x20 PUSH1 0x4 DUP3 ADD MSTORE PUSH1 0xD PUSH1 0x24 DUP3 ADD MSTORE PUSH13 0x24B73B30B634B21037BBB732B9 PUSH1 0x99 SHL PUSH1 0x44 DUP3 ADD MSTORE PUSH1 0x64 ADD PUSH2 0x669 JUMP JUMPDEST PUSH1 0x9 SLOAD PUSH1 0xA SLOAD PUSH1 0x1 PUSH1 0x1 PUSH1 0xA0 SHL SUB SWAP1 SWAP2 AND SWAP1 PUSH4 0xEAF5D04E SWAP1 ADDRESS SWAP1 PUSH1 0xC DUP6 PUSH2 0xCC7 DUP9 PUSH2 0x2420 JUMP JUMPDEST PUSH1 0x40 MLOAD PUSH1 0x20 ADD PUSH2 0xCD9 SWAP4 SWAP3 SWAP2 SWAP1 PUSH2 0x3B5B JUMP JUMPDEST PUSH1 0x40 MLOAD PUSH1 0x20 DUP2 DUP4 SUB SUB DUP2 MSTORE SWAP1 PUSH1 0x40 MSTORE PUSH1 0x40 MLOAD DUP5 PUSH4 0xFFFFFFFF AND PUSH1 0xE0 SHL DUP2 MSTORE PUSH1 0x4 ADD PUSH2 0xD06 SWAP4 SWAP3 SWAP2 SWAP1 PUSH2 0x39BB JUMP JUMPDEST PUSH1 0x0 PUSH1 0x40 MLOAD DUP1 DUP4 SUB DUP2 PUSH1 0x0 DUP8 DUP1 EXTCODESIZE ISZERO DUP1 ISZERO PUSH2 0xD20 JUMPI PUSH1 0x0 DUP1 REVERT JUMPDEST POP GAS CALL ISZERO DUP1 ISZERO PUSH2 0xD34 JUMPI RETURNDATASIZE PUSH1 0x0 DUP1 RETURNDATACOPY RETURNDATASIZE PUSH1 0x0 REVERT JUMPDEST POP POP PUSH1 0xA SLOAD PUSH1 0x40 MLOAD CALLER SWAP4 POP PUSH32 0x718061D6F6B3BD0556E7CAAAF9CF765F425B72543AB78084CD28716CB17C9D55 SWAP3 POP PUSH2 0xB66 SWAP2 TIMESTAMP SWAP2 DUP7 SWAP1 DUP9 SWAP1 PUSH2 0x3B2B JUMP JUMPDEST PUSH1 0x0 DUP3 DUP2 MSTORE PUSH1 0x6 PUSH1 0x20 MSTORE PUSH1 0x40 SWAP1 KECCAK256 PUSH1 0x1 ADD SLOAD PUSH2 0xD8C DUP2 PUSH2 0x28AD JUMP JUMPDEST PUSH2 0x9E9 DUP4 DUP4 PUSH2 0x28B7 JUMP JUMPDEST PUSH1 0x40 MLOAD PUSH4 0x31A9108F PUSH1 0xE1 SHL DUP2 MSTORE PUSH1 0x4 DUP2 ADD DUP5 SWAP1 MSTORE CALLER SWAP1 ADDRESS SWAP1 PUSH4 0x6352211E SWAP1 PUSH1 0x24 ADD PUSH1 0x20 PUSH1 0x40 MLOAD DUP1 DUP4 SUB DUP2 DUP7 GAS STATICCALL ISZERO DUP1 ISZERO PUSH2 0xDD4 JUMPI RETURNDATASIZE PUSH1 0x0 DUP1 RETURNDATACOPY RETURNDATASIZE PUSH1 0x0 REVERT JUMPDEST POP POP POP POP PUSH1 0x40 MLOAD RETURNDATASIZE PUSH1 0x1F NOT PUSH1 0x1F DUP3 ADD AND DUP3 ADD DUP1 PUSH1 0x40 MSTORE POP DUP2 ADD SWAP1 PUSH2 0xDF8 SWAP2 SWAP1 PUSH2 0x37D0 JUMP JUMPDEST PUSH1 0x1 PUSH1 0x1 PUSH1 0xA0 SHL SUB AND EQ PUSH2 0xE3E JUMPI PUSH1 0x40 MLOAD PUSH3 0x461BCD PUSH1 0xE5 SHL DUP2 MSTORE PUSH1 0x20 PUSH1 0x4 DUP3 ADD MSTORE PUSH1 0xD PUSH1 0x24 DUP3 ADD MSTORE PUSH13 0x24B73B30B634B21037BBB732B9 PUSH1 0x99 SHL PUSH1 0x44 DUP3 ADD MSTORE PUSH1 0x64 ADD PUSH2 0x669 JUMP JUMPDEST PUSH1 0x0 DUP4 DUP2 MSTORE PUSH1 0xF PUSH1 0x20 MSTORE PUSH1 0x40 SWAP1 KECCAK256 SLOAD DUP3 GT DUP1 ISZERO SWAP1 PUSH2 0xE5C JUMPI POP PUSH1 0x0 DUP3 GT JUMPDEST PUSH2 0xE9E JUMPI PUSH1 0x40 MLOAD PUSH3 0x461BCD PUSH1 0xE5 SHL DUP2 MSTORE PUSH1 0x20 PUSH1 0x4 DUP3 ADD MSTORE PUSH1 0x13 PUSH1 0x24 DUP3 ADD MSTORE PUSH19 0x3A3930B4BA2FB4B2103737BA103337BAB7321 PUSH1 0x6D SHL PUSH1 0x44 DUP3 ADD MSTORE PUSH1 0x64 ADD PUSH2 0x669 JUMP JUMPDEST PUSH1 0x9 SLOAD PUSH1 0xB SLOAD PUSH1 0x1 PUSH1 0x1 PUSH1 0xA0 SHL SUB SWAP1 SWAP2 AND SWAP1 PUSH4 0xEAF5D04E SWAP1 ADDRESS SWAP1 PUSH1 0xD DUP6 PUSH2 0xEC4 DUP10 PUSH2 0x2420 JUMP JUMPDEST PUSH2 0xECD DUP10 PUSH2 0x2420 JUMP JUMPDEST PUSH1 0x40 MLOAD PUSH1 0x20 ADD PUSH2 0xEE0 SWAP5 SWAP4 SWAP3 SWAP2 SWAP1 PUSH2 0x3BFC JUMP JUMPDEST PUSH1 0x40 MLOAD PUSH1 0x20 DUP2 DUP4 SUB SUB DUP2 MSTORE SWAP1 PUSH1 0x40 MSTORE PUSH1 0x40 MLOAD DUP5 PUSH4 0xFFFFFFFF AND PUSH1 0xE0 SHL DUP2 MSTORE PUSH1 0x4 ADD PUSH2 0xF0D SWAP4 SWAP3 SWAP2 SWAP1 PUSH2 0x39BB JUMP JUMPDEST PUSH1 0x0 PUSH1 0x40 MLOAD DUP1 DUP4 SUB DUP2 PUSH1 0x0 DUP8 DUP1 EXTCODESIZE ISZERO DUP1 ISZERO PUSH2 0xF27 JUMPI PUSH1 0x0 DUP1 REVERT JUMPDEST POP GAS CALL ISZERO DUP1 ISZERO PUSH2 0xF3B JUMPI RETURNDATASIZE PUSH1 0x0 DUP1 RETURNDATACOPY RETURNDATASIZE PUSH1 0x0 REVERT JUMPDEST POP POP PUSH1 0xB SLOAD PUSH1 0x40 MLOAD CALLER SWAP4 POP PUSH32 0xEC0F0D67678A9D5A686AB06FA92FADB72E148B9EBDEAD00EB6601B6A1FD07C8F SWAP3 POP PUSH2 0x7AE SWAP2 TIMESTAMP SWAP2 DUP7 SWAP1 DUP10 SWAP1 DUP10 SWAP1 PUSH2 0x39EC JUMP JUMPDEST PUSH1 0x1 PUSH1 0x1 PUSH1 0xA0 SHL SUB DUP2 AND CALLER EQ PUSH2 0xFF8 JUMPI PUSH1 0x40 MLOAD PUSH3 0x461BCD PUSH1 0xE5 SHL DUP2 MSTORE PUSH1 0x20 PUSH1 0x4 DUP3 ADD MSTORE PUSH1 0x2F PUSH1 0x24 DUP3 ADD MSTORE PUSH32 0x416363657373436F6E74726F6C3A2063616E206F6E6C792072656E6F756E6365 PUSH1 0x44 DUP3 ADD MSTORE PUSH32 0x20726F6C657320666F722073656C660000000000000000000000000000000000 PUSH1 0x64 DUP3 ADD MSTORE PUSH1 0x84 ADD PUSH2 0x669 JUMP JUMPDEST PUSH2 0x1002 DUP3 DUP3 PUSH2 0x2959 JUMP JUMPDEST POP POP JUMP JUMPDEST PUSH2 0x9E9 DUP4 DUP4 DUP4 PUSH1 0x40 MLOAD DUP1 PUSH1 0x20 ADD PUSH1 0x40 MSTORE DUP1 PUSH1 0x0 DUP2 MSTORE POP PUSH2 0x1EF5 JUMP JUMPDEST PUSH1 0x40 MLOAD PUSH4 0x31A9108F PUSH1 0xE1 SHL DUP2 MSTORE PUSH1 0x4 DUP2 ADD DUP4 SWAP1 MSTORE CALLER SWAP1 ADDRESS SWAP1 PUSH4 0x6352211E SWAP1 PUSH1 0x24 ADD PUSH1 0x20 PUSH1 0x40 MLOAD DUP1 DUP4 SUB DUP2 DUP7 GAS STATICCALL ISZERO DUP1 ISZERO PUSH2 0x105F JUMPI RETURNDATASIZE PUSH1 0x0 DUP1 RETURNDATACOPY RETURNDATASIZE PUSH1 0x0 REVERT JUMPDEST POP POP POP POP PUSH1 0x40 MLOAD RETURNDATASIZE PUSH1 0x1F NOT PUSH1 0x1F DUP3 ADD AND DUP3 ADD DUP1 PUSH1 0x40 MSTORE POP DUP2 ADD SWAP1 PUSH2 0x1083 SWAP2 SWAP1 PUSH2 0x37D0 JUMP JUMPDEST PUSH1 0x1 PUSH1 0x1 PUSH1 0xA0 SHL SUB AND EQ PUSH2 0x10C9 JUMPI PUSH1 0x40 MLOAD PUSH3 0x461BCD PUSH1 0xE5 SHL DUP2 MSTORE PUSH1 0x20 PUSH1 0x4 DUP3 ADD MSTORE PUSH1 0xD PUSH1 0x24 DUP3 ADD MSTORE PUSH13 0x24B73B30B634B21037BBB732B9 PUSH1 0x99 SHL PUSH1 0x44 DUP3 ADD MSTORE PUSH1 0x64 ADD PUSH2 0x669 JUMP JUMPDEST PUSH1 0x9 SLOAD PUSH1 0xA SLOAD PUSH1 0x1 PUSH1 0x1 PUSH1 0xA0 SHL SUB SWAP1 SWAP2 AND SWAP1 PUSH4 0xEAF5D04E SWAP1 ADDRESS SWAP1 PUSH1 0xC DUP6 PUSH2 0x10EF DUP9 PUSH2 0x2420 JUMP JUMPDEST PUSH1 0x40 MLOAD PUSH1 0x20 ADD PUSH2 0x1101 SWAP4 SWAP3 SWAP2 SWAP1 PUSH2 0x3CD9 JUMP JUMPDEST PUSH1 0x40 MLOAD PUSH1 0x20 DUP2 DUP4 SUB SUB DUP2 MSTORE SWAP1 PUSH1 0x40 MSTORE PUSH1 0x40 MLOAD DUP5 PUSH4 0xFFFFFFFF AND PUSH1 0xE0 SHL DUP2 MSTORE PUSH1 0x4 ADD PUSH2 0x112E SWAP4 SWAP3 SWAP2 SWAP1 PUSH2 0x39BB JUMP JUMPDEST PUSH1 0x0 PUSH1 0x40 MLOAD DUP1 DUP4 SUB DUP2 PUSH1 0x0 DUP8 DUP1 EXTCODESIZE ISZERO DUP1 ISZERO PUSH2 0x1148 JUMPI PUSH1 0x0 DUP1 REVERT JUMPDEST POP GAS CALL ISZERO DUP1 ISZERO PUSH2 0x115C JUMPI RETURNDATASIZE PUSH1 0x0 DUP1 RETURNDATACOPY RETURNDATASIZE PUSH1 0x0 REVERT JUMPDEST POP POP PUSH1 0xA SLOAD PUSH1 0x40 MLOAD CALLER SWAP4 POP PUSH32 0x56142FAA60451D3157BCB004137D211D376FCCD824EC9087245D41D11CEF5580 SWAP3 POP PUSH2 0xB66 SWAP2 TIMESTAMP SWAP2 DUP7 SWAP1 DUP9 SWAP1 PUSH2 0x3B2B JUMP JUMPDEST PUSH1 0x0 PUSH2 0x11A4 DUP2 PUSH2 0x28AD JUMP JUMPDEST DUP2 MLOAD PUSH2 0x9E9 SWAP1 PUSH1 0x7 SWAP1 PUSH1 0x20 DUP6 ADD SWAP1 PUSH2 0x3140 JUMP JUMPDEST PUSH1 0xC DUP1 SLOAD PUSH2 0x11C4 SWAP1 PUSH2 0x37ED JUMP JUMPDEST DUP1 PUSH1 0x1F ADD PUSH1 0x20 DUP1 SWAP2 DIV MUL PUSH1 0x20 ADD PUSH1 0x40 MLOAD SWAP1 DUP2 ADD PUSH1 0x40 MSTORE DUP1 SWAP3 SWAP2 SWAP1 DUP2 DUP2 MSTORE PUSH1 0x20 ADD DUP3 DUP1 SLOAD PUSH2 0x11F0 SWAP1 PUSH2 0x37ED JUMP JUMPDEST DUP1 ISZERO PUSH2 0x123D JUMPI DUP1 PUSH1 0x1F LT PUSH2 0x1212 JUMPI PUSH2 0x100 DUP1 DUP4 SLOAD DIV MUL DUP4 MSTORE SWAP2 PUSH1 0x20 ADD SWAP2 PUSH2 0x123D JUMP JUMPDEST DUP3 ADD SWAP2 SWAP1 PUSH1 0x0 MSTORE PUSH1 0x20 PUSH1 0x0 KECCAK256 SWAP1 JUMPDEST DUP2 SLOAD DUP2 MSTORE SWAP1 PUSH1 0x1 ADD SWAP1 PUSH1 0x20 ADD DUP1 DUP4 GT PUSH2 0x1220 JUMPI DUP3 SWAP1 SUB PUSH1 0x1F AND DUP3 ADD SWAP2 JUMPDEST POP POP POP POP POP DUP2 JUMP JUMPDEST PUSH1 0x40 MLOAD PUSH4 0x31A9108F PUSH1 0xE1 SHL DUP2 MSTORE PUSH1 0x4 DUP2 ADD DUP4 SWAP1 MSTORE CALLER SWAP1 ADDRESS SWAP1 PUSH4 0x6352211E SWAP1 PUSH1 0x24 ADD PUSH1 0x20 PUSH1 0x40 MLOAD DUP1 DUP4 SUB DUP2 DUP7 GAS STATICCALL ISZERO DUP1 ISZERO PUSH2 0x1283 JUMPI RETURNDATASIZE PUSH1 0x0 DUP1 RETURNDATACOPY RETURNDATASIZE PUSH1 0x0 REVERT JUMPDEST POP POP POP POP PUSH1 0x40 MLOAD RETURNDATASIZE PUSH1 0x1F NOT PUSH1 0x1F DUP3 ADD AND DUP3 ADD DUP1 PUSH1 0x40 MSTORE POP DUP2 ADD SWAP1 PUSH2 0x12A7 SWAP2 SWAP1 PUSH2 0x37D0 JUMP JUMPDEST PUSH1 0x1 PUSH1 0x1 PUSH1 0xA0 SHL SUB AND EQ PUSH2 0x12ED JUMPI PUSH1 0x40 MLOAD PUSH3 0x461BCD PUSH1 0xE5 SHL DUP2 MSTORE PUSH1 0x20 PUSH1 0x4 DUP3 ADD MSTORE PUSH1 0xD PUSH1 0x24 DUP3 ADD MSTORE PUSH13 0x24B73B30B634B21037BBB732B9 PUSH1 0x99 SHL PUSH1 0x44 DUP3 ADD MSTORE PUSH1 0x64 ADD PUSH2 0x669 JUMP JUMPDEST PUSH1 0x9 SLOAD PUSH1 0xA SLOAD PUSH1 0x1 PUSH1 0x1 PUSH1 0xA0 SHL SUB SWAP1 SWAP2 AND SWAP1 PUSH4 0xEAF5D04E SWAP1 ADDRESS SWAP1 PUSH1 0xC DUP6 PUSH2 0x1313 DUP9 PUSH2 0x2420 JUMP JUMPDEST PUSH1 0x40 MLOAD PUSH1 0x20 ADD PUSH2 0x1325 SWAP4 SWAP3 SWAP2 SWAP1 PUSH2 0x3D79 JUMP JUMPDEST PUSH1 0x40 MLOAD PUSH1 0x20 DUP2 DUP4 SUB SUB DUP2 MSTORE SWAP1 PUSH1 0x40 MSTORE PUSH1 0x40 MLOAD DUP5 PUSH4 0xFFFFFFFF AND PUSH1 0xE0 SHL DUP2 MSTORE PUSH1 0x4 ADD PUSH2 0x1352 SWAP4 SWAP3 SWAP2 SWAP1 PUSH2 0x39BB JUMP JUMPDEST PUSH1 0x0 PUSH1 0x40 MLOAD DUP1 DUP4 SUB DUP2 PUSH1 0x0 DUP8 DUP1 EXTCODESIZE ISZERO DUP1 ISZERO PUSH2 0x136C JUMPI PUSH1 0x0 DUP1 REVERT JUMPDEST POP GAS CALL ISZERO DUP1 ISZERO PUSH2 0x1380 JUMPI RETURNDATASIZE PUSH1 0x0 DUP1 RETURNDATACOPY RETURNDATASIZE PUSH1 0x0 REVERT JUMPDEST POP POP PUSH1 0xA SLOAD PUSH1 0x40 MLOAD CALLER SWAP4 POP PUSH32 0x34F39AB14BC214FC40236BD17290DEA7A5EBBCA4716D256A079AA1DB9EA901DD SWAP3 POP PUSH2 0xB66 SWAP2 TIMESTAMP SWAP2 DUP7 SWAP1 DUP9 SWAP1 PUSH2 0x3B2B JUMP JUMPDEST PUSH1 0x40 MLOAD PUSH4 0x31A9108F PUSH1 0xE1 SHL DUP2 MSTORE PUSH1 0x4 DUP2 ADD DUP5 SWAP1 MSTORE CALLER SWAP1 ADDRESS SWAP1 PUSH4 0x6352211E SWAP1 PUSH1 0x24 ADD PUSH1 0x20 PUSH1 0x40 MLOAD DUP1 DUP4 SUB DUP2 DUP7 GAS STATICCALL ISZERO DUP1 ISZERO PUSH2 0x13FB JUMPI RETURNDATASIZE PUSH1 0x0 DUP1 RETURNDATACOPY RETURNDATASIZE PUSH1 0x0 REVERT JUMPDEST POP POP POP POP PUSH1 0x40 MLOAD RETURNDATASIZE PUSH1 0x1F NOT PUSH1 0x1F DUP3 ADD AND DUP3 ADD DUP1 PUSH1 0x40 MSTORE POP DUP2 ADD SWAP1 PUSH2 0x141F SWAP2 SWAP1 PUSH2 0x37D0 JUMP JUMPDEST PUSH1 0x1 PUSH1 0x1 PUSH1 0xA0 SHL SUB AND EQ PUSH2 0x1465 JUMPI PUSH1 0x40 MLOAD PUSH3 0x461BCD PUSH1 0xE5 SHL DUP2 MSTORE PUSH1 0x20 PUSH1 0x4 DUP3 ADD MSTORE PUSH1 0xD PUSH1 0x24 DUP3 ADD MSTORE PUSH13 0x24B73B30B634B21037BBB732B9 PUSH1 0x99 SHL PUSH1 0x44 DUP3 ADD MSTORE PUSH1 0x64 ADD PUSH2 0x669 JUMP JUMPDEST PUSH1 0x0 DUP4 DUP2 MSTORE PUSH1 0xF PUSH1 0x20 MSTORE PUSH1 0x40 SWAP1 KECCAK256 SLOAD DUP3 GT DUP1 ISZERO SWAP1 PUSH2 0x1483 JUMPI POP PUSH1 0x0 DUP3 GT JUMPDEST PUSH2 0x14C5 JUMPI PUSH1 0x40 MLOAD PUSH3 0x461BCD PUSH1 0xE5 SHL DUP2 MSTORE PUSH1 0x20 PUSH1 0x4 DUP3 ADD MSTORE PUSH1 0x13 PUSH1 0x24 DUP3 ADD MSTORE PUSH19 0x3A3930B4BA2FB4B2103737BA103337BAB7321 PUSH1 0x6D SHL PUSH1 0x44 DUP3 ADD MSTORE PUSH1 0x64 ADD PUSH2 0x669 JUMP JUMPDEST PUSH1 0x9 SLOAD PUSH1 0xB SLOAD PUSH1 0x1 PUSH1 0x1 PUSH1 0xA0 SHL SUB SWAP1 SWAP2 AND SWAP1 PUSH4 0xEAF5D04E SWAP1 ADDRESS SWAP1 PUSH1 0xD DUP6 PUSH2 0x14EB DUP10 PUSH2 0x2420 JUMP JUMPDEST PUSH2 0x14F4 DUP10 PUSH2 0x2420 JUMP JUMPDEST PUSH1 0x40 MLOAD PUSH1 0x20 ADD PUSH2 0x1507 SWAP5 SWAP4 SWAP3 SWAP2 SWAP1 PUSH2 0x3DCB JUMP JUMPDEST PUSH1 0x40 MLOAD PUSH1 0x20 DUP2 DUP4 SUB SUB DUP2 MSTORE SWAP1 PUSH1 0x40 MSTORE PUSH1 0x40 MLOAD DUP5 PUSH4 0xFFFFFFFF AND PUSH1 0xE0 SHL DUP2 MSTORE PUSH1 0x4 ADD PUSH2 0x1534 SWAP4 SWAP3 SWAP2 SWAP1 PUSH2 0x39BB JUMP JUMPDEST PUSH1 0x0 PUSH1 0x40 MLOAD DUP1 DUP4 SUB DUP2 PUSH1 0x0 DUP8 DUP1 EXTCODESIZE ISZERO DUP1 ISZERO PUSH2 0x154E JUMPI PUSH1 0x0 DUP1 REVERT JUMPDEST POP GAS CALL ISZERO DUP1 ISZERO PUSH2 0x1562 JUMPI RETURNDATASIZE PUSH1 0x0 DUP1 RETURNDATACOPY RETURNDATASIZE PUSH1 0x0 REVERT JUMPDEST POP POP PUSH1 0xB SLOAD PUSH1 0x40 MLOAD CALLER SWAP4 POP PUSH32 0x280BB8C24C5B69393733B8CF1779EC264023540E75149B5024DE5EA55A41736E SWAP3 POP PUSH2 0x7AE SWAP2 TIMESTAMP SWAP2 DUP7 SWAP1 DUP10 SWAP1 DUP10 SWAP1 PUSH2 0x39EC JUMP JUMPDEST PUSH1 0x0 DUP2 DUP2 MSTORE PUSH1 0x2 PUSH1 0x20 MSTORE PUSH1 0x40 DUP2 KECCAK256 SLOAD PUSH1 0x1 PUSH1 0x1 PUSH1 0xA0 SHL SUB AND DUP1 PUSH2 0x7C6 JUMPI PUSH1 0x40 MLOAD PUSH3 0x461BCD PUSH1 0xE5 SHL DUP2 MSTORE PUSH1 0x20 PUSH1 0x4 DUP3 ADD MSTORE PUSH1 0x18 PUSH1 0x24 DUP3 ADD MSTORE PUSH32 0x4552433732313A20696E76616C696420746F6B656E2049440000000000000000 PUSH1 0x44 DUP3 ADD MSTORE PUSH1 0x64 ADD PUSH2 0x669 JUMP JUMPDEST PUSH1 0x40 MLOAD PUSH4 0x31A9108F PUSH1 0xE1 SHL DUP2 MSTORE PUSH1 0x4 DUP2 ADD DUP4 SWAP1 MSTORE CALLER SWAP1 ADDRESS SWAP1 PUSH4 0x6352211E SWAP1 PUSH1 0x24 ADD PUSH1 0x20 PUSH1 0x40 MLOAD DUP1 DUP4 SUB DUP2 DUP7 GAS STATICCALL ISZERO DUP1 ISZERO PUSH2 0x1644 JUMPI RETURNDATASIZE PUSH1 0x0 DUP1 RETURNDATACOPY RETURNDATASIZE PUSH1 0x0 REVERT JUMPDEST POP POP POP POP PUSH1 0x40 MLOAD RETURNDATASIZE PUSH1 0x1F NOT PUSH1 0x1F DUP3 ADD AND DUP3 ADD DUP1 PUSH1 0x40 MSTORE POP DUP2 ADD SWAP1 PUSH2 0x1668 SWAP2 SWAP1 PUSH2 0x37D0 JUMP JUMPDEST PUSH1 0x1 PUSH1 0x1 PUSH1 0xA0 SHL SUB AND EQ PUSH2 0x16AE JUMPI PUSH1 0x40 MLOAD PUSH3 0x461BCD PUSH1 0xE5 SHL DUP2 MSTORE PUSH1 0x20 PUSH1 0x4 DUP3 ADD MSTORE PUSH1 0xD PUSH1 0x24 DUP3 ADD MSTORE PUSH13 0x24B73B30B634B21037BBB732B9 PUSH1 0x99 SHL PUSH1 0x44 DUP3 ADD MSTORE PUSH1 0x64 ADD PUSH2 0x669 JUMP JUMPDEST PUSH1 0x9 SLOAD PUSH1 0xA SLOAD PUSH1 0x1 PUSH1 0x1 PUSH1 0xA0 SHL SUB SWAP1 SWAP2 AND SWAP1 PUSH4 0xEAF5D04E SWAP1 ADDRESS SWAP1 PUSH1 0xC DUP6 PUSH2 0x16D4 DUP9 PUSH2 0x2420 JUMP JUMPDEST PUSH1 0x40 MLOAD PUSH1 0x20 ADD PUSH2 0x16E6 SWAP4 SWAP3 SWAP2 SWAP1 PUSH2 0x3EA8 JUMP JUMPDEST PUSH1 0x40 MLOAD PUSH1 0x20 DUP2 DUP4 SUB SUB DUP2 MSTORE SWAP1 PUSH1 0x40 MSTORE PUSH1 0x40 MLOAD DUP5 PUSH4 0xFFFFFFFF AND PUSH1 0xE0 SHL DUP2 MSTORE PUSH1 0x4 ADD PUSH2 0x1713 SWAP4 SWAP3 SWAP2 SWAP1 PUSH2 0x39BB JUMP JUMPDEST PUSH1 0x0 PUSH1 0x40 MLOAD DUP1 DUP4 SUB DUP2 PUSH1 0x0 DUP8 DUP1 EXTCODESIZE ISZERO DUP1 ISZERO PUSH2 0x172D JUMPI PUSH1 0x0 DUP1 REVERT JUMPDEST POP GAS CALL ISZERO DUP1 ISZERO PUSH2 0x1741 JUMPI RETURNDATASIZE PUSH1 0x0 DUP1 RETURNDATACOPY RETURNDATASIZE PUSH1 0x0 REVERT JUMPDEST POP POP PUSH1 0xA SLOAD PUSH1 0x40 MLOAD CALLER SWAP4 POP PUSH32 0x1A4940BC8962FEB51C853BD670161C0FFFD6E75D6ECFD2D8152403DC30EDAEC6 SWAP3 POP PUSH2 0xB66 SWAP2 TIMESTAMP SWAP2 DUP7 SWAP1 DUP9 SWAP1 PUSH2 0x3B2B JUMP JUMPDEST PUSH1 0x0 PUSH1 0x1 PUSH1 0x1 PUSH1 0xA0 SHL SUB DUP3 AND PUSH2 0x17FC JUMPI PUSH1 0x40 MLOAD PUSH3 0x461BCD PUSH1 0xE5 SHL DUP2 MSTORE PUSH1 0x20 PUSH1 0x4 DUP3 ADD MSTORE PUSH1 0x29 PUSH1 0x24 DUP3 ADD MSTORE PUSH32 0x4552433732313A2061646472657373207A65726F206973206E6F742061207661 PUSH1 0x44 DUP3 ADD MSTORE PUSH32 0x6C6964206F776E65720000000000000000000000000000000000000000000000 PUSH1 0x64 DUP3 ADD MSTORE PUSH1 0x84 ADD PUSH2 0x669 JUMP JUMPDEST POP PUSH1 0x1 PUSH1 0x1 PUSH1 0xA0 SHL SUB AND PUSH1 0x0 SWAP1 DUP2 MSTORE PUSH1 0x3 PUSH1 0x20 MSTORE PUSH1 0x40 SWAP1 KECCAK256 SLOAD SWAP1 JUMP JUMPDEST PUSH1 0xD DUP1 SLOAD PUSH2 0x11C4 SWAP1 PUSH2 0x37ED JUMP JUMPDEST PUSH1 0x0 DUP1 PUSH2 0x1831 PUSH1 0x8 SLOAD SWAP1 JUMP JUMPDEST PUSH1 0x9 SLOAD PUSH1 0xA SLOAD SWAP2 SWAP3 POP PUSH1 0x1 PUSH1 0x1 PUSH1 0xA0 SHL SUB AND SWAP1 PUSH4 0xEAF5D04E SWAP1 ADDRESS SWAP1 PUSH1 0xC PUSH2 0x1857 DUP7 PUSH2 0x2420 JUMP JUMPDEST DUP16 DUP16 DUP16 DUP16 PUSH1 0x40 MLOAD PUSH1 0x20 ADD PUSH2 0x1870 SWAP7 SWAP6 SWAP5 SWAP4 SWAP3 SWAP2 SWAP1 PUSH2 0x3F48 JUMP JUMPDEST PUSH1 0x40 MLOAD PUSH1 0x20 DUP2 DUP4 SUB SUB DUP2 MSTORE SWAP1 PUSH1 0x40 MSTORE PUSH1 0x40 MLOAD DUP5 PUSH4 0xFFFFFFFF AND PUSH1 0xE0 SHL DUP2 MSTORE PUSH1 0x4 ADD PUSH2 0x189D SWAP4 SWAP3 SWAP2 SWAP1 PUSH2 0x39BB JUMP JUMPDEST PUSH1 0x0 PUSH1 0x40 MLOAD DUP1 DUP4 SUB DUP2 PUSH1 0x0 DUP8 DUP1 EXTCODESIZE ISZERO DUP1 ISZERO PUSH2 0x18B7 JUMPI PUSH1 0x0 DUP1 REVERT JUMPDEST POP GAS CALL ISZERO DUP1 ISZERO PUSH2 0x18CB JUMPI RETURNDATASIZE PUSH1 0x0 DUP1 RETURNDATACOPY RETURNDATASIZE PUSH1 0x0 REVERT JUMPDEST POP POP PUSH1 0x9 SLOAD PUSH1 0xB SLOAD PUSH1 0x1 PUSH1 0x1 PUSH1 0xA0 SHL SUB SWAP1 SWAP2 AND SWAP3 POP PUSH4 0xEAF5D04E SWAP2 POP ADDRESS SWAP1 PUSH1 0xD PUSH2 0x18F4 DUP7 PUSH2 0x2420 JUMP JUMPDEST DUP12 DUP12 DUP12 DUP12 PUSH1 0x40 MLOAD PUSH1 0x20 ADD PUSH2 0x190D SWAP7 SWAP6 SWAP5 SWAP4 SWAP3 SWAP2 SWAP1 PUSH2 0x4059 JUMP JUMPDEST PUSH1 0x40 MLOAD PUSH1 0x20 DUP2 DUP4 SUB SUB DUP2 MSTORE SWAP1 PUSH1 0x40 MSTORE PUSH1 0x40 MLOAD DUP5 PUSH4 0xFFFFFFFF AND PUSH1 0xE0 SHL DUP2 MSTORE PUSH1 0x4 ADD PUSH2 0x193A SWAP4 SWAP3 SWAP2 SWAP1 PUSH2 0x39BB JUMP JUMPDEST PUSH1 0x0 PUSH1 0x40 MLOAD DUP1 DUP4 SUB DUP2 PUSH1 0x0 DUP8 DUP1 EXTCODESIZE ISZERO DUP1 ISZERO PUSH2 0x1954 JUMPI PUSH1 0x0 DUP1 REVERT JUMPDEST POP GAS CALL ISZERO DUP1 ISZERO PUSH2 0x1968 JUMPI RETURNDATASIZE PUSH1 0x0 DUP1 RETURNDATACOPY RETURNDATASIZE PUSH1 0x0 REVERT JUMPDEST POP POP POP POP PUSH2 0x1976 DUP12 DUP3 PUSH2 0x29DC JUMP JUMPDEST PUSH1 0x0 DUP2 DUP2 MSTORE PUSH1 0xF PUSH1 0x20 MSTORE PUSH1 0x40 SWAP1 KECCAK256 PUSH1 0x1 SWAP1 SSTORE PUSH2 0x1996 PUSH1 0x8 DUP1 SLOAD PUSH1 0x1 ADD SWAP1 SSTORE JUMP JUMPDEST PUSH1 0x40 DUP1 MLOAD TIMESTAMP DUP2 MSTORE PUSH1 0x20 DUP2 ADD DUP4 SWAP1 MSTORE CALLER SWAP2 PUSH32 0x61B141191D79859F7CC6256C1B9E5F380052197831EFE9135841C0FF4DE7E63 SWAP2 ADD PUSH1 0x40 MLOAD DUP1 SWAP2 SUB SWAP1 LOG2 SWAP11 SWAP10 POP POP POP POP POP POP POP POP POP POP JUMP JUMPDEST PUSH1 0x40 MLOAD PUSH4 0x31A9108F PUSH1 0xE1 SHL DUP2 MSTORE PUSH1 0x4 DUP2 ADD DUP4 SWAP1 MSTORE CALLER SWAP1 ADDRESS SWAP1 PUSH4 0x6352211E SWAP1 PUSH1 0x24 ADD PUSH1 0x20 PUSH1 0x40 MLOAD DUP1 DUP4 SUB DUP2 DUP7 GAS STATICCALL ISZERO DUP1 ISZERO PUSH2 0x1A1D JUMPI RETURNDATASIZE PUSH1 0x0 DUP1 RETURNDATACOPY RETURNDATASIZE PUSH1 0x0 REVERT JUMPDEST POP POP POP POP PUSH1 0x40 MLOAD RETURNDATASIZE PUSH1 0x1F NOT PUSH1 0x1F DUP3 ADD AND DUP3 ADD DUP1 PUSH1 0x40 MSTORE POP DUP2 ADD SWAP1 PUSH2 0x1A41 SWAP2 SWAP1 PUSH2 0x37D0 JUMP JUMPDEST PUSH1 0x1 PUSH1 0x1 PUSH1 0xA0 SHL SUB AND EQ PUSH2 0x1A87 JUMPI PUSH1 0x40 MLOAD PUSH3 0x461BCD PUSH1 0xE5 SHL DUP2 MSTORE PUSH1 0x20 PUSH1 0x4 DUP3 ADD MSTORE PUSH1 0xD PUSH1 0x24 DUP3 ADD MSTORE PUSH13 0x24B73B30B634B21037BBB732B9 PUSH1 0x99 SHL PUSH1 0x44 DUP3 ADD MSTORE PUSH1 0x64 ADD PUSH2 0x669 JUMP JUMPDEST PUSH1 0x9 SLOAD PUSH1 0xA SLOAD PUSH1 0x1 PUSH1 0x1 PUSH1 0xA0 SHL SUB SWAP1 SWAP2 AND SWAP1 PUSH4 0xEAF5D04E SWAP1 ADDRESS SWAP1 PUSH1 0xC DUP6 PUSH2 0x1AAD DUP9 PUSH2 0x2420 JUMP JUMPDEST PUSH1 0x40 MLOAD PUSH1 0x20 ADD PUSH2 0x1ABF SWAP4 SWAP3 SWAP2 SWAP1 PUSH2 0x418F JUMP JUMPDEST PUSH1 0x40 MLOAD PUSH1 0x20 DUP2 DUP4 SUB SUB DUP2 MSTORE SWAP1 PUSH1 0x40 MSTORE PUSH1 0x40 MLOAD DUP5 PUSH4 0xFFFFFFFF AND PUSH1 0xE0 SHL DUP2 MSTORE PUSH1 0x4 ADD PUSH2 0x1AEC SWAP4 SWAP3 SWAP2 SWAP1 PUSH2 0x39BB JUMP JUMPDEST PUSH1 0x0 PUSH1 0x40 MLOAD DUP1 DUP4 SUB DUP2 PUSH1 0x0 DUP8 DUP1 EXTCODESIZE ISZERO DUP1 ISZERO PUSH2 0x1B06 JUMPI PUSH1 0x0 DUP1 REVERT JUMPDEST POP GAS CALL ISZERO DUP1 ISZERO PUSH2 0x1B1A JUMPI RETURNDATASIZE PUSH1 0x0 DUP1 RETURNDATACOPY RETURNDATASIZE PUSH1 0x0 REVERT JUMPDEST POP POP PUSH1 0xA SLOAD PUSH1 0x40 MLOAD CALLER SWAP4 POP PUSH32 0x17EEEFF68E065ADC9EFA022EEAF7C19B2B74557C99180889D2FAE3CFDC2E6153 SWAP3 POP PUSH2 0xB66 SWAP2 TIMESTAMP SWAP2 DUP7 SWAP1 DUP9 SWAP1 PUSH2 0x3B2B JUMP JUMPDEST PUSH1 0x60 PUSH1 0x1 DUP1 SLOAD PUSH2 0x7DB SWAP1 PUSH2 0x37ED JUMP JUMPDEST PUSH1 0x40 MLOAD PUSH4 0x31A9108F PUSH1 0xE1 SHL DUP2 MSTORE PUSH1 0x4 DUP2 ADD DUP7 SWAP1 MSTORE PUSH1 0x0 SWAP1 CALLER SWAP1 ADDRESS SWAP1 PUSH4 0x6352211E SWAP1 PUSH1 0x24 ADD PUSH1 0x20 PUSH1 0x40 MLOAD DUP1 DUP4 SUB DUP2 DUP7 GAS STATICCALL ISZERO DUP1 ISZERO PUSH2 0x1BA7 JUMPI RETURNDATASIZE PUSH1 0x0 DUP1 RETURNDATACOPY RETURNDATASIZE PUSH1 0x0 REVERT JUMPDEST POP POP POP POP PUSH1 0x40 MLOAD RETURNDATASIZE PUSH1 0x1F NOT PUSH1 0x1F DUP3 ADD AND DUP3 ADD DUP1 PUSH1 0x40 MSTORE POP DUP2 ADD SWAP1 PUSH2 0x1BCB SWAP2 SWAP1 PUSH2 0x37D0 JUMP JUMPDEST PUSH1 0x1 PUSH1 0x1 PUSH1 0xA0 SHL SUB AND EQ PUSH2 0x1C11 JUMPI PUSH1 0x40 MLOAD PUSH3 0x461BCD PUSH1 0xE5 SHL DUP2 MSTORE PUSH1 0x20 PUSH1 0x4 DUP3 ADD MSTORE PUSH1 0xD PUSH1 0x24 DUP3 ADD MSTORE PUSH13 0x24B73B30B634B21037BBB732B9 PUSH1 0x99 SHL PUSH1 0x44 DUP3 ADD MSTORE PUSH1 0x64 ADD PUSH2 0x669 JUMP JUMPDEST PUSH1 0x0 DUP7 DUP2 MSTORE PUSH1 0xF PUSH1 0x20 MSTORE PUSH1 0x40 SWAP1 KECCAK256 SLOAD PUSH1 0x9 SLOAD PUSH1 0xB SLOAD PUSH1 0x1 PUSH1 0x1 PUSH1 0xA0 SHL SUB SWAP1 SWAP2 AND SWAP1 PUSH4 0xEAF5D04E SWAP1 ADDRESS SWAP1 PUSH1 0xD PUSH2 0x1C45 DUP13 PUSH2 0x2420 JUMP JUMPDEST PUSH2 0x1C58 PUSH2 0x1C53 DUP9 PUSH1 0x1 PUSH2 0x4245 JUMP JUMPDEST PUSH2 0x2420 JUMP JUMPDEST DUP13 DUP13 DUP13 DUP13 PUSH1 0x40 MLOAD PUSH1 0x20 ADD PUSH2 0x1C72 SWAP8 SWAP7 SWAP6 SWAP5 SWAP4 SWAP3 SWAP2 SWAP1 PUSH2 0x425D JUMP JUMPDEST PUSH1 0x40 MLOAD PUSH1 0x20 DUP2 DUP4 SUB SUB DUP2 MSTORE SWAP1 PUSH1 0x40 MSTORE PUSH1 0x40 MLOAD DUP5 PUSH4 0xFFFFFFFF AND PUSH1 0xE0 SHL DUP2 MSTORE PUSH1 0x4 ADD PUSH2 0x1C9F SWAP4 SWAP3 SWAP2 SWAP1 PUSH2 0x39BB JUMP JUMPDEST PUSH1 0x0 PUSH1 0x40 MLOAD DUP1 DUP4 SUB DUP2 PUSH1 0x0 DUP8 DUP1 EXTCODESIZE ISZERO DUP1 ISZERO PUSH2 0x1CB9 JUMPI PUSH1 0x0 DUP1 REVERT JUMPDEST POP GAS CALL ISZERO DUP1 ISZERO PUSH2 0x1CCD JUMPI RETURNDATASIZE PUSH1 0x0 DUP1 RETURNDATACOPY RETURNDATASIZE PUSH1 0x0 REVERT JUMPDEST POP POP POP POP DUP1 PUSH1 0x1 PUSH2 0x1CDE SWAP2 SWAP1 PUSH2 0x4245 JUMP JUMPDEST PUSH1 0x0 DUP9 DUP2 MSTORE PUSH1 0xF PUSH1 0x20 MSTORE PUSH1 0x40 SWAP1 KECCAK256 SSTORE CALLER PUSH32 0x49F81050F063E5873E3DA74C80D522B979EF15124EA45757CE3E838D7E2D703E TIMESTAMP DUP10 PUSH2 0x1D1C DUP6 PUSH1 0x1 PUSH2 0x4245 JUMP JUMPDEST PUSH1 0x40 DUP1 MLOAD SWAP4 DUP5 MSTORE PUSH1 0x20 DUP5 ADD SWAP3 SWAP1 SWAP3 MSTORE SWAP1 DUP3 ADD MSTORE PUSH1 0x60 ADD PUSH1 0x40 MLOAD DUP1 SWAP2 SUB SWAP1 LOG2 PUSH2 0x1D45 DUP2 PUSH1 0x1 PUSH2 0x4245 JUMP JUMPDEST SWAP8 SWAP7 POP POP POP POP POP POP POP JUMP JUMPDEST PUSH2 0x1002 CALLER DUP4 DUP4 PUSH2 0x29F6 JUMP JUMPDEST PUSH1 0x60 PUSH1 0x0 PUSH2 0x1D67 PUSH2 0x25CB JUMP JUMPDEST SWAP1 POP DUP1 PUSH1 0xC PUSH1 0x40 MLOAD PUSH1 0x20 ADD PUSH2 0x8A7 SWAP3 SWAP2 SWAP1 PUSH2 0x3A1F JUMP JUMPDEST PUSH1 0x40 MLOAD PUSH4 0x31A9108F PUSH1 0xE1 SHL DUP2 MSTORE PUSH1 0x4 DUP2 ADD DUP4 SWAP1 MSTORE CALLER SWAP1 ADDRESS SWAP1 PUSH4 0x6352211E SWAP1 PUSH1 0x24 ADD PUSH1 0x20 PUSH1 0x40 MLOAD DUP1 DUP4 SUB DUP2 DUP7 GAS STATICCALL ISZERO DUP1 ISZERO PUSH2 0x1DBB JUMPI RETURNDATASIZE PUSH1 0x0 DUP1 RETURNDATACOPY RETURNDATASIZE PUSH1 0x0 REVERT JUMPDEST POP POP POP POP PUSH1 0x40 MLOAD RETURNDATASIZE PUSH1 0x1F NOT PUSH1 0x1F DUP3 ADD AND DUP3 ADD DUP1 PUSH1 0x40 MSTORE POP DUP2 ADD SWAP1 PUSH2 0x1DDF SWAP2 SWAP1 PUSH2 0x37D0 JUMP JUMPDEST PUSH1 0x1 PUSH1 0x1 PUSH1 0xA0 SHL SUB AND EQ PUSH2 0x1E25 JUMPI PUSH1 0x40 MLOAD PUSH3 0x461BCD PUSH1 0xE5 SHL DUP2 MSTORE PUSH1 0x20 PUSH1 0x4 DUP3 ADD MSTORE PUSH1 0xD PUSH1 0x24 DUP3 ADD MSTORE PUSH13 0x24B73B30B634B21037BBB732B9 PUSH1 0x99 SHL PUSH1 0x44 DUP3 ADD MSTORE PUSH1 0x64 ADD PUSH2 0x669 JUMP JUMPDEST PUSH1 0x9 SLOAD PUSH1 0xA SLOAD PUSH1 0x1 PUSH1 0x1 PUSH1 0xA0 SHL SUB SWAP1 SWAP2 AND SWAP1 PUSH4 0xEAF5D04E SWAP1 ADDRESS SWAP1 PUSH1 0xC DUP6 PUSH2 0x1E4B DUP9 PUSH2 0x2420 JUMP JUMPDEST PUSH1 0x40 MLOAD PUSH1 0x20 ADD PUSH2 0x1E5D SWAP4 SWAP3 SWAP2 SWAP1 PUSH2 0x4343 JUMP JUMPDEST PUSH1 0x40 MLOAD PUSH1 0x20 DUP2 DUP4 SUB SUB DUP2 MSTORE SWAP1 PUSH1 0x40 MSTORE PUSH1 0x40 MLOAD DUP5 PUSH4 0xFFFFFFFF AND PUSH1 0xE0 SHL DUP2 MSTORE PUSH1 0x4 ADD PUSH2 0x1E8A SWAP4 SWAP3 SWAP2 SWAP1 PUSH2 0x39BB JUMP JUMPDEST PUSH1 0x0 PUSH1 0x40 MLOAD DUP1 DUP4 SUB DUP2 PUSH1 0x0 DUP8 DUP1 EXTCODESIZE ISZERO DUP1 ISZERO PUSH2 0x1EA4 JUMPI PUSH1 0x0 DUP1 REVERT JUMPDEST POP GAS CALL ISZERO DUP1 ISZERO PUSH2 0x1EB8 JUMPI RETURNDATASIZE PUSH1 0x0 DUP1 RETURNDATACOPY RETURNDATASIZE PUSH1 0x0 REVERT JUMPDEST POP POP PUSH1 0xA SLOAD PUSH1 0x40 MLOAD CALLER SWAP4 POP PUSH32 0x63091555F1DA3FEA775FCAAAC62CDEE68271B079CAA14CAD48DC56E93BD5F41B SWAP3 POP PUSH2 0xB66 SWAP2 TIMESTAMP SWAP2 DUP7 SWAP1 DUP9 SWAP1 PUSH2 0x3B2B JUMP JUMPDEST PUSH2 0x1EFF CALLER DUP4 PUSH2 0x2655 JUMP JUMPDEST PUSH2 0x1F71 JUMPI PUSH1 0x40 MLOAD PUSH3 0x461BCD PUSH1 0xE5 SHL DUP2 MSTORE PUSH1 0x20 PUSH1 0x4 DUP3 ADD MSTORE PUSH1 0x2E PUSH1 0x24 DUP3 ADD MSTORE PUSH32 0x4552433732313A2063616C6C6572206973206E6F7420746F6B656E206F776E65 PUSH1 0x44 DUP3 ADD MSTORE PUSH32 0x72206E6F7220617070726F766564000000000000000000000000000000000000 PUSH1 0x64 DUP3 ADD MSTORE PUSH1 0x84 ADD PUSH2 0x669 JUMP JUMPDEST PUSH2 0x1F7D DUP5 DUP5 DUP5 DUP5 PUSH2 0x2AC5 JUMP JUMPDEST POP POP POP POP JUMP JUMPDEST PUSH1 0x0 DUP2 DUP2 MSTORE PUSH1 0x2 PUSH1 0x20 MSTORE PUSH1 0x40 SWAP1 KECCAK256 SLOAD PUSH1 0x60 SWAP1 PUSH1 0x1 PUSH1 0x1 PUSH1 0xA0 SHL SUB AND PUSH2 0x2010 JUMPI PUSH1 0x40 MLOAD PUSH3 0x461BCD PUSH1 0xE5 SHL DUP2 MSTORE PUSH1 0x20 PUSH1 0x4 DUP3 ADD MSTORE PUSH1 0x2F PUSH1 0x24 DUP3 ADD MSTORE PUSH32 0x4552433732314D657461646174613A2055524920717565727920666F72206E6F PUSH1 0x44 DUP3 ADD MSTORE PUSH32 0x6E6578697374656E7420746F6B656E0000000000000000000000000000000000 PUSH1 0x64 DUP3 ADD MSTORE PUSH1 0x84 ADD PUSH2 0x669 JUMP JUMPDEST PUSH1 0x0 PUSH2 0x201A PUSH2 0x25CB JUMP JUMPDEST SWAP1 POP DUP1 MLOAD PUSH1 0x0 EQ ISZERO PUSH2 0x203C JUMPI POP POP PUSH1 0x40 DUP1 MLOAD PUSH1 0x20 DUP2 ADD SWAP1 SWAP2 MSTORE PUSH1 0x0 DUP2 MSTORE SWAP2 SWAP1 POP JUMP JUMPDEST PUSH1 0x0 PUSH1 0xC PUSH1 0xD PUSH1 0xC PUSH1 0xD PUSH1 0x40 MLOAD PUSH1 0x20 ADD PUSH2 0x2059 SWAP5 SWAP4 SWAP3 SWAP2 SWAP1 PUSH2 0x43E3 JUMP JUMPDEST PUSH1 0x40 MLOAD PUSH1 0x20 DUP2 DUP4 SUB SUB DUP2 MSTORE SWAP1 PUSH1 0x40 MSTORE SWAP1 POP DUP2 DUP2 PUSH2 0x2075 DUP7 PUSH2 0x2420 JUMP JUMPDEST PUSH1 0x40 MLOAD PUSH1 0x20 ADD PUSH2 0x2087 SWAP4 SWAP3 SWAP2 SWAP1 PUSH2 0x4705 JUMP JUMPDEST PUSH1 0x40 MLOAD PUSH1 0x20 DUP2 DUP4 SUB SUB DUP2 MSTORE SWAP1 PUSH1 0x40 MSTORE SWAP3 POP POP POP SWAP2 SWAP1 POP JUMP JUMPDEST PUSH1 0x0 DUP3 DUP2 MSTORE PUSH1 0x6 PUSH1 0x20 MSTORE PUSH1 0x40 SWAP1 KECCAK256 PUSH1 0x1 ADD SLOAD PUSH2 0x20BA DUP2 PUSH2 0x28AD JUMP JUMPDEST PUSH2 0x9E9 DUP4 DUP4 PUSH2 0x2959 JUMP JUMPDEST PUSH1 0x40 MLOAD PUSH4 0x31A9108F PUSH1 0xE1 SHL DUP2 MSTORE PUSH1 0x4 DUP2 ADD DUP4 SWAP1 MSTORE CALLER SWAP1 ADDRESS SWAP1 PUSH4 0x6352211E SWAP1 PUSH1 0x24 ADD PUSH1 0x20 PUSH1 0x40 MLOAD DUP1 DUP4 SUB DUP2 DUP7 GAS STATICCALL ISZERO DUP1 ISZERO PUSH2 0x2102 JUMPI RETURNDATASIZE PUSH1 0x0 DUP1 RETURNDATACOPY RETURNDATASIZE PUSH1 0x0 REVERT JUMPDEST POP POP POP POP PUSH1 0x40 MLOAD RETURNDATASIZE PUSH1 0x1F NOT PUSH1 0x1F DUP3 ADD AND DUP3 ADD DUP1 PUSH1 0x40 MSTORE POP DUP2 ADD SWAP1 PUSH2 0x2126 SWAP2 SWAP1 PUSH2 0x37D0 JUMP JUMPDEST PUSH1 0x1 PUSH1 0x1 PUSH1 0xA0 SHL SUB AND EQ PUSH2 0x216C JUMPI PUSH1 0x40 MLOAD PUSH3 0x461BCD PUSH1 0xE5 SHL DUP2 MSTORE PUSH1 0x20 PUSH1 0x4 DUP3 ADD MSTORE PUSH1 0xD PUSH1 0x24 DUP3 ADD MSTORE PUSH13 0x24B73B30B634B21037BBB732B9 PUSH1 0x99 SHL PUSH1 0x44 DUP3 ADD MSTORE PUSH1 0x64 ADD PUSH2 0x669 JUMP JUMPDEST PUSH1 0x9 SLOAD PUSH1 0xA SLOAD PUSH1 0x1 PUSH1 0x1 PUSH1 0xA0 SHL SUB SWAP1 SWAP2 AND SWAP1 PUSH4 0xEAF5D04E SWAP1 ADDRESS SWAP1 PUSH1 0xC DUP6 PUSH2 0x2192 DUP9 PUSH2 0x2420 JUMP JUMPDEST PUSH1 0x40 MLOAD PUSH1 0x20 ADD PUSH2 0x21A4 SWAP4 SWAP3 SWAP2 SWAP1 PUSH2 0x479E JUMP JUMPDEST PUSH1 0x40 MLOAD PUSH1 0x20 DUP2 DUP4 SUB SUB DUP2 MSTORE SWAP1 PUSH1 0x40 MSTORE PUSH1 0x40 MLOAD DUP5 PUSH4 0xFFFFFFFF AND PUSH1 0xE0 SHL DUP2 MSTORE PUSH1 0x4 ADD PUSH2 0x21D1 SWAP4 SWAP3 SWAP2 SWAP1 PUSH2 0x39BB JUMP JUMPDEST PUSH1 0x0 PUSH1 0x40 MLOAD DUP1 DUP4 SUB DUP2 PUSH1 0x0 DUP8 DUP1 EXTCODESIZE ISZERO DUP1 ISZERO PUSH2 0x21EB JUMPI PUSH1 0x0 DUP1 REVERT JUMPDEST POP GAS CALL ISZERO DUP1 ISZERO PUSH2 0x21FF JUMPI RETURNDATASIZE PUSH1 0x0 DUP1 RETURNDATACOPY RETURNDATASIZE PUSH1 0x0 REVERT JUMPDEST POP POP PUSH1 0xA SLOAD PUSH1 0x40 MLOAD CALLER SWAP4 POP PUSH32 0x7BFEB9B4D9A31F6694F00919EB3055644BA8DC8F6E4FB339B1A2D8C13B9E5221 SWAP3 POP PUSH2 0xB66 SWAP2 TIMESTAMP SWAP2 DUP7 SWAP1 DUP9 SWAP1 PUSH2 0x3B2B JUMP JUMPDEST PUSH1 0x40 MLOAD PUSH4 0x31A9108F PUSH1 0xE1 SHL DUP2 MSTORE PUSH1 0x4 DUP2 ADD DUP5 SWAP1 MSTORE CALLER SWAP1 ADDRESS SWAP1 PUSH4 0x6352211E SWAP1 PUSH1 0x24 ADD PUSH1 0x20 PUSH1 0x40 MLOAD DUP1 DUP4 SUB DUP2 DUP7 GAS STATICCALL ISZERO DUP1 ISZERO PUSH2 0x227A JUMPI RETURNDATASIZE PUSH1 0x0 DUP1 RETURNDATACOPY RETURNDATASIZE PUSH1 0x0 REVERT JUMPDEST POP POP POP POP PUSH1 0x40 MLOAD RETURNDATASIZE PUSH1 0x1F NOT PUSH1 0x1F DUP3 ADD AND DUP3 ADD DUP1 PUSH1 0x40 MSTORE POP DUP2 ADD SWAP1 PUSH2 0x229E SWAP2 SWAP1 PUSH2 0x37D0 JUMP JUMPDEST PUSH1 0x1 PUSH1 0x1 PUSH1 0xA0 SHL SUB AND EQ PUSH2 0x22E4 JUMPI PUSH1 0x40 MLOAD PUSH3 0x461BCD PUSH1 0xE5 SHL DUP2 MSTORE PUSH1 0x20 PUSH1 0x4 DUP3 ADD MSTORE PUSH1 0xD PUSH1 0x24 DUP3 ADD MSTORE PUSH13 0x24B73B30B634B21037BBB732B9 PUSH1 0x99 SHL PUSH1 0x44 DUP3 ADD MSTORE PUSH1 0x64 ADD PUSH2 0x669 JUMP JUMPDEST PUSH1 0x0 DUP4 DUP2 MSTORE PUSH1 0xF PUSH1 0x20 MSTORE PUSH1 0x40 SWAP1 KECCAK256 SLOAD DUP3 GT DUP1 ISZERO SWAP1 PUSH2 0x2302 JUMPI POP PUSH1 0x0 DUP3 GT JUMPDEST PUSH2 0x2344 JUMPI PUSH1 0x40 MLOAD PUSH3 0x461BCD PUSH1 0xE5 SHL DUP2 MSTORE PUSH1 0x20 PUSH1 0x4 DUP3 ADD MSTORE PUSH1 0x13 PUSH1 0x24 DUP3 ADD MSTORE PUSH19 0x3A3930B4BA2FB4B2103737BA103337BAB7321 PUSH1 0x6D SHL PUSH1 0x44 DUP3 ADD MSTORE PUSH1 0x64 ADD PUSH2 0x669 JUMP JUMPDEST PUSH1 0x9 SLOAD PUSH1 0xB SLOAD PUSH1 0x1 PUSH1 0x1 PUSH1 0xA0 SHL SUB SWAP1 SWAP2 AND SWAP1 PUSH4 0xEAF5D04E SWAP1 ADDRESS SWAP1 PUSH1 0xD DUP6 PUSH2 0x236A DUP10 PUSH2 0x2420 JUMP JUMPDEST PUSH2 0x2373 DUP10 PUSH2 0x2420 JUMP JUMPDEST PUSH1 0x40 MLOAD PUSH1 0x20 ADD PUSH2 0x2386 SWAP5 SWAP4 SWAP3 SWAP2 SWAP1 PUSH2 0x47F0 JUMP JUMPDEST PUSH1 0x40 MLOAD PUSH1 0x20 DUP2 DUP4 SUB SUB DUP2 MSTORE SWAP1 PUSH1 0x40 MSTORE PUSH1 0x40 MLOAD DUP5 PUSH4 0xFFFFFFFF AND PUSH1 0xE0 SHL DUP2 MSTORE PUSH1 0x4 ADD PUSH2 0x23B3 SWAP4 SWAP3 SWAP2 SWAP1 PUSH2 0x39BB JUMP JUMPDEST PUSH1 0x0 PUSH1 0x40 MLOAD DUP1 DUP4 SUB DUP2 PUSH1 0x0 DUP8 DUP1 EXTCODESIZE ISZERO DUP1 ISZERO PUSH2 0x23CD JUMPI PUSH1 0x0 DUP1 REVERT JUMPDEST POP GAS CALL ISZERO DUP1 ISZERO PUSH2 0x23E1 JUMPI RETURNDATASIZE PUSH1 0x0 DUP1 RETURNDATACOPY RETURNDATASIZE PUSH1 0x0 REVERT JUMPDEST POP POP PUSH1 0xB SLOAD PUSH1 0x40 MLOAD CALLER SWAP4 POP PUSH32 0x11BFB7CD1318679CBB7491B824432AAF8D65800EC0A83281DAD118A0373A4A23 SWAP3 POP PUSH2 0x7AE SWAP2 TIMESTAMP SWAP2 DUP7 SWAP1 DUP10 SWAP1 DUP10 SWAP1 PUSH2 0x39EC JUMP JUMPDEST PUSH1 0x60 DUP2 PUSH2 0x2444 JUMPI POP POP PUSH1 0x40 DUP1 MLOAD DUP1 DUP3 ADD SWAP1 SWAP2 MSTORE PUSH1 0x1 DUP2 MSTORE PUSH1 0x3 PUSH1 0xFC SHL PUSH1 0x20 DUP3 ADD MSTORE SWAP1 JUMP JUMPDEST DUP2 PUSH1 0x0 JUMPDEST DUP2 ISZERO PUSH2 0x246E JUMPI DUP1 PUSH2 0x2458 DUP2 PUSH2 0x48CD JUMP JUMPDEST SWAP2 POP PUSH2 0x2467 SWAP1 POP PUSH1 0xA DUP4 PUSH2 0x48FE JUMP JUMPDEST SWAP2 POP PUSH2 0x2448 JUMP JUMPDEST PUSH1 0x0 DUP2 PUSH8 0xFFFFFFFFFFFFFFFF DUP2 GT ISZERO PUSH2 0x2489 JUMPI PUSH2 0x2489 PUSH2 0x31D9 JUMP JUMPDEST PUSH1 0x40 MLOAD SWAP1 DUP1 DUP3 MSTORE DUP1 PUSH1 0x1F ADD PUSH1 0x1F NOT AND PUSH1 0x20 ADD DUP3 ADD PUSH1 0x40 MSTORE DUP1 ISZERO PUSH2 0x24B3 JUMPI PUSH1 0x20 DUP3 ADD DUP2 DUP1 CALLDATASIZE DUP4 CALLDATACOPY ADD SWAP1 POP JUMPDEST POP SWAP1 POP JUMPDEST DUP5 ISZERO PUSH2 0x251E JUMPI PUSH2 0x24C8 PUSH1 0x1 DUP4 PUSH2 0x4912 JUMP JUMPDEST SWAP2 POP PUSH2 0x24D5 PUSH1 0xA DUP7 PUSH2 0x4929 JUMP JUMPDEST PUSH2 0x24E0 SWAP1 PUSH1 0x30 PUSH2 0x4245 JUMP JUMPDEST PUSH1 0xF8 SHL DUP2 DUP4 DUP2 MLOAD DUP2 LT PUSH2 0x24F5 JUMPI PUSH2 0x24F5 PUSH2 0x493D JUMP JUMPDEST PUSH1 0x20 ADD ADD SWAP1 PUSH1 0x1 PUSH1 0x1 PUSH1 0xF8 SHL SUB NOT AND SWAP1 DUP2 PUSH1 0x0 BYTE SWAP1 MSTORE8 POP PUSH2 0x2517 PUSH1 0xA DUP7 PUSH2 0x48FE JUMP JUMPDEST SWAP5 POP PUSH2 0x24B7 JUMP JUMPDEST SWAP5 SWAP4 POP POP POP POP JUMP JUMPDEST PUSH1 0x0 PUSH1 0x1 PUSH1 0x1 PUSH1 0xE0 SHL SUB NOT DUP3 AND PUSH32 0x7965DB0B00000000000000000000000000000000000000000000000000000000 EQ DUP1 PUSH2 0x7C6 JUMPI POP PUSH2 0x7C6 DUP3 PUSH2 0x2B43 JUMP JUMPDEST PUSH1 0x0 DUP2 DUP2 MSTORE PUSH1 0x2 PUSH1 0x20 MSTORE PUSH1 0x40 SWAP1 KECCAK256 SLOAD PUSH1 0x1 PUSH1 0x1 PUSH1 0xA0 SHL SUB AND PUSH2 0x25C8 JUMPI PUSH1 0x40 MLOAD PUSH3 0x461BCD PUSH1 0xE5 SHL DUP2 MSTORE PUSH1 0x20 PUSH1 0x4 DUP3 ADD MSTORE PUSH1 0x18 PUSH1 0x24 DUP3 ADD MSTORE PUSH32 0x4552433732313A20696E76616C696420746F6B656E2049440000000000000000 PUSH1 0x44 DUP3 ADD MSTORE PUSH1 0x64 ADD PUSH2 0x669 JUMP JUMPDEST POP JUMP JUMPDEST PUSH1 0x60 PUSH1 0x7 DUP1 SLOAD PUSH2 0x7DB SWAP1 PUSH2 0x37ED JUMP JUMPDEST PUSH1 0x0 DUP2 DUP2 MSTORE PUSH1 0x4 PUSH1 0x20 MSTORE PUSH1 0x40 SWAP1 KECCAK256 DUP1 SLOAD PUSH20 0xFFFFFFFFFFFFFFFFFFFFFFFFFFFFFFFFFFFFFFFF NOT AND PUSH1 0x1 PUSH1 0x1 PUSH1 0xA0 SHL SUB DUP5 AND SWAP1 DUP2 OR SWAP1 SWAP2 SSTORE DUP2 SWAP1 PUSH2 0x261C DUP3 PUSH2 0x15A1 JUMP JUMPDEST PUSH1 0x1 PUSH1 0x1 PUSH1 0xA0 SHL SUB AND PUSH32 0x8C5BE1E5EBEC7D5BD14F71427D1E84F3DD0314C0F7B2291E5B200AC8C7C3B925 PUSH1 0x40 MLOAD PUSH1 0x40 MLOAD DUP1 SWAP2 SUB SWAP1 LOG4 POP POP JUMP JUMPDEST PUSH1 0x0 DUP1 PUSH2 0x2661 DUP4 PUSH2 0x15A1 JUMP JUMPDEST SWAP1 POP DUP1 PUSH1 0x1 PUSH1 0x1 PUSH1 0xA0 SHL SUB AND DUP5 PUSH1 0x1 PUSH1 0x1 PUSH1 0xA0 SHL SUB AND EQ DUP1 PUSH2 0x26A8 JUMPI POP PUSH1 0x1 PUSH1 0x1 PUSH1 0xA0 SHL SUB DUP1 DUP3 AND PUSH1 0x0 SWAP1 DUP2 MSTORE PUSH1 0x5 PUSH1 0x20 SWAP1 DUP2 MSTORE PUSH1 0x40 DUP1 DUP4 KECCAK256 SWAP4 DUP9 AND DUP4 MSTORE SWAP3 SWAP1 MSTORE KECCAK256 SLOAD PUSH1 0xFF AND JUMPDEST DUP1 PUSH2 0x251E JUMPI POP DUP4 PUSH1 0x1 PUSH1 0x1 PUSH1 0xA0 SHL SUB AND PUSH2 0x26C1 DUP5 PUSH2 0x85E JUMP JUMPDEST PUSH1 0x1 PUSH1 0x1 PUSH1 0xA0 SHL SUB AND EQ SWAP5 SWAP4 POP POP POP POP JUMP JUMPDEST DUP3 PUSH1 0x1 PUSH1 0x1 PUSH1 0xA0 SHL SUB AND PUSH2 0x26E6 DUP3 PUSH2 0x15A1 JUMP JUMPDEST PUSH1 0x1 PUSH1 0x1 PUSH1 0xA0 SHL SUB AND EQ PUSH2 0x2762 JUMPI PUSH1 0x40 MLOAD PUSH3 0x461BCD PUSH1 0xE5 SHL DUP2 MSTORE PUSH1 0x20 PUSH1 0x4 DUP3 ADD MSTORE PUSH1 0x25 PUSH1 0x24 DUP3 ADD MSTORE PUSH32 0x4552433732313A207472616E736665722066726F6D20696E636F727265637420 PUSH1 0x44 DUP3 ADD MSTORE PUSH32 0x6F776E6572000000000000000000000000000000000000000000000000000000 PUSH1 0x64 DUP3 ADD MSTORE PUSH1 0x84 ADD PUSH2 0x669 JUMP JUMPDEST PUSH1 0x1 PUSH1 0x1 PUSH1 0xA0 SHL SUB DUP3 AND PUSH2 0x27DD JUMPI PUSH1 0x40 MLOAD PUSH3 0x461BCD PUSH1 0xE5 SHL DUP2 MSTORE PUSH1 0x20 PUSH1 0x4 DUP3 ADD MSTORE PUSH1 0x24 DUP1 DUP3 ADD MSTORE PUSH32 0x4552433732313A207472616E7366657220746F20746865207A65726F20616464 PUSH1 0x44 DUP3 ADD MSTORE PUSH32 0x7265737300000000000000000000000000000000000000000000000000000000 PUSH1 0x64 DUP3 ADD MSTORE PUSH1 0x84 ADD PUSH2 0x669 JUMP JUMPDEST PUSH2 0x27E8 PUSH1 0x0 DUP3 PUSH2 0x25DA JUMP JUMPDEST PUSH1 0x1 PUSH1 0x1 PUSH1 0xA0 SHL SUB DUP4 AND PUSH1 0x0 SWAP1 DUP2 MSTORE PUSH1 0x3 PUSH1 0x20 MSTORE PUSH1 0x40 DUP2 KECCAK256 DUP1 SLOAD PUSH1 0x1 SWAP3 SWAP1 PUSH2 0x2811 SWAP1 DUP5 SWAP1 PUSH2 0x4912 JUMP JUMPDEST SWAP1 SWAP2 SSTORE POP POP PUSH1 0x1 PUSH1 0x1 PUSH1 0xA0 SHL SUB DUP3 AND PUSH1 0x0 SWAP1 DUP2 MSTORE PUSH1 0x3 PUSH1 0x20 MSTORE PUSH1 0x40 DUP2 KECCAK256 DUP1 SLOAD PUSH1 0x1 SWAP3 SWAP1 PUSH2 0x283F SWAP1 DUP5 SWAP1 PUSH2 0x4245 JUMP JUMPDEST SWAP1 SWAP2 SSTORE POP POP PUSH1 0x0 DUP2 DUP2 MSTORE PUSH1 0x2 PUSH1 0x20 MSTORE PUSH1 0x40 DUP1 DUP3 KECCAK256 DUP1 SLOAD PUSH20 0xFFFFFFFFFFFFFFFFFFFFFFFFFFFFFFFFFFFFFFFF NOT AND PUSH1 0x1 PUSH1 0x1 PUSH1 0xA0 SHL SUB DUP7 DUP2 AND SWAP2 DUP3 OR SWAP1 SWAP3 SSTORE SWAP2 MLOAD DUP5 SWAP4 SWAP2 DUP8 AND SWAP2 PUSH32 0xDDF252AD1BE2C89B69C2B068FC378DAA952BA7F163C4A11628F55A4DF523B3EF SWAP2 LOG4 POP POP POP JUMP JUMPDEST PUSH2 0x25C8 DUP2 CALLER PUSH2 0x2BDE JUMP JUMPDEST PUSH1 0x0 DUP3 DUP2 MSTORE PUSH1 0x6 PUSH1 0x20 SWAP1 DUP2 MSTORE PUSH1 0x40 DUP1 DUP4 KECCAK256 PUSH1 0x1 PUSH1 0x1 PUSH1 0xA0 SHL SUB DUP6 AND DUP5 MSTORE SWAP1 SWAP2 MSTORE SWAP1 KECCAK256 SLOAD PUSH1 0xFF AND PUSH2 0x1002 JUMPI PUSH1 0x0 DUP3 DUP2 MSTORE PUSH1 0x6 PUSH1 0x20 SWAP1 DUP2 MSTORE PUSH1 0x40 DUP1 DUP4 KECCAK256 PUSH1 0x1 PUSH1 0x1 PUSH1 0xA0 SHL SUB DUP6 AND DUP5 MSTORE SWAP1 SWAP2 MSTORE SWAP1 KECCAK256 DUP1 SLOAD PUSH1 0xFF NOT AND PUSH1 0x1 OR SWAP1 SSTORE PUSH2 0x2915 CALLER SWAP1 JUMP JUMPDEST PUSH1 0x1 PUSH1 0x1 PUSH1 0xA0 SHL SUB AND DUP2 PUSH1 0x1 PUSH1 0x1 PUSH1 0xA0 SHL SUB AND DUP4 PUSH32 0x2F8788117E7EFF1D82E926EC794901D17C78024A50270940304540A733656F0D PUSH1 0x40 MLOAD PUSH1 0x40 MLOAD DUP1 SWAP2 SUB SWAP1 LOG4 POP POP JUMP JUMPDEST PUSH1 0x0 DUP3 DUP2 MSTORE PUSH1 0x6 PUSH1 0x20 SWAP1 DUP2 MSTORE PUSH1 0x40 DUP1 DUP4 KECCAK256 PUSH1 0x1 PUSH1 0x1 PUSH1 0xA0 SHL SUB DUP6 AND DUP5 MSTORE SWAP1 SWAP2 MSTORE SWAP1 KECCAK256 SLOAD PUSH1 0xFF AND ISZERO PUSH2 0x1002 JUMPI PUSH1 0x0 DUP3 DUP2 MSTORE PUSH1 0x6 PUSH1 0x20 SWAP1 DUP2 MSTORE PUSH1 0x40 DUP1 DUP4 KECCAK256 PUSH1 0x1 PUSH1 0x1 PUSH1 0xA0 SHL SUB DUP6 AND DUP1 DUP6 MSTORE SWAP3 MSTORE DUP1 DUP4 KECCAK256 DUP1 SLOAD PUSH1 0xFF NOT AND SWAP1 SSTORE MLOAD CALLER SWAP3 DUP6 SWAP2 PUSH32 0xF6391F5C32D9C69D2A47EA670B442974B53935D1EDC7FD64EB21E047A839171B SWAP2 SWAP1 LOG4 POP POP JUMP JUMPDEST PUSH2 0x1002 DUP3 DUP3 PUSH1 0x40 MLOAD DUP1 PUSH1 0x20 ADD PUSH1 0x40 MSTORE DUP1 PUSH1 0x0 DUP2 MSTORE POP PUSH2 0x2C5E JUMP JUMPDEST DUP2 PUSH1 0x1 PUSH1 0x1 PUSH1 0xA0 SHL SUB AND DUP4 PUSH1 0x1 PUSH1 0x1 PUSH1 0xA0 SHL SUB AND EQ ISZERO PUSH2 0x2A58 JUMPI PUSH1 0x40 MLOAD PUSH3 0x461BCD PUSH1 0xE5 SHL DUP2 MSTORE PUSH1 0x20 PUSH1 0x4 DUP3 ADD MSTORE PUSH1 0x19 PUSH1 0x24 DUP3 ADD MSTORE PUSH32 0x4552433732313A20617070726F766520746F2063616C6C657200000000000000 PUSH1 0x44 DUP3 ADD MSTORE PUSH1 0x64 ADD PUSH2 0x669 JUMP JUMPDEST PUSH1 0x1 PUSH1 0x1 PUSH1 0xA0 SHL SUB DUP4 DUP2 AND PUSH1 0x0 DUP2 DUP2 MSTORE PUSH1 0x5 PUSH1 0x20 SWAP1 DUP2 MSTORE PUSH1 0x40 DUP1 DUP4 KECCAK256 SWAP5 DUP8 AND DUP1 DUP5 MSTORE SWAP5 DUP3 MSTORE SWAP2 DUP3 SWAP1 KECCAK256 DUP1 SLOAD PUSH1 0xFF NOT AND DUP7 ISZERO ISZERO SWAP1 DUP2 OR SWAP1 SWAP2 SSTORE SWAP2 MLOAD SWAP2 DUP3 MSTORE PUSH32 0x17307EAB39AB6107E8899845AD3D59BD9653F200F220920489CA2B5937696C31 SWAP2 ADD PUSH1 0x40 MLOAD DUP1 SWAP2 SUB SWAP1 LOG3 POP POP POP JUMP JUMPDEST PUSH2 0x2AD0 DUP5 DUP5 DUP5 PUSH2 0x26D3 JUMP JUMPDEST PUSH2 0x2ADC DUP5 DUP5 DUP5 DUP5 PUSH2 0x2CDC JUMP JUMPDEST PUSH2 0x1F7D JUMPI PUSH1 0x40 MLOAD PUSH3 0x461BCD PUSH1 0xE5 SHL DUP2 MSTORE PUSH1 0x20 PUSH1 0x4 DUP3 ADD MSTORE PUSH1 0x32 PUSH1 0x24 DUP3 ADD MSTORE PUSH32 0x4552433732313A207472616E7366657220746F206E6F6E204552433732315265 PUSH1 0x44 DUP3 ADD MSTORE PUSH18 0x31B2B4BB32B91034B6B83632B6B2B73A32B9 PUSH1 0x71 SHL PUSH1 0x64 DUP3 ADD MSTORE PUSH1 0x84 ADD PUSH2 0x669 JUMP JUMPDEST PUSH1 0x0 PUSH1 0x1 PUSH1 0x1 PUSH1 0xE0 SHL SUB NOT DUP3 AND PUSH32 0x80AC58CD00000000000000000000000000000000000000000000000000000000 EQ DUP1 PUSH2 0x2BA6 JUMPI POP PUSH1 0x1 PUSH1 0x1 PUSH1 0xE0 SHL SUB NOT DUP3 AND PUSH32 0x5B5E139F00000000000000000000000000000000000000000000000000000000 EQ JUMPDEST DUP1 PUSH2 0x7C6 JUMPI POP PUSH32 0x1FFC9A700000000000000000000000000000000000000000000000000000000 PUSH1 0x1 PUSH1 0x1 PUSH1 0xE0 SHL SUB NOT DUP4 AND EQ PUSH2 0x7C6 JUMP JUMPDEST PUSH1 0x0 DUP3 DUP2 MSTORE PUSH1 0x6 PUSH1 0x20 SWAP1 DUP2 MSTORE PUSH1 0x40 DUP1 DUP4 KECCAK256 PUSH1 0x1 PUSH1 0x1 PUSH1 0xA0 SHL SUB DUP6 AND DUP5 MSTORE SWAP1 SWAP2 MSTORE SWAP1 KECCAK256 SLOAD PUSH1 0xFF AND PUSH2 0x1002 JUMPI PUSH2 0x2C1C DUP2 PUSH1 0x1 PUSH1 0x1 PUSH1 0xA0 SHL SUB AND PUSH1 0x14 PUSH2 0x2E25 JUMP JUMPDEST PUSH2 0x2C27 DUP4 PUSH1 0x20 PUSH2 0x2E25 JUMP JUMPDEST PUSH1 0x40 MLOAD PUSH1 0x20 ADD PUSH2 0x2C38 SWAP3 SWAP2 SWAP1 PUSH2 0x4953 JUMP JUMPDEST PUSH1 0x40 DUP1 MLOAD PUSH1 0x1F NOT DUP2 DUP5 SUB ADD DUP2 MSTORE SWAP1 DUP3 SWAP1 MSTORE PUSH3 0x461BCD PUSH1 0xE5 SHL DUP3 MSTORE PUSH2 0x669 SWAP2 PUSH1 0x4 ADD PUSH2 0x3360 JUMP JUMPDEST PUSH2 0x2C68 DUP4 DUP4 PUSH2 0x2FF1 JUMP JUMPDEST PUSH2 0x2C75 PUSH1 0x0 DUP5 DUP5 DUP5 PUSH2 0x2CDC JUMP JUMPDEST PUSH2 0x9E9 JUMPI PUSH1 0x40 MLOAD PUSH3 0x461BCD PUSH1 0xE5 SHL DUP2 MSTORE PUSH1 0x20 PUSH1 0x4 DUP3 ADD MSTORE PUSH1 0x32 PUSH1 0x24 DUP3 ADD MSTORE PUSH32 0x4552433732313A207472616E7366657220746F206E6F6E204552433732315265 PUSH1 0x44 DUP3 ADD MSTORE PUSH18 0x31B2B4BB32B91034B6B83632B6B2B73A32B9 PUSH1 0x71 SHL PUSH1 0x64 DUP3 ADD MSTORE PUSH1 0x84 ADD PUSH2 0x669 JUMP JUMPDEST PUSH1 0x0 PUSH1 0x1 PUSH1 0x1 PUSH1 0xA0 SHL SUB DUP5 AND EXTCODESIZE ISZERO PUSH2 0x2E1A JUMPI PUSH1 0x40 MLOAD PUSH4 0xA85BD01 PUSH1 0xE1 SHL DUP2 MSTORE PUSH1 0x1 PUSH1 0x1 PUSH1 0xA0 SHL SUB DUP6 AND SWAP1 PUSH4 0x150B7A02 SWAP1 PUSH2 0x2D20 SWAP1 CALLER SWAP1 DUP10 SWAP1 DUP9 SWAP1 DUP9 SWAP1 PUSH1 0x4 ADD PUSH2 0x49D4 JUMP JUMPDEST PUSH1 0x20 PUSH1 0x40 MLOAD DUP1 DUP4 SUB DUP2 PUSH1 0x0 DUP8 GAS CALL SWAP3 POP POP POP DUP1 ISZERO PUSH2 0x2D5B JUMPI POP PUSH1 0x40 DUP1 MLOAD PUSH1 0x1F RETURNDATASIZE SWAP1 DUP2 ADD PUSH1 0x1F NOT AND DUP3 ADD SWAP1 SWAP3 MSTORE PUSH2 0x2D58 SWAP2 DUP2 ADD SWAP1 PUSH2 0x4A06 JUMP JUMPDEST PUSH1 0x1 JUMPDEST PUSH2 0x2E00 JUMPI RETURNDATASIZE DUP1 DUP1 ISZERO PUSH2 0x2D89 JUMPI PUSH1 0x40 MLOAD SWAP2 POP PUSH1 0x1F NOT PUSH1 0x3F RETURNDATASIZE ADD AND DUP3 ADD PUSH1 0x40 MSTORE RETURNDATASIZE DUP3 MSTORE RETURNDATASIZE PUSH1 0x0 PUSH1 0x20 DUP5 ADD RETURNDATACOPY PUSH2 0x2D8E JUMP JUMPDEST PUSH1 0x60 SWAP2 POP JUMPDEST POP DUP1 MLOAD PUSH2 0x2DF8 JUMPI PUSH1 0x40 MLOAD PUSH3 0x461BCD PUSH1 0xE5 SHL DUP2 MSTORE PUSH1 0x20 PUSH1 0x4 DUP3 ADD MSTORE PUSH1 0x32 PUSH1 0x24 DUP3 ADD MSTORE PUSH32 0x4552433732313A207472616E7366657220746F206E6F6E204552433732315265 PUSH1 0x44 DUP3 ADD MSTORE PUSH18 0x31B2B4BB32B91034B6B83632B6B2B73A32B9 PUSH1 0x71 SHL PUSH1 0x64 DUP3 ADD MSTORE PUSH1 0x84 ADD PUSH2 0x669 JUMP JUMPDEST DUP1 MLOAD DUP2 PUSH1 0x20 ADD REVERT JUMPDEST PUSH1 0x1 PUSH1 0x1 PUSH1 0xE0 SHL SUB NOT AND PUSH4 0xA85BD01 PUSH1 0xE1 SHL EQ SWAP1 POP PUSH2 0x251E JUMP JUMPDEST POP PUSH1 0x1 SWAP5 SWAP4 POP POP POP POP JUMP JUMPDEST PUSH1 0x60 PUSH1 0x0 PUSH2 0x2E34 DUP4 PUSH1 0x2 PUSH2 0x4A23 JUMP JUMPDEST PUSH2 0x2E3F SWAP1 PUSH1 0x2 PUSH2 0x4245 JUMP JUMPDEST PUSH8 0xFFFFFFFFFFFFFFFF DUP2 GT ISZERO PUSH2 0x2E57 JUMPI PUSH2 0x2E57 PUSH2 0x31D9 JUMP JUMPDEST PUSH1 0x40 MLOAD SWAP1 DUP1 DUP3 MSTORE DUP1 PUSH1 0x1F ADD PUSH1 0x1F NOT AND PUSH1 0x20 ADD DUP3 ADD PUSH1 0x40 MSTORE DUP1 ISZERO PUSH2 0x2E81 JUMPI PUSH1 0x20 DUP3 ADD DUP2 DUP1 CALLDATASIZE DUP4 CALLDATACOPY ADD SWAP1 POP JUMPDEST POP SWAP1 POP PUSH1 0x3 PUSH1 0xFC SHL DUP2 PUSH1 0x0 DUP2 MLOAD DUP2 LT PUSH2 0x2E9C JUMPI PUSH2 0x2E9C PUSH2 0x493D JUMP JUMPDEST PUSH1 0x20 ADD ADD SWAP1 PUSH1 0x1 PUSH1 0x1 PUSH1 0xF8 SHL SUB NOT AND SWAP1 DUP2 PUSH1 0x0 BYTE SWAP1 MSTORE8 POP PUSH32 0x7800000000000000000000000000000000000000000000000000000000000000 DUP2 PUSH1 0x1 DUP2 MLOAD DUP2 LT PUSH2 0x2EE7 JUMPI PUSH2 0x2EE7 PUSH2 0x493D JUMP JUMPDEST PUSH1 0x20 ADD ADD SWAP1 PUSH1 0x1 PUSH1 0x1 PUSH1 0xF8 SHL SUB NOT AND SWAP1 DUP2 PUSH1 0x0 BYTE SWAP1 MSTORE8 POP PUSH1 0x0 PUSH2 0x2F0B DUP5 PUSH1 0x2 PUSH2 0x4A23 JUMP JUMPDEST PUSH2 0x2F16 SWAP1 PUSH1 0x1 PUSH2 0x4245 JUMP JUMPDEST SWAP1 POP JUMPDEST PUSH1 0x1 DUP2 GT ISZERO PUSH2 0x2F9B JUMPI PUSH32 0x3031323334353637383961626364656600000000000000000000000000000000 DUP6 PUSH1 0xF AND PUSH1 0x10 DUP2 LT PUSH2 0x2F57 JUMPI PUSH2 0x2F57 PUSH2 0x493D JUMP JUMPDEST BYTE PUSH1 0xF8 SHL DUP3 DUP3 DUP2 MLOAD DUP2 LT PUSH2 0x2F6D JUMPI PUSH2 0x2F6D PUSH2 0x493D JUMP JUMPDEST PUSH1 0x20 ADD ADD SWAP1 PUSH1 0x1 PUSH1 0x1 PUSH1 0xF8 SHL SUB NOT AND SWAP1 DUP2 PUSH1 0x0 BYTE SWAP1 MSTORE8 POP PUSH1 0x4 SWAP5 SWAP1 SWAP5 SHR SWAP4 PUSH2 0x2F94 DUP2 PUSH2 0x4A42 JUMP JUMPDEST SWAP1 POP PUSH2 0x2F19 JUMP JUMPDEST POP DUP4 ISZERO PUSH2 0x2FEA JUMPI PUSH1 0x40 MLOAD PUSH3 0x461BCD PUSH1 0xE5 SHL DUP2 MSTORE PUSH1 0x20 PUSH1 0x4 DUP3 ADD DUP2 SWAP1 MSTORE PUSH1 0x24 DUP3 ADD MSTORE PUSH32 0x537472696E67733A20686578206C656E67746820696E73756666696369656E74 PUSH1 0x44 DUP3 ADD MSTORE PUSH1 0x64 ADD PUSH2 0x669 JUMP JUMPDEST SWAP4 SWAP3 POP POP POP JUMP JUMPDEST PUSH1 0x1 PUSH1 0x1 PUSH1 0xA0 SHL SUB DUP3 AND PUSH2 0x3047 JUMPI PUSH1 0x40 MLOAD PUSH3 0x461BCD PUSH1 0xE5 SHL DUP2 MSTORE PUSH1 0x20 PUSH1 0x4 DUP3 ADD DUP2 SWAP1 MSTORE PUSH1 0x24 DUP3 ADD MSTORE PUSH32 0x4552433732313A206D696E7420746F20746865207A65726F2061646472657373 PUSH1 0x44 DUP3 ADD MSTORE PUSH1 0x64 ADD PUSH2 0x669 JUMP JUMPDEST PUSH1 0x0 DUP2 DUP2 MSTORE PUSH1 0x2 PUSH1 0x20 MSTORE PUSH1 0x40 SWAP1 KECCAK256 SLOAD PUSH1 0x1 PUSH1 0x1 PUSH1 0xA0 SHL SUB AND ISZERO PUSH2 0x30AC JUMPI PUSH1 0x40 MLOAD PUSH3 0x461BCD PUSH1 0xE5 SHL DUP2 MSTORE PUSH1 0x20 PUSH1 0x4 DUP3 ADD MSTORE PUSH1 0x1C PUSH1 0x24 DUP3 ADD MSTORE PUSH32 0x4552433732313A20746F6B656E20616C7265616479206D696E74656400000000 PUSH1 0x44 DUP3 ADD MSTORE PUSH1 0x64 ADD PUSH2 0x669 JUMP JUMPDEST PUSH1 0x1 PUSH1 0x1 PUSH1 0xA0 SHL SUB DUP3 AND PUSH1 0x0 SWAP1 DUP2 MSTORE PUSH1 0x3 PUSH1 0x20 MSTORE PUSH1 0x40 DUP2 KECCAK256 DUP1 SLOAD PUSH1 0x1 SWAP3 SWAP1 PUSH2 0x30D5 SWAP1 DUP5 SWAP1 PUSH2 0x4245 JUMP JUMPDEST SWAP1 SWAP2 SSTORE POP POP PUSH1 0x0 DUP2 DUP2 MSTORE PUSH1 0x2 PUSH1 0x20 MSTORE PUSH1 0x40 DUP1 DUP3 KECCAK256 DUP1 SLOAD PUSH20 0xFFFFFFFFFFFFFFFFFFFFFFFFFFFFFFFFFFFFFFFF NOT AND PUSH1 0x1 PUSH1 0x1 PUSH1 0xA0 SHL SUB DUP7 AND SWAP1 DUP2 OR SWAP1 SWAP2 SSTORE SWAP1 MLOAD DUP4 SWAP3 SWAP1 PUSH32 0xDDF252AD1BE2C89B69C2B068FC378DAA952BA7F163C4A11628F55A4DF523B3EF SWAP1 DUP3 SWAP1 LOG4 POP POP JUMP JUMPDEST DUP3 DUP1 SLOAD PUSH2 0x314C SWAP1 PUSH2 0x37ED JUMP JUMPDEST SWAP1 PUSH1 0x0 MSTORE PUSH1 0x20 PUSH1 0x0 KECCAK256 SWAP1 PUSH1 0x1F ADD PUSH1 0x20 SWAP1 DIV DUP2 ADD SWAP3 DUP3 PUSH2 0x316E JUMPI PUSH1 0x0 DUP6 SSTORE PUSH2 0x31B4 JUMP JUMPDEST DUP3 PUSH1 0x1F LT PUSH2 0x3187 JUMPI DUP1 MLOAD PUSH1 0xFF NOT AND DUP4 DUP1 ADD OR DUP6 SSTORE PUSH2 0x31B4 JUMP JUMPDEST DUP3 DUP1 ADD PUSH1 0x1 ADD DUP6 SSTORE DUP3 ISZERO PUSH2 0x31B4 JUMPI SWAP2 DUP3 ADD JUMPDEST DUP3 DUP2 GT ISZERO PUSH2 0x31B4 JUMPI DUP3 MLOAD DUP3 SSTORE SWAP2 PUSH1 0x20 ADD SWAP2 SWAP1 PUSH1 0x1 ADD SWAP1 PUSH2 0x3199 JUMP JUMPDEST POP PUSH2 0x31C0 SWAP3 SWAP2 POP PUSH2 0x31C4 JUMP JUMPDEST POP SWAP1 JUMP JUMPDEST JUMPDEST DUP1 DUP3 GT ISZERO PUSH2 0x31C0 JUMPI PUSH1 0x0 DUP2 SSTORE PUSH1 0x1 ADD PUSH2 0x31C5 JUMP JUMPDEST PUSH4 0x4E487B71 PUSH1 0xE0 SHL PUSH1 0x0 MSTORE PUSH1 0x41 PUSH1 0x4 MSTORE PUSH1 0x24 PUSH1 0x0 REVERT JUMPDEST PUSH1 0x0 PUSH8 0xFFFFFFFFFFFFFFFF DUP1 DUP5 GT ISZERO PUSH2 0x320A JUMPI PUSH2 0x320A PUSH2 0x31D9 JUMP JUMPDEST PUSH1 0x40 MLOAD PUSH1 0x1F DUP6 ADD PUSH1 0x1F NOT SWAP1 DUP2 AND PUSH1 0x3F ADD AND DUP2 ADD SWAP1 DUP3 DUP3 GT DUP2 DUP4 LT OR ISZERO PUSH2 0x3232 JUMPI PUSH2 0x3232 PUSH2 0x31D9 JUMP JUMPDEST DUP2 PUSH1 0x40 MSTORE DUP1 SWAP4 POP DUP6 DUP2 MSTORE DUP7 DUP7 DUP7 ADD GT ISZERO PUSH2 0x324B JUMPI PUSH1 0x0 DUP1 REVERT JUMPDEST DUP6 DUP6 PUSH1 0x20 DUP4 ADD CALLDATACOPY PUSH1 0x0 PUSH1 0x20 DUP8 DUP4 ADD ADD MSTORE POP POP POP SWAP4 SWAP3 POP POP POP JUMP JUMPDEST PUSH1 0x0 DUP3 PUSH1 0x1F DUP4 ADD SLT PUSH2 0x3276 JUMPI PUSH1 0x0 DUP1 REVERT JUMPDEST PUSH2 0x2FEA DUP4 DUP4 CALLDATALOAD PUSH1 0x20 DUP6 ADD PUSH2 0x31EF JUMP JUMPDEST PUSH1 0x0 DUP1 PUSH1 0x0 PUSH1 0x60 DUP5 DUP7 SUB SLT ISZERO PUSH2 0x329A JUMPI PUSH1 0x0 DUP1 REVERT JUMPDEST DUP4 CALLDATALOAD SWAP3 POP PUSH1 0x20 DUP5 ADD CALLDATALOAD SWAP2 POP PUSH1 0x40 DUP5 ADD CALLDATALOAD PUSH8 0xFFFFFFFFFFFFFFFF DUP2 GT ISZERO PUSH2 0x32BF JUMPI PUSH1 0x0 DUP1 REVERT JUMPDEST PUSH2 0x32CB DUP7 DUP3 DUP8 ADD PUSH2 0x3265 JUMP JUMPDEST SWAP2 POP POP SWAP3 POP SWAP3 POP SWAP3 JUMP JUMPDEST PUSH1 0x1 PUSH1 0x1 PUSH1 0xE0 SHL SUB NOT DUP2 AND DUP2 EQ PUSH2 0x25C8 JUMPI PUSH1 0x0 DUP1 REVERT JUMPDEST PUSH1 0x0 PUSH1 0x20 DUP3 DUP5 SUB SLT ISZERO PUSH2 0x32FD JUMPI PUSH1 0x0 DUP1 REVERT JUMPDEST DUP2 CALLDATALOAD PUSH2 0x2FEA DUP2 PUSH2 0x32D5 JUMP JUMPDEST PUSH1 0x0 JUMPDEST DUP4 DUP2 LT ISZERO PUSH2 0x3323 JUMPI DUP2 DUP2 ADD MLOAD DUP4 DUP3 ADD MSTORE PUSH1 0x20 ADD PUSH2 0x330B JUMP JUMPDEST DUP4 DUP2 GT ISZERO PUSH2 0x1F7D JUMPI POP POP PUSH1 0x0 SWAP2 ADD MSTORE JUMP JUMPDEST PUSH1 0x0 DUP2 MLOAD DUP1 DUP5 MSTORE PUSH2 0x334C DUP2 PUSH1 0x20 DUP7 ADD PUSH1 0x20 DUP7 ADD PUSH2 0x3308 JUMP JUMPDEST PUSH1 0x1F ADD PUSH1 0x1F NOT AND SWAP3 SWAP1 SWAP3 ADD PUSH1 0x20 ADD SWAP3 SWAP2 POP POP JUMP JUMPDEST PUSH1 0x20 DUP2 MSTORE PUSH1 0x0 PUSH2 0x2FEA PUSH1 0x20 DUP4 ADD DUP5 PUSH2 0x3334 JUMP JUMPDEST PUSH1 0x0 PUSH1 0x20 DUP3 DUP5 SUB SLT ISZERO PUSH2 0x3385 JUMPI PUSH1 0x0 DUP1 REVERT JUMPDEST POP CALLDATALOAD SWAP2 SWAP1 POP JUMP JUMPDEST PUSH1 0x1 PUSH1 0x1 PUSH1 0xA0 SHL SUB DUP2 AND DUP2 EQ PUSH2 0x25C8 JUMPI PUSH1 0x0 DUP1 REVERT JUMPDEST DUP1 CALLDATALOAD PUSH2 0x33AC DUP2 PUSH2 0x338C JUMP JUMPDEST SWAP2 SWAP1 POP JUMP JUMPDEST PUSH1 0x0 DUP1 PUSH1 0x40 DUP4 DUP6 SUB SLT ISZERO PUSH2 0x33C4 JUMPI PUSH1 0x0 DUP1 REVERT JUMPDEST DUP3 CALLDATALOAD PUSH2 0x33CF DUP2 PUSH2 0x338C JUMP JUMPDEST SWAP5 PUSH1 0x20 SWAP4 SWAP1 SWAP4 ADD CALLDATALOAD SWAP4 POP POP POP JUMP JUMPDEST PUSH1 0x0 DUP1 PUSH1 0x40 DUP4 DUP6 SUB SLT ISZERO PUSH2 0x33F0 JUMPI PUSH1 0x0 DUP1 REVERT JUMPDEST DUP3 CALLDATALOAD SWAP2 POP PUSH1 0x20 DUP4 ADD CALLDATALOAD PUSH8 0xFFFFFFFFFFFFFFFF DUP2 GT ISZERO PUSH2 0x340E JUMPI PUSH1 0x0 DUP1 REVERT JUMPDEST PUSH2 0x341A DUP6 DUP3 DUP7 ADD PUSH2 0x3265 JUMP JUMPDEST SWAP2 POP POP SWAP3 POP SWAP3 SWAP1 POP JUMP JUMPDEST PUSH1 0x0 DUP1 PUSH1 0x0 PUSH1 0x60 DUP5 DUP7 SUB SLT ISZERO PUSH2 0x3439 JUMPI PUSH1 0x0 DUP1 REVERT JUMPDEST DUP4 CALLDATALOAD PUSH2 0x3444 DUP2 PUSH2 0x338C JUMP JUMPDEST SWAP3 POP PUSH1 0x20 DUP5 ADD CALLDATALOAD PUSH2 0x3454 DUP2 PUSH2 0x338C JUMP JUMPDEST SWAP3 SWAP6 SWAP3 SWAP5 POP POP POP PUSH1 0x40 SWAP2 SWAP1 SWAP2 ADD CALLDATALOAD SWAP1 JUMP JUMPDEST PUSH1 0x0 DUP1 PUSH1 0x40 DUP4 DUP6 SUB SLT ISZERO PUSH2 0x3478 JUMPI PUSH1 0x0 DUP1 REVERT JUMPDEST DUP3 CALLDATALOAD SWAP2 POP PUSH1 0x20 DUP4 ADD CALLDATALOAD PUSH2 0x348A DUP2 PUSH2 0x338C JUMP JUMPDEST DUP1 SWAP2 POP POP SWAP3 POP SWAP3 SWAP1 POP JUMP JUMPDEST PUSH1 0x0 PUSH1 0x20 DUP3 DUP5 SUB SLT ISZERO PUSH2 0x34A7 JUMPI PUSH1 0x0 DUP1 REVERT JUMPDEST DUP2 CALLDATALOAD PUSH8 0xFFFFFFFFFFFFFFFF DUP2 GT ISZERO PUSH2 0x34BE JUMPI PUSH1 0x0 DUP1 REVERT JUMPDEST PUSH2 0x251E DUP5 DUP3 DUP6 ADD PUSH2 0x3265 JUMP JUMPDEST PUSH1 0x0 PUSH1 0x20 DUP3 DUP5 SUB SLT ISZERO PUSH2 0x34DC JUMPI PUSH1 0x0 DUP1 REVERT JUMPDEST DUP2 CALLDATALOAD PUSH2 0x2FEA DUP2 PUSH2 0x338C JUMP JUMPDEST PUSH1 0x0 DUP1 PUSH1 0x0 DUP1 PUSH1 0x0 DUP1 PUSH1 0x0 DUP1 PUSH1 0x0 PUSH2 0x120 DUP11 DUP13 SUB SLT ISZERO PUSH2 0x3506 JUMPI PUSH1 0x0 DUP1 REVERT JUMPDEST PUSH2 0x350F DUP11 PUSH2 0x33A1 JUMP JUMPDEST SWAP9 POP PUSH1 0x20 DUP11 ADD CALLDATALOAD PUSH8 0xFFFFFFFFFFFFFFFF DUP1 DUP3 GT ISZERO PUSH2 0x352C JUMPI PUSH1 0x0 DUP1 REVERT JUMPDEST PUSH2 0x3538 DUP14 DUP4 DUP15 ADD PUSH2 0x3265 JUMP JUMPDEST SWAP10 POP PUSH1 0x40 DUP13 ADD CALLDATALOAD SWAP2 POP DUP1 DUP3 GT ISZERO PUSH2 0x354E JUMPI PUSH1 0x0 DUP1 REVERT JUMPDEST PUSH2 0x355A DUP14 DUP4 DUP15 ADD PUSH2 0x3265 JUMP JUMPDEST SWAP9 POP PUSH1 0x60 DUP13 ADD CALLDATALOAD SWAP2 POP DUP1 DUP3 GT ISZERO PUSH2 0x3570 JUMPI PUSH1 0x0 DUP1 REVERT JUMPDEST PUSH2 0x357C DUP14 DUP4 DUP15 ADD PUSH2 0x3265 JUMP JUMPDEST SWAP8 POP PUSH1 0x80 DUP13 ADD CALLDATALOAD SWAP2 POP DUP1 DUP3 GT ISZERO PUSH2 0x3592 JUMPI PUSH1 0x0 DUP1 REVERT JUMPDEST PUSH2 0x359E DUP14 DUP4 DUP15 ADD PUSH2 0x3265 JUMP JUMPDEST SWAP7 POP PUSH1 0xA0 DUP13 ADD CALLDATALOAD SWAP2 POP DUP1 DUP3 GT ISZERO PUSH2 0x35B4 JUMPI PUSH1 0x0 DUP1 REVERT JUMPDEST PUSH2 0x35C0 DUP14 DUP4 DUP15 ADD PUSH2 0x3265 JUMP JUMPDEST SWAP6 POP PUSH1 0xC0 DUP13 ADD CALLDATALOAD SWAP2 POP DUP1 DUP3 GT ISZERO PUSH2 0x35D6 JUMPI PUSH1 0x0 DUP1 REVERT JUMPDEST PUSH2 0x35E2 DUP14 DUP4 DUP15 ADD PUSH2 0x3265 JUMP JUMPDEST SWAP5 POP PUSH1 0xE0 DUP13 ADD CALLDATALOAD SWAP2 POP DUP1 DUP3 GT ISZERO PUSH2 0x35F8 JUMPI PUSH1 0x0 DUP1 REVERT JUMPDEST PUSH2 0x3604 DUP14 DUP4 DUP15 ADD PUSH2 0x3265 JUMP JUMPDEST SWAP4 POP PUSH2 0x100 DUP13 ADD CALLDATALOAD SWAP2 POP DUP1 DUP3 GT ISZERO PUSH2 0x361B JUMPI PUSH1 0x0 DUP1 REVERT JUMPDEST POP PUSH2 0x3628 DUP13 DUP3 DUP14 ADD PUSH2 0x3265 JUMP JUMPDEST SWAP2 POP POP SWAP3 SWAP6 SWAP9 POP SWAP3 SWAP6 SWAP9 POP SWAP3 SWAP6 SWAP9 JUMP JUMPDEST PUSH1 0x0 DUP1 PUSH1 0x0 DUP1 PUSH1 0x0 PUSH1 0xA0 DUP7 DUP9 SUB SLT ISZERO PUSH2 0x3650 JUMPI PUSH1 0x0 DUP1 REVERT JUMPDEST DUP6 CALLDATALOAD SWAP5 POP PUSH1 0x20 DUP7 ADD CALLDATALOAD PUSH8 0xFFFFFFFFFFFFFFFF DUP1 DUP3 GT ISZERO PUSH2 0x366F JUMPI PUSH1 0x0 DUP1 REVERT JUMPDEST PUSH2 0x367B DUP10 DUP4 DUP11 ADD PUSH2 0x3265 JUMP JUMPDEST SWAP6 POP PUSH1 0x40 DUP9 ADD CALLDATALOAD SWAP2 POP DUP1 DUP3 GT ISZERO PUSH2 0x3691 JUMPI PUSH1 0x0 DUP1 REVERT JUMPDEST PUSH2 0x369D DUP10 DUP4 DUP11 ADD PUSH2 0x3265 JUMP JUMPDEST SWAP5 POP PUSH1 0x60 DUP9 ADD CALLDATALOAD SWAP2 POP DUP1 DUP3 GT ISZERO PUSH2 0x36B3 JUMPI PUSH1 0x0 DUP1 REVERT JUMPDEST PUSH2 0x36BF DUP10 DUP4 DUP11 ADD PUSH2 0x3265 JUMP JUMPDEST SWAP4 POP PUSH1 0x80 DUP9 ADD CALLDATALOAD SWAP2 POP DUP1 DUP3 GT ISZERO PUSH2 0x36D5 JUMPI PUSH1 0x0 DUP1 REVERT JUMPDEST POP PUSH2 0x36E2 DUP9 DUP3 DUP10 ADD PUSH2 0x3265 JUMP JUMPDEST SWAP2 POP POP SWAP3 SWAP6 POP SWAP3 SWAP6 SWAP1 SWAP4 POP JUMP JUMPDEST PUSH1 0x0 DUP1 PUSH1 0x40 DUP4 DUP6 SUB SLT ISZERO PUSH2 0x3702 JUMPI PUSH1 0x0 DUP1 REVERT JUMPDEST DUP3 CALLDATALOAD PUSH2 0x370D DUP2 PUSH2 0x338C JUMP JUMPDEST SWAP2 POP PUSH1 0x20 DUP4 ADD CALLDATALOAD DUP1 ISZERO ISZERO DUP2 EQ PUSH2 0x348A JUMPI PUSH1 0x0 DUP1 REVERT JUMPDEST PUSH1 0x0 DUP1 PUSH1 0x0 DUP1 PUSH1 0x80 DUP6 DUP8 SUB SLT ISZERO PUSH2 0x3738 JUMPI PUSH1 0x0 DUP1 REVERT JUMPDEST DUP5 CALLDATALOAD PUSH2 0x3743 DUP2 PUSH2 0x338C JUMP JUMPDEST SWAP4 POP PUSH1 0x20 DUP6 ADD CALLDATALOAD PUSH2 0x3753 DUP2 PUSH2 0x338C JUMP JUMPDEST SWAP3 POP PUSH1 0x40 DUP6 ADD CALLDATALOAD SWAP2 POP PUSH1 0x60 DUP6 ADD CALLDATALOAD PUSH8 0xFFFFFFFFFFFFFFFF DUP2 GT ISZERO PUSH2 0x3776 JUMPI PUSH1 0x0 DUP1 REVERT JUMPDEST DUP6 ADD PUSH1 0x1F DUP2 ADD DUP8 SGT PUSH2 0x3787 JUMPI PUSH1 0x0 DUP1 REVERT JUMPDEST PUSH2 0x3796 DUP8 DUP3 CALLDATALOAD PUSH1 0x20 DUP5 ADD PUSH2 0x31EF JUMP JUMPDEST SWAP2 POP POP SWAP3 SWAP6 SWAP2 SWAP5 POP SWAP3 POP JUMP JUMPDEST PUSH1 0x0 DUP1 PUSH1 0x40 DUP4 DUP6 SUB SLT ISZERO PUSH2 0x37B5 JUMPI PUSH1 0x0 DUP1 REVERT JUMPDEST DUP3 CALLDATALOAD PUSH2 0x37C0 DUP2 PUSH2 0x338C JUMP JUMPDEST SWAP2 POP PUSH1 0x20 DUP4 ADD CALLDATALOAD PUSH2 0x348A DUP2 PUSH2 0x338C JUMP JUMPDEST PUSH1 0x0 PUSH1 0x20 DUP3 DUP5 SUB SLT ISZERO PUSH2 0x37E2 JUMPI PUSH1 0x0 DUP1 REVERT JUMPDEST DUP2 MLOAD PUSH2 0x2FEA DUP2 PUSH2 0x338C JUMP JUMPDEST PUSH1 0x1 DUP2 DUP2 SHR SWAP1 DUP3 AND DUP1 PUSH2 0x3801 JUMPI PUSH1 0x7F DUP3 AND SWAP2 POP JUMPDEST PUSH1 0x20 DUP3 LT DUP2 EQ ISZERO PUSH2 0x3822 JUMPI PUSH4 0x4E487B71 PUSH1 0xE0 SHL PUSH1 0x0 MSTORE PUSH1 0x22 PUSH1 0x4 MSTORE PUSH1 0x24 PUSH1 0x0 REVERT JUMPDEST POP SWAP2 SWAP1 POP JUMP JUMPDEST DUP1 SLOAD PUSH1 0x0 SWAP1 PUSH1 0x1 DUP2 DUP2 SHR SWAP1 DUP1 DUP4 AND DUP1 PUSH2 0x3842 JUMPI PUSH1 0x7F DUP4 AND SWAP3 POP JUMPDEST PUSH1 0x20 DUP1 DUP5 LT DUP3 EQ ISZERO PUSH2 0x3864 JUMPI PUSH4 0x4E487B71 PUSH1 0xE0 SHL PUSH1 0x0 MSTORE PUSH1 0x22 PUSH1 0x4 MSTORE PUSH1 0x24 PUSH1 0x0 REVERT JUMPDEST DUP2 DUP1 ISZERO PUSH2 0x3878 JUMPI PUSH1 0x1 DUP2 EQ PUSH2 0x3889 JUMPI PUSH2 0x38B6 JUMP JUMPDEST PUSH1 0xFF NOT DUP7 AND DUP10 MSTORE DUP5 DUP10 ADD SWAP7 POP PUSH2 0x38B6 JUMP JUMPDEST PUSH1 0x0 DUP9 DUP2 MSTORE PUSH1 0x20 SWAP1 KECCAK256 PUSH1 0x0 JUMPDEST DUP7 DUP2 LT ISZERO PUSH2 0x38AE JUMPI DUP2 SLOAD DUP12 DUP3 ADD MSTORE SWAP1 DUP6 ADD SWAP1 DUP4 ADD PUSH2 0x3895 JUMP JUMPDEST POP POP DUP5 DUP10 ADD SWAP7 POP JUMPDEST POP POP POP POP POP POP SWAP3 SWAP2 POP POP JUMP JUMPDEST PUSH1 0x0 DUP2 MLOAD PUSH2 0x38D4 DUP2 DUP6 PUSH1 0x20 DUP7 ADD PUSH2 0x3308 JUMP JUMPDEST SWAP3 SWAP1 SWAP3 ADD SWAP3 SWAP2 POP POP JUMP JUMPDEST PUSH7 0x2AA82220AA229 PUSH1 0xCD SHL DUP2 MSTORE PUSH1 0x0 PUSH2 0x38FA PUSH1 0x7 DUP4 ADD DUP8 PUSH2 0x3828 JUMP JUMPDEST PUSH32 0x205345542076616C7565203D2027000000000000000000000000000000000000 DUP2 MSTORE DUP6 MLOAD PUSH2 0x3930 DUP2 PUSH1 0xE DUP5 ADD PUSH1 0x20 DUP11 ADD PUSH2 0x3308 JUMP JUMPDEST PUSH32 0x27205748455245206D61696E7461626C655F746F6B656E6964203D2000000000 PUSH1 0xE SWAP3 SWAP1 SWAP2 ADD SWAP2 DUP3 ADD MSTORE DUP5 MLOAD PUSH2 0x396E DUP2 PUSH1 0x2A DUP5 ADD PUSH1 0x20 DUP10 ADD PUSH2 0x3308 JUMP JUMPDEST PUSH16 0x1020A722103A3930B4BA2FB4B2101E9 PUSH1 0x85 SHL PUSH1 0x2A SWAP3 SWAP1 SWAP2 ADD SWAP2 DUP3 ADD MSTORE DUP4 MLOAD PUSH2 0x399F DUP2 PUSH1 0x3A DUP5 ADD PUSH1 0x20 DUP9 ADD PUSH2 0x3308 JUMP JUMPDEST PUSH1 0x3B PUSH1 0xF8 SHL PUSH1 0x3A SWAP3 SWAP1 SWAP2 ADD SWAP2 DUP3 ADD MSTORE PUSH1 0x3B ADD SWAP7 SWAP6 POP POP POP POP POP POP JUMP JUMPDEST PUSH1 0x1 PUSH1 0x1 PUSH1 0xA0 SHL SUB DUP5 AND DUP2 MSTORE DUP3 PUSH1 0x20 DUP3 ADD MSTORE PUSH1 0x60 PUSH1 0x40 DUP3 ADD MSTORE PUSH1 0x0 PUSH2 0x39E3 PUSH1 0x60 DUP4 ADD DUP5 PUSH2 0x3334 JUMP JUMPDEST SWAP6 SWAP5 POP POP POP POP POP JUMP JUMPDEST DUP6 DUP2 MSTORE DUP5 PUSH1 0x20 DUP3 ADD MSTORE PUSH1 0xA0 PUSH1 0x40 DUP3 ADD MSTORE PUSH1 0x0 PUSH2 0x3A0B PUSH1 0xA0 DUP4 ADD DUP7 PUSH2 0x3334 JUMP JUMPDEST PUSH1 0x60 DUP4 ADD SWAP5 SWAP1 SWAP5 MSTORE POP PUSH1 0x80 ADD MSTORE SWAP4 SWAP3 POP POP POP JUMP JUMPDEST PUSH1 0x0 DUP4 MLOAD PUSH2 0x3A31 DUP2 DUP5 PUSH1 0x20 DUP9 ADD PUSH2 0x3308 JUMP JUMPDEST PUSH32 0x756E777261703D7472756526657874726163743D66616C736526733D00000000 SWAP1 DUP4 ADD SWAP1 DUP2 MSTORE PUSH32 0x53454C4543542532302A25323046524F4D253230000000000000000000000000 PUSH1 0x1C DUP3 ADD MSTORE PUSH2 0x39E3 PUSH1 0x30 DUP3 ADD DUP6 PUSH2 0x3828 JUMP JUMPDEST PUSH7 0x2AA82220AA229 PUSH1 0xCD SHL DUP2 MSTORE PUSH1 0x0 PUSH2 0x3AA7 PUSH1 0x7 DUP4 ADD DUP7 PUSH2 0x3828 JUMP JUMPDEST PUSH32 0x205345542070726F66696C655F696D67203D2027000000000000000000000000 DUP2 MSTORE DUP5 MLOAD PUSH2 0x3ADD DUP2 PUSH1 0x14 DUP5 ADD PUSH1 0x20 DUP10 ADD PUSH2 0x3308 JUMP JUMPDEST PUSH18 0x13902BA422A922903A37B5B2B734B2101E9 PUSH1 0x75 SHL PUSH1 0x14 SWAP3 SWAP1 SWAP2 ADD SWAP2 DUP3 ADD MSTORE DUP4 MLOAD PUSH2 0x3B10 DUP2 PUSH1 0x26 DUP5 ADD PUSH1 0x20 DUP9 ADD PUSH2 0x3308 JUMP JUMPDEST PUSH1 0x3B PUSH1 0xF8 SHL PUSH1 0x26 SWAP3 SWAP1 SWAP2 ADD SWAP2 DUP3 ADD MSTORE PUSH1 0x27 ADD SWAP6 SWAP5 POP POP POP POP POP JUMP JUMPDEST DUP5 DUP2 MSTORE DUP4 PUSH1 0x20 DUP3 ADD MSTORE PUSH1 0x80 PUSH1 0x40 DUP3 ADD MSTORE PUSH1 0x0 PUSH2 0x3B4A PUSH1 0x80 DUP4 ADD DUP6 PUSH2 0x3334 JUMP JUMPDEST SWAP1 POP DUP3 PUSH1 0x60 DUP4 ADD MSTORE SWAP6 SWAP5 POP POP POP POP POP JUMP JUMPDEST PUSH7 0x2AA82220AA229 PUSH1 0xCD SHL DUP2 MSTORE PUSH1 0x0 PUSH2 0x3B77 PUSH1 0x7 DUP4 ADD DUP7 PUSH2 0x3828 JUMP JUMPDEST PUSH32 0x2053455420696D616765203D2027000000000000000000000000000000000000 DUP2 MSTORE DUP5 MLOAD PUSH2 0x3BAD DUP2 PUSH1 0xE DUP5 ADD PUSH1 0x20 DUP10 ADD PUSH2 0x3308 JUMP JUMPDEST DUP1 DUP3 ADD SWAP2 POP POP PUSH18 0x13902BA422A922903A37B5B2B734B2101E9 PUSH1 0x75 SHL PUSH1 0xE DUP3 ADD MSTORE DUP4 MLOAD PUSH2 0x3BE1 DUP2 PUSH1 0x20 DUP5 ADD PUSH1 0x20 DUP9 ADD PUSH2 0x3308 JUMP JUMPDEST PUSH1 0x3B PUSH1 0xF8 SHL PUSH1 0x20 SWAP3 SWAP1 SWAP2 ADD SWAP2 DUP3 ADD MSTORE PUSH1 0x21 ADD SWAP6 SWAP5 POP POP POP POP POP JUMP JUMPDEST PUSH7 0x2AA82220AA229 PUSH1 0xCD SHL DUP2 MSTORE PUSH1 0x0 PUSH2 0x3C18 PUSH1 0x7 DUP4 ADD DUP8 PUSH2 0x3828 JUMP JUMPDEST PUSH32 0x205345542074726169745F74797065203D202700000000000000000000000000 DUP2 MSTORE DUP6 MLOAD PUSH2 0x3C4E DUP2 PUSH1 0x13 DUP5 ADD PUSH1 0x20 DUP11 ADD PUSH2 0x3308 JUMP JUMPDEST PUSH32 0x27205748455245206D61696E7461626C655F746F6B656E6964203D2000000000 PUSH1 0x13 SWAP3 SWAP1 SWAP2 ADD SWAP2 DUP3 ADD MSTORE DUP5 MLOAD PUSH2 0x3C8C DUP2 PUSH1 0x2F DUP5 ADD PUSH1 0x20 DUP10 ADD PUSH2 0x3308 JUMP JUMPDEST PUSH16 0x1020A722103A3930B4BA2FB4B2101E9 PUSH1 0x85 SHL PUSH1 0x2F SWAP3 SWAP1 SWAP2 ADD SWAP2 DUP3 ADD MSTORE DUP4 MLOAD PUSH2 0x3CBD DUP2 PUSH1 0x3F DUP5 ADD PUSH1 0x20 DUP9 ADD PUSH2 0x3308 JUMP JUMPDEST PUSH1 0x3B PUSH1 0xF8 SHL PUSH1 0x3F SWAP3 SWAP1 SWAP2 ADD SWAP2 DUP3 ADD MSTORE PUSH1 0x40 ADD SWAP7 SWAP6 POP POP POP POP POP POP JUMP JUMPDEST PUSH7 0x2AA82220AA229 PUSH1 0xCD SHL DUP2 MSTORE PUSH1 0x0 PUSH2 0x3CF5 PUSH1 0x7 DUP4 ADD DUP7 PUSH2 0x3828 JUMP JUMPDEST PUSH32 0x2053455420736C6F67616E203D20270000000000000000000000000000000000 DUP2 MSTORE DUP5 MLOAD PUSH2 0x3D2B DUP2 PUSH1 0xF DUP5 ADD PUSH1 0x20 DUP10 ADD PUSH2 0x3308 JUMP JUMPDEST PUSH18 0x13902BA422A922903A37B5B2B734B2101E9 PUSH1 0x75 SHL PUSH1 0xF SWAP3 SWAP1 SWAP2 ADD SWAP2 DUP3 ADD MSTORE DUP4 MLOAD PUSH2 0x3D5E DUP2 PUSH1 0x21 DUP5 ADD PUSH1 0x20 DUP9 ADD PUSH2 0x3308 JUMP JUMPDEST PUSH1 0x3B PUSH1 0xF8 SHL PUSH1 0x21 SWAP3 SWAP1 SWAP2 ADD SWAP2 DUP3 ADD MSTORE PUSH1 0x22 ADD SWAP6 SWAP5 POP POP POP POP POP JUMP JUMPDEST PUSH7 0x2AA82220AA229 PUSH1 0xCD SHL DUP2 MSTORE PUSH1 0x0 PUSH2 0x3D95 PUSH1 0x7 DUP4 ADD DUP7 PUSH2 0x3828 JUMP JUMPDEST PUSH32 0x20534554206465736372697074696F6E203D2027000000000000000000000000 DUP2 MSTORE DUP5 MLOAD PUSH2 0x3ADD DUP2 PUSH1 0x14 DUP5 ADD PUSH1 0x20 DUP10 ADD PUSH2 0x3308 JUMP JUMPDEST PUSH7 0x2AA82220AA229 PUSH1 0xCD SHL DUP2 MSTORE PUSH1 0x0 PUSH2 0x3DE7 PUSH1 0x7 DUP4 ADD DUP8 PUSH2 0x3828 JUMP JUMPDEST PUSH32 0x205345542069636F6E203D202700000000000000000000000000000000000000 DUP2 MSTORE DUP6 MLOAD PUSH2 0x3E1D DUP2 PUSH1 0xD DUP5 ADD PUSH1 0x20 DUP11 ADD PUSH2 0x3308 JUMP JUMPDEST PUSH32 0x27205748455245206D61696E7461626C655F746F6B656E6964203D2000000000 PUSH1 0xD SWAP3 SWAP1 SWAP2 ADD SWAP2 DUP3 ADD MSTORE DUP5 MLOAD PUSH2 0x3E5B DUP2 PUSH1 0x29 DUP5 ADD PUSH1 0x20 DUP10 ADD PUSH2 0x3308 JUMP JUMPDEST PUSH16 0x1020A722103A3930B4BA2FB4B2101E9 PUSH1 0x85 SHL PUSH1 0x29 SWAP3 SWAP1 SWAP2 ADD SWAP2 DUP3 ADD MSTORE DUP4 MLOAD PUSH2 0x3E8C DUP2 PUSH1 0x39 DUP5 ADD PUSH1 0x20 DUP9 ADD PUSH2 0x3308 JUMP JUMPDEST PUSH1 0x3B PUSH1 0xF8 SHL PUSH1 0x39 SWAP3 SWAP1 SWAP2 ADD SWAP2 DUP3 ADD MSTORE PUSH1 0x3A ADD SWAP7 SWAP6 POP POP POP POP POP POP JUMP JUMPDEST PUSH7 0x2AA82220AA229 PUSH1 0xCD SHL DUP2 MSTORE PUSH1 0x0 PUSH2 0x3EC4 PUSH1 0x7 DUP4 ADD DUP7 PUSH2 0x3828 JUMP JUMPDEST PUSH32 0x20534554206E616D65203D202700000000000000000000000000000000000000 DUP2 MSTORE DUP5 MLOAD PUSH2 0x3EFA DUP2 PUSH1 0xD DUP5 ADD PUSH1 0x20 DUP10 ADD PUSH2 0x3308 JUMP JUMPDEST PUSH18 0x13902BA422A922903A37B5B2B734B2101E9 PUSH1 0x75 SHL PUSH1 0xD SWAP3 SWAP1 SWAP2 ADD SWAP2 DUP3 ADD MSTORE DUP4 MLOAD PUSH2 0x3F2D DUP2 PUSH1 0x1F DUP5 ADD PUSH1 0x20 DUP9 ADD PUSH2 0x3308 JUMP JUMPDEST PUSH1 0x3B PUSH1 0xF8 SHL PUSH1 0x1F SWAP3 SWAP1 SWAP2 ADD SWAP2 DUP3 ADD MSTORE PUSH1 0x20 ADD SWAP6 SWAP5 POP POP POP POP POP JUMP JUMPDEST PUSH12 0x24A729A2A92A1024A72A279 PUSH1 0xA5 SHL DUP2 MSTORE PUSH1 0x0 PUSH2 0x3F69 PUSH1 0xC DUP4 ADD DUP10 PUSH2 0x3828 JUMP JUMPDEST PUSH32 0x2028746F6B656E69642C206E616D652C206465736372697074696F6E2C20696D DUP2 MSTORE PUSH32 0x6167652C2061646472657373292056414C554553202827000000000000000000 PUSH1 0x20 DUP3 ADD MSTORE DUP8 MLOAD PUSH2 0x3FC5 DUP2 PUSH1 0x37 DUP5 ADD PUSH1 0x20 DUP13 ADD PUSH2 0x3308 JUMP JUMPDEST DUP1 DUP3 ADD SWAP2 POP POP PUSH4 0x272C2027 PUSH1 0xE0 SHL DUP1 PUSH1 0x37 DUP4 ADD MSTORE DUP8 MLOAD PUSH2 0x3FEC DUP2 PUSH1 0x3B DUP6 ADD PUSH1 0x20 DUP13 ADD PUSH2 0x3308 JUMP JUMPDEST PUSH1 0x3B SWAP3 ADD SWAP2 DUP3 ADD MSTORE DUP6 MLOAD PUSH2 0x4007 DUP2 PUSH1 0x3F DUP5 ADD PUSH1 0x20 DUP11 ADD PUSH2 0x3308 JUMP JUMPDEST ADD PUSH2 0x401B PUSH1 0x3F DUP3 ADD PUSH4 0x272C2027 PUSH1 0xE0 SHL SWAP1 MSTORE JUMP JUMPDEST PUSH2 0x4028 PUSH1 0x43 DUP3 ADD DUP7 PUSH2 0x38C2 JUMP JUMPDEST PUSH4 0x272C2027 PUSH1 0xE0 SHL DUP2 MSTORE SWAP1 POP PUSH2 0x4041 PUSH1 0x4 DUP3 ADD DUP6 PUSH2 0x38C2 JUMP JUMPDEST PUSH2 0x2729 PUSH1 0xF0 SHL DUP2 MSTORE PUSH1 0x2 ADD SWAP10 SWAP9 POP POP POP POP POP POP POP POP POP JUMP JUMPDEST PUSH12 0x24A729A2A92A1024A72A279 PUSH1 0xA5 SHL DUP2 MSTORE PUSH1 0x0 PUSH2 0x40F2 PUSH2 0x407D PUSH1 0xC DUP5 ADD DUP11 PUSH2 0x3828 JUMP JUMPDEST PUSH32 0x20286D61696E7461626C655F746F6B656E69642C2074726169745F69642C2069 DUP2 MSTORE PUSH32 0x636F6E2C20646973706C61795F747970652C2074726169745F747970652C2076 PUSH1 0x20 DUP3 ADD MSTORE PUSH32 0x616C7565292056414C5545532028270000000000000000000000000000000000 PUSH1 0x40 DUP3 ADD MSTORE PUSH1 0x4F ADD SWAP1 JUMP JUMPDEST DUP8 MLOAD PUSH2 0x4102 DUP2 DUP4 PUSH1 0x20 DUP13 ADD PUSH2 0x3308 JUMP JUMPDEST DUP1 DUP3 ADD SWAP2 POP POP PUSH4 0x272C2027 PUSH1 0xE0 SHL DUP1 DUP3 MSTORE PUSH1 0x3 PUSH1 0xFC SHL PUSH1 0x4 DUP4 ADD MSTORE DUP1 PUSH1 0x5 DUP4 ADD MSTORE DUP8 MLOAD PUSH2 0x4136 DUP2 PUSH1 0x9 DUP6 ADD PUSH1 0x20 DUP13 ADD PUSH2 0x3308 JUMP JUMPDEST PUSH1 0x9 SWAP3 ADD SWAP2 DUP3 ADD DUP2 SWAP1 MSTORE DUP7 MLOAD PUSH2 0x4153 DUP2 PUSH1 0xD DUP6 ADD PUSH1 0x20 DUP12 ADD PUSH2 0x3308 JUMP JUMPDEST PUSH1 0xD SWAP3 ADD SWAP2 DUP3 ADD MSTORE DUP5 MLOAD PUSH2 0x416E DUP2 PUSH1 0x11 DUP5 ADD PUSH1 0x20 DUP10 ADD PUSH2 0x3308 JUMP JUMPDEST ADD PUSH2 0x4182 PUSH1 0x11 DUP3 ADD PUSH4 0x272C2027 PUSH1 0xE0 SHL SWAP1 MSTORE JUMP JUMPDEST PUSH2 0x4041 PUSH1 0x15 DUP3 ADD DUP6 PUSH2 0x38C2 JUMP JUMPDEST PUSH7 0x2AA82220AA229 PUSH1 0xCD SHL DUP2 MSTORE PUSH1 0x0 PUSH2 0x41AB PUSH1 0x7 DUP4 ADD DUP7 PUSH2 0x3828 JUMP JUMPDEST PUSH32 0x205345542062616E6E65725F696D67203D202700000000000000000000000000 DUP2 MSTORE DUP5 MLOAD PUSH2 0x41E1 DUP2 PUSH1 0x13 DUP5 ADD PUSH1 0x20 DUP10 ADD PUSH2 0x3308 JUMP JUMPDEST PUSH18 0x13902BA422A922903A37B5B2B734B2101E9 PUSH1 0x75 SHL PUSH1 0x13 SWAP3 SWAP1 SWAP2 ADD SWAP2 DUP3 ADD MSTORE DUP4 MLOAD PUSH2 0x4214 DUP2 PUSH1 0x25 DUP5 ADD PUSH1 0x20 DUP9 ADD PUSH2 0x3308 JUMP JUMPDEST PUSH1 0x3B PUSH1 0xF8 SHL PUSH1 0x25 SWAP3 SWAP1 SWAP2 ADD SWAP2 DUP3 ADD MSTORE PUSH1 0x26 ADD SWAP6 SWAP5 POP POP POP POP POP JUMP JUMPDEST PUSH4 0x4E487B71 PUSH1 0xE0 SHL PUSH1 0x0 MSTORE PUSH1 0x11 PUSH1 0x4 MSTORE PUSH1 0x24 PUSH1 0x0 REVERT JUMPDEST PUSH1 0x0 DUP3 NOT DUP3 GT ISZERO PUSH2 0x4258 JUMPI PUSH2 0x4258 PUSH2 0x422F JUMP JUMPDEST POP ADD SWAP1 JUMP JUMPDEST PUSH12 0x24A729A2A92A1024A72A279 PUSH1 0xA5 SHL DUP2 MSTORE PUSH1 0x0 PUSH2 0x4281 PUSH2 0x407D PUSH1 0xC DUP5 ADD DUP12 PUSH2 0x3828 JUMP JUMPDEST DUP9 MLOAD PUSH2 0x4291 DUP2 DUP4 PUSH1 0x20 DUP14 ADD PUSH2 0x3308 JUMP JUMPDEST PUSH4 0x272C2027 PUSH1 0xE0 SHL SWAP2 ADD DUP2 DUP2 MSTORE DUP9 MLOAD SWAP1 SWAP2 SWAP1 PUSH2 0x42B4 DUP2 PUSH1 0x4 DUP6 ADD PUSH1 0x20 DUP14 ADD PUSH2 0x3308 JUMP JUMPDEST PUSH1 0x4 SWAP3 ADD SWAP2 DUP3 ADD DUP2 SWAP1 MSTORE DUP8 MLOAD PUSH2 0x42D1 DUP2 PUSH1 0x8 DUP6 ADD PUSH1 0x20 DUP13 ADD PUSH2 0x3308 JUMP JUMPDEST PUSH1 0x8 SWAP3 ADD SWAP2 DUP3 ADD DUP2 SWAP1 MSTORE DUP7 MLOAD PUSH2 0x42EE DUP2 PUSH1 0xC DUP6 ADD PUSH1 0x20 DUP12 ADD PUSH2 0x3308 JUMP JUMPDEST PUSH1 0xC SWAP3 ADD SWAP2 DUP3 ADD MSTORE DUP5 MLOAD PUSH2 0x4309 DUP2 PUSH1 0x10 DUP5 ADD PUSH1 0x20 DUP10 ADD PUSH2 0x3308 JUMP JUMPDEST ADD PUSH2 0x431D PUSH1 0x10 DUP3 ADD PUSH4 0x272C2027 PUSH1 0xE0 SHL SWAP1 MSTORE JUMP JUMPDEST PUSH2 0x432A PUSH1 0x14 DUP3 ADD DUP6 PUSH2 0x38C2 JUMP JUMPDEST PUSH2 0x2729 PUSH1 0xF0 SHL DUP2 MSTORE PUSH1 0x2 ADD SWAP11 SWAP10 POP POP POP POP POP POP POP POP POP POP JUMP JUMPDEST PUSH7 0x2AA82220AA229 PUSH1 0xCD SHL DUP2 MSTORE PUSH1 0x0 PUSH2 0x435F PUSH1 0x7 DUP4 ADD DUP7 PUSH2 0x3828 JUMP JUMPDEST PUSH32 0x205345542077656273697465203D202700000000000000000000000000000000 DUP2 MSTORE DUP5 MLOAD PUSH2 0x4395 DUP2 PUSH1 0x10 DUP5 ADD PUSH1 0x20 DUP10 ADD PUSH2 0x3308 JUMP JUMPDEST PUSH18 0x13902BA422A922903A37B5B2B734B2101E9 PUSH1 0x75 SHL PUSH1 0x10 SWAP3 SWAP1 SWAP2 ADD SWAP2 DUP3 ADD MSTORE DUP4 MLOAD PUSH2 0x43C8 DUP2 PUSH1 0x22 DUP5 ADD PUSH1 0x20 DUP9 ADD PUSH2 0x3308 JUMP JUMPDEST PUSH1 0x3B PUSH1 0xF8 SHL PUSH1 0x22 SWAP3 SWAP1 SWAP2 ADD SWAP2 DUP3 ADD MSTORE PUSH1 0x23 ADD SWAP6 SWAP5 POP POP POP POP POP JUMP JUMPDEST PUSH32 0x53454C4543542532306A736F6E5F6F626A656374253238253237696425323725 DUP2 MSTORE PUSH32 0x3243746F6B656E69642532432532376E616D652532372532436E616D65253243 PUSH1 0x20 DUP3 ADD MSTORE PUSH32 0x2532376465736372697074696F6E2532372532436465736372697074696F6E25 PUSH1 0x40 DUP3 ADD MSTORE PUSH32 0x3243253237696D616765253237253243696D6167652532432532376164647265 PUSH1 0x60 DUP3 ADD MSTORE PUSH32 0x737325323725324361646472657373253243253237736C6F67616E2532372532 PUSH1 0x80 DUP3 ADD MSTORE PUSH32 0x43736C6F67616E25324325323770726F66696C655F696D672532372532437072 PUSH1 0xA0 DUP3 ADD MSTORE PUSH32 0x6F66696C655F696D6725324325323762616E6E65725F696D6725323725324362 PUSH1 0xC0 DUP3 ADD MSTORE PUSH32 0x616E6E65725F696D672532432532377765627369746525323725324377656273 PUSH1 0xE0 DUP3 ADD MSTORE PUSH32 0x697465253243253237617474726962757465732532372532436A736F6E5F6772 PUSH2 0x100 DUP3 ADD MSTORE PUSH32 0x6F75705F61727261792532386A736F6E5F6F626A65637425323825323769636F PUSH2 0x120 DUP3 ADD MSTORE PUSH32 0x6E25323725324369636F6E253243253237646973706C61795F74797065253237 PUSH2 0x140 DUP3 ADD MSTORE PUSH32 0x253243646973706C61795F7479706525324325323774726169745F7479706525 PUSH2 0x160 DUP3 ADD MSTORE PUSH32 0x323725324374726169745F7479706525324325323776616C7565253237253243 PUSH2 0x180 DUP3 ADD MSTORE PUSH32 0x76616C756525323925323925323925323046524F4D2532300000000000000000 PUSH2 0x1A0 DUP3 ADD MSTORE PUSH1 0x0 PUSH2 0x46FB PUSH2 0x46AC PUSH2 0x46A6 PUSH2 0x467D PUSH2 0x4677 PUSH2 0x464E PUSH2 0x4648 PUSH2 0x461F PUSH2 0x1B8 DUP11 ADD DUP15 PUSH2 0x3828 JUMP JUMPDEST PUSH32 0x2532304A4F494E25323000000000000000000000000000000000000000000000 DUP2 MSTORE PUSH1 0xA ADD SWAP1 JUMP JUMPDEST DUP12 PUSH2 0x3828 JUMP JUMPDEST PUSH32 0x2532304F4E253230000000000000000000000000000000000000000000000000 DUP2 MSTORE PUSH1 0x8 ADD SWAP1 JUMP JUMPDEST DUP9 PUSH2 0x3828 JUMP JUMPDEST PUSH32 0x253245746F6B656E696425323025334425323000000000000000000000000000 DUP2 MSTORE PUSH1 0x13 ADD SWAP1 JUMP JUMPDEST DUP6 PUSH2 0x3828 JUMP JUMPDEST PUSH32 0x2532456D61696E7461626C655F746F6B656E6964253230574845524525323074 DUP2 MSTORE PUSH32 0x6F6B656E69642533440000000000000000000000000000000000000000000000 PUSH1 0x20 DUP3 ADD MSTORE PUSH1 0x29 ADD SWAP1 JUMP JUMPDEST SWAP7 SWAP6 POP POP POP POP POP POP JUMP JUMPDEST PUSH1 0x0 DUP5 MLOAD PUSH2 0x4717 DUP2 DUP5 PUSH1 0x20 DUP10 ADD PUSH2 0x3308 JUMP JUMPDEST PUSH32 0x756E777261703D7472756526657874726163743D7472756526733D0000000000 SWAP1 DUP4 ADD SWAP1 DUP2 MSTORE DUP5 MLOAD PUSH2 0x4751 DUP2 PUSH1 0x1B DUP5 ADD PUSH1 0x20 DUP10 ADD PUSH2 0x3308 JUMP JUMPDEST DUP5 MLOAD SWAP2 ADD SWAP1 PUSH2 0x4767 DUP2 PUSH1 0x1B DUP5 ADD PUSH1 0x20 DUP9 ADD PUSH2 0x3308 JUMP JUMPDEST PUSH32 0x25323067726F75702532306279253230746F6B656E6964000000000000000000 PUSH1 0x1B SWAP3 SWAP1 SWAP2 ADD SWAP2 DUP3 ADD MSTORE PUSH1 0x32 ADD SWAP6 SWAP5 POP POP POP POP POP JUMP JUMPDEST PUSH7 0x2AA82220AA229 PUSH1 0xCD SHL DUP2 MSTORE PUSH1 0x0 PUSH2 0x47BA PUSH1 0x7 DUP4 ADD DUP7 PUSH2 0x3828 JUMP JUMPDEST PUSH32 0x205345542061646472657373203D202700000000000000000000000000000000 DUP2 MSTORE DUP5 MLOAD PUSH2 0x4395 DUP2 PUSH1 0x10 DUP5 ADD PUSH1 0x20 DUP10 ADD PUSH2 0x3308 JUMP JUMPDEST PUSH7 0x2AA82220AA229 PUSH1 0xCD SHL DUP2 MSTORE PUSH1 0x0 PUSH2 0x480C PUSH1 0x7 DUP4 ADD DUP8 PUSH2 0x3828 JUMP JUMPDEST PUSH32 0x2053455420646973706C61795F74797065203D20270000000000000000000000 DUP2 MSTORE DUP6 MLOAD PUSH2 0x4842 DUP2 PUSH1 0x15 DUP5 ADD PUSH1 0x20 DUP11 ADD PUSH2 0x3308 JUMP JUMPDEST PUSH32 0x27205748455245206D61696E7461626C655F746F6B656E6964203D2000000000 PUSH1 0x15 SWAP3 SWAP1 SWAP2 ADD SWAP2 DUP3 ADD MSTORE DUP5 MLOAD PUSH2 0x4880 DUP2 PUSH1 0x31 DUP5 ADD PUSH1 0x20 DUP10 ADD PUSH2 0x3308 JUMP JUMPDEST PUSH16 0x1020A722103A3930B4BA2FB4B2101E9 PUSH1 0x85 SHL PUSH1 0x31 SWAP3 SWAP1 SWAP2 ADD SWAP2 DUP3 ADD MSTORE DUP4 MLOAD PUSH2 0x48B1 DUP2 PUSH1 0x41 DUP5 ADD PUSH1 0x20 DUP9 ADD PUSH2 0x3308 JUMP JUMPDEST PUSH1 0x3B PUSH1 0xF8 SHL PUSH1 0x41 SWAP3 SWAP1 SWAP2 ADD SWAP2 DUP3 ADD MSTORE PUSH1 0x42 ADD SWAP7 SWAP6 POP POP POP POP POP POP JUMP JUMPDEST PUSH1 0x0 PUSH1 0x0 NOT DUP3 EQ ISZERO PUSH2 0x48E1 JUMPI PUSH2 0x48E1 PUSH2 0x422F JUMP JUMPDEST POP PUSH1 0x1 ADD SWAP1 JUMP JUMPDEST PUSH4 0x4E487B71 PUSH1 0xE0 SHL PUSH1 0x0 MSTORE PUSH1 0x12 PUSH1 0x4 MSTORE PUSH1 0x24 PUSH1 0x0 REVERT JUMPDEST PUSH1 0x0 DUP3 PUSH2 0x490D JUMPI PUSH2 0x490D PUSH2 0x48E8 JUMP JUMPDEST POP DIV SWAP1 JUMP JUMPDEST PUSH1 0x0 DUP3 DUP3 LT ISZERO PUSH2 0x4924 JUMPI PUSH2 0x4924 PUSH2 0x422F JUMP JUMPDEST POP SUB SWAP1 JUMP JUMPDEST PUSH1 0x0 DUP3 PUSH2 0x4938 JUMPI PUSH2 0x4938 PUSH2 0x48E8 JUMP JUMPDEST POP MOD SWAP1 JUMP JUMPDEST PUSH4 0x4E487B71 PUSH1 0xE0 SHL PUSH1 0x0 MSTORE PUSH1 0x32 PUSH1 0x4 MSTORE PUSH1 0x24 PUSH1 0x0 REVERT JUMPDEST PUSH32 0x416363657373436F6E74726F6C3A206163636F756E7420000000000000000000 DUP2 MSTORE PUSH1 0x0 DUP4 MLOAD PUSH2 0x498B DUP2 PUSH1 0x17 DUP6 ADD PUSH1 0x20 DUP9 ADD PUSH2 0x3308 JUMP JUMPDEST PUSH32 0x206973206D697373696E6720726F6C6520000000000000000000000000000000 PUSH1 0x17 SWAP2 DUP5 ADD SWAP2 DUP3 ADD MSTORE DUP4 MLOAD PUSH2 0x49C8 DUP2 PUSH1 0x28 DUP5 ADD PUSH1 0x20 DUP9 ADD PUSH2 0x3308 JUMP JUMPDEST ADD PUSH1 0x28 ADD SWAP5 SWAP4 POP POP POP POP JUMP JUMPDEST PUSH1 0x0 PUSH1 0x1 PUSH1 0x1 PUSH1 0xA0 SHL SUB DUP1 DUP8 AND DUP4 MSTORE DUP1 DUP7 AND PUSH1 0x20 DUP5 ADD MSTORE POP DUP4 PUSH1 0x40 DUP4 ADD MSTORE PUSH1 0x80 PUSH1 0x60 DUP4 ADD MSTORE PUSH2 0x46FB PUSH1 0x80 DUP4 ADD DUP5 PUSH2 0x3334 JUMP JUMPDEST PUSH1 0x0 PUSH1 0x20 DUP3 DUP5 SUB SLT ISZERO PUSH2 0x4A18 JUMPI PUSH1 0x0 DUP1 REVERT JUMPDEST DUP2 MLOAD PUSH2 0x2FEA DUP2 PUSH2 0x32D5 JUMP JUMPDEST PUSH1 0x0 DUP2 PUSH1 0x0 NOT DIV DUP4 GT DUP3 ISZERO ISZERO AND ISZERO PUSH2 0x4A3D JUMPI PUSH2 0x4A3D PUSH2 0x422F JUMP JUMPDEST POP MUL SWAP1 JUMP JUMPDEST PUSH1 0x0 DUP2 PUSH2 0x4A51 JUMPI PUSH2 0x4A51 PUSH2 0x422F JUMP JUMPDEST POP PUSH1 0x0 NOT ADD SWAP1 JUMP INVALID LOG2 PUSH5 0x6970667358 0x22 SLT KECCAK256 0xD0 RETURNDATACOPY 0xB1 0xB3 0xED 0x24 DIFFICULTY DIV MSTORE8 0xB6 PUSH5 0xC98C621B69 0xC1 0xBC CREATE2 ISZERO PUSH30 0x3E438D4A5DAFA6351365FD64736F6C634300080C003368747470733A2F2F PUSH21 0x6573746E65742E7461626C656C616E642E6E657477 PUSH16 0x726B2F71756572793F00000000000000 "},"methodIdentifiers":{"DEFAULT_ADMIN_ROLE()":"a217fddf","add_new_attribute(uint256,string,string,string,string)":"a1ced596","approve(address,uint256)":"095ea7b3","attributesTable()":"7bc53be9","attributes_metadataURI()":"091a77e7","balanceOf(address)":"70a08231","getApproved(uint256)":"081812fc","getRoleAdmin(bytes32)":"248a9ca3","grantRole(bytes32,address)":"2f2ff15d","hasRole(bytes32,address)":"91d14854","isApprovedForAll(address,address)":"e985e9c5","mainTable()":"5d21260a","main_metadataURI()":"a8e62f09","name()":"06fdde03","ownerOf(uint256)":"6352211e","renounceRole(bytes32,address)":"36568abe","revokeRole(bytes32,address)":"d547741f","safeMint(address,string,string,string,string,string,string,string,string)":"8586b42f","safeTransferFrom(address,address,uint256)":"42842e0e","safeTransferFrom(address,address,uint256,bytes)":"b88d4fde","setApprovalForAll(address,bool)":"a22cb465","setBaseURI(string)":"55f804b3","supportsInterface(bytes4)":"01ffc9a7","symbol()":"95d89b41","tokenURI(uint256)":"c87b56dd","transferFrom(address,address,uint256)":"23b872dd","update_address(uint256,string)":"d7d8418f","update_banner_img(uint256,string)":"88458005","update_description(uint256,string)":"606a9612","update_display_type(uint256,uint256,string)":"f15daa02","update_icon(uint256,uint256,string)":"60af4275","update_image(uint256,string)":"2d30c0fc","update_name(uint256,string)":"6a283ce2","update_profile_img(uint256,string)":"103a0ddc","update_slogan(uint256,string)":"442219ef","update_trait_type(uint256,uint256,string)":"313e91cb","update_value(uint256,uint256,string)":"01637608","update_website(uint256,string)":"ab33b051"}},"storageLayout":{"storage":[{"astId":418,"contract":"contracts/mojo_mc_ERC721.sol:MCNFT","label":"_name","offset":0,"slot":"0","type":"t_string_storage"},{"astId":420,"contract":"contracts/mojo_mc_ERC721.sol:MCNFT","label":"_symbol","offset":0,"slot":"1","type":"t_string_storage"},{"astId":424,"contract":"contracts/mojo_mc_ERC721.sol:MCNFT","label":"_owners","offset":0,"slot":"2","type":"t_mapping(t_uint256,t_address)"},{"astId":428,"contract":"contracts/mojo_mc_ERC721.sol:MCNFT","label":"_balances","offset":0,"slot":"3","type":"t_mapping(t_address,t_uint256)"},{"astId":432,"contract":"contracts/mojo_mc_ERC721.sol:MCNFT","label":"_tokenApprovals","offset":0,"slot":"4","type":"t_mapping(t_uint256,t_address)"},{"astId":438,"contract":"contracts/mojo_mc_ERC721.sol:MCNFT","label":"_operatorApprovals","offset":0,"slot":"5","type":"t_mapping(t_address,t_mapping(t_address,t_bool))"},{"astId":24,"contract":"contracts/mojo_mc_ERC721.sol:MCNFT","label":"_roles","offset":0,"slot":"6","type":"t_mapping(t_bytes32,t_struct(RoleData)19_storage)"},{"astId":3870,"contract":"contracts/mojo_mc_ERC721.sol:MCNFT","label":"_baseURIString","offset":0,"slot":"7","type":"t_string_storage"},{"astId":3873,"contract":"contracts/mojo_mc_ERC721.sol:MCNFT","label":"_tokenIdCounter","offset":0,"slot":"8","type":"t_struct(Counter)1743_storage"},{"astId":3876,"contract":"contracts/mojo_mc_ERC721.sol:MCNFT","label":"_tableland","offset":0,"slot":"9","type":"t_contract(ITablelandTables)2214"},{"astId":3878,"contract":"contracts/mojo_mc_ERC721.sol:MCNFT","label":"_metadataTableId","offset":0,"slot":"10","type":"t_uint256"},{"astId":3880,"contract":"contracts/mojo_mc_ERC721.sol:MCNFT","label":"_attributesTableId","offset":0,"slot":"11","type":"t_uint256"},{"astId":3882,"contract":"contracts/mojo_mc_ERC721.sol:MCNFT","label":"mainTable","offset":0,"slot":"12","type":"t_string_storage"},{"astId":3884,"contract":"contracts/mojo_mc_ERC721.sol:MCNFT","label":"attributesTable","offset":0,"slot":"13","type":"t_string_storage"},{"astId":3887,"contract":"contracts/mojo_mc_ERC721.sol:MCNFT","label":"_tablePrefix","offset":0,"slot":"14","type":"t_string_storage"},{"astId":3891,"contract":"contracts/mojo_mc_ERC721.sol:MCNFT","label":"nb_of_attributes","offset":0,"slot":"15","type":"t_mapping(t_uint256,t_uint256)"}],"types":{"t_address":{"encoding":"inplace","label":"address","numberOfBytes":"20"},"t_bool":{"encoding":"inplace","label":"bool","numberOfBytes":"1"},"t_bytes32":{"encoding":"inplace","label":"bytes32","numberOfBytes":"32"},"t_contract(ITablelandTables)2214":{"encoding":"inplace","label":"contract ITablelandTables","numberOfBytes":"20"},"t_mapping(t_address,t_bool)":{"encoding":"mapping","key":"t_address","label":"mapping(address => bool)","numberOfBytes":"32","value":"t_bool"},"t_mapping(t_address,t_mapping(t_address,t_bool))":{"encoding":"mapping","key":"t_address","label":"mapping(address => mapping(address => bool))","numberOfBytes":"32","value":"t_mapping(t_address,t_bool)"},"t_mapping(t_address,t_uint256)":{"encoding":"mapping","key":"t_address","label":"mapping(address => uint256)","numberOfBytes":"32","value":"t_uint256"},"t_mapping(t_bytes32,t_struct(RoleData)19_storage)":{"encoding":"mapping","key":"t_bytes32","label":"mapping(bytes32 => struct AccessControl.RoleData)","numberOfBytes":"32","value":"t_struct(RoleData)19_storage"},"t_mapping(t_uint256,t_address)":{"encoding":"mapping","key":"t_uint256","label":"mapping(uint256 => address)","numberOfBytes":"32","value":"t_address"},"t_mapping(t_uint256,t_uint256)":{"encoding":"mapping","key":"t_uint256","label":"mapping(uint256 => uint256)","numberOfBytes":"32","value":"t_uint256"},"t_string_storage":{"encoding":"bytes","label":"string","numberOfBytes":"32"},"t_struct(Counter)1743_storage":{"encoding":"inplace","label":"struct Counters.Counter","members":[{"astId":1742,"contract":"contracts/mojo_mc_ERC721.sol:MCNFT","label":"_value","offset":0,"slot":"0","type":"t_uint256"}],"numberOfBytes":"32"},"t_struct(RoleData)19_storage":{"encoding":"inplace","label":"struct AccessControl.RoleData","members":[{"astId":16,"contract":"contracts/mojo_mc_ERC721.sol:MCNFT","label":"members","offset":0,"slot":"0","type":"t_mapping(t_address,t_bool)"},{"astId":18,"contract":"contracts/mojo_mc_ERC721.sol:MCNFT","label":"adminRole","offset":0,"slot":"1","type":"t_bytes32"}],"numberOfBytes":"64"},"t_uint256":{"encoding":"inplace","label":"uint256","numberOfBytes":"32"}}}}}}