{"contracts/mojo_ERC721.sol":{"MOJO":{"abi":[{"inputs":[{"internalType":"address","name":"registry","type":"address"}],"stateMutability":"nonpayable","type":"constructor"},{"anonymous":false,"inputs":[{"indexed":true,"internalType":"address","name":"owner","type":"address"},{"indexed":true,"internalType":"address","name":"approved","type":"address"},{"indexed":true,"internalType":"uint256","name":"tokenId","type":"uint256"}],"name":"Approval","type":"event"},{"anonymous":false,"inputs":[{"indexed":true,"internalType":"address","name":"owner","type":"address"},{"indexed":true,"internalType":"address","name":"operator","type":"address"},{"indexed":false,"internalType":"bool","name":"approved","type":"bool"}],"name":"ApprovalForAll","type":"event"},{"anonymous":false,"inputs":[{"indexed":true,"internalType":"address","name":"from","type":"address"},{"indexed":false,"internalType":"uint256","name":"timestamp","type":"uint256"},{"indexed":false,"internalType":"uint256","name":"tokenId","type":"uint256"}],"name":"NewNftMinted","type":"event"},{"anonymous":false,"inputs":[{"indexed":true,"internalType":"bytes32","name":"role","type":"bytes32"},{"indexed":true,"internalType":"bytes32","name":"previousAdminRole","type":"bytes32"},{"indexed":true,"internalType":"bytes32","name":"newAdminRole","type":"bytes32"}],"name":"RoleAdminChanged","type":"event"},{"anonymous":false,"inputs":[{"indexed":true,"internalType":"bytes32","name":"role","type":"bytes32"},{"indexed":true,"internalType":"address","name":"account","type":"address"},{"indexed":true,"internalType":"address","name":"sender","type":"address"}],"name":"RoleGranted","type":"event"},{"anonymous":false,"inputs":[{"indexed":true,"internalType":"bytes32","name":"role","type":"bytes32"},{"indexed":true,"internalType":"address","name":"account","type":"address"},{"indexed":true,"internalType":"address","name":"sender","type":"address"}],"name":"RoleRevoked","type":"event"},{"anonymous":false,"inputs":[{"indexed":true,"internalType":"address","name":"from","type":"address"},{"indexed":true,"internalType":"address","name":"to","type":"address"},{"indexed":true,"internalType":"uint256","name":"tokenId","type":"uint256"}],"name":"Transfer","type":"event"},{"anonymous":false,"inputs":[{"indexed":true,"internalType":"address","name":"from","type":"address"},{"indexed":false,"internalType":"uint256","name":"timestamp","type":"uint256"},{"indexed":false,"internalType":"uint256","name":"_metadataTableId","type":"uint256"},{"indexed":false,"internalType":"string","name":"_animation_url","type":"string"},{"indexed":false,"internalType":"uint256","name":"tokenId","type":"uint256"}],"name":"animationUrlUpdated","type":"event"},{"anonymous":false,"inputs":[{"indexed":true,"internalType":"address","name":"from","type":"address"},{"indexed":false,"internalType":"uint256","name":"timestamp","type":"uint256"},{"indexed":false,"internalType":"uint256","name":"_metadataTableId","type":"uint256"},{"indexed":false,"internalType":"string","name":"_background_color","type":"string"},{"indexed":false,"internalType":"uint256","name":"tokenId","type":"uint256"}],"name":"backgroundColorUpdated","type":"event"},{"anonymous":false,"inputs":[{"indexed":true,"internalType":"address","name":"from","type":"address"},{"indexed":false,"internalType":"uint256","name":"timestamp","type":"uint256"},{"indexed":false,"internalType":"uint256","name":"_metadataTableId","type":"uint256"},{"indexed":false,"internalType":"string","name":"_category","type":"string"},{"indexed":false,"internalType":"uint256","name":"tokenId","type":"uint256"}],"name":"categoryUpdated","type":"event"},{"anonymous":false,"inputs":[{"indexed":true,"internalType":"address","name":"from","type":"address"},{"indexed":false,"internalType":"uint256","name":"timestamp","type":"uint256"},{"indexed":false,"internalType":"uint256","name":"_metadataTableId","type":"uint256"},{"indexed":false,"internalType":"string","name":"_description","type":"string"},{"indexed":false,"internalType":"uint256","name":"tokenId","type":"uint256"}],"name":"descriptionUpdated","type":"event"},{"anonymous":false,"inputs":[{"indexed":true,"internalType":"address","name":"from","type":"address"},{"indexed":false,"internalType":"uint256","name":"timestamp","type":"uint256"},{"indexed":false,"internalType":"uint256","name":"_metadataTableId","type":"uint256"},{"indexed":false,"internalType":"string","name":"_external_url","type":"string"},{"indexed":false,"internalType":"uint256","name":"tokenId","type":"uint256"}],"name":"externalUrlUpdated","type":"event"},{"anonymous":false,"inputs":[{"indexed":true,"internalType":"address","name":"from","type":"address"},{"indexed":false,"internalType":"uint256","name":"timestamp","type":"uint256"},{"indexed":false,"internalType":"uint256","name":"_metadataTableId","type":"uint256"},{"indexed":false,"internalType":"string","name":"_image","type":"string"},{"indexed":false,"internalType":"uint256","name":"tokenId","type":"uint256"}],"name":"imageUpdated","type":"event"},{"anonymous":false,"inputs":[{"indexed":true,"internalType":"address","name":"from","type":"address"},{"indexed":false,"internalType":"uint256","name":"timestamp","type":"uint256"},{"indexed":false,"internalType":"uint256","name":"_metadataTableId","type":"uint256"},{"indexed":false,"internalType":"string","name":"_name","type":"string"},{"indexed":false,"internalType":"uint256","name":"tokenId","type":"uint256"}],"name":"nameUpdated","type":"event"},{"anonymous":false,"inputs":[{"indexed":true,"internalType":"address","name":"from","type":"address"},{"indexed":false,"internalType":"uint256","name":"timestamp","type":"uint256"},{"indexed":false,"internalType":"uint256","name":"tokenId","type":"uint256"},{"indexed":false,"internalType":"uint256","name":"_trait_id","type":"uint256"}],"name":"newAttributeAdded","type":"event"},{"anonymous":false,"inputs":[{"indexed":true,"internalType":"address","name":"from","type":"address"},{"indexed":false,"internalType":"uint256","name":"timestamp","type":"uint256"},{"indexed":false,"internalType":"uint256","name":"_attributesTableId","type":"uint256"},{"indexed":false,"internalType":"string","name":"_display_type","type":"string"},{"indexed":false,"internalType":"uint256","name":"tokenId","type":"uint256"},{"indexed":false,"internalType":"uint256","name":"_trait_id","type":"uint256"}],"name":"traitDisplayTypeUpdated","type":"event"},{"anonymous":false,"inputs":[{"indexed":true,"internalType":"address","name":"from","type":"address"},{"indexed":false,"internalType":"uint256","name":"timestamp","type":"uint256"},{"indexed":false,"internalType":"uint256","name":"_attributesTableId","type":"uint256"},{"indexed":false,"internalType":"string","name":"_icon","type":"string"},{"indexed":false,"internalType":"uint256","name":"tokenId","type":"uint256"},{"indexed":false,"internalType":"uint256","name":"_trait_id","type":"uint256"}],"name":"traitIconUpdated","type":"event"},{"anonymous":false,"inputs":[{"indexed":true,"internalType":"address","name":"from","type":"address"},{"indexed":false,"internalType":"uint256","name":"timestamp","type":"uint256"},{"indexed":false,"internalType":"uint256","name":"_attributesTableId","type":"uint256"},{"indexed":false,"internalType":"string","name":"_locked","type":"string"},{"indexed":false,"internalType":"uint256","name":"tokenId","type":"uint256"},{"indexed":false,"internalType":"uint256","name":"_trait_id","type":"uint256"}],"name":"traitLockedUpdated","type":"event"},{"anonymous":false,"inputs":[{"indexed":true,"internalType":"address","name":"from","type":"address"},{"indexed":false,"internalType":"uint256","name":"timestamp","type":"uint256"},{"indexed":false,"internalType":"uint256","name":"_attributesTableId","type":"uint256"},{"indexed":false,"internalType":"string","name":"_trait_type","type":"string"},{"indexed":false,"internalType":"uint256","name":"tokenId","type":"uint256"},{"indexed":false,"internalType":"uint256","name":"_trait_id","type":"uint256"}],"name":"traitTypeUpdated","type":"event"},{"anonymous":false,"inputs":[{"indexed":true,"internalType":"address","name":"from","type":"address"},{"indexed":false,"internalType":"uint256","name":"timestamp","type":"uint256"},{"indexed":false,"internalType":"uint256","name":"_attributesTableId","type":"uint256"},{"indexed":false,"internalType":"string","name":"_value","type":"string"},{"indexed":false,"internalType":"uint256","name":"tokenId","type":"uint256"},{"indexed":false,"internalType":"uint256","name":"_trait_id","type":"uint256"}],"name":"valueUpdated","type":"event"},{"anonymous":false,"inputs":[{"indexed":true,"internalType":"address","name":"from","type":"address"},{"indexed":false,"internalType":"uint256","name":"timestamp","type":"uint256"},{"indexed":false,"internalType":"uint256","name":"_metadataTableId","type":"uint256"},{"indexed":false,"internalType":"string","name":"_youtube_url","type":"string"},{"indexed":false,"internalType":"uint256","name":"tokenId","type":"uint256"}],"name":"youtubeUrlUpdated","type":"event"},{"inputs":[],"name":"DEFAULT_ADMIN_ROLE","outputs":[{"internalType":"bytes32","name":"","type":"bytes32"}],"stateMutability":"view","type":"function"},{"inputs":[{"internalType":"uint256","name":"_tokenId","type":"uint256"},{"internalType":"string","name":"_icon","type":"string"},{"internalType":"string","name":"_display_type","type":"string"},{"internalType":"string","name":"_trait_type","type":"string"},{"internalType":"string","name":"_value","type":"string"}],"name":"add_new_attribute","outputs":[{"internalType":"uint256","name":"","type":"uint256"}],"stateMutability":"nonpayable","type":"function"},{"inputs":[{"internalType":"address","name":"to","type":"address"},{"internalType":"uint256","name":"tokenId","type":"uint256"}],"name":"approve","outputs":[],"stateMutability":"nonpayable","type":"function"},{"inputs":[],"name":"attributesTable","outputs":[{"internalType":"string","name":"","type":"string"}],"stateMutability":"view","type":"function"},{"inputs":[],"name":"attributes_metadataURI","outputs":[{"internalType":"string","name":"","type":"string"}],"stateMutability":"view","type":"function"},{"inputs":[{"internalType":"address","name":"owner","type":"address"}],"name":"balanceOf","outputs":[{"internalType":"uint256","name":"","type":"uint256"}],"stateMutability":"view","type":"function"},{"inputs":[{"internalType":"uint256","name":"tokenId","type":"uint256"}],"name":"getApproved","outputs":[{"internalType":"address","name":"","type":"address"}],"stateMutability":"view","type":"function"},{"inputs":[{"internalType":"bytes32","name":"role","type":"bytes32"}],"name":"getRoleAdmin","outputs":[{"internalType":"bytes32","name":"","type":"bytes32"}],"stateMutability":"view","type":"function"},{"inputs":[{"internalType":"bytes32","name":"role","type":"bytes32"},{"internalType":"address","name":"account","type":"address"}],"name":"grantRole","outputs":[],"stateMutability":"nonpayable","type":"function"},{"inputs":[{"internalType":"bytes32","name":"role","type":"bytes32"},{"internalType":"address","name":"account","type":"address"}],"name":"hasRole","outputs":[{"internalType":"bool","name":"","type":"bool"}],"stateMutability":"view","type":"function"},{"inputs":[{"internalType":"address","name":"owner","type":"address"},{"internalType":"address","name":"operator","type":"address"}],"name":"isApprovedForAll","outputs":[{"internalType":"bool","name":"","type":"bool"}],"stateMutability":"view","type":"function"},{"inputs":[],"name":"mainTable","outputs":[{"internalType":"string","name":"","type":"string"}],"stateMutability":"view","type":"function"},{"inputs":[],"name":"main_metadataURI","outputs":[{"internalType":"string","name":"","type":"string"}],"stateMutability":"view","type":"function"},{"inputs":[],"name":"name","outputs":[{"internalType":"string","name":"","type":"string"}],"stateMutability":"view","type":"function"},{"inputs":[{"internalType":"uint256","name":"tokenId","type":"uint256"}],"name":"ownerOf","outputs":[{"internalType":"address","name":"","type":"address"}],"stateMutability":"view","type":"function"},{"inputs":[{"internalType":"bytes32","name":"role","type":"bytes32"},{"internalType":"address","name":"account","type":"address"}],"name":"renounceRole","outputs":[],"stateMutability":"nonpayable","type":"function"},{"inputs":[{"internalType":"bytes32","name":"role","type":"bytes32"},{"internalType":"address","name":"account","type":"address"}],"name":"revokeRole","outputs":[],"stateMutability":"nonpayable","type":"function"},{"inputs":[{"internalType":"address","name":"to","type":"address"},{"internalType":"string","name":"_name","type":"string"},{"internalType":"string","name":"_description","type":"string"},{"internalType":"string","name":"_image_url","type":"string"},{"internalType":"string","name":"_category","type":"string"},{"internalType":"string","name":"_icon","type":"string"},{"internalType":"string","name":"_display_type","type":"string"},{"internalType":"string","name":"_trait_type","type":"string"},{"internalType":"string","name":"_value","type":"string"}],"name":"safeMint","outputs":[{"internalType":"uint256","name":"","type":"uint256"}],"stateMutability":"nonpayable","type":"function"},{"inputs":[{"internalType":"address","name":"from","type":"address"},{"internalType":"address","name":"to","type":"address"},{"internalType":"uint256","name":"tokenId","type":"uint256"}],"name":"safeTransferFrom","outputs":[],"stateMutability":"nonpayable","type":"function"},{"inputs":[{"internalType":"address","name":"from","type":"address"},{"internalType":"address","name":"to","type":"address"},{"internalType":"uint256","name":"tokenId","type":"uint256"},{"internalType":"bytes","name":"data","type":"bytes"}],"name":"safeTransferFrom","outputs":[],"stateMutability":"nonpayable","type":"function"},{"inputs":[{"internalType":"address","name":"operator","type":"address"},{"internalType":"bool","name":"approved","type":"bool"}],"name":"setApprovalForAll","outputs":[],"stateMutability":"nonpayable","type":"function"},{"inputs":[{"internalType":"string","name":"baseURI","type":"string"}],"name":"setBaseURI","outputs":[],"stateMutability":"nonpayable","type":"function"},{"inputs":[{"internalType":"bytes4","name":"interfaceId","type":"bytes4"}],"name":"supportsInterface","outputs":[{"internalType":"bool","name":"","type":"bool"}],"stateMutability":"view","type":"function"},{"inputs":[],"name":"symbol","outputs":[{"internalType":"string","name":"","type":"string"}],"stateMutability":"view","type":"function"},{"inputs":[{"internalType":"uint256","name":"_tokenId","type":"uint256"}],"name":"tokenURI","outputs":[{"internalType":"string","name":"","type":"string"}],"stateMutability":"view","type":"function"},{"inputs":[{"internalType":"address","name":"from","type":"address"},{"internalType":"address","name":"to","type":"address"},{"internalType":"uint256","name":"tokenId","type":"uint256"}],"name":"transferFrom","outputs":[],"stateMutability":"nonpayable","type":"function"},{"inputs":[{"internalType":"uint256","name":"tokenId","type":"uint256"},{"internalType":"string","name":"_animation_url","type":"string"}],"name":"update_animation_url","outputs":[],"stateMutability":"nonpayable","type":"function"},{"inputs":[{"internalType":"uint256","name":"tokenId","type":"uint256"},{"internalType":"string","name":"_background_color","type":"string"}],"name":"update_background_color","outputs":[],"stateMutability":"nonpayable","type":"function"},{"inputs":[{"internalType":"uint256","name":"tokenId","type":"uint256"},{"internalType":"string","name":"_category","type":"string"}],"name":"update_category","outputs":[],"stateMutability":"nonpayable","type":"function"},{"inputs":[{"internalType":"uint256","name":"tokenId","type":"uint256"},{"internalType":"string","name":"_description","type":"string"}],"name":"update_description","outputs":[],"stateMutability":"nonpayable","type":"function"},{"inputs":[{"internalType":"uint256","name":"tokenId","type":"uint256"},{"internalType":"uint256","name":"_trait_id","type":"uint256"},{"internalType":"string","name":"_display_type","type":"string"}],"name":"update_display_type","outputs":[],"stateMutability":"nonpayable","type":"function"},{"inputs":[{"internalType":"uint256","name":"tokenId","type":"uint256"},{"internalType":"string","name":"_external_url","type":"string"}],"name":"update_external_url","outputs":[],"stateMutability":"nonpayable","type":"function"},{"inputs":[{"internalType":"uint256","name":"tokenId","type":"uint256"},{"internalType":"uint256","name":"_trait_id","type":"uint256"},{"internalType":"string","name":"_icon","type":"string"}],"name":"update_icon","outputs":[],"stateMutability":"nonpayable","type":"function"},{"inputs":[{"internalType":"uint256","name":"tokenId","type":"uint256"},{"internalType":"string","name":"_image","type":"string"}],"name":"update_image","outputs":[],"stateMutability":"nonpayable","type":"function"},{"inputs":[{"internalType":"uint256","name":"tokenId","type":"uint256"},{"internalType":"uint256","name":"_trait_id","type":"uint256"},{"internalType":"string","name":"_locked","type":"string"}],"name":"update_locked","outputs":[],"stateMutability":"nonpayable","type":"function"},{"inputs":[{"internalType":"uint256","name":"tokenId","type":"uint256"},{"internalType":"string","name":"_name","type":"string"}],"name":"update_name","outputs":[],"stateMutability":"nonpayable","type":"function"},{"inputs":[{"internalType":"uint256","name":"tokenId","type":"uint256"},{"internalType":"uint256","name":"_trait_id","type":"uint256"},{"internalType":"string","name":"_trait_type","type":"string"}],"name":"update_trait_type","outputs":[],"stateMutability":"nonpayable","type":"function"},{"inputs":[{"internalType":"uint256","name":"tokenId","type":"uint256"},{"internalType":"uint256","name":"_trait_id","type":"uint256"},{"internalType":"string","name":"_value","type":"string"}],"name":"update_value","outputs":[],"stateMutability":"nonpayable","type":"function"},{"inputs":[{"internalType":"uint256","name":"tokenId","type":"uint256"},{"internalType":"string","name":"_youtube_url","type":"string"}],"name":"update_youtube_url","outputs":[],"stateMutability":"nonpayable","type":"function"}],"evm":{"bytecode":{"linkReferences":{},"object":"60e06040526028608081815290620058f360a0398051620000299160079160209091019062000525565b5060408051808201909152600a808252694d6f6a6f5f4d7573696360b01b60209092019182526200005d91600e9162000525565b503480156200006b57600080fd5b506040516200591b3803806200591b8339810160408190526200008e91620005cb565b604080518082018252600a8152694d6f6a6f204d7573696360b01b6020808301918252835180850190945260048452631b53919560e21b908401528151919291620000dc9160009162000525565b508051620000f290600190602084019062000525565b50620001049150600090503362000363565b600980546001600160a01b0319166001600160a01b038316908117909155633a9151b030600e620001414662000408602090811b6200263217901c565b604051602001620001549291906200070f565b6040516020818303038152906040526040518363ffffffff1660e01b8152600401620001829291906200081d565b6020604051808303816000875af1158015620001a2573d6000803e3d6000fd5b505050506040513d601f19601f82011682018060405250810190620001c8919062000861565b600a81905550600e620001e6466200040860201b620026321760201c565b620001fe600a546200040860201b620026321760201c565b60405160200162000212939291906200087b565b604051602081830303815290604052600c90805190602001906200023892919062000525565b506009546001600160a01b0316633a9151b030600e620002644662000408602090811b6200263217901c565b60405160200162000277929190620008d0565b6040516020818303038152906040526040518363ffffffff1660e01b8152600401620002a59291906200081d565b6020604051808303816000875af1158015620002c5573d6000803e3d6000fd5b505050506040513d601f19601f82011682018060405250810190620002eb919062000861565b600b81905550600e62000309466200040860201b620026321760201c565b62000321600b546200040860201b620026321760201c565b60405160200162000335939291906200087b565b604051602081830303815290604052600d90805190602001906200035b92919062000525565b505062000a82565b60008281526006602090815260408083206001600160a01b038516845290915290205460ff16620004045760008281526006602090815260408083206001600160a01b03851684529091529020805460ff19166001179055620003c33390565b6001600160a01b0316816001600160a01b0316837f2f8788117e7eff1d82e926ec794901d17c78024a50270940304540a733656f0d60405160405180910390a45b5050565b6060816200042d5750506040805180820190915260018152600360fc1b602082015290565b8160005b81156200045d57806200044481620009bf565b9150620004559050600a83620009f3565b915062000431565b6000816001600160401b038111156200047a576200047a62000a0a565b6040519080825280601f01601f191660200182016040528015620004a5576020820181803683370190505b5090505b84156200051d57620004bd60018362000a20565b9150620004cc600a8662000a3a565b620004d990603062000a51565b60f81b818381518110620004f157620004f162000a6c565b60200101906001600160f81b031916908160001a90535062000515600a86620009f3565b9450620004a9565b949350505050565b8280546200053390620005fd565b90600052602060002090601f016020900481019282620005575760008555620005a2565b82601f106200057257805160ff1916838001178555620005a2565b82800160010185558215620005a2579182015b82811115620005a257825182559160200191906001019062000585565b50620005b0929150620005b4565b5090565b5b80821115620005b05760008155600101620005b5565b600060208284031215620005de57600080fd5b81516001600160a01b0381168114620005f657600080fd5b9392505050565b600181811c908216806200061257607f821691505b602082108114156200063457634e487b7160e01b600052602260045260246000fd5b50919050565b8054600090600181811c90808316806200065557607f831692505b60208084108214156200067857634e487b7160e01b600052602260045260246000fd5b8180156200068f5760018114620006a157620006d0565b60ff19861689528489019650620006d0565b60008881526020902060005b86811015620006c85781548b820152908501908301620006ad565b505084890196505b50505050505092915050565b60005b83811015620006f9578181015183820152602001620006df565b8381111562000709576000848401525b50505050565b6c021a922a0aa22902a20a126229609d1b8152600062000733600d8301856200063a565b605f60f81b815283516200074f816001840160208801620006dc565b7f2028746f6b656e696420696e742c206e616d6520746578742c20646573637269600192909101918201527f7074696f6e20746578742c20696d61676520746578742c2063617465676f727960218201527f20746578742c2065787465726e616c5f75726c20746578742c206261636b677260418201527f6f756e645f636f6c6f7220746578742c20616e696d6174696f6e5f75726c207460618201527f6578742c20796f75747562655f75726c2074657874293b0000000000000000006081820152609801949350505050565b60018060a01b038316815260406020820152600082518060408401526200084c816060850160208701620006dc565b601f01601f1916919091016060019392505050565b6000602082840312156200087457600080fd5b5051919050565b60006200088982866200063a565b605f60f81b8082528551620008a6816001850160208a01620006dc565b60019201918201528351620008c3816002840160208801620006dc565b0160020195945050505050565b6c021a922a0aa22902a20a126229609d1b81526000620008f4600d8301856200063a565b605f60f81b8152835162000910816001840160208801620006dc565b7f20286d61696e7461626c655f746f6b656e696420696e742c2074726169745f69600192909101918201527f6420696e742c206c6f636b656420696e742c2069636f6e20746578742c20646960218201527f73706c61795f7479706520746578742c2074726169745f74797065207465787460418201526d2c2076616c75652074657874293b60901b6061820152606f01949350505050565b634e487b7160e01b600052601160045260246000fd5b6000600019821415620009d657620009d6620009a9565b5060010190565b634e487b7160e01b600052601260045260246000fd5b60008262000a055762000a05620009dd565b500490565b634e487b7160e01b600052604160045260246000fd5b60008282101562000a355762000a35620009a9565b500390565b60008262000a4c5762000a4c620009dd565b500690565b6000821982111562000a675762000a67620009a9565b500190565b634e487b7160e01b600052603260045260246000fd5b614e618062000a926000396000f3fe608060405234801561001057600080fd5b50600436106102ad5760003560e01c80636352211e1161017b578063a22cb465116100d8578063c87b56dd1161008c578063d547741f11610071578063d547741f14610591578063e985e9c5146105a4578063f15daa02146105e057600080fd5b8063c87b56dd1461056b578063cabfb7c21461057e57600080fd5b8063a8e62f09116100bd578063a8e62f091461053d578063b88d4fde14610545578063c874311e1461055857600080fd5b8063a22cb46514610517578063a4c752231461052a57600080fd5b80638586b42f1161012f57806395d89b411161011457806395d89b41146104f4578063a1ced596146104fc578063a217fddf1461050f57600080fd5b80638586b42f146104a857806391d14854146104bb57600080fd5b80636a283ce2116101605780636a283ce21461047a57806370a082311461048d5780637bc53be9146104a057600080fd5b80636352211e14610454578063697c2a021461046757600080fd5b80632f2ff15d1161022957806355f804b3116101dd578063606a9612116101c2578063606a96121461041b57806360af42751461042e5780636301226f1461044157600080fd5b806355f804b3146104005780635d21260a1461041357600080fd5b806336568abe1161020e57806336568abe146103c757806341f6660a146103da57806342842e0e146103ed57600080fd5b80632f2ff15d146103a1578063313e91cb146103b457600080fd5b8063091a77e71161028057806323b872dd1161026557806323b872dd1461034a578063248a9ca31461035d5780632d30c0fc1461038e57600080fd5b8063091a77e71461032f578063095ea7b31461033757600080fd5b806301637608146102b257806301ffc9a7146102c757806306fdde03146102ef578063081812fc14610304575b600080fd5b6102c56102c0366004613497565b6105f3565b005b6102da6102d53660046134fd565b6107e9565b60405190151581526020015b60405180910390f35b6102f76107fa565b6040516102e69190613572565b610317610312366004613585565b61088c565b6040516001600160a01b0390911681526020016102e6565b6102f76108b3565b6102c56103453660046135c3565b6108ea565b6102c56103583660046135ef565b610a1c565b61038061036b366004613585565b60009081526006602052604090206001015490565b6040519081526020016102e6565b6102c561039c366004613630565b610aa3565b6102c56103af366004613677565b610c27565b6102c56103c2366004613497565b610c4c565b6102c56103d5366004613677565b610e30565b6102c56103e8366004613630565b610ebc565b6102c56103fb3660046135ef565b611034565b6102c561040e3660046136a7565b61104f565b6102f761106d565b6102c5610429366004613630565b6110fb565b6102c561043c366004613497565b611273565b6102c561044f366004613630565b611457565b610317610462366004613585565b6115cf565b6102c5610475366004613630565b611634565b6102c5610488366004613630565b6117ac565b61038061049b3660046136dc565b611924565b6102f76119be565b6103806104b63660046136f9565b6119cb565b6102da6104c9366004613677565b60009182526006602090815260408084206001600160a01b0393909316845291905290205460ff1690565b6102f7611b85565b61038061050a36600461384a565b611b94565b610380600081565b6102c5610525366004613901565b611d7e565b6102c5610538366004613497565b611d89565b6102f7611f6d565b6102c5610553366004613934565b611f8f565b6102c5610566366004613630565b61201d565b6102f7610579366004613585565b612195565b6102c561058c366004613630565b6122b1565b6102c561059f366004613677565b612429565b6102da6105b23660046139b4565b6001600160a01b03918216600090815260056020908152604080832093909416825291909152205460ff1690565b6102c56105ee366004613497565b61244e565b6040516331a9108f60e11b81526004810184905233903090636352211e90602401602060405180830381865afa158015610631573d6000803e3d6000fd5b505050506040513d601f19601f8201168201806040525081019061065591906139e2565b6001600160a01b0316146106a05760405162461bcd60e51b815260206004820152600d60248201526c24b73b30b634b21037bbb732b960991b60448201526064015b60405180910390fd5b6000838152600f602052604090205482118015906106be5750600082115b6107005760405162461bcd60e51b815260206004820152601360248201527203a3930b4ba2fb4b2103737ba103337bab7321606d1b6044820152606401610697565b600954600b546001600160a01b039091169063eaf5d04e903090600d8561072689612632565b61072f89612632565b6040516020016107429493929190613af0565b6040516020818303038152906040526040518463ffffffff1660e01b815260040161076f93929190613bcd565b600060405180830381600087803b15801561078957600080fd5b505af115801561079d573d6000803e3d6000fd5b5050600b546040513393507fbc3fdc5c3d813c4a99d9005e48663baa4f6a682afd7bb19427443c53942909c592506107dc914291869089908990613bfe565b60405180910390a2505050565b60006107f482612738565b92915050565b606060008054610809906139ff565b80601f0160208091040260200160405190810160405280929190818152602001828054610835906139ff565b80156108825780601f1061085757610100808354040283529160200191610882565b820191906000526020600020905b81548152906001019060200180831161086557829003601f168201915b5050505050905090565b600061089782612776565b506000908152600460205260409020546001600160a01b031690565b606060006108bf6127dd565b905080600d6040516020016108d5929190613c31565b60405160208183030381529060405291505090565b60006108f5826115cf565b9050806001600160a01b0316836001600160a01b0316141561097f5760405162461bcd60e51b815260206004820152602160248201527f4552433732313a20617070726f76616c20746f2063757272656e74206f776e6560448201527f72000000000000000000000000000000000000000000000000000000000000006064820152608401610697565b336001600160a01b038216148061099b575061099b81336105b2565b610a0d5760405162461bcd60e51b815260206004820152603e60248201527f4552433732313a20617070726f76652063616c6c6572206973206e6f7420746f60448201527f6b656e206f776e6572206e6f7220617070726f76656420666f7220616c6c00006064820152608401610697565b610a1783836127ec565b505050565b610a263382612867565b610a985760405162461bcd60e51b815260206004820152602e60248201527f4552433732313a2063616c6c6572206973206e6f7420746f6b656e206f776e6560448201527f72206e6f7220617070726f7665640000000000000000000000000000000000006064820152608401610697565b610a178383836128e5565b6040516331a9108f60e11b81526004810183905233903090636352211e90602401602060405180830381865afa158015610ae1573d6000803e3d6000fd5b505050506040513d601f19601f82011682018060405250810190610b0591906139e2565b6001600160a01b031614610b4b5760405162461bcd60e51b815260206004820152600d60248201526c24b73b30b634b21037bbb732b960991b6044820152606401610697565b600954600a546001600160a01b039091169063eaf5d04e903090600c85610b7188612632565b604051602001610b8393929190613c9d565b6040516020818303038152906040526040518463ffffffff1660e01b8152600401610bb093929190613bcd565b600060405180830381600087803b158015610bca57600080fd5b505af1158015610bde573d6000803e3d6000fd5b5050600a546040513393507f718061d6f6b3bd0556e7caaaf9cf765f425b72543ab78084cd28716cb17c9d559250610c1b91429186908890613d3e565b60405180910390a25050565b600082815260066020526040902060010154610c4281612abf565b610a178383612ac9565b6040516331a9108f60e11b81526004810184905233903090636352211e90602401602060405180830381865afa158015610c8a573d6000803e3d6000fd5b505050506040513d601f19601f82011682018060405250810190610cae91906139e2565b6001600160a01b031614610cf45760405162461bcd60e51b815260206004820152600d60248201526c24b73b30b634b21037bbb732b960991b6044820152606401610697565b6000838152600f60205260409020548211801590610d125750600082115b610d545760405162461bcd60e51b815260206004820152601360248201527203a3930b4ba2fb4b2103737ba103337bab7321606d1b6044820152606401610697565b600954600b546001600160a01b039091169063eaf5d04e903090600d85610d7a89612632565b610d8389612632565b604051602001610d969493929190613d6e565b6040516020818303038152906040526040518463ffffffff1660e01b8152600401610dc393929190613bcd565b600060405180830381600087803b158015610ddd57600080fd5b505af1158015610df1573d6000803e3d6000fd5b5050600b546040513393507fec0f0d67678a9d5a686ab06fa92fadb72e148b9ebdead00eb6601b6a1fd07c8f92506107dc914291869089908990613bfe565b6001600160a01b0381163314610eae5760405162461bcd60e51b815260206004820152602f60248201527f416363657373436f6e74726f6c3a2063616e206f6e6c792072656e6f756e636560448201527f20726f6c657320666f722073656c6600000000000000000000000000000000006064820152608401610697565b610eb88282612b6b565b5050565b6040516331a9108f60e11b81526004810183905233903090636352211e90602401602060405180830381865afa158015610efa573d6000803e3d6000fd5b505050506040513d601f19601f82011682018060405250810190610f1e91906139e2565b6001600160a01b031614610f645760405162461bcd60e51b815260206004820152600d60248201526c24b73b30b634b21037bbb732b960991b6044820152606401610697565b600954600a546001600160a01b039091169063eaf5d04e903090600c85610f8a88612632565b604051602001610f9c93929190613e4b565b6040516020818303038152906040526040518463ffffffff1660e01b8152600401610fc993929190613bcd565b600060405180830381600087803b158015610fe357600080fd5b505af1158015610ff7573d6000803e3d6000fd5b5050600a546040513393507fbd016395f4fcfe0220623379a39f3e1cc6d4d5fb89a124da4449c4dd4a50bc5a9250610c1b91429186908890613d3e565b610a1783838360405180602001604052806000815250611f8f565b600061105a81612abf565b8151610a17906007906020850190613352565b600c805461107a906139ff565b80601f01602080910402602001604051908101604052809291908181526020018280546110a6906139ff565b80156110f35780601f106110c8576101008083540402835291602001916110f3565b820191906000526020600020905b8154815290600101906020018083116110d657829003601f168201915b505050505081565b6040516331a9108f60e11b81526004810183905233903090636352211e90602401602060405180830381865afa158015611139573d6000803e3d6000fd5b505050506040513d601f19601f8201168201806040525081019061115d91906139e2565b6001600160a01b0316146111a35760405162461bcd60e51b815260206004820152600d60248201526c24b73b30b634b21037bbb732b960991b6044820152606401610697565b600954600a546001600160a01b039091169063eaf5d04e903090600c856111c988612632565b6040516020016111db93929190613eeb565b6040516020818303038152906040526040518463ffffffff1660e01b815260040161120893929190613bcd565b600060405180830381600087803b15801561122257600080fd5b505af1158015611236573d6000803e3d6000fd5b5050600a546040513393507f34f39ab14bc214fc40236bd17290dea7a5ebbca4716d256a079aa1db9ea901dd9250610c1b91429186908890613d3e565b6040516331a9108f60e11b81526004810184905233903090636352211e90602401602060405180830381865afa1580156112b1573d6000803e3d6000fd5b505050506040513d601f19601f820116820180604052508101906112d591906139e2565b6001600160a01b03161461131b5760405162461bcd60e51b815260206004820152600d60248201526c24b73b30b634b21037bbb732b960991b6044820152606401610697565b6000838152600f602052604090205482118015906113395750600082115b61137b5760405162461bcd60e51b815260206004820152601360248201527203a3930b4ba2fb4b2103737ba103337bab7321606d1b6044820152606401610697565b600954600b546001600160a01b039091169063eaf5d04e903090600d856113a189612632565b6113aa89612632565b6040516020016113bd9493929190613f8b565b6040516020818303038152906040526040518463ffffffff1660e01b81526004016113ea93929190613bcd565b600060405180830381600087803b15801561140457600080fd5b505af1158015611418573d6000803e3d6000fd5b5050600b546040513393507f280bb8c24c5b69393733b8cf1779ec264023540e75149b5024de5ea55a41736e92506107dc914291869089908990613bfe565b6040516331a9108f60e11b81526004810183905233903090636352211e90602401602060405180830381865afa158015611495573d6000803e3d6000fd5b505050506040513d601f19601f820116820180604052508101906114b991906139e2565b6001600160a01b0316146114ff5760405162461bcd60e51b815260206004820152600d60248201526c24b73b30b634b21037bbb732b960991b6044820152606401610697565b600954600a546001600160a01b039091169063eaf5d04e903090600c8561152588612632565b60405160200161153793929190614068565b6040516020818303038152906040526040518463ffffffff1660e01b815260040161156493929190613bcd565b600060405180830381600087803b15801561157e57600080fd5b505af1158015611592573d6000803e3d6000fd5b5050600a546040513393507fb830b8c0bfe518a8200843dc80652efaa1c0ae60d22d339d65107e4b64dd4d629250610c1b91429186908890613d3e565b6000818152600260205260408120546001600160a01b0316806107f45760405162461bcd60e51b815260206004820152601860248201527f4552433732313a20696e76616c696420746f6b656e20494400000000000000006044820152606401610697565b6040516331a9108f60e11b81526004810183905233903090636352211e90602401602060405180830381865afa158015611672573d6000803e3d6000fd5b505050506040513d601f19601f8201168201806040525081019061169691906139e2565b6001600160a01b0316146116dc5760405162461bcd60e51b815260206004820152600d60248201526c24b73b30b634b21037bbb732b960991b6044820152606401610697565b600954600a546001600160a01b039091169063eaf5d04e903090600c8561170288612632565b60405160200161171493929190614108565b6040516020818303038152906040526040518463ffffffff1660e01b815260040161174193929190613bcd565b600060405180830381600087803b15801561175b57600080fd5b505af115801561176f573d6000803e3d6000fd5b5050600a546040513393507fe1c454aef576927af164ec321fd3b9230ee992ec682464b1fcb96342e555add09250610c1b91429186908890613d3e565b6040516331a9108f60e11b81526004810183905233903090636352211e90602401602060405180830381865afa1580156117ea573d6000803e3d6000fd5b505050506040513d601f19601f8201168201806040525081019061180e91906139e2565b6001600160a01b0316146118545760405162461bcd60e51b815260206004820152600d60248201526c24b73b30b634b21037bbb732b960991b6044820152606401610697565b600954600a546001600160a01b039091169063eaf5d04e903090600c8561187a88612632565b60405160200161188c9392919061415a565b6040516020818303038152906040526040518463ffffffff1660e01b81526004016118b993929190613bcd565b600060405180830381600087803b1580156118d357600080fd5b505af11580156118e7573d6000803e3d6000fd5b5050600a546040513393507f1a4940bc8962feb51c853bd670161c0fffd6e75d6ecfd2d8152403dc30edaec69250610c1b91429186908890613d3e565b60006001600160a01b0382166119a25760405162461bcd60e51b815260206004820152602960248201527f4552433732313a2061646472657373207a65726f206973206e6f74206120766160448201527f6c6964206f776e657200000000000000000000000000000000000000000000006064820152608401610697565b506001600160a01b031660009081526003602052604090205490565b600d805461107a906139ff565b6000806119d760085490565b600954600a549192506001600160a01b03169063eaf5d04e903090600c6119fd86612632565b8f8f8f8f604051602001611a16969594939291906141fa565b6040516020818303038152906040526040518463ffffffff1660e01b8152600401611a4393929190613bcd565b600060405180830381600087803b158015611a5d57600080fd5b505af1158015611a71573d6000803e3d6000fd5b5050600954600b546001600160a01b03909116925063eaf5d04e91503090600d611a9a86612632565b8b8b8b8b604051602001611ab39695949392919061430b565b6040516020818303038152906040526040518463ffffffff1660e01b8152600401611ae093929190613bcd565b600060405180830381600087803b158015611afa57600080fd5b505af1158015611b0e573d6000803e3d6000fd5b50505050611b1c8b82612bee565b6000818152600f6020526040902060019055611b3c600880546001019055565b604080514281526020810183905233917f061b141191d79859f7cc6256c1b9e5f380052197831efe9135841c0ff4de7e63910160405180910390a29a9950505050505050505050565b606060018054610809906139ff565b6040516331a9108f60e11b81526004810186905260009033903090636352211e90602401602060405180830381865afa158015611bd5573d6000803e3d6000fd5b505050506040513d601f19601f82011682018060405250810190611bf991906139e2565b6001600160a01b031614611c3f5760405162461bcd60e51b815260206004820152600d60248201526c24b73b30b634b21037bbb732b960991b6044820152606401610697565b6000868152600f6020526040902054600954600b546001600160a01b039091169063eaf5d04e903090600d611c738c612632565b611c86611c8188600161442c565b612632565b8c8c8c8c604051602001611ca09796959493929190614444565b6040516020818303038152906040526040518463ffffffff1660e01b8152600401611ccd93929190613bcd565b600060405180830381600087803b158015611ce757600080fd5b505af1158015611cfb573d6000803e3d6000fd5b50505050806001611d0c919061442c565b6000888152600f6020526040902055337f49f81050f063e5873e3da74c80d522b979ef15124ea45757ce3e838d7e2d703e4289611d4a85600161442c565b6040805193845260208401929092529082015260600160405180910390a2611d7381600161442c565b979650505050505050565b610eb8338383612c08565b6040516331a9108f60e11b81526004810184905233903090636352211e90602401602060405180830381865afa158015611dc7573d6000803e3d6000fd5b505050506040513d601f19601f82011682018060405250810190611deb91906139e2565b6001600160a01b031614611e315760405162461bcd60e51b815260206004820152600d60248201526c24b73b30b634b21037bbb732b960991b6044820152606401610697565b6000838152600f60205260409020548211801590611e4f5750600082115b611e915760405162461bcd60e51b815260206004820152601360248201527203a3930b4ba2fb4b2103737ba103337bab7321606d1b6044820152606401610697565b600954600b546001600160a01b039091169063eaf5d04e903090600d85611eb789612632565b611ec089612632565b604051602001611ed3949392919061459c565b6040516020818303038152906040526040518463ffffffff1660e01b8152600401611f0093929190613bcd565b600060405180830381600087803b158015611f1a57600080fd5b505af1158015611f2e573d6000803e3d6000fd5b5050600b546040513393507fb415e23e22b2b31ba644100f3f46f83517c124378282dcbadd1d523eb345fc5992506107dc914291869089908990613bfe565b60606000611f796127dd565b905080600c6040516020016108d5929190613c31565b611f993383612867565b61200b5760405162461bcd60e51b815260206004820152602e60248201527f4552433732313a2063616c6c6572206973206e6f7420746f6b656e206f776e6560448201527f72206e6f7220617070726f7665640000000000000000000000000000000000006064820152608401610697565b61201784848484612cd7565b50505050565b6040516331a9108f60e11b81526004810183905233903090636352211e90602401602060405180830381865afa15801561205b573d6000803e3d6000fd5b505050506040513d601f19601f8201168201806040525081019061207f91906139e2565b6001600160a01b0316146120c55760405162461bcd60e51b815260206004820152600d60248201526c24b73b30b634b21037bbb732b960991b6044820152606401610697565b600954600a546001600160a01b039091169063eaf5d04e903090600c856120eb88612632565b6040516020016120fd93929190614679565b6040516020818303038152906040526040518463ffffffff1660e01b815260040161212a93929190613bcd565b600060405180830381600087803b15801561214457600080fd5b505af1158015612158573d6000803e3d6000fd5b5050600a546040513393507fe785ea1e282a50b7e65e928a3f97b023dca466e7e64e4bc48693df3df780bbe29250610c1b91429186908890613d3e565b6000818152600260205260409020546060906001600160a01b03166122225760405162461bcd60e51b815260206004820152602f60248201527f4552433732314d657461646174613a2055524920717565727920666f72206e6f60448201527f6e6578697374656e7420746f6b656e00000000000000000000000000000000006064820152608401610697565b600061222c6127dd565b905080516000141561224e575050604080516020810190915260008152919050565b6000600c600d600c600d60405160200161226b9493929190614719565b6040516020818303038152906040529050818161228786612632565b60405160200161229993929190614a89565b60405160208183030381529060405292505050919050565b6040516331a9108f60e11b81526004810183905233903090636352211e90602401602060405180830381865afa1580156122ef573d6000803e3d6000fd5b505050506040513d601f19601f8201168201806040525081019061231391906139e2565b6001600160a01b0316146123595760405162461bcd60e51b815260206004820152600d60248201526c24b73b30b634b21037bbb732b960991b6044820152606401610697565b600954600a546001600160a01b039091169063eaf5d04e903090600c8561237f88612632565b60405160200161239193929190614b22565b6040516020818303038152906040526040518463ffffffff1660e01b81526004016123be93929190613bcd565b600060405180830381600087803b1580156123d857600080fd5b505af11580156123ec573d6000803e3d6000fd5b5050600a546040513393507f96891d92cba055882b9cc7bbad764db900044bd69deafe6d5f32cf68b1668a9c9250610c1b91429186908890613d3e565b60008281526006602052604090206001015461244481612abf565b610a178383612b6b565b6040516331a9108f60e11b81526004810184905233903090636352211e90602401602060405180830381865afa15801561248c573d6000803e3d6000fd5b505050506040513d601f19601f820116820180604052508101906124b091906139e2565b6001600160a01b0316146124f65760405162461bcd60e51b815260206004820152600d60248201526c24b73b30b634b21037bbb732b960991b6044820152606401610697565b6000838152600f602052604090205482118015906125145750600082115b6125565760405162461bcd60e51b815260206004820152601360248201527203a3930b4ba2fb4b2103737ba103337bab7321606d1b6044820152606401610697565b600954600b546001600160a01b039091169063eaf5d04e903090600d8561257c89612632565b61258589612632565b6040516020016125989493929190614bc2565b6040516020818303038152906040526040518463ffffffff1660e01b81526004016125c593929190613bcd565b600060405180830381600087803b1580156125df57600080fd5b505af11580156125f3573d6000803e3d6000fd5b5050600b546040513393507f11bfb7cd1318679cbb7491b824432aaf8d65800ec0a83281dad118a0373a4a2392506107dc914291869089908990613bfe565b6060816126565750506040805180820190915260018152600360fc1b602082015290565b8160005b8115612680578061266a81614c9f565b91506126799050600a83614cd0565b915061265a565b60008167ffffffffffffffff81111561269b5761269b6133eb565b6040519080825280601f01601f1916602001820160405280156126c5576020820181803683370190505b5090505b8415612730576126da600183614ce4565b91506126e7600a86614cfb565b6126f290603061442c565b60f81b81838151811061270757612707614d0f565b60200101906001600160f81b031916908160001a905350612729600a86614cd0565b94506126c9565b949350505050565b60006001600160e01b031982167f7965db0b0000000000000000000000000000000000000000000000000000000014806107f457506107f482612d55565b6000818152600260205260409020546001600160a01b03166127da5760405162461bcd60e51b815260206004820152601860248201527f4552433732313a20696e76616c696420746f6b656e20494400000000000000006044820152606401610697565b50565b606060078054610809906139ff565b6000818152600460205260409020805473ffffffffffffffffffffffffffffffffffffffff19166001600160a01b038416908117909155819061282e826115cf565b6001600160a01b03167f8c5be1e5ebec7d5bd14f71427d1e84f3dd0314c0f7b2291e5b200ac8c7c3b92560405160405180910390a45050565b600080612873836115cf565b9050806001600160a01b0316846001600160a01b031614806128ba57506001600160a01b0380821660009081526005602090815260408083209388168352929052205460ff165b806127305750836001600160a01b03166128d38461088c565b6001600160a01b031614949350505050565b826001600160a01b03166128f8826115cf565b6001600160a01b0316146129745760405162461bcd60e51b815260206004820152602560248201527f4552433732313a207472616e736665722066726f6d20696e636f72726563742060448201527f6f776e65720000000000000000000000000000000000000000000000000000006064820152608401610697565b6001600160a01b0382166129ef5760405162461bcd60e51b8152602060048201526024808201527f4552433732313a207472616e7366657220746f20746865207a65726f2061646460448201527f72657373000000000000000000000000000000000000000000000000000000006064820152608401610697565b6129fa6000826127ec565b6001600160a01b0383166000908152600360205260408120805460019290612a23908490614ce4565b90915550506001600160a01b0382166000908152600360205260408120805460019290612a5190849061442c565b9091555050600081815260026020526040808220805473ffffffffffffffffffffffffffffffffffffffff19166001600160a01b0386811691821790925591518493918716917fddf252ad1be2c89b69c2b068fc378daa952ba7f163c4a11628f55a4df523b3ef91a4505050565b6127da8133612df0565b60008281526006602090815260408083206001600160a01b038516845290915290205460ff16610eb85760008281526006602090815260408083206001600160a01b03851684529091529020805460ff19166001179055612b273390565b6001600160a01b0316816001600160a01b0316837f2f8788117e7eff1d82e926ec794901d17c78024a50270940304540a733656f0d60405160405180910390a45050565b60008281526006602090815260408083206001600160a01b038516845290915290205460ff1615610eb85760008281526006602090815260408083206001600160a01b0385168085529252808320805460ff1916905551339285917ff6391f5c32d9c69d2a47ea670b442974b53935d1edc7fd64eb21e047a839171b9190a45050565b610eb8828260405180602001604052806000815250612e70565b816001600160a01b0316836001600160a01b03161415612c6a5760405162461bcd60e51b815260206004820152601960248201527f4552433732313a20617070726f766520746f2063616c6c6572000000000000006044820152606401610697565b6001600160a01b03838116600081815260056020908152604080832094871680845294825291829020805460ff191686151590811790915591519182527f17307eab39ab6107e8899845ad3d59bd9653f200f220920489ca2b5937696c31910160405180910390a3505050565b612ce28484846128e5565b612cee84848484612eee565b6120175760405162461bcd60e51b815260206004820152603260248201527f4552433732313a207472616e7366657220746f206e6f6e20455243373231526560448201527131b2b4bb32b91034b6b83632b6b2b73a32b960711b6064820152608401610697565b60006001600160e01b031982167f80ac58cd000000000000000000000000000000000000000000000000000000001480612db857506001600160e01b031982167f5b5e139f00000000000000000000000000000000000000000000000000000000145b806107f457507f01ffc9a7000000000000000000000000000000000000000000000000000000006001600160e01b03198316146107f4565b60008281526006602090815260408083206001600160a01b038516845290915290205460ff16610eb857612e2e816001600160a01b03166014613037565b612e39836020613037565b604051602001612e4a929190614d25565b60408051601f198184030181529082905262461bcd60e51b825261069791600401613572565b612e7a8383613203565b612e876000848484612eee565b610a175760405162461bcd60e51b815260206004820152603260248201527f4552433732313a207472616e7366657220746f206e6f6e20455243373231526560448201527131b2b4bb32b91034b6b83632b6b2b73a32b960711b6064820152608401610697565b60006001600160a01b0384163b1561302c57604051630a85bd0160e11b81526001600160a01b0385169063150b7a0290612f32903390899088908890600401614da6565b6020604051808303816000875af1925050508015612f6d575060408051601f3d908101601f19168201909252612f6a91810190614dd8565b60015b613012573d808015612f9b576040519150601f19603f3d011682016040523d82523d6000602084013e612fa0565b606091505b50805161300a5760405162461bcd60e51b815260206004820152603260248201527f4552433732313a207472616e7366657220746f206e6f6e20455243373231526560448201527131b2b4bb32b91034b6b83632b6b2b73a32b960711b6064820152608401610697565b805181602001fd5b6001600160e01b031916630a85bd0160e11b149050612730565b506001949350505050565b60606000613046836002614df5565b61305190600261442c565b67ffffffffffffffff811115613069576130696133eb565b6040519080825280601f01601f191660200182016040528015613093576020820181803683370190505b509050600360fc1b816000815181106130ae576130ae614d0f565b60200101906001600160f81b031916908160001a9053507f7800000000000000000000000000000000000000000000000000000000000000816001815181106130f9576130f9614d0f565b60200101906001600160f81b031916908160001a905350600061311d846002614df5565b61312890600161442c565b90505b60018111156131ad577f303132333435363738396162636465660000000000000000000000000000000085600f166010811061316957613169614d0f565b1a60f81b82828151811061317f5761317f614d0f565b60200101906001600160f81b031916908160001a90535060049490941c936131a681614e14565b905061312b565b5083156131fc5760405162461bcd60e51b815260206004820181905260248201527f537472696e67733a20686578206c656e67746820696e73756666696369656e746044820152606401610697565b9392505050565b6001600160a01b0382166132595760405162461bcd60e51b815260206004820181905260248201527f4552433732313a206d696e7420746f20746865207a65726f20616464726573736044820152606401610697565b6000818152600260205260409020546001600160a01b0316156132be5760405162461bcd60e51b815260206004820152601c60248201527f4552433732313a20746f6b656e20616c7265616479206d696e746564000000006044820152606401610697565b6001600160a01b03821660009081526003602052604081208054600192906132e790849061442c565b9091555050600081815260026020526040808220805473ffffffffffffffffffffffffffffffffffffffff19166001600160a01b03861690811790915590518392907fddf252ad1be2c89b69c2b068fc378daa952ba7f163c4a11628f55a4df523b3ef908290a45050565b82805461335e906139ff565b90600052602060002090601f01602090048101928261338057600085556133c6565b82601f1061339957805160ff19168380011785556133c6565b828001600101855582156133c6579182015b828111156133c65782518255916020019190600101906133ab565b506133d29291506133d6565b5090565b5b808211156133d257600081556001016133d7565b634e487b7160e01b600052604160045260246000fd5b600067ffffffffffffffff8084111561341c5761341c6133eb565b604051601f8501601f19908116603f01168101908282118183101715613444576134446133eb565b8160405280935085815286868601111561345d57600080fd5b858560208301376000602087830101525050509392505050565b600082601f83011261348857600080fd5b6131fc83833560208501613401565b6000806000606084860312156134ac57600080fd5b8335925060208401359150604084013567ffffffffffffffff8111156134d157600080fd5b6134dd86828701613477565b9150509250925092565b6001600160e01b0319811681146127da57600080fd5b60006020828403121561350f57600080fd5b81356131fc816134e7565b60005b8381101561353557818101518382015260200161351d565b838111156120175750506000910152565b6000815180845261355e81602086016020860161351a565b601f01601f19169290920160200192915050565b6020815260006131fc6020830184613546565b60006020828403121561359757600080fd5b5035919050565b6001600160a01b03811681146127da57600080fd5b80356135be8161359e565b919050565b600080604083850312156135d657600080fd5b82356135e18161359e565b946020939093013593505050565b60008060006060848603121561360457600080fd5b833561360f8161359e565b9250602084013561361f8161359e565b929592945050506040919091013590565b6000806040838503121561364357600080fd5b82359150602083013567ffffffffffffffff81111561366157600080fd5b61366d85828601613477565b9150509250929050565b6000806040838503121561368a57600080fd5b82359150602083013561369c8161359e565b809150509250929050565b6000602082840312156136b957600080fd5b813567ffffffffffffffff8111156136d057600080fd5b61273084828501613477565b6000602082840312156136ee57600080fd5b81356131fc8161359e565b60008060008060008060008060006101208a8c03121561371857600080fd5b6137218a6135b3565b985060208a013567ffffffffffffffff8082111561373e57600080fd5b61374a8d838e01613477565b995060408c013591508082111561376057600080fd5b61376c8d838e01613477565b985060608c013591508082111561378257600080fd5b61378e8d838e01613477565b975060808c01359150808211156137a457600080fd5b6137b08d838e01613477565b965060a08c01359150808211156137c657600080fd5b6137d28d838e01613477565b955060c08c01359150808211156137e857600080fd5b6137f48d838e01613477565b945060e08c013591508082111561380a57600080fd5b6138168d838e01613477565b93506101008c013591508082111561382d57600080fd5b5061383a8c828d01613477565b9150509295985092959850929598565b600080600080600060a0868803121561386257600080fd5b85359450602086013567ffffffffffffffff8082111561388157600080fd5b61388d89838a01613477565b955060408801359150808211156138a357600080fd5b6138af89838a01613477565b945060608801359150808211156138c557600080fd5b6138d189838a01613477565b935060808801359150808211156138e757600080fd5b506138f488828901613477565b9150509295509295909350565b6000806040838503121561391457600080fd5b823561391f8161359e565b91506020830135801515811461369c57600080fd5b6000806000806080858703121561394a57600080fd5b84356139558161359e565b935060208501356139658161359e565b925060408501359150606085013567ffffffffffffffff81111561398857600080fd5b8501601f8101871361399957600080fd5b6139a887823560208401613401565b91505092959194509250565b600080604083850312156139c757600080fd5b82356139d28161359e565b9150602083013561369c8161359e565b6000602082840312156139f457600080fd5b81516131fc8161359e565b600181811c90821680613a1357607f821691505b60208210811415613a3457634e487b7160e01b600052602260045260246000fd5b50919050565b8054600090600181811c9080831680613a5457607f831692505b6020808410821415613a7657634e487b7160e01b600052602260045260246000fd5b818015613a8a5760018114613a9b57613ac8565b60ff19861689528489019650613ac8565b60008881526020902060005b86811015613ac05781548b820152908501908301613aa7565b505084890196505b50505050505092915050565b60008151613ae681856020860161351a565b9290920192915050565b6602aa82220aa22960cd1b81526000613b0c6007830187613a3a565b7f205345542076616c7565203d202700000000000000000000000000000000000081528551613b4281600e840160208a0161351a565b7f27205748455245206d61696e7461626c655f746f6b656e6964203d2000000000600e92909101918201528451613b8081602a84016020890161351a565b6f01020a722103a3930b4ba2fb4b2101e960851b602a92909101918201528351613bb181603a84016020880161351a565b603b60f81b603a9290910191820152603b019695505050505050565b6001600160a01b0384168152826020820152606060408201526000613bf56060830184613546565b95945050505050565b85815284602082015260a060408201526000613c1d60a0830186613546565b606083019490945250608001529392505050565b60008351613c4381846020880161351a565b7f756e777261703d7472756526657874726163743d66616c736526733d000000009083019081527f53454c4543542532302a25323046524f4d253230000000000000000000000000601c820152613bf56030820185613a3a565b6602aa82220aa22960cd1b81526000613cb96007830186613a3a565b7f2053455420696d616765203d202700000000000000000000000000000000000081528451613cef81600e84016020890161351a565b80820191505071013902ba422a922903a37b5b2b734b2101e960751b600e8201528351613d2381602084016020880161351a565b603b60f81b6020929091019182015260210195945050505050565b848152836020820152608060408201526000613d5d6080830185613546565b905082606083015295945050505050565b6602aa82220aa22960cd1b81526000613d8a6007830187613a3a565b7f205345542074726169745f74797065203d20270000000000000000000000000081528551613dc0816013840160208a0161351a565b7f27205748455245206d61696e7461626c655f746f6b656e6964203d2000000000601392909101918201528451613dfe81602f84016020890161351a565b6f01020a722103a3930b4ba2fb4b2101e960851b602f92909101918201528351613e2f81603f84016020880161351a565b603b60f81b603f92909101918201526040019695505050505050565b6602aa82220aa22960cd1b81526000613e676007830186613a3a565b7f2053455420616e696d6174696f6e5f75726c203d20270000000000000000000081528451613e9d81601684016020890161351a565b71013902ba422a922903a37b5b2b734b2101e960751b601692909101918201528351613ed081602884016020880161351a565b603b60f81b6028929091019182015260290195945050505050565b6602aa82220aa22960cd1b81526000613f076007830186613a3a565b7f20534554206465736372697074696f6e203d202700000000000000000000000081528451613f3d81601484016020890161351a565b71013902ba422a922903a37b5b2b734b2101e960751b601492909101918201528351613f7081602684016020880161351a565b603b60f81b6026929091019182015260270195945050505050565b6602aa82220aa22960cd1b81526000613fa76007830187613a3a565b7f205345542069636f6e203d20270000000000000000000000000000000000000081528551613fdd81600d840160208a0161351a565b7f27205748455245206d61696e7461626c655f746f6b656e6964203d2000000000600d9290910191820152845161401b81602984016020890161351a565b6f01020a722103a3930b4ba2fb4b2101e960851b60299290910191820152835161404c81603984016020880161351a565b603b60f81b60399290910191820152603a019695505050505050565b6602aa82220aa22960cd1b815260006140846007830186613a3a565b7f205345542065787465726e616c5f75726c203d20270000000000000000000000815284516140ba81601584016020890161351a565b71013902ba422a922903a37b5b2b734b2101e960751b6015929091019182015283516140ed81602784016020880161351a565b603b60f81b6027929091019182015260280195945050505050565b6602aa82220aa22960cd1b815260006141246007830186613a3a565b7f2053455420796f75747562655f75726c203d202700000000000000000000000081528451613f3d81601484016020890161351a565b6602aa82220aa22960cd1b815260006141766007830186613a3a565b7f20534554206e616d65203d202700000000000000000000000000000000000000815284516141ac81600d84016020890161351a565b71013902ba422a922903a37b5b2b734b2101e960751b600d929091019182015283516141df81601f84016020880161351a565b603b60f81b601f929091019182015260200195945050505050565b6b024a729a2a92a1024a72a27960a51b8152600061421b600c830189613a3a565b7f2028746f6b656e69642c206e616d652c206465736372697074696f6e2c20696d81527f6167652c2063617465676f7279292056414c554553202827000000000000000060208201528751614277816038840160208c0161351a565b80820191505063272c202760e01b806038830152875161429e81603c850160208c0161351a565b603c92019182015285516142b9816040840160208a0161351a565b016142cd6040820163272c202760e01b9052565b6142da6044820186613ad4565b63272c202760e01b815290506142f36004820185613ad4565b61272960f01b81526002019998505050505050505050565b6b024a729a2a92a1024a72a27960a51b8152600061432c600c830189613a3a565b7f20286d61696e7461626c655f746f6b656e69642c2074726169745f69642c206981527f636f6e2c20646973706c61795f747970652c2074726169745f747970652c207660208201527f616c7565292056414c5545532028270000000000000000000000000000000000604082015287516143ae81604f840160208c0161351a565b63272c202760e01b9101604f810191909152600360fc1b605382015263272c202760e01b60548201526143e46058820188613ad4565b63272c202760e01b815290506143fd6004820187613ad4565b63272c202760e01b815290506142da6004820186613ad4565b634e487b7160e01b600052601160045260246000fd5b6000821982111561443f5761443f614416565b500190565b6b024a729a2a92a1024a72a27960a51b81526000614465600c83018a613a3a565b7f20286d61696e7461626c655f746f6b656e69642c2074726169745f69642c206c81527f6f636b65642c2069636f6e2c20646973706c61795f747970652c20747261697460208201527f5f747970652c2076616c7565292056414c554553202827000000000000000000604082015288516144e7816057840160208d0161351a565b016144fb6057820163272c202760e01b9052565b614508605b820189613ad4565b63272c202760e01b81529050600360fc1b600482015263272c202760e01b60058201526145386009820188613ad4565b63272c202760e01b815290506145516004820187613ad4565b63272c202760e01b8152905061456a6004820186613ad4565b63272c202760e01b815290506145836004820185613ad4565b61272960f01b81526002019a9950505050505050505050565b6602aa82220aa22960cd1b815260006145b86007830187613a3a565b7f20534554206c6f636b6564203d20270000000000000000000000000000000000815285516145ee81600f840160208a0161351a565b7f27205748455245206d61696e7461626c655f746f6b656e6964203d2000000000600f9290910191820152845161462c81602b84016020890161351a565b6f01020a722103a3930b4ba2fb4b2101e960851b602b9290910191820152835161465d81603b84016020880161351a565b603b60f81b603b9290910191820152603c019695505050505050565b6602aa82220aa22960cd1b815260006146956007830186613a3a565b7f20534554206261636b67726f756e645f636f6c6f72203d202700000000000000815284516146cb81601984016020890161351a565b71013902ba422a922903a37b5b2b734b2101e960751b6019929091019182015283516146fe81602b84016020880161351a565b603b60f81b602b9290910191820152602c0195945050505050565b7f53454c4543542532306a736f6e5f6f626a65637425323825323769642532372581527f3243746f6b656e69642532432532376e616d652532372532436e616d6525324360208201527f2532376465736372697074696f6e2532372532436465736372697074696f6e2560408201527f3243253237696d616765253237253243696d616765253243253237636174656760608201527f6f727925323725324363617465676f727925324325323765787465726e616c5f60808201527f75726c25323725324365787465726e616c5f75726c2532432532376261636b6760a08201527f726f756e645f636f6c6f722532372532436261636b67726f756e645f636f6c6f60c08201527f72253243253237616e696d6174696f6e5f75726c253237253243616e696d617460e08201527f696f6e5f75726c253243253237796f75747562655f75726c253237253243796f6101008201527f75747562655f75726c253243253237617474726962757465732532372532436a6101208201527f736f6e5f67726f75705f61727261792532386a736f6e5f6f626a6563742532386101408201527f2532376c6f636b65642532372532436c6f636b656425324325323769636f6e256101608201527f323725324369636f6e253243253237646973706c61795f7479706525323725326101808201527f43646973706c61795f7479706525324325323774726169745f747970652532376101a08201527f25324374726169745f7479706525324325323776616c756525323725324376616101c08201527f6c756525323925323925323925323046524f4d253230000000000000000000006101e08201526000614a7f614a30614a2a614a016149fb6149d26149cc6149a36101f68a018e613a3a565b7f2532304a4f494e253230000000000000000000000000000000000000000000008152600a0190565b8b613a3a565b7f2532304f4e253230000000000000000000000000000000000000000000000000815260080190565b88613a3a565b7f253245746f6b656e696425323025334425323000000000000000000000000000815260130190565b85613a3a565b7f2532456d61696e7461626c655f746f6b656e696425323057484552452532307481527f6f6b656e69642533440000000000000000000000000000000000000000000000602082015260290190565b9695505050505050565b60008451614a9b81846020890161351a565b7f756e777261703d7472756526657874726163743d7472756526733d00000000009083019081528451614ad581601b84016020890161351a565b8451910190614aeb81601b84016020880161351a565b7f25323067726f75702532306279253230746f6b656e6964000000000000000000601b929091019182015260320195945050505050565b6602aa82220aa22960cd1b81526000614b3e6007830186613a3a565b7f205345542063617465676f7279203d202700000000000000000000000000000081528451614b7481601184016020890161351a565b71013902ba422a922903a37b5b2b734b2101e960751b601192909101918201528351614ba781602384016020880161351a565b603b60f81b6023929091019182015260240195945050505050565b6602aa82220aa22960cd1b81526000614bde6007830187613a3a565b7f2053455420646973706c61795f74797065203d2027000000000000000000000081528551614c14816015840160208a0161351a565b7f27205748455245206d61696e7461626c655f746f6b656e6964203d2000000000601592909101918201528451614c5281603184016020890161351a565b6f01020a722103a3930b4ba2fb4b2101e960851b603192909101918201528351614c8381604184016020880161351a565b603b60f81b604192909101918201526042019695505050505050565b6000600019821415614cb357614cb3614416565b5060010190565b634e487b7160e01b600052601260045260246000fd5b600082614cdf57614cdf614cba565b500490565b600082821015614cf657614cf6614416565b500390565b600082614d0a57614d0a614cba565b500690565b634e487b7160e01b600052603260045260246000fd5b7f416363657373436f6e74726f6c3a206163636f756e7420000000000000000000815260008351614d5d81601785016020880161351a565b7f206973206d697373696e6720726f6c65200000000000000000000000000000006017918401918201528351614d9a81602884016020880161351a565b01602801949350505050565b60006001600160a01b03808716835280861660208401525083604083015260806060830152614a7f6080830184613546565b600060208284031215614dea57600080fd5b81516131fc816134e7565b6000816000190483118215151615614e0f57614e0f614416565b500290565b600081614e2357614e23614416565b50600019019056fea2646970667358221220f7152beb0cd65a8ca9f8bc921848c934f5610b30fa0f32797510e263e4657c8a64736f6c634300080c003368747470733a2f2f746573746e65742e7461626c656c616e642e6e6574776f726b2f71756572793f","opcodes":"PUSH1 0xE0 PUSH1 0x40 MSTORE PUSH1 0x28 PUSH1 0x80 DUP2 DUP2 MSTORE SWAP1 PUSH3 0x58F3 PUSH1 0xA0 CODECOPY DUP1 MLOAD PUSH3 0x29 SWAP2 PUSH1 0x7 SWAP2 PUSH1 0x20 SWAP1 SWAP2 ADD SWAP1 PUSH3 0x525 JUMP JUMPDEST POP PUSH1 0x40 DUP1 MLOAD DUP1 DUP3 ADD SWAP1 SWAP2 MSTORE PUSH1 0xA DUP1 DUP3 MSTORE PUSH10 0x4D6F6A6F5F4D75736963 PUSH1 0xB0 SHL PUSH1 0x20 SWAP1 SWAP3 ADD SWAP2 DUP3 MSTORE PUSH3 0x5D SWAP2 PUSH1 0xE SWAP2 PUSH3 0x525 JUMP JUMPDEST POP CALLVALUE DUP1 ISZERO PUSH3 0x6B JUMPI PUSH1 0x0 DUP1 REVERT JUMPDEST POP PUSH1 0x40 MLOAD PUSH3 0x591B CODESIZE SUB DUP1 PUSH3 0x591B DUP4 CODECOPY DUP2 ADD PUSH1 0x40 DUP2 SWAP1 MSTORE PUSH3 0x8E SWAP2 PUSH3 0x5CB JUMP JUMPDEST PUSH1 0x40 DUP1 MLOAD DUP1 DUP3 ADD DUP3 MSTORE PUSH1 0xA DUP2 MSTORE PUSH10 0x4D6F6A6F204D75736963 PUSH1 0xB0 SHL PUSH1 0x20 DUP1 DUP4 ADD SWAP2 DUP3 MSTORE DUP4 MLOAD DUP1 DUP6 ADD SWAP1 SWAP5 MSTORE PUSH1 0x4 DUP5 MSTORE PUSH4 0x1B539195 PUSH1 0xE2 SHL SWAP1 DUP5 ADD MSTORE DUP2 MLOAD SWAP2 SWAP3 SWAP2 PUSH3 0xDC SWAP2 PUSH1 0x0 SWAP2 PUSH3 0x525 JUMP JUMPDEST POP DUP1 MLOAD PUSH3 0xF2 SWAP1 PUSH1 0x1 SWAP1 PUSH1 0x20 DUP5 ADD SWAP1 PUSH3 0x525 JUMP JUMPDEST POP PUSH3 0x104 SWAP2 POP PUSH1 0x0 SWAP1 POP CALLER PUSH3 0x363 JUMP JUMPDEST PUSH1 0x9 DUP1 SLOAD PUSH1 0x1 PUSH1 0x1 PUSH1 0xA0 SHL SUB NOT AND PUSH1 0x1 PUSH1 0x1 PUSH1 0xA0 SHL SUB DUP4 AND SWAP1 DUP2 OR SWAP1 SWAP2 SSTORE PUSH4 0x3A9151B0 ADDRESS PUSH1 0xE PUSH3 0x141 CHAINID PUSH3 0x408 PUSH1 0x20 SWAP1 DUP2 SHL PUSH3 0x2632 OR SWAP1 SHR JUMP JUMPDEST PUSH1 0x40 MLOAD PUSH1 0x20 ADD PUSH3 0x154 SWAP3 SWAP2 SWAP1 PUSH3 0x70F JUMP JUMPDEST PUSH1 0x40 MLOAD PUSH1 0x20 DUP2 DUP4 SUB SUB DUP2 MSTORE SWAP1 PUSH1 0x40 MSTORE PUSH1 0x40 MLOAD DUP4 PUSH4 0xFFFFFFFF AND PUSH1 0xE0 SHL DUP2 MSTORE PUSH1 0x4 ADD PUSH3 0x182 SWAP3 SWAP2 SWAP1 PUSH3 0x81D JUMP JUMPDEST PUSH1 0x20 PUSH1 0x40 MLOAD DUP1 DUP4 SUB DUP2 PUSH1 0x0 DUP8 GAS CALL ISZERO DUP1 ISZERO PUSH3 0x1A2 JUMPI RETURNDATASIZE PUSH1 0x0 DUP1 RETURNDATACOPY RETURNDATASIZE PUSH1 0x0 REVERT JUMPDEST POP POP POP POP PUSH1 0x40 MLOAD RETURNDATASIZE PUSH1 0x1F NOT PUSH1 0x1F DUP3 ADD AND DUP3 ADD DUP1 PUSH1 0x40 MSTORE POP DUP2 ADD SWAP1 PUSH3 0x1C8 SWAP2 SWAP1 PUSH3 0x861 JUMP JUMPDEST PUSH1 0xA DUP2 SWAP1 SSTORE POP PUSH1 0xE PUSH3 0x1E6 CHAINID PUSH3 0x408 PUSH1 0x20 SHL PUSH3 0x2632 OR PUSH1 0x20 SHR JUMP JUMPDEST PUSH3 0x1FE PUSH1 0xA SLOAD PUSH3 0x408 PUSH1 0x20 SHL PUSH3 0x2632 OR PUSH1 0x20 SHR JUMP JUMPDEST PUSH1 0x40 MLOAD PUSH1 0x20 ADD PUSH3 0x212 SWAP4 SWAP3 SWAP2 SWAP1 PUSH3 0x87B JUMP JUMPDEST PUSH1 0x40 MLOAD PUSH1 0x20 DUP2 DUP4 SUB SUB DUP2 MSTORE SWAP1 PUSH1 0x40 MSTORE PUSH1 0xC SWAP1 DUP1 MLOAD SWAP1 PUSH1 0x20 ADD SWAP1 PUSH3 0x238 SWAP3 SWAP2 SWAP1 PUSH3 0x525 JUMP JUMPDEST POP PUSH1 0x9 SLOAD PUSH1 0x1 PUSH1 0x1 PUSH1 0xA0 SHL SUB AND PUSH4 0x3A9151B0 ADDRESS PUSH1 0xE PUSH3 0x264 CHAINID PUSH3 0x408 PUSH1 0x20 SWAP1 DUP2 SHL PUSH3 0x2632 OR SWAP1 SHR JUMP JUMPDEST PUSH1 0x40 MLOAD PUSH1 0x20 ADD PUSH3 0x277 SWAP3 SWAP2 SWAP1 PUSH3 0x8D0 JUMP JUMPDEST PUSH1 0x40 MLOAD PUSH1 0x20 DUP2 DUP4 SUB SUB DUP2 MSTORE SWAP1 PUSH1 0x40 MSTORE PUSH1 0x40 MLOAD DUP4 PUSH4 0xFFFFFFFF AND PUSH1 0xE0 SHL DUP2 MSTORE PUSH1 0x4 ADD PUSH3 0x2A5 SWAP3 SWAP2 SWAP1 PUSH3 0x81D JUMP JUMPDEST PUSH1 0x20 PUSH1 0x40 MLOAD DUP1 DUP4 SUB DUP2 PUSH1 0x0 DUP8 GAS CALL ISZERO DUP1 ISZERO PUSH3 0x2C5 JUMPI RETURNDATASIZE PUSH1 0x0 DUP1 RETURNDATACOPY RETURNDATASIZE PUSH1 0x0 REVERT JUMPDEST POP POP POP POP PUSH1 0x40 MLOAD RETURNDATASIZE PUSH1 0x1F NOT PUSH1 0x1F DUP3 ADD AND DUP3 ADD DUP1 PUSH1 0x40 MSTORE POP DUP2 ADD SWAP1 PUSH3 0x2EB SWAP2 SWAP1 PUSH3 0x861 JUMP JUMPDEST PUSH1 0xB DUP2 SWAP1 SSTORE POP PUSH1 0xE PUSH3 0x309 CHAINID PUSH3 0x408 PUSH1 0x20 SHL PUSH3 0x2632 OR PUSH1 0x20 SHR JUMP JUMPDEST PUSH3 0x321 PUSH1 0xB SLOAD PUSH3 0x408 PUSH1 0x20 SHL PUSH3 0x2632 OR PUSH1 0x20 SHR JUMP JUMPDEST PUSH1 0x40 MLOAD PUSH1 0x20 ADD PUSH3 0x335 SWAP4 SWAP3 SWAP2 SWAP1 PUSH3 0x87B JUMP JUMPDEST PUSH1 0x40 MLOAD PUSH1 0x20 DUP2 DUP4 SUB SUB DUP2 MSTORE SWAP1 PUSH1 0x40 MSTORE PUSH1 0xD SWAP1 DUP1 MLOAD SWAP1 PUSH1 0x20 ADD SWAP1 PUSH3 0x35B SWAP3 SWAP2 SWAP1 PUSH3 0x525 JUMP JUMPDEST POP POP PUSH3 0xA82 JUMP JUMPDEST PUSH1 0x0 DUP3 DUP2 MSTORE PUSH1 0x6 PUSH1 0x20 SWAP1 DUP2 MSTORE PUSH1 0x40 DUP1 DUP4 KECCAK256 PUSH1 0x1 PUSH1 0x1 PUSH1 0xA0 SHL SUB DUP6 AND DUP5 MSTORE SWAP1 SWAP2 MSTORE SWAP1 KECCAK256 SLOAD PUSH1 0xFF AND PUSH3 0x404 JUMPI PUSH1 0x0 DUP3 DUP2 MSTORE PUSH1 0x6 PUSH1 0x20 SWAP1 DUP2 MSTORE PUSH1 0x40 DUP1 DUP4 KECCAK256 PUSH1 0x1 PUSH1 0x1 PUSH1 0xA0 SHL SUB DUP6 AND DUP5 MSTORE SWAP1 SWAP2 MSTORE SWAP1 KECCAK256 DUP1 SLOAD PUSH1 0xFF NOT AND PUSH1 0x1 OR SWAP1 SSTORE PUSH3 0x3C3 CALLER SWAP1 JUMP JUMPDEST PUSH1 0x1 PUSH1 0x1 PUSH1 0xA0 SHL SUB AND DUP2 PUSH1 0x1 PUSH1 0x1 PUSH1 0xA0 SHL SUB AND DUP4 PUSH32 0x2F8788117E7EFF1D82E926EC794901D17C78024A50270940304540A733656F0D PUSH1 0x40 MLOAD PUSH1 0x40 MLOAD DUP1 SWAP2 SUB SWAP1 LOG4 JUMPDEST POP POP JUMP JUMPDEST PUSH1 0x60 DUP2 PUSH3 0x42D JUMPI POP POP PUSH1 0x40 DUP1 MLOAD DUP1 DUP3 ADD SWAP1 SWAP2 MSTORE PUSH1 0x1 DUP2 MSTORE PUSH1 0x3 PUSH1 0xFC SHL PUSH1 0x20 DUP3 ADD MSTORE SWAP1 JUMP JUMPDEST DUP2 PUSH1 0x0 JUMPDEST DUP2 ISZERO PUSH3 0x45D JUMPI DUP1 PUSH3 0x444 DUP2 PUSH3 0x9BF JUMP JUMPDEST SWAP2 POP PUSH3 0x455 SWAP1 POP PUSH1 0xA DUP4 PUSH3 0x9F3 JUMP JUMPDEST SWAP2 POP PUSH3 0x431 JUMP JUMPDEST PUSH1 0x0 DUP2 PUSH1 0x1 PUSH1 0x1 PUSH1 0x40 SHL SUB DUP2 GT ISZERO PUSH3 0x47A JUMPI PUSH3 0x47A PUSH3 0xA0A JUMP JUMPDEST PUSH1 0x40 MLOAD SWAP1 DUP1 DUP3 MSTORE DUP1 PUSH1 0x1F ADD PUSH1 0x1F NOT AND PUSH1 0x20 ADD DUP3 ADD PUSH1 0x40 MSTORE DUP1 ISZERO PUSH3 0x4A5 JUMPI PUSH1 0x20 DUP3 ADD DUP2 DUP1 CALLDATASIZE DUP4 CALLDATACOPY ADD SWAP1 POP JUMPDEST POP SWAP1 POP JUMPDEST DUP5 ISZERO PUSH3 0x51D JUMPI PUSH3 0x4BD PUSH1 0x1 DUP4 PUSH3 0xA20 JUMP JUMPDEST SWAP2 POP PUSH3 0x4CC PUSH1 0xA DUP7 PUSH3 0xA3A JUMP JUMPDEST PUSH3 0x4D9 SWAP1 PUSH1 0x30 PUSH3 0xA51 JUMP JUMPDEST PUSH1 0xF8 SHL DUP2 DUP4 DUP2 MLOAD DUP2 LT PUSH3 0x4F1 JUMPI PUSH3 0x4F1 PUSH3 0xA6C JUMP JUMPDEST PUSH1 0x20 ADD ADD SWAP1 PUSH1 0x1 PUSH1 0x1 PUSH1 0xF8 SHL SUB NOT AND SWAP1 DUP2 PUSH1 0x0 BYTE SWAP1 MSTORE8 POP PUSH3 0x515 PUSH1 0xA DUP7 PUSH3 0x9F3 JUMP JUMPDEST SWAP5 POP PUSH3 0x4A9 JUMP JUMPDEST SWAP5 SWAP4 POP POP POP POP JUMP JUMPDEST DUP3 DUP1 SLOAD PUSH3 0x533 SWAP1 PUSH3 0x5FD JUMP JUMPDEST SWAP1 PUSH1 0x0 MSTORE PUSH1 0x20 PUSH1 0x0 KECCAK256 SWAP1 PUSH1 0x1F ADD PUSH1 0x20 SWAP1 DIV DUP2 ADD SWAP3 DUP3 PUSH3 0x557 JUMPI PUSH1 0x0 DUP6 SSTORE PUSH3 0x5A2 JUMP JUMPDEST DUP3 PUSH1 0x1F LT PUSH3 0x572 JUMPI DUP1 MLOAD PUSH1 0xFF NOT AND DUP4 DUP1 ADD OR DUP6 SSTORE PUSH3 0x5A2 JUMP JUMPDEST DUP3 DUP1 ADD PUSH1 0x1 ADD DUP6 SSTORE DUP3 ISZERO PUSH3 0x5A2 JUMPI SWAP2 DUP3 ADD JUMPDEST DUP3 DUP2 GT ISZERO PUSH3 0x5A2 JUMPI DUP3 MLOAD DUP3 SSTORE SWAP2 PUSH1 0x20 ADD SWAP2 SWAP1 PUSH1 0x1 ADD SWAP1 PUSH3 0x585 JUMP JUMPDEST POP PUSH3 0x5B0 SWAP3 SWAP2 POP PUSH3 0x5B4 JUMP JUMPDEST POP SWAP1 JUMP JUMPDEST JUMPDEST DUP1 DUP3 GT ISZERO PUSH3 0x5B0 JUMPI PUSH1 0x0 DUP2 SSTORE PUSH1 0x1 ADD PUSH3 0x5B5 JUMP JUMPDEST PUSH1 0x0 PUSH1 0x20 DUP3 DUP5 SUB SLT ISZERO PUSH3 0x5DE JUMPI PUSH1 0x0 DUP1 REVERT JUMPDEST DUP2 MLOAD PUSH1 0x1 PUSH1 0x1 PUSH1 0xA0 SHL SUB DUP2 AND DUP2 EQ PUSH3 0x5F6 JUMPI PUSH1 0x0 DUP1 REVERT JUMPDEST SWAP4 SWAP3 POP POP POP JUMP JUMPDEST PUSH1 0x1 DUP2 DUP2 SHR SWAP1 DUP3 AND DUP1 PUSH3 0x612 JUMPI PUSH1 0x7F DUP3 AND SWAP2 POP JUMPDEST PUSH1 0x20 DUP3 LT DUP2 EQ ISZERO PUSH3 0x634 JUMPI PUSH4 0x4E487B71 PUSH1 0xE0 SHL PUSH1 0x0 MSTORE PUSH1 0x22 PUSH1 0x4 MSTORE PUSH1 0x24 PUSH1 0x0 REVERT JUMPDEST POP SWAP2 SWAP1 POP JUMP JUMPDEST DUP1 SLOAD PUSH1 0x0 SWAP1 PUSH1 0x1 DUP2 DUP2 SHR SWAP1 DUP1 DUP4 AND DUP1 PUSH3 0x655 JUMPI PUSH1 0x7F DUP4 AND SWAP3 POP JUMPDEST PUSH1 0x20 DUP1 DUP5 LT DUP3 EQ ISZERO PUSH3 0x678 JUMPI PUSH4 0x4E487B71 PUSH1 0xE0 SHL PUSH1 0x0 MSTORE PUSH1 0x22 PUSH1 0x4 MSTORE PUSH1 0x24 PUSH1 0x0 REVERT JUMPDEST DUP2 DUP1 ISZERO PUSH3 0x68F JUMPI PUSH1 0x1 DUP2 EQ PUSH3 0x6A1 JUMPI PUSH3 0x6D0 JUMP JUMPDEST PUSH1 0xFF NOT DUP7 AND DUP10 MSTORE DUP5 DUP10 ADD SWAP7 POP PUSH3 0x6D0 JUMP JUMPDEST PUSH1 0x0 DUP9 DUP2 MSTORE PUSH1 0x20 SWAP1 KECCAK256 PUSH1 0x0 JUMPDEST DUP7 DUP2 LT ISZERO PUSH3 0x6C8 JUMPI DUP2 SLOAD DUP12 DUP3 ADD MSTORE SWAP1 DUP6 ADD SWAP1 DUP4 ADD PUSH3 0x6AD JUMP JUMPDEST POP POP DUP5 DUP10 ADD SWAP7 POP JUMPDEST POP POP POP POP POP POP SWAP3 SWAP2 POP POP JUMP JUMPDEST PUSH1 0x0 JUMPDEST DUP4 DUP2 LT ISZERO PUSH3 0x6F9 JUMPI DUP2 DUP2 ADD MLOAD DUP4 DUP3 ADD MSTORE PUSH1 0x20 ADD PUSH3 0x6DF JUMP JUMPDEST DUP4 DUP2 GT ISZERO PUSH3 0x709 JUMPI PUSH1 0x0 DUP5 DUP5 ADD MSTORE JUMPDEST POP POP POP POP JUMP JUMPDEST PUSH13 0x21A922A0AA22902A20A126229 PUSH1 0x9D SHL DUP2 MSTORE PUSH1 0x0 PUSH3 0x733 PUSH1 0xD DUP4 ADD DUP6 PUSH3 0x63A JUMP JUMPDEST PUSH1 0x5F PUSH1 0xF8 SHL DUP2 MSTORE DUP4 MLOAD PUSH3 0x74F DUP2 PUSH1 0x1 DUP5 ADD PUSH1 0x20 DUP9 ADD PUSH3 0x6DC JUMP JUMPDEST PUSH32 0x2028746F6B656E696420696E742C206E616D6520746578742C20646573637269 PUSH1 0x1 SWAP3 SWAP1 SWAP2 ADD SWAP2 DUP3 ADD MSTORE PUSH32 0x7074696F6E20746578742C20696D61676520746578742C2063617465676F7279 PUSH1 0x21 DUP3 ADD MSTORE PUSH32 0x20746578742C2065787465726E616C5F75726C20746578742C206261636B6772 PUSH1 0x41 DUP3 ADD MSTORE PUSH32 0x6F756E645F636F6C6F7220746578742C20616E696D6174696F6E5F75726C2074 PUSH1 0x61 DUP3 ADD MSTORE PUSH32 0x6578742C20796F75747562655F75726C2074657874293B000000000000000000 PUSH1 0x81 DUP3 ADD MSTORE PUSH1 0x98 ADD SWAP5 SWAP4 POP POP POP POP JUMP JUMPDEST PUSH1 0x1 DUP1 PUSH1 0xA0 SHL SUB DUP4 AND DUP2 MSTORE PUSH1 0x40 PUSH1 0x20 DUP3 ADD MSTORE PUSH1 0x0 DUP3 MLOAD DUP1 PUSH1 0x40 DUP5 ADD MSTORE PUSH3 0x84C DUP2 PUSH1 0x60 DUP6 ADD PUSH1 0x20 DUP8 ADD PUSH3 0x6DC JUMP JUMPDEST PUSH1 0x1F ADD PUSH1 0x1F NOT AND SWAP2 SWAP1 SWAP2 ADD PUSH1 0x60 ADD SWAP4 SWAP3 POP POP POP JUMP JUMPDEST PUSH1 0x0 PUSH1 0x20 DUP3 DUP5 SUB SLT ISZERO PUSH3 0x874 JUMPI PUSH1 0x0 DUP1 REVERT JUMPDEST POP MLOAD SWAP2 SWAP1 POP JUMP JUMPDEST PUSH1 0x0 PUSH3 0x889 DUP3 DUP7 PUSH3 0x63A JUMP JUMPDEST PUSH1 0x5F PUSH1 0xF8 SHL DUP1 DUP3 MSTORE DUP6 MLOAD PUSH3 0x8A6 DUP2 PUSH1 0x1 DUP6 ADD PUSH1 0x20 DUP11 ADD PUSH3 0x6DC JUMP JUMPDEST PUSH1 0x1 SWAP3 ADD SWAP2 DUP3 ADD MSTORE DUP4 MLOAD PUSH3 0x8C3 DUP2 PUSH1 0x2 DUP5 ADD PUSH1 0x20 DUP9 ADD PUSH3 0x6DC JUMP JUMPDEST ADD PUSH1 0x2 ADD SWAP6 SWAP5 POP POP POP POP POP JUMP JUMPDEST PUSH13 0x21A922A0AA22902A20A126229 PUSH1 0x9D SHL DUP2 MSTORE PUSH1 0x0 PUSH3 0x8F4 PUSH1 0xD DUP4 ADD DUP6 PUSH3 0x63A JUMP JUMPDEST PUSH1 0x5F PUSH1 0xF8 SHL DUP2 MSTORE DUP4 MLOAD PUSH3 0x910 DUP2 PUSH1 0x1 DUP5 ADD PUSH1 0x20 DUP9 ADD PUSH3 0x6DC JUMP JUMPDEST PUSH32 0x20286D61696E7461626C655F746F6B656E696420696E742C2074726169745F69 PUSH1 0x1 SWAP3 SWAP1 SWAP2 ADD SWAP2 DUP3 ADD MSTORE PUSH32 0x6420696E742C206C6F636B656420696E742C2069636F6E20746578742C206469 PUSH1 0x21 DUP3 ADD MSTORE PUSH32 0x73706C61795F7479706520746578742C2074726169745F747970652074657874 PUSH1 0x41 DUP3 ADD MSTORE PUSH14 0x2C2076616C75652074657874293B PUSH1 0x90 SHL PUSH1 0x61 DUP3 ADD MSTORE PUSH1 0x6F ADD SWAP5 SWAP4 POP POP POP POP JUMP JUMPDEST PUSH4 0x4E487B71 PUSH1 0xE0 SHL PUSH1 0x0 MSTORE PUSH1 0x11 PUSH1 0x4 MSTORE PUSH1 0x24 PUSH1 0x0 REVERT JUMPDEST PUSH1 0x0 PUSH1 0x0 NOT DUP3 EQ ISZERO PUSH3 0x9D6 JUMPI PUSH3 0x9D6 PUSH3 0x9A9 JUMP JUMPDEST POP PUSH1 0x1 ADD SWAP1 JUMP JUMPDEST PUSH4 0x4E487B71 PUSH1 0xE0 SHL PUSH1 0x0 MSTORE PUSH1 0x12 PUSH1 0x4 MSTORE PUSH1 0x24 PUSH1 0x0 REVERT JUMPDEST PUSH1 0x0 DUP3 PUSH3 0xA05 JUMPI PUSH3 0xA05 PUSH3 0x9DD JUMP JUMPDEST POP DIV SWAP1 JUMP JUMPDEST PUSH4 0x4E487B71 PUSH1 0xE0 SHL PUSH1 0x0 MSTORE PUSH1 0x41 PUSH1 0x4 MSTORE PUSH1 0x24 PUSH1 0x0 REVERT JUMPDEST PUSH1 0x0 DUP3 DUP3 LT ISZERO PUSH3 0xA35 JUMPI PUSH3 0xA35 PUSH3 0x9A9 JUMP JUMPDEST POP SUB SWAP1 JUMP JUMPDEST PUSH1 0x0 DUP3 PUSH3 0xA4C JUMPI PUSH3 0xA4C PUSH3 0x9DD JUMP JUMPDEST POP MOD SWAP1 JUMP JUMPDEST PUSH1 0x0 DUP3 NOT DUP3 GT ISZERO PUSH3 0xA67 JUMPI PUSH3 0xA67 PUSH3 0x9A9 JUMP JUMPDEST POP ADD SWAP1 JUMP JUMPDEST PUSH4 0x4E487B71 PUSH1 0xE0 SHL PUSH1 0x0 MSTORE PUSH1 0x32 PUSH1 0x4 MSTORE PUSH1 0x24 PUSH1 0x0 REVERT JUMPDEST PUSH2 0x4E61 DUP1 PUSH3 0xA92 PUSH1 0x0 CODECOPY PUSH1 0x0 RETURN INVALID PUSH1 0x80 PUSH1 0x40 MSTORE CALLVALUE DUP1 ISZERO PUSH2 0x10 JUMPI PUSH1 0x0 DUP1 REVERT JUMPDEST POP PUSH1 0x4 CALLDATASIZE LT PUSH2 0x2AD JUMPI PUSH1 0x0 CALLDATALOAD PUSH1 0xE0 SHR DUP1 PUSH4 0x6352211E GT PUSH2 0x17B JUMPI DUP1 PUSH4 0xA22CB465 GT PUSH2 0xD8 JUMPI DUP1 PUSH4 0xC87B56DD GT PUSH2 0x8C JUMPI DUP1 PUSH4 0xD547741F GT PUSH2 0x71 JUMPI DUP1 PUSH4 0xD547741F EQ PUSH2 0x591 JUMPI DUP1 PUSH4 0xE985E9C5 EQ PUSH2 0x5A4 JUMPI DUP1 PUSH4 0xF15DAA02 EQ PUSH2 0x5E0 JUMPI PUSH1 0x0 DUP1 REVERT JUMPDEST DUP1 PUSH4 0xC87B56DD EQ PUSH2 0x56B JUMPI DUP1 PUSH4 0xCABFB7C2 EQ PUSH2 0x57E JUMPI PUSH1 0x0 DUP1 REVERT JUMPDEST DUP1 PUSH4 0xA8E62F09 GT PUSH2 0xBD JUMPI DUP1 PUSH4 0xA8E62F09 EQ PUSH2 0x53D JUMPI DUP1 PUSH4 0xB88D4FDE EQ PUSH2 0x545 JUMPI DUP1 PUSH4 0xC874311E EQ PUSH2 0x558 JUMPI PUSH1 0x0 DUP1 REVERT JUMPDEST DUP1 PUSH4 0xA22CB465 EQ PUSH2 0x517 JUMPI DUP1 PUSH4 0xA4C75223 EQ PUSH2 0x52A JUMPI PUSH1 0x0 DUP1 REVERT JUMPDEST DUP1 PUSH4 0x8586B42F GT PUSH2 0x12F JUMPI DUP1 PUSH4 0x95D89B41 GT PUSH2 0x114 JUMPI DUP1 PUSH4 0x95D89B41 EQ PUSH2 0x4F4 JUMPI DUP1 PUSH4 0xA1CED596 EQ PUSH2 0x4FC JUMPI DUP1 PUSH4 0xA217FDDF EQ PUSH2 0x50F JUMPI PUSH1 0x0 DUP1 REVERT JUMPDEST DUP1 PUSH4 0x8586B42F EQ PUSH2 0x4A8 JUMPI DUP1 PUSH4 0x91D14854 EQ PUSH2 0x4BB JUMPI PUSH1 0x0 DUP1 REVERT JUMPDEST DUP1 PUSH4 0x6A283CE2 GT PUSH2 0x160 JUMPI DUP1 PUSH4 0x6A283CE2 EQ PUSH2 0x47A JUMPI DUP1 PUSH4 0x70A08231 EQ PUSH2 0x48D JUMPI DUP1 PUSH4 0x7BC53BE9 EQ PUSH2 0x4A0 JUMPI PUSH1 0x0 DUP1 REVERT JUMPDEST DUP1 PUSH4 0x6352211E EQ PUSH2 0x454 JUMPI DUP1 PUSH4 0x697C2A02 EQ PUSH2 0x467 JUMPI PUSH1 0x0 DUP1 REVERT JUMPDEST DUP1 PUSH4 0x2F2FF15D GT PUSH2 0x229 JUMPI DUP1 PUSH4 0x55F804B3 GT PUSH2 0x1DD JUMPI DUP1 PUSH4 0x606A9612 GT PUSH2 0x1C2 JUMPI DUP1 PUSH4 0x606A9612 EQ PUSH2 0x41B JUMPI DUP1 PUSH4 0x60AF4275 EQ PUSH2 0x42E JUMPI DUP1 PUSH4 0x6301226F EQ PUSH2 0x441 JUMPI PUSH1 0x0 DUP1 REVERT JUMPDEST DUP1 PUSH4 0x55F804B3 EQ PUSH2 0x400 JUMPI DUP1 PUSH4 0x5D21260A EQ PUSH2 0x413 JUMPI PUSH1 0x0 DUP1 REVERT JUMPDEST DUP1 PUSH4 0x36568ABE GT PUSH2 0x20E JUMPI DUP1 PUSH4 0x36568ABE EQ PUSH2 0x3C7 JUMPI DUP1 PUSH4 0x41F6660A EQ PUSH2 0x3DA JUMPI DUP1 PUSH4 0x42842E0E EQ PUSH2 0x3ED JUMPI PUSH1 0x0 DUP1 REVERT JUMPDEST DUP1 PUSH4 0x2F2FF15D EQ PUSH2 0x3A1 JUMPI DUP1 PUSH4 0x313E91CB EQ PUSH2 0x3B4 JUMPI PUSH1 0x0 DUP1 REVERT JUMPDEST DUP1 PUSH4 0x91A77E7 GT PUSH2 0x280 JUMPI DUP1 PUSH4 0x23B872DD GT PUSH2 0x265 JUMPI DUP1 PUSH4 0x23B872DD EQ PUSH2 0x34A JUMPI DUP1 PUSH4 0x248A9CA3 EQ PUSH2 0x35D JUMPI DUP1 PUSH4 0x2D30C0FC EQ PUSH2 0x38E JUMPI PUSH1 0x0 DUP1 REVERT JUMPDEST DUP1 PUSH4 0x91A77E7 EQ PUSH2 0x32F JUMPI DUP1 PUSH4 0x95EA7B3 EQ PUSH2 0x337 JUMPI PUSH1 0x0 DUP1 REVERT JUMPDEST DUP1 PUSH4 0x1637608 EQ PUSH2 0x2B2 JUMPI DUP1 PUSH4 0x1FFC9A7 EQ PUSH2 0x2C7 JUMPI DUP1 PUSH4 0x6FDDE03 EQ PUSH2 0x2EF JUMPI DUP1 PUSH4 0x81812FC EQ PUSH2 0x304 JUMPI JUMPDEST PUSH1 0x0 DUP1 REVERT JUMPDEST PUSH2 0x2C5 PUSH2 0x2C0 CALLDATASIZE PUSH1 0x4 PUSH2 0x3497 JUMP JUMPDEST PUSH2 0x5F3 JUMP JUMPDEST STOP JUMPDEST PUSH2 0x2DA PUSH2 0x2D5 CALLDATASIZE PUSH1 0x4 PUSH2 0x34FD JUMP JUMPDEST PUSH2 0x7E9 JUMP JUMPDEST PUSH1 0x40 MLOAD SWAP1 ISZERO ISZERO DUP2 MSTORE PUSH1 0x20 ADD JUMPDEST PUSH1 0x40 MLOAD DUP1 SWAP2 SUB SWAP1 RETURN JUMPDEST PUSH2 0x2F7 PUSH2 0x7FA JUMP JUMPDEST PUSH1 0x40 MLOAD PUSH2 0x2E6 SWAP2 SWAP1 PUSH2 0x3572 JUMP JUMPDEST PUSH2 0x317 PUSH2 0x312 CALLDATASIZE PUSH1 0x4 PUSH2 0x3585 JUMP JUMPDEST PUSH2 0x88C JUMP JUMPDEST PUSH1 0x40 MLOAD PUSH1 0x1 PUSH1 0x1 PUSH1 0xA0 SHL SUB SWAP1 SWAP2 AND DUP2 MSTORE PUSH1 0x20 ADD PUSH2 0x2E6 JUMP JUMPDEST PUSH2 0x2F7 PUSH2 0x8B3 JUMP JUMPDEST PUSH2 0x2C5 PUSH2 0x345 CALLDATASIZE PUSH1 0x4 PUSH2 0x35C3 JUMP JUMPDEST PUSH2 0x8EA JUMP JUMPDEST PUSH2 0x2C5 PUSH2 0x358 CALLDATASIZE PUSH1 0x4 PUSH2 0x35EF JUMP JUMPDEST PUSH2 0xA1C JUMP JUMPDEST PUSH2 0x380 PUSH2 0x36B CALLDATASIZE PUSH1 0x4 PUSH2 0x3585 JUMP JUMPDEST PUSH1 0x0 SWAP1 DUP2 MSTORE PUSH1 0x6 PUSH1 0x20 MSTORE PUSH1 0x40 SWAP1 KECCAK256 PUSH1 0x1 ADD SLOAD SWAP1 JUMP JUMPDEST PUSH1 0x40 MLOAD SWAP1 DUP2 MSTORE PUSH1 0x20 ADD PUSH2 0x2E6 JUMP JUMPDEST PUSH2 0x2C5 PUSH2 0x39C CALLDATASIZE PUSH1 0x4 PUSH2 0x3630 JUMP JUMPDEST PUSH2 0xAA3 JUMP JUMPDEST PUSH2 0x2C5 PUSH2 0x3AF CALLDATASIZE PUSH1 0x4 PUSH2 0x3677 JUMP JUMPDEST PUSH2 0xC27 JUMP JUMPDEST PUSH2 0x2C5 PUSH2 0x3C2 CALLDATASIZE PUSH1 0x4 PUSH2 0x3497 JUMP JUMPDEST PUSH2 0xC4C JUMP JUMPDEST PUSH2 0x2C5 PUSH2 0x3D5 CALLDATASIZE PUSH1 0x4 PUSH2 0x3677 JUMP JUMPDEST PUSH2 0xE30 JUMP JUMPDEST PUSH2 0x2C5 PUSH2 0x3E8 CALLDATASIZE PUSH1 0x4 PUSH2 0x3630 JUMP JUMPDEST PUSH2 0xEBC JUMP JUMPDEST PUSH2 0x2C5 PUSH2 0x3FB CALLDATASIZE PUSH1 0x4 PUSH2 0x35EF JUMP JUMPDEST PUSH2 0x1034 JUMP JUMPDEST PUSH2 0x2C5 PUSH2 0x40E CALLDATASIZE PUSH1 0x4 PUSH2 0x36A7 JUMP JUMPDEST PUSH2 0x104F JUMP JUMPDEST PUSH2 0x2F7 PUSH2 0x106D JUMP JUMPDEST PUSH2 0x2C5 PUSH2 0x429 CALLDATASIZE PUSH1 0x4 PUSH2 0x3630 JUMP JUMPDEST PUSH2 0x10FB JUMP JUMPDEST PUSH2 0x2C5 PUSH2 0x43C CALLDATASIZE PUSH1 0x4 PUSH2 0x3497 JUMP JUMPDEST PUSH2 0x1273 JUMP JUMPDEST PUSH2 0x2C5 PUSH2 0x44F CALLDATASIZE PUSH1 0x4 PUSH2 0x3630 JUMP JUMPDEST PUSH2 0x1457 JUMP JUMPDEST PUSH2 0x317 PUSH2 0x462 CALLDATASIZE PUSH1 0x4 PUSH2 0x3585 JUMP JUMPDEST PUSH2 0x15CF JUMP JUMPDEST PUSH2 0x2C5 PUSH2 0x475 CALLDATASIZE PUSH1 0x4 PUSH2 0x3630 JUMP JUMPDEST PUSH2 0x1634 JUMP JUMPDEST PUSH2 0x2C5 PUSH2 0x488 CALLDATASIZE PUSH1 0x4 PUSH2 0x3630 JUMP JUMPDEST PUSH2 0x17AC JUMP JUMPDEST PUSH2 0x380 PUSH2 0x49B CALLDATASIZE PUSH1 0x4 PUSH2 0x36DC JUMP JUMPDEST PUSH2 0x1924 JUMP JUMPDEST PUSH2 0x2F7 PUSH2 0x19BE JUMP JUMPDEST PUSH2 0x380 PUSH2 0x4B6 CALLDATASIZE PUSH1 0x4 PUSH2 0x36F9 JUMP JUMPDEST PUSH2 0x19CB JUMP JUMPDEST PUSH2 0x2DA PUSH2 0x4C9 CALLDATASIZE PUSH1 0x4 PUSH2 0x3677 JUMP JUMPDEST PUSH1 0x0 SWAP2 DUP3 MSTORE PUSH1 0x6 PUSH1 0x20 SWAP1 DUP2 MSTORE PUSH1 0x40 DUP1 DUP5 KECCAK256 PUSH1 0x1 PUSH1 0x1 PUSH1 0xA0 SHL SUB SWAP4 SWAP1 SWAP4 AND DUP5 MSTORE SWAP2 SWAP1 MSTORE SWAP1 KECCAK256 SLOAD PUSH1 0xFF AND SWAP1 JUMP JUMPDEST PUSH2 0x2F7 PUSH2 0x1B85 JUMP JUMPDEST PUSH2 0x380 PUSH2 0x50A CALLDATASIZE PUSH1 0x4 PUSH2 0x384A JUMP JUMPDEST PUSH2 0x1B94 JUMP JUMPDEST PUSH2 0x380 PUSH1 0x0 DUP2 JUMP JUMPDEST PUSH2 0x2C5 PUSH2 0x525 CALLDATASIZE PUSH1 0x4 PUSH2 0x3901 JUMP JUMPDEST PUSH2 0x1D7E JUMP JUMPDEST PUSH2 0x2C5 PUSH2 0x538 CALLDATASIZE PUSH1 0x4 PUSH2 0x3497 JUMP JUMPDEST PUSH2 0x1D89 JUMP JUMPDEST PUSH2 0x2F7 PUSH2 0x1F6D JUMP JUMPDEST PUSH2 0x2C5 PUSH2 0x553 CALLDATASIZE PUSH1 0x4 PUSH2 0x3934 JUMP JUMPDEST PUSH2 0x1F8F JUMP JUMPDEST PUSH2 0x2C5 PUSH2 0x566 CALLDATASIZE PUSH1 0x4 PUSH2 0x3630 JUMP JUMPDEST PUSH2 0x201D JUMP JUMPDEST PUSH2 0x2F7 PUSH2 0x579 CALLDATASIZE PUSH1 0x4 PUSH2 0x3585 JUMP JUMPDEST PUSH2 0x2195 JUMP JUMPDEST PUSH2 0x2C5 PUSH2 0x58C CALLDATASIZE PUSH1 0x4 PUSH2 0x3630 JUMP JUMPDEST PUSH2 0x22B1 JUMP JUMPDEST PUSH2 0x2C5 PUSH2 0x59F CALLDATASIZE PUSH1 0x4 PUSH2 0x3677 JUMP JUMPDEST PUSH2 0x2429 JUMP JUMPDEST PUSH2 0x2DA PUSH2 0x5B2 CALLDATASIZE PUSH1 0x4 PUSH2 0x39B4 JUMP JUMPDEST PUSH1 0x1 PUSH1 0x1 PUSH1 0xA0 SHL SUB SWAP2 DUP3 AND PUSH1 0x0 SWAP1 DUP2 MSTORE PUSH1 0x5 PUSH1 0x20 SWAP1 DUP2 MSTORE PUSH1 0x40 DUP1 DUP4 KECCAK256 SWAP4 SWAP1 SWAP5 AND DUP3 MSTORE SWAP2 SWAP1 SWAP2 MSTORE KECCAK256 SLOAD PUSH1 0xFF AND SWAP1 JUMP JUMPDEST PUSH2 0x2C5 PUSH2 0x5EE CALLDATASIZE PUSH1 0x4 PUSH2 0x3497 JUMP JUMPDEST PUSH2 0x244E JUMP JUMPDEST PUSH1 0x40 MLOAD PUSH4 0x31A9108F PUSH1 0xE1 SHL DUP2 MSTORE PUSH1 0x4 DUP2 ADD DUP5 SWAP1 MSTORE CALLER SWAP1 ADDRESS SWAP1 PUSH4 0x6352211E SWAP1 PUSH1 0x24 ADD PUSH1 0x20 PUSH1 0x40 MLOAD DUP1 DUP4 SUB DUP2 DUP7 GAS STATICCALL ISZERO DUP1 ISZERO PUSH2 0x631 JUMPI RETURNDATASIZE PUSH1 0x0 DUP1 RETURNDATACOPY RETURNDATASIZE PUSH1 0x0 REVERT JUMPDEST POP POP POP POP PUSH1 0x40 MLOAD RETURNDATASIZE PUSH1 0x1F NOT PUSH1 0x1F DUP3 ADD AND DUP3 ADD DUP1 PUSH1 0x40 MSTORE POP DUP2 ADD SWAP1 PUSH2 0x655 SWAP2 SWAP1 PUSH2 0x39E2 JUMP JUMPDEST PUSH1 0x1 PUSH1 0x1 PUSH1 0xA0 SHL SUB AND EQ PUSH2 0x6A0 JUMPI PUSH1 0x40 MLOAD PUSH3 0x461BCD PUSH1 0xE5 SHL DUP2 MSTORE PUSH1 0x20 PUSH1 0x4 DUP3 ADD MSTORE PUSH1 0xD PUSH1 0x24 DUP3 ADD MSTORE PUSH13 0x24B73B30B634B21037BBB732B9 PUSH1 0x99 SHL PUSH1 0x44 DUP3 ADD MSTORE PUSH1 0x64 ADD JUMPDEST PUSH1 0x40 MLOAD DUP1 SWAP2 SUB SWAP1 REVERT JUMPDEST PUSH1 0x0 DUP4 DUP2 MSTORE PUSH1 0xF PUSH1 0x20 MSTORE PUSH1 0x40 SWAP1 KECCAK256 SLOAD DUP3 GT DUP1 ISZERO SWAP1 PUSH2 0x6BE JUMPI POP PUSH1 0x0 DUP3 GT JUMPDEST PUSH2 0x700 JUMPI PUSH1 0x40 MLOAD PUSH3 0x461BCD PUSH1 0xE5 SHL DUP2 MSTORE PUSH1 0x20 PUSH1 0x4 DUP3 ADD MSTORE PUSH1 0x13 PUSH1 0x24 DUP3 ADD MSTORE PUSH19 0x3A3930B4BA2FB4B2103737BA103337BAB7321 PUSH1 0x6D SHL PUSH1 0x44 DUP3 ADD MSTORE PUSH1 0x64 ADD PUSH2 0x697 JUMP JUMPDEST PUSH1 0x9 SLOAD PUSH1 0xB SLOAD PUSH1 0x1 PUSH1 0x1 PUSH1 0xA0 SHL SUB SWAP1 SWAP2 AND SWAP1 PUSH4 0xEAF5D04E SWAP1 ADDRESS SWAP1 PUSH1 0xD DUP6 PUSH2 0x726 DUP10 PUSH2 0x2632 JUMP JUMPDEST PUSH2 0x72F DUP10 PUSH2 0x2632 JUMP JUMPDEST PUSH1 0x40 MLOAD PUSH1 0x20 ADD PUSH2 0x742 SWAP5 SWAP4 SWAP3 SWAP2 SWAP1 PUSH2 0x3AF0 JUMP JUMPDEST PUSH1 0x40 MLOAD PUSH1 0x20 DUP2 DUP4 SUB SUB DUP2 MSTORE SWAP1 PUSH1 0x40 MSTORE PUSH1 0x40 MLOAD DUP5 PUSH4 0xFFFFFFFF AND PUSH1 0xE0 SHL DUP2 MSTORE PUSH1 0x4 ADD PUSH2 0x76F SWAP4 SWAP3 SWAP2 SWAP1 PUSH2 0x3BCD JUMP JUMPDEST PUSH1 0x0 PUSH1 0x40 MLOAD DUP1 DUP4 SUB DUP2 PUSH1 0x0 DUP8 DUP1 EXTCODESIZE ISZERO DUP1 ISZERO PUSH2 0x789 JUMPI PUSH1 0x0 DUP1 REVERT JUMPDEST POP GAS CALL ISZERO DUP1 ISZERO PUSH2 0x79D JUMPI RETURNDATASIZE PUSH1 0x0 DUP1 RETURNDATACOPY RETURNDATASIZE PUSH1 0x0 REVERT JUMPDEST POP POP PUSH1 0xB SLOAD PUSH1 0x40 MLOAD CALLER SWAP4 POP PUSH32 0xBC3FDC5C3D813C4A99D9005E48663BAA4F6A682AFD7BB19427443C53942909C5 SWAP3 POP PUSH2 0x7DC SWAP2 TIMESTAMP SWAP2 DUP7 SWAP1 DUP10 SWAP1 DUP10 SWAP1 PUSH2 0x3BFE JUMP JUMPDEST PUSH1 0x40 MLOAD DUP1 SWAP2 SUB SWAP1 LOG2 POP POP POP JUMP JUMPDEST PUSH1 0x0 PUSH2 0x7F4 DUP3 PUSH2 0x2738 JUMP JUMPDEST SWAP3 SWAP2 POP POP JUMP JUMPDEST PUSH1 0x60 PUSH1 0x0 DUP1 SLOAD PUSH2 0x809 SWAP1 PUSH2 0x39FF JUMP JUMPDEST DUP1 PUSH1 0x1F ADD PUSH1 0x20 DUP1 SWAP2 DIV MUL PUSH1 0x20 ADD PUSH1 0x40 MLOAD SWAP1 DUP2 ADD PUSH1 0x40 MSTORE DUP1 SWAP3 SWAP2 SWAP1 DUP2 DUP2 MSTORE PUSH1 0x20 ADD DUP3 DUP1 SLOAD PUSH2 0x835 SWAP1 PUSH2 0x39FF JUMP JUMPDEST DUP1 ISZERO PUSH2 0x882 JUMPI DUP1 PUSH1 0x1F LT PUSH2 0x857 JUMPI PUSH2 0x100 DUP1 DUP4 SLOAD DIV MUL DUP4 MSTORE SWAP2 PUSH1 0x20 ADD SWAP2 PUSH2 0x882 JUMP JUMPDEST DUP3 ADD SWAP2 SWAP1 PUSH1 0x0 MSTORE PUSH1 0x20 PUSH1 0x0 KECCAK256 SWAP1 JUMPDEST DUP2 SLOAD DUP2 MSTORE SWAP1 PUSH1 0x1 ADD SWAP1 PUSH1 0x20 ADD DUP1 DUP4 GT PUSH2 0x865 JUMPI DUP3 SWAP1 SUB PUSH1 0x1F AND DUP3 ADD SWAP2 JUMPDEST POP POP POP POP POP SWAP1 POP SWAP1 JUMP JUMPDEST PUSH1 0x0 PUSH2 0x897 DUP3 PUSH2 0x2776 JUMP JUMPDEST POP PUSH1 0x0 SWAP1 DUP2 MSTORE PUSH1 0x4 PUSH1 0x20 MSTORE PUSH1 0x40 SWAP1 KECCAK256 SLOAD PUSH1 0x1 PUSH1 0x1 PUSH1 0xA0 SHL SUB AND SWAP1 JUMP JUMPDEST PUSH1 0x60 PUSH1 0x0 PUSH2 0x8BF PUSH2 0x27DD JUMP JUMPDEST SWAP1 POP DUP1 PUSH1 0xD PUSH1 0x40 MLOAD PUSH1 0x20 ADD PUSH2 0x8D5 SWAP3 SWAP2 SWAP1 PUSH2 0x3C31 JUMP JUMPDEST PUSH1 0x40 MLOAD PUSH1 0x20 DUP2 DUP4 SUB SUB DUP2 MSTORE SWAP1 PUSH1 0x40 MSTORE SWAP2 POP POP SWAP1 JUMP JUMPDEST PUSH1 0x0 PUSH2 0x8F5 DUP3 PUSH2 0x15CF JUMP JUMPDEST SWAP1 POP DUP1 PUSH1 0x1 PUSH1 0x1 PUSH1 0xA0 SHL SUB AND DUP4 PUSH1 0x1 PUSH1 0x1 PUSH1 0xA0 SHL SUB AND EQ ISZERO PUSH2 0x97F JUMPI PUSH1 0x40 MLOAD PUSH3 0x461BCD PUSH1 0xE5 SHL DUP2 MSTORE PUSH1 0x20 PUSH1 0x4 DUP3 ADD MSTORE PUSH1 0x21 PUSH1 0x24 DUP3 ADD MSTORE PUSH32 0x4552433732313A20617070726F76616C20746F2063757272656E74206F776E65 PUSH1 0x44 DUP3 ADD MSTORE PUSH32 0x7200000000000000000000000000000000000000000000000000000000000000 PUSH1 0x64 DUP3 ADD MSTORE PUSH1 0x84 ADD PUSH2 0x697 JUMP JUMPDEST CALLER PUSH1 0x1 PUSH1 0x1 PUSH1 0xA0 SHL SUB DUP3 AND EQ DUP1 PUSH2 0x99B JUMPI POP PUSH2 0x99B DUP2 CALLER PUSH2 0x5B2 JUMP JUMPDEST PUSH2 0xA0D JUMPI PUSH1 0x40 MLOAD PUSH3 0x461BCD PUSH1 0xE5 SHL DUP2 MSTORE PUSH1 0x20 PUSH1 0x4 DUP3 ADD MSTORE PUSH1 0x3E PUSH1 0x24 DUP3 ADD MSTORE PUSH32 0x4552433732313A20617070726F76652063616C6C6572206973206E6F7420746F PUSH1 0x44 DUP3 ADD MSTORE PUSH32 0x6B656E206F776E6572206E6F7220617070726F76656420666F7220616C6C0000 PUSH1 0x64 DUP3 ADD MSTORE PUSH1 0x84 ADD PUSH2 0x697 JUMP JUMPDEST PUSH2 0xA17 DUP4 DUP4 PUSH2 0x27EC JUMP JUMPDEST POP POP POP JUMP JUMPDEST PUSH2 0xA26 CALLER DUP3 PUSH2 0x2867 JUMP JUMPDEST PUSH2 0xA98 JUMPI PUSH1 0x40 MLOAD PUSH3 0x461BCD PUSH1 0xE5 SHL DUP2 MSTORE PUSH1 0x20 PUSH1 0x4 DUP3 ADD MSTORE PUSH1 0x2E PUSH1 0x24 DUP3 ADD MSTORE PUSH32 0x4552433732313A2063616C6C6572206973206E6F7420746F6B656E206F776E65 PUSH1 0x44 DUP3 ADD MSTORE PUSH32 0x72206E6F7220617070726F766564000000000000000000000000000000000000 PUSH1 0x64 DUP3 ADD MSTORE PUSH1 0x84 ADD PUSH2 0x697 JUMP JUMPDEST PUSH2 0xA17 DUP4 DUP4 DUP4 PUSH2 0x28E5 JUMP JUMPDEST PUSH1 0x40 MLOAD PUSH4 0x31A9108F PUSH1 0xE1 SHL DUP2 MSTORE PUSH1 0x4 DUP2 ADD DUP4 SWAP1 MSTORE CALLER SWAP1 ADDRESS SWAP1 PUSH4 0x6352211E SWAP1 PUSH1 0x24 ADD PUSH1 0x20 PUSH1 0x40 MLOAD DUP1 DUP4 SUB DUP2 DUP7 GAS STATICCALL ISZERO DUP1 ISZERO PUSH2 0xAE1 JUMPI RETURNDATASIZE PUSH1 0x0 DUP1 RETURNDATACOPY RETURNDATASIZE PUSH1 0x0 REVERT JUMPDEST POP POP POP POP PUSH1 0x40 MLOAD RETURNDATASIZE PUSH1 0x1F NOT PUSH1 0x1F DUP3 ADD AND DUP3 ADD DUP1 PUSH1 0x40 MSTORE POP DUP2 ADD SWAP1 PUSH2 0xB05 SWAP2 SWAP1 PUSH2 0x39E2 JUMP JUMPDEST PUSH1 0x1 PUSH1 0x1 PUSH1 0xA0 SHL SUB AND EQ PUSH2 0xB4B JUMPI PUSH1 0x40 MLOAD PUSH3 0x461BCD PUSH1 0xE5 SHL DUP2 MSTORE PUSH1 0x20 PUSH1 0x4 DUP3 ADD MSTORE PUSH1 0xD PUSH1 0x24 DUP3 ADD MSTORE PUSH13 0x24B73B30B634B21037BBB732B9 PUSH1 0x99 SHL PUSH1 0x44 DUP3 ADD MSTORE PUSH1 0x64 ADD PUSH2 0x697 JUMP JUMPDEST PUSH1 0x9 SLOAD PUSH1 0xA SLOAD PUSH1 0x1 PUSH1 0x1 PUSH1 0xA0 SHL SUB SWAP1 SWAP2 AND SWAP1 PUSH4 0xEAF5D04E SWAP1 ADDRESS SWAP1 PUSH1 0xC DUP6 PUSH2 0xB71 DUP9 PUSH2 0x2632 JUMP JUMPDEST PUSH1 0x40 MLOAD PUSH1 0x20 ADD PUSH2 0xB83 SWAP4 SWAP3 SWAP2 SWAP1 PUSH2 0x3C9D JUMP JUMPDEST PUSH1 0x40 MLOAD PUSH1 0x20 DUP2 DUP4 SUB SUB DUP2 MSTORE SWAP1 PUSH1 0x40 MSTORE PUSH1 0x40 MLOAD DUP5 PUSH4 0xFFFFFFFF AND PUSH1 0xE0 SHL DUP2 MSTORE PUSH1 0x4 ADD PUSH2 0xBB0 SWAP4 SWAP3 SWAP2 SWAP1 PUSH2 0x3BCD JUMP JUMPDEST PUSH1 0x0 PUSH1 0x40 MLOAD DUP1 DUP4 SUB DUP2 PUSH1 0x0 DUP8 DUP1 EXTCODESIZE ISZERO DUP1 ISZERO PUSH2 0xBCA JUMPI PUSH1 0x0 DUP1 REVERT JUMPDEST POP GAS CALL ISZERO DUP1 ISZERO PUSH2 0xBDE JUMPI RETURNDATASIZE PUSH1 0x0 DUP1 RETURNDATACOPY RETURNDATASIZE PUSH1 0x0 REVERT JUMPDEST POP POP PUSH1 0xA SLOAD PUSH1 0x40 MLOAD CALLER SWAP4 POP PUSH32 0x718061D6F6B3BD0556E7CAAAF9CF765F425B72543AB78084CD28716CB17C9D55 SWAP3 POP PUSH2 0xC1B SWAP2 TIMESTAMP SWAP2 DUP7 SWAP1 DUP9 SWAP1 PUSH2 0x3D3E JUMP JUMPDEST PUSH1 0x40 MLOAD DUP1 SWAP2 SUB SWAP1 LOG2 POP POP JUMP JUMPDEST PUSH1 0x0 DUP3 DUP2 MSTORE PUSH1 0x6 PUSH1 0x20 MSTORE PUSH1 0x40 SWAP1 KECCAK256 PUSH1 0x1 ADD SLOAD PUSH2 0xC42 DUP2 PUSH2 0x2ABF JUMP JUMPDEST PUSH2 0xA17 DUP4 DUP4 PUSH2 0x2AC9 JUMP JUMPDEST PUSH1 0x40 MLOAD PUSH4 0x31A9108F PUSH1 0xE1 SHL DUP2 MSTORE PUSH1 0x4 DUP2 ADD DUP5 SWAP1 MSTORE CALLER SWAP1 ADDRESS SWAP1 PUSH4 0x6352211E SWAP1 PUSH1 0x24 ADD PUSH1 0x20 PUSH1 0x40 MLOAD DUP1 DUP4 SUB DUP2 DUP7 GAS STATICCALL ISZERO DUP1 ISZERO PUSH2 0xC8A JUMPI RETURNDATASIZE PUSH1 0x0 DUP1 RETURNDATACOPY RETURNDATASIZE PUSH1 0x0 REVERT JUMPDEST POP POP POP POP PUSH1 0x40 MLOAD RETURNDATASIZE PUSH1 0x1F NOT PUSH1 0x1F DUP3 ADD AND DUP3 ADD DUP1 PUSH1 0x40 MSTORE POP DUP2 ADD SWAP1 PUSH2 0xCAE SWAP2 SWAP1 PUSH2 0x39E2 JUMP JUMPDEST PUSH1 0x1 PUSH1 0x1 PUSH1 0xA0 SHL SUB AND EQ PUSH2 0xCF4 JUMPI PUSH1 0x40 MLOAD PUSH3 0x461BCD PUSH1 0xE5 SHL DUP2 MSTORE PUSH1 0x20 PUSH1 0x4 DUP3 ADD MSTORE PUSH1 0xD PUSH1 0x24 DUP3 ADD MSTORE PUSH13 0x24B73B30B634B21037BBB732B9 PUSH1 0x99 SHL PUSH1 0x44 DUP3 ADD MSTORE PUSH1 0x64 ADD PUSH2 0x697 JUMP JUMPDEST PUSH1 0x0 DUP4 DUP2 MSTORE PUSH1 0xF PUSH1 0x20 MSTORE PUSH1 0x40 SWAP1 KECCAK256 SLOAD DUP3 GT DUP1 ISZERO SWAP1 PUSH2 0xD12 JUMPI POP PUSH1 0x0 DUP3 GT JUMPDEST PUSH2 0xD54 JUMPI PUSH1 0x40 MLOAD PUSH3 0x461BCD PUSH1 0xE5 SHL DUP2 MSTORE PUSH1 0x20 PUSH1 0x4 DUP3 ADD MSTORE PUSH1 0x13 PUSH1 0x24 DUP3 ADD MSTORE PUSH19 0x3A3930B4BA2FB4B2103737BA103337BAB7321 PUSH1 0x6D SHL PUSH1 0x44 DUP3 ADD MSTORE PUSH1 0x64 ADD PUSH2 0x697 JUMP JUMPDEST PUSH1 0x9 SLOAD PUSH1 0xB SLOAD PUSH1 0x1 PUSH1 0x1 PUSH1 0xA0 SHL SUB SWAP1 SWAP2 AND SWAP1 PUSH4 0xEAF5D04E SWAP1 ADDRESS SWAP1 PUSH1 0xD DUP6 PUSH2 0xD7A DUP10 PUSH2 0x2632 JUMP JUMPDEST PUSH2 0xD83 DUP10 PUSH2 0x2632 JUMP JUMPDEST PUSH1 0x40 MLOAD PUSH1 0x20 ADD PUSH2 0xD96 SWAP5 SWAP4 SWAP3 SWAP2 SWAP1 PUSH2 0x3D6E JUMP JUMPDEST PUSH1 0x40 MLOAD PUSH1 0x20 DUP2 DUP4 SUB SUB DUP2 MSTORE SWAP1 PUSH1 0x40 MSTORE PUSH1 0x40 MLOAD DUP5 PUSH4 0xFFFFFFFF AND PUSH1 0xE0 SHL DUP2 MSTORE PUSH1 0x4 ADD PUSH2 0xDC3 SWAP4 SWAP3 SWAP2 SWAP1 PUSH2 0x3BCD JUMP JUMPDEST PUSH1 0x0 PUSH1 0x40 MLOAD DUP1 DUP4 SUB DUP2 PUSH1 0x0 DUP8 DUP1 EXTCODESIZE ISZERO DUP1 ISZERO PUSH2 0xDDD JUMPI PUSH1 0x0 DUP1 REVERT JUMPDEST POP GAS CALL ISZERO DUP1 ISZERO PUSH2 0xDF1 JUMPI RETURNDATASIZE PUSH1 0x0 DUP1 RETURNDATACOPY RETURNDATASIZE PUSH1 0x0 REVERT JUMPDEST POP POP PUSH1 0xB SLOAD PUSH1 0x40 MLOAD CALLER SWAP4 POP PUSH32 0xEC0F0D67678A9D5A686AB06FA92FADB72E148B9EBDEAD00EB6601B6A1FD07C8F SWAP3 POP PUSH2 0x7DC SWAP2 TIMESTAMP SWAP2 DUP7 SWAP1 DUP10 SWAP1 DUP10 SWAP1 PUSH2 0x3BFE JUMP JUMPDEST PUSH1 0x1 PUSH1 0x1 PUSH1 0xA0 SHL SUB DUP2 AND CALLER EQ PUSH2 0xEAE JUMPI PUSH1 0x40 MLOAD PUSH3 0x461BCD PUSH1 0xE5 SHL DUP2 MSTORE PUSH1 0x20 PUSH1 0x4 DUP3 ADD MSTORE PUSH1 0x2F PUSH1 0x24 DUP3 ADD MSTORE PUSH32 0x416363657373436F6E74726F6C3A2063616E206F6E6C792072656E6F756E6365 PUSH1 0x44 DUP3 ADD MSTORE PUSH32 0x20726F6C657320666F722073656C660000000000000000000000000000000000 PUSH1 0x64 DUP3 ADD MSTORE PUSH1 0x84 ADD PUSH2 0x697 JUMP JUMPDEST PUSH2 0xEB8 DUP3 DUP3 PUSH2 0x2B6B JUMP JUMPDEST POP POP JUMP JUMPDEST PUSH1 0x40 MLOAD PUSH4 0x31A9108F PUSH1 0xE1 SHL DUP2 MSTORE PUSH1 0x4 DUP2 ADD DUP4 SWAP1 MSTORE CALLER SWAP1 ADDRESS SWAP1 PUSH4 0x6352211E SWAP1 PUSH1 0x24 ADD PUSH1 0x20 PUSH1 0x40 MLOAD DUP1 DUP4 SUB DUP2 DUP7 GAS STATICCALL ISZERO DUP1 ISZERO PUSH2 0xEFA JUMPI RETURNDATASIZE PUSH1 0x0 DUP1 RETURNDATACOPY RETURNDATASIZE PUSH1 0x0 REVERT JUMPDEST POP POP POP POP PUSH1 0x40 MLOAD RETURNDATASIZE PUSH1 0x1F NOT PUSH1 0x1F DUP3 ADD AND DUP3 ADD DUP1 PUSH1 0x40 MSTORE POP DUP2 ADD SWAP1 PUSH2 0xF1E SWAP2 SWAP1 PUSH2 0x39E2 JUMP JUMPDEST PUSH1 0x1 PUSH1 0x1 PUSH1 0xA0 SHL SUB AND EQ PUSH2 0xF64 JUMPI PUSH1 0x40 MLOAD PUSH3 0x461BCD PUSH1 0xE5 SHL DUP2 MSTORE PUSH1 0x20 PUSH1 0x4 DUP3 ADD MSTORE PUSH1 0xD PUSH1 0x24 DUP3 ADD MSTORE PUSH13 0x24B73B30B634B21037BBB732B9 PUSH1 0x99 SHL PUSH1 0x44 DUP3 ADD MSTORE PUSH1 0x64 ADD PUSH2 0x697 JUMP JUMPDEST PUSH1 0x9 SLOAD PUSH1 0xA SLOAD PUSH1 0x1 PUSH1 0x1 PUSH1 0xA0 SHL SUB SWAP1 SWAP2 AND SWAP1 PUSH4 0xEAF5D04E SWAP1 ADDRESS SWAP1 PUSH1 0xC DUP6 PUSH2 0xF8A DUP9 PUSH2 0x2632 JUMP JUMPDEST PUSH1 0x40 MLOAD PUSH1 0x20 ADD PUSH2 0xF9C SWAP4 SWAP3 SWAP2 SWAP1 PUSH2 0x3E4B JUMP JUMPDEST PUSH1 0x40 MLOAD PUSH1 0x20 DUP2 DUP4 SUB SUB DUP2 MSTORE SWAP1 PUSH1 0x40 MSTORE PUSH1 0x40 MLOAD DUP5 PUSH4 0xFFFFFFFF AND PUSH1 0xE0 SHL DUP2 MSTORE PUSH1 0x4 ADD PUSH2 0xFC9 SWAP4 SWAP3 SWAP2 SWAP1 PUSH2 0x3BCD JUMP JUMPDEST PUSH1 0x0 PUSH1 0x40 MLOAD DUP1 DUP4 SUB DUP2 PUSH1 0x0 DUP8 DUP1 EXTCODESIZE ISZERO DUP1 ISZERO PUSH2 0xFE3 JUMPI PUSH1 0x0 DUP1 REVERT JUMPDEST POP GAS CALL ISZERO DUP1 ISZERO PUSH2 0xFF7 JUMPI RETURNDATASIZE PUSH1 0x0 DUP1 RETURNDATACOPY RETURNDATASIZE PUSH1 0x0 REVERT JUMPDEST POP POP PUSH1 0xA SLOAD PUSH1 0x40 MLOAD CALLER SWAP4 POP PUSH32 0xBD016395F4FCFE0220623379A39F3E1CC6D4D5FB89A124DA4449C4DD4A50BC5A SWAP3 POP PUSH2 0xC1B SWAP2 TIMESTAMP SWAP2 DUP7 SWAP1 DUP9 SWAP1 PUSH2 0x3D3E JUMP JUMPDEST PUSH2 0xA17 DUP4 DUP4 DUP4 PUSH1 0x40 MLOAD DUP1 PUSH1 0x20 ADD PUSH1 0x40 MSTORE DUP1 PUSH1 0x0 DUP2 MSTORE POP PUSH2 0x1F8F JUMP JUMPDEST PUSH1 0x0 PUSH2 0x105A DUP2 PUSH2 0x2ABF JUMP JUMPDEST DUP2 MLOAD PUSH2 0xA17 SWAP1 PUSH1 0x7 SWAP1 PUSH1 0x20 DUP6 ADD SWAP1 PUSH2 0x3352 JUMP JUMPDEST PUSH1 0xC DUP1 SLOAD PUSH2 0x107A SWAP1 PUSH2 0x39FF JUMP JUMPDEST DUP1 PUSH1 0x1F ADD PUSH1 0x20 DUP1 SWAP2 DIV MUL PUSH1 0x20 ADD PUSH1 0x40 MLOAD SWAP1 DUP2 ADD PUSH1 0x40 MSTORE DUP1 SWAP3 SWAP2 SWAP1 DUP2 DUP2 MSTORE PUSH1 0x20 ADD DUP3 DUP1 SLOAD PUSH2 0x10A6 SWAP1 PUSH2 0x39FF JUMP JUMPDEST DUP1 ISZERO PUSH2 0x10F3 JUMPI DUP1 PUSH1 0x1F LT PUSH2 0x10C8 JUMPI PUSH2 0x100 DUP1 DUP4 SLOAD DIV MUL DUP4 MSTORE SWAP2 PUSH1 0x20 ADD SWAP2 PUSH2 0x10F3 JUMP JUMPDEST DUP3 ADD SWAP2 SWAP1 PUSH1 0x0 MSTORE PUSH1 0x20 PUSH1 0x0 KECCAK256 SWAP1 JUMPDEST DUP2 SLOAD DUP2 MSTORE SWAP1 PUSH1 0x1 ADD SWAP1 PUSH1 0x20 ADD DUP1 DUP4 GT PUSH2 0x10D6 JUMPI DUP3 SWAP1 SUB PUSH1 0x1F AND DUP3 ADD SWAP2 JUMPDEST POP POP POP POP POP DUP2 JUMP JUMPDEST PUSH1 0x40 MLOAD PUSH4 0x31A9108F PUSH1 0xE1 SHL DUP2 MSTORE PUSH1 0x4 DUP2 ADD DUP4 SWAP1 MSTORE CALLER SWAP1 ADDRESS SWAP1 PUSH4 0x6352211E SWAP1 PUSH1 0x24 ADD PUSH1 0x20 PUSH1 0x40 MLOAD DUP1 DUP4 SUB DUP2 DUP7 GAS STATICCALL ISZERO DUP1 ISZERO PUSH2 0x1139 JUMPI RETURNDATASIZE PUSH1 0x0 DUP1 RETURNDATACOPY RETURNDATASIZE PUSH1 0x0 REVERT JUMPDEST POP POP POP POP PUSH1 0x40 MLOAD RETURNDATASIZE PUSH1 0x1F NOT PUSH1 0x1F DUP3 ADD AND DUP3 ADD DUP1 PUSH1 0x40 MSTORE POP DUP2 ADD SWAP1 PUSH2 0x115D SWAP2 SWAP1 PUSH2 0x39E2 JUMP JUMPDEST PUSH1 0x1 PUSH1 0x1 PUSH1 0xA0 SHL SUB AND EQ PUSH2 0x11A3 JUMPI PUSH1 0x40 MLOAD PUSH3 0x461BCD PUSH1 0xE5 SHL DUP2 MSTORE PUSH1 0x20 PUSH1 0x4 DUP3 ADD MSTORE PUSH1 0xD PUSH1 0x24 DUP3 ADD MSTORE PUSH13 0x24B73B30B634B21037BBB732B9 PUSH1 0x99 SHL PUSH1 0x44 DUP3 ADD MSTORE PUSH1 0x64 ADD PUSH2 0x697 JUMP JUMPDEST PUSH1 0x9 SLOAD PUSH1 0xA SLOAD PUSH1 0x1 PUSH1 0x1 PUSH1 0xA0 SHL SUB SWAP1 SWAP2 AND SWAP1 PUSH4 0xEAF5D04E SWAP1 ADDRESS SWAP1 PUSH1 0xC DUP6 PUSH2 0x11C9 DUP9 PUSH2 0x2632 JUMP JUMPDEST PUSH1 0x40 MLOAD PUSH1 0x20 ADD PUSH2 0x11DB SWAP4 SWAP3 SWAP2 SWAP1 PUSH2 0x3EEB JUMP JUMPDEST PUSH1 0x40 MLOAD PUSH1 0x20 DUP2 DUP4 SUB SUB DUP2 MSTORE SWAP1 PUSH1 0x40 MSTORE PUSH1 0x40 MLOAD DUP5 PUSH4 0xFFFFFFFF AND PUSH1 0xE0 SHL DUP2 MSTORE PUSH1 0x4 ADD PUSH2 0x1208 SWAP4 SWAP3 SWAP2 SWAP1 PUSH2 0x3BCD JUMP JUMPDEST PUSH1 0x0 PUSH1 0x40 MLOAD DUP1 DUP4 SUB DUP2 PUSH1 0x0 DUP8 DUP1 EXTCODESIZE ISZERO DUP1 ISZERO PUSH2 0x1222 JUMPI PUSH1 0x0 DUP1 REVERT JUMPDEST POP GAS CALL ISZERO DUP1 ISZERO PUSH2 0x1236 JUMPI RETURNDATASIZE PUSH1 0x0 DUP1 RETURNDATACOPY RETURNDATASIZE PUSH1 0x0 REVERT JUMPDEST POP POP PUSH1 0xA SLOAD PUSH1 0x40 MLOAD CALLER SWAP4 POP PUSH32 0x34F39AB14BC214FC40236BD17290DEA7A5EBBCA4716D256A079AA1DB9EA901DD SWAP3 POP PUSH2 0xC1B SWAP2 TIMESTAMP SWAP2 DUP7 SWAP1 DUP9 SWAP1 PUSH2 0x3D3E JUMP JUMPDEST PUSH1 0x40 MLOAD PUSH4 0x31A9108F PUSH1 0xE1 SHL DUP2 MSTORE PUSH1 0x4 DUP2 ADD DUP5 SWAP1 MSTORE CALLER SWAP1 ADDRESS SWAP1 PUSH4 0x6352211E SWAP1 PUSH1 0x24 ADD PUSH1 0x20 PUSH1 0x40 MLOAD DUP1 DUP4 SUB DUP2 DUP7 GAS STATICCALL ISZERO DUP1 ISZERO PUSH2 0x12B1 JUMPI RETURNDATASIZE PUSH1 0x0 DUP1 RETURNDATACOPY RETURNDATASIZE PUSH1 0x0 REVERT JUMPDEST POP POP POP POP PUSH1 0x40 MLOAD RETURNDATASIZE PUSH1 0x1F NOT PUSH1 0x1F DUP3 ADD AND DUP3 ADD DUP1 PUSH1 0x40 MSTORE POP DUP2 ADD SWAP1 PUSH2 0x12D5 SWAP2 SWAP1 PUSH2 0x39E2 JUMP JUMPDEST PUSH1 0x1 PUSH1 0x1 PUSH1 0xA0 SHL SUB AND EQ PUSH2 0x131B JUMPI PUSH1 0x40 MLOAD PUSH3 0x461BCD PUSH1 0xE5 SHL DUP2 MSTORE PUSH1 0x20 PUSH1 0x4 DUP3 ADD MSTORE PUSH1 0xD PUSH1 0x24 DUP3 ADD MSTORE PUSH13 0x24B73B30B634B21037BBB732B9 PUSH1 0x99 SHL PUSH1 0x44 DUP3 ADD MSTORE PUSH1 0x64 ADD PUSH2 0x697 JUMP JUMPDEST PUSH1 0x0 DUP4 DUP2 MSTORE PUSH1 0xF PUSH1 0x20 MSTORE PUSH1 0x40 SWAP1 KECCAK256 SLOAD DUP3 GT DUP1 ISZERO SWAP1 PUSH2 0x1339 JUMPI POP PUSH1 0x0 DUP3 GT JUMPDEST PUSH2 0x137B JUMPI PUSH1 0x40 MLOAD PUSH3 0x461BCD PUSH1 0xE5 SHL DUP2 MSTORE PUSH1 0x20 PUSH1 0x4 DUP3 ADD MSTORE PUSH1 0x13 PUSH1 0x24 DUP3 ADD MSTORE PUSH19 0x3A3930B4BA2FB4B2103737BA103337BAB7321 PUSH1 0x6D SHL PUSH1 0x44 DUP3 ADD MSTORE PUSH1 0x64 ADD PUSH2 0x697 JUMP JUMPDEST PUSH1 0x9 SLOAD PUSH1 0xB SLOAD PUSH1 0x1 PUSH1 0x1 PUSH1 0xA0 SHL SUB SWAP1 SWAP2 AND SWAP1 PUSH4 0xEAF5D04E SWAP1 ADDRESS SWAP1 PUSH1 0xD DUP6 PUSH2 0x13A1 DUP10 PUSH2 0x2632 JUMP JUMPDEST PUSH2 0x13AA DUP10 PUSH2 0x2632 JUMP JUMPDEST PUSH1 0x40 MLOAD PUSH1 0x20 ADD PUSH2 0x13BD SWAP5 SWAP4 SWAP3 SWAP2 SWAP1 PUSH2 0x3F8B JUMP JUMPDEST PUSH1 0x40 MLOAD PUSH1 0x20 DUP2 DUP4 SUB SUB DUP2 MSTORE SWAP1 PUSH1 0x40 MSTORE PUSH1 0x40 MLOAD DUP5 PUSH4 0xFFFFFFFF AND PUSH1 0xE0 SHL DUP2 MSTORE PUSH1 0x4 ADD PUSH2 0x13EA SWAP4 SWAP3 SWAP2 SWAP1 PUSH2 0x3BCD JUMP JUMPDEST PUSH1 0x0 PUSH1 0x40 MLOAD DUP1 DUP4 SUB DUP2 PUSH1 0x0 DUP8 DUP1 EXTCODESIZE ISZERO DUP1 ISZERO PUSH2 0x1404 JUMPI PUSH1 0x0 DUP1 REVERT JUMPDEST POP GAS CALL ISZERO DUP1 ISZERO PUSH2 0x1418 JUMPI RETURNDATASIZE PUSH1 0x0 DUP1 RETURNDATACOPY RETURNDATASIZE PUSH1 0x0 REVERT JUMPDEST POP POP PUSH1 0xB SLOAD PUSH1 0x40 MLOAD CALLER SWAP4 POP PUSH32 0x280BB8C24C5B69393733B8CF1779EC264023540E75149B5024DE5EA55A41736E SWAP3 POP PUSH2 0x7DC SWAP2 TIMESTAMP SWAP2 DUP7 SWAP1 DUP10 SWAP1 DUP10 SWAP1 PUSH2 0x3BFE JUMP JUMPDEST PUSH1 0x40 MLOAD PUSH4 0x31A9108F PUSH1 0xE1 SHL DUP2 MSTORE PUSH1 0x4 DUP2 ADD DUP4 SWAP1 MSTORE CALLER SWAP1 ADDRESS SWAP1 PUSH4 0x6352211E SWAP1 PUSH1 0x24 ADD PUSH1 0x20 PUSH1 0x40 MLOAD DUP1 DUP4 SUB DUP2 DUP7 GAS STATICCALL ISZERO DUP1 ISZERO PUSH2 0x1495 JUMPI RETURNDATASIZE PUSH1 0x0 DUP1 RETURNDATACOPY RETURNDATASIZE PUSH1 0x0 REVERT JUMPDEST POP POP POP POP PUSH1 0x40 MLOAD RETURNDATASIZE PUSH1 0x1F NOT PUSH1 0x1F DUP3 ADD AND DUP3 ADD DUP1 PUSH1 0x40 MSTORE POP DUP2 ADD SWAP1 PUSH2 0x14B9 SWAP2 SWAP1 PUSH2 0x39E2 JUMP JUMPDEST PUSH1 0x1 PUSH1 0x1 PUSH1 0xA0 SHL SUB AND EQ PUSH2 0x14FF JUMPI PUSH1 0x40 MLOAD PUSH3 0x461BCD PUSH1 0xE5 SHL DUP2 MSTORE PUSH1 0x20 PUSH1 0x4 DUP3 ADD MSTORE PUSH1 0xD PUSH1 0x24 DUP3 ADD MSTORE PUSH13 0x24B73B30B634B21037BBB732B9 PUSH1 0x99 SHL PUSH1 0x44 DUP3 ADD MSTORE PUSH1 0x64 ADD PUSH2 0x697 JUMP JUMPDEST PUSH1 0x9 SLOAD PUSH1 0xA SLOAD PUSH1 0x1 PUSH1 0x1 PUSH1 0xA0 SHL SUB SWAP1 SWAP2 AND SWAP1 PUSH4 0xEAF5D04E SWAP1 ADDRESS SWAP1 PUSH1 0xC DUP6 PUSH2 0x1525 DUP9 PUSH2 0x2632 JUMP JUMPDEST PUSH1 0x40 MLOAD PUSH1 0x20 ADD PUSH2 0x1537 SWAP4 SWAP3 SWAP2 SWAP1 PUSH2 0x4068 JUMP JUMPDEST PUSH1 0x40 MLOAD PUSH1 0x20 DUP2 DUP4 SUB SUB DUP2 MSTORE SWAP1 PUSH1 0x40 MSTORE PUSH1 0x40 MLOAD DUP5 PUSH4 0xFFFFFFFF AND PUSH1 0xE0 SHL DUP2 MSTORE PUSH1 0x4 ADD PUSH2 0x1564 SWAP4 SWAP3 SWAP2 SWAP1 PUSH2 0x3BCD JUMP JUMPDEST PUSH1 0x0 PUSH1 0x40 MLOAD DUP1 DUP4 SUB DUP2 PUSH1 0x0 DUP8 DUP1 EXTCODESIZE ISZERO DUP1 ISZERO PUSH2 0x157E JUMPI PUSH1 0x0 DUP1 REVERT JUMPDEST POP GAS CALL ISZERO DUP1 ISZERO PUSH2 0x1592 JUMPI RETURNDATASIZE PUSH1 0x0 DUP1 RETURNDATACOPY RETURNDATASIZE PUSH1 0x0 REVERT JUMPDEST POP POP PUSH1 0xA SLOAD PUSH1 0x40 MLOAD CALLER SWAP4 POP PUSH32 0xB830B8C0BFE518A8200843DC80652EFAA1C0AE60D22D339D65107E4B64DD4D62 SWAP3 POP PUSH2 0xC1B SWAP2 TIMESTAMP SWAP2 DUP7 SWAP1 DUP9 SWAP1 PUSH2 0x3D3E JUMP JUMPDEST PUSH1 0x0 DUP2 DUP2 MSTORE PUSH1 0x2 PUSH1 0x20 MSTORE PUSH1 0x40 DUP2 KECCAK256 SLOAD PUSH1 0x1 PUSH1 0x1 PUSH1 0xA0 SHL SUB AND DUP1 PUSH2 0x7F4 JUMPI PUSH1 0x40 MLOAD PUSH3 0x461BCD PUSH1 0xE5 SHL DUP2 MSTORE PUSH1 0x20 PUSH1 0x4 DUP3 ADD MSTORE PUSH1 0x18 PUSH1 0x24 DUP3 ADD MSTORE PUSH32 0x4552433732313A20696E76616C696420746F6B656E2049440000000000000000 PUSH1 0x44 DUP3 ADD MSTORE PUSH1 0x64 ADD PUSH2 0x697 JUMP JUMPDEST PUSH1 0x40 MLOAD PUSH4 0x31A9108F PUSH1 0xE1 SHL DUP2 MSTORE PUSH1 0x4 DUP2 ADD DUP4 SWAP1 MSTORE CALLER SWAP1 ADDRESS SWAP1 PUSH4 0x6352211E SWAP1 PUSH1 0x24 ADD PUSH1 0x20 PUSH1 0x40 MLOAD DUP1 DUP4 SUB DUP2 DUP7 GAS STATICCALL ISZERO DUP1 ISZERO PUSH2 0x1672 JUMPI RETURNDATASIZE PUSH1 0x0 DUP1 RETURNDATACOPY RETURNDATASIZE PUSH1 0x0 REVERT JUMPDEST POP POP POP POP PUSH1 0x40 MLOAD RETURNDATASIZE PUSH1 0x1F NOT PUSH1 0x1F DUP3 ADD AND DUP3 ADD DUP1 PUSH1 0x40 MSTORE POP DUP2 ADD SWAP1 PUSH2 0x1696 SWAP2 SWAP1 PUSH2 0x39E2 JUMP JUMPDEST PUSH1 0x1 PUSH1 0x1 PUSH1 0xA0 SHL SUB AND EQ PUSH2 0x16DC JUMPI PUSH1 0x40 MLOAD PUSH3 0x461BCD PUSH1 0xE5 SHL DUP2 MSTORE PUSH1 0x20 PUSH1 0x4 DUP3 ADD MSTORE PUSH1 0xD PUSH1 0x24 DUP3 ADD MSTORE PUSH13 0x24B73B30B634B21037BBB732B9 PUSH1 0x99 SHL PUSH1 0x44 DUP3 ADD MSTORE PUSH1 0x64 ADD PUSH2 0x697 JUMP JUMPDEST PUSH1 0x9 SLOAD PUSH1 0xA SLOAD PUSH1 0x1 PUSH1 0x1 PUSH1 0xA0 SHL SUB SWAP1 SWAP2 AND SWAP1 PUSH4 0xEAF5D04E SWAP1 ADDRESS SWAP1 PUSH1 0xC DUP6 PUSH2 0x1702 DUP9 PUSH2 0x2632 JUMP JUMPDEST PUSH1 0x40 MLOAD PUSH1 0x20 ADD PUSH2 0x1714 SWAP4 SWAP3 SWAP2 SWAP1 PUSH2 0x4108 JUMP JUMPDEST PUSH1 0x40 MLOAD PUSH1 0x20 DUP2 DUP4 SUB SUB DUP2 MSTORE SWAP1 PUSH1 0x40 MSTORE PUSH1 0x40 MLOAD DUP5 PUSH4 0xFFFFFFFF AND PUSH1 0xE0 SHL DUP2 MSTORE PUSH1 0x4 ADD PUSH2 0x1741 SWAP4 SWAP3 SWAP2 SWAP1 PUSH2 0x3BCD JUMP JUMPDEST PUSH1 0x0 PUSH1 0x40 MLOAD DUP1 DUP4 SUB DUP2 PUSH1 0x0 DUP8 DUP1 EXTCODESIZE ISZERO DUP1 ISZERO PUSH2 0x175B JUMPI PUSH1 0x0 DUP1 REVERT JUMPDEST POP GAS CALL ISZERO DUP1 ISZERO PUSH2 0x176F JUMPI RETURNDATASIZE PUSH1 0x0 DUP1 RETURNDATACOPY RETURNDATASIZE PUSH1 0x0 REVERT JUMPDEST POP POP PUSH1 0xA SLOAD PUSH1 0x40 MLOAD CALLER SWAP4 POP PUSH32 0xE1C454AEF576927AF164EC321FD3B9230EE992EC682464B1FCB96342E555ADD0 SWAP3 POP PUSH2 0xC1B SWAP2 TIMESTAMP SWAP2 DUP7 SWAP1 DUP9 SWAP1 PUSH2 0x3D3E JUMP JUMPDEST PUSH1 0x40 MLOAD PUSH4 0x31A9108F PUSH1 0xE1 SHL DUP2 MSTORE PUSH1 0x4 DUP2 ADD DUP4 SWAP1 MSTORE CALLER SWAP1 ADDRESS SWAP1 PUSH4 0x6352211E SWAP1 PUSH1 0x24 ADD PUSH1 0x20 PUSH1 0x40 MLOAD DUP1 DUP4 SUB DUP2 DUP7 GAS STATICCALL ISZERO DUP1 ISZERO PUSH2 0x17EA JUMPI RETURNDATASIZE PUSH1 0x0 DUP1 RETURNDATACOPY RETURNDATASIZE PUSH1 0x0 REVERT JUMPDEST POP POP POP POP PUSH1 0x40 MLOAD RETURNDATASIZE PUSH1 0x1F NOT PUSH1 0x1F DUP3 ADD AND DUP3 ADD DUP1 PUSH1 0x40 MSTORE POP DUP2 ADD SWAP1 PUSH2 0x180E SWAP2 SWAP1 PUSH2 0x39E2 JUMP JUMPDEST PUSH1 0x1 PUSH1 0x1 PUSH1 0xA0 SHL SUB AND EQ PUSH2 0x1854 JUMPI PUSH1 0x40 MLOAD PUSH3 0x461BCD PUSH1 0xE5 SHL DUP2 MSTORE PUSH1 0x20 PUSH1 0x4 DUP3 ADD MSTORE PUSH1 0xD PUSH1 0x24 DUP3 ADD MSTORE PUSH13 0x24B73B30B634B21037BBB732B9 PUSH1 0x99 SHL PUSH1 0x44 DUP3 ADD MSTORE PUSH1 0x64 ADD PUSH2 0x697 JUMP JUMPDEST PUSH1 0x9 SLOAD PUSH1 0xA SLOAD PUSH1 0x1 PUSH1 0x1 PUSH1 0xA0 SHL SUB SWAP1 SWAP2 AND SWAP1 PUSH4 0xEAF5D04E SWAP1 ADDRESS SWAP1 PUSH1 0xC DUP6 PUSH2 0x187A DUP9 PUSH2 0x2632 JUMP JUMPDEST PUSH1 0x40 MLOAD PUSH1 0x20 ADD PUSH2 0x188C SWAP4 SWAP3 SWAP2 SWAP1 PUSH2 0x415A JUMP JUMPDEST PUSH1 0x40 MLOAD PUSH1 0x20 DUP2 DUP4 SUB SUB DUP2 MSTORE SWAP1 PUSH1 0x40 MSTORE PUSH1 0x40 MLOAD DUP5 PUSH4 0xFFFFFFFF AND PUSH1 0xE0 SHL DUP2 MSTORE PUSH1 0x4 ADD PUSH2 0x18B9 SWAP4 SWAP3 SWAP2 SWAP1 PUSH2 0x3BCD JUMP JUMPDEST PUSH1 0x0 PUSH1 0x40 MLOAD DUP1 DUP4 SUB DUP2 PUSH1 0x0 DUP8 DUP1 EXTCODESIZE ISZERO DUP1 ISZERO PUSH2 0x18D3 JUMPI PUSH1 0x0 DUP1 REVERT JUMPDEST POP GAS CALL ISZERO DUP1 ISZERO PUSH2 0x18E7 JUMPI RETURNDATASIZE PUSH1 0x0 DUP1 RETURNDATACOPY RETURNDATASIZE PUSH1 0x0 REVERT JUMPDEST POP POP PUSH1 0xA SLOAD PUSH1 0x40 MLOAD CALLER SWAP4 POP PUSH32 0x1A4940BC8962FEB51C853BD670161C0FFFD6E75D6ECFD2D8152403DC30EDAEC6 SWAP3 POP PUSH2 0xC1B SWAP2 TIMESTAMP SWAP2 DUP7 SWAP1 DUP9 SWAP1 PUSH2 0x3D3E JUMP JUMPDEST PUSH1 0x0 PUSH1 0x1 PUSH1 0x1 PUSH1 0xA0 SHL SUB DUP3 AND PUSH2 0x19A2 JUMPI PUSH1 0x40 MLOAD PUSH3 0x461BCD PUSH1 0xE5 SHL DUP2 MSTORE PUSH1 0x20 PUSH1 0x4 DUP3 ADD MSTORE PUSH1 0x29 PUSH1 0x24 DUP3 ADD MSTORE PUSH32 0x4552433732313A2061646472657373207A65726F206973206E6F742061207661 PUSH1 0x44 DUP3 ADD MSTORE PUSH32 0x6C6964206F776E65720000000000000000000000000000000000000000000000 PUSH1 0x64 DUP3 ADD MSTORE PUSH1 0x84 ADD PUSH2 0x697 JUMP JUMPDEST POP PUSH1 0x1 PUSH1 0x1 PUSH1 0xA0 SHL SUB AND PUSH1 0x0 SWAP1 DUP2 MSTORE PUSH1 0x3 PUSH1 0x20 MSTORE PUSH1 0x40 SWAP1 KECCAK256 SLOAD SWAP1 JUMP JUMPDEST PUSH1 0xD DUP1 SLOAD PUSH2 0x107A SWAP1 PUSH2 0x39FF JUMP JUMPDEST PUSH1 0x0 DUP1 PUSH2 0x19D7 PUSH1 0x8 SLOAD SWAP1 JUMP JUMPDEST PUSH1 0x9 SLOAD PUSH1 0xA SLOAD SWAP2 SWAP3 POP PUSH1 0x1 PUSH1 0x1 PUSH1 0xA0 SHL SUB AND SWAP1 PUSH4 0xEAF5D04E SWAP1 ADDRESS SWAP1 PUSH1 0xC PUSH2 0x19FD DUP7 PUSH2 0x2632 JUMP JUMPDEST DUP16 DUP16 DUP16 DUP16 PUSH1 0x40 MLOAD PUSH1 0x20 ADD PUSH2 0x1A16 SWAP7 SWAP6 SWAP5 SWAP4 SWAP3 SWAP2 SWAP1 PUSH2 0x41FA JUMP JUMPDEST PUSH1 0x40 MLOAD PUSH1 0x20 DUP2 DUP4 SUB SUB DUP2 MSTORE SWAP1 PUSH1 0x40 MSTORE PUSH1 0x40 MLOAD DUP5 PUSH4 0xFFFFFFFF AND PUSH1 0xE0 SHL DUP2 MSTORE PUSH1 0x4 ADD PUSH2 0x1A43 SWAP4 SWAP3 SWAP2 SWAP1 PUSH2 0x3BCD JUMP JUMPDEST PUSH1 0x0 PUSH1 0x40 MLOAD DUP1 DUP4 SUB DUP2 PUSH1 0x0 DUP8 DUP1 EXTCODESIZE ISZERO DUP1 ISZERO PUSH2 0x1A5D JUMPI PUSH1 0x0 DUP1 REVERT JUMPDEST POP GAS CALL ISZERO DUP1 ISZERO PUSH2 0x1A71 JUMPI RETURNDATASIZE PUSH1 0x0 DUP1 RETURNDATACOPY RETURNDATASIZE PUSH1 0x0 REVERT JUMPDEST POP POP PUSH1 0x9 SLOAD PUSH1 0xB SLOAD PUSH1 0x1 PUSH1 0x1 PUSH1 0xA0 SHL SUB SWAP1 SWAP2 AND SWAP3 POP PUSH4 0xEAF5D04E SWAP2 POP ADDRESS SWAP1 PUSH1 0xD PUSH2 0x1A9A DUP7 PUSH2 0x2632 JUMP JUMPDEST DUP12 DUP12 DUP12 DUP12 PUSH1 0x40 MLOAD PUSH1 0x20 ADD PUSH2 0x1AB3 SWAP7 SWAP6 SWAP5 SWAP4 SWAP3 SWAP2 SWAP1 PUSH2 0x430B JUMP JUMPDEST PUSH1 0x40 MLOAD PUSH1 0x20 DUP2 DUP4 SUB SUB DUP2 MSTORE SWAP1 PUSH1 0x40 MSTORE PUSH1 0x40 MLOAD DUP5 PUSH4 0xFFFFFFFF AND PUSH1 0xE0 SHL DUP2 MSTORE PUSH1 0x4 ADD PUSH2 0x1AE0 SWAP4 SWAP3 SWAP2 SWAP1 PUSH2 0x3BCD JUMP JUMPDEST PUSH1 0x0 PUSH1 0x40 MLOAD DUP1 DUP4 SUB DUP2 PUSH1 0x0 DUP8 DUP1 EXTCODESIZE ISZERO DUP1 ISZERO PUSH2 0x1AFA JUMPI PUSH1 0x0 DUP1 REVERT JUMPDEST POP GAS CALL ISZERO DUP1 ISZERO PUSH2 0x1B0E JUMPI RETURNDATASIZE PUSH1 0x0 DUP1 RETURNDATACOPY RETURNDATASIZE PUSH1 0x0 REVERT JUMPDEST POP POP POP POP PUSH2 0x1B1C DUP12 DUP3 PUSH2 0x2BEE JUMP JUMPDEST PUSH1 0x0 DUP2 DUP2 MSTORE PUSH1 0xF PUSH1 0x20 MSTORE PUSH1 0x40 SWAP1 KECCAK256 PUSH1 0x1 SWAP1 SSTORE PUSH2 0x1B3C PUSH1 0x8 DUP1 SLOAD PUSH1 0x1 ADD SWAP1 SSTORE JUMP JUMPDEST PUSH1 0x40 DUP1 MLOAD TIMESTAMP DUP2 MSTORE PUSH1 0x20 DUP2 ADD DUP4 SWAP1 MSTORE CALLER SWAP2 PUSH32 0x61B141191D79859F7CC6256C1B9E5F380052197831EFE9135841C0FF4DE7E63 SWAP2 ADD PUSH1 0x40 MLOAD DUP1 SWAP2 SUB SWAP1 LOG2 SWAP11 SWAP10 POP POP POP POP POP POP POP POP POP POP JUMP JUMPDEST PUSH1 0x60 PUSH1 0x1 DUP1 SLOAD PUSH2 0x809 SWAP1 PUSH2 0x39FF JUMP JUMPDEST PUSH1 0x40 MLOAD PUSH4 0x31A9108F PUSH1 0xE1 SHL DUP2 MSTORE PUSH1 0x4 DUP2 ADD DUP7 SWAP1 MSTORE PUSH1 0x0 SWAP1 CALLER SWAP1 ADDRESS SWAP1 PUSH4 0x6352211E SWAP1 PUSH1 0x24 ADD PUSH1 0x20 PUSH1 0x40 MLOAD DUP1 DUP4 SUB DUP2 DUP7 GAS STATICCALL ISZERO DUP1 ISZERO PUSH2 0x1BD5 JUMPI RETURNDATASIZE PUSH1 0x0 DUP1 RETURNDATACOPY RETURNDATASIZE PUSH1 0x0 REVERT JUMPDEST POP POP POP POP PUSH1 0x40 MLOAD RETURNDATASIZE PUSH1 0x1F NOT PUSH1 0x1F DUP3 ADD AND DUP3 ADD DUP1 PUSH1 0x40 MSTORE POP DUP2 ADD SWAP1 PUSH2 0x1BF9 SWAP2 SWAP1 PUSH2 0x39E2 JUMP JUMPDEST PUSH1 0x1 PUSH1 0x1 PUSH1 0xA0 SHL SUB AND EQ PUSH2 0x1C3F JUMPI PUSH1 0x40 MLOAD PUSH3 0x461BCD PUSH1 0xE5 SHL DUP2 MSTORE PUSH1 0x20 PUSH1 0x4 DUP3 ADD MSTORE PUSH1 0xD PUSH1 0x24 DUP3 ADD MSTORE PUSH13 0x24B73B30B634B21037BBB732B9 PUSH1 0x99 SHL PUSH1 0x44 DUP3 ADD MSTORE PUSH1 0x64 ADD PUSH2 0x697 JUMP JUMPDEST PUSH1 0x0 DUP7 DUP2 MSTORE PUSH1 0xF PUSH1 0x20 MSTORE PUSH1 0x40 SWAP1 KECCAK256 SLOAD PUSH1 0x9 SLOAD PUSH1 0xB SLOAD PUSH1 0x1 PUSH1 0x1 PUSH1 0xA0 SHL SUB SWAP1 SWAP2 AND SWAP1 PUSH4 0xEAF5D04E SWAP1 ADDRESS SWAP1 PUSH1 0xD PUSH2 0x1C73 DUP13 PUSH2 0x2632 JUMP JUMPDEST PUSH2 0x1C86 PUSH2 0x1C81 DUP9 PUSH1 0x1 PUSH2 0x442C JUMP JUMPDEST PUSH2 0x2632 JUMP JUMPDEST DUP13 DUP13 DUP13 DUP13 PUSH1 0x40 MLOAD PUSH1 0x20 ADD PUSH2 0x1CA0 SWAP8 SWAP7 SWAP6 SWAP5 SWAP4 SWAP3 SWAP2 SWAP1 PUSH2 0x4444 JUMP JUMPDEST PUSH1 0x40 MLOAD PUSH1 0x20 DUP2 DUP4 SUB SUB DUP2 MSTORE SWAP1 PUSH1 0x40 MSTORE PUSH1 0x40 MLOAD DUP5 PUSH4 0xFFFFFFFF AND PUSH1 0xE0 SHL DUP2 MSTORE PUSH1 0x4 ADD PUSH2 0x1CCD SWAP4 SWAP3 SWAP2 SWAP1 PUSH2 0x3BCD JUMP JUMPDEST PUSH1 0x0 PUSH1 0x40 MLOAD DUP1 DUP4 SUB DUP2 PUSH1 0x0 DUP8 DUP1 EXTCODESIZE ISZERO DUP1 ISZERO PUSH2 0x1CE7 JUMPI PUSH1 0x0 DUP1 REVERT JUMPDEST POP GAS CALL ISZERO DUP1 ISZERO PUSH2 0x1CFB JUMPI RETURNDATASIZE PUSH1 0x0 DUP1 RETURNDATACOPY RETURNDATASIZE PUSH1 0x0 REVERT JUMPDEST POP POP POP POP DUP1 PUSH1 0x1 PUSH2 0x1D0C SWAP2 SWAP1 PUSH2 0x442C JUMP JUMPDEST PUSH1 0x0 DUP9 DUP2 MSTORE PUSH1 0xF PUSH1 0x20 MSTORE PUSH1 0x40 SWAP1 KECCAK256 SSTORE CALLER PUSH32 0x49F81050F063E5873E3DA74C80D522B979EF15124EA45757CE3E838D7E2D703E TIMESTAMP DUP10 PUSH2 0x1D4A DUP6 PUSH1 0x1 PUSH2 0x442C JUMP JUMPDEST PUSH1 0x40 DUP1 MLOAD SWAP4 DUP5 MSTORE PUSH1 0x20 DUP5 ADD SWAP3 SWAP1 SWAP3 MSTORE SWAP1 DUP3 ADD MSTORE PUSH1 0x60 ADD PUSH1 0x40 MLOAD DUP1 SWAP2 SUB SWAP1 LOG2 PUSH2 0x1D73 DUP2 PUSH1 0x1 PUSH2 0x442C JUMP JUMPDEST SWAP8 SWAP7 POP POP POP POP POP POP POP JUMP JUMPDEST PUSH2 0xEB8 CALLER DUP4 DUP4 PUSH2 0x2C08 JUMP JUMPDEST PUSH1 0x40 MLOAD PUSH4 0x31A9108F PUSH1 0xE1 SHL DUP2 MSTORE PUSH1 0x4 DUP2 ADD DUP5 SWAP1 MSTORE CALLER SWAP1 ADDRESS SWAP1 PUSH4 0x6352211E SWAP1 PUSH1 0x24 ADD PUSH1 0x20 PUSH1 0x40 MLOAD DUP1 DUP4 SUB DUP2 DUP7 GAS STATICCALL ISZERO DUP1 ISZERO PUSH2 0x1DC7 JUMPI RETURNDATASIZE PUSH1 0x0 DUP1 RETURNDATACOPY RETURNDATASIZE PUSH1 0x0 REVERT JUMPDEST POP POP POP POP PUSH1 0x40 MLOAD RETURNDATASIZE PUSH1 0x1F NOT PUSH1 0x1F DUP3 ADD AND DUP3 ADD DUP1 PUSH1 0x40 MSTORE POP DUP2 ADD SWAP1 PUSH2 0x1DEB SWAP2 SWAP1 PUSH2 0x39E2 JUMP JUMPDEST PUSH1 0x1 PUSH1 0x1 PUSH1 0xA0 SHL SUB AND EQ PUSH2 0x1E31 JUMPI PUSH1 0x40 MLOAD PUSH3 0x461BCD PUSH1 0xE5 SHL DUP2 MSTORE PUSH1 0x20 PUSH1 0x4 DUP3 ADD MSTORE PUSH1 0xD PUSH1 0x24 DUP3 ADD MSTORE PUSH13 0x24B73B30B634B21037BBB732B9 PUSH1 0x99 SHL PUSH1 0x44 DUP3 ADD MSTORE PUSH1 0x64 ADD PUSH2 0x697 JUMP JUMPDEST PUSH1 0x0 DUP4 DUP2 MSTORE PUSH1 0xF PUSH1 0x20 MSTORE PUSH1 0x40 SWAP1 KECCAK256 SLOAD DUP3 GT DUP1 ISZERO SWAP1 PUSH2 0x1E4F JUMPI POP PUSH1 0x0 DUP3 GT JUMPDEST PUSH2 0x1E91 JUMPI PUSH1 0x40 MLOAD PUSH3 0x461BCD PUSH1 0xE5 SHL DUP2 MSTORE PUSH1 0x20 PUSH1 0x4 DUP3 ADD MSTORE PUSH1 0x13 PUSH1 0x24 DUP3 ADD MSTORE PUSH19 0x3A3930B4BA2FB4B2103737BA103337BAB7321 PUSH1 0x6D SHL PUSH1 0x44 DUP3 ADD MSTORE PUSH1 0x64 ADD PUSH2 0x697 JUMP JUMPDEST PUSH1 0x9 SLOAD PUSH1 0xB SLOAD PUSH1 0x1 PUSH1 0x1 PUSH1 0xA0 SHL SUB SWAP1 SWAP2 AND SWAP1 PUSH4 0xEAF5D04E SWAP1 ADDRESS SWAP1 PUSH1 0xD DUP6 PUSH2 0x1EB7 DUP10 PUSH2 0x2632 JUMP JUMPDEST PUSH2 0x1EC0 DUP10 PUSH2 0x2632 JUMP JUMPDEST PUSH1 0x40 MLOAD PUSH1 0x20 ADD PUSH2 0x1ED3 SWAP5 SWAP4 SWAP3 SWAP2 SWAP1 PUSH2 0x459C JUMP JUMPDEST PUSH1 0x40 MLOAD PUSH1 0x20 DUP2 DUP4 SUB SUB DUP2 MSTORE SWAP1 PUSH1 0x40 MSTORE PUSH1 0x40 MLOAD DUP5 PUSH4 0xFFFFFFFF AND PUSH1 0xE0 SHL DUP2 MSTORE PUSH1 0x4 ADD PUSH2 0x1F00 SWAP4 SWAP3 SWAP2 SWAP1 PUSH2 0x3BCD JUMP JUMPDEST PUSH1 0x0 PUSH1 0x40 MLOAD DUP1 DUP4 SUB DUP2 PUSH1 0x0 DUP8 DUP1 EXTCODESIZE ISZERO DUP1 ISZERO PUSH2 0x1F1A JUMPI PUSH1 0x0 DUP1 REVERT JUMPDEST POP GAS CALL ISZERO DUP1 ISZERO PUSH2 0x1F2E JUMPI RETURNDATASIZE PUSH1 0x0 DUP1 RETURNDATACOPY RETURNDATASIZE PUSH1 0x0 REVERT JUMPDEST POP POP PUSH1 0xB SLOAD PUSH1 0x40 MLOAD CALLER SWAP4 POP PUSH32 0xB415E23E22B2B31BA644100F3F46F83517C124378282DCBADD1D523EB345FC59 SWAP3 POP PUSH2 0x7DC SWAP2 TIMESTAMP SWAP2 DUP7 SWAP1 DUP10 SWAP1 DUP10 SWAP1 PUSH2 0x3BFE JUMP JUMPDEST PUSH1 0x60 PUSH1 0x0 PUSH2 0x1F79 PUSH2 0x27DD JUMP JUMPDEST SWAP1 POP DUP1 PUSH1 0xC PUSH1 0x40 MLOAD PUSH1 0x20 ADD PUSH2 0x8D5 SWAP3 SWAP2 SWAP1 PUSH2 0x3C31 JUMP JUMPDEST PUSH2 0x1F99 CALLER DUP4 PUSH2 0x2867 JUMP JUMPDEST PUSH2 0x200B JUMPI PUSH1 0x40 MLOAD PUSH3 0x461BCD PUSH1 0xE5 SHL DUP2 MSTORE PUSH1 0x20 PUSH1 0x4 DUP3 ADD MSTORE PUSH1 0x2E PUSH1 0x24 DUP3 ADD MSTORE PUSH32 0x4552433732313A2063616C6C6572206973206E6F7420746F6B656E206F776E65 PUSH1 0x44 DUP3 ADD MSTORE PUSH32 0x72206E6F7220617070726F766564000000000000000000000000000000000000 PUSH1 0x64 DUP3 ADD MSTORE PUSH1 0x84 ADD PUSH2 0x697 JUMP JUMPDEST PUSH2 0x2017 DUP5 DUP5 DUP5 DUP5 PUSH2 0x2CD7 JUMP JUMPDEST POP POP POP POP JUMP JUMPDEST PUSH1 0x40 MLOAD PUSH4 0x31A9108F PUSH1 0xE1 SHL DUP2 MSTORE PUSH1 0x4 DUP2 ADD DUP4 SWAP1 MSTORE CALLER SWAP1 ADDRESS SWAP1 PUSH4 0x6352211E SWAP1 PUSH1 0x24 ADD PUSH1 0x20 PUSH1 0x40 MLOAD DUP1 DUP4 SUB DUP2 DUP7 GAS STATICCALL ISZERO DUP1 ISZERO PUSH2 0x205B JUMPI RETURNDATASIZE PUSH1 0x0 DUP1 RETURNDATACOPY RETURNDATASIZE PUSH1 0x0 REVERT JUMPDEST POP POP POP POP PUSH1 0x40 MLOAD RETURNDATASIZE PUSH1 0x1F NOT PUSH1 0x1F DUP3 ADD AND DUP3 ADD DUP1 PUSH1 0x40 MSTORE POP DUP2 ADD SWAP1 PUSH2 0x207F SWAP2 SWAP1 PUSH2 0x39E2 JUMP JUMPDEST PUSH1 0x1 PUSH1 0x1 PUSH1 0xA0 SHL SUB AND EQ PUSH2 0x20C5 JUMPI PUSH1 0x40 MLOAD PUSH3 0x461BCD PUSH1 0xE5 SHL DUP2 MSTORE PUSH1 0x20 PUSH1 0x4 DUP3 ADD MSTORE PUSH1 0xD PUSH1 0x24 DUP3 ADD MSTORE PUSH13 0x24B73B30B634B21037BBB732B9 PUSH1 0x99 SHL PUSH1 0x44 DUP3 ADD MSTORE PUSH1 0x64 ADD PUSH2 0x697 JUMP JUMPDEST PUSH1 0x9 SLOAD PUSH1 0xA SLOAD PUSH1 0x1 PUSH1 0x1 PUSH1 0xA0 SHL SUB SWAP1 SWAP2 AND SWAP1 PUSH4 0xEAF5D04E SWAP1 ADDRESS SWAP1 PUSH1 0xC DUP6 PUSH2 0x20EB DUP9 PUSH2 0x2632 JUMP JUMPDEST PUSH1 0x40 MLOAD PUSH1 0x20 ADD PUSH2 0x20FD SWAP4 SWAP3 SWAP2 SWAP1 PUSH2 0x4679 JUMP JUMPDEST PUSH1 0x40 MLOAD PUSH1 0x20 DUP2 DUP4 SUB SUB DUP2 MSTORE SWAP1 PUSH1 0x40 MSTORE PUSH1 0x40 MLOAD DUP5 PUSH4 0xFFFFFFFF AND PUSH1 0xE0 SHL DUP2 MSTORE PUSH1 0x4 ADD PUSH2 0x212A SWAP4 SWAP3 SWAP2 SWAP1 PUSH2 0x3BCD JUMP JUMPDEST PUSH1 0x0 PUSH1 0x40 MLOAD DUP1 DUP4 SUB DUP2 PUSH1 0x0 DUP8 DUP1 EXTCODESIZE ISZERO DUP1 ISZERO PUSH2 0x2144 JUMPI PUSH1 0x0 DUP1 REVERT JUMPDEST POP GAS CALL ISZERO DUP1 ISZERO PUSH2 0x2158 JUMPI RETURNDATASIZE PUSH1 0x0 DUP1 RETURNDATACOPY RETURNDATASIZE PUSH1 0x0 REVERT JUMPDEST POP POP PUSH1 0xA SLOAD PUSH1 0x40 MLOAD CALLER SWAP4 POP PUSH32 0xE785EA1E282A50B7E65E928A3F97B023DCA466E7E64E4BC48693DF3DF780BBE2 SWAP3 POP PUSH2 0xC1B SWAP2 TIMESTAMP SWAP2 DUP7 SWAP1 DUP9 SWAP1 PUSH2 0x3D3E JUMP JUMPDEST PUSH1 0x0 DUP2 DUP2 MSTORE PUSH1 0x2 PUSH1 0x20 MSTORE PUSH1 0x40 SWAP1 KECCAK256 SLOAD PUSH1 0x60 SWAP1 PUSH1 0x1 PUSH1 0x1 PUSH1 0xA0 SHL SUB AND PUSH2 0x2222 JUMPI PUSH1 0x40 MLOAD PUSH3 0x461BCD PUSH1 0xE5 SHL DUP2 MSTORE PUSH1 0x20 PUSH1 0x4 DUP3 ADD MSTORE PUSH1 0x2F PUSH1 0x24 DUP3 ADD MSTORE PUSH32 0x4552433732314D657461646174613A2055524920717565727920666F72206E6F PUSH1 0x44 DUP3 ADD MSTORE PUSH32 0x6E6578697374656E7420746F6B656E0000000000000000000000000000000000 PUSH1 0x64 DUP3 ADD MSTORE PUSH1 0x84 ADD PUSH2 0x697 JUMP JUMPDEST PUSH1 0x0 PUSH2 0x222C PUSH2 0x27DD JUMP JUMPDEST SWAP1 POP DUP1 MLOAD PUSH1 0x0 EQ ISZERO PUSH2 0x224E JUMPI POP POP PUSH1 0x40 DUP1 MLOAD PUSH1 0x20 DUP2 ADD SWAP1 SWAP2 MSTORE PUSH1 0x0 DUP2 MSTORE SWAP2 SWAP1 POP JUMP JUMPDEST PUSH1 0x0 PUSH1 0xC PUSH1 0xD PUSH1 0xC PUSH1 0xD PUSH1 0x40 MLOAD PUSH1 0x20 ADD PUSH2 0x226B SWAP5 SWAP4 SWAP3 SWAP2 SWAP1 PUSH2 0x4719 JUMP JUMPDEST PUSH1 0x40 MLOAD PUSH1 0x20 DUP2 DUP4 SUB SUB DUP2 MSTORE SWAP1 PUSH1 0x40 MSTORE SWAP1 POP DUP2 DUP2 PUSH2 0x2287 DUP7 PUSH2 0x2632 JUMP JUMPDEST PUSH1 0x40 MLOAD PUSH1 0x20 ADD PUSH2 0x2299 SWAP4 SWAP3 SWAP2 SWAP1 PUSH2 0x4A89 JUMP JUMPDEST PUSH1 0x40 MLOAD PUSH1 0x20 DUP2 DUP4 SUB SUB DUP2 MSTORE SWAP1 PUSH1 0x40 MSTORE SWAP3 POP POP POP SWAP2 SWAP1 POP JUMP JUMPDEST PUSH1 0x40 MLOAD PUSH4 0x31A9108F PUSH1 0xE1 SHL DUP2 MSTORE PUSH1 0x4 DUP2 ADD DUP4 SWAP1 MSTORE CALLER SWAP1 ADDRESS SWAP1 PUSH4 0x6352211E SWAP1 PUSH1 0x24 ADD PUSH1 0x20 PUSH1 0x40 MLOAD DUP1 DUP4 SUB DUP2 DUP7 GAS STATICCALL ISZERO DUP1 ISZERO PUSH2 0x22EF JUMPI RETURNDATASIZE PUSH1 0x0 DUP1 RETURNDATACOPY RETURNDATASIZE PUSH1 0x0 REVERT JUMPDEST POP POP POP POP PUSH1 0x40 MLOAD RETURNDATASIZE PUSH1 0x1F NOT PUSH1 0x1F DUP3 ADD AND DUP3 ADD DUP1 PUSH1 0x40 MSTORE POP DUP2 ADD SWAP1 PUSH2 0x2313 SWAP2 SWAP1 PUSH2 0x39E2 JUMP JUMPDEST PUSH1 0x1 PUSH1 0x1 PUSH1 0xA0 SHL SUB AND EQ PUSH2 0x2359 JUMPI PUSH1 0x40 MLOAD PUSH3 0x461BCD PUSH1 0xE5 SHL DUP2 MSTORE PUSH1 0x20 PUSH1 0x4 DUP3 ADD MSTORE PUSH1 0xD PUSH1 0x24 DUP3 ADD MSTORE PUSH13 0x24B73B30B634B21037BBB732B9 PUSH1 0x99 SHL PUSH1 0x44 DUP3 ADD MSTORE PUSH1 0x64 ADD PUSH2 0x697 JUMP JUMPDEST PUSH1 0x9 SLOAD PUSH1 0xA SLOAD PUSH1 0x1 PUSH1 0x1 PUSH1 0xA0 SHL SUB SWAP1 SWAP2 AND SWAP1 PUSH4 0xEAF5D04E SWAP1 ADDRESS SWAP1 PUSH1 0xC DUP6 PUSH2 0x237F DUP9 PUSH2 0x2632 JUMP JUMPDEST PUSH1 0x40 MLOAD PUSH1 0x20 ADD PUSH2 0x2391 SWAP4 SWAP3 SWAP2 SWAP1 PUSH2 0x4B22 JUMP JUMPDEST PUSH1 0x40 MLOAD PUSH1 0x20 DUP2 DUP4 SUB SUB DUP2 MSTORE SWAP1 PUSH1 0x40 MSTORE PUSH1 0x40 MLOAD DUP5 PUSH4 0xFFFFFFFF AND PUSH1 0xE0 SHL DUP2 MSTORE PUSH1 0x4 ADD PUSH2 0x23BE SWAP4 SWAP3 SWAP2 SWAP1 PUSH2 0x3BCD JUMP JUMPDEST PUSH1 0x0 PUSH1 0x40 MLOAD DUP1 DUP4 SUB DUP2 PUSH1 0x0 DUP8 DUP1 EXTCODESIZE ISZERO DUP1 ISZERO PUSH2 0x23D8 JUMPI PUSH1 0x0 DUP1 REVERT JUMPDEST POP GAS CALL ISZERO DUP1 ISZERO PUSH2 0x23EC JUMPI RETURNDATASIZE PUSH1 0x0 DUP1 RETURNDATACOPY RETURNDATASIZE PUSH1 0x0 REVERT JUMPDEST POP POP PUSH1 0xA SLOAD PUSH1 0x40 MLOAD CALLER SWAP4 POP PUSH32 0x96891D92CBA055882B9CC7BBAD764DB900044BD69DEAFE6D5F32CF68B1668A9C SWAP3 POP PUSH2 0xC1B SWAP2 TIMESTAMP SWAP2 DUP7 SWAP1 DUP9 SWAP1 PUSH2 0x3D3E JUMP JUMPDEST PUSH1 0x0 DUP3 DUP2 MSTORE PUSH1 0x6 PUSH1 0x20 MSTORE PUSH1 0x40 SWAP1 KECCAK256 PUSH1 0x1 ADD SLOAD PUSH2 0x2444 DUP2 PUSH2 0x2ABF JUMP JUMPDEST PUSH2 0xA17 DUP4 DUP4 PUSH2 0x2B6B JUMP JUMPDEST PUSH1 0x40 MLOAD PUSH4 0x31A9108F PUSH1 0xE1 SHL DUP2 MSTORE PUSH1 0x4 DUP2 ADD DUP5 SWAP1 MSTORE CALLER SWAP1 ADDRESS SWAP1 PUSH4 0x6352211E SWAP1 PUSH1 0x24 ADD PUSH1 0x20 PUSH1 0x40 MLOAD DUP1 DUP4 SUB DUP2 DUP7 GAS STATICCALL ISZERO DUP1 ISZERO PUSH2 0x248C JUMPI RETURNDATASIZE PUSH1 0x0 DUP1 RETURNDATACOPY RETURNDATASIZE PUSH1 0x0 REVERT JUMPDEST POP POP POP POP PUSH1 0x40 MLOAD RETURNDATASIZE PUSH1 0x1F NOT PUSH1 0x1F DUP3 ADD AND DUP3 ADD DUP1 PUSH1 0x40 MSTORE POP DUP2 ADD SWAP1 PUSH2 0x24B0 SWAP2 SWAP1 PUSH2 0x39E2 JUMP JUMPDEST PUSH1 0x1 PUSH1 0x1 PUSH1 0xA0 SHL SUB AND EQ PUSH2 0x24F6 JUMPI PUSH1 0x40 MLOAD PUSH3 0x461BCD PUSH1 0xE5 SHL DUP2 MSTORE PUSH1 0x20 PUSH1 0x4 DUP3 ADD MSTORE PUSH1 0xD PUSH1 0x24 DUP3 ADD MSTORE PUSH13 0x24B73B30B634B21037BBB732B9 PUSH1 0x99 SHL PUSH1 0x44 DUP3 ADD MSTORE PUSH1 0x64 ADD PUSH2 0x697 JUMP JUMPDEST PUSH1 0x0 DUP4 DUP2 MSTORE PUSH1 0xF PUSH1 0x20 MSTORE PUSH1 0x40 SWAP1 KECCAK256 SLOAD DUP3 GT DUP1 ISZERO SWAP1 PUSH2 0x2514 JUMPI POP PUSH1 0x0 DUP3 GT JUMPDEST PUSH2 0x2556 JUMPI PUSH1 0x40 MLOAD PUSH3 0x461BCD PUSH1 0xE5 SHL DUP2 MSTORE PUSH1 0x20 PUSH1 0x4 DUP3 ADD MSTORE PUSH1 0x13 PUSH1 0x24 DUP3 ADD MSTORE PUSH19 0x3A3930B4BA2FB4B2103737BA103337BAB7321 PUSH1 0x6D SHL PUSH1 0x44 DUP3 ADD MSTORE PUSH1 0x64 ADD PUSH2 0x697 JUMP JUMPDEST PUSH1 0x9 SLOAD PUSH1 0xB SLOAD PUSH1 0x1 PUSH1 0x1 PUSH1 0xA0 SHL SUB SWAP1 SWAP2 AND SWAP1 PUSH4 0xEAF5D04E SWAP1 ADDRESS SWAP1 PUSH1 0xD DUP6 PUSH2 0x257C DUP10 PUSH2 0x2632 JUMP JUMPDEST PUSH2 0x2585 DUP10 PUSH2 0x2632 JUMP JUMPDEST PUSH1 0x40 MLOAD PUSH1 0x20 ADD PUSH2 0x2598 SWAP5 SWAP4 SWAP3 SWAP2 SWAP1 PUSH2 0x4BC2 JUMP JUMPDEST PUSH1 0x40 MLOAD PUSH1 0x20 DUP2 DUP4 SUB SUB DUP2 MSTORE SWAP1 PUSH1 0x40 MSTORE PUSH1 0x40 MLOAD DUP5 PUSH4 0xFFFFFFFF AND PUSH1 0xE0 SHL DUP2 MSTORE PUSH1 0x4 ADD PUSH2 0x25C5 SWAP4 SWAP3 SWAP2 SWAP1 PUSH2 0x3BCD JUMP JUMPDEST PUSH1 0x0 PUSH1 0x40 MLOAD DUP1 DUP4 SUB DUP2 PUSH1 0x0 DUP8 DUP1 EXTCODESIZE ISZERO DUP1 ISZERO PUSH2 0x25DF JUMPI PUSH1 0x0 DUP1 REVERT JUMPDEST POP GAS CALL ISZERO DUP1 ISZERO PUSH2 0x25F3 JUMPI RETURNDATASIZE PUSH1 0x0 DUP1 RETURNDATACOPY RETURNDATASIZE PUSH1 0x0 REVERT JUMPDEST POP POP PUSH1 0xB SLOAD PUSH1 0x40 MLOAD CALLER SWAP4 POP PUSH32 0x11BFB7CD1318679CBB7491B824432AAF8D65800EC0A83281DAD118A0373A4A23 SWAP3 POP PUSH2 0x7DC SWAP2 TIMESTAMP SWAP2 DUP7 SWAP1 DUP10 SWAP1 DUP10 SWAP1 PUSH2 0x3BFE JUMP JUMPDEST PUSH1 0x60 DUP2 PUSH2 0x2656 JUMPI POP POP PUSH1 0x40 DUP1 MLOAD DUP1 DUP3 ADD SWAP1 SWAP2 MSTORE PUSH1 0x1 DUP2 MSTORE PUSH1 0x3 PUSH1 0xFC SHL PUSH1 0x20 DUP3 ADD MSTORE SWAP1 JUMP JUMPDEST DUP2 PUSH1 0x0 JUMPDEST DUP2 ISZERO PUSH2 0x2680 JUMPI DUP1 PUSH2 0x266A DUP2 PUSH2 0x4C9F JUMP JUMPDEST SWAP2 POP PUSH2 0x2679 SWAP1 POP PUSH1 0xA DUP4 PUSH2 0x4CD0 JUMP JUMPDEST SWAP2 POP PUSH2 0x265A JUMP JUMPDEST PUSH1 0x0 DUP2 PUSH8 0xFFFFFFFFFFFFFFFF DUP2 GT ISZERO PUSH2 0x269B JUMPI PUSH2 0x269B PUSH2 0x33EB JUMP JUMPDEST PUSH1 0x40 MLOAD SWAP1 DUP1 DUP3 MSTORE DUP1 PUSH1 0x1F ADD PUSH1 0x1F NOT AND PUSH1 0x20 ADD DUP3 ADD PUSH1 0x40 MSTORE DUP1 ISZERO PUSH2 0x26C5 JUMPI PUSH1 0x20 DUP3 ADD DUP2 DUP1 CALLDATASIZE DUP4 CALLDATACOPY ADD SWAP1 POP JUMPDEST POP SWAP1 POP JUMPDEST DUP5 ISZERO PUSH2 0x2730 JUMPI PUSH2 0x26DA PUSH1 0x1 DUP4 PUSH2 0x4CE4 JUMP JUMPDEST SWAP2 POP PUSH2 0x26E7 PUSH1 0xA DUP7 PUSH2 0x4CFB JUMP JUMPDEST PUSH2 0x26F2 SWAP1 PUSH1 0x30 PUSH2 0x442C JUMP JUMPDEST PUSH1 0xF8 SHL DUP2 DUP4 DUP2 MLOAD DUP2 LT PUSH2 0x2707 JUMPI PUSH2 0x2707 PUSH2 0x4D0F JUMP JUMPDEST PUSH1 0x20 ADD ADD SWAP1 PUSH1 0x1 PUSH1 0x1 PUSH1 0xF8 SHL SUB NOT AND SWAP1 DUP2 PUSH1 0x0 BYTE SWAP1 MSTORE8 POP PUSH2 0x2729 PUSH1 0xA DUP7 PUSH2 0x4CD0 JUMP JUMPDEST SWAP5 POP PUSH2 0x26C9 JUMP JUMPDEST SWAP5 SWAP4 POP POP POP POP JUMP JUMPDEST PUSH1 0x0 PUSH1 0x1 PUSH1 0x1 PUSH1 0xE0 SHL SUB NOT DUP3 AND PUSH32 0x7965DB0B00000000000000000000000000000000000000000000000000000000 EQ DUP1 PUSH2 0x7F4 JUMPI POP PUSH2 0x7F4 DUP3 PUSH2 0x2D55 JUMP JUMPDEST PUSH1 0x0 DUP2 DUP2 MSTORE PUSH1 0x2 PUSH1 0x20 MSTORE PUSH1 0x40 SWAP1 KECCAK256 SLOAD PUSH1 0x1 PUSH1 0x1 PUSH1 0xA0 SHL SUB AND PUSH2 0x27DA JUMPI PUSH1 0x40 MLOAD PUSH3 0x461BCD PUSH1 0xE5 SHL DUP2 MSTORE PUSH1 0x20 PUSH1 0x4 DUP3 ADD MSTORE PUSH1 0x18 PUSH1 0x24 DUP3 ADD MSTORE PUSH32 0x4552433732313A20696E76616C696420746F6B656E2049440000000000000000 PUSH1 0x44 DUP3 ADD MSTORE PUSH1 0x64 ADD PUSH2 0x697 JUMP JUMPDEST POP JUMP JUMPDEST PUSH1 0x60 PUSH1 0x7 DUP1 SLOAD PUSH2 0x809 SWAP1 PUSH2 0x39FF JUMP JUMPDEST PUSH1 0x0 DUP2 DUP2 MSTORE PUSH1 0x4 PUSH1 0x20 MSTORE PUSH1 0x40 SWAP1 KECCAK256 DUP1 SLOAD PUSH20 0xFFFFFFFFFFFFFFFFFFFFFFFFFFFFFFFFFFFFFFFF NOT AND PUSH1 0x1 PUSH1 0x1 PUSH1 0xA0 SHL SUB DUP5 AND SWAP1 DUP2 OR SWAP1 SWAP2 SSTORE DUP2 SWAP1 PUSH2 0x282E DUP3 PUSH2 0x15CF JUMP JUMPDEST PUSH1 0x1 PUSH1 0x1 PUSH1 0xA0 SHL SUB AND PUSH32 0x8C5BE1E5EBEC7D5BD14F71427D1E84F3DD0314C0F7B2291E5B200AC8C7C3B925 PUSH1 0x40 MLOAD PUSH1 0x40 MLOAD DUP1 SWAP2 SUB SWAP1 LOG4 POP POP JUMP JUMPDEST PUSH1 0x0 DUP1 PUSH2 0x2873 DUP4 PUSH2 0x15CF JUMP JUMPDEST SWAP1 POP DUP1 PUSH1 0x1 PUSH1 0x1 PUSH1 0xA0 SHL SUB AND DUP5 PUSH1 0x1 PUSH1 0x1 PUSH1 0xA0 SHL SUB AND EQ DUP1 PUSH2 0x28BA JUMPI POP PUSH1 0x1 PUSH1 0x1 PUSH1 0xA0 SHL SUB DUP1 DUP3 AND PUSH1 0x0 SWAP1 DUP2 MSTORE PUSH1 0x5 PUSH1 0x20 SWAP1 DUP2 MSTORE PUSH1 0x40 DUP1 DUP4 KECCAK256 SWAP4 DUP9 AND DUP4 MSTORE SWAP3 SWAP1 MSTORE KECCAK256 SLOAD PUSH1 0xFF AND JUMPDEST DUP1 PUSH2 0x2730 JUMPI POP DUP4 PUSH1 0x1 PUSH1 0x1 PUSH1 0xA0 SHL SUB AND PUSH2 0x28D3 DUP5 PUSH2 0x88C JUMP JUMPDEST PUSH1 0x1 PUSH1 0x1 PUSH1 0xA0 SHL SUB AND EQ SWAP5 SWAP4 POP POP POP POP JUMP JUMPDEST DUP3 PUSH1 0x1 PUSH1 0x1 PUSH1 0xA0 SHL SUB AND PUSH2 0x28F8 DUP3 PUSH2 0x15CF JUMP JUMPDEST PUSH1 0x1 PUSH1 0x1 PUSH1 0xA0 SHL SUB AND EQ PUSH2 0x2974 JUMPI PUSH1 0x40 MLOAD PUSH3 0x461BCD PUSH1 0xE5 SHL DUP2 MSTORE PUSH1 0x20 PUSH1 0x4 DUP3 ADD MSTORE PUSH1 0x25 PUSH1 0x24 DUP3 ADD MSTORE PUSH32 0x4552433732313A207472616E736665722066726F6D20696E636F727265637420 PUSH1 0x44 DUP3 ADD MSTORE PUSH32 0x6F776E6572000000000000000000000000000000000000000000000000000000 PUSH1 0x64 DUP3 ADD MSTORE PUSH1 0x84 ADD PUSH2 0x697 JUMP JUMPDEST PUSH1 0x1 PUSH1 0x1 PUSH1 0xA0 SHL SUB DUP3 AND PUSH2 0x29EF JUMPI PUSH1 0x40 MLOAD PUSH3 0x461BCD PUSH1 0xE5 SHL DUP2 MSTORE PUSH1 0x20 PUSH1 0x4 DUP3 ADD MSTORE PUSH1 0x24 DUP1 DUP3 ADD MSTORE PUSH32 0x4552433732313A207472616E7366657220746F20746865207A65726F20616464 PUSH1 0x44 DUP3 ADD MSTORE PUSH32 0x7265737300000000000000000000000000000000000000000000000000000000 PUSH1 0x64 DUP3 ADD MSTORE PUSH1 0x84 ADD PUSH2 0x697 JUMP JUMPDEST PUSH2 0x29FA PUSH1 0x0 DUP3 PUSH2 0x27EC JUMP JUMPDEST PUSH1 0x1 PUSH1 0x1 PUSH1 0xA0 SHL SUB DUP4 AND PUSH1 0x0 SWAP1 DUP2 MSTORE PUSH1 0x3 PUSH1 0x20 MSTORE PUSH1 0x40 DUP2 KECCAK256 DUP1 SLOAD PUSH1 0x1 SWAP3 SWAP1 PUSH2 0x2A23 SWAP1 DUP5 SWAP1 PUSH2 0x4CE4 JUMP JUMPDEST SWAP1 SWAP2 SSTORE POP POP PUSH1 0x1 PUSH1 0x1 PUSH1 0xA0 SHL SUB DUP3 AND PUSH1 0x0 SWAP1 DUP2 MSTORE PUSH1 0x3 PUSH1 0x20 MSTORE PUSH1 0x40 DUP2 KECCAK256 DUP1 SLOAD PUSH1 0x1 SWAP3 SWAP1 PUSH2 0x2A51 SWAP1 DUP5 SWAP1 PUSH2 0x442C JUMP JUMPDEST SWAP1 SWAP2 SSTORE POP POP PUSH1 0x0 DUP2 DUP2 MSTORE PUSH1 0x2 PUSH1 0x20 MSTORE PUSH1 0x40 DUP1 DUP3 KECCAK256 DUP1 SLOAD PUSH20 0xFFFFFFFFFFFFFFFFFFFFFFFFFFFFFFFFFFFFFFFF NOT AND PUSH1 0x1 PUSH1 0x1 PUSH1 0xA0 SHL SUB DUP7 DUP2 AND SWAP2 DUP3 OR SWAP1 SWAP3 SSTORE SWAP2 MLOAD DUP5 SWAP4 SWAP2 DUP8 AND SWAP2 PUSH32 0xDDF252AD1BE2C89B69C2B068FC378DAA952BA7F163C4A11628F55A4DF523B3EF SWAP2 LOG4 POP POP POP JUMP JUMPDEST PUSH2 0x27DA DUP2 CALLER PUSH2 0x2DF0 JUMP JUMPDEST PUSH1 0x0 DUP3 DUP2 MSTORE PUSH1 0x6 PUSH1 0x20 SWAP1 DUP2 MSTORE PUSH1 0x40 DUP1 DUP4 KECCAK256 PUSH1 0x1 PUSH1 0x1 PUSH1 0xA0 SHL SUB DUP6 AND DUP5 MSTORE SWAP1 SWAP2 MSTORE SWAP1 KECCAK256 SLOAD PUSH1 0xFF AND PUSH2 0xEB8 JUMPI PUSH1 0x0 DUP3 DUP2 MSTORE PUSH1 0x6 PUSH1 0x20 SWAP1 DUP2 MSTORE PUSH1 0x40 DUP1 DUP4 KECCAK256 PUSH1 0x1 PUSH1 0x1 PUSH1 0xA0 SHL SUB DUP6 AND DUP5 MSTORE SWAP1 SWAP2 MSTORE SWAP1 KECCAK256 DUP1 SLOAD PUSH1 0xFF NOT AND PUSH1 0x1 OR SWAP1 SSTORE PUSH2 0x2B27 CALLER SWAP1 JUMP JUMPDEST PUSH1 0x1 PUSH1 0x1 PUSH1 0xA0 SHL SUB AND DUP2 PUSH1 0x1 PUSH1 0x1 PUSH1 0xA0 SHL SUB AND DUP4 PUSH32 0x2F8788117E7EFF1D82E926EC794901D17C78024A50270940304540A733656F0D PUSH1 0x40 MLOAD PUSH1 0x40 MLOAD DUP1 SWAP2 SUB SWAP1 LOG4 POP POP JUMP JUMPDEST PUSH1 0x0 DUP3 DUP2 MSTORE PUSH1 0x6 PUSH1 0x20 SWAP1 DUP2 MSTORE PUSH1 0x40 DUP1 DUP4 KECCAK256 PUSH1 0x1 PUSH1 0x1 PUSH1 0xA0 SHL SUB DUP6 AND DUP5 MSTORE SWAP1 SWAP2 MSTORE SWAP1 KECCAK256 SLOAD PUSH1 0xFF AND ISZERO PUSH2 0xEB8 JUMPI PUSH1 0x0 DUP3 DUP2 MSTORE PUSH1 0x6 PUSH1 0x20 SWAP1 DUP2 MSTORE PUSH1 0x40 DUP1 DUP4 KECCAK256 PUSH1 0x1 PUSH1 0x1 PUSH1 0xA0 SHL SUB DUP6 AND DUP1 DUP6 MSTORE SWAP3 MSTORE DUP1 DUP4 KECCAK256 DUP1 SLOAD PUSH1 0xFF NOT AND SWAP1 SSTORE MLOAD CALLER SWAP3 DUP6 SWAP2 PUSH32 0xF6391F5C32D9C69D2A47EA670B442974B53935D1EDC7FD64EB21E047A839171B SWAP2 SWAP1 LOG4 POP POP JUMP JUMPDEST PUSH2 0xEB8 DUP3 DUP3 PUSH1 0x40 MLOAD DUP1 PUSH1 0x20 ADD PUSH1 0x40 MSTORE DUP1 PUSH1 0x0 DUP2 MSTORE POP PUSH2 0x2E70 JUMP JUMPDEST DUP2 PUSH1 0x1 PUSH1 0x1 PUSH1 0xA0 SHL SUB AND DUP4 PUSH1 0x1 PUSH1 0x1 PUSH1 0xA0 SHL SUB AND EQ ISZERO PUSH2 0x2C6A JUMPI PUSH1 0x40 MLOAD PUSH3 0x461BCD PUSH1 0xE5 SHL DUP2 MSTORE PUSH1 0x20 PUSH1 0x4 DUP3 ADD MSTORE PUSH1 0x19 PUSH1 0x24 DUP3 ADD MSTORE PUSH32 0x4552433732313A20617070726F766520746F2063616C6C657200000000000000 PUSH1 0x44 DUP3 ADD MSTORE PUSH1 0x64 ADD PUSH2 0x697 JUMP JUMPDEST PUSH1 0x1 PUSH1 0x1 PUSH1 0xA0 SHL SUB DUP4 DUP2 AND PUSH1 0x0 DUP2 DUP2 MSTORE PUSH1 0x5 PUSH1 0x20 SWAP1 DUP2 MSTORE PUSH1 0x40 DUP1 DUP4 KECCAK256 SWAP5 DUP8 AND DUP1 DUP5 MSTORE SWAP5 DUP3 MSTORE SWAP2 DUP3 SWAP1 KECCAK256 DUP1 SLOAD PUSH1 0xFF NOT AND DUP7 ISZERO ISZERO SWAP1 DUP2 OR SWAP1 SWAP2 SSTORE SWAP2 MLOAD SWAP2 DUP3 MSTORE PUSH32 0x17307EAB39AB6107E8899845AD3D59BD9653F200F220920489CA2B5937696C31 SWAP2 ADD PUSH1 0x40 MLOAD DUP1 SWAP2 SUB SWAP1 LOG3 POP POP POP JUMP JUMPDEST PUSH2 0x2CE2 DUP5 DUP5 DUP5 PUSH2 0x28E5 JUMP JUMPDEST PUSH2 0x2CEE DUP5 DUP5 DUP5 DUP5 PUSH2 0x2EEE JUMP JUMPDEST PUSH2 0x2017 JUMPI PUSH1 0x40 MLOAD PUSH3 0x461BCD PUSH1 0xE5 SHL DUP2 MSTORE PUSH1 0x20 PUSH1 0x4 DUP3 ADD MSTORE PUSH1 0x32 PUSH1 0x24 DUP3 ADD MSTORE PUSH32 0x4552433732313A207472616E7366657220746F206E6F6E204552433732315265 PUSH1 0x44 DUP3 ADD MSTORE PUSH18 0x31B2B4BB32B91034B6B83632B6B2B73A32B9 PUSH1 0x71 SHL PUSH1 0x64 DUP3 ADD MSTORE PUSH1 0x84 ADD PUSH2 0x697 JUMP JUMPDEST PUSH1 0x0 PUSH1 0x1 PUSH1 0x1 PUSH1 0xE0 SHL SUB NOT DUP3 AND PUSH32 0x80AC58CD00000000000000000000000000000000000000000000000000000000 EQ DUP1 PUSH2 0x2DB8 JUMPI POP PUSH1 0x1 PUSH1 0x1 PUSH1 0xE0 SHL SUB NOT DUP3 AND PUSH32 0x5B5E139F00000000000000000000000000000000000000000000000000000000 EQ JUMPDEST DUP1 PUSH2 0x7F4 JUMPI POP PUSH32 0x1FFC9A700000000000000000000000000000000000000000000000000000000 PUSH1 0x1 PUSH1 0x1 PUSH1 0xE0 SHL SUB NOT DUP4 AND EQ PUSH2 0x7F4 JUMP JUMPDEST PUSH1 0x0 DUP3 DUP2 MSTORE PUSH1 0x6 PUSH1 0x20 SWAP1 DUP2 MSTORE PUSH1 0x40 DUP1 DUP4 KECCAK256 PUSH1 0x1 PUSH1 0x1 PUSH1 0xA0 SHL SUB DUP6 AND DUP5 MSTORE SWAP1 SWAP2 MSTORE SWAP1 KECCAK256 SLOAD PUSH1 0xFF AND PUSH2 0xEB8 JUMPI PUSH2 0x2E2E DUP2 PUSH1 0x1 PUSH1 0x1 PUSH1 0xA0 SHL SUB AND PUSH1 0x14 PUSH2 0x3037 JUMP JUMPDEST PUSH2 0x2E39 DUP4 PUSH1 0x20 PUSH2 0x3037 JUMP JUMPDEST PUSH1 0x40 MLOAD PUSH1 0x20 ADD PUSH2 0x2E4A SWAP3 SWAP2 SWAP1 PUSH2 0x4D25 JUMP JUMPDEST PUSH1 0x40 DUP1 MLOAD PUSH1 0x1F NOT DUP2 DUP5 SUB ADD DUP2 MSTORE SWAP1 DUP3 SWAP1 MSTORE PUSH3 0x461BCD PUSH1 0xE5 SHL DUP3 MSTORE PUSH2 0x697 SWAP2 PUSH1 0x4 ADD PUSH2 0x3572 JUMP JUMPDEST PUSH2 0x2E7A DUP4 DUP4 PUSH2 0x3203 JUMP JUMPDEST PUSH2 0x2E87 PUSH1 0x0 DUP5 DUP5 DUP5 PUSH2 0x2EEE JUMP JUMPDEST PUSH2 0xA17 JUMPI PUSH1 0x40 MLOAD PUSH3 0x461BCD PUSH1 0xE5 SHL DUP2 MSTORE PUSH1 0x20 PUSH1 0x4 DUP3 ADD MSTORE PUSH1 0x32 PUSH1 0x24 DUP3 ADD MSTORE PUSH32 0x4552433732313A207472616E7366657220746F206E6F6E204552433732315265 PUSH1 0x44 DUP3 ADD MSTORE PUSH18 0x31B2B4BB32B91034B6B83632B6B2B73A32B9 PUSH1 0x71 SHL PUSH1 0x64 DUP3 ADD MSTORE PUSH1 0x84 ADD PUSH2 0x697 JUMP JUMPDEST PUSH1 0x0 PUSH1 0x1 PUSH1 0x1 PUSH1 0xA0 SHL SUB DUP5 AND EXTCODESIZE ISZERO PUSH2 0x302C JUMPI PUSH1 0x40 MLOAD PUSH4 0xA85BD01 PUSH1 0xE1 SHL DUP2 MSTORE PUSH1 0x1 PUSH1 0x1 PUSH1 0xA0 SHL SUB DUP6 AND SWAP1 PUSH4 0x150B7A02 SWAP1 PUSH2 0x2F32 SWAP1 CALLER SWAP1 DUP10 SWAP1 DUP9 SWAP1 DUP9 SWAP1 PUSH1 0x4 ADD PUSH2 0x4DA6 JUMP JUMPDEST PUSH1 0x20 PUSH1 0x40 MLOAD DUP1 DUP4 SUB DUP2 PUSH1 0x0 DUP8 GAS CALL SWAP3 POP POP POP DUP1 ISZERO PUSH2 0x2F6D JUMPI POP PUSH1 0x40 DUP1 MLOAD PUSH1 0x1F RETURNDATASIZE SWAP1 DUP2 ADD PUSH1 0x1F NOT AND DUP3 ADD SWAP1 SWAP3 MSTORE PUSH2 0x2F6A SWAP2 DUP2 ADD SWAP1 PUSH2 0x4DD8 JUMP JUMPDEST PUSH1 0x1 JUMPDEST PUSH2 0x3012 JUMPI RETURNDATASIZE DUP1 DUP1 ISZERO PUSH2 0x2F9B JUMPI PUSH1 0x40 MLOAD SWAP2 POP PUSH1 0x1F NOT PUSH1 0x3F RETURNDATASIZE ADD AND DUP3 ADD PUSH1 0x40 MSTORE RETURNDATASIZE DUP3 MSTORE RETURNDATASIZE PUSH1 0x0 PUSH1 0x20 DUP5 ADD RETURNDATACOPY PUSH2 0x2FA0 JUMP JUMPDEST PUSH1 0x60 SWAP2 POP JUMPDEST POP DUP1 MLOAD PUSH2 0x300A JUMPI PUSH1 0x40 MLOAD PUSH3 0x461BCD PUSH1 0xE5 SHL DUP2 MSTORE PUSH1 0x20 PUSH1 0x4 DUP3 ADD MSTORE PUSH1 0x32 PUSH1 0x24 DUP3 ADD MSTORE PUSH32 0x4552433732313A207472616E7366657220746F206E6F6E204552433732315265 PUSH1 0x44 DUP3 ADD MSTORE PUSH18 0x31B2B4BB32B91034B6B83632B6B2B73A32B9 PUSH1 0x71 SHL PUSH1 0x64 DUP3 ADD MSTORE PUSH1 0x84 ADD PUSH2 0x697 JUMP JUMPDEST DUP1 MLOAD DUP2 PUSH1 0x20 ADD REVERT JUMPDEST PUSH1 0x1 PUSH1 0x1 PUSH1 0xE0 SHL SUB NOT AND PUSH4 0xA85BD01 PUSH1 0xE1 SHL EQ SWAP1 POP PUSH2 0x2730 JUMP JUMPDEST POP PUSH1 0x1 SWAP5 SWAP4 POP POP POP POP JUMP JUMPDEST PUSH1 0x60 PUSH1 0x0 PUSH2 0x3046 DUP4 PUSH1 0x2 PUSH2 0x4DF5 JUMP JUMPDEST PUSH2 0x3051 SWAP1 PUSH1 0x2 PUSH2 0x442C JUMP JUMPDEST PUSH8 0xFFFFFFFFFFFFFFFF DUP2 GT ISZERO PUSH2 0x3069 JUMPI PUSH2 0x3069 PUSH2 0x33EB JUMP JUMPDEST PUSH1 0x40 MLOAD SWAP1 DUP1 DUP3 MSTORE DUP1 PUSH1 0x1F ADD PUSH1 0x1F NOT AND PUSH1 0x20 ADD DUP3 ADD PUSH1 0x40 MSTORE DUP1 ISZERO PUSH2 0x3093 JUMPI PUSH1 0x20 DUP3 ADD DUP2 DUP1 CALLDATASIZE DUP4 CALLDATACOPY ADD SWAP1 POP JUMPDEST POP SWAP1 POP PUSH1 0x3 PUSH1 0xFC SHL DUP2 PUSH1 0x0 DUP2 MLOAD DUP2 LT PUSH2 0x30AE JUMPI PUSH2 0x30AE PUSH2 0x4D0F JUMP JUMPDEST PUSH1 0x20 ADD ADD SWAP1 PUSH1 0x1 PUSH1 0x1 PUSH1 0xF8 SHL SUB NOT AND SWAP1 DUP2 PUSH1 0x0 BYTE SWAP1 MSTORE8 POP PUSH32 0x7800000000000000000000000000000000000000000000000000000000000000 DUP2 PUSH1 0x1 DUP2 MLOAD DUP2 LT PUSH2 0x30F9 JUMPI PUSH2 0x30F9 PUSH2 0x4D0F JUMP JUMPDEST PUSH1 0x20 ADD ADD SWAP1 PUSH1 0x1 PUSH1 0x1 PUSH1 0xF8 SHL SUB NOT AND SWAP1 DUP2 PUSH1 0x0 BYTE SWAP1 MSTORE8 POP PUSH1 0x0 PUSH2 0x311D DUP5 PUSH1 0x2 PUSH2 0x4DF5 JUMP JUMPDEST PUSH2 0x3128 SWAP1 PUSH1 0x1 PUSH2 0x442C JUMP JUMPDEST SWAP1 POP JUMPDEST PUSH1 0x1 DUP2 GT ISZERO PUSH2 0x31AD JUMPI PUSH32 0x3031323334353637383961626364656600000000000000000000000000000000 DUP6 PUSH1 0xF AND PUSH1 0x10 DUP2 LT PUSH2 0x3169 JUMPI PUSH2 0x3169 PUSH2 0x4D0F JUMP JUMPDEST BYTE PUSH1 0xF8 SHL DUP3 DUP3 DUP2 MLOAD DUP2 LT PUSH2 0x317F JUMPI PUSH2 0x317F PUSH2 0x4D0F JUMP JUMPDEST PUSH1 0x20 ADD ADD SWAP1 PUSH1 0x1 PUSH1 0x1 PUSH1 0xF8 SHL SUB NOT AND SWAP1 DUP2 PUSH1 0x0 BYTE SWAP1 MSTORE8 POP PUSH1 0x4 SWAP5 SWAP1 SWAP5 SHR SWAP4 PUSH2 0x31A6 DUP2 PUSH2 0x4E14 JUMP JUMPDEST SWAP1 POP PUSH2 0x312B JUMP JUMPDEST POP DUP4 ISZERO PUSH2 0x31FC JUMPI PUSH1 0x40 MLOAD PUSH3 0x461BCD PUSH1 0xE5 SHL DUP2 MSTORE PUSH1 0x20 PUSH1 0x4 DUP3 ADD DUP2 SWAP1 MSTORE PUSH1 0x24 DUP3 ADD MSTORE PUSH32 0x537472696E67733A20686578206C656E67746820696E73756666696369656E74 PUSH1 0x44 DUP3 ADD MSTORE PUSH1 0x64 ADD PUSH2 0x697 JUMP JUMPDEST SWAP4 SWAP3 POP POP POP JUMP JUMPDEST PUSH1 0x1 PUSH1 0x1 PUSH1 0xA0 SHL SUB DUP3 AND PUSH2 0x3259 JUMPI PUSH1 0x40 MLOAD PUSH3 0x461BCD PUSH1 0xE5 SHL DUP2 MSTORE PUSH1 0x20 PUSH1 0x4 DUP3 ADD DUP2 SWAP1 MSTORE PUSH1 0x24 DUP3 ADD MSTORE PUSH32 0x4552433732313A206D696E7420746F20746865207A65726F2061646472657373 PUSH1 0x44 DUP3 ADD MSTORE PUSH1 0x64 ADD PUSH2 0x697 JUMP JUMPDEST PUSH1 0x0 DUP2 DUP2 MSTORE PUSH1 0x2 PUSH1 0x20 MSTORE PUSH1 0x40 SWAP1 KECCAK256 SLOAD PUSH1 0x1 PUSH1 0x1 PUSH1 0xA0 SHL SUB AND ISZERO PUSH2 0x32BE JUMPI PUSH1 0x40 MLOAD PUSH3 0x461BCD PUSH1 0xE5 SHL DUP2 MSTORE PUSH1 0x20 PUSH1 0x4 DUP3 ADD MSTORE PUSH1 0x1C PUSH1 0x24 DUP3 ADD MSTORE PUSH32 0x4552433732313A20746F6B656E20616C7265616479206D696E74656400000000 PUSH1 0x44 DUP3 ADD MSTORE PUSH1 0x64 ADD PUSH2 0x697 JUMP JUMPDEST PUSH1 0x1 PUSH1 0x1 PUSH1 0xA0 SHL SUB DUP3 AND PUSH1 0x0 SWAP1 DUP2 MSTORE PUSH1 0x3 PUSH1 0x20 MSTORE PUSH1 0x40 DUP2 KECCAK256 DUP1 SLOAD PUSH1 0x1 SWAP3 SWAP1 PUSH2 0x32E7 SWAP1 DUP5 SWAP1 PUSH2 0x442C JUMP JUMPDEST SWAP1 SWAP2 SSTORE POP POP PUSH1 0x0 DUP2 DUP2 MSTORE PUSH1 0x2 PUSH1 0x20 MSTORE PUSH1 0x40 DUP1 DUP3 KECCAK256 DUP1 SLOAD PUSH20 0xFFFFFFFFFFFFFFFFFFFFFFFFFFFFFFFFFFFFFFFF NOT AND PUSH1 0x1 PUSH1 0x1 PUSH1 0xA0 SHL SUB DUP7 AND SWAP1 DUP2 OR SWAP1 SWAP2 SSTORE SWAP1 MLOAD DUP4 SWAP3 SWAP1 PUSH32 0xDDF252AD1BE2C89B69C2B068FC378DAA952BA7F163C4A11628F55A4DF523B3EF SWAP1 DUP3 SWAP1 LOG4 POP POP JUMP JUMPDEST DUP3 DUP1 SLOAD PUSH2 0x335E SWAP1 PUSH2 0x39FF JUMP JUMPDEST SWAP1 PUSH1 0x0 MSTORE PUSH1 0x20 PUSH1 0x0 KECCAK256 SWAP1 PUSH1 0x1F ADD PUSH1 0x20 SWAP1 DIV DUP2 ADD SWAP3 DUP3 PUSH2 0x3380 JUMPI PUSH1 0x0 DUP6 SSTORE PUSH2 0x33C6 JUMP JUMPDEST DUP3 PUSH1 0x1F LT PUSH2 0x3399 JUMPI DUP1 MLOAD PUSH1 0xFF NOT AND DUP4 DUP1 ADD OR DUP6 SSTORE PUSH2 0x33C6 JUMP JUMPDEST DUP3 DUP1 ADD PUSH1 0x1 ADD DUP6 SSTORE DUP3 ISZERO PUSH2 0x33C6 JUMPI SWAP2 DUP3 ADD JUMPDEST DUP3 DUP2 GT ISZERO PUSH2 0x33C6 JUMPI DUP3 MLOAD DUP3 SSTORE SWAP2 PUSH1 0x20 ADD SWAP2 SWAP1 PUSH1 0x1 ADD SWAP1 PUSH2 0x33AB JUMP JUMPDEST POP PUSH2 0x33D2 SWAP3 SWAP2 POP PUSH2 0x33D6 JUMP JUMPDEST POP SWAP1 JUMP JUMPDEST JUMPDEST DUP1 DUP3 GT ISZERO PUSH2 0x33D2 JUMPI PUSH1 0x0 DUP2 SSTORE PUSH1 0x1 ADD PUSH2 0x33D7 JUMP JUMPDEST PUSH4 0x4E487B71 PUSH1 0xE0 SHL PUSH1 0x0 MSTORE PUSH1 0x41 PUSH1 0x4 MSTORE PUSH1 0x24 PUSH1 0x0 REVERT JUMPDEST PUSH1 0x0 PUSH8 0xFFFFFFFFFFFFFFFF DUP1 DUP5 GT ISZERO PUSH2 0x341C JUMPI PUSH2 0x341C PUSH2 0x33EB JUMP JUMPDEST PUSH1 0x40 MLOAD PUSH1 0x1F DUP6 ADD PUSH1 0x1F NOT SWAP1 DUP2 AND PUSH1 0x3F ADD AND DUP2 ADD SWAP1 DUP3 DUP3 GT DUP2 DUP4 LT OR ISZERO PUSH2 0x3444 JUMPI PUSH2 0x3444 PUSH2 0x33EB JUMP JUMPDEST DUP2 PUSH1 0x40 MSTORE DUP1 SWAP4 POP DUP6 DUP2 MSTORE DUP7 DUP7 DUP7 ADD GT ISZERO PUSH2 0x345D JUMPI PUSH1 0x0 DUP1 REVERT JUMPDEST DUP6 DUP6 PUSH1 0x20 DUP4 ADD CALLDATACOPY PUSH1 0x0 PUSH1 0x20 DUP8 DUP4 ADD ADD MSTORE POP POP POP SWAP4 SWAP3 POP POP POP JUMP JUMPDEST PUSH1 0x0 DUP3 PUSH1 0x1F DUP4 ADD SLT PUSH2 0x3488 JUMPI PUSH1 0x0 DUP1 REVERT JUMPDEST PUSH2 0x31FC DUP4 DUP4 CALLDATALOAD PUSH1 0x20 DUP6 ADD PUSH2 0x3401 JUMP JUMPDEST PUSH1 0x0 DUP1 PUSH1 0x0 PUSH1 0x60 DUP5 DUP7 SUB SLT ISZERO PUSH2 0x34AC JUMPI PUSH1 0x0 DUP1 REVERT JUMPDEST DUP4 CALLDATALOAD SWAP3 POP PUSH1 0x20 DUP5 ADD CALLDATALOAD SWAP2 POP PUSH1 0x40 DUP5 ADD CALLDATALOAD PUSH8 0xFFFFFFFFFFFFFFFF DUP2 GT ISZERO PUSH2 0x34D1 JUMPI PUSH1 0x0 DUP1 REVERT JUMPDEST PUSH2 0x34DD DUP7 DUP3 DUP8 ADD PUSH2 0x3477 JUMP JUMPDEST SWAP2 POP POP SWAP3 POP SWAP3 POP SWAP3 JUMP JUMPDEST PUSH1 0x1 PUSH1 0x1 PUSH1 0xE0 SHL SUB NOT DUP2 AND DUP2 EQ PUSH2 0x27DA JUMPI PUSH1 0x0 DUP1 REVERT JUMPDEST PUSH1 0x0 PUSH1 0x20 DUP3 DUP5 SUB SLT ISZERO PUSH2 0x350F JUMPI PUSH1 0x0 DUP1 REVERT JUMPDEST DUP2 CALLDATALOAD PUSH2 0x31FC DUP2 PUSH2 0x34E7 JUMP JUMPDEST PUSH1 0x0 JUMPDEST DUP4 DUP2 LT ISZERO PUSH2 0x3535 JUMPI DUP2 DUP2 ADD MLOAD DUP4 DUP3 ADD MSTORE PUSH1 0x20 ADD PUSH2 0x351D JUMP JUMPDEST DUP4 DUP2 GT ISZERO PUSH2 0x2017 JUMPI POP POP PUSH1 0x0 SWAP2 ADD MSTORE JUMP JUMPDEST PUSH1 0x0 DUP2 MLOAD DUP1 DUP5 MSTORE PUSH2 0x355E DUP2 PUSH1 0x20 DUP7 ADD PUSH1 0x20 DUP7 ADD PUSH2 0x351A JUMP JUMPDEST PUSH1 0x1F ADD PUSH1 0x1F NOT AND SWAP3 SWAP1 SWAP3 ADD PUSH1 0x20 ADD SWAP3 SWAP2 POP POP JUMP JUMPDEST PUSH1 0x20 DUP2 MSTORE PUSH1 0x0 PUSH2 0x31FC PUSH1 0x20 DUP4 ADD DUP5 PUSH2 0x3546 JUMP JUMPDEST PUSH1 0x0 PUSH1 0x20 DUP3 DUP5 SUB SLT ISZERO PUSH2 0x3597 JUMPI PUSH1 0x0 DUP1 REVERT JUMPDEST POP CALLDATALOAD SWAP2 SWAP1 POP JUMP JUMPDEST PUSH1 0x1 PUSH1 0x1 PUSH1 0xA0 SHL SUB DUP2 AND DUP2 EQ PUSH2 0x27DA JUMPI PUSH1 0x0 DUP1 REVERT JUMPDEST DUP1 CALLDATALOAD PUSH2 0x35BE DUP2 PUSH2 0x359E JUMP JUMPDEST SWAP2 SWAP1 POP JUMP JUMPDEST PUSH1 0x0 DUP1 PUSH1 0x40 DUP4 DUP6 SUB SLT ISZERO PUSH2 0x35D6 JUMPI PUSH1 0x0 DUP1 REVERT JUMPDEST DUP3 CALLDATALOAD PUSH2 0x35E1 DUP2 PUSH2 0x359E JUMP JUMPDEST SWAP5 PUSH1 0x20 SWAP4 SWAP1 SWAP4 ADD CALLDATALOAD SWAP4 POP POP POP JUMP JUMPDEST PUSH1 0x0 DUP1 PUSH1 0x0 PUSH1 0x60 DUP5 DUP7 SUB SLT ISZERO PUSH2 0x3604 JUMPI PUSH1 0x0 DUP1 REVERT JUMPDEST DUP4 CALLDATALOAD PUSH2 0x360F DUP2 PUSH2 0x359E JUMP JUMPDEST SWAP3 POP PUSH1 0x20 DUP5 ADD CALLDATALOAD PUSH2 0x361F DUP2 PUSH2 0x359E JUMP JUMPDEST SWAP3 SWAP6 SWAP3 SWAP5 POP POP POP PUSH1 0x40 SWAP2 SWAP1 SWAP2 ADD CALLDATALOAD SWAP1 JUMP JUMPDEST PUSH1 0x0 DUP1 PUSH1 0x40 DUP4 DUP6 SUB SLT ISZERO PUSH2 0x3643 JUMPI PUSH1 0x0 DUP1 REVERT JUMPDEST DUP3 CALLDATALOAD SWAP2 POP PUSH1 0x20 DUP4 ADD CALLDATALOAD PUSH8 0xFFFFFFFFFFFFFFFF DUP2 GT ISZERO PUSH2 0x3661 JUMPI PUSH1 0x0 DUP1 REVERT JUMPDEST PUSH2 0x366D DUP6 DUP3 DUP7 ADD PUSH2 0x3477 JUMP JUMPDEST SWAP2 POP POP SWAP3 POP SWAP3 SWAP1 POP JUMP JUMPDEST PUSH1 0x0 DUP1 PUSH1 0x40 DUP4 DUP6 SUB SLT ISZERO PUSH2 0x368A JUMPI PUSH1 0x0 DUP1 REVERT JUMPDEST DUP3 CALLDATALOAD SWAP2 POP PUSH1 0x20 DUP4 ADD CALLDATALOAD PUSH2 0x369C DUP2 PUSH2 0x359E JUMP JUMPDEST DUP1 SWAP2 POP POP SWAP3 POP SWAP3 SWAP1 POP JUMP JUMPDEST PUSH1 0x0 PUSH1 0x20 DUP3 DUP5 SUB SLT ISZERO PUSH2 0x36B9 JUMPI PUSH1 0x0 DUP1 REVERT JUMPDEST DUP2 CALLDATALOAD PUSH8 0xFFFFFFFFFFFFFFFF DUP2 GT ISZERO PUSH2 0x36D0 JUMPI PUSH1 0x0 DUP1 REVERT JUMPDEST PUSH2 0x2730 DUP5 DUP3 DUP6 ADD PUSH2 0x3477 JUMP JUMPDEST PUSH1 0x0 PUSH1 0x20 DUP3 DUP5 SUB SLT ISZERO PUSH2 0x36EE JUMPI PUSH1 0x0 DUP1 REVERT JUMPDEST DUP2 CALLDATALOAD PUSH2 0x31FC DUP2 PUSH2 0x359E JUMP JUMPDEST PUSH1 0x0 DUP1 PUSH1 0x0 DUP1 PUSH1 0x0 DUP1 PUSH1 0x0 DUP1 PUSH1 0x0 PUSH2 0x120 DUP11 DUP13 SUB SLT ISZERO PUSH2 0x3718 JUMPI PUSH1 0x0 DUP1 REVERT JUMPDEST PUSH2 0x3721 DUP11 PUSH2 0x35B3 JUMP JUMPDEST SWAP9 POP PUSH1 0x20 DUP11 ADD CALLDATALOAD PUSH8 0xFFFFFFFFFFFFFFFF DUP1 DUP3 GT ISZERO PUSH2 0x373E JUMPI PUSH1 0x0 DUP1 REVERT JUMPDEST PUSH2 0x374A DUP14 DUP4 DUP15 ADD PUSH2 0x3477 JUMP JUMPDEST SWAP10 POP PUSH1 0x40 DUP13 ADD CALLDATALOAD SWAP2 POP DUP1 DUP3 GT ISZERO PUSH2 0x3760 JUMPI PUSH1 0x0 DUP1 REVERT JUMPDEST PUSH2 0x376C DUP14 DUP4 DUP15 ADD PUSH2 0x3477 JUMP JUMPDEST SWAP9 POP PUSH1 0x60 DUP13 ADD CALLDATALOAD SWAP2 POP DUP1 DUP3 GT ISZERO PUSH2 0x3782 JUMPI PUSH1 0x0 DUP1 REVERT JUMPDEST PUSH2 0x378E DUP14 DUP4 DUP15 ADD PUSH2 0x3477 JUMP JUMPDEST SWAP8 POP PUSH1 0x80 DUP13 ADD CALLDATALOAD SWAP2 POP DUP1 DUP3 GT ISZERO PUSH2 0x37A4 JUMPI PUSH1 0x0 DUP1 REVERT JUMPDEST PUSH2 0x37B0 DUP14 DUP4 DUP15 ADD PUSH2 0x3477 JUMP JUMPDEST SWAP7 POP PUSH1 0xA0 DUP13 ADD CALLDATALOAD SWAP2 POP DUP1 DUP3 GT ISZERO PUSH2 0x37C6 JUMPI PUSH1 0x0 DUP1 REVERT JUMPDEST PUSH2 0x37D2 DUP14 DUP4 DUP15 ADD PUSH2 0x3477 JUMP JUMPDEST SWAP6 POP PUSH1 0xC0 DUP13 ADD CALLDATALOAD SWAP2 POP DUP1 DUP3 GT ISZERO PUSH2 0x37E8 JUMPI PUSH1 0x0 DUP1 REVERT JUMPDEST PUSH2 0x37F4 DUP14 DUP4 DUP15 ADD PUSH2 0x3477 JUMP JUMPDEST SWAP5 POP PUSH1 0xE0 DUP13 ADD CALLDATALOAD SWAP2 POP DUP1 DUP3 GT ISZERO PUSH2 0x380A JUMPI PUSH1 0x0 DUP1 REVERT JUMPDEST PUSH2 0x3816 DUP14 DUP4 DUP15 ADD PUSH2 0x3477 JUMP JUMPDEST SWAP4 POP PUSH2 0x100 DUP13 ADD CALLDATALOAD SWAP2 POP DUP1 DUP3 GT ISZERO PUSH2 0x382D JUMPI PUSH1 0x0 DUP1 REVERT JUMPDEST POP PUSH2 0x383A DUP13 DUP3 DUP14 ADD PUSH2 0x3477 JUMP JUMPDEST SWAP2 POP POP SWAP3 SWAP6 SWAP9 POP SWAP3 SWAP6 SWAP9 POP SWAP3 SWAP6 SWAP9 JUMP JUMPDEST PUSH1 0x0 DUP1 PUSH1 0x0 DUP1 PUSH1 0x0 PUSH1 0xA0 DUP7 DUP9 SUB SLT ISZERO PUSH2 0x3862 JUMPI PUSH1 0x0 DUP1 REVERT JUMPDEST DUP6 CALLDATALOAD SWAP5 POP PUSH1 0x20 DUP7 ADD CALLDATALOAD PUSH8 0xFFFFFFFFFFFFFFFF DUP1 DUP3 GT ISZERO PUSH2 0x3881 JUMPI PUSH1 0x0 DUP1 REVERT JUMPDEST PUSH2 0x388D DUP10 DUP4 DUP11 ADD PUSH2 0x3477 JUMP JUMPDEST SWAP6 POP PUSH1 0x40 DUP9 ADD CALLDATALOAD SWAP2 POP DUP1 DUP3 GT ISZERO PUSH2 0x38A3 JUMPI PUSH1 0x0 DUP1 REVERT JUMPDEST PUSH2 0x38AF DUP10 DUP4 DUP11 ADD PUSH2 0x3477 JUMP JUMPDEST SWAP5 POP PUSH1 0x60 DUP9 ADD CALLDATALOAD SWAP2 POP DUP1 DUP3 GT ISZERO PUSH2 0x38C5 JUMPI PUSH1 0x0 DUP1 REVERT JUMPDEST PUSH2 0x38D1 DUP10 DUP4 DUP11 ADD PUSH2 0x3477 JUMP JUMPDEST SWAP4 POP PUSH1 0x80 DUP9 ADD CALLDATALOAD SWAP2 POP DUP1 DUP3 GT ISZERO PUSH2 0x38E7 JUMPI PUSH1 0x0 DUP1 REVERT JUMPDEST POP PUSH2 0x38F4 DUP9 DUP3 DUP10 ADD PUSH2 0x3477 JUMP JUMPDEST SWAP2 POP POP SWAP3 SWAP6 POP SWAP3 SWAP6 SWAP1 SWAP4 POP JUMP JUMPDEST PUSH1 0x0 DUP1 PUSH1 0x40 DUP4 DUP6 SUB SLT ISZERO PUSH2 0x3914 JUMPI PUSH1 0x0 DUP1 REVERT JUMPDEST DUP3 CALLDATALOAD PUSH2 0x391F DUP2 PUSH2 0x359E JUMP JUMPDEST SWAP2 POP PUSH1 0x20 DUP4 ADD CALLDATALOAD DUP1 ISZERO ISZERO DUP2 EQ PUSH2 0x369C JUMPI PUSH1 0x0 DUP1 REVERT JUMPDEST PUSH1 0x0 DUP1 PUSH1 0x0 DUP1 PUSH1 0x80 DUP6 DUP8 SUB SLT ISZERO PUSH2 0x394A JUMPI PUSH1 0x0 DUP1 REVERT JUMPDEST DUP5 CALLDATALOAD PUSH2 0x3955 DUP2 PUSH2 0x359E JUMP JUMPDEST SWAP4 POP PUSH1 0x20 DUP6 ADD CALLDATALOAD PUSH2 0x3965 DUP2 PUSH2 0x359E JUMP JUMPDEST SWAP3 POP PUSH1 0x40 DUP6 ADD CALLDATALOAD SWAP2 POP PUSH1 0x60 DUP6 ADD CALLDATALOAD PUSH8 0xFFFFFFFFFFFFFFFF DUP2 GT ISZERO PUSH2 0x3988 JUMPI PUSH1 0x0 DUP1 REVERT JUMPDEST DUP6 ADD PUSH1 0x1F DUP2 ADD DUP8 SGT PUSH2 0x3999 JUMPI PUSH1 0x0 DUP1 REVERT JUMPDEST PUSH2 0x39A8 DUP8 DUP3 CALLDATALOAD PUSH1 0x20 DUP5 ADD PUSH2 0x3401 JUMP JUMPDEST SWAP2 POP POP SWAP3 SWAP6 SWAP2 SWAP5 POP SWAP3 POP JUMP JUMPDEST PUSH1 0x0 DUP1 PUSH1 0x40 DUP4 DUP6 SUB SLT ISZERO PUSH2 0x39C7 JUMPI PUSH1 0x0 DUP1 REVERT JUMPDEST DUP3 CALLDATALOAD PUSH2 0x39D2 DUP2 PUSH2 0x359E JUMP JUMPDEST SWAP2 POP PUSH1 0x20 DUP4 ADD CALLDATALOAD PUSH2 0x369C DUP2 PUSH2 0x359E JUMP JUMPDEST PUSH1 0x0 PUSH1 0x20 DUP3 DUP5 SUB SLT ISZERO PUSH2 0x39F4 JUMPI PUSH1 0x0 DUP1 REVERT JUMPDEST DUP2 MLOAD PUSH2 0x31FC DUP2 PUSH2 0x359E JUMP JUMPDEST PUSH1 0x1 DUP2 DUP2 SHR SWAP1 DUP3 AND DUP1 PUSH2 0x3A13 JUMPI PUSH1 0x7F DUP3 AND SWAP2 POP JUMPDEST PUSH1 0x20 DUP3 LT DUP2 EQ ISZERO PUSH2 0x3A34 JUMPI PUSH4 0x4E487B71 PUSH1 0xE0 SHL PUSH1 0x0 MSTORE PUSH1 0x22 PUSH1 0x4 MSTORE PUSH1 0x24 PUSH1 0x0 REVERT JUMPDEST POP SWAP2 SWAP1 POP JUMP JUMPDEST DUP1 SLOAD PUSH1 0x0 SWAP1 PUSH1 0x1 DUP2 DUP2 SHR SWAP1 DUP1 DUP4 AND DUP1 PUSH2 0x3A54 JUMPI PUSH1 0x7F DUP4 AND SWAP3 POP JUMPDEST PUSH1 0x20 DUP1 DUP5 LT DUP3 EQ ISZERO PUSH2 0x3A76 JUMPI PUSH4 0x4E487B71 PUSH1 0xE0 SHL PUSH1 0x0 MSTORE PUSH1 0x22 PUSH1 0x4 MSTORE PUSH1 0x24 PUSH1 0x0 REVERT JUMPDEST DUP2 DUP1 ISZERO PUSH2 0x3A8A JUMPI PUSH1 0x1 DUP2 EQ PUSH2 0x3A9B JUMPI PUSH2 0x3AC8 JUMP JUMPDEST PUSH1 0xFF NOT DUP7 AND DUP10 MSTORE DUP5 DUP10 ADD SWAP7 POP PUSH2 0x3AC8 JUMP JUMPDEST PUSH1 0x0 DUP9 DUP2 MSTORE PUSH1 0x20 SWAP1 KECCAK256 PUSH1 0x0 JUMPDEST DUP7 DUP2 LT ISZERO PUSH2 0x3AC0 JUMPI DUP2 SLOAD DUP12 DUP3 ADD MSTORE SWAP1 DUP6 ADD SWAP1 DUP4 ADD PUSH2 0x3AA7 JUMP JUMPDEST POP POP DUP5 DUP10 ADD SWAP7 POP JUMPDEST POP POP POP POP POP POP SWAP3 SWAP2 POP POP JUMP JUMPDEST PUSH1 0x0 DUP2 MLOAD PUSH2 0x3AE6 DUP2 DUP6 PUSH1 0x20 DUP7 ADD PUSH2 0x351A JUMP JUMPDEST SWAP3 SWAP1 SWAP3 ADD SWAP3 SWAP2 POP POP JUMP JUMPDEST PUSH7 0x2AA82220AA229 PUSH1 0xCD SHL DUP2 MSTORE PUSH1 0x0 PUSH2 0x3B0C PUSH1 0x7 DUP4 ADD DUP8 PUSH2 0x3A3A JUMP JUMPDEST PUSH32 0x205345542076616C7565203D2027000000000000000000000000000000000000 DUP2 MSTORE DUP6 MLOAD PUSH2 0x3B42 DUP2 PUSH1 0xE DUP5 ADD PUSH1 0x20 DUP11 ADD PUSH2 0x351A JUMP JUMPDEST PUSH32 0x27205748455245206D61696E7461626C655F746F6B656E6964203D2000000000 PUSH1 0xE SWAP3 SWAP1 SWAP2 ADD SWAP2 DUP3 ADD MSTORE DUP5 MLOAD PUSH2 0x3B80 DUP2 PUSH1 0x2A DUP5 ADD PUSH1 0x20 DUP10 ADD PUSH2 0x351A JUMP JUMPDEST PUSH16 0x1020A722103A3930B4BA2FB4B2101E9 PUSH1 0x85 SHL PUSH1 0x2A SWAP3 SWAP1 SWAP2 ADD SWAP2 DUP3 ADD MSTORE DUP4 MLOAD PUSH2 0x3BB1 DUP2 PUSH1 0x3A DUP5 ADD PUSH1 0x20 DUP9 ADD PUSH2 0x351A JUMP JUMPDEST PUSH1 0x3B PUSH1 0xF8 SHL PUSH1 0x3A SWAP3 SWAP1 SWAP2 ADD SWAP2 DUP3 ADD MSTORE PUSH1 0x3B ADD SWAP7 SWAP6 POP POP POP POP POP POP JUMP JUMPDEST PUSH1 0x1 PUSH1 0x1 PUSH1 0xA0 SHL SUB DUP5 AND DUP2 MSTORE DUP3 PUSH1 0x20 DUP3 ADD MSTORE PUSH1 0x60 PUSH1 0x40 DUP3 ADD MSTORE PUSH1 0x0 PUSH2 0x3BF5 PUSH1 0x60 DUP4 ADD DUP5 PUSH2 0x3546 JUMP JUMPDEST SWAP6 SWAP5 POP POP POP POP POP JUMP JUMPDEST DUP6 DUP2 MSTORE DUP5 PUSH1 0x20 DUP3 ADD MSTORE PUSH1 0xA0 PUSH1 0x40 DUP3 ADD MSTORE PUSH1 0x0 PUSH2 0x3C1D PUSH1 0xA0 DUP4 ADD DUP7 PUSH2 0x3546 JUMP JUMPDEST PUSH1 0x60 DUP4 ADD SWAP5 SWAP1 SWAP5 MSTORE POP PUSH1 0x80 ADD MSTORE SWAP4 SWAP3 POP POP POP JUMP JUMPDEST PUSH1 0x0 DUP4 MLOAD PUSH2 0x3C43 DUP2 DUP5 PUSH1 0x20 DUP9 ADD PUSH2 0x351A JUMP JUMPDEST PUSH32 0x756E777261703D7472756526657874726163743D66616C736526733D00000000 SWAP1 DUP4 ADD SWAP1 DUP2 MSTORE PUSH32 0x53454C4543542532302A25323046524F4D253230000000000000000000000000 PUSH1 0x1C DUP3 ADD MSTORE PUSH2 0x3BF5 PUSH1 0x30 DUP3 ADD DUP6 PUSH2 0x3A3A JUMP JUMPDEST PUSH7 0x2AA82220AA229 PUSH1 0xCD SHL DUP2 MSTORE PUSH1 0x0 PUSH2 0x3CB9 PUSH1 0x7 DUP4 ADD DUP7 PUSH2 0x3A3A JUMP JUMPDEST PUSH32 0x2053455420696D616765203D2027000000000000000000000000000000000000 DUP2 MSTORE DUP5 MLOAD PUSH2 0x3CEF DUP2 PUSH1 0xE DUP5 ADD PUSH1 0x20 DUP10 ADD PUSH2 0x351A JUMP JUMPDEST DUP1 DUP3 ADD SWAP2 POP POP PUSH18 0x13902BA422A922903A37B5B2B734B2101E9 PUSH1 0x75 SHL PUSH1 0xE DUP3 ADD MSTORE DUP4 MLOAD PUSH2 0x3D23 DUP2 PUSH1 0x20 DUP5 ADD PUSH1 0x20 DUP9 ADD PUSH2 0x351A JUMP JUMPDEST PUSH1 0x3B PUSH1 0xF8 SHL PUSH1 0x20 SWAP3 SWAP1 SWAP2 ADD SWAP2 DUP3 ADD MSTORE PUSH1 0x21 ADD SWAP6 SWAP5 POP POP POP POP POP JUMP JUMPDEST DUP5 DUP2 MSTORE DUP4 PUSH1 0x20 DUP3 ADD MSTORE PUSH1 0x80 PUSH1 0x40 DUP3 ADD MSTORE PUSH1 0x0 PUSH2 0x3D5D PUSH1 0x80 DUP4 ADD DUP6 PUSH2 0x3546 JUMP JUMPDEST SWAP1 POP DUP3 PUSH1 0x60 DUP4 ADD MSTORE SWAP6 SWAP5 POP POP POP POP POP JUMP JUMPDEST PUSH7 0x2AA82220AA229 PUSH1 0xCD SHL DUP2 MSTORE PUSH1 0x0 PUSH2 0x3D8A PUSH1 0x7 DUP4 ADD DUP8 PUSH2 0x3A3A JUMP JUMPDEST PUSH32 0x205345542074726169745F74797065203D202700000000000000000000000000 DUP2 MSTORE DUP6 MLOAD PUSH2 0x3DC0 DUP2 PUSH1 0x13 DUP5 ADD PUSH1 0x20 DUP11 ADD PUSH2 0x351A JUMP JUMPDEST PUSH32 0x27205748455245206D61696E7461626C655F746F6B656E6964203D2000000000 PUSH1 0x13 SWAP3 SWAP1 SWAP2 ADD SWAP2 DUP3 ADD MSTORE DUP5 MLOAD PUSH2 0x3DFE DUP2 PUSH1 0x2F DUP5 ADD PUSH1 0x20 DUP10 ADD PUSH2 0x351A JUMP JUMPDEST PUSH16 0x1020A722103A3930B4BA2FB4B2101E9 PUSH1 0x85 SHL PUSH1 0x2F SWAP3 SWAP1 SWAP2 ADD SWAP2 DUP3 ADD MSTORE DUP4 MLOAD PUSH2 0x3E2F DUP2 PUSH1 0x3F DUP5 ADD PUSH1 0x20 DUP9 ADD PUSH2 0x351A JUMP JUMPDEST PUSH1 0x3B PUSH1 0xF8 SHL PUSH1 0x3F SWAP3 SWAP1 SWAP2 ADD SWAP2 DUP3 ADD MSTORE PUSH1 0x40 ADD SWAP7 SWAP6 POP POP POP POP POP POP JUMP JUMPDEST PUSH7 0x2AA82220AA229 PUSH1 0xCD SHL DUP2 MSTORE PUSH1 0x0 PUSH2 0x3E67 PUSH1 0x7 DUP4 ADD DUP7 PUSH2 0x3A3A JUMP JUMPDEST PUSH32 0x2053455420616E696D6174696F6E5F75726C203D202700000000000000000000 DUP2 MSTORE DUP5 MLOAD PUSH2 0x3E9D DUP2 PUSH1 0x16 DUP5 ADD PUSH1 0x20 DUP10 ADD PUSH2 0x351A JUMP JUMPDEST PUSH18 0x13902BA422A922903A37B5B2B734B2101E9 PUSH1 0x75 SHL PUSH1 0x16 SWAP3 SWAP1 SWAP2 ADD SWAP2 DUP3 ADD MSTORE DUP4 MLOAD PUSH2 0x3ED0 DUP2 PUSH1 0x28 DUP5 ADD PUSH1 0x20 DUP9 ADD PUSH2 0x351A JUMP JUMPDEST PUSH1 0x3B PUSH1 0xF8 SHL PUSH1 0x28 SWAP3 SWAP1 SWAP2 ADD SWAP2 DUP3 ADD MSTORE PUSH1 0x29 ADD SWAP6 SWAP5 POP POP POP POP POP JUMP JUMPDEST PUSH7 0x2AA82220AA229 PUSH1 0xCD SHL DUP2 MSTORE PUSH1 0x0 PUSH2 0x3F07 PUSH1 0x7 DUP4 ADD DUP7 PUSH2 0x3A3A JUMP JUMPDEST PUSH32 0x20534554206465736372697074696F6E203D2027000000000000000000000000 DUP2 MSTORE DUP5 MLOAD PUSH2 0x3F3D DUP2 PUSH1 0x14 DUP5 ADD PUSH1 0x20 DUP10 ADD PUSH2 0x351A JUMP JUMPDEST PUSH18 0x13902BA422A922903A37B5B2B734B2101E9 PUSH1 0x75 SHL PUSH1 0x14 SWAP3 SWAP1 SWAP2 ADD SWAP2 DUP3 ADD MSTORE DUP4 MLOAD PUSH2 0x3F70 DUP2 PUSH1 0x26 DUP5 ADD PUSH1 0x20 DUP9 ADD PUSH2 0x351A JUMP JUMPDEST PUSH1 0x3B PUSH1 0xF8 SHL PUSH1 0x26 SWAP3 SWAP1 SWAP2 ADD SWAP2 DUP3 ADD MSTORE PUSH1 0x27 ADD SWAP6 SWAP5 POP POP POP POP POP JUMP JUMPDEST PUSH7 0x2AA82220AA229 PUSH1 0xCD SHL DUP2 MSTORE PUSH1 0x0 PUSH2 0x3FA7 PUSH1 0x7 DUP4 ADD DUP8 PUSH2 0x3A3A JUMP JUMPDEST PUSH32 0x205345542069636F6E203D202700000000000000000000000000000000000000 DUP2 MSTORE DUP6 MLOAD PUSH2 0x3FDD DUP2 PUSH1 0xD DUP5 ADD PUSH1 0x20 DUP11 ADD PUSH2 0x351A JUMP JUMPDEST PUSH32 0x27205748455245206D61696E7461626C655F746F6B656E6964203D2000000000 PUSH1 0xD SWAP3 SWAP1 SWAP2 ADD SWAP2 DUP3 ADD MSTORE DUP5 MLOAD PUSH2 0x401B DUP2 PUSH1 0x29 DUP5 ADD PUSH1 0x20 DUP10 ADD PUSH2 0x351A JUMP JUMPDEST PUSH16 0x1020A722103A3930B4BA2FB4B2101E9 PUSH1 0x85 SHL PUSH1 0x29 SWAP3 SWAP1 SWAP2 ADD SWAP2 DUP3 ADD MSTORE DUP4 MLOAD PUSH2 0x404C DUP2 PUSH1 0x39 DUP5 ADD PUSH1 0x20 DUP9 ADD PUSH2 0x351A JUMP JUMPDEST PUSH1 0x3B PUSH1 0xF8 SHL PUSH1 0x39 SWAP3 SWAP1 SWAP2 ADD SWAP2 DUP3 ADD MSTORE PUSH1 0x3A ADD SWAP7 SWAP6 POP POP POP POP POP POP JUMP JUMPDEST PUSH7 0x2AA82220AA229 PUSH1 0xCD SHL DUP2 MSTORE PUSH1 0x0 PUSH2 0x4084 PUSH1 0x7 DUP4 ADD DUP7 PUSH2 0x3A3A JUMP JUMPDEST PUSH32 0x205345542065787465726E616C5F75726C203D20270000000000000000000000 DUP2 MSTORE DUP5 MLOAD PUSH2 0x40BA DUP2 PUSH1 0x15 DUP5 ADD PUSH1 0x20 DUP10 ADD PUSH2 0x351A JUMP JUMPDEST PUSH18 0x13902BA422A922903A37B5B2B734B2101E9 PUSH1 0x75 SHL PUSH1 0x15 SWAP3 SWAP1 SWAP2 ADD SWAP2 DUP3 ADD MSTORE DUP4 MLOAD PUSH2 0x40ED DUP2 PUSH1 0x27 DUP5 ADD PUSH1 0x20 DUP9 ADD PUSH2 0x351A JUMP JUMPDEST PUSH1 0x3B PUSH1 0xF8 SHL PUSH1 0x27 SWAP3 SWAP1 SWAP2 ADD SWAP2 DUP3 ADD MSTORE PUSH1 0x28 ADD SWAP6 SWAP5 POP POP POP POP POP JUMP JUMPDEST PUSH7 0x2AA82220AA229 PUSH1 0xCD SHL DUP2 MSTORE PUSH1 0x0 PUSH2 0x4124 PUSH1 0x7 DUP4 ADD DUP7 PUSH2 0x3A3A JUMP JUMPDEST PUSH32 0x2053455420796F75747562655F75726C203D2027000000000000000000000000 DUP2 MSTORE DUP5 MLOAD PUSH2 0x3F3D DUP2 PUSH1 0x14 DUP5 ADD PUSH1 0x20 DUP10 ADD PUSH2 0x351A JUMP JUMPDEST PUSH7 0x2AA82220AA229 PUSH1 0xCD SHL DUP2 MSTORE PUSH1 0x0 PUSH2 0x4176 PUSH1 0x7 DUP4 ADD DUP7 PUSH2 0x3A3A JUMP JUMPDEST PUSH32 0x20534554206E616D65203D202700000000000000000000000000000000000000 DUP2 MSTORE DUP5 MLOAD PUSH2 0x41AC DUP2 PUSH1 0xD DUP5 ADD PUSH1 0x20 DUP10 ADD PUSH2 0x351A JUMP JUMPDEST PUSH18 0x13902BA422A922903A37B5B2B734B2101E9 PUSH1 0x75 SHL PUSH1 0xD SWAP3 SWAP1 SWAP2 ADD SWAP2 DUP3 ADD MSTORE DUP4 MLOAD PUSH2 0x41DF DUP2 PUSH1 0x1F DUP5 ADD PUSH1 0x20 DUP9 ADD PUSH2 0x351A JUMP JUMPDEST PUSH1 0x3B PUSH1 0xF8 SHL PUSH1 0x1F SWAP3 SWAP1 SWAP2 ADD SWAP2 DUP3 ADD MSTORE PUSH1 0x20 ADD SWAP6 SWAP5 POP POP POP POP POP JUMP JUMPDEST PUSH12 0x24A729A2A92A1024A72A279 PUSH1 0xA5 SHL DUP2 MSTORE PUSH1 0x0 PUSH2 0x421B PUSH1 0xC DUP4 ADD DUP10 PUSH2 0x3A3A JUMP JUMPDEST PUSH32 0x2028746F6B656E69642C206E616D652C206465736372697074696F6E2C20696D DUP2 MSTORE PUSH32 0x6167652C2063617465676F7279292056414C5545532028270000000000000000 PUSH1 0x20 DUP3 ADD MSTORE DUP8 MLOAD PUSH2 0x4277 DUP2 PUSH1 0x38 DUP5 ADD PUSH1 0x20 DUP13 ADD PUSH2 0x351A JUMP JUMPDEST DUP1 DUP3 ADD SWAP2 POP POP PUSH4 0x272C2027 PUSH1 0xE0 SHL DUP1 PUSH1 0x38 DUP4 ADD MSTORE DUP8 MLOAD PUSH2 0x429E DUP2 PUSH1 0x3C DUP6 ADD PUSH1 0x20 DUP13 ADD PUSH2 0x351A JUMP JUMPDEST PUSH1 0x3C SWAP3 ADD SWAP2 DUP3 ADD MSTORE DUP6 MLOAD PUSH2 0x42B9 DUP2 PUSH1 0x40 DUP5 ADD PUSH1 0x20 DUP11 ADD PUSH2 0x351A JUMP JUMPDEST ADD PUSH2 0x42CD PUSH1 0x40 DUP3 ADD PUSH4 0x272C2027 PUSH1 0xE0 SHL SWAP1 MSTORE JUMP JUMPDEST PUSH2 0x42DA PUSH1 0x44 DUP3 ADD DUP7 PUSH2 0x3AD4 JUMP JUMPDEST PUSH4 0x272C2027 PUSH1 0xE0 SHL DUP2 MSTORE SWAP1 POP PUSH2 0x42F3 PUSH1 0x4 DUP3 ADD DUP6 PUSH2 0x3AD4 JUMP JUMPDEST PUSH2 0x2729 PUSH1 0xF0 SHL DUP2 MSTORE PUSH1 0x2 ADD SWAP10 SWAP9 POP POP POP POP POP POP POP POP POP JUMP JUMPDEST PUSH12 0x24A729A2A92A1024A72A279 PUSH1 0xA5 SHL DUP2 MSTORE PUSH1 0x0 PUSH2 0x432C PUSH1 0xC DUP4 ADD DUP10 PUSH2 0x3A3A JUMP JUMPDEST PUSH32 0x20286D61696E7461626C655F746F6B656E69642C2074726169745F69642C2069 DUP2 MSTORE PUSH32 0x636F6E2C20646973706C61795F747970652C2074726169745F747970652C2076 PUSH1 0x20 DUP3 ADD MSTORE PUSH32 0x616C7565292056414C5545532028270000000000000000000000000000000000 PUSH1 0x40 DUP3 ADD MSTORE DUP8 MLOAD PUSH2 0x43AE DUP2 PUSH1 0x4F DUP5 ADD PUSH1 0x20 DUP13 ADD PUSH2 0x351A JUMP JUMPDEST PUSH4 0x272C2027 PUSH1 0xE0 SHL SWAP2 ADD PUSH1 0x4F DUP2 ADD SWAP2 SWAP1 SWAP2 MSTORE PUSH1 0x3 PUSH1 0xFC SHL PUSH1 0x53 DUP3 ADD MSTORE PUSH4 0x272C2027 PUSH1 0xE0 SHL PUSH1 0x54 DUP3 ADD MSTORE PUSH2 0x43E4 PUSH1 0x58 DUP3 ADD DUP9 PUSH2 0x3AD4 JUMP JUMPDEST PUSH4 0x272C2027 PUSH1 0xE0 SHL DUP2 MSTORE SWAP1 POP PUSH2 0x43FD PUSH1 0x4 DUP3 ADD DUP8 PUSH2 0x3AD4 JUMP JUMPDEST PUSH4 0x272C2027 PUSH1 0xE0 SHL DUP2 MSTORE SWAP1 POP PUSH2 0x42DA PUSH1 0x4 DUP3 ADD DUP7 PUSH2 0x3AD4 JUMP JUMPDEST PUSH4 0x4E487B71 PUSH1 0xE0 SHL PUSH1 0x0 MSTORE PUSH1 0x11 PUSH1 0x4 MSTORE PUSH1 0x24 PUSH1 0x0 REVERT JUMPDEST PUSH1 0x0 DUP3 NOT DUP3 GT ISZERO PUSH2 0x443F JUMPI PUSH2 0x443F PUSH2 0x4416 JUMP JUMPDEST POP ADD SWAP1 JUMP JUMPDEST PUSH12 0x24A729A2A92A1024A72A279 PUSH1 0xA5 SHL DUP2 MSTORE PUSH1 0x0 PUSH2 0x4465 PUSH1 0xC DUP4 ADD DUP11 PUSH2 0x3A3A JUMP JUMPDEST PUSH32 0x20286D61696E7461626C655F746F6B656E69642C2074726169745F69642C206C DUP2 MSTORE PUSH32 0x6F636B65642C2069636F6E2C20646973706C61795F747970652C207472616974 PUSH1 0x20 DUP3 ADD MSTORE PUSH32 0x5F747970652C2076616C7565292056414C554553202827000000000000000000 PUSH1 0x40 DUP3 ADD MSTORE DUP9 MLOAD PUSH2 0x44E7 DUP2 PUSH1 0x57 DUP5 ADD PUSH1 0x20 DUP14 ADD PUSH2 0x351A JUMP JUMPDEST ADD PUSH2 0x44FB PUSH1 0x57 DUP3 ADD PUSH4 0x272C2027 PUSH1 0xE0 SHL SWAP1 MSTORE JUMP JUMPDEST PUSH2 0x4508 PUSH1 0x5B DUP3 ADD DUP10 PUSH2 0x3AD4 JUMP JUMPDEST PUSH4 0x272C2027 PUSH1 0xE0 SHL DUP2 MSTORE SWAP1 POP PUSH1 0x3 PUSH1 0xFC SHL PUSH1 0x4 DUP3 ADD MSTORE PUSH4 0x272C2027 PUSH1 0xE0 SHL PUSH1 0x5 DUP3 ADD MSTORE PUSH2 0x4538 PUSH1 0x9 DUP3 ADD DUP9 PUSH2 0x3AD4 JUMP JUMPDEST PUSH4 0x272C2027 PUSH1 0xE0 SHL DUP2 MSTORE SWAP1 POP PUSH2 0x4551 PUSH1 0x4 DUP3 ADD DUP8 PUSH2 0x3AD4 JUMP JUMPDEST PUSH4 0x272C2027 PUSH1 0xE0 SHL DUP2 MSTORE SWAP1 POP PUSH2 0x456A PUSH1 0x4 DUP3 ADD DUP7 PUSH2 0x3AD4 JUMP JUMPDEST PUSH4 0x272C2027 PUSH1 0xE0 SHL DUP2 MSTORE SWAP1 POP PUSH2 0x4583 PUSH1 0x4 DUP3 ADD DUP6 PUSH2 0x3AD4 JUMP JUMPDEST PUSH2 0x2729 PUSH1 0xF0 SHL DUP2 MSTORE PUSH1 0x2 ADD SWAP11 SWAP10 POP POP POP POP POP POP POP POP POP POP JUMP JUMPDEST PUSH7 0x2AA82220AA229 PUSH1 0xCD SHL DUP2 MSTORE PUSH1 0x0 PUSH2 0x45B8 PUSH1 0x7 DUP4 ADD DUP8 PUSH2 0x3A3A JUMP JUMPDEST PUSH32 0x20534554206C6F636B6564203D20270000000000000000000000000000000000 DUP2 MSTORE DUP6 MLOAD PUSH2 0x45EE DUP2 PUSH1 0xF DUP5 ADD PUSH1 0x20 DUP11 ADD PUSH2 0x351A JUMP JUMPDEST PUSH32 0x27205748455245206D61696E7461626C655F746F6B656E6964203D2000000000 PUSH1 0xF SWAP3 SWAP1 SWAP2 ADD SWAP2 DUP3 ADD MSTORE DUP5 MLOAD PUSH2 0x462C DUP2 PUSH1 0x2B DUP5 ADD PUSH1 0x20 DUP10 ADD PUSH2 0x351A JUMP JUMPDEST PUSH16 0x1020A722103A3930B4BA2FB4B2101E9 PUSH1 0x85 SHL PUSH1 0x2B SWAP3 SWAP1 SWAP2 ADD SWAP2 DUP3 ADD MSTORE DUP4 MLOAD PUSH2 0x465D DUP2 PUSH1 0x3B DUP5 ADD PUSH1 0x20 DUP9 ADD PUSH2 0x351A JUMP JUMPDEST PUSH1 0x3B PUSH1 0xF8 SHL PUSH1 0x3B SWAP3 SWAP1 SWAP2 ADD SWAP2 DUP3 ADD MSTORE PUSH1 0x3C ADD SWAP7 SWAP6 POP POP POP POP POP POP JUMP JUMPDEST PUSH7 0x2AA82220AA229 PUSH1 0xCD SHL DUP2 MSTORE PUSH1 0x0 PUSH2 0x4695 PUSH1 0x7 DUP4 ADD DUP7 PUSH2 0x3A3A JUMP JUMPDEST PUSH32 0x20534554206261636B67726F756E645F636F6C6F72203D202700000000000000 DUP2 MSTORE DUP5 MLOAD PUSH2 0x46CB DUP2 PUSH1 0x19 DUP5 ADD PUSH1 0x20 DUP10 ADD PUSH2 0x351A JUMP JUMPDEST PUSH18 0x13902BA422A922903A37B5B2B734B2101E9 PUSH1 0x75 SHL PUSH1 0x19 SWAP3 SWAP1 SWAP2 ADD SWAP2 DUP3 ADD MSTORE DUP4 MLOAD PUSH2 0x46FE DUP2 PUSH1 0x2B DUP5 ADD PUSH1 0x20 DUP9 ADD PUSH2 0x351A JUMP JUMPDEST PUSH1 0x3B PUSH1 0xF8 SHL PUSH1 0x2B SWAP3 SWAP1 SWAP2 ADD SWAP2 DUP3 ADD MSTORE PUSH1 0x2C ADD SWAP6 SWAP5 POP POP POP POP POP JUMP JUMPDEST PUSH32 0x53454C4543542532306A736F6E5F6F626A656374253238253237696425323725 DUP2 MSTORE PUSH32 0x3243746F6B656E69642532432532376E616D652532372532436E616D65253243 PUSH1 0x20 DUP3 ADD MSTORE PUSH32 0x2532376465736372697074696F6E2532372532436465736372697074696F6E25 PUSH1 0x40 DUP3 ADD MSTORE PUSH32 0x3243253237696D616765253237253243696D6167652532432532376361746567 PUSH1 0x60 DUP3 ADD MSTORE PUSH32 0x6F727925323725324363617465676F727925324325323765787465726E616C5F PUSH1 0x80 DUP3 ADD MSTORE PUSH32 0x75726C25323725324365787465726E616C5F75726C2532432532376261636B67 PUSH1 0xA0 DUP3 ADD MSTORE PUSH32 0x726F756E645F636F6C6F722532372532436261636B67726F756E645F636F6C6F PUSH1 0xC0 DUP3 ADD MSTORE PUSH32 0x72253243253237616E696D6174696F6E5F75726C253237253243616E696D6174 PUSH1 0xE0 DUP3 ADD MSTORE PUSH32 0x696F6E5F75726C253243253237796F75747562655F75726C253237253243796F PUSH2 0x100 DUP3 ADD MSTORE PUSH32 0x75747562655F75726C253243253237617474726962757465732532372532436A PUSH2 0x120 DUP3 ADD MSTORE PUSH32 0x736F6E5F67726F75705F61727261792532386A736F6E5F6F626A656374253238 PUSH2 0x140 DUP3 ADD MSTORE PUSH32 0x2532376C6F636B65642532372532436C6F636B656425324325323769636F6E25 PUSH2 0x160 DUP3 ADD MSTORE PUSH32 0x323725324369636F6E253243253237646973706C61795F747970652532372532 PUSH2 0x180 DUP3 ADD MSTORE PUSH32 0x43646973706C61795F7479706525324325323774726169745F74797065253237 PUSH2 0x1A0 DUP3 ADD MSTORE PUSH32 0x25324374726169745F7479706525324325323776616C75652532372532437661 PUSH2 0x1C0 DUP3 ADD MSTORE PUSH32 0x6C756525323925323925323925323046524F4D25323000000000000000000000 PUSH2 0x1E0 DUP3 ADD MSTORE PUSH1 0x0 PUSH2 0x4A7F PUSH2 0x4A30 PUSH2 0x4A2A PUSH2 0x4A01 PUSH2 0x49FB PUSH2 0x49D2 PUSH2 0x49CC PUSH2 0x49A3 PUSH2 0x1F6 DUP11 ADD DUP15 PUSH2 0x3A3A JUMP JUMPDEST PUSH32 0x2532304A4F494E25323000000000000000000000000000000000000000000000 DUP2 MSTORE PUSH1 0xA ADD SWAP1 JUMP JUMPDEST DUP12 PUSH2 0x3A3A JUMP JUMPDEST PUSH32 0x2532304F4E253230000000000000000000000000000000000000000000000000 DUP2 MSTORE PUSH1 0x8 ADD SWAP1 JUMP JUMPDEST DUP9 PUSH2 0x3A3A JUMP JUMPDEST PUSH32 0x253245746F6B656E696425323025334425323000000000000000000000000000 DUP2 MSTORE PUSH1 0x13 ADD SWAP1 JUMP JUMPDEST DUP6 PUSH2 0x3A3A JUMP JUMPDEST PUSH32 0x2532456D61696E7461626C655F746F6B656E6964253230574845524525323074 DUP2 MSTORE PUSH32 0x6F6B656E69642533440000000000000000000000000000000000000000000000 PUSH1 0x20 DUP3 ADD MSTORE PUSH1 0x29 ADD SWAP1 JUMP JUMPDEST SWAP7 SWAP6 POP POP POP POP POP POP JUMP JUMPDEST PUSH1 0x0 DUP5 MLOAD PUSH2 0x4A9B DUP2 DUP5 PUSH1 0x20 DUP10 ADD PUSH2 0x351A JUMP JUMPDEST PUSH32 0x756E777261703D7472756526657874726163743D7472756526733D0000000000 SWAP1 DUP4 ADD SWAP1 DUP2 MSTORE DUP5 MLOAD PUSH2 0x4AD5 DUP2 PUSH1 0x1B DUP5 ADD PUSH1 0x20 DUP10 ADD PUSH2 0x351A JUMP JUMPDEST DUP5 MLOAD SWAP2 ADD SWAP1 PUSH2 0x4AEB DUP2 PUSH1 0x1B DUP5 ADD PUSH1 0x20 DUP9 ADD PUSH2 0x351A JUMP JUMPDEST PUSH32 0x25323067726F75702532306279253230746F6B656E6964000000000000000000 PUSH1 0x1B SWAP3 SWAP1 SWAP2 ADD SWAP2 DUP3 ADD MSTORE PUSH1 0x32 ADD SWAP6 SWAP5 POP POP POP POP POP JUMP JUMPDEST PUSH7 0x2AA82220AA229 PUSH1 0xCD SHL DUP2 MSTORE PUSH1 0x0 PUSH2 0x4B3E PUSH1 0x7 DUP4 ADD DUP7 PUSH2 0x3A3A JUMP JUMPDEST PUSH32 0x205345542063617465676F7279203D2027000000000000000000000000000000 DUP2 MSTORE DUP5 MLOAD PUSH2 0x4B74 DUP2 PUSH1 0x11 DUP5 ADD PUSH1 0x20 DUP10 ADD PUSH2 0x351A JUMP JUMPDEST PUSH18 0x13902BA422A922903A37B5B2B734B2101E9 PUSH1 0x75 SHL PUSH1 0x11 SWAP3 SWAP1 SWAP2 ADD SWAP2 DUP3 ADD MSTORE DUP4 MLOAD PUSH2 0x4BA7 DUP2 PUSH1 0x23 DUP5 ADD PUSH1 0x20 DUP9 ADD PUSH2 0x351A JUMP JUMPDEST PUSH1 0x3B PUSH1 0xF8 SHL PUSH1 0x23 SWAP3 SWAP1 SWAP2 ADD SWAP2 DUP3 ADD MSTORE PUSH1 0x24 ADD SWAP6 SWAP5 POP POP POP POP POP JUMP JUMPDEST PUSH7 0x2AA82220AA229 PUSH1 0xCD SHL DUP2 MSTORE PUSH1 0x0 PUSH2 0x4BDE PUSH1 0x7 DUP4 ADD DUP8 PUSH2 0x3A3A JUMP JUMPDEST PUSH32 0x2053455420646973706C61795F74797065203D20270000000000000000000000 DUP2 MSTORE DUP6 MLOAD PUSH2 0x4C14 DUP2 PUSH1 0x15 DUP5 ADD PUSH1 0x20 DUP11 ADD PUSH2 0x351A JUMP JUMPDEST PUSH32 0x27205748455245206D61696E7461626C655F746F6B656E6964203D2000000000 PUSH1 0x15 SWAP3 SWAP1 SWAP2 ADD SWAP2 DUP3 ADD MSTORE DUP5 MLOAD PUSH2 0x4C52 DUP2 PUSH1 0x31 DUP5 ADD PUSH1 0x20 DUP10 ADD PUSH2 0x351A JUMP JUMPDEST PUSH16 0x1020A722103A3930B4BA2FB4B2101E9 PUSH1 0x85 SHL PUSH1 0x31 SWAP3 SWAP1 SWAP2 ADD SWAP2 DUP3 ADD MSTORE DUP4 MLOAD PUSH2 0x4C83 DUP2 PUSH1 0x41 DUP5 ADD PUSH1 0x20 DUP9 ADD PUSH2 0x351A JUMP JUMPDEST PUSH1 0x3B PUSH1 0xF8 SHL PUSH1 0x41 SWAP3 SWAP1 SWAP2 ADD SWAP2 DUP3 ADD MSTORE PUSH1 0x42 ADD SWAP7 SWAP6 POP POP POP POP POP POP JUMP JUMPDEST PUSH1 0x0 PUSH1 0x0 NOT DUP3 EQ ISZERO PUSH2 0x4CB3 JUMPI PUSH2 0x4CB3 PUSH2 0x4416 JUMP JUMPDEST POP PUSH1 0x1 ADD SWAP1 JUMP JUMPDEST PUSH4 0x4E487B71 PUSH1 0xE0 SHL PUSH1 0x0 MSTORE PUSH1 0x12 PUSH1 0x4 MSTORE PUSH1 0x24 PUSH1 0x0 REVERT JUMPDEST PUSH1 0x0 DUP3 PUSH2 0x4CDF JUMPI PUSH2 0x4CDF PUSH2 0x4CBA JUMP JUMPDEST POP DIV SWAP1 JUMP JUMPDEST PUSH1 0x0 DUP3 DUP3 LT ISZERO PUSH2 0x4CF6 JUMPI PUSH2 0x4CF6 PUSH2 0x4416 JUMP JUMPDEST POP SUB SWAP1 JUMP JUMPDEST PUSH1 0x0 DUP3 PUSH2 0x4D0A JUMPI PUSH2 0x4D0A PUSH2 0x4CBA JUMP JUMPDEST POP MOD SWAP1 JUMP JUMPDEST PUSH4 0x4E487B71 PUSH1 0xE0 SHL PUSH1 0x0 MSTORE PUSH1 0x32 PUSH1 0x4 MSTORE PUSH1 0x24 PUSH1 0x0 REVERT JUMPDEST PUSH32 0x416363657373436F6E74726F6C3A206163636F756E7420000000000000000000 DUP2 MSTORE PUSH1 0x0 DUP4 MLOAD PUSH2 0x4D5D DUP2 PUSH1 0x17 DUP6 ADD PUSH1 0x20 DUP9 ADD PUSH2 0x351A JUMP JUMPDEST PUSH32 0x206973206D697373696E6720726F6C6520000000000000000000000000000000 PUSH1 0x17 SWAP2 DUP5 ADD SWAP2 DUP3 ADD MSTORE DUP4 MLOAD PUSH2 0x4D9A DUP2 PUSH1 0x28 DUP5 ADD PUSH1 0x20 DUP9 ADD PUSH2 0x351A JUMP JUMPDEST ADD PUSH1 0x28 ADD SWAP5 SWAP4 POP POP POP POP JUMP JUMPDEST PUSH1 0x0 PUSH1 0x1 PUSH1 0x1 PUSH1 0xA0 SHL SUB DUP1 DUP8 AND DUP4 MSTORE DUP1 DUP7 AND PUSH1 0x20 DUP5 ADD MSTORE POP DUP4 PUSH1 0x40 DUP4 ADD MSTORE PUSH1 0x80 PUSH1 0x60 DUP4 ADD MSTORE PUSH2 0x4A7F PUSH1 0x80 DUP4 ADD DUP5 PUSH2 0x3546 JUMP JUMPDEST PUSH1 0x0 PUSH1 0x20 DUP3 DUP5 SUB SLT ISZERO PUSH2 0x4DEA JUMPI PUSH1 0x0 DUP1 REVERT JUMPDEST DUP2 MLOAD PUSH2 0x31FC DUP2 PUSH2 0x34E7 JUMP JUMPDEST PUSH1 0x0 DUP2 PUSH1 0x0 NOT DIV DUP4 GT DUP3 ISZERO ISZERO AND ISZERO PUSH2 0x4E0F JUMPI PUSH2 0x4E0F PUSH2 0x4416 JUMP JUMPDEST POP MUL SWAP1 JUMP JUMPDEST PUSH1 0x0 DUP2 PUSH2 0x4E23 JUMPI PUSH2 0x4E23 PUSH2 0x4416 JUMP JUMPDEST POP PUSH1 0x0 NOT ADD SWAP1 JUMP INVALID LOG2 PUSH5 0x6970667358 0x22 SLT KECCAK256 0xF7 ISZERO 0x2B 0xEB 0xC 0xD6 GAS DUP13 0xA9 0xF8 0xBC SWAP3 XOR BASEFEE 0xC9 CALLVALUE CREATE2 PUSH2 0xB30 STATICCALL 0xF ORIGIN PUSH26 0x7510E263E4657C8A64736F6C634300080C003368747470733A2F 0x2F PUSH21 0x6573746E65742E7461626C656C616E642E6E657477 PUSH16 0x726B2F71756572793F00000000000000 "},"methodIdentifiers":{"DEFAULT_ADMIN_ROLE()":"a217fddf","add_new_attribute(uint256,string,string,string,string)":"a1ced596","approve(address,uint256)":"095ea7b3","attributesTable()":"7bc53be9","attributes_metadataURI()":"091a77e7","balanceOf(address)":"70a08231","getApproved(uint256)":"081812fc","getRoleAdmin(bytes32)":"248a9ca3","grantRole(bytes32,address)":"2f2ff15d","hasRole(bytes32,address)":"91d14854","isApprovedForAll(address,address)":"e985e9c5","mainTable()":"5d21260a","main_metadataURI()":"a8e62f09","name()":"06fdde03","ownerOf(uint256)":"6352211e","renounceRole(bytes32,address)":"36568abe","revokeRole(bytes32,address)":"d547741f","safeMint(address,string,string,string,string,string,string,string,string)":"8586b42f","safeTransferFrom(address,address,uint256)":"42842e0e","safeTransferFrom(address,address,uint256,bytes)":"b88d4fde","setApprovalForAll(address,bool)":"a22cb465","setBaseURI(string)":"55f804b3","supportsInterface(bytes4)":"01ffc9a7","symbol()":"95d89b41","tokenURI(uint256)":"c87b56dd","transferFrom(address,address,uint256)":"23b872dd","update_animation_url(uint256,string)":"41f6660a","update_background_color(uint256,string)":"c874311e","update_category(uint256,string)":"cabfb7c2","update_description(uint256,string)":"606a9612","update_display_type(uint256,uint256,string)":"f15daa02","update_external_url(uint256,string)":"6301226f","update_icon(uint256,uint256,string)":"60af4275","update_image(uint256,string)":"2d30c0fc","update_locked(uint256,uint256,string)":"a4c75223","update_name(uint256,string)":"6a283ce2","update_trait_type(uint256,uint256,string)":"313e91cb","update_value(uint256,uint256,string)":"01637608","update_youtube_url(uint256,string)":"697c2a02"}},"storageLayout":{"storage":[{"astId":418,"contract":"contracts/mojo_ERC721.sol:MOJO","label":"_name","offset":0,"slot":"0","type":"t_string_storage"},{"astId":420,"contract":"contracts/mojo_ERC721.sol:MOJO","label":"_symbol","offset":0,"slot":"1","type":"t_string_storage"},{"astId":424,"contract":"contracts/mojo_ERC721.sol:MOJO","label":"_owners","offset":0,"slot":"2","type":"t_mapping(t_uint256,t_address)"},{"astId":428,"contract":"contracts/mojo_ERC721.sol:MOJO","label":"_balances","offset":0,"slot":"3","type":"t_mapping(t_address,t_uint256)"},{"astId":432,"contract":"contracts/mojo_ERC721.sol:MOJO","label":"_tokenApprovals","offset":0,"slot":"4","type":"t_mapping(t_uint256,t_address)"},{"astId":438,"contract":"contracts/mojo_ERC721.sol:MOJO","label":"_operatorApprovals","offset":0,"slot":"5","type":"t_mapping(t_address,t_mapping(t_address,t_bool))"},{"astId":24,"contract":"contracts/mojo_ERC721.sol:MOJO","label":"_roles","offset":0,"slot":"6","type":"t_mapping(t_bytes32,t_struct(RoleData)19_storage)"},{"astId":2390,"contract":"contracts/mojo_ERC721.sol:MOJO","label":"_baseURIString","offset":0,"slot":"7","type":"t_string_storage"},{"astId":2393,"contract":"contracts/mojo_ERC721.sol:MOJO","label":"_tokenIdCounter","offset":0,"slot":"8","type":"t_struct(Counter)1743_storage"},{"astId":2396,"contract":"contracts/mojo_ERC721.sol:MOJO","label":"_tableland","offset":0,"slot":"9","type":"t_contract(ITablelandTables)2214"},{"astId":2398,"contract":"contracts/mojo_ERC721.sol:MOJO","label":"_metadataTableId","offset":0,"slot":"10","type":"t_uint256"},{"astId":2400,"contract":"contracts/mojo_ERC721.sol:MOJO","label":"_attributesTableId","offset":0,"slot":"11","type":"t_uint256"},{"astId":2402,"contract":"contracts/mojo_ERC721.sol:MOJO","label":"mainTable","offset":0,"slot":"12","type":"t_string_storage"},{"astId":2404,"contract":"contracts/mojo_ERC721.sol:MOJO","label":"attributesTable","offset":0,"slot":"13","type":"t_string_storage"},{"astId":2407,"contract":"contracts/mojo_ERC721.sol:MOJO","label":"_tablePrefix","offset":0,"slot":"14","type":"t_string_storage"},{"astId":2411,"contract":"contracts/mojo_ERC721.sol:MOJO","label":"nb_of_attributes","offset":0,"slot":"15","type":"t_mapping(t_uint256,t_uint256)"}],"types":{"t_address":{"encoding":"inplace","label":"address","numberOfBytes":"20"},"t_bool":{"encoding":"inplace","label":"bool","numberOfBytes":"1"},"t_bytes32":{"encoding":"inplace","label":"bytes32","numberOfBytes":"32"},"t_contract(ITablelandTables)2214":{"encoding":"inplace","label":"contract ITablelandTables","numberOfBytes":"20"},"t_mapping(t_address,t_bool)":{"encoding":"mapping","key":"t_address","label":"mapping(address => bool)","numberOfBytes":"32","value":"t_bool"},"t_mapping(t_address,t_mapping(t_address,t_bool))":{"encoding":"mapping","key":"t_address","label":"mapping(address => mapping(address => bool))","numberOfBytes":"32","value":"t_mapping(t_address,t_bool)"},"t_mapping(t_address,t_uint256)":{"encoding":"mapping","key":"t_address","label":"mapping(address => uint256)","numberOfBytes":"32","value":"t_uint256"},"t_mapping(t_bytes32,t_struct(RoleData)19_storage)":{"encoding":"mapping","key":"t_bytes32","label":"mapping(bytes32 => struct AccessControl.RoleData)","numberOfBytes":"32","value":"t_struct(RoleData)19_storage"},"t_mapping(t_uint256,t_address)":{"encoding":"mapping","key":"t_uint256","label":"mapping(uint256 => address)","numberOfBytes":"32","value":"t_address"},"t_mapping(t_uint256,t_uint256)":{"encoding":"mapping","key":"t_uint256","label":"mapping(uint256 => uint256)","numberOfBytes":"32","value":"t_uint256"},"t_string_storage":{"encoding":"bytes","label":"string","numberOfBytes":"32"},"t_struct(Counter)1743_storage":{"encoding":"inplace","label":"struct Counters.Counter","members":[{"astId":1742,"contract":"contracts/mojo_ERC721.sol:MOJO","label":"_value","offset":0,"slot":"0","type":"t_uint256"}],"numberOfBytes":"32"},"t_struct(RoleData)19_storage":{"encoding":"inplace","label":"struct AccessControl.RoleData","members":[{"astId":16,"contract":"contracts/mojo_ERC721.sol:MOJO","label":"members","offset":0,"slot":"0","type":"t_mapping(t_address,t_bool)"},{"astId":18,"contract":"contracts/mojo_ERC721.sol:MOJO","label":"adminRole","offset":0,"slot":"1","type":"t_bytes32"}],"numberOfBytes":"64"},"t_uint256":{"encoding":"inplace","label":"uint256","numberOfBytes":"32"}}}}}}