{
  "_format": "hh-sol-artifact-1",
  "contractName": "MOJO",
  "sourceName": "contracts/mojo_ERC721.sol",
  "abi": [
    {
      "inputs": [
        {
          "internalType": "address",
          "name": "registry",
          "type": "address"
        }
      ],
      "stateMutability": "nonpayable",
      "type": "constructor"
    },
    {
      "anonymous": false,
      "inputs": [
        {
          "indexed": true,
          "internalType": "address",
          "name": "owner",
          "type": "address"
        },
        {
          "indexed": true,
          "internalType": "address",
          "name": "approved",
          "type": "address"
        },
        {
          "indexed": true,
          "internalType": "uint256",
          "name": "tokenId",
          "type": "uint256"
        }
      ],
      "name": "Approval",
      "type": "event"
    },
    {
      "anonymous": false,
      "inputs": [
        {
          "indexed": true,
          "internalType": "address",
          "name": "owner",
          "type": "address"
        },
        {
          "indexed": true,
          "internalType": "address",
          "name": "operator",
          "type": "address"
        },
        {
          "indexed": false,
          "internalType": "bool",
          "name": "approved",
          "type": "bool"
        }
      ],
      "name": "ApprovalForAll",
      "type": "event"
    },
    {
      "anonymous": false,
      "inputs": [
        {
          "indexed": true,
          "internalType": "address",
          "name": "from",
          "type": "address"
        },
        {
          "indexed": false,
          "internalType": "uint256",
          "name": "timestamp",
          "type": "uint256"
        },
        {
          "indexed": false,
          "internalType": "uint256",
          "name": "tokenId",
          "type": "uint256"
        }
      ],
      "name": "NewNftMinted",
      "type": "event"
    },
    {
      "anonymous": false,
      "inputs": [
        {
          "indexed": true,
          "internalType": "bytes32",
          "name": "role",
          "type": "bytes32"
        },
        {
          "indexed": true,
          "internalType": "bytes32",
          "name": "previousAdminRole",
          "type": "bytes32"
        },
        {
          "indexed": true,
          "internalType": "bytes32",
          "name": "newAdminRole",
          "type": "bytes32"
        }
      ],
      "name": "RoleAdminChanged",
      "type": "event"
    },
    {
      "anonymous": false,
      "inputs": [
        {
          "indexed": true,
          "internalType": "bytes32",
          "name": "role",
          "type": "bytes32"
        },
        {
          "indexed": true,
          "internalType": "address",
          "name": "account",
          "type": "address"
        },
        {
          "indexed": true,
          "internalType": "address",
          "name": "sender",
          "type": "address"
        }
      ],
      "name": "RoleGranted",
      "type": "event"
    },
    {
      "anonymous": false,
      "inputs": [
        {
          "indexed": true,
          "internalType": "bytes32",
          "name": "role",
          "type": "bytes32"
        },
        {
          "indexed": true,
          "internalType": "address",
          "name": "account",
          "type": "address"
        },
        {
          "indexed": true,
          "internalType": "address",
          "name": "sender",
          "type": "address"
        }
      ],
      "name": "RoleRevoked",
      "type": "event"
    },
    {
      "anonymous": false,
      "inputs": [
        {
          "indexed": true,
          "internalType": "address",
          "name": "from",
          "type": "address"
        },
        {
          "indexed": true,
          "internalType": "address",
          "name": "to",
          "type": "address"
        },
        {
          "indexed": true,
          "internalType": "uint256",
          "name": "tokenId",
          "type": "uint256"
        }
      ],
      "name": "Transfer",
      "type": "event"
    },
    {
      "anonymous": false,
      "inputs": [
        {
          "indexed": true,
          "internalType": "address",
          "name": "from",
          "type": "address"
        },
        {
          "indexed": false,
          "internalType": "uint256",
          "name": "timestamp",
          "type": "uint256"
        },
        {
          "indexed": false,
          "internalType": "uint256",
          "name": "_metadataTableId",
          "type": "uint256"
        },
        {
          "indexed": false,
          "internalType": "string",
          "name": "_animation_url",
          "type": "string"
        },
        {
          "indexed": false,
          "internalType": "uint256",
          "name": "tokenId",
          "type": "uint256"
        }
      ],
      "name": "animationUrlUpdated",
      "type": "event"
    },
    {
      "anonymous": false,
      "inputs": [
        {
          "indexed": true,
          "internalType": "address",
          "name": "from",
          "type": "address"
        },
        {
          "indexed": false,
          "internalType": "uint256",
          "name": "timestamp",
          "type": "uint256"
        },
        {
          "indexed": false,
          "internalType": "uint256",
          "name": "_metadataTableId",
          "type": "uint256"
        },
        {
          "indexed": false,
          "internalType": "string",
          "name": "_background_color",
          "type": "string"
        },
        {
          "indexed": false,
          "internalType": "uint256",
          "name": "tokenId",
          "type": "uint256"
        }
      ],
      "name": "backgroundColorUpdated",
      "type": "event"
    },
    {
      "anonymous": false,
      "inputs": [
        {
          "indexed": true,
          "internalType": "address",
          "name": "from",
          "type": "address"
        },
        {
          "indexed": false,
          "internalType": "uint256",
          "name": "timestamp",
          "type": "uint256"
        },
        {
          "indexed": false,
          "internalType": "uint256",
          "name": "_metadataTableId",
          "type": "uint256"
        },
        {
          "indexed": false,
          "internalType": "string",
          "name": "_category",
          "type": "string"
        },
        {
          "indexed": false,
          "internalType": "uint256",
          "name": "tokenId",
          "type": "uint256"
        }
      ],
      "name": "categoryUpdated",
      "type": "event"
    },
    {
      "anonymous": false,
      "inputs": [
        {
          "indexed": true,
          "internalType": "address",
          "name": "from",
          "type": "address"
        },
        {
          "indexed": false,
          "internalType": "uint256",
          "name": "timestamp",
          "type": "uint256"
        },
        {
          "indexed": false,
          "internalType": "uint256",
          "name": "_metadataTableId",
          "type": "uint256"
        },
        {
          "indexed": false,
          "internalType": "string",
          "name": "_external_url",
          "type": "string"
        },
        {
          "indexed": false,
          "internalType": "uint256",
          "name": "tokenId",
          "type": "uint256"
        }
      ],
      "name": "externalUrlUpdated",
      "type": "event"
    },
    {
      "anonymous": false,
      "inputs": [
        {
          "indexed": true,
          "internalType": "address",
          "name": "from",
          "type": "address"
        },
        {
          "indexed": false,
          "internalType": "uint256",
          "name": "timestamp",
          "type": "uint256"
        },
        {
          "indexed": false,
          "internalType": "uint256",
          "name": "_metadataTableId",
          "type": "uint256"
        },
        {
          "indexed": false,
          "internalType": "string",
          "name": "_image_data",
          "type": "string"
        },
        {
          "indexed": false,
          "internalType": "uint256",
          "name": "tokenId",
          "type": "uint256"
        }
      ],
      "name": "imageDataUpdated",
      "type": "event"
    },
    {
      "anonymous": false,
      "inputs": [
        {
          "indexed": true,
          "internalType": "address",
          "name": "from",
          "type": "address"
        },
        {
          "indexed": false,
          "internalType": "uint256",
          "name": "timestamp",
          "type": "uint256"
        },
        {
          "indexed": false,
          "internalType": "uint256",
          "name": "tokenId",
          "type": "uint256"
        },
        {
          "indexed": false,
          "internalType": "uint256",
          "name": "_trait_id",
          "type": "uint256"
        }
      ],
      "name": "newAttributeAdded",
      "type": "event"
    },
    {
      "anonymous": false,
      "inputs": [
        {
          "indexed": true,
          "internalType": "address",
          "name": "from",
          "type": "address"
        },
        {
          "indexed": false,
          "internalType": "uint256",
          "name": "timestamp",
          "type": "uint256"
        },
        {
          "indexed": false,
          "internalType": "uint256",
          "name": "_attributesTableId",
          "type": "uint256"
        },
        {
          "indexed": false,
          "internalType": "string",
          "name": "_display_type",
          "type": "string"
        },
        {
          "indexed": false,
          "internalType": "uint256",
          "name": "tokenId",
          "type": "uint256"
        },
        {
          "indexed": false,
          "internalType": "uint256",
          "name": "_trait_id",
          "type": "uint256"
        }
      ],
      "name": "traitDisplayTypeUpdated",
      "type": "event"
    },
    {
      "anonymous": false,
      "inputs": [
        {
          "indexed": true,
          "internalType": "address",
          "name": "from",
          "type": "address"
        },
        {
          "indexed": false,
          "internalType": "uint256",
          "name": "timestamp",
          "type": "uint256"
        },
        {
          "indexed": false,
          "internalType": "uint256",
          "name": "_attributesTableId",
          "type": "uint256"
        },
        {
          "indexed": false,
          "internalType": "string",
          "name": "_icon",
          "type": "string"
        },
        {
          "indexed": false,
          "internalType": "uint256",
          "name": "tokenId",
          "type": "uint256"
        },
        {
          "indexed": false,
          "internalType": "uint256",
          "name": "_trait_id",
          "type": "uint256"
        }
      ],
      "name": "traitIconUpdated",
      "type": "event"
    },
    {
      "anonymous": false,
      "inputs": [
        {
          "indexed": true,
          "internalType": "address",
          "name": "from",
          "type": "address"
        },
        {
          "indexed": false,
          "internalType": "uint256",
          "name": "timestamp",
          "type": "uint256"
        },
        {
          "indexed": false,
          "internalType": "uint256",
          "name": "_attributesTableId",
          "type": "uint256"
        },
        {
          "indexed": false,
          "internalType": "string",
          "name": "_locked",
          "type": "string"
        },
        {
          "indexed": false,
          "internalType": "uint256",
          "name": "tokenId",
          "type": "uint256"
        },
        {
          "indexed": false,
          "internalType": "uint256",
          "name": "_trait_id",
          "type": "uint256"
        }
      ],
      "name": "traitLockedUpdated",
      "type": "event"
    },
    {
      "anonymous": false,
      "inputs": [
        {
          "indexed": true,
          "internalType": "address",
          "name": "from",
          "type": "address"
        },
        {
          "indexed": false,
          "internalType": "uint256",
          "name": "timestamp",
          "type": "uint256"
        },
        {
          "indexed": false,
          "internalType": "uint256",
          "name": "_attributesTableId",
          "type": "uint256"
        },
        {
          "indexed": false,
          "internalType": "string",
          "name": "_trait_type",
          "type": "string"
        },
        {
          "indexed": false,
          "internalType": "uint256",
          "name": "tokenId",
          "type": "uint256"
        },
        {
          "indexed": false,
          "internalType": "uint256",
          "name": "_trait_id",
          "type": "uint256"
        }
      ],
      "name": "traitTypeUpdated",
      "type": "event"
    },
    {
      "anonymous": false,
      "inputs": [
        {
          "indexed": true,
          "internalType": "address",
          "name": "from",
          "type": "address"
        },
        {
          "indexed": false,
          "internalType": "uint256",
          "name": "timestamp",
          "type": "uint256"
        },
        {
          "indexed": false,
          "internalType": "uint256",
          "name": "_attributesTableId",
          "type": "uint256"
        },
        {
          "indexed": false,
          "internalType": "string",
          "name": "_value",
          "type": "string"
        },
        {
          "indexed": false,
          "internalType": "uint256",
          "name": "tokenId",
          "type": "uint256"
        },
        {
          "indexed": false,
          "internalType": "uint256",
          "name": "_trait_id",
          "type": "uint256"
        }
      ],
      "name": "valueUpdated",
      "type": "event"
    },
    {
      "anonymous": false,
      "inputs": [
        {
          "indexed": true,
          "internalType": "address",
          "name": "from",
          "type": "address"
        },
        {
          "indexed": false,
          "internalType": "uint256",
          "name": "timestamp",
          "type": "uint256"
        },
        {
          "indexed": false,
          "internalType": "uint256",
          "name": "_metadataTableId",
          "type": "uint256"
        },
        {
          "indexed": false,
          "internalType": "string",
          "name": "_youtube_url",
          "type": "string"
        },
        {
          "indexed": false,
          "internalType": "uint256",
          "name": "tokenId",
          "type": "uint256"
        }
      ],
      "name": "youtubeUrlUpdated",
      "type": "event"
    },
    {
      "inputs": [],
      "name": "DEFAULT_ADMIN_ROLE",
      "outputs": [
        {
          "internalType": "bytes32",
          "name": "",
          "type": "bytes32"
        }
      ],
      "stateMutability": "view",
      "type": "function"
    },
    {
      "inputs": [
        {
          "internalType": "uint256",
          "name": "_tokenId",
          "type": "uint256"
        },
        {
          "internalType": "string",
          "name": "_icon",
          "type": "string"
        },
        {
          "internalType": "string",
          "name": "_display_type",
          "type": "string"
        },
        {
          "internalType": "string",
          "name": "_trait_type",
          "type": "string"
        },
        {
          "internalType": "string",
          "name": "_value",
          "type": "string"
        }
      ],
      "name": "add_new_attribute",
      "outputs": [
        {
          "internalType": "uint256",
          "name": "",
          "type": "uint256"
        }
      ],
      "stateMutability": "nonpayable",
      "type": "function"
    },
    {
      "inputs": [
        {
          "internalType": "address",
          "name": "to",
          "type": "address"
        },
        {
          "internalType": "uint256",
          "name": "tokenId",
          "type": "uint256"
        }
      ],
      "name": "approve",
      "outputs": [],
      "stateMutability": "nonpayable",
      "type": "function"
    },
    {
      "inputs": [],
      "name": "attributesTable",
      "outputs": [
        {
          "internalType": "string",
          "name": "",
          "type": "string"
        }
      ],
      "stateMutability": "view",
      "type": "function"
    },
    {
      "inputs": [],
      "name": "attributes_metadataURI",
      "outputs": [
        {
          "internalType": "string",
          "name": "",
          "type": "string"
        }
      ],
      "stateMutability": "view",
      "type": "function"
    },
    {
      "inputs": [
        {
          "internalType": "address",
          "name": "owner",
          "type": "address"
        }
      ],
      "name": "balanceOf",
      "outputs": [
        {
          "internalType": "uint256",
          "name": "",
          "type": "uint256"
        }
      ],
      "stateMutability": "view",
      "type": "function"
    },
    {
      "inputs": [
        {
          "internalType": "uint256",
          "name": "tokenId",
          "type": "uint256"
        }
      ],
      "name": "getApproved",
      "outputs": [
        {
          "internalType": "address",
          "name": "",
          "type": "address"
        }
      ],
      "stateMutability": "view",
      "type": "function"
    },
    {
      "inputs": [
        {
          "internalType": "bytes32",
          "name": "role",
          "type": "bytes32"
        }
      ],
      "name": "getRoleAdmin",
      "outputs": [
        {
          "internalType": "bytes32",
          "name": "",
          "type": "bytes32"
        }
      ],
      "stateMutability": "view",
      "type": "function"
    },
    {
      "inputs": [
        {
          "internalType": "bytes32",
          "name": "role",
          "type": "bytes32"
        },
        {
          "internalType": "address",
          "name": "account",
          "type": "address"
        }
      ],
      "name": "grantRole",
      "outputs": [],
      "stateMutability": "nonpayable",
      "type": "function"
    },
    {
      "inputs": [
        {
          "internalType": "bytes32",
          "name": "role",
          "type": "bytes32"
        },
        {
          "internalType": "address",
          "name": "account",
          "type": "address"
        }
      ],
      "name": "hasRole",
      "outputs": [
        {
          "internalType": "bool",
          "name": "",
          "type": "bool"
        }
      ],
      "stateMutability": "view",
      "type": "function"
    },
    {
      "inputs": [
        {
          "internalType": "address",
          "name": "owner",
          "type": "address"
        },
        {
          "internalType": "address",
          "name": "operator",
          "type": "address"
        }
      ],
      "name": "isApprovedForAll",
      "outputs": [
        {
          "internalType": "bool",
          "name": "",
          "type": "bool"
        }
      ],
      "stateMutability": "view",
      "type": "function"
    },
    {
      "inputs": [],
      "name": "mainTable",
      "outputs": [
        {
          "internalType": "string",
          "name": "",
          "type": "string"
        }
      ],
      "stateMutability": "view",
      "type": "function"
    },
    {
      "inputs": [],
      "name": "main_metadataURI",
      "outputs": [
        {
          "internalType": "string",
          "name": "",
          "type": "string"
        }
      ],
      "stateMutability": "view",
      "type": "function"
    },
    {
      "inputs": [],
      "name": "name",
      "outputs": [
        {
          "internalType": "string",
          "name": "",
          "type": "string"
        }
      ],
      "stateMutability": "view",
      "type": "function"
    },
    {
      "inputs": [
        {
          "internalType": "uint256",
          "name": "tokenId",
          "type": "uint256"
        }
      ],
      "name": "ownerOf",
      "outputs": [
        {
          "internalType": "address",
          "name": "",
          "type": "address"
        }
      ],
      "stateMutability": "view",
      "type": "function"
    },
    {
      "inputs": [
        {
          "internalType": "bytes32",
          "name": "role",
          "type": "bytes32"
        },
        {
          "internalType": "address",
          "name": "account",
          "type": "address"
        }
      ],
      "name": "renounceRole",
      "outputs": [],
      "stateMutability": "nonpayable",
      "type": "function"
    },
    {
      "inputs": [
        {
          "internalType": "bytes32",
          "name": "role",
          "type": "bytes32"
        },
        {
          "internalType": "address",
          "name": "account",
          "type": "address"
        }
      ],
      "name": "revokeRole",
      "outputs": [],
      "stateMutability": "nonpayable",
      "type": "function"
    },
    {
      "inputs": [
        {
          "internalType": "address",
          "name": "to",
          "type": "address"
        },
        {
          "internalType": "string",
          "name": "_name",
          "type": "string"
        },
        {
          "internalType": "string",
          "name": "_description",
          "type": "string"
        },
        {
          "internalType": "string",
          "name": "_image_url",
          "type": "string"
        },
        {
          "internalType": "string",
          "name": "_category",
          "type": "string"
        },
        {
          "internalType": "string",
          "name": "_icon",
          "type": "string"
        },
        {
          "internalType": "string",
          "name": "_display_type",
          "type": "string"
        },
        {
          "internalType": "string",
          "name": "_trait_type",
          "type": "string"
        },
        {
          "internalType": "string",
          "name": "_value",
          "type": "string"
        }
      ],
      "name": "safeMint",
      "outputs": [
        {
          "internalType": "uint256",
          "name": "",
          "type": "uint256"
        }
      ],
      "stateMutability": "nonpayable",
      "type": "function"
    },
    {
      "inputs": [
        {
          "internalType": "address",
          "name": "from",
          "type": "address"
        },
        {
          "internalType": "address",
          "name": "to",
          "type": "address"
        },
        {
          "internalType": "uint256",
          "name": "tokenId",
          "type": "uint256"
        }
      ],
      "name": "safeTransferFrom",
      "outputs": [],
      "stateMutability": "nonpayable",
      "type": "function"
    },
    {
      "inputs": [
        {
          "internalType": "address",
          "name": "from",
          "type": "address"
        },
        {
          "internalType": "address",
          "name": "to",
          "type": "address"
        },
        {
          "internalType": "uint256",
          "name": "tokenId",
          "type": "uint256"
        },
        {
          "internalType": "bytes",
          "name": "data",
          "type": "bytes"
        }
      ],
      "name": "safeTransferFrom",
      "outputs": [],
      "stateMutability": "nonpayable",
      "type": "function"
    },
    {
      "inputs": [
        {
          "internalType": "address",
          "name": "operator",
          "type": "address"
        },
        {
          "internalType": "bool",
          "name": "approved",
          "type": "bool"
        }
      ],
      "name": "setApprovalForAll",
      "outputs": [],
      "stateMutability": "nonpayable",
      "type": "function"
    },
    {
      "inputs": [
        {
          "internalType": "string",
          "name": "baseURI",
          "type": "string"
        }
      ],
      "name": "setBaseURI",
      "outputs": [],
      "stateMutability": "nonpayable",
      "type": "function"
    },
    {
      "inputs": [
        {
          "internalType": "bytes4",
          "name": "interfaceId",
          "type": "bytes4"
        }
      ],
      "name": "supportsInterface",
      "outputs": [
        {
          "internalType": "bool",
          "name": "",
          "type": "bool"
        }
      ],
      "stateMutability": "view",
      "type": "function"
    },
    {
      "inputs": [],
      "name": "symbol",
      "outputs": [
        {
          "internalType": "string",
          "name": "",
          "type": "string"
        }
      ],
      "stateMutability": "view",
      "type": "function"
    },
    {
      "inputs": [
        {
          "internalType": "uint256",
          "name": "_tokenId",
          "type": "uint256"
        }
      ],
      "name": "tokenURI",
      "outputs": [
        {
          "internalType": "string",
          "name": "",
          "type": "string"
        }
      ],
      "stateMutability": "view",
      "type": "function"
    },
    {
      "inputs": [
        {
          "internalType": "address",
          "name": "from",
          "type": "address"
        },
        {
          "internalType": "address",
          "name": "to",
          "type": "address"
        },
        {
          "internalType": "uint256",
          "name": "tokenId",
          "type": "uint256"
        }
      ],
      "name": "transferFrom",
      "outputs": [],
      "stateMutability": "nonpayable",
      "type": "function"
    },
    {
      "inputs": [
        {
          "internalType": "uint256",
          "name": "tokenId",
          "type": "uint256"
        },
        {
          "internalType": "string",
          "name": "_animation_url",
          "type": "string"
        }
      ],
      "name": "update_animation_url",
      "outputs": [],
      "stateMutability": "nonpayable",
      "type": "function"
    },
    {
      "inputs": [
        {
          "internalType": "uint256",
          "name": "tokenId",
          "type": "uint256"
        },
        {
          "internalType": "string",
          "name": "_background_color",
          "type": "string"
        }
      ],
      "name": "update_background_color",
      "outputs": [],
      "stateMutability": "nonpayable",
      "type": "function"
    },
    {
      "inputs": [
        {
          "internalType": "uint256",
          "name": "tokenId",
          "type": "uint256"
        },
        {
          "internalType": "string",
          "name": "_category",
          "type": "string"
        }
      ],
      "name": "update_category",
      "outputs": [],
      "stateMutability": "nonpayable",
      "type": "function"
    },
    {
      "inputs": [
        {
          "internalType": "uint256",
          "name": "tokenId",
          "type": "uint256"
        },
        {
          "internalType": "uint256",
          "name": "_trait_id",
          "type": "uint256"
        },
        {
          "internalType": "string",
          "name": "_display_type",
          "type": "string"
        }
      ],
      "name": "update_display_type",
      "outputs": [],
      "stateMutability": "nonpayable",
      "type": "function"
    },
    {
      "inputs": [
        {
          "internalType": "uint256",
          "name": "tokenId",
          "type": "uint256"
        },
        {
          "internalType": "string",
          "name": "_external_url",
          "type": "string"
        }
      ],
      "name": "update_external_url",
      "outputs": [],
      "stateMutability": "nonpayable",
      "type": "function"
    },
    {
      "inputs": [
        {
          "internalType": "uint256",
          "name": "tokenId",
          "type": "uint256"
        },
        {
          "internalType": "uint256",
          "name": "_trait_id",
          "type": "uint256"
        },
        {
          "internalType": "string",
          "name": "_icon",
          "type": "string"
        }
      ],
      "name": "update_icon",
      "outputs": [],
      "stateMutability": "nonpayable",
      "type": "function"
    },
    {
      "inputs": [
        {
          "internalType": "uint256",
          "name": "tokenId",
          "type": "uint256"
        },
        {
          "internalType": "string",
          "name": "_image_data",
          "type": "string"
        }
      ],
      "name": "update_image_data",
      "outputs": [],
      "stateMutability": "nonpayable",
      "type": "function"
    },
    {
      "inputs": [
        {
          "internalType": "uint256",
          "name": "tokenId",
          "type": "uint256"
        },
        {
          "internalType": "uint256",
          "name": "_trait_id",
          "type": "uint256"
        },
        {
          "internalType": "string",
          "name": "_locked",
          "type": "string"
        }
      ],
      "name": "update_locked",
      "outputs": [],
      "stateMutability": "nonpayable",
      "type": "function"
    },
    {
      "inputs": [
        {
          "internalType": "uint256",
          "name": "tokenId",
          "type": "uint256"
        },
        {
          "internalType": "uint256",
          "name": "_trait_id",
          "type": "uint256"
        },
        {
          "internalType": "string",
          "name": "_trait_type",
          "type": "string"
        }
      ],
      "name": "update_trait_type",
      "outputs": [],
      "stateMutability": "nonpayable",
      "type": "function"
    },
    {
      "inputs": [
        {
          "internalType": "uint256",
          "name": "tokenId",
          "type": "uint256"
        },
        {
          "internalType": "uint256",
          "name": "_trait_id",
          "type": "uint256"
        },
        {
          "internalType": "string",
          "name": "_value",
          "type": "string"
        }
      ],
      "name": "update_value",
      "outputs": [],
      "stateMutability": "nonpayable",
      "type": "function"
    },
    {
      "inputs": [
        {
          "internalType": "uint256",
          "name": "tokenId",
          "type": "uint256"
        },
        {
          "internalType": "string",
          "name": "_youtube_url",
          "type": "string"
        }
      ],
      "name": "update_youtube_url",
      "outputs": [],
      "stateMutability": "nonpayable",
      "type": "function"
    }
  ],
  "bytecode": "0x60e060405260286080818152906200549b60a0398051620000299160079160209091019062000525565b5060408051808201909152600a808252694d6f6a6f5f4d7573696360b01b60209092019182526200005d91600e9162000525565b503480156200006b57600080fd5b50604051620054c3380380620054c38339810160408190526200008e91620005cb565b604080518082018252600a8152694d6f6a6f204d7573696360b01b6020808301918252835180850190945260048452631b53919560e21b908401528151919291620000dc9160009162000525565b508051620000f290600190602084019062000525565b50620001049150600090503362000363565b600980546001600160a01b0319166001600160a01b038316908117909155633a9151b030600e620001414662000408602090811b620022e617901c565b604051602001620001549291906200070f565b6040516020818303038152906040526040518363ffffffff1660e01b8152600401620001829291906200082e565b6020604051808303816000875af1158015620001a2573d6000803e3d6000fd5b505050506040513d601f19601f82011682018060405250810190620001c8919062000872565b600a81905550600e620001e6466200040860201b620022e61760201c565b620001fe600a546200040860201b620022e61760201c565b60405160200162000212939291906200088c565b604051602081830303815290604052600c90805190602001906200023892919062000525565b506009546001600160a01b0316633a9151b030600e620002644662000408602090811b620022e617901c565b60405160200162000277929190620008e1565b6040516020818303038152906040526040518363ffffffff1660e01b8152600401620002a59291906200082e565b6020604051808303816000875af1158015620002c5573d6000803e3d6000fd5b505050506040513d601f19601f82011682018060405250810190620002eb919062000872565b600b81905550600e62000309466200040860201b620022e61760201c565b62000321600b546200040860201b620022e61760201c565b60405160200162000335939291906200088c565b604051602081830303815290604052600d90805190602001906200035b92919062000525565b505062000a93565b60008281526006602090815260408083206001600160a01b038516845290915290205460ff16620004045760008281526006602090815260408083206001600160a01b03851684529091529020805460ff19166001179055620003c33390565b6001600160a01b0316816001600160a01b0316837f2f8788117e7eff1d82e926ec794901d17c78024a50270940304540a733656f0d60405160405180910390a45b5050565b6060816200042d5750506040805180820190915260018152600360fc1b602082015290565b8160005b81156200045d57806200044481620009d0565b9150620004559050600a8362000a04565b915062000431565b6000816001600160401b038111156200047a576200047a62000a1b565b6040519080825280601f01601f191660200182016040528015620004a5576020820181803683370190505b5090505b84156200051d57620004bd60018362000a31565b9150620004cc600a8662000a4b565b620004d990603062000a62565b60f81b818381518110620004f157620004f162000a7d565b60200101906001600160f81b031916908160001a90535062000515600a8662000a04565b9450620004a9565b949350505050565b8280546200053390620005fd565b90600052602060002090601f016020900481019282620005575760008555620005a2565b82601f106200057257805160ff1916838001178555620005a2565b82800160010185558215620005a2579182015b82811115620005a257825182559160200191906001019062000585565b50620005b0929150620005b4565b5090565b5b80821115620005b05760008155600101620005b5565b600060208284031215620005de57600080fd5b81516001600160a01b0381168114620005f657600080fd5b9392505050565b600181811c908216806200061257607f821691505b602082108114156200063457634e487b7160e01b600052602260045260246000fd5b50919050565b8054600090600181811c90808316806200065557607f831692505b60208084108214156200067857634e487b7160e01b600052602260045260246000fd5b8180156200068f5760018114620006a157620006d0565b60ff19861689528489019650620006d0565b60008881526020902060005b86811015620006c85781548b820152908501908301620006ad565b505084890196505b50505050505092915050565b60005b83811015620006f9578181015183820152602001620006df565b8381111562000709576000848401525b50505050565b6c021a922a0aa22902a20a126229609d1b8152600062000733600d8301856200063a565b605f60f81b815283516200074f816001840160208801620006dc565b7f2028746f6b656e696420696e742c206e616d6520746578742c20646573637269600192909101918201527f7074696f6e20746578742c20696d61676520746578742c20696d6167655f646160218201527f746120746578742c2063617465676f727920746578742c2065787465726e616c60418201527f5f75726c20746578742c206261636b67726f756e645f636f6c6f72207465787460618201527f2c20616e696d6174696f6e5f75726c20746578742c20796f75747562655f75726081820152676c2074657874293b60c01b60a182015260a901949350505050565b60018060a01b038316815260406020820152600082518060408401526200085d816060850160208701620006dc565b601f01601f1916919091016060019392505050565b6000602082840312156200088557600080fd5b5051919050565b60006200089a82866200063a565b605f60f81b8082528551620008b7816001850160208a01620006dc565b60019201918201528351620008d4816002840160208801620006dc565b0160020195945050505050565b6c021a922a0aa22902a20a126229609d1b8152600062000905600d8301856200063a565b605f60f81b8152835162000921816001840160208801620006dc565b7f20286d61696e7461626c655f746f6b656e696420696e742c2074726169745f69600192909101918201527f6420696e742c206c6f636b656420696e742c2069636f6e20746578742c20646960218201527f73706c61795f7479706520746578742c2074726169745f74797065207465787460418201526d2c2076616c75652074657874293b60901b6061820152606f01949350505050565b634e487b7160e01b600052601160045260246000fd5b6000600019821415620009e757620009e7620009ba565b5060010190565b634e487b7160e01b600052601260045260246000fd5b60008262000a165762000a16620009ee565b500490565b634e487b7160e01b600052604160045260246000fd5b60008282101562000a465762000a46620009ba565b500390565b60008262000a5d5762000a5d620009ee565b500690565b6000821982111562000a785762000a78620009ba565b500190565b634e487b7160e01b600052603260045260246000fd5b6149f88062000aa36000396000f3fe608060405234801561001057600080fd5b50600436106102775760003560e01c80636352211e11610160578063a22cb465116100d8578063c87b56dd1161008c578063d547741f11610071578063d547741f14610535578063e985e9c514610548578063f15daa021461058457600080fd5b8063c87b56dd1461050f578063cabfb7c21461052257600080fd5b8063a8e62f09116100bd578063a8e62f09146104e1578063b88d4fde146104e9578063c874311e146104fc57600080fd5b8063a22cb465146104bb578063a4c75223146104ce57600080fd5b80638586b42f1161012f57806395d89b411161011457806395d89b4114610498578063a1ced596146104a0578063a217fddf146104b357600080fd5b80638586b42f1461044c57806391d148541461045f57600080fd5b80636352211e1461040b578063697c2a021461041e57806370a08231146104315780637bc53be91461044457600080fd5b80632fead322116101f357806342842e0e116101c25780635d21260a116101a75780635d21260a146103dd57806360af4275146103e55780636301226f146103f857600080fd5b806342842e0e146103b757806355f804b3146103ca57600080fd5b80632fead3221461036b578063313e91cb1461037e57806336568abe1461039157806341f6660a146103a457600080fd5b8063091a77e71161024a57806323b872dd1161022f57806323b872dd14610314578063248a9ca3146103275780632f2ff15d1461035857600080fd5b8063091a77e7146102f9578063095ea7b31461030157600080fd5b8063016376081461027c57806301ffc9a71461029157806306fdde03146102b9578063081812fc146102ce575b600080fd5b61028f61028a36600461314b565b610597565b005b6102a461029f3660046131b1565b61078d565b60405190151581526020015b60405180910390f35b6102c161079e565b6040516102b09190613226565b6102e16102dc366004613239565b610830565b6040516001600160a01b0390911681526020016102b0565b6102c1610857565b61028f61030f366004613277565b61088e565b61028f6103223660046132a3565b6109c0565b61034a610335366004613239565b60009081526006602052604090206001015490565b6040519081526020016102b0565b61028f6103663660046132e4565b610a47565b61028f610379366004613314565b610a6c565b61028f61038c36600461314b565b610bf0565b61028f61039f3660046132e4565b610dd4565b61028f6103b2366004613314565b610e60565b61028f6103c53660046132a3565b610fd8565b61028f6103d836600461335b565b610ff3565b6102c1611011565b61028f6103f336600461314b565b61109f565b61028f610406366004613314565b611283565b6102e1610419366004613239565b6113fb565b61028f61042c366004613314565b611460565b61034a61043f366004613390565b6115d8565b6102c1611672565b61034a61045a3660046133ad565b61167f565b6102a461046d3660046132e4565b60009182526006602090815260408084206001600160a01b0393909316845291905290205460ff1690565b6102c1611839565b61034a6104ae3660046134fe565b611848565b61034a600081565b61028f6104c93660046135b5565b611a32565b61028f6104dc36600461314b565b611a3d565b6102c1611c21565b61028f6104f73660046135e8565b611c43565b61028f61050a366004613314565b611cd1565b6102c161051d366004613239565b611e49565b61028f610530366004613314565b611f65565b61028f6105433660046132e4565b6120dd565b6102a4610556366004613668565b6001600160a01b03918216600090815260056020908152604080832093909416825291909152205460ff1690565b61028f61059236600461314b565b612102565b6040516331a9108f60e11b81526004810184905233903090636352211e90602401602060405180830381865afa1580156105d5573d6000803e3d6000fd5b505050506040513d601f19601f820116820180604052508101906105f99190613696565b6001600160a01b0316146106445760405162461bcd60e51b815260206004820152600d60248201526c24b73b30b634b21037bbb732b960991b60448201526064015b60405180910390fd5b6000838152600f602052604090205482118015906106625750600082115b6106a45760405162461bcd60e51b815260206004820152601360248201527203a3930b4ba2fb4b2103737ba103337bab7321606d1b604482015260640161063b565b600954600b546001600160a01b039091169063eaf5d04e903090600d856106ca896122e6565b6106d3896122e6565b6040516020016106e694939291906137a4565b6040516020818303038152906040526040518463ffffffff1660e01b815260040161071393929190613881565b600060405180830381600087803b15801561072d57600080fd5b505af1158015610741573d6000803e3d6000fd5b5050600b546040513393507fbc3fdc5c3d813c4a99d9005e48663baa4f6a682afd7bb19427443c53942909c592506107809142918690899089906138b2565b60405180910390a2505050565b6000610798826123ec565b92915050565b6060600080546107ad906136b3565b80601f01602080910402602001604051908101604052809291908181526020018280546107d9906136b3565b80156108265780601f106107fb57610100808354040283529160200191610826565b820191906000526020600020905b81548152906001019060200180831161080957829003601f168201915b5050505050905090565b600061083b8261242a565b506000908152600460205260409020546001600160a01b031690565b60606000610863612491565b905080600d6040516020016108799291906138e5565b60405160208183030381529060405291505090565b6000610899826113fb565b9050806001600160a01b0316836001600160a01b031614156109235760405162461bcd60e51b815260206004820152602160248201527f4552433732313a20617070726f76616c20746f2063757272656e74206f776e6560448201527f7200000000000000000000000000000000000000000000000000000000000000606482015260840161063b565b336001600160a01b038216148061093f575061093f8133610556565b6109b15760405162461bcd60e51b815260206004820152603e60248201527f4552433732313a20617070726f76652063616c6c6572206973206e6f7420746f60448201527f6b656e206f776e6572206e6f7220617070726f76656420666f7220616c6c0000606482015260840161063b565b6109bb83836124a0565b505050565b6109ca338261251b565b610a3c5760405162461bcd60e51b815260206004820152602e60248201527f4552433732313a2063616c6c6572206973206e6f7420746f6b656e206f776e6560448201527f72206e6f7220617070726f766564000000000000000000000000000000000000606482015260840161063b565b6109bb838383612599565b600082815260066020526040902060010154610a6281612773565b6109bb838361277d565b6040516331a9108f60e11b81526004810183905233903090636352211e90602401602060405180830381865afa158015610aaa573d6000803e3d6000fd5b505050506040513d601f19601f82011682018060405250810190610ace9190613696565b6001600160a01b031614610b145760405162461bcd60e51b815260206004820152600d60248201526c24b73b30b634b21037bbb732b960991b604482015260640161063b565b600954600a546001600160a01b039091169063eaf5d04e903090600c85610b3a886122e6565b604051602001610b4c93929190613951565b6040516020818303038152906040526040518463ffffffff1660e01b8152600401610b7993929190613881565b600060405180830381600087803b158015610b9357600080fd5b505af1158015610ba7573d6000803e3d6000fd5b5050600a546040513393507ffe05ad0bb7c4c4732779ddaa5ded3b91b17e896dd20722374fe5248a1c7fae809250610be4914291869088906139f1565b60405180910390a25050565b6040516331a9108f60e11b81526004810184905233903090636352211e90602401602060405180830381865afa158015610c2e573d6000803e3d6000fd5b505050506040513d601f19601f82011682018060405250810190610c529190613696565b6001600160a01b031614610c985760405162461bcd60e51b815260206004820152600d60248201526c24b73b30b634b21037bbb732b960991b604482015260640161063b565b6000838152600f60205260409020548211801590610cb65750600082115b610cf85760405162461bcd60e51b815260206004820152601360248201527203a3930b4ba2fb4b2103737ba103337bab7321606d1b604482015260640161063b565b600954600b546001600160a01b039091169063eaf5d04e903090600d85610d1e896122e6565b610d27896122e6565b604051602001610d3a9493929190613a21565b6040516020818303038152906040526040518463ffffffff1660e01b8152600401610d6793929190613881565b600060405180830381600087803b158015610d8157600080fd5b505af1158015610d95573d6000803e3d6000fd5b5050600b546040513393507fec0f0d67678a9d5a686ab06fa92fadb72e148b9ebdead00eb6601b6a1fd07c8f92506107809142918690899089906138b2565b6001600160a01b0381163314610e525760405162461bcd60e51b815260206004820152602f60248201527f416363657373436f6e74726f6c3a2063616e206f6e6c792072656e6f756e636560448201527f20726f6c657320666f722073656c660000000000000000000000000000000000606482015260840161063b565b610e5c828261281f565b5050565b6040516331a9108f60e11b81526004810183905233903090636352211e90602401602060405180830381865afa158015610e9e573d6000803e3d6000fd5b505050506040513d601f19601f82011682018060405250810190610ec29190613696565b6001600160a01b031614610f085760405162461bcd60e51b815260206004820152600d60248201526c24b73b30b634b21037bbb732b960991b604482015260640161063b565b600954600a546001600160a01b039091169063eaf5d04e903090600c85610f2e886122e6565b604051602001610f4093929190613afe565b6040516020818303038152906040526040518463ffffffff1660e01b8152600401610f6d93929190613881565b600060405180830381600087803b158015610f8757600080fd5b505af1158015610f9b573d6000803e3d6000fd5b5050600a546040513393507fbd016395f4fcfe0220623379a39f3e1cc6d4d5fb89a124da4449c4dd4a50bc5a9250610be4914291869088906139f1565b6109bb83838360405180602001604052806000815250611c43565b6000610ffe81612773565b81516109bb906007906020850190613006565b600c805461101e906136b3565b80601f016020809104026020016040519081016040528092919081815260200182805461104a906136b3565b80156110975780601f1061106c57610100808354040283529160200191611097565b820191906000526020600020905b81548152906001019060200180831161107a57829003601f168201915b505050505081565b6040516331a9108f60e11b81526004810184905233903090636352211e90602401602060405180830381865afa1580156110dd573d6000803e3d6000fd5b505050506040513d601f19601f820116820180604052508101906111019190613696565b6001600160a01b0316146111475760405162461bcd60e51b815260206004820152600d60248201526c24b73b30b634b21037bbb732b960991b604482015260640161063b565b6000838152600f602052604090205482118015906111655750600082115b6111a75760405162461bcd60e51b815260206004820152601360248201527203a3930b4ba2fb4b2103737ba103337bab7321606d1b604482015260640161063b565b600954600b546001600160a01b039091169063eaf5d04e903090600d856111cd896122e6565b6111d6896122e6565b6040516020016111e99493929190613b9e565b6040516020818303038152906040526040518463ffffffff1660e01b815260040161121693929190613881565b600060405180830381600087803b15801561123057600080fd5b505af1158015611244573d6000803e3d6000fd5b5050600b546040513393507f280bb8c24c5b69393733b8cf1779ec264023540e75149b5024de5ea55a41736e92506107809142918690899089906138b2565b6040516331a9108f60e11b81526004810183905233903090636352211e90602401602060405180830381865afa1580156112c1573d6000803e3d6000fd5b505050506040513d601f19601f820116820180604052508101906112e59190613696565b6001600160a01b03161461132b5760405162461bcd60e51b815260206004820152600d60248201526c24b73b30b634b21037bbb732b960991b604482015260640161063b565b600954600a546001600160a01b039091169063eaf5d04e903090600c85611351886122e6565b60405160200161136393929190613c7b565b6040516020818303038152906040526040518463ffffffff1660e01b815260040161139093929190613881565b600060405180830381600087803b1580156113aa57600080fd5b505af11580156113be573d6000803e3d6000fd5b5050600a546040513393507fb830b8c0bfe518a8200843dc80652efaa1c0ae60d22d339d65107e4b64dd4d629250610be4914291869088906139f1565b6000818152600260205260408120546001600160a01b0316806107985760405162461bcd60e51b815260206004820152601860248201527f4552433732313a20696e76616c696420746f6b656e2049440000000000000000604482015260640161063b565b6040516331a9108f60e11b81526004810183905233903090636352211e90602401602060405180830381865afa15801561149e573d6000803e3d6000fd5b505050506040513d601f19601f820116820180604052508101906114c29190613696565b6001600160a01b0316146115085760405162461bcd60e51b815260206004820152600d60248201526c24b73b30b634b21037bbb732b960991b604482015260640161063b565b600954600a546001600160a01b039091169063eaf5d04e903090600c8561152e886122e6565b60405160200161154093929190613d1b565b6040516020818303038152906040526040518463ffffffff1660e01b815260040161156d93929190613881565b600060405180830381600087803b15801561158757600080fd5b505af115801561159b573d6000803e3d6000fd5b5050600a546040513393507fe1c454aef576927af164ec321fd3b9230ee992ec682464b1fcb96342e555add09250610be4914291869088906139f1565b60006001600160a01b0382166116565760405162461bcd60e51b815260206004820152602960248201527f4552433732313a2061646472657373207a65726f206973206e6f74206120766160448201527f6c6964206f776e65720000000000000000000000000000000000000000000000606482015260840161063b565b506001600160a01b031660009081526003602052604090205490565b600d805461101e906136b3565b60008061168b60085490565b600954600a549192506001600160a01b03169063eaf5d04e903090600c6116b1866122e6565b8f8f8f8f6040516020016116ca96959493929190613dbb565b6040516020818303038152906040526040518463ffffffff1660e01b81526004016116f793929190613881565b600060405180830381600087803b15801561171157600080fd5b505af1158015611725573d6000803e3d6000fd5b5050600954600b546001600160a01b03909116925063eaf5d04e91503090600d61174e866122e6565b8b8b8b8b60405160200161176796959493929190613ecc565b6040516020818303038152906040526040518463ffffffff1660e01b815260040161179493929190613881565b600060405180830381600087803b1580156117ae57600080fd5b505af11580156117c2573d6000803e3d6000fd5b505050506117d08b826128a2565b6000818152600f60205260409020600190556117f0600880546001019055565b604080514281526020810183905233917f061b141191d79859f7cc6256c1b9e5f380052197831efe9135841c0ff4de7e63910160405180910390a29a9950505050505050505050565b6060600180546107ad906136b3565b6040516331a9108f60e11b81526004810186905260009033903090636352211e90602401602060405180830381865afa158015611889573d6000803e3d6000fd5b505050506040513d601f19601f820116820180604052508101906118ad9190613696565b6001600160a01b0316146118f35760405162461bcd60e51b815260206004820152600d60248201526c24b73b30b634b21037bbb732b960991b604482015260640161063b565b6000868152600f6020526040902054600954600b546001600160a01b039091169063eaf5d04e903090600d6119278c6122e6565b61193a611935886001614005565b6122e6565b8c8c8c8c604051602001611954979695949392919061401d565b6040516020818303038152906040526040518463ffffffff1660e01b815260040161198193929190613881565b600060405180830381600087803b15801561199b57600080fd5b505af11580156119af573d6000803e3d6000fd5b505050508060016119c09190614005565b6000888152600f6020526040902055337f49f81050f063e5873e3da74c80d522b979ef15124ea45757ce3e838d7e2d703e42896119fe856001614005565b6040805193845260208401929092529082015260600160405180910390a2611a27816001614005565b979650505050505050565b610e5c3383836128bc565b6040516331a9108f60e11b81526004810184905233903090636352211e90602401602060405180830381865afa158015611a7b573d6000803e3d6000fd5b505050506040513d601f19601f82011682018060405250810190611a9f9190613696565b6001600160a01b031614611ae55760405162461bcd60e51b815260206004820152600d60248201526c24b73b30b634b21037bbb732b960991b604482015260640161063b565b6000838152600f60205260409020548211801590611b035750600082115b611b455760405162461bcd60e51b815260206004820152601360248201527203a3930b4ba2fb4b2103737ba103337bab7321606d1b604482015260640161063b565b600954600b546001600160a01b039091169063eaf5d04e903090600d85611b6b896122e6565b611b74896122e6565b604051602001611b87949392919061410c565b6040516020818303038152906040526040518463ffffffff1660e01b8152600401611bb493929190613881565b600060405180830381600087803b158015611bce57600080fd5b505af1158015611be2573d6000803e3d6000fd5b5050600b546040513393507fb415e23e22b2b31ba644100f3f46f83517c124378282dcbadd1d523eb345fc5992506107809142918690899089906138b2565b60606000611c2d612491565b905080600c6040516020016108799291906138e5565b611c4d338361251b565b611cbf5760405162461bcd60e51b815260206004820152602e60248201527f4552433732313a2063616c6c6572206973206e6f7420746f6b656e206f776e6560448201527f72206e6f7220617070726f766564000000000000000000000000000000000000606482015260840161063b565b611ccb8484848461298b565b50505050565b6040516331a9108f60e11b81526004810183905233903090636352211e90602401602060405180830381865afa158015611d0f573d6000803e3d6000fd5b505050506040513d601f19601f82011682018060405250810190611d339190613696565b6001600160a01b031614611d795760405162461bcd60e51b815260206004820152600d60248201526c24b73b30b634b21037bbb732b960991b604482015260640161063b565b600954600a546001600160a01b039091169063eaf5d04e903090600c85611d9f886122e6565b604051602001611db1939291906141e9565b6040516020818303038152906040526040518463ffffffff1660e01b8152600401611dde93929190613881565b600060405180830381600087803b158015611df857600080fd5b505af1158015611e0c573d6000803e3d6000fd5b5050600a546040513393507fe785ea1e282a50b7e65e928a3f97b023dca466e7e64e4bc48693df3df780bbe29250610be4914291869088906139f1565b6000818152600260205260409020546060906001600160a01b0316611ed65760405162461bcd60e51b815260206004820152602f60248201527f4552433732314d657461646174613a2055524920717565727920666f72206e6f60448201527f6e6578697374656e7420746f6b656e0000000000000000000000000000000000606482015260840161063b565b6000611ee0612491565b9050805160001415611f02575050604080516020810190915260008152919050565b6000600c600d600c600d604051602001611f1f9493929190614289565b60405160208183030381529060405290508181611f3b866122e6565b604051602001611f4d93929190614620565b60405160208183030381529060405292505050919050565b6040516331a9108f60e11b81526004810183905233903090636352211e90602401602060405180830381865afa158015611fa3573d6000803e3d6000fd5b505050506040513d601f19601f82011682018060405250810190611fc79190613696565b6001600160a01b03161461200d5760405162461bcd60e51b815260206004820152600d60248201526c24b73b30b634b21037bbb732b960991b604482015260640161063b565b600954600a546001600160a01b039091169063eaf5d04e903090600c85612033886122e6565b604051602001612045939291906146b9565b6040516020818303038152906040526040518463ffffffff1660e01b815260040161207293929190613881565b600060405180830381600087803b15801561208c57600080fd5b505af11580156120a0573d6000803e3d6000fd5b5050600a546040513393507f96891d92cba055882b9cc7bbad764db900044bd69deafe6d5f32cf68b1668a9c9250610be4914291869088906139f1565b6000828152600660205260409020600101546120f881612773565b6109bb838361281f565b6040516331a9108f60e11b81526004810184905233903090636352211e90602401602060405180830381865afa158015612140573d6000803e3d6000fd5b505050506040513d601f19601f820116820180604052508101906121649190613696565b6001600160a01b0316146121aa5760405162461bcd60e51b815260206004820152600d60248201526c24b73b30b634b21037bbb732b960991b604482015260640161063b565b6000838152600f602052604090205482118015906121c85750600082115b61220a5760405162461bcd60e51b815260206004820152601360248201527203a3930b4ba2fb4b2103737ba103337bab7321606d1b604482015260640161063b565b600954600b546001600160a01b039091169063eaf5d04e903090600d85612230896122e6565b612239896122e6565b60405160200161224c9493929190614759565b6040516020818303038152906040526040518463ffffffff1660e01b815260040161227993929190613881565b600060405180830381600087803b15801561229357600080fd5b505af11580156122a7573d6000803e3d6000fd5b5050600b546040513393507f11bfb7cd1318679cbb7491b824432aaf8d65800ec0a83281dad118a0373a4a2392506107809142918690899089906138b2565b60608161230a5750506040805180820190915260018152600360fc1b602082015290565b8160005b8115612334578061231e81614836565b915061232d9050600a83614867565b915061230e565b60008167ffffffffffffffff81111561234f5761234f61309f565b6040519080825280601f01601f191660200182016040528015612379576020820181803683370190505b5090505b84156123e45761238e60018361487b565b915061239b600a86614892565b6123a6906030614005565b60f81b8183815181106123bb576123bb6148a6565b60200101906001600160f81b031916908160001a9053506123dd600a86614867565b945061237d565b949350505050565b60006001600160e01b031982167f7965db0b000000000000000000000000000000000000000000000000000000001480610798575061079882612a09565b6000818152600260205260409020546001600160a01b031661248e5760405162461bcd60e51b815260206004820152601860248201527f4552433732313a20696e76616c696420746f6b656e2049440000000000000000604482015260640161063b565b50565b6060600780546107ad906136b3565b6000818152600460205260409020805473ffffffffffffffffffffffffffffffffffffffff19166001600160a01b03841690811790915581906124e2826113fb565b6001600160a01b03167f8c5be1e5ebec7d5bd14f71427d1e84f3dd0314c0f7b2291e5b200ac8c7c3b92560405160405180910390a45050565b600080612527836113fb565b9050806001600160a01b0316846001600160a01b0316148061256e57506001600160a01b0380821660009081526005602090815260408083209388168352929052205460ff165b806123e45750836001600160a01b031661258784610830565b6001600160a01b031614949350505050565b826001600160a01b03166125ac826113fb565b6001600160a01b0316146126285760405162461bcd60e51b815260206004820152602560248201527f4552433732313a207472616e736665722066726f6d20696e636f72726563742060448201527f6f776e6572000000000000000000000000000000000000000000000000000000606482015260840161063b565b6001600160a01b0382166126a35760405162461bcd60e51b8152602060048201526024808201527f4552433732313a207472616e7366657220746f20746865207a65726f2061646460448201527f7265737300000000000000000000000000000000000000000000000000000000606482015260840161063b565b6126ae6000826124a0565b6001600160a01b03831660009081526003602052604081208054600192906126d790849061487b565b90915550506001600160a01b0382166000908152600360205260408120805460019290612705908490614005565b9091555050600081815260026020526040808220805473ffffffffffffffffffffffffffffffffffffffff19166001600160a01b0386811691821790925591518493918716917fddf252ad1be2c89b69c2b068fc378daa952ba7f163c4a11628f55a4df523b3ef91a4505050565b61248e8133612aa4565b60008281526006602090815260408083206001600160a01b038516845290915290205460ff16610e5c5760008281526006602090815260408083206001600160a01b03851684529091529020805460ff191660011790556127db3390565b6001600160a01b0316816001600160a01b0316837f2f8788117e7eff1d82e926ec794901d17c78024a50270940304540a733656f0d60405160405180910390a45050565b60008281526006602090815260408083206001600160a01b038516845290915290205460ff1615610e5c5760008281526006602090815260408083206001600160a01b0385168085529252808320805460ff1916905551339285917ff6391f5c32d9c69d2a47ea670b442974b53935d1edc7fd64eb21e047a839171b9190a45050565b610e5c828260405180602001604052806000815250612b24565b816001600160a01b0316836001600160a01b0316141561291e5760405162461bcd60e51b815260206004820152601960248201527f4552433732313a20617070726f766520746f2063616c6c657200000000000000604482015260640161063b565b6001600160a01b03838116600081815260056020908152604080832094871680845294825291829020805460ff191686151590811790915591519182527f17307eab39ab6107e8899845ad3d59bd9653f200f220920489ca2b5937696c31910160405180910390a3505050565b612996848484612599565b6129a284848484612ba2565b611ccb5760405162461bcd60e51b815260206004820152603260248201527f4552433732313a207472616e7366657220746f206e6f6e20455243373231526560448201527131b2b4bb32b91034b6b83632b6b2b73a32b960711b606482015260840161063b565b60006001600160e01b031982167f80ac58cd000000000000000000000000000000000000000000000000000000001480612a6c57506001600160e01b031982167f5b5e139f00000000000000000000000000000000000000000000000000000000145b8061079857507f01ffc9a7000000000000000000000000000000000000000000000000000000006001600160e01b0319831614610798565b60008281526006602090815260408083206001600160a01b038516845290915290205460ff16610e5c57612ae2816001600160a01b03166014612ceb565b612aed836020612ceb565b604051602001612afe9291906148bc565b60408051601f198184030181529082905262461bcd60e51b825261063b91600401613226565b612b2e8383612eb7565b612b3b6000848484612ba2565b6109bb5760405162461bcd60e51b815260206004820152603260248201527f4552433732313a207472616e7366657220746f206e6f6e20455243373231526560448201527131b2b4bb32b91034b6b83632b6b2b73a32b960711b606482015260840161063b565b60006001600160a01b0384163b15612ce057604051630a85bd0160e11b81526001600160a01b0385169063150b7a0290612be690339089908890889060040161493d565b6020604051808303816000875af1925050508015612c21575060408051601f3d908101601f19168201909252612c1e9181019061496f565b60015b612cc6573d808015612c4f576040519150601f19603f3d011682016040523d82523d6000602084013e612c54565b606091505b508051612cbe5760405162461bcd60e51b815260206004820152603260248201527f4552433732313a207472616e7366657220746f206e6f6e20455243373231526560448201527131b2b4bb32b91034b6b83632b6b2b73a32b960711b606482015260840161063b565b805181602001fd5b6001600160e01b031916630a85bd0160e11b1490506123e4565b506001949350505050565b60606000612cfa83600261498c565b612d05906002614005565b67ffffffffffffffff811115612d1d57612d1d61309f565b6040519080825280601f01601f191660200182016040528015612d47576020820181803683370190505b509050600360fc1b81600081518110612d6257612d626148a6565b60200101906001600160f81b031916908160001a9053507f780000000000000000000000000000000000000000000000000000000000000081600181518110612dad57612dad6148a6565b60200101906001600160f81b031916908160001a9053506000612dd184600261498c565b612ddc906001614005565b90505b6001811115612e61577f303132333435363738396162636465660000000000000000000000000000000085600f1660108110612e1d57612e1d6148a6565b1a60f81b828281518110612e3357612e336148a6565b60200101906001600160f81b031916908160001a90535060049490941c93612e5a816149ab565b9050612ddf565b508315612eb05760405162461bcd60e51b815260206004820181905260248201527f537472696e67733a20686578206c656e67746820696e73756666696369656e74604482015260640161063b565b9392505050565b6001600160a01b038216612f0d5760405162461bcd60e51b815260206004820181905260248201527f4552433732313a206d696e7420746f20746865207a65726f2061646472657373604482015260640161063b565b6000818152600260205260409020546001600160a01b031615612f725760405162461bcd60e51b815260206004820152601c60248201527f4552433732313a20746f6b656e20616c7265616479206d696e74656400000000604482015260640161063b565b6001600160a01b0382166000908152600360205260408120805460019290612f9b908490614005565b9091555050600081815260026020526040808220805473ffffffffffffffffffffffffffffffffffffffff19166001600160a01b03861690811790915590518392907fddf252ad1be2c89b69c2b068fc378daa952ba7f163c4a11628f55a4df523b3ef908290a45050565b828054613012906136b3565b90600052602060002090601f016020900481019282613034576000855561307a565b82601f1061304d57805160ff191683800117855561307a565b8280016001018555821561307a579182015b8281111561307a57825182559160200191906001019061305f565b5061308692915061308a565b5090565b5b80821115613086576000815560010161308b565b634e487b7160e01b600052604160045260246000fd5b600067ffffffffffffffff808411156130d0576130d061309f565b604051601f8501601f19908116603f011681019082821181831017156130f8576130f861309f565b8160405280935085815286868601111561311157600080fd5b858560208301376000602087830101525050509392505050565b600082601f83011261313c57600080fd5b612eb0838335602085016130b5565b60008060006060848603121561316057600080fd5b8335925060208401359150604084013567ffffffffffffffff81111561318557600080fd5b6131918682870161312b565b9150509250925092565b6001600160e01b03198116811461248e57600080fd5b6000602082840312156131c357600080fd5b8135612eb08161319b565b60005b838110156131e95781810151838201526020016131d1565b83811115611ccb5750506000910152565b600081518084526132128160208601602086016131ce565b601f01601f19169290920160200192915050565b602081526000612eb060208301846131fa565b60006020828403121561324b57600080fd5b5035919050565b6001600160a01b038116811461248e57600080fd5b803561327281613252565b919050565b6000806040838503121561328a57600080fd5b823561329581613252565b946020939093013593505050565b6000806000606084860312156132b857600080fd5b83356132c381613252565b925060208401356132d381613252565b929592945050506040919091013590565b600080604083850312156132f757600080fd5b82359150602083013561330981613252565b809150509250929050565b6000806040838503121561332757600080fd5b82359150602083013567ffffffffffffffff81111561334557600080fd5b6133518582860161312b565b9150509250929050565b60006020828403121561336d57600080fd5b813567ffffffffffffffff81111561338457600080fd5b6123e48482850161312b565b6000602082840312156133a257600080fd5b8135612eb081613252565b60008060008060008060008060006101208a8c0312156133cc57600080fd5b6133d58a613267565b985060208a013567ffffffffffffffff808211156133f257600080fd5b6133fe8d838e0161312b565b995060408c013591508082111561341457600080fd5b6134208d838e0161312b565b985060608c013591508082111561343657600080fd5b6134428d838e0161312b565b975060808c013591508082111561345857600080fd5b6134648d838e0161312b565b965060a08c013591508082111561347a57600080fd5b6134868d838e0161312b565b955060c08c013591508082111561349c57600080fd5b6134a88d838e0161312b565b945060e08c01359150808211156134be57600080fd5b6134ca8d838e0161312b565b93506101008c01359150808211156134e157600080fd5b506134ee8c828d0161312b565b9150509295985092959850929598565b600080600080600060a0868803121561351657600080fd5b85359450602086013567ffffffffffffffff8082111561353557600080fd5b61354189838a0161312b565b9550604088013591508082111561355757600080fd5b61356389838a0161312b565b9450606088013591508082111561357957600080fd5b61358589838a0161312b565b9350608088013591508082111561359b57600080fd5b506135a88882890161312b565b9150509295509295909350565b600080604083850312156135c857600080fd5b82356135d381613252565b91506020830135801515811461330957600080fd5b600080600080608085870312156135fe57600080fd5b843561360981613252565b9350602085013561361981613252565b925060408501359150606085013567ffffffffffffffff81111561363c57600080fd5b8501601f8101871361364d57600080fd5b61365c878235602084016130b5565b91505092959194509250565b6000806040838503121561367b57600080fd5b823561368681613252565b9150602083013561330981613252565b6000602082840312156136a857600080fd5b8151612eb081613252565b600181811c908216806136c757607f821691505b602082108114156136e857634e487b7160e01b600052602260045260246000fd5b50919050565b8054600090600181811c908083168061370857607f831692505b602080841082141561372a57634e487b7160e01b600052602260045260246000fd5b81801561373e576001811461374f5761377c565b60ff1986168952848901965061377c565b60008881526020902060005b868110156137745781548b82015290850190830161375b565b505084890196505b50505050505092915050565b6000815161379a8185602086016131ce565b9290920192915050565b6602aa82220aa22960cd1b815260006137c060078301876136ee565b7f205345542076616c7565203d2027000000000000000000000000000000000000815285516137f681600e840160208a016131ce565b7f27205748455245206d61696e7461626c655f746f6b656e6964203d2000000000600e9290910191820152845161383481602a8401602089016131ce565b6f01020a722103a3930b4ba2fb4b2101e960851b602a9290910191820152835161386581603a8401602088016131ce565b603b60f81b603a9290910191820152603b019695505050505050565b6001600160a01b03841681528260208201526060604082015260006138a960608301846131fa565b95945050505050565b85815284602082015260a0604082015260006138d160a08301866131fa565b606083019490945250608001529392505050565b600083516138f78184602088016131ce565b7f756e777261703d7472756526657874726163743d66616c736526733d000000009083019081527f53454c4543542532302a25323046524f4d253230000000000000000000000000601c8201526138a960308201856136ee565b6602aa82220aa22960cd1b8152600061396d60078301866136ee565b7f2053455420696d6167655f64617461203d202700000000000000000000000000815284516139a38160138401602089016131ce565b71013902ba422a922903a37b5b2b734b2101e960751b6013929091019182015283516139d68160258401602088016131ce565b603b60f81b6025929091019182015260260195945050505050565b848152836020820152608060408201526000613a1060808301856131fa565b905082606083015295945050505050565b6602aa82220aa22960cd1b81526000613a3d60078301876136ee565b7f205345542074726169745f74797065203d20270000000000000000000000000081528551613a73816013840160208a016131ce565b7f27205748455245206d61696e7461626c655f746f6b656e6964203d2000000000601392909101918201528451613ab181602f8401602089016131ce565b6f01020a722103a3930b4ba2fb4b2101e960851b602f92909101918201528351613ae281603f8401602088016131ce565b603b60f81b603f92909101918201526040019695505050505050565b6602aa82220aa22960cd1b81526000613b1a60078301866136ee565b7f2053455420616e696d6174696f6e5f75726c203d20270000000000000000000081528451613b508160168401602089016131ce565b71013902ba422a922903a37b5b2b734b2101e960751b601692909101918201528351613b838160288401602088016131ce565b603b60f81b6028929091019182015260290195945050505050565b6602aa82220aa22960cd1b81526000613bba60078301876136ee565b7f205345542069636f6e203d20270000000000000000000000000000000000000081528551613bf081600d840160208a016131ce565b7f27205748455245206d61696e7461626c655f746f6b656e6964203d2000000000600d92909101918201528451613c2e8160298401602089016131ce565b6f01020a722103a3930b4ba2fb4b2101e960851b602992909101918201528351613c5f8160398401602088016131ce565b603b60f81b60399290910191820152603a019695505050505050565b6602aa82220aa22960cd1b81526000613c9760078301866136ee565b7f205345542065787465726e616c5f75726c203d2027000000000000000000000081528451613ccd8160158401602089016131ce565b71013902ba422a922903a37b5b2b734b2101e960751b601592909101918201528351613d008160278401602088016131ce565b603b60f81b6027929091019182015260280195945050505050565b6602aa82220aa22960cd1b81526000613d3760078301866136ee565b7f2053455420796f75747562655f75726c203d202700000000000000000000000081528451613d6d8160148401602089016131ce565b71013902ba422a922903a37b5b2b734b2101e960751b601492909101918201528351613da08160268401602088016131ce565b603b60f81b6026929091019182015260270195945050505050565b6b024a729a2a92a1024a72a27960a51b81526000613ddc600c8301896136ee565b7f2028746f6b656e69642c206e616d652c206465736372697074696f6e2c20696d81527f6167652c2063617465676f7279292056414c554553202827000000000000000060208201528751613e38816038840160208c016131ce565b80820191505063272c202760e01b8060388301528751613e5f81603c850160208c016131ce565b603c9201918201528551613e7a816040840160208a016131ce565b01613e8e6040820163272c202760e01b9052565b613e9b6044820186613788565b63272c202760e01b81529050613eb46004820185613788565b61272960f01b81526002019998505050505050505050565b6b024a729a2a92a1024a72a27960a51b81526000613f65613ef0600c84018a6136ee565b7f20286d61696e7461626c655f746f6b656e69642c2074726169745f69642c206c81527f6f636b65642c2069636f6e2c20646973706c61795f747970652c20747261697460208201527f5f747970652c2076616c7565292056414c554553202827000000000000000000604082015260570190565b8751613f75818360208c016131ce565b63272c202760e01b9101818152600360fc1b60048201819052600582018390526009820152600a8101919091528651613fb581600e840160208b016131ce565b01613fc9600e820163272c202760e01b9052565b613fd66012820187613788565b63272c202760e01b81529050613e9b6004820186613788565b634e487b7160e01b600052601160045260246000fd5b6000821982111561401857614018613fef565b500190565b6b024a729a2a92a1024a72a27960a51b81526000614041613ef0600c84018b6136ee565b8851614051818360208d016131ce565b63272c202760e01b91018181528851909190614074816004850160208d016131ce565b60049201918201819052600360fc1b6008830152600982015286516140a081600d840160208b016131ce565b016140b4600d820163272c202760e01b9052565b6140c16011820187613788565b63272c202760e01b815290506140da6004820186613788565b63272c202760e01b815290506140f36004820185613788565b61272960f01b81526002019a9950505050505050505050565b6602aa82220aa22960cd1b8152600061412860078301876136ee565b7f20534554206c6f636b6564203d202700000000000000000000000000000000008152855161415e81600f840160208a016131ce565b7f27205748455245206d61696e7461626c655f746f6b656e6964203d2000000000600f9290910191820152845161419c81602b8401602089016131ce565b6f01020a722103a3930b4ba2fb4b2101e960851b602b929091019182015283516141cd81603b8401602088016131ce565b603b60f81b603b9290910191820152603c019695505050505050565b6602aa82220aa22960cd1b8152600061420560078301866136ee565b7f20534554206261636b67726f756e645f636f6c6f72203d2027000000000000008152845161423b8160198401602089016131ce565b71013902ba422a922903a37b5b2b734b2101e960751b60199290910191820152835161426e81602b8401602088016131ce565b603b60f81b602b9290910191820152602c0195945050505050565b7f53454c4543542532306a736f6e5f6f626a65637425323825323769642532372581527f3243746f6b656e69642532432532376e616d652532372532436e616d6525324360208201527f2532376465736372697074696f6e2532372532436465736372697074696f6e2560408201527f3243253237696d616765253237253243696d616765253243253237696d61676560608201527f5f64617461253237253243696d6167655f64617461253243253237636174656760808201527f6f727925323725324363617465676f727925324325323765787465726e616c5f60a08201527f75726c25323725324365787465726e616c5f75726c2532432532376261636b6760c08201527f726f756e645f636f6c6f722532372532436261636b67726f756e645f636f6c6f60e08201527f72253243253237616e696d6174696f6e5f75726c253237253243616e696d61746101008201527f696f6e5f75726c253243253237796f75747562655f75726c253237253243796f6101208201527f75747562655f75726c253243253237617474726962757465732532372532436a6101408201527f736f6e5f67726f75705f61727261792532386a736f6e5f6f626a6563742532386101608201527f2532376c6f636b65642532372532436c6f636b656425324325323769636f6e256101808201527f323725324369636f6e253243253237646973706c61795f7479706525323725326101a08201527f43646973706c61795f7479706525324325323774726169745f747970652532376101c08201527f25324374726169745f7479706525324325323776616c756525323725324376616101e08201527f6c756525323925323925323925323046524f4d2532300000000000000000000061020082015260006146166145c76145c161459861459261456961456361453a6102168a018e6136ee565b7f2532304a4f494e253230000000000000000000000000000000000000000000008152600a0190565b8b6136ee565b7f2532304f4e253230000000000000000000000000000000000000000000000000815260080190565b886136ee565b7f253245746f6b656e696425323025334425323000000000000000000000000000815260130190565b856136ee565b7f2532456d61696e7461626c655f746f6b656e696425323057484552452532307481527f6f6b656e69642533440000000000000000000000000000000000000000000000602082015260290190565b9695505050505050565b600084516146328184602089016131ce565b7f756e777261703d7472756526657874726163743d7472756526733d0000000000908301908152845161466c81601b8401602089016131ce565b845191019061468281601b8401602088016131ce565b7f25323067726f75702532306279253230746f6b656e6964000000000000000000601b929091019182015260320195945050505050565b6602aa82220aa22960cd1b815260006146d560078301866136ee565b7f205345542063617465676f7279203d20270000000000000000000000000000008152845161470b8160118401602089016131ce565b71013902ba422a922903a37b5b2b734b2101e960751b60119290910191820152835161473e8160238401602088016131ce565b603b60f81b6023929091019182015260240195945050505050565b6602aa82220aa22960cd1b8152600061477560078301876136ee565b7f2053455420646973706c61795f74797065203d20270000000000000000000000815285516147ab816015840160208a016131ce565b7f27205748455245206d61696e7461626c655f746f6b656e6964203d20000000006015929091019182015284516147e98160318401602089016131ce565b6f01020a722103a3930b4ba2fb4b2101e960851b60319290910191820152835161481a8160418401602088016131ce565b603b60f81b604192909101918201526042019695505050505050565b600060001982141561484a5761484a613fef565b5060010190565b634e487b7160e01b600052601260045260246000fd5b60008261487657614876614851565b500490565b60008282101561488d5761488d613fef565b500390565b6000826148a1576148a1614851565b500690565b634e487b7160e01b600052603260045260246000fd5b7f416363657373436f6e74726f6c3a206163636f756e74200000000000000000008152600083516148f48160178501602088016131ce565b7f206973206d697373696e6720726f6c652000000000000000000000000000000060179184019182015283516149318160288401602088016131ce565b01602801949350505050565b60006001600160a01b0380871683528086166020840152508360408301526080606083015261461660808301846131fa565b60006020828403121561498157600080fd5b8151612eb08161319b565b60008160001904831182151516156149a6576149a6613fef565b500290565b6000816149ba576149ba613fef565b50600019019056fea264697066735822122001f2de783e86cfb495f397e832a5f8bc8c9319198fcb06965d4ef11caa4732b864736f6c634300080c003368747470733a2f2f746573746e65742e7461626c656c616e642e6e6574776f726b2f71756572793f",
  "linkReferences": {},
  "deployedLinkReferences": {}
}