{
  "_format": "hh-sol-artifact-1",
  "contractName": "TwoTablesNFT",
  "sourceName": "contracts/TwoTablesNFT.sol",
  "abi": [
    {
      "inputs": [
        {
          "internalType": "string",
          "name": "baseURI",
          "type": "string"
        },
        {
          "internalType": "string",
          "name": "_mainTable",
          "type": "string"
        },
        {
          "internalType": "string",
          "name": "_attributesTable",
          "type": "string"
        }
      ],
      "stateMutability": "nonpayable",
      "type": "constructor"
    },
    {
      "anonymous": false,
      "inputs": [
        {
          "indexed": true,
          "internalType": "address",
          "name": "owner",
          "type": "address"
        },
        {
          "indexed": true,
          "internalType": "address",
          "name": "approved",
          "type": "address"
        },
        {
          "indexed": true,
          "internalType": "uint256",
          "name": "tokenId",
          "type": "uint256"
        }
      ],
      "name": "Approval",
      "type": "event"
    },
    {
      "anonymous": false,
      "inputs": [
        {
          "indexed": true,
          "internalType": "address",
          "name": "owner",
          "type": "address"
        },
        {
          "indexed": true,
          "internalType": "address",
          "name": "operator",
          "type": "address"
        },
        {
          "indexed": false,
          "internalType": "bool",
          "name": "approved",
          "type": "bool"
        }
      ],
      "name": "ApprovalForAll",
      "type": "event"
    },
    {
      "anonymous": false,
      "inputs": [
        {
          "indexed": true,
          "internalType": "address",
          "name": "from",
          "type": "address"
        },
        {
          "indexed": true,
          "internalType": "address",
          "name": "to",
          "type": "address"
        },
        {
          "indexed": true,
          "internalType": "uint256",
          "name": "tokenId",
          "type": "uint256"
        }
      ],
      "name": "Transfer",
      "type": "event"
    },
    {
      "inputs": [
        {
          "internalType": "address",
          "name": "to",
          "type": "address"
        },
        {
          "internalType": "uint256",
          "name": "tokenId",
          "type": "uint256"
        }
      ],
      "name": "approve",
      "outputs": [],
      "stateMutability": "nonpayable",
      "type": "function"
    },
    {
      "inputs": [],
      "name": "attributesTable",
      "outputs": [
        {
          "internalType": "string",
          "name": "",
          "type": "string"
        }
      ],
      "stateMutability": "view",
      "type": "function"
    },
    {
      "inputs": [
        {
          "internalType": "address",
          "name": "owner",
          "type": "address"
        }
      ],
      "name": "balanceOf",
      "outputs": [
        {
          "internalType": "uint256",
          "name": "",
          "type": "uint256"
        }
      ],
      "stateMutability": "view",
      "type": "function"
    },
    {
      "inputs": [],
      "name": "baseURIString",
      "outputs": [
        {
          "internalType": "string",
          "name": "",
          "type": "string"
        }
      ],
      "stateMutability": "view",
      "type": "function"
    },
    {
      "inputs": [
        {
          "internalType": "uint256",
          "name": "tokenId",
          "type": "uint256"
        }
      ],
      "name": "getApproved",
      "outputs": [
        {
          "internalType": "address",
          "name": "",
          "type": "address"
        }
      ],
      "stateMutability": "view",
      "type": "function"
    },
    {
      "inputs": [
        {
          "internalType": "address",
          "name": "owner",
          "type": "address"
        },
        {
          "internalType": "address",
          "name": "operator",
          "type": "address"
        }
      ],
      "name": "isApprovedForAll",
      "outputs": [
        {
          "internalType": "bool",
          "name": "",
          "type": "bool"
        }
      ],
      "stateMutability": "view",
      "type": "function"
    },
    {
      "inputs": [],
      "name": "mainTable",
      "outputs": [
        {
          "internalType": "string",
          "name": "",
          "type": "string"
        }
      ],
      "stateMutability": "view",
      "type": "function"
    },
    {
      "inputs": [],
      "name": "mint",
      "outputs": [],
      "stateMutability": "nonpayable",
      "type": "function"
    },
    {
      "inputs": [],
      "name": "name",
      "outputs": [
        {
          "internalType": "string",
          "name": "",
          "type": "string"
        }
      ],
      "stateMutability": "view",
      "type": "function"
    },
    {
      "inputs": [
        {
          "internalType": "uint256",
          "name": "tokenId",
          "type": "uint256"
        }
      ],
      "name": "ownerOf",
      "outputs": [
        {
          "internalType": "address",
          "name": "",
          "type": "address"
        }
      ],
      "stateMutability": "view",
      "type": "function"
    },
    {
      "inputs": [
        {
          "internalType": "address",
          "name": "from",
          "type": "address"
        },
        {
          "internalType": "address",
          "name": "to",
          "type": "address"
        },
        {
          "internalType": "uint256",
          "name": "tokenId",
          "type": "uint256"
        }
      ],
      "name": "safeTransferFrom",
      "outputs": [],
      "stateMutability": "nonpayable",
      "type": "function"
    },
    {
      "inputs": [
        {
          "internalType": "address",
          "name": "from",
          "type": "address"
        },
        {
          "internalType": "address",
          "name": "to",
          "type": "address"
        },
        {
          "internalType": "uint256",
          "name": "tokenId",
          "type": "uint256"
        },
        {
          "internalType": "bytes",
          "name": "data",
          "type": "bytes"
        }
      ],
      "name": "safeTransferFrom",
      "outputs": [],
      "stateMutability": "nonpayable",
      "type": "function"
    },
    {
      "inputs": [
        {
          "internalType": "address",
          "name": "operator",
          "type": "address"
        },
        {
          "internalType": "bool",
          "name": "approved",
          "type": "bool"
        }
      ],
      "name": "setApprovalForAll",
      "outputs": [],
      "stateMutability": "nonpayable",
      "type": "function"
    },
    {
      "inputs": [
        {
          "internalType": "bytes4",
          "name": "interfaceId",
          "type": "bytes4"
        }
      ],
      "name": "supportsInterface",
      "outputs": [
        {
          "internalType": "bool",
          "name": "",
          "type": "bool"
        }
      ],
      "stateMutability": "view",
      "type": "function"
    },
    {
      "inputs": [],
      "name": "symbol",
      "outputs": [
        {
          "internalType": "string",
          "name": "",
          "type": "string"
        }
      ],
      "stateMutability": "view",
      "type": "function"
    },
    {
      "inputs": [
        {
          "internalType": "uint256",
          "name": "tokenId",
          "type": "uint256"
        }
      ],
      "name": "tokenURI",
      "outputs": [
        {
          "internalType": "string",
          "name": "",
          "type": "string"
        }
      ],
      "stateMutability": "view",
      "type": "function"
    },
    {
      "inputs": [],
      "name": "totalSupply",
      "outputs": [
        {
          "internalType": "uint256",
          "name": "",
          "type": "uint256"
        }
      ],
      "stateMutability": "view",
      "type": "function"
    },
    {
      "inputs": [
        {
          "internalType": "address",
          "name": "from",
          "type": "address"
        },
        {
          "internalType": "address",
          "name": "to",
          "type": "address"
        },
        {
          "internalType": "uint256",
          "name": "tokenId",
          "type": "uint256"
        }
      ],
      "name": "transferFrom",
      "outputs": [],
      "stateMutability": "nonpayable",
      "type": "function"
    }
  ],
  "bytecode": "0x60806040523480156200001157600080fd5b5060405162001d4438038062001d44833981016040819052620000349162000266565b604080518082018252600c81526b151ddbd518589b195cd3919560a21b602080830191825283518085019094526005845264151513919560da1b9084015281519192916200008591600091620000f3565b5080516200009b906001906020840190620000f3565b50506000600955506002600a558251620000bd906006906020860190620000f3565b508151620000d3906007906020850190620000f3565b508051620000e9906008906020840190620000f3565b5050505062000334565b8280546200010190620002f7565b90600052602060002090601f01602090048101928262000125576000855562000170565b82601f106200014057805160ff191683800117855562000170565b8280016001018555821562000170579182015b828111156200017057825182559160200191906001019062000153565b506200017e92915062000182565b5090565b5b808211156200017e576000815560010162000183565b634e487b7160e01b600052604160045260246000fd5b600082601f830112620001c157600080fd5b81516001600160401b0380821115620001de57620001de62000199565b604051601f8301601f19908116603f0116810190828211818310171562000209576200020962000199565b816040528381526020925086838588010111156200022657600080fd5b600091505b838210156200024a57858201830151818301840152908201906200022b565b838211156200025c5760008385830101525b9695505050505050565b6000806000606084860312156200027c57600080fd5b83516001600160401b03808211156200029457600080fd5b620002a287838801620001af565b94506020860151915080821115620002b957600080fd5b620002c787838801620001af565b93506040860151915080821115620002de57600080fd5b50620002ed86828701620001af565b9150509250925092565b600181811c908216806200030c57607f821691505b602082108114156200032e57634e487b7160e01b600052602260045260246000fd5b50919050565b611a0080620003446000396000f3fe608060405234801561001057600080fd5b50600436106101365760003560e01c80636352211e116100b2578063a22cb46511610081578063c87b56dd11610066578063c87b56dd1461025c578063cf76a1531461026f578063e985e9c51461027757600080fd5b8063a22cb46514610236578063b88d4fde1461024957600080fd5b80636352211e1461020057806370a08231146102135780637bc53be91461022657806395d89b411461022e57600080fd5b80631249c58b1161010957806323b872dd116100ee57806323b872dd146101d257806342842e0e146101e55780635d21260a146101f857600080fd5b80631249c58b146101b857806318160ddd146101c057600080fd5b806301ffc9a71461013b57806306fdde0314610163578063081812fc14610178578063095ea7b3146101a3575b600080fd5b61014e6101493660046112fc565b6102b3565b60405190151581526020015b60405180910390f35b61016b610350565b60405161015a9190611378565b61018b61018636600461138b565b6103e2565b6040516001600160a01b03909116815260200161015a565b6101b66101b13660046113c0565b610409565b005b6101b6610540565b600a545b60405190815260200161015a565b6101b66101e03660046113ea565b6105dc565b6101b66101f33660046113ea565b610663565b61016b61067e565b61018b61020e36600461138b565b61070c565b6101c4610221366004611426565b610771565b61016b61080b565b61016b610818565b6101b6610244366004611441565b610827565b6101b6610257366004611493565b610836565b61016b61026a36600461138b565b6108c4565b61016b6109e0565b61014e61028536600461156f565b6001600160a01b03918216600090815260056020908152604080832093909416825291909152205460ff1690565b60006001600160e01b031982167f80ac58cd00000000000000000000000000000000000000000000000000000000148061031657506001600160e01b031982167f5b5e139f00000000000000000000000000000000000000000000000000000000145b8061034a57507f01ffc9a7000000000000000000000000000000000000000000000000000000006001600160e01b03198316145b92915050565b60606000805461035f906115a2565b80601f016020809104026020016040519081016040528092919081815260200182805461038b906115a2565b80156103d85780601f106103ad576101008083540402835291602001916103d8565b820191906000526020600020905b8154815290600101906020018083116103bb57829003601f168201915b5050505050905090565b60006103ed826109ed565b506000908152600460205260409020546001600160a01b031690565b60006104148261070c565b9050806001600160a01b0316836001600160a01b031614156104a35760405162461bcd60e51b815260206004820152602160248201527f4552433732313a20617070726f76616c20746f2063757272656e74206f776e6560448201527f720000000000000000000000000000000000000000000000000000000000000060648201526084015b60405180910390fd5b336001600160a01b03821614806104bf57506104bf8133610285565b6105315760405162461bcd60e51b815260206004820152603e60248201527f4552433732313a20617070726f76652063616c6c6572206973206e6f7420746f60448201527f6b656e206f776e6572206e6f7220617070726f76656420666f7220616c6c0000606482015260840161049a565b61053b8383610a54565b505050565b600a54600954106105b95760405162461bcd60e51b815260206004820152602960248201527f4d6178696d756d206e756d626572206f6620746f6b656e73206861766520626560448201527f656e206d696e7465640000000000000000000000000000000000000000000000606482015260840161049a565b6105c533600954610acf565b600980549060006105d5836115f3565b9190505550565b6105e63382610ae9565b6106585760405162461bcd60e51b815260206004820152602e60248201527f4552433732313a2063616c6c6572206973206e6f7420746f6b656e206f776e6560448201527f72206e6f7220617070726f766564000000000000000000000000000000000000606482015260840161049a565b61053b838383610b68565b61053b83838360405180602001604052806000815250610836565b6007805461068b906115a2565b80601f01602080910402602001604051908101604052809291908181526020018280546106b7906115a2565b80156107045780601f106106d957610100808354040283529160200191610704565b820191906000526020600020905b8154815290600101906020018083116106e757829003601f168201915b505050505081565b6000818152600260205260408120546001600160a01b03168061034a5760405162461bcd60e51b815260206004820152601860248201527f4552433732313a20696e76616c696420746f6b656e2049440000000000000000604482015260640161049a565b60006001600160a01b0382166107ef5760405162461bcd60e51b815260206004820152602960248201527f4552433732313a2061646472657373207a65726f206973206e6f74206120766160448201527f6c6964206f776e65720000000000000000000000000000000000000000000000606482015260840161049a565b506001600160a01b031660009081526003602052604090205490565b6008805461068b906115a2565b60606001805461035f906115a2565b610832338383610d42565b5050565b6108403383610ae9565b6108b25760405162461bcd60e51b815260206004820152602e60248201527f4552433732313a2063616c6c6572206973206e6f7420746f6b656e206f776e6560448201527f72206e6f7220617070726f766564000000000000000000000000000000000000606482015260840161049a565b6108be84848484610e11565b50505050565b6000818152600260205260409020546060906001600160a01b03166109515760405162461bcd60e51b815260206004820152602f60248201527f4552433732314d657461646174613a2055524920717565727920666f72206e6f60448201527f6e6578697374656e7420746f6b656e0000000000000000000000000000000000606482015260840161049a565b600061095b610e8f565b905080516000141561097d575050604080516020810190915260008152919050565b6000600760086007600860405160200161099a94939291906116a8565b604051602081830303815290604052905081816109b686610e9e565b6040516020016109c893929190611883565b60405160208183030381529060405292505050919050565b6006805461068b906115a2565b6000818152600260205260409020546001600160a01b0316610a515760405162461bcd60e51b815260206004820152601860248201527f4552433732313a20696e76616c696420746f6b656e2049440000000000000000604482015260640161049a565b50565b6000818152600460205260409020805473ffffffffffffffffffffffffffffffffffffffff19166001600160a01b0384169081179091558190610a968261070c565b6001600160a01b03167f8c5be1e5ebec7d5bd14f71427d1e84f3dd0314c0f7b2291e5b200ac8c7c3b92560405160405180910390a45050565b610832828260405180602001604052806000815250610fd0565b600080610af58361070c565b9050806001600160a01b0316846001600160a01b03161480610b3c57506001600160a01b0380821660009081526005602090815260408083209388168352929052205460ff165b80610b605750836001600160a01b0316610b55846103e2565b6001600160a01b0316145b949350505050565b826001600160a01b0316610b7b8261070c565b6001600160a01b031614610bf75760405162461bcd60e51b815260206004820152602560248201527f4552433732313a207472616e736665722066726f6d20696e636f72726563742060448201527f6f776e6572000000000000000000000000000000000000000000000000000000606482015260840161049a565b6001600160a01b038216610c725760405162461bcd60e51b8152602060048201526024808201527f4552433732313a207472616e7366657220746f20746865207a65726f2061646460448201527f7265737300000000000000000000000000000000000000000000000000000000606482015260840161049a565b610c7d600082610a54565b6001600160a01b0383166000908152600360205260408120805460019290610ca69084906118ee565b90915550506001600160a01b0382166000908152600360205260408120805460019290610cd4908490611905565b9091555050600081815260026020526040808220805473ffffffffffffffffffffffffffffffffffffffff19166001600160a01b0386811691821790925591518493918716917fddf252ad1be2c89b69c2b068fc378daa952ba7f163c4a11628f55a4df523b3ef91a4505050565b816001600160a01b0316836001600160a01b03161415610da45760405162461bcd60e51b815260206004820152601960248201527f4552433732313a20617070726f766520746f2063616c6c657200000000000000604482015260640161049a565b6001600160a01b03838116600081815260056020908152604080832094871680845294825291829020805460ff191686151590811790915591519182527f17307eab39ab6107e8899845ad3d59bd9653f200f220920489ca2b5937696c31910160405180910390a3505050565b610e1c848484610b68565b610e288484848461104e565b6108be5760405162461bcd60e51b815260206004820152603260248201527f4552433732313a207472616e7366657220746f206e6f6e20455243373231526560448201527131b2b4bb32b91034b6b83632b6b2b73a32b960711b606482015260840161049a565b60606006805461035f906115a2565b606081610ede57505060408051808201909152600181527f3000000000000000000000000000000000000000000000000000000000000000602082015290565b8160005b8115610f085780610ef2816115f3565b9150610f019050600a83611933565b9150610ee2565b60008167ffffffffffffffff811115610f2357610f2361147d565b6040519080825280601f01601f191660200182016040528015610f4d576020820181803683370190505b5090505b8415610b6057610f626001836118ee565b9150610f6f600a86611947565b610f7a906030611905565b60f81b818381518110610f8f57610f8f61195b565b60200101907effffffffffffffffffffffffffffffffffffffffffffffffffffffffffffff1916908160001a905350610fc9600a86611933565b9450610f51565b610fda8383611197565b610fe7600084848461104e565b61053b5760405162461bcd60e51b815260206004820152603260248201527f4552433732313a207472616e7366657220746f206e6f6e20455243373231526560448201527131b2b4bb32b91034b6b83632b6b2b73a32b960711b606482015260840161049a565b60006001600160a01b0384163b1561118c57604051630a85bd0160e11b81526001600160a01b0385169063150b7a0290611092903390899088908890600401611971565b6020604051808303816000875af19250505080156110cd575060408051601f3d908101601f191682019092526110ca918101906119ad565b60015b611172573d8080156110fb576040519150601f19603f3d011682016040523d82523d6000602084013e611100565b606091505b50805161116a5760405162461bcd60e51b815260206004820152603260248201527f4552433732313a207472616e7366657220746f206e6f6e20455243373231526560448201527131b2b4bb32b91034b6b83632b6b2b73a32b960711b606482015260840161049a565b805181602001fd5b6001600160e01b031916630a85bd0160e11b149050610b60565b506001949350505050565b6001600160a01b0382166111ed5760405162461bcd60e51b815260206004820181905260248201527f4552433732313a206d696e7420746f20746865207a65726f2061646472657373604482015260640161049a565b6000818152600260205260409020546001600160a01b0316156112525760405162461bcd60e51b815260206004820152601c60248201527f4552433732313a20746f6b656e20616c7265616479206d696e74656400000000604482015260640161049a565b6001600160a01b038216600090815260036020526040812080546001929061127b908490611905565b9091555050600081815260026020526040808220805473ffffffffffffffffffffffffffffffffffffffff19166001600160a01b03861690811790915590518392907fddf252ad1be2c89b69c2b068fc378daa952ba7f163c4a11628f55a4df523b3ef908290a45050565b6001600160e01b031981168114610a5157600080fd5b60006020828403121561130e57600080fd5b8135611319816112e6565b9392505050565b60005b8381101561133b578181015183820152602001611323565b838111156108be5750506000910152565b60008151808452611364816020860160208601611320565b601f01601f19169290920160200192915050565b602081526000611319602083018461134c565b60006020828403121561139d57600080fd5b5035919050565b80356001600160a01b03811681146113bb57600080fd5b919050565b600080604083850312156113d357600080fd5b6113dc836113a4565b946020939093013593505050565b6000806000606084860312156113ff57600080fd5b611408846113a4565b9250611416602085016113a4565b9150604084013590509250925092565b60006020828403121561143857600080fd5b611319826113a4565b6000806040838503121561145457600080fd5b61145d836113a4565b91506020830135801515811461147257600080fd5b809150509250929050565b634e487b7160e01b600052604160045260246000fd5b600080600080608085870312156114a957600080fd5b6114b2856113a4565b93506114c0602086016113a4565b925060408501359150606085013567ffffffffffffffff808211156114e457600080fd5b818701915087601f8301126114f857600080fd5b81358181111561150a5761150a61147d565b604051601f8201601f19908116603f011681019083821181831017156115325761153261147d565b816040528281528a602084870101111561154b57600080fd5b82602086016020830137600060208483010152809550505050505092959194509250565b6000806040838503121561158257600080fd5b61158b836113a4565b9150611599602084016113a4565b90509250929050565b600181811c908216806115b657607f821691505b602082108114156115d757634e487b7160e01b600052602260045260246000fd5b50919050565b634e487b7160e01b600052601160045260246000fd5b6000600019821415611607576116076115dd565b5060010190565b8054600090600181811c908083168061162857607f831692505b602080841082141561164a57634e487b7160e01b600052602260045260246000fd5b81801561165e576001811461166f5761169c565b60ff1986168952848901965061169c565b60008881526020902060005b868110156116945781548b82015290850190830161167b565b505084890196505b50505050505092915050565b7f53454c4543542532306a736f6e5f6f626a65637425323825323769642532372581527f324369642532432532376e616d652532372532436e616d65253243253237646560208201527f736372697074696f6e2532372532436465736372697074696f6e25324325323760408201527f617474726962757465732532372532436a736f6e5f67726f75705f617272617960608201527f2532386a736f6e5f6f626a65637425323825323774726169745f74797065253260808201527f3725324374726169745f7479706525324325323776616c75652532372532437660a08201527f616c756525323925323925323925323046524f4d25323000000000000000000060c082015260006117be60d783018761160e565b7f2532304a4f494e2532300000000000000000000000000000000000000000000081526117ee600a82018761160e565b90507f2532304f4e2532300000000000000000000000000000000000000000000000008152611820600882018661160e565b90507f25324569642532302533442532300000000000000000000000000000000000008152611852600e82018561160e565b7f2532456d61696e5f6964253230574845524525323069642533440000000000008152601a01979650505050505050565b60008451611895818460208901611320565b8451908301906118a9818360208901611320565b84519101906118bc818360208801611320565b7f25323067726f7570253230627925323069640000000000000000000000000000910190815260120195945050505050565b600082821015611900576119006115dd565b500390565b60008219821115611918576119186115dd565b500190565b634e487b7160e01b600052601260045260246000fd5b6000826119425761194261191d565b500490565b6000826119565761195661191d565b500690565b634e487b7160e01b600052603260045260246000fd5b60006001600160a01b038087168352808616602084015250836040830152608060608301526119a3608083018461134c565b9695505050505050565b6000602082840312156119bf57600080fd5b8151611319816112e656fea2646970667358221220b89b06a9b79c26c6f3ace63f2bc7fade4defcfa55407f2ed2c5ba350527ac53164736f6c634300080c0033",
  "linkReferences": {},
  "deployedLinkReferences": {}
}