{
  "_format": "hh-sol-artifact-1",
  "contractName": "MojoCore",
  "sourceName": "contracts/MojoCore.sol",
  "abi": [
    {
      "inputs": [
        {
          "internalType": "address",
          "name": "registry",
          "type": "address"
        }
      ],
      "stateMutability": "nonpayable",
      "type": "constructor"
    },
    {
      "anonymous": false,
      "inputs": [
        {
          "indexed": true,
          "internalType": "address",
          "name": "owner",
          "type": "address"
        },
        {
          "indexed": true,
          "internalType": "address",
          "name": "approved",
          "type": "address"
        },
        {
          "indexed": true,
          "internalType": "uint256",
          "name": "tokenId",
          "type": "uint256"
        }
      ],
      "name": "Approval",
      "type": "event"
    },
    {
      "anonymous": false,
      "inputs": [
        {
          "indexed": true,
          "internalType": "address",
          "name": "owner",
          "type": "address"
        },
        {
          "indexed": true,
          "internalType": "address",
          "name": "operator",
          "type": "address"
        },
        {
          "indexed": false,
          "internalType": "bool",
          "name": "approved",
          "type": "bool"
        }
      ],
      "name": "ApprovalForAll",
      "type": "event"
    },
    {
      "anonymous": false,
      "inputs": [
        {
          "indexed": true,
          "internalType": "address",
          "name": "from",
          "type": "address"
        },
        {
          "indexed": false,
          "internalType": "uint256",
          "name": "timestamp",
          "type": "uint256"
        },
        {
          "indexed": false,
          "internalType": "uint256",
          "name": "tokenId",
          "type": "uint256"
        }
      ],
      "name": "NewNftMinted",
      "type": "event"
    },
    {
      "anonymous": false,
      "inputs": [
        {
          "indexed": true,
          "internalType": "address",
          "name": "previousOwner",
          "type": "address"
        },
        {
          "indexed": true,
          "internalType": "address",
          "name": "newOwner",
          "type": "address"
        }
      ],
      "name": "OwnershipTransferred",
      "type": "event"
    },
    {
      "anonymous": false,
      "inputs": [
        {
          "indexed": true,
          "internalType": "address",
          "name": "from",
          "type": "address"
        },
        {
          "indexed": true,
          "internalType": "address",
          "name": "to",
          "type": "address"
        },
        {
          "indexed": true,
          "internalType": "uint256",
          "name": "tokenId",
          "type": "uint256"
        }
      ],
      "name": "Transfer",
      "type": "event"
    },
    {
      "inputs": [
        {
          "internalType": "address",
          "name": "to",
          "type": "address"
        },
        {
          "internalType": "uint256",
          "name": "tokenId",
          "type": "uint256"
        }
      ],
      "name": "approve",
      "outputs": [],
      "stateMutability": "nonpayable",
      "type": "function"
    },
    {
      "inputs": [
        {
          "internalType": "address",
          "name": "owner",
          "type": "address"
        }
      ],
      "name": "balanceOf",
      "outputs": [
        {
          "internalType": "uint256",
          "name": "",
          "type": "uint256"
        }
      ],
      "stateMutability": "view",
      "type": "function"
    },
    {
      "inputs": [
        {
          "internalType": "uint256",
          "name": "tokenId",
          "type": "uint256"
        }
      ],
      "name": "getApproved",
      "outputs": [
        {
          "internalType": "address",
          "name": "",
          "type": "address"
        }
      ],
      "stateMutability": "view",
      "type": "function"
    },
    {
      "inputs": [
        {
          "internalType": "address",
          "name": "owner",
          "type": "address"
        },
        {
          "internalType": "address",
          "name": "operator",
          "type": "address"
        }
      ],
      "name": "isApprovedForAll",
      "outputs": [
        {
          "internalType": "bool",
          "name": "",
          "type": "bool"
        }
      ],
      "stateMutability": "view",
      "type": "function"
    },
    {
      "inputs": [],
      "name": "name",
      "outputs": [
        {
          "internalType": "string",
          "name": "",
          "type": "string"
        }
      ],
      "stateMutability": "view",
      "type": "function"
    },
    {
      "inputs": [],
      "name": "owner",
      "outputs": [
        {
          "internalType": "address",
          "name": "",
          "type": "address"
        }
      ],
      "stateMutability": "view",
      "type": "function"
    },
    {
      "inputs": [
        {
          "internalType": "uint256",
          "name": "tokenId",
          "type": "uint256"
        }
      ],
      "name": "ownerOf",
      "outputs": [
        {
          "internalType": "address",
          "name": "",
          "type": "address"
        }
      ],
      "stateMutability": "view",
      "type": "function"
    },
    {
      "inputs": [],
      "name": "renounceOwnership",
      "outputs": [],
      "stateMutability": "nonpayable",
      "type": "function"
    },
    {
      "inputs": [
        {
          "internalType": "address",
          "name": "to",
          "type": "address"
        },
        {
          "internalType": "string",
          "name": "newTokenURI",
          "type": "string"
        }
      ],
      "name": "safeMint",
      "outputs": [
        {
          "internalType": "uint256",
          "name": "",
          "type": "uint256"
        }
      ],
      "stateMutability": "nonpayable",
      "type": "function"
    },
    {
      "inputs": [
        {
          "internalType": "address",
          "name": "from",
          "type": "address"
        },
        {
          "internalType": "address",
          "name": "to",
          "type": "address"
        },
        {
          "internalType": "uint256",
          "name": "tokenId",
          "type": "uint256"
        }
      ],
      "name": "safeTransferFrom",
      "outputs": [],
      "stateMutability": "nonpayable",
      "type": "function"
    },
    {
      "inputs": [
        {
          "internalType": "address",
          "name": "from",
          "type": "address"
        },
        {
          "internalType": "address",
          "name": "to",
          "type": "address"
        },
        {
          "internalType": "uint256",
          "name": "tokenId",
          "type": "uint256"
        },
        {
          "internalType": "bytes",
          "name": "data",
          "type": "bytes"
        }
      ],
      "name": "safeTransferFrom",
      "outputs": [],
      "stateMutability": "nonpayable",
      "type": "function"
    },
    {
      "inputs": [
        {
          "internalType": "address",
          "name": "operator",
          "type": "address"
        },
        {
          "internalType": "bool",
          "name": "approved",
          "type": "bool"
        }
      ],
      "name": "setApprovalForAll",
      "outputs": [],
      "stateMutability": "nonpayable",
      "type": "function"
    },
    {
      "inputs": [
        {
          "internalType": "string",
          "name": "externalURL",
          "type": "string"
        }
      ],
      "name": "setExternalURL",
      "outputs": [],
      "stateMutability": "nonpayable",
      "type": "function"
    },
    {
      "inputs": [
        {
          "internalType": "bytes4",
          "name": "interfaceId",
          "type": "bytes4"
        }
      ],
      "name": "supportsInterface",
      "outputs": [
        {
          "internalType": "bool",
          "name": "",
          "type": "bool"
        }
      ],
      "stateMutability": "view",
      "type": "function"
    },
    {
      "inputs": [],
      "name": "symbol",
      "outputs": [
        {
          "internalType": "string",
          "name": "",
          "type": "string"
        }
      ],
      "stateMutability": "view",
      "type": "function"
    },
    {
      "inputs": [
        {
          "internalType": "uint256",
          "name": "tokenId",
          "type": "uint256"
        }
      ],
      "name": "tokenURI",
      "outputs": [
        {
          "internalType": "string",
          "name": "",
          "type": "string"
        }
      ],
      "stateMutability": "view",
      "type": "function"
    },
    {
      "inputs": [
        {
          "internalType": "address",
          "name": "from",
          "type": "address"
        },
        {
          "internalType": "address",
          "name": "to",
          "type": "address"
        },
        {
          "internalType": "uint256",
          "name": "tokenId",
          "type": "uint256"
        }
      ],
      "name": "transferFrom",
      "outputs": [],
      "stateMutability": "nonpayable",
      "type": "function"
    },
    {
      "inputs": [
        {
          "internalType": "address",
          "name": "newOwner",
          "type": "address"
        }
      ],
      "name": "transferOwnership",
      "outputs": [],
      "stateMutability": "nonpayable",
      "type": "function"
    }
  ],
  "bytecode": "0x60806040526040518060600160405280602a8152602001620042cd602a9139600a908051906020019062000035929190620005a4565b506040518060400160405280600481526020017f6d6f6a6f00000000000000000000000000000000000000000000000000000000815250600d908051906020019062000083929190620005a4565b506040518060400160405280601381526020017f6e6f742e696d706c656d656e7465642e636f6d00000000000000000000000000815250600e9080519060200190620000d1929190620005a4565b50348015620000df57600080fd5b50604051620042f7380380620042f78339818101604052810190620001059190620006be565b6040518060400160405280600781526020017f4d6f6a6f4e4654000000000000000000000000000000000000000000000000008152506040518060400160405280600481526020017f6d4e465400000000000000000000000000000000000000000000000000000000815250816000908051906020019062000189929190620005a4565b508060019080519060200190620001a2929190620005a4565b505050620001c5620001b96200035c60201b60201c565b6200036460201b60201c565b80600960006101000a81548173ffffffffffffffffffffffffffffffffffffffff021916908373ffffffffffffffffffffffffffffffffffffffff160217905550600960009054906101000a900473ffffffffffffffffffffffffffffffffffffffff1673ffffffffffffffffffffffffffffffffffffffff16633a9151b030600d6200025d466200042a60201b62000ea21760201c565b60405160200162000270929190620008ea565b6040516020818303038152906040526040518363ffffffff1660e01b81526004016200029e929190620009b9565b6020604051808303816000875af1158015620002be573d6000803e3d6000fd5b505050506040513d601f19601f82011682018060405250810190620002e4919062000a28565b600c81905550600d62000302466200042a60201b62000ea21760201c565b6200031a600c546200042a60201b62000ea21760201c565b6040516020016200032e9392919062000a5a565b604051602081830303815290604052600b908051906020019062000354929190620005a4565b505062000cc5565b600033905090565b6000600760009054906101000a900473ffffffffffffffffffffffffffffffffffffffff16905081600760006101000a81548173ffffffffffffffffffffffffffffffffffffffff021916908373ffffffffffffffffffffffffffffffffffffffff1602179055508173ffffffffffffffffffffffffffffffffffffffff168173ffffffffffffffffffffffffffffffffffffffff167f8be0079c531659141344cd1fd0a4f28419497f9722a3daafe3b4186f6b6457e060405160405180910390a35050565b6060600082141562000474576040518060400160405280600181526020017f300000000000000000000000000000000000000000000000000000000000000081525090506200059f565b600082905060005b60008214620004ac578080620004929062000ae2565b915050600a82620004a4919062000b5f565b91506200047c565b60008167ffffffffffffffff811115620004cb57620004ca62000b97565b5b6040519080825280601f01601f191660200182016040528015620004fe5781602001600182028036833780820191505090505b5090505b6000851462000598576001826200051a919062000bc6565b9150600a856200052b919062000c01565b603062000539919062000c39565b60f81b81838151811062000552576200055162000c96565b5b60200101907effffffffffffffffffffffffffffffffffffffffffffffffffffffffffffff1916908160001a905350600a8562000590919062000b5f565b945062000502565b8093505050505b919050565b828054620005b29062000745565b90600052602060002090601f016020900481019282620005d6576000855562000622565b82601f10620005f157805160ff191683800117855562000622565b8280016001018555821562000622579182015b828111156200062157825182559160200191906001019062000604565b5b50905062000631919062000635565b5090565b5b808211156200065057600081600090555060010162000636565b5090565b600080fd5b600073ffffffffffffffffffffffffffffffffffffffff82169050919050565b6000620006868262000659565b9050919050565b620006988162000679565b8114620006a457600080fd5b50565b600081519050620006b8816200068d565b92915050565b600060208284031215620006d757620006d662000654565b5b6000620006e784828501620006a7565b91505092915050565b7f435245415445205441424c452000000000000000000000000000000000000000815250565b7f4e487b7100000000000000000000000000000000000000000000000000000000600052602260045260246000fd5b600060028204905060018216806200075e57607f821691505b6020821081141562000775576200077462000716565b5b50919050565b600081905092915050565b60008190508160005260206000209050919050565b60008154620007aa8162000745565b620007b681866200077b565b94506001821660008114620007d45760018114620007e6576200081d565b60ff198316865281860193506200081d565b620007f18562000786565b60005b838110156200081557815481890152600182019150602081019050620007f4565b838801955050505b50505092915050565b7f5f00000000000000000000000000000000000000000000000000000000000000815250565b600081519050919050565b60005b83811015620008775780820151818401526020810190506200085a565b8381111562000887576000848401525b50505050565b60006200089a826200084c565b620008a681856200077b565b9350620008b881856020860162000857565b80840191505092915050565b7f2028696420696e742c2065787465726e616c5f6c696e6b2074657874293b0000815250565b6000620008f782620006f0565b600d820191506200090982856200079b565b9150620009168262000826565b6001820191506200092882846200088d565b91506200093582620008c4565b601e820191508190509392505050565b620009508162000679565b82525050565b600082825260208201905092915050565b6000601f19601f8301169050919050565b600062000985826200084c565b62000991818562000956565b9350620009a381856020860162000857565b620009ae8162000967565b840191505092915050565b6000604082019050620009d0600083018562000945565b8181036020830152620009e4818462000978565b90509392505050565b6000819050919050565b62000a0281620009ed565b811462000a0e57600080fd5b50565b60008151905062000a2281620009f7565b92915050565b60006020828403121562000a415762000a4062000654565b5b600062000a518482850162000a11565b91505092915050565b600062000a6882866200079b565b915062000a758262000826565b60018201915062000a8782856200088d565b915062000a948262000826565b60018201915062000aa682846200088d565b9150819050949350505050565b7f4e487b7100000000000000000000000000000000000000000000000000000000600052601160045260246000fd5b600062000aef82620009ed565b91507fffffffffffffffffffffffffffffffffffffffffffffffffffffffffffffffff82141562000b255762000b2462000ab3565b5b600182019050919050565b7f4e487b7100000000000000000000000000000000000000000000000000000000600052601260045260246000fd5b600062000b6c82620009ed565b915062000b7983620009ed565b92508262000b8c5762000b8b62000b30565b5b828204905092915050565b7f4e487b7100000000000000000000000000000000000000000000000000000000600052604160045260246000fd5b600062000bd382620009ed565b915062000be083620009ed565b92508282101562000bf65762000bf562000ab3565b5b828203905092915050565b600062000c0e82620009ed565b915062000c1b83620009ed565b92508262000c2e5762000c2d62000b30565b5b828206905092915050565b600062000c4682620009ed565b915062000c5383620009ed565b9250827fffffffffffffffffffffffffffffffffffffffffffffffffffffffffffffffff0382111562000c8b5762000c8a62000ab3565b5b828201905092915050565b7f4e487b7100000000000000000000000000000000000000000000000000000000600052603260045260246000fd5b6135f88062000cd56000396000f3fe608060405234801561001057600080fd5b50600436106101165760003560e01c8063715018a6116100a2578063b88d4fde11610071578063b88d4fde146102cb578063c87b56dd146102e7578063d204c45e14610317578063e985e9c514610347578063f2fde38b1461037757610116565b8063715018a6146102695780638da5cb5b1461027357806395d89b4114610291578063a22cb465146102af57610116565b8063095ea7b3116100e9578063095ea7b3146101b557806323b872dd146101d157806342842e0e146101ed5780636352211e1461020957806370a082311461023957610116565b806301dbcd4a1461011b57806301ffc9a71461013757806306fdde0314610167578063081812fc14610185575b600080fd5b61013560048036038101906101309190611ea4565b610393565b005b610151600480360381019061014c9190611f49565b610468565b60405161015e9190611f91565b60405180910390f35b61016f61054a565b60405161017c9190612045565b60405180910390f35b61019f600480360381019061019a919061209d565b6105dc565b6040516101ac919061210b565b60405180910390f35b6101cf60048036038101906101ca9190612152565b610622565b005b6101eb60048036038101906101e69190612192565b61073a565b005b61020760048036038101906102029190612192565b61079a565b005b610223600480360381019061021e919061209d565b6107ba565b604051610230919061210b565b60405180910390f35b610253600480360381019061024e91906121e5565b61086c565b6040516102609190612221565b60405180910390f35b610271610924565b005b61027b610938565b604051610288919061210b565b60405180910390f35b610299610962565b6040516102a69190612045565b60405180910390f35b6102c960048036038101906102c49190612268565b6109f4565b005b6102e560048036038101906102e091906123d8565b610a0a565b005b61030160048036038101906102fc919061209d565b610a6c565b60405161030e9190612045565b60405180910390f35b610331600480360381019061032c91906124fc565b610c32565b60405161033e9190612221565b60405180910390f35b610361600480360381019061035c9190612558565b610d8a565b60405161036e9190611f91565b60405180910390f35b610391600480360381019061038c91906121e5565b610e1e565b005b61039b611003565b8181600e91906103ac929190611d02565b50600960009054906101000a900473ffffffffffffffffffffffffffffffffffffffff1673ffffffffffffffffffffffffffffffffffffffff1663eaf5d04e30600c54600b868660405160200161040593929190612755565b6040516020818303038152906040526040518463ffffffff1660e01b8152600401610432939291906127b7565b600060405180830381600087803b15801561044c57600080fd5b505af1158015610460573d6000803e3d6000fd5b505050505050565b60007f80ac58cd000000000000000000000000000000000000000000000000000000007bffffffffffffffffffffffffffffffffffffffffffffffffffffffff1916827bffffffffffffffffffffffffffffffffffffffffffffffffffffffff1916148061053357507f5b5e139f000000000000000000000000000000000000000000000000000000007bffffffffffffffffffffffffffffffffffffffffffffffffffffffff1916827bffffffffffffffffffffffffffffffffffffffffffffffffffffffff1916145b80610543575061054282611081565b5b9050919050565b606060008054610559906125ed565b80601f0160208091040260200160405190810160405280929190818152602001828054610585906125ed565b80156105d25780601f106105a7576101008083540402835291602001916105d2565b820191906000526020600020905b8154815290600101906020018083116105b557829003601f168201915b5050505050905090565b60006105e7826110eb565b6004600083815260200190815260200160002060009054906101000a900473ffffffffffffffffffffffffffffffffffffffff169050919050565b600061062d826107ba565b90508073ffffffffffffffffffffffffffffffffffffffff168373ffffffffffffffffffffffffffffffffffffffff16141561069e576040517f08c379a000000000000000000000000000000000000000000000000000000000815260040161069590612867565b60405180910390fd5b8073ffffffffffffffffffffffffffffffffffffffff166106bd611136565b73ffffffffffffffffffffffffffffffffffffffff1614806106ec57506106eb816106e6611136565b610d8a565b5b61072b576040517f08c379a0000000000000000000000000000000000000000000000000000000008152600401610722906128f9565b60405180910390fd5b610735838361113e565b505050565b61074b610745611136565b826111f7565b61078a576040517f08c379a00000000000000000000000000000000000000000000000000000000081526004016107819061298b565b60405180910390fd5b61079583838361128c565b505050565b6107b583838360405180602001604052806000815250610a0a565b505050565b6000806002600084815260200190815260200160002060009054906101000a900473ffffffffffffffffffffffffffffffffffffffff169050600073ffffffffffffffffffffffffffffffffffffffff168173ffffffffffffffffffffffffffffffffffffffff161415610863576040517f08c379a000000000000000000000000000000000000000000000000000000000815260040161085a906129f7565b60405180910390fd5b80915050919050565b60008073ffffffffffffffffffffffffffffffffffffffff168273ffffffffffffffffffffffffffffffffffffffff1614156108dd576040517f08c379a00000000000000000000000000000000000000000000000000000000081526004016108d490612a89565b60405180910390fd5b600360008373ffffffffffffffffffffffffffffffffffffffff1673ffffffffffffffffffffffffffffffffffffffff168152602001908152602001600020549050919050565b61092c611003565b61093660006114f3565b565b6000600760009054906101000a900473ffffffffffffffffffffffffffffffffffffffff16905090565b606060018054610971906125ed565b80601f016020809104026020016040519081016040528092919081815260200182805461099d906125ed565b80156109ea5780601f106109bf576101008083540402835291602001916109ea565b820191906000526020600020905b8154815290600101906020018083116109cd57829003601f168201915b5050505050905090565b610a066109ff611136565b83836115b9565b5050565b610a1b610a15611136565b836111f7565b610a5a576040517f08c379a0000000000000000000000000000000000000000000000000000000008152600401610a519061298b565b60405180910390fd5b610a6684848484611726565b50505050565b6060610a7782611782565b610ab6576040517f08c379a0000000000000000000000000000000000000000000000000000000008152600401610aad90612b1b565b60405180910390fd5b6000610ac06117ee565b90506000604051806020016040528060008152509050600060405180604001604052806040518060400160405280600281526020017f696400000000000000000000000000000000000000000000000000000000000081525081526020016040518060400160405280600d81526020017f65787465726e616c5f6c696e6b00000000000000000000000000000000000000815250815250905060005b6002811015610bf8576000811115610b915782604051602001610b7f9190612b92565b60405160208183030381529060405292505b82828260028110610ba557610ba4612bb8565b5b6020020151838360028110610bbd57610bbc612bb8565b5b6020020151604051602001610bd493929190612c33565b60405160208183030381529060405292508080610bf090612cb1565b915050610b5c565b508282600b610c0688610ea2565b604051602001610c199493929190612d92565b6040516020818303038152906040529350505050919050565b6000610c3e6008611880565b6000610c4a6008611896565b9050600960009054906101000a900473ffffffffffffffffffffffffffffffffffffffff1673ffffffffffffffffffffffffffffffffffffffff1663eaf5d04e30600c54600b610c9986610ea2565b600e604051602001610cad93929190612ea4565b6040516020818303038152906040526040518463ffffffff1660e01b8152600401610cda939291906127b7565b600060405180830381600087803b158015610cf457600080fd5b505af1158015610d08573d6000803e3d6000fd5b50505050610d268482604051806020016040528060008152506118a4565b610d3081846118ff565b3373ffffffffffffffffffffffffffffffffffffffff167f061b141191d79859f7cc6256c1b9e5f380052197831efe9135841c0ff4de7e634283604051610d78929190612f11565b60405180910390a28091505092915050565b6000600560008473ffffffffffffffffffffffffffffffffffffffff1673ffffffffffffffffffffffffffffffffffffffff16815260200190815260200160002060008373ffffffffffffffffffffffffffffffffffffffff1673ffffffffffffffffffffffffffffffffffffffff16815260200190815260200160002060009054906101000a900460ff16905092915050565b610e26611003565b600073ffffffffffffffffffffffffffffffffffffffff168173ffffffffffffffffffffffffffffffffffffffff161415610e96576040517f08c379a0000000000000000000000000000000000000000000000000000000008152600401610e8d90612fac565b60405180910390fd5b610e9f816114f3565b50565b60606000821415610eea576040518060400160405280600181526020017f30000000000000000000000000000000000000000000000000000000000000008152509050610ffe565b600082905060005b60008214610f1c578080610f0590612cb1565b915050600a82610f159190612ffb565b9150610ef2565b60008167ffffffffffffffff811115610f3857610f376122ad565b5b6040519080825280601f01601f191660200182016040528015610f6a5781602001600182028036833780820191505090505b5090505b60008514610ff757600182610f83919061302c565b9150600a85610f929190613060565b6030610f9e9190613091565b60f81b818381518110610fb457610fb3612bb8565b5b60200101907effffffffffffffffffffffffffffffffffffffffffffffffffffffffffffff1916908160001a905350600a85610ff09190612ffb565b9450610f6e565b8093505050505b919050565b61100b611136565b73ffffffffffffffffffffffffffffffffffffffff16611029610938565b73ffffffffffffffffffffffffffffffffffffffff161461107f576040517f08c379a000000000000000000000000000000000000000000000000000000000815260040161107690613133565b60405180910390fd5b565b60007f01ffc9a7000000000000000000000000000000000000000000000000000000007bffffffffffffffffffffffffffffffffffffffffffffffffffffffff1916827bffffffffffffffffffffffffffffffffffffffffffffffffffffffff1916149050919050565b6110f481611782565b611133576040517f08c379a000000000000000000000000000000000000000000000000000000000815260040161112a906129f7565b60405180910390fd5b50565b600033905090565b816004600083815260200190815260200160002060006101000a81548173ffffffffffffffffffffffffffffffffffffffff021916908373ffffffffffffffffffffffffffffffffffffffff160217905550808273ffffffffffffffffffffffffffffffffffffffff166111b1836107ba565b73ffffffffffffffffffffffffffffffffffffffff167f8c5be1e5ebec7d5bd14f71427d1e84f3dd0314c0f7b2291e5b200ac8c7c3b92560405160405180910390a45050565b600080611203836107ba565b90508073ffffffffffffffffffffffffffffffffffffffff168473ffffffffffffffffffffffffffffffffffffffff16148061124557506112448185610d8a565b5b8061128357508373ffffffffffffffffffffffffffffffffffffffff1661126b846105dc565b73ffffffffffffffffffffffffffffffffffffffff16145b91505092915050565b8273ffffffffffffffffffffffffffffffffffffffff166112ac826107ba565b73ffffffffffffffffffffffffffffffffffffffff1614611302576040517f08c379a00000000000000000000000000000000000000000000000000000000081526004016112f9906131c5565b60405180910390fd5b600073ffffffffffffffffffffffffffffffffffffffff168273ffffffffffffffffffffffffffffffffffffffff161415611372576040517f08c379a000000000000000000000000000000000000000000000000000000000815260040161136990613257565b60405180910390fd5b61137d838383611973565b61138860008261113e565b6001600360008573ffffffffffffffffffffffffffffffffffffffff1673ffffffffffffffffffffffffffffffffffffffff16815260200190815260200160002060008282546113d8919061302c565b925050819055506001600360008473ffffffffffffffffffffffffffffffffffffffff1673ffffffffffffffffffffffffffffffffffffffff168152602001908152602001600020600082825461142f9190613091565b92505081905550816002600083815260200190815260200160002060006101000a81548173ffffffffffffffffffffffffffffffffffffffff021916908373ffffffffffffffffffffffffffffffffffffffff160217905550808273ffffffffffffffffffffffffffffffffffffffff168473ffffffffffffffffffffffffffffffffffffffff167fddf252ad1be2c89b69c2b068fc378daa952ba7f163c4a11628f55a4df523b3ef60405160405180910390a46114ee838383611978565b505050565b6000600760009054906101000a900473ffffffffffffffffffffffffffffffffffffffff16905081600760006101000a81548173ffffffffffffffffffffffffffffffffffffffff021916908373ffffffffffffffffffffffffffffffffffffffff1602179055508173ffffffffffffffffffffffffffffffffffffffff168173ffffffffffffffffffffffffffffffffffffffff167f8be0079c531659141344cd1fd0a4f28419497f9722a3daafe3b4186f6b6457e060405160405180910390a35050565b8173ffffffffffffffffffffffffffffffffffffffff168373ffffffffffffffffffffffffffffffffffffffff161415611628576040517f08c379a000000000000000000000000000000000000000000000000000000000815260040161161f906132c3565b60405180910390fd5b80600560008573ffffffffffffffffffffffffffffffffffffffff1673ffffffffffffffffffffffffffffffffffffffff16815260200190815260200160002060008473ffffffffffffffffffffffffffffffffffffffff1673ffffffffffffffffffffffffffffffffffffffff16815260200190815260200160002060006101000a81548160ff0219169083151502179055508173ffffffffffffffffffffffffffffffffffffffff168373ffffffffffffffffffffffffffffffffffffffff167f17307eab39ab6107e8899845ad3d59bd9653f200f220920489ca2b5937696c31836040516117199190611f91565b60405180910390a3505050565b61173184848461128c565b61173d8484848461197d565b61177c576040517f08c379a000000000000000000000000000000000000000000000000000000000815260040161177390613355565b60405180910390fd5b50505050565b60008073ffffffffffffffffffffffffffffffffffffffff166002600084815260200190815260200160002060009054906101000a900473ffffffffffffffffffffffffffffffffffffffff1673ffffffffffffffffffffffffffffffffffffffff1614159050919050565b6060600a80546117fd906125ed565b80601f0160208091040260200160405190810160405280929190818152602001828054611829906125ed565b80156118765780601f1061184b57610100808354040283529160200191611876565b820191906000526020600020905b81548152906001019060200180831161185957829003601f168201915b5050505050905090565b6001816000016000828254019250508190555050565b600081600001549050919050565b6118ae8383611b05565b6118bb600084848461197d565b6118fa576040517f08c379a00000000000000000000000000000000000000000000000000000000081526004016118f190613355565b60405180910390fd5b505050565b61190882611782565b611947576040517f08c379a000000000000000000000000000000000000000000000000000000000815260040161193e906133e7565b60405180910390fd5b8060066000848152602001908152602001600020908051906020019061196e929190611d88565b505050565b505050565b505050565b600061199e8473ffffffffffffffffffffffffffffffffffffffff16611cdf565b15611af8578373ffffffffffffffffffffffffffffffffffffffff1663150b7a026119c7611136565b8786866040518563ffffffff1660e01b81526004016119e9949392919061345c565b6020604051808303816000875af1925050508015611a2557506040513d601f19601f82011682018060405250810190611a2291906134bd565b60015b611aa8573d8060008114611a55576040519150601f19603f3d011682016040523d82523d6000602084013e611a5a565b606091505b50600081511415611aa0576040517f08c379a0000000000000000000000000000000000000000000000000000000008152600401611a9790613355565b60405180910390fd5b805181602001fd5b63150b7a0260e01b7bffffffffffffffffffffffffffffffffffffffffffffffffffffffff1916817bffffffffffffffffffffffffffffffffffffffffffffffffffffffff191614915050611afd565b600190505b949350505050565b600073ffffffffffffffffffffffffffffffffffffffff168273ffffffffffffffffffffffffffffffffffffffff161415611b75576040517f08c379a0000000000000000000000000000000000000000000000000000000008152600401611b6c90613536565b60405180910390fd5b611b7e81611782565b15611bbe576040517f08c379a0000000000000000000000000000000000000000000000000000000008152600401611bb5906135a2565b60405180910390fd5b611bca60008383611973565b6001600360008473ffffffffffffffffffffffffffffffffffffffff1673ffffffffffffffffffffffffffffffffffffffff1681526020019081526020016000206000828254611c1a9190613091565b92505081905550816002600083815260200190815260200160002060006101000a81548173ffffffffffffffffffffffffffffffffffffffff021916908373ffffffffffffffffffffffffffffffffffffffff160217905550808273ffffffffffffffffffffffffffffffffffffffff16600073ffffffffffffffffffffffffffffffffffffffff167fddf252ad1be2c89b69c2b068fc378daa952ba7f163c4a11628f55a4df523b3ef60405160405180910390a4611cdb60008383611978565b5050565b6000808273ffffffffffffffffffffffffffffffffffffffff163b119050919050565b828054611d0e906125ed565b90600052602060002090601f016020900481019282611d305760008555611d77565b82601f10611d4957803560ff1916838001178555611d77565b82800160010185558215611d77579182015b82811115611d76578235825591602001919060010190611d5b565b5b509050611d849190611e0e565b5090565b828054611d94906125ed565b90600052602060002090601f016020900481019282611db65760008555611dfd565b82601f10611dcf57805160ff1916838001178555611dfd565b82800160010185558215611dfd579182015b82811115611dfc578251825591602001919060010190611de1565b5b509050611e0a9190611e0e565b5090565b5b80821115611e27576000816000905550600101611e0f565b5090565b6000604051905090565b600080fd5b600080fd5b600080fd5b600080fd5b600080fd5b60008083601f840112611e6457611e63611e3f565b5b8235905067ffffffffffffffff811115611e8157611e80611e44565b5b602083019150836001820283011115611e9d57611e9c611e49565b5b9250929050565b60008060208385031215611ebb57611eba611e35565b5b600083013567ffffffffffffffff811115611ed957611ed8611e3a565b5b611ee585828601611e4e565b92509250509250929050565b60007fffffffff0000000000000000000000000000000000000000000000000000000082169050919050565b611f2681611ef1565b8114611f3157600080fd5b50565b600081359050611f4381611f1d565b92915050565b600060208284031215611f5f57611f5e611e35565b5b6000611f6d84828501611f34565b91505092915050565b60008115159050919050565b611f8b81611f76565b82525050565b6000602082019050611fa66000830184611f82565b92915050565b600081519050919050565b600082825260208201905092915050565b60005b83811015611fe6578082015181840152602081019050611fcb565b83811115611ff5576000848401525b50505050565b6000601f19601f8301169050919050565b600061201782611fac565b6120218185611fb7565b9350612031818560208601611fc8565b61203a81611ffb565b840191505092915050565b6000602082019050818103600083015261205f818461200c565b905092915050565b6000819050919050565b61207a81612067565b811461208557600080fd5b50565b60008135905061209781612071565b92915050565b6000602082840312156120b3576120b2611e35565b5b60006120c184828501612088565b91505092915050565b600073ffffffffffffffffffffffffffffffffffffffff82169050919050565b60006120f5826120ca565b9050919050565b612105816120ea565b82525050565b600060208201905061212060008301846120fc565b92915050565b61212f816120ea565b811461213a57600080fd5b50565b60008135905061214c81612126565b92915050565b6000806040838503121561216957612168611e35565b5b60006121778582860161213d565b925050602061218885828601612088565b9150509250929050565b6000806000606084860312156121ab576121aa611e35565b5b60006121b98682870161213d565b93505060206121ca8682870161213d565b92505060406121db86828701612088565b9150509250925092565b6000602082840312156121fb576121fa611e35565b5b60006122098482850161213d565b91505092915050565b61221b81612067565b82525050565b60006020820190506122366000830184612212565b92915050565b61224581611f76565b811461225057600080fd5b50565b6000813590506122628161223c565b92915050565b6000806040838503121561227f5761227e611e35565b5b600061228d8582860161213d565b925050602061229e85828601612253565b9150509250929050565b600080fd5b7f4e487b7100000000000000000000000000000000000000000000000000000000600052604160045260246000fd5b6122e582611ffb565b810181811067ffffffffffffffff82111715612304576123036122ad565b5b80604052505050565b6000612317611e2b565b905061232382826122dc565b919050565b600067ffffffffffffffff821115612343576123426122ad565b5b61234c82611ffb565b9050602081019050919050565b82818337600083830152505050565b600061237b61237684612328565b61230d565b905082815260208101848484011115612397576123966122a8565b5b6123a2848285612359565b509392505050565b600082601f8301126123bf576123be611e3f565b5b81356123cf848260208601612368565b91505092915050565b600080600080608085870312156123f2576123f1611e35565b5b60006124008782880161213d565b94505060206124118782880161213d565b935050604061242287828801612088565b925050606085013567ffffffffffffffff81111561244357612442611e3a565b5b61244f878288016123aa565b91505092959194509250565b600067ffffffffffffffff821115612476576124756122ad565b5b61247f82611ffb565b9050602081019050919050565b600061249f61249a8461245b565b61230d565b9050828152602081018484840111156124bb576124ba6122a8565b5b6124c6848285612359565b509392505050565b600082601f8301126124e3576124e2611e3f565b5b81356124f384826020860161248c565b91505092915050565b6000806040838503121561251357612512611e35565b5b60006125218582860161213d565b925050602083013567ffffffffffffffff81111561254257612541611e3a565b5b61254e858286016124ce565b9150509250929050565b6000806040838503121561256f5761256e611e35565b5b600061257d8582860161213d565b925050602061258e8582860161213d565b9150509250929050565b7f7570646174652000000000000000000000000000000000000000000000000000815250565b7f4e487b7100000000000000000000000000000000000000000000000000000000600052602260045260246000fd5b6000600282049050600182168061260557607f821691505b60208210811415612619576126186125be565b5b50919050565b600081905092915050565b60008190508160005260206000209050919050565b6000815461264c816125ed565b612656818661261f565b945060018216600081146126715760018114612682576126b5565b60ff198316865281860193506126b5565b61268b8561262a565b60005b838110156126ad5781548189015260018201915060208101905061268e565b838801955050505b50505092915050565b7f207365742065787465726e616c5f6c696e6b203d200000000000000000000000815250565b60006126f0838561261f565b93506126fd838584612359565b82840190509392505050565b7f7c7c273f746f6b656e49643d277c7c6964000000000000000000000000000000815250565b7f3b00000000000000000000000000000000000000000000000000000000000000815250565b600061276082612598565b600782019150612770828661263f565b915061277b826126be565b60158201915061278c8284866126e4565b915061279782612709565b6011820191506127a68261272f565b600182019150819050949350505050565b60006060820190506127cc60008301866120fc565b6127d96020830185612212565b81810360408301526127eb818461200c565b9050949350505050565b7f4552433732313a20617070726f76616c20746f2063757272656e74206f776e6560008201527f7200000000000000000000000000000000000000000000000000000000000000602082015250565b6000612851602183611fb7565b915061285c826127f5565b604082019050919050565b6000602082019050818103600083015261288081612844565b9050919050565b7f4552433732313a20617070726f76652063616c6c6572206973206e6f7420746f60008201527f6b656e206f776e6572206e6f7220617070726f76656420666f7220616c6c0000602082015250565b60006128e3603e83611fb7565b91506128ee82612887565b604082019050919050565b60006020820190508181036000830152612912816128d6565b9050919050565b7f4552433732313a2063616c6c6572206973206e6f7420746f6b656e206f776e6560008201527f72206e6f7220617070726f766564000000000000000000000000000000000000602082015250565b6000612975602e83611fb7565b915061298082612919565b604082019050919050565b600060208201905081810360008301526129a481612968565b9050919050565b7f4552433732313a20696e76616c696420746f6b656e2049440000000000000000600082015250565b60006129e1601883611fb7565b91506129ec826129ab565b602082019050919050565b60006020820190508181036000830152612a10816129d4565b9050919050565b7f4552433732313a2061646472657373207a65726f206973206e6f74206120766160008201527f6c6964206f776e65720000000000000000000000000000000000000000000000602082015250565b6000612a73602983611fb7565b9150612a7e82612a17565b604082019050919050565b60006020820190508181036000830152612aa281612a66565b9050919050565b7f45524337323155524953746f726167653a2055524920717565727920666f722060008201527f6e6f6e6578697374656e7420746f6b656e000000000000000000000000000000602082015250565b6000612b05603183611fb7565b9150612b1082612aa9565b604082019050919050565b60006020820190508181036000830152612b3481612af8565b9050919050565b6000612b4682611fac565b612b50818561261f565b9350612b60818560208601611fc8565b80840191505092915050565b7f2c00000000000000000000000000000000000000000000000000000000000000815250565b6000612b9e8284612b3b565b9150612ba982612b6c565b60018201915081905092915050565b7f4e487b7100000000000000000000000000000000000000000000000000000000600052603260045260246000fd5b7f2700000000000000000000000000000000000000000000000000000000000000815250565b7f272c000000000000000000000000000000000000000000000000000000000000815250565b6000612c3f8286612b3b565b9150612c4a82612be7565b600182019150612c5a8285612b3b565b9150612c6582612c0d565b600282019150612c758284612b3b565b9150819050949350505050565b7f4e487b7100000000000000000000000000000000000000000000000000000000600052601160045260246000fd5b6000612cbc82612067565b91507fffffffffffffffffffffffffffffffffffffffffffffffffffffffffffffffff821415612cef57612cee612c82565b5b600182019050919050565b7f53454c4543542532300000000000000000000000000000000000000000000000815250565b7f25323046524f4d25323000000000000000000000000000000000000000000000815250565b7f2532305748455245253230696425334400000000000000000000000000000000815250565b7f266d6f64653d6c69737400000000000000000000000000000000000000000000815250565b6000612d9e8287612b3b565b9150612da982612cfa565b600982019150612db98286612b3b565b9150612dc482612d20565b600a82019150612dd4828561263f565b9150612ddf82612d46565b601082019150612def8284612b3b565b9150612dfa82612d6c565b600a8201915081905095945050505050565b7f494e5345525420494e544f200000000000000000000000000000000000000000815250565b7f202869642c2065787465726e616c5f6c696e6b292056414c5545532028000000815250565b7f2c20270000000000000000000000000000000000000000000000000000000000815250565b7f2729000000000000000000000000000000000000000000000000000000000000815250565b6000612eaf82612e0c565b600c82019150612ebf828661263f565b9150612eca82612e32565b601d82019150612eda8285612b3b565b9150612ee582612e58565b600382019150612ef5828461263f565b9150612f0082612e7e565b600282019150819050949350505050565b6000604082019050612f266000830185612212565b612f336020830184612212565b9392505050565b7f4f776e61626c653a206e6577206f776e657220697320746865207a65726f206160008201527f6464726573730000000000000000000000000000000000000000000000000000602082015250565b6000612f96602683611fb7565b9150612fa182612f3a565b604082019050919050565b60006020820190508181036000830152612fc581612f89565b9050919050565b7f4e487b7100000000000000000000000000000000000000000000000000000000600052601260045260246000fd5b600061300682612067565b915061301183612067565b92508261302157613020612fcc565b5b828204905092915050565b600061303782612067565b915061304283612067565b92508282101561305557613054612c82565b5b828203905092915050565b600061306b82612067565b915061307683612067565b92508261308657613085612fcc565b5b828206905092915050565b600061309c82612067565b91506130a783612067565b9250827fffffffffffffffffffffffffffffffffffffffffffffffffffffffffffffffff038211156130dc576130db612c82565b5b828201905092915050565b7f4f776e61626c653a2063616c6c6572206973206e6f7420746865206f776e6572600082015250565b600061311d602083611fb7565b9150613128826130e7565b602082019050919050565b6000602082019050818103600083015261314c81613110565b9050919050565b7f4552433732313a207472616e736665722066726f6d20696e636f72726563742060008201527f6f776e6572000000000000000000000000000000000000000000000000000000602082015250565b60006131af602583611fb7565b91506131ba82613153565b604082019050919050565b600060208201905081810360008301526131de816131a2565b9050919050565b7f4552433732313a207472616e7366657220746f20746865207a65726f2061646460008201527f7265737300000000000000000000000000000000000000000000000000000000602082015250565b6000613241602483611fb7565b915061324c826131e5565b604082019050919050565b6000602082019050818103600083015261327081613234565b9050919050565b7f4552433732313a20617070726f766520746f2063616c6c657200000000000000600082015250565b60006132ad601983611fb7565b91506132b882613277565b602082019050919050565b600060208201905081810360008301526132dc816132a0565b9050919050565b7f4552433732313a207472616e7366657220746f206e6f6e20455243373231526560008201527f63656976657220696d706c656d656e7465720000000000000000000000000000602082015250565b600061333f603283611fb7565b915061334a826132e3565b604082019050919050565b6000602082019050818103600083015261336e81613332565b9050919050565b7f45524337323155524953746f726167653a2055524920736574206f66206e6f6e60008201527f6578697374656e7420746f6b656e000000000000000000000000000000000000602082015250565b60006133d1602e83611fb7565b91506133dc82613375565b604082019050919050565b60006020820190508181036000830152613400816133c4565b9050919050565b600081519050919050565b600082825260208201905092915050565b600061342e82613407565b6134388185613412565b9350613448818560208601611fc8565b61345181611ffb565b840191505092915050565b600060808201905061347160008301876120fc565b61347e60208301866120fc565b61348b6040830185612212565b818103606083015261349d8184613423565b905095945050505050565b6000815190506134b781611f1d565b92915050565b6000602082840312156134d3576134d2611e35565b5b60006134e1848285016134a8565b91505092915050565b7f4552433732313a206d696e7420746f20746865207a65726f2061646472657373600082015250565b6000613520602083611fb7565b915061352b826134ea565b602082019050919050565b6000602082019050818103600083015261354f81613513565b9050919050565b7f4552433732313a20746f6b656e20616c7265616479206d696e74656400000000600082015250565b600061358c601c83611fb7565b915061359782613556565b602082019050919050565b600060208201905081810360008301526135bb8161357f565b905091905056fea26469706673582212202fe90e312fa73db5827685f777f0474e401b466554339f09e222ca06eecbffc264736f6c634300080c003368747470733a2f2f746573746e65742e7461626c656c616e642e6e6574776f726b2f71756572793f733d",
  "linkReferences": {},
  "deployedLinkReferences": {}
}