{
  "_format": "hh-sol-artifact-1",
  "contractName": "MojoCore",
  "sourceName": "contracts/MojoCore.sol",
  "abi": [
    {
      "anonymous": false,
      "inputs": [
        {
          "indexed": false,
          "internalType": "address",
          "name": "previousAdmin",
          "type": "address"
        },
        {
          "indexed": false,
          "internalType": "address",
          "name": "newAdmin",
          "type": "address"
        }
      ],
      "name": "AdminChanged",
      "type": "event"
    },
    {
      "anonymous": false,
      "inputs": [
        {
          "indexed": true,
          "internalType": "address",
          "name": "owner",
          "type": "address"
        },
        {
          "indexed": true,
          "internalType": "address",
          "name": "approved",
          "type": "address"
        },
        {
          "indexed": true,
          "internalType": "uint256",
          "name": "tokenId",
          "type": "uint256"
        }
      ],
      "name": "Approval",
      "type": "event"
    },
    {
      "anonymous": false,
      "inputs": [
        {
          "indexed": true,
          "internalType": "address",
          "name": "owner",
          "type": "address"
        },
        {
          "indexed": true,
          "internalType": "address",
          "name": "operator",
          "type": "address"
        },
        {
          "indexed": false,
          "internalType": "bool",
          "name": "approved",
          "type": "bool"
        }
      ],
      "name": "ApprovalForAll",
      "type": "event"
    },
    {
      "anonymous": false,
      "inputs": [
        {
          "indexed": true,
          "internalType": "address",
          "name": "beacon",
          "type": "address"
        }
      ],
      "name": "BeaconUpgraded",
      "type": "event"
    },
    {
      "anonymous": false,
      "inputs": [
        {
          "indexed": false,
          "internalType": "uint8",
          "name": "version",
          "type": "uint8"
        }
      ],
      "name": "Initialized",
      "type": "event"
    },
    {
      "anonymous": false,
      "inputs": [
        {
          "indexed": true,
          "internalType": "address",
          "name": "from",
          "type": "address"
        },
        {
          "indexed": false,
          "internalType": "uint256",
          "name": "timestamp",
          "type": "uint256"
        },
        {
          "indexed": false,
          "internalType": "uint256",
          "name": "tokenId",
          "type": "uint256"
        }
      ],
      "name": "NewNftMinted",
      "type": "event"
    },
    {
      "anonymous": false,
      "inputs": [
        {
          "indexed": true,
          "internalType": "address",
          "name": "previousOwner",
          "type": "address"
        },
        {
          "indexed": true,
          "internalType": "address",
          "name": "newOwner",
          "type": "address"
        }
      ],
      "name": "OwnershipTransferred",
      "type": "event"
    },
    {
      "anonymous": false,
      "inputs": [
        {
          "indexed": false,
          "internalType": "address",
          "name": "account",
          "type": "address"
        }
      ],
      "name": "Paused",
      "type": "event"
    },
    {
      "anonymous": false,
      "inputs": [
        {
          "indexed": true,
          "internalType": "address",
          "name": "from",
          "type": "address"
        },
        {
          "indexed": false,
          "internalType": "uint256",
          "name": "timestamp",
          "type": "uint256"
        },
        {
          "indexed": false,
          "internalType": "uint256",
          "name": "metadataTableId",
          "type": "uint256"
        },
        {
          "indexed": false,
          "internalType": "uint256",
          "name": "tokenId",
          "type": "uint256"
        }
      ],
      "name": "SetNftAID",
      "type": "event"
    },
    {
      "anonymous": false,
      "inputs": [
        {
          "indexed": true,
          "internalType": "address",
          "name": "from",
          "type": "address"
        },
        {
          "indexed": false,
          "internalType": "uint256",
          "name": "timestamp",
          "type": "uint256"
        },
        {
          "indexed": false,
          "internalType": "uint256",
          "name": "metadataTableId",
          "type": "uint256"
        },
        {
          "indexed": false,
          "internalType": "uint256",
          "name": "tokenId",
          "type": "uint256"
        }
      ],
      "name": "SetNftCategory",
      "type": "event"
    },
    {
      "anonymous": false,
      "inputs": [
        {
          "indexed": true,
          "internalType": "address",
          "name": "from",
          "type": "address"
        },
        {
          "indexed": false,
          "internalType": "uint256",
          "name": "timestamp",
          "type": "uint256"
        },
        {
          "indexed": false,
          "internalType": "uint256",
          "name": "metadataTableId",
          "type": "uint256"
        },
        {
          "indexed": false,
          "internalType": "string",
          "name": "metadataTable",
          "type": "string"
        }
      ],
      "name": "SetNftExternalUrl",
      "type": "event"
    },
    {
      "anonymous": false,
      "inputs": [
        {
          "indexed": true,
          "internalType": "address",
          "name": "from",
          "type": "address"
        },
        {
          "indexed": false,
          "internalType": "uint256",
          "name": "timestamp",
          "type": "uint256"
        },
        {
          "indexed": false,
          "internalType": "uint256",
          "name": "metadataTableId",
          "type": "uint256"
        },
        {
          "indexed": false,
          "internalType": "uint256",
          "name": "tokenId",
          "type": "uint256"
        }
      ],
      "name": "SetNftGID",
      "type": "event"
    },
    {
      "anonymous": false,
      "inputs": [
        {
          "indexed": true,
          "internalType": "address",
          "name": "from",
          "type": "address"
        },
        {
          "indexed": true,
          "internalType": "address",
          "name": "to",
          "type": "address"
        },
        {
          "indexed": true,
          "internalType": "uint256",
          "name": "tokenId",
          "type": "uint256"
        }
      ],
      "name": "Transfer",
      "type": "event"
    },
    {
      "anonymous": false,
      "inputs": [
        {
          "indexed": false,
          "internalType": "address",
          "name": "account",
          "type": "address"
        }
      ],
      "name": "Unpaused",
      "type": "event"
    },
    {
      "anonymous": false,
      "inputs": [
        {
          "indexed": true,
          "internalType": "address",
          "name": "implementation",
          "type": "address"
        }
      ],
      "name": "Upgraded",
      "type": "event"
    },
    {
      "inputs": [
        {
          "internalType": "address",
          "name": "to",
          "type": "address"
        },
        {
          "internalType": "uint256",
          "name": "tokenId",
          "type": "uint256"
        }
      ],
      "name": "approve",
      "outputs": [],
      "stateMutability": "nonpayable",
      "type": "function"
    },
    {
      "inputs": [
        {
          "internalType": "address",
          "name": "owner",
          "type": "address"
        }
      ],
      "name": "balanceOf",
      "outputs": [
        {
          "internalType": "uint256",
          "name": "",
          "type": "uint256"
        }
      ],
      "stateMutability": "view",
      "type": "function"
    },
    {
      "inputs": [
        {
          "internalType": "address",
          "name": "registry",
          "type": "address"
        }
      ],
      "name": "createMetadataTable",
      "outputs": [
        {
          "internalType": "uint256",
          "name": "",
          "type": "uint256"
        }
      ],
      "stateMutability": "payable",
      "type": "function"
    },
    {
      "inputs": [
        {
          "internalType": "uint256",
          "name": "tokenId",
          "type": "uint256"
        }
      ],
      "name": "getApproved",
      "outputs": [
        {
          "internalType": "address",
          "name": "",
          "type": "address"
        }
      ],
      "stateMutability": "view",
      "type": "function"
    },
    {
      "inputs": [
        {
          "internalType": "string",
          "name": "baseURI",
          "type": "string"
        },
        {
          "internalType": "string",
          "name": "externalURL",
          "type": "string"
        },
        {
          "internalType": "string",
          "name": "category",
          "type": "string"
        }
      ],
      "name": "initialize",
      "outputs": [],
      "stateMutability": "nonpayable",
      "type": "function"
    },
    {
      "inputs": [
        {
          "internalType": "address",
          "name": "owner",
          "type": "address"
        },
        {
          "internalType": "address",
          "name": "operator",
          "type": "address"
        }
      ],
      "name": "isApprovedForAll",
      "outputs": [
        {
          "internalType": "bool",
          "name": "",
          "type": "bool"
        }
      ],
      "stateMutability": "view",
      "type": "function"
    },
    {
      "inputs": [],
      "name": "name",
      "outputs": [
        {
          "internalType": "string",
          "name": "",
          "type": "string"
        }
      ],
      "stateMutability": "view",
      "type": "function"
    },
    {
      "inputs": [
        {
          "internalType": "address",
          "name": "",
          "type": "address"
        },
        {
          "internalType": "address",
          "name": "",
          "type": "address"
        },
        {
          "internalType": "uint256",
          "name": "",
          "type": "uint256"
        },
        {
          "internalType": "bytes",
          "name": "",
          "type": "bytes"
        }
      ],
      "name": "onERC721Received",
      "outputs": [
        {
          "internalType": "bytes4",
          "name": "",
          "type": "bytes4"
        }
      ],
      "stateMutability": "nonpayable",
      "type": "function"
    },
    {
      "inputs": [],
      "name": "owner",
      "outputs": [
        {
          "internalType": "address",
          "name": "",
          "type": "address"
        }
      ],
      "stateMutability": "view",
      "type": "function"
    },
    {
      "inputs": [
        {
          "internalType": "uint256",
          "name": "tokenId",
          "type": "uint256"
        }
      ],
      "name": "ownerOf",
      "outputs": [
        {
          "internalType": "address",
          "name": "",
          "type": "address"
        }
      ],
      "stateMutability": "view",
      "type": "function"
    },
    {
      "inputs": [],
      "name": "paused",
      "outputs": [
        {
          "internalType": "bool",
          "name": "",
          "type": "bool"
        }
      ],
      "stateMutability": "view",
      "type": "function"
    },
    {
      "inputs": [],
      "name": "proxiableUUID",
      "outputs": [
        {
          "internalType": "bytes32",
          "name": "",
          "type": "bytes32"
        }
      ],
      "stateMutability": "view",
      "type": "function"
    },
    {
      "inputs": [],
      "name": "renounceOwnership",
      "outputs": [],
      "stateMutability": "nonpayable",
      "type": "function"
    },
    {
      "inputs": [
        {
          "internalType": "address",
          "name": "to",
          "type": "address"
        },
        {
          "internalType": "string",
          "name": "newTokenURI",
          "type": "string"
        },
        {
          "internalType": "string",
          "name": "category",
          "type": "string"
        }
      ],
      "name": "safeMint",
      "outputs": [
        {
          "internalType": "uint256",
          "name": "",
          "type": "uint256"
        }
      ],
      "stateMutability": "nonpayable",
      "type": "function"
    },
    {
      "inputs": [
        {
          "internalType": "address",
          "name": "from",
          "type": "address"
        },
        {
          "internalType": "address",
          "name": "to",
          "type": "address"
        },
        {
          "internalType": "uint256",
          "name": "tokenId",
          "type": "uint256"
        }
      ],
      "name": "safeTransferFrom",
      "outputs": [],
      "stateMutability": "nonpayable",
      "type": "function"
    },
    {
      "inputs": [
        {
          "internalType": "address",
          "name": "from",
          "type": "address"
        },
        {
          "internalType": "address",
          "name": "to",
          "type": "address"
        },
        {
          "internalType": "uint256",
          "name": "tokenId",
          "type": "uint256"
        },
        {
          "internalType": "bytes",
          "name": "data",
          "type": "bytes"
        }
      ],
      "name": "safeTransferFrom",
      "outputs": [],
      "stateMutability": "nonpayable",
      "type": "function"
    },
    {
      "inputs": [
        {
          "internalType": "address",
          "name": "operator",
          "type": "address"
        },
        {
          "internalType": "bool",
          "name": "approved",
          "type": "bool"
        }
      ],
      "name": "setApprovalForAll",
      "outputs": [],
      "stateMutability": "nonpayable",
      "type": "function"
    },
    {
      "inputs": [
        {
          "internalType": "string",
          "name": "externalURL",
          "type": "string"
        }
      ],
      "name": "setExternalURL",
      "outputs": [],
      "stateMutability": "nonpayable",
      "type": "function"
    },
    {
      "inputs": [
        {
          "internalType": "bytes4",
          "name": "interfaceId",
          "type": "bytes4"
        }
      ],
      "name": "supportsInterface",
      "outputs": [
        {
          "internalType": "bool",
          "name": "",
          "type": "bool"
        }
      ],
      "stateMutability": "view",
      "type": "function"
    },
    {
      "inputs": [],
      "name": "symbol",
      "outputs": [
        {
          "internalType": "string",
          "name": "",
          "type": "string"
        }
      ],
      "stateMutability": "view",
      "type": "function"
    },
    {
      "inputs": [
        {
          "internalType": "uint256",
          "name": "tokenId",
          "type": "uint256"
        }
      ],
      "name": "tokenURI",
      "outputs": [
        {
          "internalType": "string",
          "name": "",
          "type": "string"
        }
      ],
      "stateMutability": "view",
      "type": "function"
    },
    {
      "inputs": [
        {
          "internalType": "address",
          "name": "from",
          "type": "address"
        },
        {
          "internalType": "address",
          "name": "to",
          "type": "address"
        },
        {
          "internalType": "uint256",
          "name": "tokenId",
          "type": "uint256"
        }
      ],
      "name": "transferFrom",
      "outputs": [],
      "stateMutability": "nonpayable",
      "type": "function"
    },
    {
      "inputs": [
        {
          "internalType": "address",
          "name": "newOwner",
          "type": "address"
        }
      ],
      "name": "transferOwnership",
      "outputs": [],
      "stateMutability": "nonpayable",
      "type": "function"
    },
    {
      "inputs": [
        {
          "internalType": "uint256",
          "name": "tokenId",
          "type": "uint256"
        },
        {
          "internalType": "uint256",
          "name": "aid",
          "type": "uint256"
        }
      ],
      "name": "updateAID",
      "outputs": [],
      "stateMutability": "nonpayable",
      "type": "function"
    },
    {
      "inputs": [
        {
          "internalType": "uint256",
          "name": "tokenId",
          "type": "uint256"
        },
        {
          "internalType": "string",
          "name": "category",
          "type": "string"
        }
      ],
      "name": "updateCategory",
      "outputs": [],
      "stateMutability": "nonpayable",
      "type": "function"
    },
    {
      "inputs": [
        {
          "internalType": "uint256",
          "name": "tokenId",
          "type": "uint256"
        },
        {
          "internalType": "uint256",
          "name": "gid",
          "type": "uint256"
        }
      ],
      "name": "updateGID",
      "outputs": [],
      "stateMutability": "nonpayable",
      "type": "function"
    },
    {
      "inputs": [
        {
          "internalType": "address",
          "name": "newImplementation",
          "type": "address"
        }
      ],
      "name": "upgradeTo",
      "outputs": [],
      "stateMutability": "nonpayable",
      "type": "function"
    },
    {
      "inputs": [
        {
          "internalType": "address",
          "name": "newImplementation",
          "type": "address"
        },
        {
          "internalType": "bytes",
          "name": "data",
          "type": "bytes"
        }
      ],
      "name": "upgradeToAndCall",
      "outputs": [],
      "stateMutability": "payable",
      "type": "function"
    }
  ],
  "bytecode": "0x60a06040523060805234801561001457600080fd5b50608051613ba661004c6000396000818161099701528181610a1c01528181610b2e01528181610bb30152610c9d0152613ba66000f3fe6080604052600436106101b75760003560e01c806370a08231116100ec578063a6487c531161008a578063c87b56dd11610064578063c87b56dd146104d0578063e985e9c5146104f0578063eca81d4214610539578063f2fde38b1461055957600080fd5b8063a6487c531461047d578063a8371acc1461049d578063b88d4fde146104b057600080fd5b80638da5cb5b116100c65780638da5cb5b1461040a57806395d89b411461042857806397ec82ea1461043d578063a22cb4651461045d57600080fd5b806370a08231146103b5578063715018a6146103d557806378697e5b146103ea57600080fd5b80633659cfe61161015957806352d1902d1161013357806352d1902d146103395780635c975abb1461035c5780636352211e146103755780636dc11e711461039557600080fd5b80633659cfe6146102e657806342842e0e146103065780634f1ef2861461032657600080fd5b8063081812fc11610195578063081812fc14610235578063095ea7b31461026d578063150b7a021461028d57806323b872dd146102c657600080fd5b806301dbcd4a146101bc57806301ffc9a7146101de57806306fdde0314610213575b600080fd5b3480156101c857600080fd5b506101dc6101d7366004612db7565b610579565b005b3480156101ea57600080fd5b506101fe6101f9366004612e0f565b610667565b60405190151581526020015b60405180910390f35b34801561021f57600080fd5b50610228610704565b60405161020a9190612e84565b34801561024157600080fd5b50610255610250366004612e97565b610796565b6040516001600160a01b03909116815260200161020a565b34801561027957600080fd5b506101dc610288366004612ec5565b6107bd565b34801561029957600080fd5b506102ad6102a8366004612f94565b6108f4565b6040516001600160e01b0319909116815260200161020a565b3480156102d257600080fd5b506101dc6102e1366004613000565b610905565b3480156102f257600080fd5b506101dc610301366004613041565b61098c565b34801561031257600080fd5b506101dc610321366004613000565b610b08565b6101dc61033436600461305e565b610b23565b34801561034557600080fd5b5061034e610c90565b60405190815260200161020a565b34801561036857600080fd5b5061012d5460ff166101fe565b34801561038157600080fd5b50610255610390366004612e97565b610d55565b3480156103a157600080fd5b506101dc6103b03660046130ae565b610dba565b3480156103c157600080fd5b5061034e6103d0366004613041565b610f48565b3480156103e157600080fd5b506101dc610fe2565b3480156103f657600080fd5b506101dc6104053660046130d0565b610ff6565b34801561041657600080fd5b5060fb546001600160a01b0316610255565b34801561043457600080fd5b50610228611194565b34801561044957600080fd5b506101dc6104583660046130ae565b6111a3565b34801561046957600080fd5b506101dc61047836600461311c565b611331565b34801561048957600080fd5b506101dc61049836600461315a565b61133c565b61034e6104ab366004613041565b611504565b3480156104bc57600080fd5b506101dc6104cb366004612f94565b61161d565b3480156104dc57600080fd5b506102286104eb366004612e97565b6116a5565b3480156104fc57600080fd5b506101fe61050b3660046131e2565b6001600160a01b039182166000908152606a6020908152604080832093909416825291909152205460ff1690565b34801561054557600080fd5b5061034e610554366004613210565b611938565b34801561056557600080fd5b506101dc610574366004613041565b611a94565b610581611b21565b61058e6101fb8383612c61565b506101f6546101f9546040516001600160a01b039092169163eaf5d04e9130916105c2906101f8908890889060200161333d565b6040516020818303038152906040526040518463ffffffff1660e01b81526004016105ef939291906133c3565b600060405180830381600087803b15801561060957600080fd5b505af115801561061d573d6000803e3d6000fd5b50506101f9546040513393507fa3d15b83e439e2e5347f17a14ec2d5a6559a106d36d4e1cb9d2a9befdb8f1d4f925061065b9142916101f8906133eb565b60405180910390a25050565b60006001600160e01b031982167f80ac58cd0000000000000000000000000000000000000000000000000000000014806106ca57506001600160e01b031982167f5b5e139f00000000000000000000000000000000000000000000000000000000145b806106fe57507f01ffc9a7000000000000000000000000000000000000000000000000000000006001600160e01b03198316145b92915050565b60606065805461071390613293565b80601f016020809104026020016040519081016040528092919081815260200182805461073f90613293565b801561078c5780601f106107615761010080835404028352916020019161078c565b820191906000526020600020905b81548152906001019060200180831161076f57829003601f168201915b5050505050905090565b60006107a182611b7b565b506000908152606960205260409020546001600160a01b031690565b60006107c882610d55565b9050806001600160a01b0316836001600160a01b031614156108575760405162461bcd60e51b815260206004820152602160248201527f4552433732313a20617070726f76616c20746f2063757272656e74206f776e6560448201527f720000000000000000000000000000000000000000000000000000000000000060648201526084015b60405180910390fd5b336001600160a01b03821614806108735750610873813361050b565b6108e55760405162461bcd60e51b815260206004820152603e60248201527f4552433732313a20617070726f76652063616c6c6572206973206e6f7420746f60448201527f6b656e206f776e6572206e6f7220617070726f76656420666f7220616c6c0000606482015260840161084e565b6108ef8383611bdf565b505050565b630a85bd0160e11b5b949350505050565b61090f3382611c4d565b6109815760405162461bcd60e51b815260206004820152602e60248201527f4552433732313a2063616c6c6572206973206e6f7420746f6b656e206f776e6560448201527f72206e6f7220617070726f766564000000000000000000000000000000000000606482015260840161084e565b6108ef838383611ccb565b306001600160a01b037f0000000000000000000000000000000000000000000000000000000000000000161415610a1a5760405162461bcd60e51b815260206004820152602c60248201527f46756e6374696f6e206d7573742062652063616c6c6564207468726f7567682060448201526b19195b1959d85d1958d85b1b60a21b606482015260840161084e565b7f00000000000000000000000000000000000000000000000000000000000000006001600160a01b0316610a757f360894a13ba1a3210667c828492db98dca3e2076cc3735a920a3ca505d382bbc546001600160a01b031690565b6001600160a01b031614610ae05760405162461bcd60e51b815260206004820152602c60248201527f46756e6374696f6e206d7573742062652063616c6c6564207468726f7567682060448201526b6163746976652070726f787960a01b606482015260840161084e565b610ae981611e98565b60408051600080825260208201909252610b0591839190611ea0565b50565b6108ef8383836040518060200160405280600081525061161d565b306001600160a01b037f0000000000000000000000000000000000000000000000000000000000000000161415610bb15760405162461bcd60e51b815260206004820152602c60248201527f46756e6374696f6e206d7573742062652063616c6c6564207468726f7567682060448201526b19195b1959d85d1958d85b1b60a21b606482015260840161084e565b7f00000000000000000000000000000000000000000000000000000000000000006001600160a01b0316610c0c7f360894a13ba1a3210667c828492db98dca3e2076cc3735a920a3ca505d382bbc546001600160a01b031690565b6001600160a01b031614610c775760405162461bcd60e51b815260206004820152602c60248201527f46756e6374696f6e206d7573742062652063616c6c6564207468726f7567682060448201526b6163746976652070726f787960a01b606482015260840161084e565b610c8082611e98565b610c8c82826001611ea0565b5050565b6000306001600160a01b037f00000000000000000000000000000000000000000000000000000000000000001614610d305760405162461bcd60e51b815260206004820152603860248201527f555550535570677261646561626c653a206d757374206e6f742062652063616c60448201527f6c6564207468726f7567682064656c656761746563616c6c0000000000000000606482015260840161084e565b507f360894a13ba1a3210667c828492db98dca3e2076cc3735a920a3ca505d382bbc90565b6000818152606760205260408120546001600160a01b0316806106fe5760405162461bcd60e51b815260206004820152601860248201527f4552433732313a20696e76616c696420746f6b656e2049440000000000000000604482015260640161084e565b6040516331a9108f60e11b81526004810183905233903090636352211e90602401602060405180830381865afa158015610df8573d6000803e3d6000fd5b505050506040513d601f19601f82011682018060405250810190610e1c919061347f565b6001600160a01b031614610e625760405162461bcd60e51b815260206004820152600d60248201526c24b73b30b634b21037bbb732b960991b604482015260640161084e565b6101f6546101f9546001600160a01b039091169063eaf5d04e9030906101f8610e8a86612040565b610e9388612040565b604051602001610ea59392919061349c565b6040516020818303038152906040526040518463ffffffff1660e01b8152600401610ed2939291906133c3565b600060405180830381600087803b158015610eec57600080fd5b505af1158015610f00573d6000803e3d6000fd5b50506101f95460408051428152602081019290925281018590523392507fea0ca050ffabd8c573efe5976a043c78b8536f93b85fcb9c4e8e026ab4732a80915060600161065b565b60006001600160a01b038216610fc65760405162461bcd60e51b815260206004820152602960248201527f4552433732313a2061646472657373207a65726f206973206e6f74206120766160448201527f6c6964206f776e65720000000000000000000000000000000000000000000000606482015260840161084e565b506001600160a01b031660009081526068602052604090205490565b610fea611b21565b610ff46000612172565b565b6040516331a9108f60e11b81526004810184905233903090636352211e90602401602060405180830381865afa158015611034573d6000803e3d6000fd5b505050506040513d601f19601f82011682018060405250810190611058919061347f565b6001600160a01b03161461109e5760405162461bcd60e51b815260206004820152600d60248201526c24b73b30b634b21037bbb732b960991b604482015260640161084e565b6110ab6101fc8383612c61565b506101f6546101f9546001600160a01b039091169063eaf5d04e9030906101f886866110d68a612040565b6040516020016110e99493929190613536565b6040516020818303038152906040526040518463ffffffff1660e01b8152600401611116939291906133c3565b600060405180830381600087803b15801561113057600080fd5b505af1158015611144573d6000803e3d6000fd5b50506101f95460408051428152602081019290925281018690523392507f6101621a198b15c838fcf88190d0971a759f726828bc19a6c28447726a4300af915060600160405180910390a2505050565b60606066805461071390613293565b6040516331a9108f60e11b81526004810183905233903090636352211e90602401602060405180830381865afa1580156111e1573d6000803e3d6000fd5b505050506040513d601f19601f82011682018060405250810190611205919061347f565b6001600160a01b03161461124b5760405162461bcd60e51b815260206004820152600d60248201526c24b73b30b634b21037bbb732b960991b604482015260640161084e565b6101f6546101f9546001600160a01b039091169063eaf5d04e9030906101f861127386612040565b61127c88612040565b60405160200161128e939291906135c4565b6040516020818303038152906040526040518463ffffffff1660e01b81526004016112bb939291906133c3565b600060405180830381600087803b1580156112d557600080fd5b505af11580156112e9573d6000803e3d6000fd5b50506101f95460408051428152602081019290925281018590523392507fe326cd34425a044b30ecda6c63ba14f5a40df1e3ae0d261afd8196b0832a7f53915060600161065b565b610c8c3383836121c4565b600054610100900460ff161580801561135c5750600054600160ff909116105b806113765750303b158015611376575060005460ff166001145b6113e85760405162461bcd60e51b815260206004820152602e60248201527f496e697469616c697a61626c653a20636f6e747261637420697320616c72656160448201527f647920696e697469616c697a6564000000000000000000000000000000000000606482015260840161084e565b6000805460ff19166001179055801561140b576000805461ff0019166101001790555b611413612293565b61141b612293565b6114236122fe565b61142b612371565b6114336123e4565b8351611447906101f7906020870190612ce5565b506040805180820190915260048082527f6d6f6a6f00000000000000000000000000000000000000000000000000000000602090920191825261148d916101fa91612ce5565b5082516114a2906101fb906020860190612ce5565b5081516114b7906101fc906020850190612ce5565b5080156114fe576000805461ff0019169055604051600181527f7f26b83ff96e1f2b6a682f133852f6798a09c465da95921460cefb38474024989060200160405180910390a15b50505050565b600061150e611b21565b6101f680546001600160a01b0319166001600160a01b038416908117909155633a9151b0306101fa61153f46612040565b604051602001611550929190613616565b6040516020818303038152906040526040518363ffffffff1660e01b815260040161157c9291906136be565b6020604051808303816000875af115801561159b573d6000803e3d6000fd5b505050506040513d601f19601f820116820180604052508101906115bf91906136e0565b6101f9556101fa6115cf46612040565b6115db6101f954612040565b6040516020016115ed939291906136f9565b6040516020818303038152906040526101f89080519060200190611612929190612ce5565b50506101f954919050565b6116273383611c4d565b6116995760405162461bcd60e51b815260206004820152602e60248201527f4552433732313a2063616c6c6572206973206e6f7420746f6b656e206f776e6560448201527f72206e6f7220617070726f766564000000000000000000000000000000000000606482015260840161084e565b6114fe84848484612457565b6000818152606760205260409020546060906001600160a01b03166117325760405162461bcd60e51b815260206004820152603160248201527f45524337323155524953746f726167653a2055524920717565727920666f722060448201527f6e6f6e6578697374656e7420746f6b656e000000000000000000000000000000606482015260840161084e565b600061173c6124d5565b60408051602080820183526000808352835160e081018552600260a082019081527f696400000000000000000000000000000000000000000000000000000000000060c0830152815284518086018652600d81527f65787465726e616c5f6c696e6b00000000000000000000000000000000000000818501528184015284518086018652600881527f63617465676f727900000000000000000000000000000000000000000000000081850152818601528451808601865260038082527f6169640000000000000000000000000000000000000000000000000000000000828601526060830191909152855180870190965285527f676964000000000000000000000000000000000000000000000000000000000092850192909252608082019390935292935091905b60058110156118fd57801561189857826040516020016118869190613748565b60405160208183030381529060405292505b828282600581106118ab576118ab613789565b60200201518383600581106118c2576118c2613789565b60200201516040516020016118d99392919061379f565b604051602081830303815290604052925080806118f59061384c565b915050611866565b5082826101f861190c88612040565b60405160200161191f9493929190613867565b6040516020818303038152906040529350505050919050565b6000806119456101f55490565b6101f6546101f9549192506001600160a01b03169063eaf5d04e9030906101f861196e86612040565b6101fb8a8a60405160200161198795949392919061395b565b6040516020818303038152906040526040518463ffffffff1660e01b81526004016119b4939291906133c3565b600060405180830381600087803b1580156119ce57600080fd5b505af11580156119e2573d6000803e3d6000fd5b50505050611a008782604051806020016040528060008152506124e5565b611a408187878080601f01602080910402602001604051908101604052809392919081815260200183838082843760009201919091525061256392505050565b611a4f6101f580546001019055565b604080514281526020810183905233917f061b141191d79859f7cc6256c1b9e5f380052197831efe9135841c0ff4de7e63910160405180910390a29695505050505050565b611a9c611b21565b6001600160a01b038116611b185760405162461bcd60e51b815260206004820152602660248201527f4f776e61626c653a206e6577206f776e657220697320746865207a65726f206160448201527f6464726573730000000000000000000000000000000000000000000000000000606482015260840161084e565b610b0581612172565b60fb546001600160a01b03163314610ff45760405162461bcd60e51b815260206004820181905260248201527f4f776e61626c653a2063616c6c6572206973206e6f7420746865206f776e6572604482015260640161084e565b6000818152606760205260409020546001600160a01b0316610b055760405162461bcd60e51b815260206004820152601860248201527f4552433732313a20696e76616c696420746f6b656e2049440000000000000000604482015260640161084e565b600081815260696020526040902080546001600160a01b0319166001600160a01b0384169081179091558190611c1482610d55565b6001600160a01b03167f8c5be1e5ebec7d5bd14f71427d1e84f3dd0314c0f7b2291e5b200ac8c7c3b92560405160405180910390a45050565b600080611c5983610d55565b9050806001600160a01b0316846001600160a01b03161480611ca057506001600160a01b038082166000908152606a602090815260408083209388168352929052205460ff165b806108fd5750836001600160a01b0316611cb984610796565b6001600160a01b031614949350505050565b826001600160a01b0316611cde82610d55565b6001600160a01b031614611d5a5760405162461bcd60e51b815260206004820152602560248201527f4552433732313a207472616e736665722066726f6d20696e636f72726563742060448201527f6f776e6572000000000000000000000000000000000000000000000000000000606482015260840161084e565b6001600160a01b038216611dd55760405162461bcd60e51b8152602060048201526024808201527f4552433732313a207472616e7366657220746f20746865207a65726f2061646460448201527f7265737300000000000000000000000000000000000000000000000000000000606482015260840161084e565b611de0600082611bdf565b6001600160a01b0383166000908152606860205260408120805460019290611e09908490613a67565b90915550506001600160a01b0382166000908152606860205260408120805460019290611e37908490613a7e565b909155505060008181526067602052604080822080546001600160a01b0319166001600160a01b0386811691821790925591518493918716917fddf252ad1be2c89b69c2b068fc378daa952ba7f163c4a11628f55a4df523b3ef91a4505050565b610b05611b21565b7f4910fdfa16fed3260ed0e7147f7cc6da11a60208b5b9406d12a635614ffd91435460ff1615611ed3576108ef8361260c565b826001600160a01b03166352d1902d6040518163ffffffff1660e01b8152600401602060405180830381865afa925050508015611f2d575060408051601f3d908101601f19168201909252611f2a918101906136e0565b60015b611f9f5760405162461bcd60e51b815260206004820152602e60248201527f45524331393637557067726164653a206e657720696d706c656d656e7461746960448201527f6f6e206973206e6f742055555053000000000000000000000000000000000000606482015260840161084e565b7f360894a13ba1a3210667c828492db98dca3e2076cc3735a920a3ca505d382bbc81146120345760405162461bcd60e51b815260206004820152602960248201527f45524331393637557067726164653a20756e737570706f727465642070726f7860448201527f6961626c65555549440000000000000000000000000000000000000000000000606482015260840161084e565b506108ef8383836126ca565b60608161208057505060408051808201909152600181527f3000000000000000000000000000000000000000000000000000000000000000602082015290565b8160005b81156120aa57806120948161384c565b91506120a39050600a83613aac565b9150612084565b60008167ffffffffffffffff8111156120c5576120c5612ef1565b6040519080825280601f01601f1916602001820160405280156120ef576020820181803683370190505b5090505b84156108fd57612104600183613a67565b9150612111600a86613ac0565b61211c906030613a7e565b60f81b81838151811061213157612131613789565b60200101907effffffffffffffffffffffffffffffffffffffffffffffffffffffffffffff1916908160001a90535061216b600a86613aac565b94506120f3565b60fb80546001600160a01b038381166001600160a01b0319831681179093556040519116919082907f8be0079c531659141344cd1fd0a4f28419497f9722a3daafe3b4186f6b6457e090600090a35050565b816001600160a01b0316836001600160a01b031614156122265760405162461bcd60e51b815260206004820152601960248201527f4552433732313a20617070726f766520746f2063616c6c657200000000000000604482015260640161084e565b6001600160a01b038381166000818152606a6020908152604080832094871680845294825291829020805460ff191686151590811790915591519182527f17307eab39ab6107e8899845ad3d59bd9653f200f220920489ca2b5937696c31910160405180910390a3505050565b600054610100900460ff16610ff45760405162461bcd60e51b815260206004820152602b60248201527f496e697469616c697a61626c653a20636f6e7472616374206973206e6f74206960448201526a6e697469616c697a696e6760a81b606482015260840161084e565b600054610100900460ff166123695760405162461bcd60e51b815260206004820152602b60248201527f496e697469616c697a61626c653a20636f6e7472616374206973206e6f74206960448201526a6e697469616c697a696e6760a81b606482015260840161084e565b610ff46126ef565b600054610100900460ff166123dc5760405162461bcd60e51b815260206004820152602b60248201527f496e697469616c697a61626c653a20636f6e7472616374206973206e6f74206960448201526a6e697469616c697a696e6760a81b606482015260840161084e565b610ff4612763565b600054610100900460ff1661244f5760405162461bcd60e51b815260206004820152602b60248201527f496e697469616c697a61626c653a20636f6e7472616374206973206e6f74206960448201526a6e697469616c697a696e6760a81b606482015260840161084e565b610ff46127db565b612462848484611ccb565b61246e8484848461284e565b6114fe5760405162461bcd60e51b815260206004820152603260248201527f4552433732313a207472616e7366657220746f206e6f6e20455243373231526560448201527131b2b4bb32b91034b6b83632b6b2b73a32b960711b606482015260840161084e565b60606101f7805461071390613293565b6124ef8383612994565b6124fc600084848461284e565b6108ef5760405162461bcd60e51b815260206004820152603260248201527f4552433732313a207472616e7366657220746f206e6f6e20455243373231526560448201527131b2b4bb32b91034b6b83632b6b2b73a32b960711b606482015260840161084e565b6000828152606760205260409020546001600160a01b03166125ed5760405162461bcd60e51b815260206004820152602e60248201527f45524337323155524953746f726167653a2055524920736574206f66206e6f6e60448201527f6578697374656e7420746f6b656e000000000000000000000000000000000000606482015260840161084e565b600082815260976020908152604090912082516108ef92840190612ce5565b6001600160a01b0381163b6126895760405162461bcd60e51b815260206004820152602d60248201527f455243313936373a206e657720696d706c656d656e746174696f6e206973206e60448201527f6f74206120636f6e747261637400000000000000000000000000000000000000606482015260840161084e565b7f360894a13ba1a3210667c828492db98dca3e2076cc3735a920a3ca505d382bbc80546001600160a01b0319166001600160a01b0392909216919091179055565b6126d383612ad6565b6000825111806126e05750805b156108ef576114fe8383612b16565b600054610100900460ff1661275a5760405162461bcd60e51b815260206004820152602b60248201527f496e697469616c697a61626c653a20636f6e7472616374206973206e6f74206960448201526a6e697469616c697a696e6760a81b606482015260840161084e565b610ff433612172565b600054610100900460ff166127ce5760405162461bcd60e51b815260206004820152602b60248201527f496e697469616c697a61626c653a20636f6e7472616374206973206e6f74206960448201526a6e697469616c697a696e6760a81b606482015260840161084e565b61012d805460ff19169055565b600054610100900460ff166128465760405162461bcd60e51b815260206004820152602b60248201527f496e697469616c697a61626c653a20636f6e7472616374206973206e6f74206960448201526a6e697469616c697a696e6760a81b606482015260840161084e565b600161015f55565b60006001600160a01b0384163b1561298c57604051630a85bd0160e11b81526001600160a01b0385169063150b7a0290612892903390899088908890600401613ad4565b6020604051808303816000875af19250505080156128cd575060408051601f3d908101601f191682019092526128ca91810190613b10565b60015b612972573d8080156128fb576040519150601f19603f3d011682016040523d82523d6000602084013e612900565b606091505b50805161296a5760405162461bcd60e51b815260206004820152603260248201527f4552433732313a207472616e7366657220746f206e6f6e20455243373231526560448201527131b2b4bb32b91034b6b83632b6b2b73a32b960711b606482015260840161084e565b805181602001fd5b6001600160e01b031916630a85bd0160e11b1490506108fd565b5060016108fd565b6001600160a01b0382166129ea5760405162461bcd60e51b815260206004820181905260248201527f4552433732313a206d696e7420746f20746865207a65726f2061646472657373604482015260640161084e565b6000818152606760205260409020546001600160a01b031615612a4f5760405162461bcd60e51b815260206004820152601c60248201527f4552433732313a20746f6b656e20616c7265616479206d696e74656400000000604482015260640161084e565b6001600160a01b0382166000908152606860205260408120805460019290612a78908490613a7e565b909155505060008181526067602052604080822080546001600160a01b0319166001600160a01b03861690811790915590518392907fddf252ad1be2c89b69c2b068fc378daa952ba7f163c4a11628f55a4df523b3ef908290a45050565b612adf8161260c565b6040516001600160a01b038216907fbc7cd75a20ee27fd9adebab32041f755214dbc6bffa90cc0225b39da2e5c2d3b90600090a250565b60606001600160a01b0383163b612b955760405162461bcd60e51b815260206004820152602660248201527f416464726573733a2064656c65676174652063616c6c20746f206e6f6e2d636f60448201527f6e74726163740000000000000000000000000000000000000000000000000000606482015260840161084e565b600080846001600160a01b031684604051612bb09190613b2d565b600060405180830381855af49150503d8060008114612beb576040519150601f19603f3d011682016040523d82523d6000602084013e612bf0565b606091505b5091509150612c188282604051806060016040528060278152602001613b4a60279139612c21565b95945050505050565b60608315612c30575081612c5a565b825115612c405782518084602001fd5b8160405162461bcd60e51b815260040161084e9190612e84565b9392505050565b828054612c6d90613293565b90600052602060002090601f016020900481019282612c8f5760008555612cd5565b82601f10612ca85782800160ff19823516178555612cd5565b82800160010185558215612cd5579182015b82811115612cd5578235825591602001919060010190612cba565b50612ce1929150612d59565b5090565b828054612cf190613293565b90600052602060002090601f016020900481019282612d135760008555612cd5565b82601f10612d2c57805160ff1916838001178555612cd5565b82800160010185558215612cd5579182015b82811115612cd5578251825591602001919060010190612d3e565b5b80821115612ce15760008155600101612d5a565b60008083601f840112612d8057600080fd5b50813567ffffffffffffffff811115612d9857600080fd5b602083019150836020828501011115612db057600080fd5b9250929050565b60008060208385031215612dca57600080fd5b823567ffffffffffffffff811115612de157600080fd5b612ded85828601612d6e565b90969095509350505050565b6001600160e01b031981168114610b0557600080fd5b600060208284031215612e2157600080fd5b8135612c5a81612df9565b60005b83811015612e47578181015183820152602001612e2f565b838111156114fe5750506000910152565b60008151808452612e70816020860160208601612e2c565b601f01601f19169290920160200192915050565b602081526000612c5a6020830184612e58565b600060208284031215612ea957600080fd5b5035919050565b6001600160a01b0381168114610b0557600080fd5b60008060408385031215612ed857600080fd5b8235612ee381612eb0565b946020939093013593505050565b634e487b7160e01b600052604160045260246000fd5b600082601f830112612f1857600080fd5b813567ffffffffffffffff80821115612f3357612f33612ef1565b604051601f8301601f19908116603f01168101908282118183101715612f5b57612f5b612ef1565b81604052838152866020858801011115612f7457600080fd5b836020870160208301376000602085830101528094505050505092915050565b60008060008060808587031215612faa57600080fd5b8435612fb581612eb0565b93506020850135612fc581612eb0565b925060408501359150606085013567ffffffffffffffff811115612fe857600080fd5b612ff487828801612f07565b91505092959194509250565b60008060006060848603121561301557600080fd5b833561302081612eb0565b9250602084013561303081612eb0565b929592945050506040919091013590565b60006020828403121561305357600080fd5b8135612c5a81612eb0565b6000806040838503121561307157600080fd5b823561307c81612eb0565b9150602083013567ffffffffffffffff81111561309857600080fd5b6130a485828601612f07565b9150509250929050565b600080604083850312156130c157600080fd5b50508035926020909101359150565b6000806000604084860312156130e557600080fd5b83359250602084013567ffffffffffffffff81111561310357600080fd5b61310f86828701612d6e565b9497909650939450505050565b6000806040838503121561312f57600080fd5b823561313a81612eb0565b91506020830135801515811461314f57600080fd5b809150509250929050565b60008060006060848603121561316f57600080fd5b833567ffffffffffffffff8082111561318757600080fd5b61319387838801612f07565b945060208601359150808211156131a957600080fd5b6131b587838801612f07565b935060408601359150808211156131cb57600080fd5b506131d886828701612f07565b9150509250925092565b600080604083850312156131f557600080fd5b823561320081612eb0565b9150602083013561314f81612eb0565b60008060008060006060868803121561322857600080fd5b853561323381612eb0565b9450602086013567ffffffffffffffff8082111561325057600080fd5b61325c89838a01612d6e565b9096509450604088013591508082111561327557600080fd5b5061328288828901612d6e565b969995985093965092949392505050565b600181811c908216806132a757607f821691505b602082108114156132c857634e487b7160e01b600052602260045260246000fd5b50919050565b600081546132db81613293565b600182811680156132f3576001811461330457613333565b60ff19841687528287019450613333565b8560005260208060002060005b8581101561332a5781548a820152908401908201613311565b50505082870194505b5050505092915050565b6602aa82220aa22960cd1b8152600061335960078301866132ce565b7f205345542065787465726e616c5f6c696e6b203d2000000000000000000000008152838560158301377f7c7c273f746f6b656e49643d277c7c6964000000000000000000000000000000930160158101939093525050603b60f81b602682015260270192915050565b6001600160a01b0384168152826020820152606060408201526000612c186060830184612e58565b838152600060208481840152606060408401526000845461340b81613293565b806060870152608060018084166000811461342d57600181146134415761346f565b60ff1985168984015260a08901955061346f565b896000528660002060005b858110156134675781548b820186015290830190880161344c565b8a0184019650505b50939a9950505050505050505050565b60006020828403121561349157600080fd5b8151612c5a81612eb0565b6602aa82220aa22960cd1b815260006134b860078301866132ce565b7f2053455420676964203d20000000000000000000000000000000000000000000815284516134ee81600b840160208901612e2c565b6b0102ba422a9229034b2101e960a51b600b9290910191820152835161351b816017840160208801612e2c565b603b60f81b6017929091019182015260180195945050505050565b6602aa82220aa22960cd1b8152600061355260078301876132ce565b7f205345542063617465676f7279203d20000000000000000000000000000000008152848660108301376b0102ba422a9229034b2101e960a51b60109186019182015283516135a881601c840160208801612e2c565b603b60f81b601c9290910191820152601d019695505050505050565b6602aa82220aa22960cd1b815260006135e060078301866132ce565b7f2053455420616964203d20000000000000000000000000000000000000000000815284516134ee81600b840160208901612e2c565b7f435245415445205441424c45200000000000000000000000000000000000000081526000613648600d8301856132ce565b605f60f81b81528351613662816001840160208801612e2c565b7f2028696420696e742c2065787465726e616c5f6c696e6b20746578742c206361600192909101918201527f7465676f727920746578742c2061696420696e742c2067696420696e74293b006021820152604001949350505050565b6001600160a01b03831681526040602082015260006108fd6040830184612e58565b6000602082840312156136f257600080fd5b5051919050565b600061370582866132ce565b605f60f81b8082528551613720816001850160208a01612e2c565b6001920191820152835161373b816002840160208801612e2c565b0160020195945050505050565b6000825161375a818460208701612e2c565b7f2c00000000000000000000000000000000000000000000000000000000000000920191825250600101919050565b634e487b7160e01b600052603260045260246000fd5b600084516137b1818460208901612e2c565b7f270000000000000000000000000000000000000000000000000000000000000090830190815284516137eb816001840160208901612e2c565b7f272c000000000000000000000000000000000000000000000000000000000000600192909101918201528351613829816003840160208801612e2c565b0160030195945050505050565b634e487b7160e01b600052601160045260246000fd5b600060001982141561386057613860613836565b5060010190565b60008551613879818460208a01612e2c565b7f53454c454354253230000000000000000000000000000000000000000000000090830190815285516138b3816009840160208a01612e2c565b7f25323046524f4d25323000000000000000000000000000000000000000000000600992909101918201526138eb60138201866132ce565b90507f253230574845524525323069642533440000000000000000000000000000000081528351613923816010840160208801612e2c565b7f266d6f64653d6c6973740000000000000000000000000000000000000000000060109290910191820152601a019695505050505050565b7f494e5345525420494e544f2000000000000000000000000000000000000000008152600061398d600c8301886132ce565b7f202869642c2065787465726e616c5f6c696e6b2c2063617465676f72792c206181527f69642c20676964292056414c5545532028000000000000000000000000000000602082015286516139e9816031840160208b01612e2c565b8082019150507f2c20270000000000000000000000000000000000000000000000000000000000806031830152613a2360348301886132ce565b9081529050838560038301377f272c20302c203029000000000000000000000000000000000000000000000000930160038101939093525050600b01949350505050565b600082821015613a7957613a79613836565b500390565b60008219821115613a9157613a91613836565b500190565b634e487b7160e01b600052601260045260246000fd5b600082613abb57613abb613a96565b500490565b600082613acf57613acf613a96565b500690565b60006001600160a01b03808716835280861660208401525083604083015260806060830152613b066080830184612e58565b9695505050505050565b600060208284031215613b2257600080fd5b8151612c5a81612df9565b60008251613b3f818460208701612e2c565b919091019291505056fe416464726573733a206c6f772d6c6576656c2064656c65676174652063616c6c206661696c6564a26469706673582212202fe6af1129084936eac5b250c4cd058769b4591dbe11e763c2391bc8b607222b64736f6c634300080c0033",
  "linkReferences": {},
  "deployedLinkReferences": {}
}