{
  "_format": "hh-sol-artifact-1",
  "contractName": "MojoCore",
  "sourceName": "contracts/MojoCore.sol",
  "abi": [
    {
      "inputs": [
        {
          "internalType": "address",
          "name": "registry",
          "type": "address"
        }
      ],
      "stateMutability": "payable",
      "type": "constructor"
    },
    {
      "anonymous": false,
      "inputs": [
        {
          "indexed": true,
          "internalType": "address",
          "name": "owner",
          "type": "address"
        },
        {
          "indexed": true,
          "internalType": "address",
          "name": "approved",
          "type": "address"
        },
        {
          "indexed": true,
          "internalType": "uint256",
          "name": "tokenId",
          "type": "uint256"
        }
      ],
      "name": "Approval",
      "type": "event"
    },
    {
      "anonymous": false,
      "inputs": [
        {
          "indexed": true,
          "internalType": "address",
          "name": "owner",
          "type": "address"
        },
        {
          "indexed": true,
          "internalType": "address",
          "name": "operator",
          "type": "address"
        },
        {
          "indexed": false,
          "internalType": "bool",
          "name": "approved",
          "type": "bool"
        }
      ],
      "name": "ApprovalForAll",
      "type": "event"
    },
    {
      "anonymous": false,
      "inputs": [
        {
          "indexed": true,
          "internalType": "address",
          "name": "from",
          "type": "address"
        },
        {
          "indexed": false,
          "internalType": "uint256",
          "name": "timestamp",
          "type": "uint256"
        },
        {
          "indexed": false,
          "internalType": "uint256",
          "name": "tokenId",
          "type": "uint256"
        }
      ],
      "name": "NewNftMinted",
      "type": "event"
    },
    {
      "anonymous": false,
      "inputs": [
        {
          "indexed": true,
          "internalType": "address",
          "name": "previousOwner",
          "type": "address"
        },
        {
          "indexed": true,
          "internalType": "address",
          "name": "newOwner",
          "type": "address"
        }
      ],
      "name": "OwnershipTransferred",
      "type": "event"
    },
    {
      "anonymous": false,
      "inputs": [
        {
          "indexed": true,
          "internalType": "address",
          "name": "from",
          "type": "address"
        },
        {
          "indexed": true,
          "internalType": "address",
          "name": "to",
          "type": "address"
        },
        {
          "indexed": true,
          "internalType": "uint256",
          "name": "tokenId",
          "type": "uint256"
        }
      ],
      "name": "Transfer",
      "type": "event"
    },
    {
      "inputs": [],
      "name": "_attributes",
      "outputs": [
        {
          "internalType": "string",
          "name": "",
          "type": "string"
        }
      ],
      "stateMutability": "view",
      "type": "function"
    },
    {
      "inputs": [],
      "name": "_description",
      "outputs": [
        {
          "internalType": "string",
          "name": "",
          "type": "string"
        }
      ],
      "stateMutability": "view",
      "type": "function"
    },
    {
      "inputs": [],
      "name": "_externalURL",
      "outputs": [
        {
          "internalType": "string",
          "name": "",
          "type": "string"
        }
      ],
      "stateMutability": "view",
      "type": "function"
    },
    {
      "inputs": [],
      "name": "_image",
      "outputs": [
        {
          "internalType": "string",
          "name": "",
          "type": "string"
        }
      ],
      "stateMutability": "view",
      "type": "function"
    },
    {
      "inputs": [],
      "name": "_name",
      "outputs": [
        {
          "internalType": "string",
          "name": "",
          "type": "string"
        }
      ],
      "stateMutability": "view",
      "type": "function"
    },
    {
      "inputs": [
        {
          "internalType": "address",
          "name": "to",
          "type": "address"
        },
        {
          "internalType": "uint256",
          "name": "tokenId",
          "type": "uint256"
        }
      ],
      "name": "approve",
      "outputs": [],
      "stateMutability": "nonpayable",
      "type": "function"
    },
    {
      "inputs": [
        {
          "internalType": "address",
          "name": "owner",
          "type": "address"
        }
      ],
      "name": "balanceOf",
      "outputs": [
        {
          "internalType": "uint256",
          "name": "",
          "type": "uint256"
        }
      ],
      "stateMutability": "view",
      "type": "function"
    },
    {
      "inputs": [
        {
          "internalType": "string",
          "name": "",
          "type": "string"
        }
      ],
      "name": "creators",
      "outputs": [
        {
          "internalType": "address",
          "name": "",
          "type": "address"
        }
      ],
      "stateMutability": "view",
      "type": "function"
    },
    {
      "inputs": [
        {
          "internalType": "uint256",
          "name": "tokenId",
          "type": "uint256"
        }
      ],
      "name": "getApproved",
      "outputs": [
        {
          "internalType": "address",
          "name": "",
          "type": "address"
        }
      ],
      "stateMutability": "view",
      "type": "function"
    },
    {
      "inputs": [
        {
          "internalType": "address",
          "name": "owner",
          "type": "address"
        },
        {
          "internalType": "address",
          "name": "operator",
          "type": "address"
        }
      ],
      "name": "isApprovedForAll",
      "outputs": [
        {
          "internalType": "bool",
          "name": "",
          "type": "bool"
        }
      ],
      "stateMutability": "view",
      "type": "function"
    },
    {
      "inputs": [],
      "name": "name",
      "outputs": [
        {
          "internalType": "string",
          "name": "",
          "type": "string"
        }
      ],
      "stateMutability": "view",
      "type": "function"
    },
    {
      "inputs": [],
      "name": "owner",
      "outputs": [
        {
          "internalType": "address",
          "name": "",
          "type": "address"
        }
      ],
      "stateMutability": "view",
      "type": "function"
    },
    {
      "inputs": [
        {
          "internalType": "uint256",
          "name": "tokenId",
          "type": "uint256"
        }
      ],
      "name": "ownerOf",
      "outputs": [
        {
          "internalType": "address",
          "name": "",
          "type": "address"
        }
      ],
      "stateMutability": "view",
      "type": "function"
    },
    {
      "inputs": [
        {
          "internalType": "string",
          "name": "",
          "type": "string"
        }
      ],
      "name": "records",
      "outputs": [
        {
          "internalType": "string",
          "name": "",
          "type": "string"
        }
      ],
      "stateMutability": "view",
      "type": "function"
    },
    {
      "inputs": [],
      "name": "renounceOwnership",
      "outputs": [],
      "stateMutability": "nonpayable",
      "type": "function"
    },
    {
      "inputs": [
        {
          "internalType": "string",
          "name": "name",
          "type": "string"
        },
        {
          "internalType": "string",
          "name": "description",
          "type": "string"
        },
        {
          "internalType": "string",
          "name": "image",
          "type": "string"
        },
        {
          "internalType": "string",
          "name": "externalURL",
          "type": "string"
        },
        {
          "internalType": "string",
          "name": "attributes",
          "type": "string"
        }
      ],
      "name": "safeMint",
      "outputs": [
        {
          "internalType": "uint256",
          "name": "",
          "type": "uint256"
        }
      ],
      "stateMutability": "nonpayable",
      "type": "function"
    },
    {
      "inputs": [
        {
          "internalType": "address",
          "name": "from",
          "type": "address"
        },
        {
          "internalType": "address",
          "name": "to",
          "type": "address"
        },
        {
          "internalType": "uint256",
          "name": "tokenId",
          "type": "uint256"
        }
      ],
      "name": "safeTransferFrom",
      "outputs": [],
      "stateMutability": "nonpayable",
      "type": "function"
    },
    {
      "inputs": [
        {
          "internalType": "address",
          "name": "from",
          "type": "address"
        },
        {
          "internalType": "address",
          "name": "to",
          "type": "address"
        },
        {
          "internalType": "uint256",
          "name": "tokenId",
          "type": "uint256"
        },
        {
          "internalType": "bytes",
          "name": "data",
          "type": "bytes"
        }
      ],
      "name": "safeTransferFrom",
      "outputs": [],
      "stateMutability": "nonpayable",
      "type": "function"
    },
    {
      "inputs": [
        {
          "internalType": "address",
          "name": "operator",
          "type": "address"
        },
        {
          "internalType": "bool",
          "name": "approved",
          "type": "bool"
        }
      ],
      "name": "setApprovalForAll",
      "outputs": [],
      "stateMutability": "nonpayable",
      "type": "function"
    },
    {
      "inputs": [
        {
          "internalType": "string",
          "name": "attributes",
          "type": "string"
        }
      ],
      "name": "setAttributes",
      "outputs": [],
      "stateMutability": "nonpayable",
      "type": "function"
    },
    {
      "inputs": [
        {
          "internalType": "string",
          "name": "externalURL",
          "type": "string"
        }
      ],
      "name": "setExternalURL",
      "outputs": [],
      "stateMutability": "nonpayable",
      "type": "function"
    },
    {
      "inputs": [
        {
          "internalType": "bytes4",
          "name": "interfaceId",
          "type": "bytes4"
        }
      ],
      "name": "supportsInterface",
      "outputs": [
        {
          "internalType": "bool",
          "name": "",
          "type": "bool"
        }
      ],
      "stateMutability": "view",
      "type": "function"
    },
    {
      "inputs": [],
      "name": "symbol",
      "outputs": [
        {
          "internalType": "string",
          "name": "",
          "type": "string"
        }
      ],
      "stateMutability": "view",
      "type": "function"
    },
    {
      "inputs": [
        {
          "internalType": "uint256",
          "name": "tokenId",
          "type": "uint256"
        }
      ],
      "name": "tokenURI",
      "outputs": [
        {
          "internalType": "string",
          "name": "",
          "type": "string"
        }
      ],
      "stateMutability": "view",
      "type": "function"
    },
    {
      "inputs": [
        {
          "internalType": "address",
          "name": "from",
          "type": "address"
        },
        {
          "internalType": "address",
          "name": "to",
          "type": "address"
        },
        {
          "internalType": "uint256",
          "name": "tokenId",
          "type": "uint256"
        }
      ],
      "name": "transferFrom",
      "outputs": [],
      "stateMutability": "nonpayable",
      "type": "function"
    },
    {
      "inputs": [
        {
          "internalType": "address",
          "name": "newOwner",
          "type": "address"
        }
      ],
      "name": "transferOwnership",
      "outputs": [],
      "stateMutability": "nonpayable",
      "type": "function"
    }
  ],
  "bytecode": "0x60806040526040518060600160405280602a815260200162004f75602a9139600a908051906020019062000035929190620006ce565b506040518060400160405280600481526020017f6d6f6a6f00000000000000000000000000000000000000000000000000000000815250600d908051906020019062000083929190620006ce565b506040518060400160405280601381526020017f6e6f742e696d706c656d656e7465642e636f6d00000000000000000000000000815250600e9080519060200190620000d1929190620006ce565b506040518060400160405280601381526020017f6e6f742e696d706c656d656e7465642e636f6d00000000000000000000000000815250600f90805190602001906200011f929190620006ce565b506040518060400160405280601381526020017f6e6f742e696d706c656d656e7465642e636f6d00000000000000000000000000815250601090805190602001906200016d929190620006ce565b506040518060400160405280601381526020017f6e6f742e696d706c656d656e7465642e636f6d0000000000000000000000000081525060119080519060200190620001bb929190620006ce565b506040518060400160405280601381526020017f6e6f742e696d706c656d656e7465642e636f6d000000000000000000000000008152506012908051906020019062000209929190620006ce565b5060405162004f9f38038062004f9f83398181016040528101906200022f9190620007e8565b6040518060400160405280600781526020017f4d6f6a6f4e4654000000000000000000000000000000000000000000000000008152506040518060400160405280600481526020017f6d4e4654000000000000000000000000000000000000000000000000000000008152508160009080519060200190620002b3929190620006ce565b508060019080519060200190620002cc929190620006ce565b505050620002ef620002e36200048660201b60201c565b6200048e60201b60201c565b80600960006101000a81548173ffffffffffffffffffffffffffffffffffffffff021916908373ffffffffffffffffffffffffffffffffffffffff160217905550600960009054906101000a900473ffffffffffffffffffffffffffffffffffffffff1673ffffffffffffffffffffffffffffffffffffffff16633a9151b030600d62000387466200055460201b620014521760201c565b6040516020016200039a92919062000ade565b6040516020818303038152906040526040518363ffffffff1660e01b8152600401620003c892919062000ba1565b6020604051808303816000875af1158015620003e8573d6000803e3d6000fd5b505050506040513d601f19601f820116820180604052508101906200040e919062000c10565b600c81905550600d6200042c466200055460201b620014521760201c565b62000444600c546200055460201b620014521760201c565b604051602001620004589392919062000c42565b604051602081830303815290604052600b90805190602001906200047e929190620006ce565b505062000ea5565b600033905090565b6000600760009054906101000a900473ffffffffffffffffffffffffffffffffffffffff16905081600760006101000a81548173ffffffffffffffffffffffffffffffffffffffff021916908373ffffffffffffffffffffffffffffffffffffffff1602179055508173ffffffffffffffffffffffffffffffffffffffff168173ffffffffffffffffffffffffffffffffffffffff167f8be0079c531659141344cd1fd0a4f28419497f9722a3daafe3b4186f6b6457e060405160405180910390a35050565b606060008214156200059e576040518060400160405280600181526020017f30000000000000000000000000000000000000000000000000000000000000008152509050620006c9565b600082905060005b60008214620005d6578080620005bc9062000cc2565b915050600a82620005ce919062000d3f565b9150620005a6565b60008167ffffffffffffffff811115620005f557620005f462000d77565b5b6040519080825280601f01601f191660200182016040528015620006285781602001600182028036833780820191505090505b5090505b60008514620006c25760018262000644919062000da6565b9150600a8562000655919062000de1565b603062000663919062000e19565b60f81b8183815181106200067c576200067b62000e76565b5b60200101907effffffffffffffffffffffffffffffffffffffffffffffffffffffffffffff1916908160001a905350600a85620006ba919062000d3f565b94506200062c565b8093505050505b919050565b828054620006dc90620008a4565b90600052602060002090601f0160209004810192826200070057600085556200074c565b82601f106200071b57805160ff19168380011785556200074c565b828001600101855582156200074c579182015b828111156200074b5782518255916020019190600101906200072e565b5b5090506200075b91906200075f565b5090565b5b808211156200077a57600081600090555060010162000760565b5090565b600080fd5b600073ffffffffffffffffffffffffffffffffffffffff82169050919050565b6000620007b08262000783565b9050919050565b620007c281620007a3565b8114620007ce57600080fd5b50565b600081519050620007e281620007b7565b92915050565b6000602082840312156200080157620008006200077e565b5b60006200081184828501620007d1565b91505092915050565b600081905092915050565b7f435245415445205441424c452000000000000000000000000000000000000000600082015250565b60006200085d600d836200081a565b91506200086a8262000825565b600d82019050919050565b7f4e487b7100000000000000000000000000000000000000000000000000000000600052602260045260246000fd5b60006002820490506001821680620008bd57607f821691505b60208210811415620008d457620008d362000875565b5b50919050565b60008190508160005260206000209050919050565b60008154620008fe81620008a4565b6200090a81866200081a565b945060018216600081146200092857600181146200093a5762000971565b60ff1983168652818601935062000971565b6200094585620008da565b60005b83811015620009695781548189015260018201915060208101905062000948565b838801955050505b50505092915050565b7f5f00000000000000000000000000000000000000000000000000000000000000600082015250565b6000620009b26001836200081a565b9150620009bf826200097a565b600182019050919050565b600081519050919050565b60005b83811015620009f5578082015181840152602081019050620009d8565b8381111562000a05576000848401525b50505050565b600062000a1882620009ca565b62000a2481856200081a565b935062000a36818560208601620009d5565b80840191505092915050565b7f2028696420696e742c206e616d6520746578742c206465736372697074696f6e60008201527f20746578742c20696d61676520746578742c2065787465726e616c5f75726c2060208201527f746578742c20617474726962757465732074657874293b000000000000000000604082015250565b600062000ac66057836200081a565b915062000ad38262000a42565b605782019050919050565b600062000aeb826200084e565b915062000af98285620008ef565b915062000b0682620009a3565b915062000b14828462000a0b565b915062000b218262000ab7565b91508190509392505050565b62000b3881620007a3565b82525050565b600082825260208201905092915050565b6000601f19601f8301169050919050565b600062000b6d82620009ca565b62000b79818562000b3e565b935062000b8b818560208601620009d5565b62000b968162000b4f565b840191505092915050565b600060408201905062000bb8600083018562000b2d565b818103602083015262000bcc818462000b60565b90509392505050565b6000819050919050565b62000bea8162000bd5565b811462000bf657600080fd5b50565b60008151905062000c0a8162000bdf565b92915050565b60006020828403121562000c295762000c286200077e565b5b600062000c398482850162000bf9565b91505092915050565b600062000c508286620008ef565b915062000c5d82620009a3565b915062000c6b828562000a0b565b915062000c7882620009a3565b915062000c86828462000a0b565b9150819050949350505050565b7f4e487b7100000000000000000000000000000000000000000000000000000000600052601160045260246000fd5b600062000ccf8262000bd5565b91507fffffffffffffffffffffffffffffffffffffffffffffffffffffffffffffffff82141562000d055762000d0462000c93565b5b600182019050919050565b7f4e487b7100000000000000000000000000000000000000000000000000000000600052601260045260246000fd5b600062000d4c8262000bd5565b915062000d598362000bd5565b92508262000d6c5762000d6b62000d10565b5b828204905092915050565b7f4e487b7100000000000000000000000000000000000000000000000000000000600052604160045260246000fd5b600062000db38262000bd5565b915062000dc08362000bd5565b92508282101562000dd65762000dd562000c93565b5b828203905092915050565b600062000dee8262000bd5565b915062000dfb8362000bd5565b92508262000e0e5762000e0d62000d10565b5b828206905092915050565b600062000e268262000bd5565b915062000e338362000bd5565b9250827fffffffffffffffffffffffffffffffffffffffffffffffffffffffffffffffff0382111562000e6b5762000e6a62000c93565b5b828201905092915050565b7f4e487b7100000000000000000000000000000000000000000000000000000000600052603260045260246000fd5b6140c08062000eb56000396000f3fe608060405234801561001057600080fd5b506004361061018e5760003560e01c80638da5cb5b116100de578063c87b56dd11610097578063dcf1fb8611610071578063dcf1fb8614610485578063e310bb36146104b5578063e985e9c5146104d1578063f2fde38b146105015761018e565b8063c87b56dd14610419578063cfa84dfe14610449578063d28d8852146104675761018e565b80638da5cb5b1461036957806395d89b41146103875780639aa7b064146103a5578063a22cb465146103c3578063a792984a146103df578063b88d4fde146103fd5761018e565b806342842e0e1161014b57806357177c531161012557806357177c53146102e15780636352211e146102ff57806370a082311461032f578063715018a61461035f5761018e565b806342842e0e146102655780634864909d14610281578063541e771d146102b15761018e565b806301dbcd4a1461019357806301ffc9a7146101af57806306fdde03146101df578063081812fc146101fd578063095ea7b31461022d57806323b872dd14610249575b600080fd5b6101ad60048036038101906101a89190612734565b61051d565b005b6101c960048036038101906101c491906127d9565b6105f2565b6040516101d69190612821565b60405180910390f35b6101e76106d4565b6040516101f491906128d5565b60405180910390f35b6102176004803603810190610212919061292d565b610766565b604051610224919061299b565b60405180910390f35b610247600480360381019061024291906129e2565b6107ac565b005b610263600480360381019061025e9190612a22565b6108c4565b005b61027f600480360381019061027a9190612a22565b610924565b005b61029b60048036038101906102969190612ba5565b610944565b6040516102a8919061299b565b60405180910390f35b6102cb60048036038101906102c69190612ba5565b61098d565b6040516102d891906128d5565b60405180910390f35b6102e9610a43565b6040516102f691906128d5565b60405180910390f35b6103196004803603810190610314919061292d565b610ad1565b604051610326919061299b565b60405180910390f35b61034960048036038101906103449190612bee565b610b83565b6040516103569190612c2a565b60405180910390f35b610367610c3b565b005b610371610c4f565b60405161037e919061299b565b60405180910390f35b61038f610c79565b60405161039c91906128d5565b60405180910390f35b6103ad610d0b565b6040516103ba91906128d5565b60405180910390f35b6103dd60048036038101906103d89190612c71565b610d99565b005b6103e7610daf565b6040516103f491906128d5565b60405180910390f35b61041760048036038101906104129190612d52565b610e3d565b005b610433600480360381019061042e919061292d565b610e9f565b60405161044091906128d5565b60405180910390f35b610451610fb2565b60405161045e91906128d5565b60405180910390f35b61046f611040565b60405161047c91906128d5565b60405180910390f35b61049f600480360381019061049a9190612dd5565b6110ce565b6040516104ac9190612c2a565b60405180910390f35b6104cf60048036038101906104ca9190612734565b611265565b005b6104eb60048036038101906104e69190612ef2565b61133a565b6040516104f89190612821565b60405180910390f35b61051b60048036038101906105169190612bee565b6113ce565b005b6105256115b3565b818160119190610536929190612592565b50600960009054906101000a900473ffffffffffffffffffffffffffffffffffffffff1673ffffffffffffffffffffffffffffffffffffffff1663eaf5d04e30600c54600b868660405160200161058f939291906130ef565b6040516020818303038152906040526040518463ffffffff1660e01b81526004016105bc93929190613151565b600060405180830381600087803b1580156105d657600080fd5b505af11580156105ea573d6000803e3d6000fd5b505050505050565b60007f80ac58cd000000000000000000000000000000000000000000000000000000007bffffffffffffffffffffffffffffffffffffffffffffffffffffffff1916827bffffffffffffffffffffffffffffffffffffffffffffffffffffffff191614806106bd57507f5b5e139f000000000000000000000000000000000000000000000000000000007bffffffffffffffffffffffffffffffffffffffffffffffffffffffff1916827bffffffffffffffffffffffffffffffffffffffffffffffffffffffff1916145b806106cd57506106cc82611631565b5b9050919050565b6060600080546106e390612f87565b80601f016020809104026020016040519081016040528092919081815260200182805461070f90612f87565b801561075c5780601f106107315761010080835404028352916020019161075c565b820191906000526020600020905b81548152906001019060200180831161073f57829003601f168201915b5050505050905090565b60006107718261169b565b6004600083815260200190815260200160002060009054906101000a900473ffffffffffffffffffffffffffffffffffffffff169050919050565b60006107b782610ad1565b90508073ffffffffffffffffffffffffffffffffffffffff168373ffffffffffffffffffffffffffffffffffffffff161415610828576040517f08c379a000000000000000000000000000000000000000000000000000000000815260040161081f90613201565b60405180910390fd5b8073ffffffffffffffffffffffffffffffffffffffff166108476116e6565b73ffffffffffffffffffffffffffffffffffffffff1614806108765750610875816108706116e6565b61133a565b5b6108b5576040517f08c379a00000000000000000000000000000000000000000000000000000000081526004016108ac90613293565b60405180910390fd5b6108bf83836116ee565b505050565b6108d56108cf6116e6565b826117a7565b610914576040517f08c379a000000000000000000000000000000000000000000000000000000000815260040161090b90613325565b60405180910390fd5b61091f83838361183c565b505050565b61093f83838360405180602001604052806000815250610e3d565b505050565b6013818051602081018201805184825260208301602085012081835280955050505050506000915054906101000a900473ffffffffffffffffffffffffffffffffffffffff1681565b60148180516020810182018051848252602083016020850120818352809550505050505060009150905080546109c290612f87565b80601f01602080910402602001604051908101604052809291908181526020018280546109ee90612f87565b8015610a3b5780601f10610a1057610100808354040283529160200191610a3b565b820191906000526020600020905b815481529060010190602001808311610a1e57829003601f168201915b505050505081565b60108054610a5090612f87565b80601f0160208091040260200160405190810160405280929190818152602001828054610a7c90612f87565b8015610ac95780601f10610a9e57610100808354040283529160200191610ac9565b820191906000526020600020905b815481529060010190602001808311610aac57829003601f168201915b505050505081565b6000806002600084815260200190815260200160002060009054906101000a900473ffffffffffffffffffffffffffffffffffffffff169050600073ffffffffffffffffffffffffffffffffffffffff168173ffffffffffffffffffffffffffffffffffffffff161415610b7a576040517f08c379a0000000000000000000000000000000000000000000000000000000008152600401610b7190613391565b60405180910390fd5b80915050919050565b60008073ffffffffffffffffffffffffffffffffffffffff168273ffffffffffffffffffffffffffffffffffffffff161415610bf4576040517f08c379a0000000000000000000000000000000000000000000000000000000008152600401610beb90613423565b60405180910390fd5b600360008373ffffffffffffffffffffffffffffffffffffffff1673ffffffffffffffffffffffffffffffffffffffff168152602001908152602001600020549050919050565b610c436115b3565b610c4d6000611aa3565b565b6000600760009054906101000a900473ffffffffffffffffffffffffffffffffffffffff16905090565b606060018054610c8890612f87565b80601f0160208091040260200160405190810160405280929190818152602001828054610cb490612f87565b8015610d015780601f10610cd657610100808354040283529160200191610d01565b820191906000526020600020905b815481529060010190602001808311610ce457829003601f168201915b5050505050905090565b60118054610d1890612f87565b80601f0160208091040260200160405190810160405280929190818152602001828054610d4490612f87565b8015610d915780601f10610d6657610100808354040283529160200191610d91565b820191906000526020600020905b815481529060010190602001808311610d7457829003601f168201915b505050505081565b610dab610da46116e6565b8383611b69565b5050565b60128054610dbc90612f87565b80601f0160208091040260200160405190810160405280929190818152602001828054610de890612f87565b8015610e355780601f10610e0a57610100808354040283529160200191610e35565b820191906000526020600020905b815481529060010190602001808311610e1857829003601f168201915b505050505081565b610e4e610e486116e6565b836117a7565b610e8d576040517f08c379a0000000000000000000000000000000000000000000000000000000008152600401610e8490613325565b60405180910390fd5b610e9984848484611cd6565b50505050565b6060610eaa8261169b565b6000600660008481526020019081526020016000208054610eca90612f87565b80601f0160208091040260200160405190810160405280929190818152602001828054610ef690612f87565b8015610f435780601f10610f1857610100808354040283529160200191610f43565b820191906000526020600020905b815481529060010190602001808311610f2657829003601f168201915b505050505090506000610f54611d32565b9050600081511415610f6a578192505050610fad565b600082511115610f9f578082604051602001610f87929190613474565b60405160208183030381529060405292505050610fad565b610fa884611dc4565b925050505b919050565b600f8054610fbf90612f87565b80601f0160208091040260200160405190810160405280929190818152602001828054610feb90612f87565b80156110385780601f1061100d57610100808354040283529160200191611038565b820191906000526020600020905b81548152906001019060200180831161101b57829003601f168201915b505050505081565b600e805461104d90612f87565b80601f016020809104026020016040519081016040528092919081815260200182805461107990612f87565b80156110c65780601f1061109b576101008083540402835291602001916110c6565b820191906000526020600020905b8154815290600101906020018083116110a957829003601f168201915b505050505081565b6000806110db6008611e2c565b905060006111198d8d8d8d8d8d8d8d8d8d6040516020016111059a99989796959493929190613660565b604051602081830303815290604052611e3a565b905060008160405160200161112e9190613743565b604051602081830303815290604052905061117d6040518060400160405280602081526020017f0a2d2d2d2d2d2d4e465420507265766965772d2d2d2d2d2d2d2d2d2d2d2d2d2d815250611fd2565b6111a58160405160200161119191906137d7565b604051602081830303815290604052611fd2565b6111e36040518060400160405280601581526020017f2d2d2d2d2d2d2d2d2d2d2d2d2d2d2d2d2d2d2d2d0a0000000000000000000000815250611fd2565b6111ed338461206b565b6111f78382612089565b3373ffffffffffffffffffffffffffffffffffffffff167f061b141191d79859f7cc6256c1b9e5f380052197831efe9135841c0ff4de7e63428560405161123f9291906137f9565b60405180910390a261125160086120fd565b8293505050509a9950505050505050505050565b61126d6115b3565b81816012919061127e929190612592565b50600960009054906101000a900473ffffffffffffffffffffffffffffffffffffffff1673ffffffffffffffffffffffffffffffffffffffff1663eaf5d04e30600c54600b86866040516020016112d79392919061386e565b6040516020818303038152906040526040518463ffffffff1660e01b815260040161130493929190613151565b600060405180830381600087803b15801561131e57600080fd5b505af1158015611332573d6000803e3d6000fd5b505050505050565b6000600560008473ffffffffffffffffffffffffffffffffffffffff1673ffffffffffffffffffffffffffffffffffffffff16815260200190815260200160002060008373ffffffffffffffffffffffffffffffffffffffff1673ffffffffffffffffffffffffffffffffffffffff16815260200190815260200160002060009054906101000a900460ff16905092915050565b6113d66115b3565b600073ffffffffffffffffffffffffffffffffffffffff168173ffffffffffffffffffffffffffffffffffffffff161415611446576040517f08c379a000000000000000000000000000000000000000000000000000000000815260040161143d90613933565b60405180910390fd5b61144f81611aa3565b50565b6060600082141561149a576040518060400160405280600181526020017f300000000000000000000000000000000000000000000000000000000000000081525090506115ae565b600082905060005b600082146114cc5780806114b590613982565b915050600a826114c591906139fa565b91506114a2565b60008167ffffffffffffffff8111156114e8576114e7612a7a565b5b6040519080825280601f01601f19166020018201604052801561151a5781602001600182028036833780820191505090505b5090505b600085146115a7576001826115339190613a2b565b9150600a856115429190613a5f565b603061154e9190613a90565b60f81b81838151811061156457611563613ae6565b5b60200101907effffffffffffffffffffffffffffffffffffffffffffffffffffffffffffff1916908160001a905350600a856115a091906139fa565b945061151e565b8093505050505b919050565b6115bb6116e6565b73ffffffffffffffffffffffffffffffffffffffff166115d9610c4f565b73ffffffffffffffffffffffffffffffffffffffff161461162f576040517f08c379a000000000000000000000000000000000000000000000000000000000815260040161162690613b61565b60405180910390fd5b565b60007f01ffc9a7000000000000000000000000000000000000000000000000000000007bffffffffffffffffffffffffffffffffffffffffffffffffffffffff1916827bffffffffffffffffffffffffffffffffffffffffffffffffffffffff1916149050919050565b6116a481612113565b6116e3576040517f08c379a00000000000000000000000000000000000000000000000000000000081526004016116da90613391565b60405180910390fd5b50565b600033905090565b816004600083815260200190815260200160002060006101000a81548173ffffffffffffffffffffffffffffffffffffffff021916908373ffffffffffffffffffffffffffffffffffffffff160217905550808273ffffffffffffffffffffffffffffffffffffffff1661176183610ad1565b73ffffffffffffffffffffffffffffffffffffffff167f8c5be1e5ebec7d5bd14f71427d1e84f3dd0314c0f7b2291e5b200ac8c7c3b92560405160405180910390a45050565b6000806117b383610ad1565b90508073ffffffffffffffffffffffffffffffffffffffff168473ffffffffffffffffffffffffffffffffffffffff1614806117f557506117f4818561133a565b5b8061183357508373ffffffffffffffffffffffffffffffffffffffff1661181b84610766565b73ffffffffffffffffffffffffffffffffffffffff16145b91505092915050565b8273ffffffffffffffffffffffffffffffffffffffff1661185c82610ad1565b73ffffffffffffffffffffffffffffffffffffffff16146118b2576040517f08c379a00000000000000000000000000000000000000000000000000000000081526004016118a990613bf3565b60405180910390fd5b600073ffffffffffffffffffffffffffffffffffffffff168273ffffffffffffffffffffffffffffffffffffffff161415611922576040517f08c379a000000000000000000000000000000000000000000000000000000000815260040161191990613c85565b60405180910390fd5b61192d83838361217f565b6119386000826116ee565b6001600360008573ffffffffffffffffffffffffffffffffffffffff1673ffffffffffffffffffffffffffffffffffffffff16815260200190815260200160002060008282546119889190613a2b565b925050819055506001600360008473ffffffffffffffffffffffffffffffffffffffff1673ffffffffffffffffffffffffffffffffffffffff16815260200190815260200160002060008282546119df9190613a90565b92505081905550816002600083815260200190815260200160002060006101000a81548173ffffffffffffffffffffffffffffffffffffffff021916908373ffffffffffffffffffffffffffffffffffffffff160217905550808273ffffffffffffffffffffffffffffffffffffffff168473ffffffffffffffffffffffffffffffffffffffff167fddf252ad1be2c89b69c2b068fc378daa952ba7f163c4a11628f55a4df523b3ef60405160405180910390a4611a9e838383612184565b505050565b6000600760009054906101000a900473ffffffffffffffffffffffffffffffffffffffff16905081600760006101000a81548173ffffffffffffffffffffffffffffffffffffffff021916908373ffffffffffffffffffffffffffffffffffffffff1602179055508173ffffffffffffffffffffffffffffffffffffffff168173ffffffffffffffffffffffffffffffffffffffff167f8be0079c531659141344cd1fd0a4f28419497f9722a3daafe3b4186f6b6457e060405160405180910390a35050565b8173ffffffffffffffffffffffffffffffffffffffff168373ffffffffffffffffffffffffffffffffffffffff161415611bd8576040517f08c379a0000000000000000000000000000000000000000000000000000000008152600401611bcf90613cf1565b60405180910390fd5b80600560008573ffffffffffffffffffffffffffffffffffffffff1673ffffffffffffffffffffffffffffffffffffffff16815260200190815260200160002060008473ffffffffffffffffffffffffffffffffffffffff1673ffffffffffffffffffffffffffffffffffffffff16815260200190815260200160002060006101000a81548160ff0219169083151502179055508173ffffffffffffffffffffffffffffffffffffffff168373ffffffffffffffffffffffffffffffffffffffff167f17307eab39ab6107e8899845ad3d59bd9653f200f220920489ca2b5937696c3183604051611cc99190612821565b60405180910390a3505050565b611ce184848461183c565b611ced84848484612189565b611d2c576040517f08c379a0000000000000000000000000000000000000000000000000000000008152600401611d2390613d83565b60405180910390fd5b50505050565b6060600a8054611d4190612f87565b80601f0160208091040260200160405190810160405280929190818152602001828054611d6d90612f87565b8015611dba5780601f10611d8f57610100808354040283529160200191611dba565b820191906000526020600020905b815481529060010190602001808311611d9d57829003601f168201915b5050505050905090565b6060611dcf8261169b565b6000611dd9611d32565b90506000815111611df95760405180602001604052806000815250611e24565b80611e0384611452565b604051602001611e14929190613474565b6040516020818303038152906040525b915050919050565b600081600001549050919050565b60606000825190506000811415611e635760405180602001604052806000815250915050611fcd565b60006003600283611e749190613a90565b611e7e91906139fa565b6004611e8a9190613da3565b90506000602082611e9b9190613a90565b67ffffffffffffffff811115611eb457611eb3612a7a565b5b6040519080825280601f01601f191660200182016040528015611ee65781602001600182028036833780820191505090505b509050600060405180606001604052806040815260200161404b604091399050600181016020830160005b86811015611f8a5760038101905062ffffff818a015116603f8160121c168401518060081b905060ff603f83600c1c1686015116810190508060081b905060ff603f8360061c1686015116810190508060081b905060ff603f831686015116810190508060e01b90508084526004840193505050611f11565b506003860660018114611fa45760028114611fb457611fbf565b613d3d60f01b6002830352611fbf565b603d60f81b60018303525b508484525050819450505050505b919050565b61206881604051602401611fe691906128d5565b6040516020818303038152906040527f41304fac000000000000000000000000000000000000000000000000000000007bffffffffffffffffffffffffffffffffffffffffffffffffffffffff19166020820180517bffffffffffffffffffffffffffffffffffffffffffffffffffffffff8381831617835250505050612311565b50565b61208582826040518060200160405280600081525061233a565b5050565b61209282612113565b6120d1576040517f08c379a00000000000000000000000000000000000000000000000000000000081526004016120c890613e6f565b60405180910390fd5b806006600084815260200190815260200160002090805190602001906120f8929190612618565b505050565b6001816000016000828254019250508190555050565b60008073ffffffffffffffffffffffffffffffffffffffff166002600084815260200190815260200160002060009054906101000a900473ffffffffffffffffffffffffffffffffffffffff1673ffffffffffffffffffffffffffffffffffffffff1614159050919050565b505050565b505050565b60006121aa8473ffffffffffffffffffffffffffffffffffffffff16612395565b15612304578373ffffffffffffffffffffffffffffffffffffffff1663150b7a026121d36116e6565b8786866040518563ffffffff1660e01b81526004016121f59493929190613ee4565b6020604051808303816000875af192505050801561223157506040513d601f19601f8201168201806040525081019061222e9190613f45565b60015b6122b4573d8060008114612261576040519150601f19603f3d011682016040523d82523d6000602084013e612266565b606091505b506000815114156122ac576040517f08c379a00000000000000000000000000000000000000000000000000000000081526004016122a390613d83565b60405180910390fd5b805181602001fd5b63150b7a0260e01b7bffffffffffffffffffffffffffffffffffffffffffffffffffffffff1916817bffffffffffffffffffffffffffffffffffffffffffffffffffffffff191614915050612309565b600190505b949350505050565b60008151905060006a636f6e736f6c652e6c6f679050602083016000808483855afa5050505050565b61234483836123b8565b6123516000848484612189565b612390576040517f08c379a000000000000000000000000000000000000000000000000000000000815260040161238790613d83565b60405180910390fd5b505050565b6000808273ffffffffffffffffffffffffffffffffffffffff163b119050919050565b600073ffffffffffffffffffffffffffffffffffffffff168273ffffffffffffffffffffffffffffffffffffffff161415612428576040517f08c379a000000000000000000000000000000000000000000000000000000000815260040161241f90613fbe565b60405180910390fd5b61243181612113565b15612471576040517f08c379a00000000000000000000000000000000000000000000000000000000081526004016124689061402a565b60405180910390fd5b61247d6000838361217f565b6001600360008473ffffffffffffffffffffffffffffffffffffffff1673ffffffffffffffffffffffffffffffffffffffff16815260200190815260200160002060008282546124cd9190613a90565b92505081905550816002600083815260200190815260200160002060006101000a81548173ffffffffffffffffffffffffffffffffffffffff021916908373ffffffffffffffffffffffffffffffffffffffff160217905550808273ffffffffffffffffffffffffffffffffffffffff16600073ffffffffffffffffffffffffffffffffffffffff167fddf252ad1be2c89b69c2b068fc378daa952ba7f163c4a11628f55a4df523b3ef60405160405180910390a461258e60008383612184565b5050565b82805461259e90612f87565b90600052602060002090601f0160209004810192826125c05760008555612607565b82601f106125d957803560ff1916838001178555612607565b82800160010185558215612607579182015b828111156126065782358255916020019190600101906125eb565b5b509050612614919061269e565b5090565b82805461262490612f87565b90600052602060002090601f016020900481019282612646576000855561268d565b82601f1061265f57805160ff191683800117855561268d565b8280016001018555821561268d579182015b8281111561268c578251825591602001919060010190612671565b5b50905061269a919061269e565b5090565b5b808211156126b757600081600090555060010161269f565b5090565b6000604051905090565b600080fd5b600080fd5b600080fd5b600080fd5b600080fd5b60008083601f8401126126f4576126f36126cf565b5b8235905067ffffffffffffffff811115612711576127106126d4565b5b60208301915083600182028301111561272d5761272c6126d9565b5b9250929050565b6000806020838503121561274b5761274a6126c5565b5b600083013567ffffffffffffffff811115612769576127686126ca565b5b612775858286016126de565b92509250509250929050565b60007fffffffff0000000000000000000000000000000000000000000000000000000082169050919050565b6127b681612781565b81146127c157600080fd5b50565b6000813590506127d3816127ad565b92915050565b6000602082840312156127ef576127ee6126c5565b5b60006127fd848285016127c4565b91505092915050565b60008115159050919050565b61281b81612806565b82525050565b60006020820190506128366000830184612812565b92915050565b600081519050919050565b600082825260208201905092915050565b60005b8381101561287657808201518184015260208101905061285b565b83811115612885576000848401525b50505050565b6000601f19601f8301169050919050565b60006128a78261283c565b6128b18185612847565b93506128c1818560208601612858565b6128ca8161288b565b840191505092915050565b600060208201905081810360008301526128ef818461289c565b905092915050565b6000819050919050565b61290a816128f7565b811461291557600080fd5b50565b60008135905061292781612901565b92915050565b600060208284031215612943576129426126c5565b5b600061295184828501612918565b91505092915050565b600073ffffffffffffffffffffffffffffffffffffffff82169050919050565b60006129858261295a565b9050919050565b6129958161297a565b82525050565b60006020820190506129b0600083018461298c565b92915050565b6129bf8161297a565b81146129ca57600080fd5b50565b6000813590506129dc816129b6565b92915050565b600080604083850312156129f9576129f86126c5565b5b6000612a07858286016129cd565b9250506020612a1885828601612918565b9150509250929050565b600080600060608486031215612a3b57612a3a6126c5565b5b6000612a49868287016129cd565b9350506020612a5a868287016129cd565b9250506040612a6b86828701612918565b9150509250925092565b600080fd5b7f4e487b7100000000000000000000000000000000000000000000000000000000600052604160045260246000fd5b612ab28261288b565b810181811067ffffffffffffffff82111715612ad157612ad0612a7a565b5b80604052505050565b6000612ae46126bb565b9050612af08282612aa9565b919050565b600067ffffffffffffffff821115612b1057612b0f612a7a565b5b612b198261288b565b9050602081019050919050565b82818337600083830152505050565b6000612b48612b4384612af5565b612ada565b905082815260208101848484011115612b6457612b63612a75565b5b612b6f848285612b26565b509392505050565b600082601f830112612b8c57612b8b6126cf565b5b8135612b9c848260208601612b35565b91505092915050565b600060208284031215612bbb57612bba6126c5565b5b600082013567ffffffffffffffff811115612bd957612bd86126ca565b5b612be584828501612b77565b91505092915050565b600060208284031215612c0457612c036126c5565b5b6000612c12848285016129cd565b91505092915050565b612c24816128f7565b82525050565b6000602082019050612c3f6000830184612c1b565b92915050565b612c4e81612806565b8114612c5957600080fd5b50565b600081359050612c6b81612c45565b92915050565b60008060408385031215612c8857612c876126c5565b5b6000612c96858286016129cd565b9250506020612ca785828601612c5c565b9150509250929050565b600067ffffffffffffffff821115612ccc57612ccb612a7a565b5b612cd58261288b565b9050602081019050919050565b6000612cf5612cf084612cb1565b612ada565b905082815260208101848484011115612d1157612d10612a75565b5b612d1c848285612b26565b509392505050565b600082601f830112612d3957612d386126cf565b5b8135612d49848260208601612ce2565b91505092915050565b60008060008060808587031215612d6c57612d6b6126c5565b5b6000612d7a878288016129cd565b9450506020612d8b878288016129cd565b9350506040612d9c87828801612918565b925050606085013567ffffffffffffffff811115612dbd57612dbc6126ca565b5b612dc987828801612d24565b91505092959194509250565b60008060008060008060008060008060a08b8d031215612df857612df76126c5565b5b60008b013567ffffffffffffffff811115612e1657612e156126ca565b5b612e228d828e016126de565b9a509a505060208b013567ffffffffffffffff811115612e4557612e446126ca565b5b612e518d828e016126de565b985098505060408b013567ffffffffffffffff811115612e7457612e736126ca565b5b612e808d828e016126de565b965096505060608b013567ffffffffffffffff811115612ea357612ea26126ca565b5b612eaf8d828e016126de565b945094505060808b013567ffffffffffffffff811115612ed257612ed16126ca565b5b612ede8d828e016126de565b92509250509295989b9194979a5092959850565b60008060408385031215612f0957612f086126c5565b5b6000612f17858286016129cd565b9250506020612f28858286016129cd565b9150509250929050565b7f7570646174652000000000000000000000000000000000000000000000000000815250565b7f4e487b7100000000000000000000000000000000000000000000000000000000600052602260045260246000fd5b60006002820490506001821680612f9f57607f821691505b60208210811415612fb357612fb2612f58565b5b50919050565b600081905092915050565b60008190508160005260206000209050919050565b60008154612fe681612f87565b612ff08186612fb9565b9450600182166000811461300b576001811461301c5761304f565b60ff1983168652818601935061304f565b61302585612fc4565b60005b8381101561304757815481890152600182019150602081019050613028565b838801955050505b50505092915050565b7f207365742065787465726e616c5f75726c203d20000000000000000000000000815250565b600061308a8385612fb9565b9350613097838584612b26565b82840190509392505050565b7f7c7c273f746f6b656e49643d277c7c6964000000000000000000000000000000815250565b7f3b00000000000000000000000000000000000000000000000000000000000000815250565b60006130fa82612f32565b60078201915061310a8286612fd9565b915061311582613058565b60148201915061312682848661307e565b9150613131826130a3565b601182019150613140826130c9565b600182019150819050949350505050565b6000606082019050613166600083018661298c565b6131736020830185612c1b565b8181036040830152613185818461289c565b9050949350505050565b7f4552433732313a20617070726f76616c20746f2063757272656e74206f776e6560008201527f7200000000000000000000000000000000000000000000000000000000000000602082015250565b60006131eb602183612847565b91506131f68261318f565b604082019050919050565b6000602082019050818103600083015261321a816131de565b9050919050565b7f4552433732313a20617070726f76652063616c6c6572206973206e6f7420746f60008201527f6b656e206f776e6572206e6f7220617070726f76656420666f7220616c6c0000602082015250565b600061327d603e83612847565b915061328882613221565b604082019050919050565b600060208201905081810360008301526132ac81613270565b9050919050565b7f4552433732313a2063616c6c6572206973206e6f7420746f6b656e206f776e6560008201527f72206e6f7220617070726f766564000000000000000000000000000000000000602082015250565b600061330f602e83612847565b915061331a826132b3565b604082019050919050565b6000602082019050818103600083015261333e81613302565b9050919050565b7f4552433732313a20696e76616c696420746f6b656e2049440000000000000000600082015250565b600061337b601883612847565b915061338682613345565b602082019050919050565b600060208201905081810360008301526133aa8161336e565b9050919050565b7f4552433732313a2061646472657373207a65726f206973206e6f74206120766160008201527f6c6964206f776e65720000000000000000000000000000000000000000000000602082015250565b600061340d602983612847565b9150613418826133b1565b604082019050919050565b6000602082019050818103600083015261343c81613400565b9050919050565b600061344e8261283c565b6134588185612fb9565b9350613468818560208601612858565b80840191505092915050565b60006134808285613443565b915061348c8284613443565b91508190509392505050565b7f7b226e616d65223a202200000000000000000000000000000000000000000000600082015250565b60006134ce600a83612fb9565b91506134d982613498565b600a82019050919050565b7f222c20226465736372697074696f6e223a202200000000000000000000000000600082015250565b600061351a601383612fb9565b9150613525826134e4565b601382019050919050565b7f222c2022696d616765223a202200000000000000000000000000000000000000600082015250565b6000613566600d83612fb9565b915061357182613530565b600d82019050919050565b7f222c202265787465726e616c5f75726c223a2022000000000000000000000000600082015250565b60006135b2601483612fb9565b91506135bd8261357c565b601482019050919050565b7f222c202261747472696275746573223a20220000000000000000000000000000600082015250565b60006135fe601283612fb9565b9150613609826135c8565b601282019050919050565b7f227d000000000000000000000000000000000000000000000000000000000000600082015250565b600061364a600283612fb9565b915061365582613614565b600282019050919050565b600061366b826134c1565b9150613678828c8e61307e565b91506136838261350d565b9150613690828a8c61307e565b915061369b82613559565b91506136a882888a61307e565b91506136b3826135a5565b91506136c082868861307e565b91506136cb826135f1565b91506136d882848661307e565b91506136e38261363d565b91508190509b9a5050505050505050505050565b7f646174613a6170706c69636174696f6e2f6a736f6e3b6261736536342c000000600082015250565b600061372d601d83612fb9565b9150613738826136f7565b601d82019050919050565b600061374e82613720565b915061375a8284613443565b915081905092915050565b7f68747470733a2f2f6e6674707265766965772e30786465762e636f6465732f3f60008201527f636f64653d000000000000000000000000000000000000000000000000000000602082015250565b60006137c1602583612fb9565b91506137cc82613765565b602582019050919050565b60006137e2826137b4565b91506137ee8284613443565b915081905092915050565b600060408201905061380e6000830185612c1b565b61381b6020830184612c1b565b9392505050565b7f5550444154452000000000000000000000000000000000000000000000000000815250565b7f207365742061747472696275746573203d200000000000000000000000000000815250565b600061387982613822565b6007820191506138898286612fd9565b915061389482613848565b6012820191506138a582848661307e565b91506138b0826130c9565b600182019150819050949350505050565b7f4f776e61626c653a206e6577206f776e657220697320746865207a65726f206160008201527f6464726573730000000000000000000000000000000000000000000000000000602082015250565b600061391d602683612847565b9150613928826138c1565b604082019050919050565b6000602082019050818103600083015261394c81613910565b9050919050565b7f4e487b7100000000000000000000000000000000000000000000000000000000600052601160045260246000fd5b600061398d826128f7565b91507fffffffffffffffffffffffffffffffffffffffffffffffffffffffffffffffff8214156139c0576139bf613953565b5b600182019050919050565b7f4e487b7100000000000000000000000000000000000000000000000000000000600052601260045260246000fd5b6000613a05826128f7565b9150613a10836128f7565b925082613a2057613a1f6139cb565b5b828204905092915050565b6000613a36826128f7565b9150613a41836128f7565b925082821015613a5457613a53613953565b5b828203905092915050565b6000613a6a826128f7565b9150613a75836128f7565b925082613a8557613a846139cb565b5b828206905092915050565b6000613a9b826128f7565b9150613aa6836128f7565b9250827fffffffffffffffffffffffffffffffffffffffffffffffffffffffffffffffff03821115613adb57613ada613953565b5b828201905092915050565b7f4e487b7100000000000000000000000000000000000000000000000000000000600052603260045260246000fd5b7f4f776e61626c653a2063616c6c6572206973206e6f7420746865206f776e6572600082015250565b6000613b4b602083612847565b9150613b5682613b15565b602082019050919050565b60006020820190508181036000830152613b7a81613b3e565b9050919050565b7f4552433732313a207472616e736665722066726f6d20696e636f72726563742060008201527f6f776e6572000000000000000000000000000000000000000000000000000000602082015250565b6000613bdd602583612847565b9150613be882613b81565b604082019050919050565b60006020820190508181036000830152613c0c81613bd0565b9050919050565b7f4552433732313a207472616e7366657220746f20746865207a65726f2061646460008201527f7265737300000000000000000000000000000000000000000000000000000000602082015250565b6000613c6f602483612847565b9150613c7a82613c13565b604082019050919050565b60006020820190508181036000830152613c9e81613c62565b9050919050565b7f4552433732313a20617070726f766520746f2063616c6c657200000000000000600082015250565b6000613cdb601983612847565b9150613ce682613ca5565b602082019050919050565b60006020820190508181036000830152613d0a81613cce565b9050919050565b7f4552433732313a207472616e7366657220746f206e6f6e20455243373231526560008201527f63656976657220696d706c656d656e7465720000000000000000000000000000602082015250565b6000613d6d603283612847565b9150613d7882613d11565b604082019050919050565b60006020820190508181036000830152613d9c81613d60565b9050919050565b6000613dae826128f7565b9150613db9836128f7565b9250817fffffffffffffffffffffffffffffffffffffffffffffffffffffffffffffffff0483118215151615613df257613df1613953565b5b828202905092915050565b7f45524337323155524953746f726167653a2055524920736574206f66206e6f6e60008201527f6578697374656e7420746f6b656e000000000000000000000000000000000000602082015250565b6000613e59602e83612847565b9150613e6482613dfd565b604082019050919050565b60006020820190508181036000830152613e8881613e4c565b9050919050565b600081519050919050565b600082825260208201905092915050565b6000613eb682613e8f565b613ec08185613e9a565b9350613ed0818560208601612858565b613ed98161288b565b840191505092915050565b6000608082019050613ef9600083018761298c565b613f06602083018661298c565b613f136040830185612c1b565b8181036060830152613f258184613eab565b905095945050505050565b600081519050613f3f816127ad565b92915050565b600060208284031215613f5b57613f5a6126c5565b5b6000613f6984828501613f30565b91505092915050565b7f4552433732313a206d696e7420746f20746865207a65726f2061646472657373600082015250565b6000613fa8602083612847565b9150613fb382613f72565b602082019050919050565b60006020820190508181036000830152613fd781613f9b565b9050919050565b7f4552433732313a20746f6b656e20616c7265616479206d696e74656400000000600082015250565b6000614014601c83612847565b915061401f82613fde565b602082019050919050565b6000602082019050818103600083015261404381614007565b905091905056fe4142434445464748494a4b4c4d4e4f505152535455565758595a6162636465666768696a6b6c6d6e6f707172737475767778797a303132333435363738392b2fa2646970667358221220e0ae7114d55f82fa1aadf7821dcff2d09850016126d79d2b2fd734b23002ff0e64736f6c634300080c003368747470733a2f2f746573746e65742e7461626c656c616e642e6e6574776f726b2f71756572793f733d",
  "linkReferences": {},
  "deployedLinkReferences": {}
}