{
  "_format": "hh-sol-artifact-1",
  "contractName": "MojoCore",
  "sourceName": "contracts/MojoCore.sol",
  "abi": [
    {
      "inputs": [
        {
          "internalType": "address",
          "name": "registry",
          "type": "address"
        }
      ],
      "stateMutability": "nonpayable",
      "type": "constructor"
    },
    {
      "anonymous": false,
      "inputs": [
        {
          "indexed": true,
          "internalType": "address",
          "name": "owner",
          "type": "address"
        },
        {
          "indexed": true,
          "internalType": "address",
          "name": "approved",
          "type": "address"
        },
        {
          "indexed": true,
          "internalType": "uint256",
          "name": "tokenId",
          "type": "uint256"
        }
      ],
      "name": "Approval",
      "type": "event"
    },
    {
      "anonymous": false,
      "inputs": [
        {
          "indexed": true,
          "internalType": "address",
          "name": "owner",
          "type": "address"
        },
        {
          "indexed": true,
          "internalType": "address",
          "name": "operator",
          "type": "address"
        },
        {
          "indexed": false,
          "internalType": "bool",
          "name": "approved",
          "type": "bool"
        }
      ],
      "name": "ApprovalForAll",
      "type": "event"
    },
    {
      "anonymous": false,
      "inputs": [
        {
          "indexed": true,
          "internalType": "address",
          "name": "from",
          "type": "address"
        },
        {
          "indexed": false,
          "internalType": "uint256",
          "name": "timestamp",
          "type": "uint256"
        },
        {
          "indexed": false,
          "internalType": "uint256",
          "name": "tokenId",
          "type": "uint256"
        }
      ],
      "name": "NewNftMinted",
      "type": "event"
    },
    {
      "anonymous": false,
      "inputs": [
        {
          "indexed": true,
          "internalType": "address",
          "name": "from",
          "type": "address"
        },
        {
          "indexed": false,
          "internalType": "uint256",
          "name": "timestamp",
          "type": "uint256"
        },
        {
          "components": [
            {
              "internalType": "uint256",
              "name": "tokenId",
              "type": "uint256"
            },
            {
              "internalType": "string",
              "name": "name",
              "type": "string"
            },
            {
              "internalType": "string",
              "name": "description",
              "type": "string"
            },
            {
              "internalType": "string",
              "name": "imageUrl",
              "type": "string"
            },
            {
              "internalType": "string",
              "name": "externalUrl",
              "type": "string"
            },
            {
              "internalType": "string",
              "name": "backgroundColor",
              "type": "string"
            },
            {
              "internalType": "string",
              "name": "attributes",
              "type": "string"
            }
          ],
          "indexed": false,
          "internalType": "struct MojoCore.NFT",
          "name": "nft",
          "type": "tuple"
        }
      ],
      "name": "NftUpdated",
      "type": "event"
    },
    {
      "anonymous": false,
      "inputs": [
        {
          "indexed": true,
          "internalType": "address",
          "name": "previousOwner",
          "type": "address"
        },
        {
          "indexed": true,
          "internalType": "address",
          "name": "newOwner",
          "type": "address"
        }
      ],
      "name": "OwnershipTransferred",
      "type": "event"
    },
    {
      "anonymous": false,
      "inputs": [
        {
          "indexed": true,
          "internalType": "address",
          "name": "from",
          "type": "address"
        },
        {
          "indexed": true,
          "internalType": "address",
          "name": "to",
          "type": "address"
        },
        {
          "indexed": true,
          "internalType": "uint256",
          "name": "tokenId",
          "type": "uint256"
        }
      ],
      "name": "Transfer",
      "type": "event"
    },
    {
      "inputs": [
        {
          "internalType": "address",
          "name": "to",
          "type": "address"
        },
        {
          "internalType": "uint256",
          "name": "tokenId",
          "type": "uint256"
        }
      ],
      "name": "approve",
      "outputs": [],
      "stateMutability": "nonpayable",
      "type": "function"
    },
    {
      "inputs": [
        {
          "internalType": "address",
          "name": "owner",
          "type": "address"
        }
      ],
      "name": "balanceOf",
      "outputs": [
        {
          "internalType": "uint256",
          "name": "",
          "type": "uint256"
        }
      ],
      "stateMutability": "view",
      "type": "function"
    },
    {
      "inputs": [],
      "name": "getAllNfts",
      "outputs": [
        {
          "components": [
            {
              "internalType": "uint256",
              "name": "tokenId",
              "type": "uint256"
            },
            {
              "internalType": "string",
              "name": "name",
              "type": "string"
            },
            {
              "internalType": "string",
              "name": "description",
              "type": "string"
            },
            {
              "internalType": "string",
              "name": "imageUrl",
              "type": "string"
            },
            {
              "internalType": "string",
              "name": "externalUrl",
              "type": "string"
            },
            {
              "internalType": "string",
              "name": "backgroundColor",
              "type": "string"
            },
            {
              "internalType": "string",
              "name": "attributes",
              "type": "string"
            }
          ],
          "internalType": "struct MojoCore.NFT[]",
          "name": "",
          "type": "tuple[]"
        }
      ],
      "stateMutability": "view",
      "type": "function"
    },
    {
      "inputs": [
        {
          "internalType": "uint256",
          "name": "tokenId",
          "type": "uint256"
        }
      ],
      "name": "getApproved",
      "outputs": [
        {
          "internalType": "address",
          "name": "",
          "type": "address"
        }
      ],
      "stateMutability": "view",
      "type": "function"
    },
    {
      "inputs": [
        {
          "internalType": "address",
          "name": "owner",
          "type": "address"
        },
        {
          "internalType": "address",
          "name": "operator",
          "type": "address"
        }
      ],
      "name": "isApprovedForAll",
      "outputs": [
        {
          "internalType": "bool",
          "name": "",
          "type": "bool"
        }
      ],
      "stateMutability": "view",
      "type": "function"
    },
    {
      "inputs": [],
      "name": "metadataAttrURI",
      "outputs": [
        {
          "internalType": "string",
          "name": "",
          "type": "string"
        }
      ],
      "stateMutability": "view",
      "type": "function"
    },
    {
      "inputs": [],
      "name": "metadataURI",
      "outputs": [
        {
          "internalType": "string",
          "name": "",
          "type": "string"
        }
      ],
      "stateMutability": "view",
      "type": "function"
    },
    {
      "inputs": [],
      "name": "name",
      "outputs": [
        {
          "internalType": "string",
          "name": "",
          "type": "string"
        }
      ],
      "stateMutability": "view",
      "type": "function"
    },
    {
      "inputs": [
        {
          "internalType": "uint256",
          "name": "",
          "type": "uint256"
        }
      ],
      "name": "nfts",
      "outputs": [
        {
          "internalType": "uint256",
          "name": "tokenId",
          "type": "uint256"
        },
        {
          "internalType": "string",
          "name": "name",
          "type": "string"
        },
        {
          "internalType": "string",
          "name": "description",
          "type": "string"
        },
        {
          "internalType": "string",
          "name": "imageUrl",
          "type": "string"
        },
        {
          "internalType": "string",
          "name": "externalUrl",
          "type": "string"
        },
        {
          "internalType": "string",
          "name": "backgroundColor",
          "type": "string"
        },
        {
          "internalType": "string",
          "name": "attributes",
          "type": "string"
        }
      ],
      "stateMutability": "view",
      "type": "function"
    },
    {
      "inputs": [],
      "name": "owner",
      "outputs": [
        {
          "internalType": "address",
          "name": "",
          "type": "address"
        }
      ],
      "stateMutability": "view",
      "type": "function"
    },
    {
      "inputs": [
        {
          "internalType": "uint256",
          "name": "tokenId",
          "type": "uint256"
        }
      ],
      "name": "ownerOf",
      "outputs": [
        {
          "internalType": "address",
          "name": "",
          "type": "address"
        }
      ],
      "stateMutability": "view",
      "type": "function"
    },
    {
      "inputs": [],
      "name": "renounceOwnership",
      "outputs": [],
      "stateMutability": "nonpayable",
      "type": "function"
    },
    {
      "inputs": [
        {
          "internalType": "address",
          "name": "to",
          "type": "address"
        },
        {
          "components": [
            {
              "internalType": "uint256",
              "name": "tokenId",
              "type": "uint256"
            },
            {
              "internalType": "string",
              "name": "name",
              "type": "string"
            },
            {
              "internalType": "string",
              "name": "description",
              "type": "string"
            },
            {
              "internalType": "string",
              "name": "imageUrl",
              "type": "string"
            },
            {
              "internalType": "string",
              "name": "externalUrl",
              "type": "string"
            },
            {
              "internalType": "string",
              "name": "backgroundColor",
              "type": "string"
            },
            {
              "internalType": "string",
              "name": "attributes",
              "type": "string"
            }
          ],
          "internalType": "struct MojoCore.NFT",
          "name": "nft",
          "type": "tuple"
        }
      ],
      "name": "safeMint",
      "outputs": [],
      "stateMutability": "nonpayable",
      "type": "function"
    },
    {
      "inputs": [
        {
          "internalType": "address",
          "name": "from",
          "type": "address"
        },
        {
          "internalType": "address",
          "name": "to",
          "type": "address"
        },
        {
          "internalType": "uint256",
          "name": "tokenId",
          "type": "uint256"
        }
      ],
      "name": "safeTransferFrom",
      "outputs": [],
      "stateMutability": "nonpayable",
      "type": "function"
    },
    {
      "inputs": [
        {
          "internalType": "address",
          "name": "from",
          "type": "address"
        },
        {
          "internalType": "address",
          "name": "to",
          "type": "address"
        },
        {
          "internalType": "uint256",
          "name": "tokenId",
          "type": "uint256"
        },
        {
          "internalType": "bytes",
          "name": "data",
          "type": "bytes"
        }
      ],
      "name": "safeTransferFrom",
      "outputs": [],
      "stateMutability": "nonpayable",
      "type": "function"
    },
    {
      "inputs": [
        {
          "internalType": "address",
          "name": "operator",
          "type": "address"
        },
        {
          "internalType": "bool",
          "name": "approved",
          "type": "bool"
        }
      ],
      "name": "setApprovalForAll",
      "outputs": [],
      "stateMutability": "nonpayable",
      "type": "function"
    },
    {
      "inputs": [
        {
          "internalType": "string",
          "name": "attributes",
          "type": "string"
        }
      ],
      "name": "setAttributes",
      "outputs": [],
      "stateMutability": "nonpayable",
      "type": "function"
    },
    {
      "inputs": [
        {
          "internalType": "bytes4",
          "name": "interfaceId",
          "type": "bytes4"
        }
      ],
      "name": "supportsInterface",
      "outputs": [
        {
          "internalType": "bool",
          "name": "",
          "type": "bool"
        }
      ],
      "stateMutability": "view",
      "type": "function"
    },
    {
      "inputs": [],
      "name": "symbol",
      "outputs": [
        {
          "internalType": "string",
          "name": "",
          "type": "string"
        }
      ],
      "stateMutability": "view",
      "type": "function"
    },
    {
      "inputs": [
        {
          "internalType": "uint256",
          "name": "tokenId",
          "type": "uint256"
        }
      ],
      "name": "tokenURI",
      "outputs": [
        {
          "internalType": "string",
          "name": "",
          "type": "string"
        }
      ],
      "stateMutability": "view",
      "type": "function"
    },
    {
      "inputs": [],
      "name": "totalNftCount",
      "outputs": [
        {
          "internalType": "uint256",
          "name": "",
          "type": "uint256"
        }
      ],
      "stateMutability": "view",
      "type": "function"
    },
    {
      "inputs": [
        {
          "internalType": "address",
          "name": "from",
          "type": "address"
        },
        {
          "internalType": "address",
          "name": "to",
          "type": "address"
        },
        {
          "internalType": "uint256",
          "name": "tokenId",
          "type": "uint256"
        }
      ],
      "name": "transferFrom",
      "outputs": [],
      "stateMutability": "nonpayable",
      "type": "function"
    },
    {
      "inputs": [
        {
          "internalType": "address",
          "name": "newOwner",
          "type": "address"
        }
      ],
      "name": "transferOwnership",
      "outputs": [],
      "stateMutability": "nonpayable",
      "type": "function"
    },
    {
      "inputs": [
        {
          "components": [
            {
              "internalType": "uint256",
              "name": "tokenId",
              "type": "uint256"
            },
            {
              "internalType": "string",
              "name": "name",
              "type": "string"
            },
            {
              "internalType": "string",
              "name": "description",
              "type": "string"
            },
            {
              "internalType": "string",
              "name": "imageUrl",
              "type": "string"
            },
            {
              "internalType": "string",
              "name": "externalUrl",
              "type": "string"
            },
            {
              "internalType": "string",
              "name": "backgroundColor",
              "type": "string"
            },
            {
              "internalType": "string",
              "name": "attributes",
              "type": "string"
            }
          ],
          "internalType": "struct MojoCore.NFT",
          "name": "nft",
          "type": "tuple"
        }
      ],
      "name": "updateNFT",
      "outputs": [],
      "stateMutability": "nonpayable",
      "type": "function"
    }
  ],
  "bytecode": "0x60806040526040518060600160405280602a815260200162005c87602a9139600a9080519060200190620000359291906200069f565b506040518060400160405280600481526020017f6d6f6a6f00000000000000000000000000000000000000000000000000000000815250600f9080519060200190620000839291906200069f565b503480156200009157600080fd5b5060405162005cb138038062005cb18339818101604052810190620000b79190620007b9565b6040518060400160405280600781526020017f4d6f6a6f4e4654000000000000000000000000000000000000000000000000008152506040518060400160405280600481526020017f6d4e46540000000000000000000000000000000000000000000000000000000081525081600090805190602001906200013b9291906200069f565b508060019080519060200190620001549291906200069f565b505050620001776200016b6200045760201b60201c565b6200045f60201b60201c565b80600960006101000a81548173ffffffffffffffffffffffffffffffffffffffff021916908373ffffffffffffffffffffffffffffffffffffffff160217905550600960009054906101000a900473ffffffffffffffffffffffffffffffffffffffff1673ffffffffffffffffffffffffffffffffffffffff16633a9151b030600f6200020f466200052560201b62001c801760201c565b6040516020016200022292919062000a81565b6040516020818303038152906040526040518363ffffffff1660e01b81526004016200025092919062000b4c565b6020604051808303816000875af115801562000270573d6000803e3d6000fd5b505050506040513d601f19601f8201168201806040525081019062000296919062000bbb565b600c81905550600f620002b4466200052560201b62001c801760201c565b620002cc600c546200052560201b62001c801760201c565b604051602001620002e09392919062000bed565b604051602081830303815290604052600b9080519060200190620003069291906200069f565b50600960009054906101000a900473ffffffffffffffffffffffffffffffffffffffff1673ffffffffffffffffffffffffffffffffffffffff16633a9151b0306200035c466200052560201b62001c801760201c565b6040516020016200036e919062000e3f565b6040516020818303038152906040526040518363ffffffff1660e01b81526004016200039c92919062000b4c565b6020604051808303816000875af1158015620003bc573d6000803e3d6000fd5b505050506040513d601f19601f82011682018060405250810190620003e2919062000bbb565b600e81905550620003fe466200052560201b62001c801760201c565b62000416600e546200052560201b62001c801760201c565b6040516020016200042992919062000ea9565b604051602081830303815290604052600d90805190602001906200044f9291906200069f565b505062001105565b600033905090565b6000600760009054906101000a900473ffffffffffffffffffffffffffffffffffffffff16905081600760006101000a81548173ffffffffffffffffffffffffffffffffffffffff021916908373ffffffffffffffffffffffffffffffffffffffff1602179055508173ffffffffffffffffffffffffffffffffffffffff168173ffffffffffffffffffffffffffffffffffffffff167f8be0079c531659141344cd1fd0a4f28419497f9722a3daafe3b4186f6b6457e060405160405180910390a35050565b606060008214156200056f576040518060400160405280600181526020017f300000000000000000000000000000000000000000000000000000000000000081525090506200069a565b600082905060005b60008214620005a75780806200058d9062000f22565b915050600a826200059f919062000f9f565b915062000577565b60008167ffffffffffffffff811115620005c657620005c562000fd7565b5b6040519080825280601f01601f191660200182016040528015620005f95781602001600182028036833780820191505090505b5090505b60008514620006935760018262000615919062001006565b9150600a8562000626919062001041565b603062000634919062001079565b60f81b8183815181106200064d576200064c620010d6565b5b60200101907effffffffffffffffffffffffffffffffffffffffffffffffffffffffffffff1916908160001a905350600a856200068b919062000f9f565b9450620005fd565b8093505050505b919050565b828054620006ad9062000840565b90600052602060002090601f016020900481019282620006d157600085556200071d565b82601f10620006ec57805160ff19168380011785556200071d565b828001600101855582156200071d579182015b828111156200071c578251825591602001919060010190620006ff565b5b5090506200072c919062000730565b5090565b5b808211156200074b57600081600090555060010162000731565b5090565b600080fd5b600073ffffffffffffffffffffffffffffffffffffffff82169050919050565b6000620007818262000754565b9050919050565b620007938162000774565b81146200079f57600080fd5b50565b600081519050620007b38162000788565b92915050565b600060208284031215620007d257620007d16200074f565b5b6000620007e284828501620007a2565b91505092915050565b7f435245415445205441424c452000000000000000000000000000000000000000815250565b7f4e487b7100000000000000000000000000000000000000000000000000000000600052602260045260246000fd5b600060028204905060018216806200085957607f821691505b6020821081141562000870576200086f62000811565b5b50919050565b600081905092915050565b60008190508160005260206000209050919050565b60008154620008a58162000840565b620008b1818662000876565b94506001821660008114620008cf5760018114620008e15762000918565b60ff1983168652818601935062000918565b620008ec8562000881565b60005b838110156200091057815481890152600182019150602081019050620008ef565b838801955050505b50505092915050565b7f5f00000000000000000000000000000000000000000000000000000000000000815250565b600081519050919050565b60005b838110156200097257808201518184015260208101905062000955565b8381111562000982576000848401525b50505050565b6000620009958262000947565b620009a1818562000876565b9350620009b381856020860162000952565b80840191505092915050565b7f2028696420696e742c206e616d6520746578742c206465736372697074696f6e60008201527f20746578742c20696d61676520746578742c2065787465726e616c5f75726c2060208201527f746578742c206261636b67726f756e645f636f6c6f7220746578742c2061747460408201527f7269627574657320746578742c205052494d415259204b45592028696429293b606082015250565b600062000a6960808362000876565b915062000a7682620009bf565b608082019050919050565b600062000a8e82620007eb565b600d8201915062000aa0828562000896565b915062000aad8262000921565b60018201915062000abf828462000988565b915062000acc8262000a5a565b91508190509392505050565b62000ae38162000774565b82525050565b600082825260208201905092915050565b6000601f19601f8301169050919050565b600062000b188262000947565b62000b24818562000ae9565b935062000b3681856020860162000952565b62000b418162000afa565b840191505092915050565b600060408201905062000b63600083018562000ad8565b818103602083015262000b77818462000b0b565b90509392505050565b6000819050919050565b62000b958162000b80565b811462000ba157600080fd5b50565b60008151905062000bb58162000b8a565b92915050565b60006020828403121562000bd45762000bd36200074f565b5b600062000be48482850162000ba4565b91505092915050565b600062000bfb828662000896565b915062000c088262000921565b60018201915062000c1a828562000988565b915062000c278262000921565b60018201915062000c39828462000988565b9150819050949350505050565b7f435245415445205441424c45206d6f6a6f5f6d6574615f61747472696275746560008201527f7300000000000000000000000000000000000000000000000000000000000000602082015250565b600062000ca460218362000876565b915062000cb18262000c46565b602182019050919050565b7f2028696420696e742c206d61785f696e766f636174696f6e7320696e742c207260008201527f6f79616c747920696e742c2073616c65735f746f74616c20696e742c2074697460208201527f6c6520746578742c2063617465676f727920746578742c206c6963656e73652060408201527f746578742c207765627369746520746578742c206c6f6e675f6465736372697060608201527f74696f6e20746578742c20707265766965775f75726c20746578742c2061756460808201527f696f5f766964656f5f7479706520746578742c20617564696f5f766964656f5f60a08201527f75726c20746578742c207265736f6c7574696f6e20746578742c20647572617460c08201527f696f6e20746578742c2073697a6520746578742c20637265617465645f61742060e08201527f746578742c205052494d415259204b45592028696429293b000000000000000061010082015250565b600062000e266101188362000876565b915062000e338262000cbc565b61011882019050919050565b600062000e4c8262000c95565b915062000e598262000921565b60018201915062000e6b828462000988565b915062000e788262000e16565b915081905092915050565b7f6d6f6a6f5f6d656469615f6d6574610000000000000000000000000000000000815250565b600062000eb68262000e83565b600f8201915062000ec8828562000988565b915062000ed58262000921565b60018201915062000ee7828462000988565b91508190509392505050565b7f4e487b7100000000000000000000000000000000000000000000000000000000600052601160045260246000fd5b600062000f2f8262000b80565b91507fffffffffffffffffffffffffffffffffffffffffffffffffffffffffffffffff82141562000f655762000f6462000ef3565b5b600182019050919050565b7f4e487b7100000000000000000000000000000000000000000000000000000000600052601260045260246000fd5b600062000fac8262000b80565b915062000fb98362000b80565b92508262000fcc5762000fcb62000f70565b5b828204905092915050565b7f4e487b7100000000000000000000000000000000000000000000000000000000600052604160045260246000fd5b6000620010138262000b80565b9150620010208362000b80565b92508282101562001036576200103562000ef3565b5b828203905092915050565b60006200104e8262000b80565b91506200105b8362000b80565b9250826200106e576200106d62000f70565b5b828206905092915050565b6000620010868262000b80565b9150620010938362000b80565b9250827fffffffffffffffffffffffffffffffffffffffffffffffffffffffffffffffff03821115620010cb57620010ca62000ef3565b5b828201905092915050565b7f4e487b7100000000000000000000000000000000000000000000000000000000600052603260045260246000fd5b614b7280620011156000396000f3fe608060405234801561001057600080fd5b50600436106101585760003560e01c806370a08231116100c3578063b88d4fde1161007c578063b88d4fde146103bb578063c87b56dd146103d7578063dac9681614610407578063e310bb3614610423578063e985e9c51461043f578063f2fde38b1461046f57610158565b806370a082311461030b578063715018a61461033b578063732e8d73146103455780638da5cb5b1461036357806395d89b4114610381578063a22cb4651461039f57610158565b8063222d818911610115578063222d81891461023157806323b872dd1461024f578063265aa6211461026b578063272ff9c0146102a157806342842e0e146102bf5780636352211e146102db57610158565b806301ffc9a71461015d57806303ee438c1461018d57806306fdde03146101ab578063081812fc146101c9578063095ea7b3146101f95780631677e26114610215575b600080fd5b61017760048036038101906101729190612b7b565b61048b565b6040516101849190612bc3565b60405180910390f35b61019561056d565b6040516101a29190612c77565b60405180910390f35b6101b36105a4565b6040516101c09190612c77565b60405180910390f35b6101e360048036038101906101de9190612ccf565b610636565b6040516101f09190612d3d565b60405180910390f35b610213600480360381019061020e9190612d84565b61067c565b005b61022f600480360381019061022a919061305f565b610794565b005b610239610acf565b6040516102469190612c77565b60405180910390f35b610269600480360381019061026491906130bb565b610b06565b005b61028560048036038101906102809190612ccf565b610b66565b604051610298979695949392919061311d565b60405180910390f35b6102a9610ee8565b6040516102b691906131b6565b60405180910390f35b6102d960048036038101906102d491906130bb565b610eee565b005b6102f560048036038101906102f09190612ccf565b610f0e565b6040516103029190612d3d565b60405180910390f35b610325600480360381019061032091906131d1565b610fc0565b60405161033291906131b6565b60405180910390f35b610343611078565b005b61034d61108c565b60405161035a91906133d8565b60405180910390f35b61036b611461565b6040516103789190612d3d565b60405180910390f35b61038961148b565b6040516103969190612c77565b60405180910390f35b6103b960048036038101906103b49190613426565b61151d565b005b6103d560048036038101906103d09190613507565b611533565b005b6103f160048036038101906103ec9190612ccf565b611595565b6040516103fe9190612c77565b60405180910390f35b610421600480360381019061041c919061358a565b611882565b005b61043d60048036038101906104389190613633565b611aa5565b005b61045960048036038101906104549190613680565b611b68565b6040516104669190612bc3565b60405180910390f35b610489600480360381019061048491906131d1565b611bfc565b005b60007f80ac58cd000000000000000000000000000000000000000000000000000000007bffffffffffffffffffffffffffffffffffffffffffffffffffffffff1916827bffffffffffffffffffffffffffffffffffffffffffffffffffffffff1916148061055657507f5b5e139f000000000000000000000000000000000000000000000000000000007bffffffffffffffffffffffffffffffffffffffffffffffffffffffff1916827bffffffffffffffffffffffffffffffffffffffffffffffffffffffff1916145b80610566575061056582611de1565b5b9050919050565b60606000610579611e4b565b905080600b60405160200161058f929190613817565b60405160208183030381529060405291505090565b6060600080546105b390613751565b80601f01602080910402602001604051908101604052809291908181526020018280546105df90613751565b801561062c5780601f106106015761010080835404028352916020019161062c565b820191906000526020600020905b81548152906001019060200180831161060f57829003601f168201915b5050505050905090565b600061064182611edd565b6004600083815260200190815260200160002060009054906101000a900473ffffffffffffffffffffffffffffffffffffffff169050919050565b600061068782610f0e565b90508073ffffffffffffffffffffffffffffffffffffffff168373ffffffffffffffffffffffffffffffffffffffff1614156106f8576040517f08c379a00000000000000000000000000000000000000000000000000000000081526004016106ef906138bc565b60405180910390fd5b8073ffffffffffffffffffffffffffffffffffffffff16610717611f28565b73ffffffffffffffffffffffffffffffffffffffff161480610746575061074581610740611f28565b611b68565b5b610785576040517f08c379a000000000000000000000000000000000000000000000000000000000815260040161077c9061394e565b60405180910390fd5b61078f8383611f30565b505050565b60006107a06008611fe9565b9050600960009054906101000a900473ffffffffffffffffffffffffffffffffffffffff1673ffffffffffffffffffffffffffffffffffffffff1663eaf5d04e30600c54600b6107ef86611c80565b8760200151886040015189606001518a608001518b60a00151600d604051602001610821989796959493929190613a78565b6040516020818303038152906040526040518463ffffffff1660e01b815260040161084e93929190613b6d565b600060405180830381600087803b15801561086857600080fd5b505af115801561087c573d6000803e3d6000fd5b5050505061089a838260405180602001604052806000815250611ff7565b6001601060008282546108ad9190613bda565b9250508190555060006040518060e00160405280838152602001846020015181526020018460400151815260200184606001518152602001846080015181526020018460a001518152602001600d805461090690613751565b80601f016020809104026020016040519081016040528092919081815260200182805461093290613751565b801561097f5780601f106109545761010080835404028352916020019161097f565b820191906000526020600020905b81548152906001019060200180831161096257829003601f168201915b5050505050815250905060118190806001815401808255809150506001900390600052602060002090600702016000909190919091506000820151816000015560208201518160010190805190602001906109db929190612a6c565b5060408201518160020190805190602001906109f8929190612a6c565b506060820151816003019080519060200190610a15929190612a6c565b506080820151816004019080519060200190610a32929190612a6c565b5060a0820151816005019080519060200190610a4f929190612a6c565b5060c0820151816006019080519060200190610a6c929190612a6c565b505050610a796008612052565b3373ffffffffffffffffffffffffffffffffffffffff167f061b141191d79859f7cc6256c1b9e5f380052197831efe9135841c0ff4de7e634284604051610ac1929190613c30565b60405180910390a250505050565b60606000610adb611e4b565b905080600d604051602001610af1929190613817565b60405160208183030381529060405291505090565b610b17610b11611f28565b82612068565b610b56576040517f08c379a0000000000000000000000000000000000000000000000000000000008152600401610b4d90613ccb565b60405180910390fd5b610b618383836120fd565b505050565b60118181548110610b7657600080fd5b9060005260206000209060070201600091509050806000015490806001018054610b9f90613751565b80601f0160208091040260200160405190810160405280929190818152602001828054610bcb90613751565b8015610c185780601f10610bed57610100808354040283529160200191610c18565b820191906000526020600020905b815481529060010190602001808311610bfb57829003601f168201915b505050505090806002018054610c2d90613751565b80601f0160208091040260200160405190810160405280929190818152602001828054610c5990613751565b8015610ca65780601f10610c7b57610100808354040283529160200191610ca6565b820191906000526020600020905b815481529060010190602001808311610c8957829003601f168201915b505050505090806003018054610cbb90613751565b80601f0160208091040260200160405190810160405280929190818152602001828054610ce790613751565b8015610d345780601f10610d0957610100808354040283529160200191610d34565b820191906000526020600020905b815481529060010190602001808311610d1757829003601f168201915b505050505090806004018054610d4990613751565b80601f0160208091040260200160405190810160405280929190818152602001828054610d7590613751565b8015610dc25780601f10610d9757610100808354040283529160200191610dc2565b820191906000526020600020905b815481529060010190602001808311610da557829003601f168201915b505050505090806005018054610dd790613751565b80601f0160208091040260200160405190810160405280929190818152602001828054610e0390613751565b8015610e505780601f10610e2557610100808354040283529160200191610e50565b820191906000526020600020905b815481529060010190602001808311610e3357829003601f168201915b505050505090806006018054610e6590613751565b80601f0160208091040260200160405190810160405280929190818152602001828054610e9190613751565b8015610ede5780601f10610eb357610100808354040283529160200191610ede565b820191906000526020600020905b815481529060010190602001808311610ec157829003601f168201915b5050505050905087565b60105481565b610f0983838360405180602001604052806000815250611533565b505050565b6000806002600084815260200190815260200160002060009054906101000a900473ffffffffffffffffffffffffffffffffffffffff169050600073ffffffffffffffffffffffffffffffffffffffff168173ffffffffffffffffffffffffffffffffffffffff161415610fb7576040517f08c379a0000000000000000000000000000000000000000000000000000000008152600401610fae90613d37565b60405180910390fd5b80915050919050565b60008073ffffffffffffffffffffffffffffffffffffffff168273ffffffffffffffffffffffffffffffffffffffff161415611031576040517f08c379a000000000000000000000000000000000000000000000000000000000815260040161102890613dc9565b60405180910390fd5b600360008373ffffffffffffffffffffffffffffffffffffffff1673ffffffffffffffffffffffffffffffffffffffff168152602001908152602001600020549050919050565b611080612364565b61108a60006123e2565b565b60606011805480602002602001604051908101604052809291908181526020016000905b8282101561145857838290600052602060002090600702016040518060e0016040529081600082015481526020016001820180546110ed90613751565b80601f016020809104026020016040519081016040528092919081815260200182805461111990613751565b80156111665780601f1061113b57610100808354040283529160200191611166565b820191906000526020600020905b81548152906001019060200180831161114957829003601f168201915b5050505050815260200160028201805461117f90613751565b80601f01602080910402602001604051908101604052809291908181526020018280546111ab90613751565b80156111f85780601f106111cd576101008083540402835291602001916111f8565b820191906000526020600020905b8154815290600101906020018083116111db57829003601f168201915b5050505050815260200160038201805461121190613751565b80601f016020809104026020016040519081016040528092919081815260200182805461123d90613751565b801561128a5780601f1061125f5761010080835404028352916020019161128a565b820191906000526020600020905b81548152906001019060200180831161126d57829003601f168201915b505050505081526020016004820180546112a390613751565b80601f01602080910402602001604051908101604052809291908181526020018280546112cf90613751565b801561131c5780601f106112f15761010080835404028352916020019161131c565b820191906000526020600020905b8154815290600101906020018083116112ff57829003601f168201915b5050505050815260200160058201805461133590613751565b80601f016020809104026020016040519081016040528092919081815260200182805461136190613751565b80156113ae5780601f10611383576101008083540402835291602001916113ae565b820191906000526020600020905b81548152906001019060200180831161139157829003601f168201915b505050505081526020016006820180546113c790613751565b80601f01602080910402602001604051908101604052809291908181526020018280546113f390613751565b80156114405780601f1061141557610100808354040283529160200191611440565b820191906000526020600020905b81548152906001019060200180831161142357829003601f168201915b505050505081525050815260200190600101906110b0565b50505050905090565b6000600760009054906101000a900473ffffffffffffffffffffffffffffffffffffffff16905090565b60606001805461149a90613751565b80601f01602080910402602001604051908101604052809291908181526020018280546114c690613751565b80156115135780601f106114e857610100808354040283529160200191611513565b820191906000526020600020905b8154815290600101906020018083116114f657829003601f168201915b5050505050905090565b61152f611528611f28565b83836124a8565b5050565b61154461153e611f28565b83612068565b611583576040517f08c379a000000000000000000000000000000000000000000000000000000000815260040161157a90613ccb565b60405180910390fd5b61158f84848484612615565b50505050565b60606115a082612671565b6115df576040517f08c379a00000000000000000000000000000000000000000000000000000000081526004016115d690613e5b565b60405180910390fd5b60006115e9611e4b565b9050600060405180602001604052806000815250905060006040518060e001604052806040518060400160405280600281526020017f696400000000000000000000000000000000000000000000000000000000000081525081526020016040518060400160405280600481526020017f6e616d650000000000000000000000000000000000000000000000000000000081525081526020016040518060400160405280600b81526020017f6465736372697074696f6e00000000000000000000000000000000000000000081525081526020016040518060400160405280600581526020017f696d61676500000000000000000000000000000000000000000000000000000081525081526020016040518060400160405280600d81526020017f65787465726e616c5f6c696e6b0000000000000000000000000000000000000081525081526020016040518060400160405280601081526020017f6261636b67726f756e645f636f6c6f720000000000000000000000000000000081525081526020016040518060400160405280600a81526020017f6174747269627574657300000000000000000000000000000000000000000000815250815250905060005b60078110156118485760008111156117e157826040516020016117cf9190613ea1565b60405160208183030381529060405292505b828282600781106117f5576117f4613ec7565b5b602002015183836007811061180d5761180c613ec7565b5b602002015160405160200161182493929190613f42565b6040516020818303038152906040529250808061184090613f91565b9150506117ac565b508282600b61185688611c80565b6040516020016118699493929190614072565b6040516020818303038152906040529350505050919050565b3373ffffffffffffffffffffffffffffffffffffffff163073ffffffffffffffffffffffffffffffffffffffff16636352211e83600001516040518263ffffffff1660e01b81526004016118d691906131b6565b602060405180830381865afa1580156118f3573d6000803e3d6000fd5b505050506040513d601f19601f820116820180604052508101906119179190614101565b73ffffffffffffffffffffffffffffffffffffffff161461196d576040517f08c379a00000000000000000000000000000000000000000000000000000000081526004016119649061417a565b60405180910390fd5b600960009054906101000a900473ffffffffffffffffffffffffffffffffffffffff1673ffffffffffffffffffffffffffffffffffffffff1663eaf5d04e30600c54600b85602001518660400151876060015188608001518960a001518a60c001516119dc8c60000151611c80565b6040516020016119f39897969594939291906142f0565b6040516020818303038152906040526040518463ffffffff1660e01b8152600401611a2093929190613b6d565b600060405180830381600087803b158015611a3a57600080fd5b505af1158015611a4e573d6000803e3d6000fd5b505050503373ffffffffffffffffffffffffffffffffffffffff167f1c81fa93757ed76c409a98dfd00a10688a47d76bc5d1e2a626835aa9485065da4283604051611a9a9291906144a8565b60405180910390a250565b611aad612364565b600960009054906101000a900473ffffffffffffffffffffffffffffffffffffffff1673ffffffffffffffffffffffffffffffffffffffff1663eaf5d04e30600c54600b8686604051602001611b0593929190614549565b6040516020818303038152906040526040518463ffffffff1660e01b8152600401611b3293929190613b6d565b600060405180830381600087803b158015611b4c57600080fd5b505af1158015611b60573d6000803e3d6000fd5b505050505050565b6000600560008473ffffffffffffffffffffffffffffffffffffffff1673ffffffffffffffffffffffffffffffffffffffff16815260200190815260200160002060008373ffffffffffffffffffffffffffffffffffffffff1673ffffffffffffffffffffffffffffffffffffffff16815260200190815260200160002060009054906101000a900460ff16905092915050565b611c04612364565b600073ffffffffffffffffffffffffffffffffffffffff168173ffffffffffffffffffffffffffffffffffffffff161415611c74576040517f08c379a0000000000000000000000000000000000000000000000000000000008152600401611c6b9061460e565b60405180910390fd5b611c7d816123e2565b50565b60606000821415611cc8576040518060400160405280600181526020017f30000000000000000000000000000000000000000000000000000000000000008152509050611ddc565b600082905060005b60008214611cfa578080611ce390613f91565b915050600a82611cf3919061465d565b9150611cd0565b60008167ffffffffffffffff811115611d1657611d15612dc9565b5b6040519080825280601f01601f191660200182016040528015611d485781602001600182028036833780820191505090505b5090505b60008514611dd557600182611d61919061468e565b9150600a85611d7091906146c2565b6030611d7c9190613bda565b60f81b818381518110611d9257611d91613ec7565b5b60200101907effffffffffffffffffffffffffffffffffffffffffffffffffffffffffffff1916908160001a905350600a85611dce919061465d565b9450611d4c565b8093505050505b919050565b60007f01ffc9a7000000000000000000000000000000000000000000000000000000007bffffffffffffffffffffffffffffffffffffffffffffffffffffffff1916827bffffffffffffffffffffffffffffffffffffffffffffffffffffffff1916149050919050565b6060600a8054611e5a90613751565b80601f0160208091040260200160405190810160405280929190818152602001828054611e8690613751565b8015611ed35780601f10611ea857610100808354040283529160200191611ed3565b820191906000526020600020905b815481529060010190602001808311611eb657829003601f168201915b5050505050905090565b611ee681612671565b611f25576040517f08c379a0000000000000000000000000000000000000000000000000000000008152600401611f1c90613d37565b60405180910390fd5b50565b600033905090565b816004600083815260200190815260200160002060006101000a81548173ffffffffffffffffffffffffffffffffffffffff021916908373ffffffffffffffffffffffffffffffffffffffff160217905550808273ffffffffffffffffffffffffffffffffffffffff16611fa383610f0e565b73ffffffffffffffffffffffffffffffffffffffff167f8c5be1e5ebec7d5bd14f71427d1e84f3dd0314c0f7b2291e5b200ac8c7c3b92560405160405180910390a45050565b600081600001549050919050565b61200183836126dd565b61200e60008484846128b7565b61204d576040517f08c379a000000000000000000000000000000000000000000000000000000000815260040161204490614765565b60405180910390fd5b505050565b6001816000016000828254019250508190555050565b60008061207483610f0e565b90508073ffffffffffffffffffffffffffffffffffffffff168473ffffffffffffffffffffffffffffffffffffffff1614806120b657506120b58185611b68565b5b806120f457508373ffffffffffffffffffffffffffffffffffffffff166120dc84610636565b73ffffffffffffffffffffffffffffffffffffffff16145b91505092915050565b8273ffffffffffffffffffffffffffffffffffffffff1661211d82610f0e565b73ffffffffffffffffffffffffffffffffffffffff1614612173576040517f08c379a000000000000000000000000000000000000000000000000000000000815260040161216a906147f7565b60405180910390fd5b600073ffffffffffffffffffffffffffffffffffffffff168273ffffffffffffffffffffffffffffffffffffffff1614156121e3576040517f08c379a00000000000000000000000000000000000000000000000000000000081526004016121da90614889565b60405180910390fd5b6121ee838383612a3f565b6121f9600082611f30565b6001600360008573ffffffffffffffffffffffffffffffffffffffff1673ffffffffffffffffffffffffffffffffffffffff1681526020019081526020016000206000828254612249919061468e565b925050819055506001600360008473ffffffffffffffffffffffffffffffffffffffff1673ffffffffffffffffffffffffffffffffffffffff16815260200190815260200160002060008282546122a09190613bda565b92505081905550816002600083815260200190815260200160002060006101000a81548173ffffffffffffffffffffffffffffffffffffffff021916908373ffffffffffffffffffffffffffffffffffffffff160217905550808273ffffffffffffffffffffffffffffffffffffffff168473ffffffffffffffffffffffffffffffffffffffff167fddf252ad1be2c89b69c2b068fc378daa952ba7f163c4a11628f55a4df523b3ef60405160405180910390a461235f838383612a44565b505050565b61236c611f28565b73ffffffffffffffffffffffffffffffffffffffff1661238a611461565b73ffffffffffffffffffffffffffffffffffffffff16146123e0576040517f08c379a00000000000000000000000000000000000000000000000000000000081526004016123d7906148f5565b60405180910390fd5b565b6000600760009054906101000a900473ffffffffffffffffffffffffffffffffffffffff16905081600760006101000a81548173ffffffffffffffffffffffffffffffffffffffff021916908373ffffffffffffffffffffffffffffffffffffffff1602179055508173ffffffffffffffffffffffffffffffffffffffff168173ffffffffffffffffffffffffffffffffffffffff167f8be0079c531659141344cd1fd0a4f28419497f9722a3daafe3b4186f6b6457e060405160405180910390a35050565b8173ffffffffffffffffffffffffffffffffffffffff168373ffffffffffffffffffffffffffffffffffffffff161415612517576040517f08c379a000000000000000000000000000000000000000000000000000000000815260040161250e90614961565b60405180910390fd5b80600560008573ffffffffffffffffffffffffffffffffffffffff1673ffffffffffffffffffffffffffffffffffffffff16815260200190815260200160002060008473ffffffffffffffffffffffffffffffffffffffff1673ffffffffffffffffffffffffffffffffffffffff16815260200190815260200160002060006101000a81548160ff0219169083151502179055508173ffffffffffffffffffffffffffffffffffffffff168373ffffffffffffffffffffffffffffffffffffffff167f17307eab39ab6107e8899845ad3d59bd9653f200f220920489ca2b5937696c31836040516126089190612bc3565b60405180910390a3505050565b6126208484846120fd565b61262c848484846128b7565b61266b576040517f08c379a000000000000000000000000000000000000000000000000000000000815260040161266290614765565b60405180910390fd5b50505050565b60008073ffffffffffffffffffffffffffffffffffffffff166002600084815260200190815260200160002060009054906101000a900473ffffffffffffffffffffffffffffffffffffffff1673ffffffffffffffffffffffffffffffffffffffff1614159050919050565b600073ffffffffffffffffffffffffffffffffffffffff168273ffffffffffffffffffffffffffffffffffffffff16141561274d576040517f08c379a0000000000000000000000000000000000000000000000000000000008152600401612744906149cd565b60405180910390fd5b61275681612671565b15612796576040517f08c379a000000000000000000000000000000000000000000000000000000000815260040161278d90614a39565b60405180910390fd5b6127a260008383612a3f565b6001600360008473ffffffffffffffffffffffffffffffffffffffff1673ffffffffffffffffffffffffffffffffffffffff16815260200190815260200160002060008282546127f29190613bda565b92505081905550816002600083815260200190815260200160002060006101000a81548173ffffffffffffffffffffffffffffffffffffffff021916908373ffffffffffffffffffffffffffffffffffffffff160217905550808273ffffffffffffffffffffffffffffffffffffffff16600073ffffffffffffffffffffffffffffffffffffffff167fddf252ad1be2c89b69c2b068fc378daa952ba7f163c4a11628f55a4df523b3ef60405160405180910390a46128b360008383612a44565b5050565b60006128d88473ffffffffffffffffffffffffffffffffffffffff16612a49565b15612a32578373ffffffffffffffffffffffffffffffffffffffff1663150b7a02612901611f28565b8786866040518563ffffffff1660e01b81526004016129239493929190614aae565b6020604051808303816000875af192505050801561295f57506040513d601f19601f8201168201806040525081019061295c9190614b0f565b60015b6129e2573d806000811461298f576040519150601f19603f3d011682016040523d82523d6000602084013e612994565b606091505b506000815114156129da576040517f08c379a00000000000000000000000000000000000000000000000000000000081526004016129d190614765565b60405180910390fd5b805181602001fd5b63150b7a0260e01b7bffffffffffffffffffffffffffffffffffffffffffffffffffffffff1916817bffffffffffffffffffffffffffffffffffffffffffffffffffffffff191614915050612a37565b600190505b949350505050565b505050565b505050565b6000808273ffffffffffffffffffffffffffffffffffffffff163b119050919050565b828054612a7890613751565b90600052602060002090601f016020900481019282612a9a5760008555612ae1565b82601f10612ab357805160ff1916838001178555612ae1565b82800160010185558215612ae1579182015b82811115612ae0578251825591602001919060010190612ac5565b5b509050612aee9190612af2565b5090565b5b80821115612b0b576000816000905550600101612af3565b5090565b6000604051905090565b600080fd5b600080fd5b60007fffffffff0000000000000000000000000000000000000000000000000000000082169050919050565b612b5881612b23565b8114612b6357600080fd5b50565b600081359050612b7581612b4f565b92915050565b600060208284031215612b9157612b90612b19565b5b6000612b9f84828501612b66565b91505092915050565b60008115159050919050565b612bbd81612ba8565b82525050565b6000602082019050612bd86000830184612bb4565b92915050565b600081519050919050565b600082825260208201905092915050565b60005b83811015612c18578082015181840152602081019050612bfd565b83811115612c27576000848401525b50505050565b6000601f19601f8301169050919050565b6000612c4982612bde565b612c538185612be9565b9350612c63818560208601612bfa565b612c6c81612c2d565b840191505092915050565b60006020820190508181036000830152612c918184612c3e565b905092915050565b6000819050919050565b612cac81612c99565b8114612cb757600080fd5b50565b600081359050612cc981612ca3565b92915050565b600060208284031215612ce557612ce4612b19565b5b6000612cf384828501612cba565b91505092915050565b600073ffffffffffffffffffffffffffffffffffffffff82169050919050565b6000612d2782612cfc565b9050919050565b612d3781612d1c565b82525050565b6000602082019050612d526000830184612d2e565b92915050565b612d6181612d1c565b8114612d6c57600080fd5b50565b600081359050612d7e81612d58565b92915050565b60008060408385031215612d9b57612d9a612b19565b5b6000612da985828601612d6f565b9250506020612dba85828601612cba565b9150509250929050565b600080fd5b7f4e487b7100000000000000000000000000000000000000000000000000000000600052604160045260246000fd5b612e0182612c2d565b810181811067ffffffffffffffff82111715612e2057612e1f612dc9565b5b80604052505050565b6000612e33612b0f565b9050612e3f8282612df8565b919050565b600080fd5b600080fd5b600080fd5b600067ffffffffffffffff821115612e6e57612e6d612dc9565b5b612e7782612c2d565b9050602081019050919050565b82818337600083830152505050565b6000612ea6612ea184612e53565b612e29565b905082815260208101848484011115612ec257612ec1612e4e565b5b612ecd848285612e84565b509392505050565b600082601f830112612eea57612ee9612e49565b5b8135612efa848260208601612e93565b91505092915050565b600060e08284031215612f1957612f18612dc4565b5b612f2360e0612e29565b90506000612f3384828501612cba565b600083015250602082013567ffffffffffffffff811115612f5757612f56612e44565b5b612f6384828501612ed5565b602083015250604082013567ffffffffffffffff811115612f8757612f86612e44565b5b612f9384828501612ed5565b604083015250606082013567ffffffffffffffff811115612fb757612fb6612e44565b5b612fc384828501612ed5565b606083015250608082013567ffffffffffffffff811115612fe757612fe6612e44565b5b612ff384828501612ed5565b60808301525060a082013567ffffffffffffffff81111561301757613016612e44565b5b61302384828501612ed5565b60a08301525060c082013567ffffffffffffffff81111561304757613046612e44565b5b61305384828501612ed5565b60c08301525092915050565b6000806040838503121561307657613075612b19565b5b600061308485828601612d6f565b925050602083013567ffffffffffffffff8111156130a5576130a4612b1e565b5b6130b185828601612f03565b9150509250929050565b6000806000606084860312156130d4576130d3612b19565b5b60006130e286828701612d6f565b93505060206130f386828701612d6f565b925050604061310486828701612cba565b9150509250925092565b61311781612c99565b82525050565b600060e082019050613132600083018a61310e565b81810360208301526131448189612c3e565b905081810360408301526131588188612c3e565b9050818103606083015261316c8187612c3e565b905081810360808301526131808186612c3e565b905081810360a08301526131948185612c3e565b905081810360c08301526131a88184612c3e565b905098975050505050505050565b60006020820190506131cb600083018461310e565b92915050565b6000602082840312156131e7576131e6612b19565b5b60006131f584828501612d6f565b91505092915050565b600081519050919050565b600082825260208201905092915050565b6000819050602082019050919050565b61323381612c99565b82525050565b600082825260208201905092915050565b600061325582612bde565b61325f8185613239565b935061326f818560208601612bfa565b61327881612c2d565b840191505092915050565b600060e08301600083015161329b600086018261322a565b50602083015184820360208601526132b3828261324a565b915050604083015184820360408601526132cd828261324a565b915050606083015184820360608601526132e7828261324a565b91505060808301518482036080860152613301828261324a565b91505060a083015184820360a086015261331b828261324a565b91505060c083015184820360c0860152613335828261324a565b9150508091505092915050565b600061334e8383613283565b905092915050565b6000602082019050919050565b600061336e826131fe565b6133788185613209565b93508360208202850161338a8561321a565b8060005b858110156133c657848403895281516133a78582613342565b94506133b283613356565b925060208a0199505060018101905061338e565b50829750879550505050505092915050565b600060208201905081810360008301526133f28184613363565b905092915050565b61340381612ba8565b811461340e57600080fd5b50565b600081359050613420816133fa565b92915050565b6000806040838503121561343d5761343c612b19565b5b600061344b85828601612d6f565b925050602061345c85828601613411565b9150509250929050565b600067ffffffffffffffff82111561348157613480612dc9565b5b61348a82612c2d565b9050602081019050919050565b60006134aa6134a584613466565b612e29565b9050828152602081018484840111156134c6576134c5612e4e565b5b6134d1848285612e84565b509392505050565b600082601f8301126134ee576134ed612e49565b5b81356134fe848260208601613497565b91505092915050565b6000806000806080858703121561352157613520612b19565b5b600061352f87828801612d6f565b945050602061354087828801612d6f565b935050604061355187828801612cba565b925050606085013567ffffffffffffffff81111561357257613571612b1e565b5b61357e878288016134d9565b91505092959194509250565b6000602082840312156135a05761359f612b19565b5b600082013567ffffffffffffffff8111156135be576135bd612b1e565b5b6135ca84828501612f03565b91505092915050565b600080fd5b600080fd5b60008083601f8401126135f3576135f2612e49565b5b8235905067ffffffffffffffff8111156136105761360f6135d3565b5b60208301915083600182028301111561362c5761362b6135d8565b5b9250929050565b6000806020838503121561364a57613649612b19565b5b600083013567ffffffffffffffff81111561366857613667612b1e565b5b613674858286016135dd565b92509250509250929050565b6000806040838503121561369757613696612b19565b5b60006136a585828601612d6f565b92505060206136b685828601612d6f565b9150509250929050565b600081905092915050565b60006136d682612bde565b6136e081856136c0565b93506136f0818560208601612bfa565b80840191505092915050565b7f53454c4543542532302a25323046524f4d253230000000000000000000000000815250565b7f4e487b7100000000000000000000000000000000000000000000000000000000600052602260045260246000fd5b6000600282049050600182168061376957607f821691505b6020821081141561377d5761377c613722565b5b50919050565b60008190508160005260206000209050919050565b600081546137a581613751565b6137af81866136c0565b945060018216600081146137ca57600181146137db5761380e565b60ff1983168652818601935061380e565b6137e485613783565b60005b83811015613806578154818901526001820191506020810190506137e7565b838801955050505b50505092915050565b600061382382856136cb565b915061382e826136fc565b60148201915061383e8284613798565b91508190509392505050565b7f4552433732313a20617070726f76616c20746f2063757272656e74206f776e6560008201527f7200000000000000000000000000000000000000000000000000000000000000602082015250565b60006138a6602183612be9565b91506138b18261384a565b604082019050919050565b600060208201905081810360008301526138d581613899565b9050919050565b7f4552433732313a20617070726f76652063616c6c6572206973206e6f7420746f60008201527f6b656e206f776e6572206e6f7220617070726f76656420666f7220616c6c0000602082015250565b6000613938603e83612be9565b9150613943826138dc565b604082019050919050565b600060208201905081810360008301526139678161392b565b9050919050565b7f494e5345525420494e544f200000000000000000000000000000000000000000815250565b7f202869642c206e616d652c206465736372697074696f6e2c20696d6167652c2060008201527f65787465726e616c5f75726c2c206261636b67726f756e645f636f6c6f722c2060208201527f61747472696275746573292056414c5545532028000000000000000000000000604082015250565b6000613a166054836136c0565b9150613a2182613994565b605482019050919050565b7f2c20000000000000000000000000000000000000000000000000000000000000815250565b7f2c20290000000000000000000000000000000000000000000000000000000000815250565b6000613a838261396e565b600c82019150613a93828b613798565b9150613a9e82613a09565b9150613aaa828a6136cb565b9150613ab582613a2c565b600282019150613ac582896136cb565b9150613ad082613a2c565b600282019150613ae082886136cb565b9150613aeb82613a2c565b600282019150613afb82876136cb565b9150613b0682613a2c565b600282019150613b1682866136cb565b9150613b2182613a2c565b600282019150613b3182856136cb565b9150613b3c82613a2c565b600282019150613b4c8284613798565b9150613b5782613a52565b6003820191508190509998505050505050505050565b6000606082019050613b826000830186612d2e565b613b8f602083018561310e565b8181036040830152613ba18184612c3e565b9050949350505050565b7f4e487b7100000000000000000000000000000000000000000000000000000000600052601160045260246000fd5b6000613be582612c99565b9150613bf083612c99565b9250827fffffffffffffffffffffffffffffffffffffffffffffffffffffffffffffffff03821115613c2557613c24613bab565b5b828201905092915050565b6000604082019050613c45600083018561310e565b613c52602083018461310e565b9392505050565b7f4552433732313a2063616c6c6572206973206e6f7420746f6b656e206f776e6560008201527f72206e6f7220617070726f766564000000000000000000000000000000000000602082015250565b6000613cb5602e83612be9565b9150613cc082613c59565b604082019050919050565b60006020820190508181036000830152613ce481613ca8565b9050919050565b7f4552433732313a20696e76616c696420746f6b656e2049440000000000000000600082015250565b6000613d21601883612be9565b9150613d2c82613ceb565b602082019050919050565b60006020820190508181036000830152613d5081613d14565b9050919050565b7f4552433732313a2061646472657373207a65726f206973206e6f74206120766160008201527f6c6964206f776e65720000000000000000000000000000000000000000000000602082015250565b6000613db3602983612be9565b9150613dbe82613d57565b604082019050919050565b60006020820190508181036000830152613de281613da6565b9050919050565b7f45524337323155524953746f726167653a2055524920717565727920666f722060008201527f6e6f6e6578697374656e7420746f6b656e000000000000000000000000000000602082015250565b6000613e45603183612be9565b9150613e5082613de9565b604082019050919050565b60006020820190508181036000830152613e7481613e38565b9050919050565b7f2c00000000000000000000000000000000000000000000000000000000000000815250565b6000613ead82846136cb565b9150613eb882613e7b565b60018201915081905092915050565b7f4e487b7100000000000000000000000000000000000000000000000000000000600052603260045260246000fd5b7f2700000000000000000000000000000000000000000000000000000000000000815250565b7f272c000000000000000000000000000000000000000000000000000000000000815250565b6000613f4e82866136cb565b9150613f5982613ef6565b600182019150613f6982856136cb565b9150613f7482613f1c565b600282019150613f8482846136cb565b9150819050949350505050565b6000613f9c82612c99565b91507fffffffffffffffffffffffffffffffffffffffffffffffffffffffffffffffff821415613fcf57613fce613bab565b5b600182019050919050565b7f53454c4543542532300000000000000000000000000000000000000000000000815250565b7f25323046524f4d25323000000000000000000000000000000000000000000000815250565b7f2532305748455245253230696425334400000000000000000000000000000000815250565b7f266d6f64653d6c69737400000000000000000000000000000000000000000000815250565b600061407e82876136cb565b915061408982613fda565b60098201915061409982866136cb565b91506140a482614000565b600a820191506140b48285613798565b91506140bf82614026565b6010820191506140cf82846136cb565b91506140da8261404c565b600a8201915081905095945050505050565b6000815190506140fb81612d58565b92915050565b60006020828403121561411757614116612b19565b5b6000614125848285016140ec565b91505092915050565b7f496e76616c6964206f776e657200000000000000000000000000000000000000600082015250565b6000614164600d83612be9565b915061416f8261412e565b602082019050919050565b6000602082019050818103600083015261419381614157565b9050919050565b7f5550444154452000000000000000000000000000000000000000000000000000815250565b7f20534554206e616d65203d200000000000000000000000000000000000000000815250565b7f2c206465736372697074696f6e203d2000000000000000000000000000000000815250565b7f2c20696d616765203d2000000000000000000000000000000000000000000000815250565b7f2c2065787465726e616c5f75726c203d20000000000000000000000000000000815250565b7f2c206261636b67726f756e645f636f6c6f72203d200000000000000000000000815250565b7f2c2061747472696275746573203d200000000000000000000000000000000000815250565b7f205748455245206964203d200000000000000000000000000000000000000000815250565b7f3b00000000000000000000000000000000000000000000000000000000000000815250565b60006142fb8261419a565b60078201915061430b828b613798565b9150614316826141c0565b600c82019150614326828a6136cb565b9150614331826141e6565b60108201915061434182896136cb565b915061434c8261420c565b600a8201915061435c82886136cb565b915061436782614232565b60118201915061437782876136cb565b915061438282614258565b60158201915061439282866136cb565b915061439d8261427e565b600f820191506143ad82856136cb565b91506143b8826142a4565b600c820191506143c882846136cb565b91506143d3826142ca565b6001820191508190509998505050505050505050565b600060e083016000830151614401600086018261322a565b5060208301518482036020860152614419828261324a565b91505060408301518482036040860152614433828261324a565b9150506060830151848203606086015261444d828261324a565b91505060808301518482036080860152614467828261324a565b91505060a083015184820360a0860152614481828261324a565b91505060c083015184820360c086015261449b828261324a565b9150508091505092915050565b60006040820190506144bd600083018561310e565b81810360208301526144cf81846143e9565b90509392505050565b7f7570646174652000000000000000000000000000000000000000000000000000815250565b7f207365742061747472696275746573203d200000000000000000000000000000815250565b600061453083856136c0565b935061453d838584612e84565b82840190509392505050565b6000614554826144d8565b6007820191506145648286613798565b915061456f826144fe565b601282019150614580828486614524565b915061458b826142ca565b600182019150819050949350505050565b7f4f776e61626c653a206e6577206f776e657220697320746865207a65726f206160008201527f6464726573730000000000000000000000000000000000000000000000000000602082015250565b60006145f8602683612be9565b91506146038261459c565b604082019050919050565b60006020820190508181036000830152614627816145eb565b9050919050565b7f4e487b7100000000000000000000000000000000000000000000000000000000600052601260045260246000fd5b600061466882612c99565b915061467383612c99565b9250826146835761468261462e565b5b828204905092915050565b600061469982612c99565b91506146a483612c99565b9250828210156146b7576146b6613bab565b5b828203905092915050565b60006146cd82612c99565b91506146d883612c99565b9250826146e8576146e761462e565b5b828206905092915050565b7f4552433732313a207472616e7366657220746f206e6f6e20455243373231526560008201527f63656976657220696d706c656d656e7465720000000000000000000000000000602082015250565b600061474f603283612be9565b915061475a826146f3565b604082019050919050565b6000602082019050818103600083015261477e81614742565b9050919050565b7f4552433732313a207472616e736665722066726f6d20696e636f72726563742060008201527f6f776e6572000000000000000000000000000000000000000000000000000000602082015250565b60006147e1602583612be9565b91506147ec82614785565b604082019050919050565b60006020820190508181036000830152614810816147d4565b9050919050565b7f4552433732313a207472616e7366657220746f20746865207a65726f2061646460008201527f7265737300000000000000000000000000000000000000000000000000000000602082015250565b6000614873602483612be9565b915061487e82614817565b604082019050919050565b600060208201905081810360008301526148a281614866565b9050919050565b7f4f776e61626c653a2063616c6c6572206973206e6f7420746865206f776e6572600082015250565b60006148df602083612be9565b91506148ea826148a9565b602082019050919050565b6000602082019050818103600083015261490e816148d2565b9050919050565b7f4552433732313a20617070726f766520746f2063616c6c657200000000000000600082015250565b600061494b601983612be9565b915061495682614915565b602082019050919050565b6000602082019050818103600083015261497a8161493e565b9050919050565b7f4552433732313a206d696e7420746f20746865207a65726f2061646472657373600082015250565b60006149b7602083612be9565b91506149c282614981565b602082019050919050565b600060208201905081810360008301526149e6816149aa565b9050919050565b7f4552433732313a20746f6b656e20616c7265616479206d696e74656400000000600082015250565b6000614a23601c83612be9565b9150614a2e826149ed565b602082019050919050565b60006020820190508181036000830152614a5281614a16565b9050919050565b600081519050919050565b600082825260208201905092915050565b6000614a8082614a59565b614a8a8185614a64565b9350614a9a818560208601612bfa565b614aa381612c2d565b840191505092915050565b6000608082019050614ac36000830187612d2e565b614ad06020830186612d2e565b614add604083018561310e565b8181036060830152614aef8184614a75565b905095945050505050565b600081519050614b0981612b4f565b92915050565b600060208284031215614b2557614b24612b19565b5b6000614b3384828501614afa565b9150509291505056fea264697066735822122028b4c468d42e7ed30ee62659d87157bc12f901bbb005a72f670389c3916de0d864736f6c634300080c003368747470733a2f2f746573746e65742e7461626c656c616e642e6e6574776f726b2f71756572793f733d",
  "linkReferences": {},
  "deployedLinkReferences": {}
}