{
  "_format": "hh-sol-artifact-1",
  "contractName": "MojoCore",
  "sourceName": "contracts/MojoCore.sol",
  "abi": [
    {
      "inputs": [
        {
          "internalType": "address",
          "name": "registry",
          "type": "address"
        }
      ],
      "stateMutability": "nonpayable",
      "type": "constructor"
    },
    {
      "anonymous": false,
      "inputs": [
        {
          "indexed": true,
          "internalType": "address",
          "name": "owner",
          "type": "address"
        },
        {
          "indexed": true,
          "internalType": "address",
          "name": "approved",
          "type": "address"
        },
        {
          "indexed": true,
          "internalType": "uint256",
          "name": "tokenId",
          "type": "uint256"
        }
      ],
      "name": "Approval",
      "type": "event"
    },
    {
      "anonymous": false,
      "inputs": [
        {
          "indexed": true,
          "internalType": "address",
          "name": "owner",
          "type": "address"
        },
        {
          "indexed": true,
          "internalType": "address",
          "name": "operator",
          "type": "address"
        },
        {
          "indexed": false,
          "internalType": "bool",
          "name": "approved",
          "type": "bool"
        }
      ],
      "name": "ApprovalForAll",
      "type": "event"
    },
    {
      "anonymous": false,
      "inputs": [
        {
          "indexed": true,
          "internalType": "address",
          "name": "from",
          "type": "address"
        },
        {
          "indexed": false,
          "internalType": "uint256",
          "name": "timestamp",
          "type": "uint256"
        },
        {
          "indexed": false,
          "internalType": "uint256",
          "name": "tokenId",
          "type": "uint256"
        }
      ],
      "name": "NewNftMinted",
      "type": "event"
    },
    {
      "anonymous": false,
      "inputs": [
        {
          "indexed": true,
          "internalType": "address",
          "name": "from",
          "type": "address"
        },
        {
          "indexed": false,
          "internalType": "uint256",
          "name": "timestamp",
          "type": "uint256"
        },
        {
          "components": [
            {
              "internalType": "uint256",
              "name": "tokenId",
              "type": "uint256"
            },
            {
              "internalType": "string",
              "name": "name",
              "type": "string"
            },
            {
              "internalType": "string",
              "name": "description",
              "type": "string"
            },
            {
              "internalType": "string",
              "name": "imageUrl",
              "type": "string"
            },
            {
              "internalType": "string",
              "name": "externalUrl",
              "type": "string"
            }
          ],
          "indexed": false,
          "internalType": "struct MojoCore.NFT",
          "name": "nft",
          "type": "tuple"
        }
      ],
      "name": "NftUpdated",
      "type": "event"
    },
    {
      "anonymous": false,
      "inputs": [
        {
          "indexed": true,
          "internalType": "address",
          "name": "previousOwner",
          "type": "address"
        },
        {
          "indexed": true,
          "internalType": "address",
          "name": "newOwner",
          "type": "address"
        }
      ],
      "name": "OwnershipTransferred",
      "type": "event"
    },
    {
      "anonymous": false,
      "inputs": [
        {
          "indexed": true,
          "internalType": "address",
          "name": "from",
          "type": "address"
        },
        {
          "indexed": true,
          "internalType": "address",
          "name": "to",
          "type": "address"
        },
        {
          "indexed": true,
          "internalType": "uint256",
          "name": "tokenId",
          "type": "uint256"
        }
      ],
      "name": "Transfer",
      "type": "event"
    },
    {
      "inputs": [
        {
          "internalType": "address",
          "name": "to",
          "type": "address"
        },
        {
          "internalType": "uint256",
          "name": "tokenId",
          "type": "uint256"
        }
      ],
      "name": "approve",
      "outputs": [],
      "stateMutability": "nonpayable",
      "type": "function"
    },
    {
      "inputs": [
        {
          "internalType": "address",
          "name": "owner",
          "type": "address"
        }
      ],
      "name": "balanceOf",
      "outputs": [
        {
          "internalType": "uint256",
          "name": "",
          "type": "uint256"
        }
      ],
      "stateMutability": "view",
      "type": "function"
    },
    {
      "inputs": [
        {
          "internalType": "uint256",
          "name": "tokenId",
          "type": "uint256"
        }
      ],
      "name": "getApproved",
      "outputs": [
        {
          "internalType": "address",
          "name": "",
          "type": "address"
        }
      ],
      "stateMutability": "view",
      "type": "function"
    },
    {
      "inputs": [
        {
          "internalType": "address",
          "name": "owner",
          "type": "address"
        },
        {
          "internalType": "address",
          "name": "operator",
          "type": "address"
        }
      ],
      "name": "isApprovedForAll",
      "outputs": [
        {
          "internalType": "bool",
          "name": "",
          "type": "bool"
        }
      ],
      "stateMutability": "view",
      "type": "function"
    },
    {
      "inputs": [],
      "name": "metadataURI",
      "outputs": [
        {
          "internalType": "string",
          "name": "",
          "type": "string"
        }
      ],
      "stateMutability": "view",
      "type": "function"
    },
    {
      "inputs": [],
      "name": "name",
      "outputs": [
        {
          "internalType": "string",
          "name": "",
          "type": "string"
        }
      ],
      "stateMutability": "view",
      "type": "function"
    },
    {
      "inputs": [],
      "name": "owner",
      "outputs": [
        {
          "internalType": "address",
          "name": "",
          "type": "address"
        }
      ],
      "stateMutability": "view",
      "type": "function"
    },
    {
      "inputs": [
        {
          "internalType": "uint256",
          "name": "tokenId",
          "type": "uint256"
        }
      ],
      "name": "ownerOf",
      "outputs": [
        {
          "internalType": "address",
          "name": "",
          "type": "address"
        }
      ],
      "stateMutability": "view",
      "type": "function"
    },
    {
      "inputs": [],
      "name": "renounceOwnership",
      "outputs": [],
      "stateMutability": "nonpayable",
      "type": "function"
    },
    {
      "inputs": [
        {
          "internalType": "address",
          "name": "to",
          "type": "address"
        },
        {
          "components": [
            {
              "internalType": "uint256",
              "name": "tokenId",
              "type": "uint256"
            },
            {
              "internalType": "string",
              "name": "name",
              "type": "string"
            },
            {
              "internalType": "string",
              "name": "description",
              "type": "string"
            },
            {
              "internalType": "string",
              "name": "imageUrl",
              "type": "string"
            },
            {
              "internalType": "string",
              "name": "externalUrl",
              "type": "string"
            }
          ],
          "internalType": "struct MojoCore.NFT",
          "name": "nft",
          "type": "tuple"
        }
      ],
      "name": "safeMint",
      "outputs": [
        {
          "internalType": "uint256",
          "name": "",
          "type": "uint256"
        }
      ],
      "stateMutability": "nonpayable",
      "type": "function"
    },
    {
      "inputs": [
        {
          "internalType": "address",
          "name": "from",
          "type": "address"
        },
        {
          "internalType": "address",
          "name": "to",
          "type": "address"
        },
        {
          "internalType": "uint256",
          "name": "tokenId",
          "type": "uint256"
        }
      ],
      "name": "safeTransferFrom",
      "outputs": [],
      "stateMutability": "nonpayable",
      "type": "function"
    },
    {
      "inputs": [
        {
          "internalType": "address",
          "name": "from",
          "type": "address"
        },
        {
          "internalType": "address",
          "name": "to",
          "type": "address"
        },
        {
          "internalType": "uint256",
          "name": "tokenId",
          "type": "uint256"
        },
        {
          "internalType": "bytes",
          "name": "data",
          "type": "bytes"
        }
      ],
      "name": "safeTransferFrom",
      "outputs": [],
      "stateMutability": "nonpayable",
      "type": "function"
    },
    {
      "inputs": [
        {
          "internalType": "address",
          "name": "operator",
          "type": "address"
        },
        {
          "internalType": "bool",
          "name": "approved",
          "type": "bool"
        }
      ],
      "name": "setApprovalForAll",
      "outputs": [],
      "stateMutability": "nonpayable",
      "type": "function"
    },
    {
      "inputs": [
        {
          "internalType": "string",
          "name": "baseURI",
          "type": "string"
        }
      ],
      "name": "setBaseURI",
      "outputs": [],
      "stateMutability": "nonpayable",
      "type": "function"
    },
    {
      "inputs": [
        {
          "internalType": "bytes4",
          "name": "interfaceId",
          "type": "bytes4"
        }
      ],
      "name": "supportsInterface",
      "outputs": [
        {
          "internalType": "bool",
          "name": "",
          "type": "bool"
        }
      ],
      "stateMutability": "view",
      "type": "function"
    },
    {
      "inputs": [],
      "name": "symbol",
      "outputs": [
        {
          "internalType": "string",
          "name": "",
          "type": "string"
        }
      ],
      "stateMutability": "view",
      "type": "function"
    },
    {
      "inputs": [
        {
          "internalType": "uint256",
          "name": "tokenId",
          "type": "uint256"
        }
      ],
      "name": "tokenURI",
      "outputs": [
        {
          "internalType": "string",
          "name": "",
          "type": "string"
        }
      ],
      "stateMutability": "view",
      "type": "function"
    },
    {
      "inputs": [
        {
          "internalType": "address",
          "name": "from",
          "type": "address"
        },
        {
          "internalType": "address",
          "name": "to",
          "type": "address"
        },
        {
          "internalType": "uint256",
          "name": "tokenId",
          "type": "uint256"
        }
      ],
      "name": "transferFrom",
      "outputs": [],
      "stateMutability": "nonpayable",
      "type": "function"
    },
    {
      "inputs": [
        {
          "internalType": "address",
          "name": "newOwner",
          "type": "address"
        }
      ],
      "name": "transferOwnership",
      "outputs": [],
      "stateMutability": "nonpayable",
      "type": "function"
    },
    {
      "inputs": [
        {
          "components": [
            {
              "internalType": "uint256",
              "name": "tokenId",
              "type": "uint256"
            },
            {
              "internalType": "string",
              "name": "name",
              "type": "string"
            },
            {
              "internalType": "string",
              "name": "description",
              "type": "string"
            },
            {
              "internalType": "string",
              "name": "imageUrl",
              "type": "string"
            },
            {
              "internalType": "string",
              "name": "externalUrl",
              "type": "string"
            }
          ],
          "internalType": "struct MojoCore.NFT",
          "name": "nft",
          "type": "tuple"
        }
      ],
      "name": "updateNFT",
      "outputs": [],
      "stateMutability": "nonpayable",
      "type": "function"
    }
  ],
  "bytecode": "0x608060405260405180606001604052806034815260200162004f8c60349139600a908051906020019062000035929190620007f7565b506040518060400160405280600481526020017f6d6f6a6f00000000000000000000000000000000000000000000000000000000815250600d908051906020019062000083929190620007f7565b503480156200009157600080fd5b5060405162004fc038038062004fc08339818101604052810190620000b7919062000911565b6040518060400160405280600781526020017f4d6f6a6f4e4654000000000000000000000000000000000000000000000000008152506040518060400160405280600481526020017f6d4e46540000000000000000000000000000000000000000000000000000000081525081600090805190602001906200013b929190620007f7565b50806001908051906020019062000154929190620007f7565b505050620001776200016b6200043a60201b60201c565b6200044260201b60201c565b80600960006101000a81548173ffffffffffffffffffffffffffffffffffffffff021916908373ffffffffffffffffffffffffffffffffffffffff160217905550600960009054906101000a900473ffffffffffffffffffffffffffffffffffffffff1673ffffffffffffffffffffffffffffffffffffffff16633a9151b030600d6200020f466200050860201b620012661760201c565b6040516020016200022292919062000bb3565b6040516020818303038152906040526040518363ffffffff1660e01b81526004016200025092919062000c7e565b6020604051808303816000875af115801562000270573d6000803e3d6000fd5b505050506040513d601f19601f8201168201806040525081019062000296919062000ced565b600c81905550620002ea6040518060400160405280601081526020017f5f6d657461646174615461626c65496400000000000000000000000000000000815250600c546200068260201b620013c71760201c565b600d62000302466200050860201b620012661760201c565b6200031a600c546200050860201b620012661760201c565b6040516020016200032e9392919062000d1f565b604051602081830303815290604052600b908051906020019062000354929190620007f7565b50620004336040518060400160405280600e81526020017f5f6d657461646174615461626c65000000000000000000000000000000000000815250600b80546200039e9062000998565b80601f0160208091040260200160405190810160405280929190818152602001828054620003cc9062000998565b80156200041d5780601f10620003f1576101008083540402835291602001916200041d565b820191906000526020600020905b815481529060010190602001808311620003ff57829003601f168201915b50505050506200072860201b620014631760201c565b506200100a565b600033905090565b6000600760009054906101000a900473ffffffffffffffffffffffffffffffffffffffff16905081600760006101000a81548173ffffffffffffffffffffffffffffffffffffffff021916908373ffffffffffffffffffffffffffffffffffffffff1602179055508173ffffffffffffffffffffffffffffffffffffffff168173ffffffffffffffffffffffffffffffffffffffff167f8be0079c531659141344cd1fd0a4f28419497f9722a3daafe3b4186f6b6457e060405160405180910390a35050565b6060600082141562000552576040518060400160405280600181526020017f300000000000000000000000000000000000000000000000000000000000000081525090506200067d565b600082905060005b600082146200058a578080620005709062000da7565b915050600a8262000582919062000e24565b91506200055a565b60008167ffffffffffffffff811115620005a957620005a862000e5c565b5b6040519080825280601f01601f191660200182016040528015620005dc5781602001600182028036833780820191505090505b5090505b600085146200067657600182620005f8919062000e8b565b9150600a8562000609919062000ec6565b603062000617919062000efe565b60f81b81838151811062000630576200062f62000f5b565b5b60200101907effffffffffffffffffffffffffffffffffffffffffffffffffffffffffffff1916908160001a905350600a856200066e919062000e24565b9450620005e0565b8093505050505b919050565b6200072482826040516024016200069b92919062000f9b565b6040516020818303038152906040527f9710a9d0000000000000000000000000000000000000000000000000000000007bffffffffffffffffffffffffffffffffffffffffffffffffffffffff19166020820180517bffffffffffffffffffffffffffffffffffffffffffffffffffffffff8381831617835250505050620007ce60201b60201c565b5050565b620007ca82826040516024016200074192919062000fcf565b6040516020818303038152906040527f4b5c4277000000000000000000000000000000000000000000000000000000007bffffffffffffffffffffffffffffffffffffffffffffffffffffffff19166020820180517bffffffffffffffffffffffffffffffffffffffffffffffffffffffff8381831617835250505050620007ce60201b60201c565b5050565b60008151905060006a636f6e736f6c652e6c6f679050602083016000808483855afa5050505050565b828054620008059062000998565b90600052602060002090601f01602090048101928262000829576000855562000875565b82601f106200084457805160ff191683800117855562000875565b8280016001018555821562000875579182015b828111156200087457825182559160200191906001019062000857565b5b50905062000884919062000888565b5090565b5b80821115620008a357600081600090555060010162000889565b5090565b600080fd5b600073ffffffffffffffffffffffffffffffffffffffff82169050919050565b6000620008d982620008ac565b9050919050565b620008eb81620008cc565b8114620008f757600080fd5b50565b6000815190506200090b81620008e0565b92915050565b6000602082840312156200092a5762000929620008a7565b5b60006200093a84828501620008fa565b91505092915050565b7f435245415445205441424c452000000000000000000000000000000000000000815250565b7f4e487b7100000000000000000000000000000000000000000000000000000000600052602260045260246000fd5b60006002820490506001821680620009b157607f821691505b60208210811415620009c857620009c762000969565b5b50919050565b600081905092915050565b60008190508160005260206000209050919050565b60008154620009fd8162000998565b62000a098186620009ce565b9450600182166000811462000a27576001811462000a395762000a70565b60ff1983168652818601935062000a70565b62000a4485620009d9565b60005b8381101562000a685781548189015260018201915060208101905062000a47565b838801955050505b50505092915050565b7f5f00000000000000000000000000000000000000000000000000000000000000815250565b600081519050919050565b60005b8381101562000aca57808201518184015260208101905062000aad565b8381111562000ada576000848401525b50505050565b600062000aed8262000a9f565b62000af98185620009ce565b935062000b0b81856020860162000aaa565b80840191505092915050565b7f2028696420696e742c206e616d6520746578742c206465736372697074696f6e60008201527f20746578742c20696d61676520746578742c2065787465726e616c5f75726c2060208201527f746578742c205052494d415259204b45592028696429293b0000000000000000604082015250565b600062000b9b605883620009ce565b915062000ba88262000b17565b605882019050919050565b600062000bc08262000943565b600d8201915062000bd28285620009ee565b915062000bdf8262000a79565b60018201915062000bf1828462000ae0565b915062000bfe8262000b8c565b91508190509392505050565b62000c1581620008cc565b82525050565b600082825260208201905092915050565b6000601f19601f8301169050919050565b600062000c4a8262000a9f565b62000c56818562000c1b565b935062000c6881856020860162000aaa565b62000c738162000c2c565b840191505092915050565b600060408201905062000c95600083018562000c0a565b818103602083015262000ca9818462000c3d565b90509392505050565b6000819050919050565b62000cc78162000cb2565b811462000cd357600080fd5b50565b60008151905062000ce78162000cbc565b92915050565b60006020828403121562000d065762000d05620008a7565b5b600062000d168482850162000cd6565b91505092915050565b600062000d2d8286620009ee565b915062000d3a8262000a79565b60018201915062000d4c828562000ae0565b915062000d598262000a79565b60018201915062000d6b828462000ae0565b9150819050949350505050565b7f4e487b7100000000000000000000000000000000000000000000000000000000600052601160045260246000fd5b600062000db48262000cb2565b91507fffffffffffffffffffffffffffffffffffffffffffffffffffffffffffffffff82141562000dea5762000de962000d78565b5b600182019050919050565b7f4e487b7100000000000000000000000000000000000000000000000000000000600052601260045260246000fd5b600062000e318262000cb2565b915062000e3e8362000cb2565b92508262000e515762000e5062000df5565b5b828204905092915050565b7f4e487b7100000000000000000000000000000000000000000000000000000000600052604160045260246000fd5b600062000e988262000cb2565b915062000ea58362000cb2565b92508282101562000ebb5762000eba62000d78565b5b828203905092915050565b600062000ed38262000cb2565b915062000ee08362000cb2565b92508262000ef35762000ef262000df5565b5b828206905092915050565b600062000f0b8262000cb2565b915062000f188362000cb2565b9250827fffffffffffffffffffffffffffffffffffffffffffffffffffffffffffffffff0382111562000f505762000f4f62000d78565b5b828201905092915050565b7f4e487b7100000000000000000000000000000000000000000000000000000000600052603260045260246000fd5b62000f958162000cb2565b82525050565b6000604082019050818103600083015262000fb7818562000c3d565b905062000fc8602083018462000f8a565b9392505050565b6000604082019050818103600083015262000feb818562000c3d565b9050818103602083015262001001818462000c3d565b90509392505050565b613f72806200101a6000396000f3fe608060405234801561001057600080fd5b506004361061012c5760003560e01c806370a08231116100ad578063a22cb46511610071578063a22cb4651461032f578063b88d4fde1461034b578063c87b56dd14610367578063e985e9c514610397578063f2fde38b146103c75761012c565b806370a082311461029d578063715018a6146102cd57806375b88c33146102d75780638da5cb5b146102f357806395d89b41146103115761012c565b806323b872dd116100f457806323b872dd146101e95780633779f0381461020557806342842e0e1461023557806355f804b3146102515780636352211e1461026d5761012c565b806301ffc9a71461013157806303ee438c1461016157806306fdde031461017f578063081812fc1461019d578063095ea7b3146101cd575b600080fd5b61014b60048036038101906101469190612336565b6103e3565b604051610158919061237e565b60405180910390f35b6101696104c5565b6040516101769190612432565b60405180910390f35b6101876104fc565b6040516101949190612432565b60405180910390f35b6101b760048036038101906101b2919061248a565b61058e565b6040516101c491906124f8565b60405180910390f35b6101e760048036038101906101e2919061253f565b6105d4565b005b61020360048036038101906101fe919061257f565b6106ec565b005b61021f600480360381019061021a919061280d565b61074c565b60405161022c9190612878565b60405180910390f35b61024f600480360381019061024a919061257f565b6109cc565b005b61026b60048036038101906102669190612893565b6109ec565b005b6102876004803603810190610282919061248a565b610a0e565b60405161029491906124f8565b60405180910390f35b6102b760048036038101906102b291906128dc565b610ac0565b6040516102c49190612878565b60405180910390f35b6102d5610b78565b005b6102f160048036038101906102ec9190612909565b610b8c565b005b6102fb610da3565b60405161030891906124f8565b60405180910390f35b610319610dcd565b6040516103269190612432565b60405180910390f35b6103496004803603810190610344919061297e565b610e5f565b005b61036560048036038101906103609190612a5f565b610e75565b005b610381600480360381019061037c919061248a565b610ed7565b60405161038e9190612432565b60405180910390f35b6103b160048036038101906103ac9190612ae2565b61114e565b6040516103be919061237e565b60405180910390f35b6103e160048036038101906103dc91906128dc565b6111e2565b005b60007f80ac58cd000000000000000000000000000000000000000000000000000000007bffffffffffffffffffffffffffffffffffffffffffffffffffffffff1916827bffffffffffffffffffffffffffffffffffffffffffffffffffffffff191614806104ae57507f5b5e139f000000000000000000000000000000000000000000000000000000007bffffffffffffffffffffffffffffffffffffffffffffffffffffffff1916827bffffffffffffffffffffffffffffffffffffffffffffffffffffffff1916145b806104be57506104bd826114ff565b5b9050919050565b606060006104d1611569565b905080600b6040516020016104e7929190612c79565b60405160208183030381529060405291505090565b60606000805461050b90612bb3565b80601f016020809104026020016040519081016040528092919081815260200182805461053790612bb3565b80156105845780601f1061055957610100808354040283529160200191610584565b820191906000526020600020905b81548152906001019060200180831161056757829003601f168201915b5050505050905090565b6000610599826115fb565b6004600083815260200190815260200160002060009054906101000a900473ffffffffffffffffffffffffffffffffffffffff169050919050565b60006105df82610a0e565b90508073ffffffffffffffffffffffffffffffffffffffff168373ffffffffffffffffffffffffffffffffffffffff161415610650576040517f08c379a000000000000000000000000000000000000000000000000000000000815260040161064790612d1e565b60405180910390fd5b8073ffffffffffffffffffffffffffffffffffffffff1661066f611646565b73ffffffffffffffffffffffffffffffffffffffff16148061069e575061069d81610698611646565b61114e565b5b6106dd576040517f08c379a00000000000000000000000000000000000000000000000000000000081526004016106d490612db0565b60405180910390fd5b6106e7838361164e565b505050565b6106fd6106f7611646565b82611707565b61073c576040517f08c379a000000000000000000000000000000000000000000000000000000000815260040161073390612e42565b60405180910390fd5b61074783838361179c565b505050565b6000806107596008611a03565b9050600960009054906101000a900473ffffffffffffffffffffffffffffffffffffffff1673ffffffffffffffffffffffffffffffffffffffff1663eaf5d04e30600c54600b6107a886611266565b886020015189604001518a606001518b608001516040516020016107d196959493929190612f6c565b6040516020818303038152906040526040518463ffffffff1660e01b81526004016107fe93929190613029565b600060405180830381600087803b15801561081857600080fd5b505af115801561082c573d6000803e3d6000fd5b5050505061084a848260405180602001604052806000815250611a11565b61085c8161085783610ed7565b611a6c565b61089f6040518060400160405280600881526020017f6e66742e6e616d650000000000000000000000000000000000000000000000008152508460200151611463565b6108e26040518060400160405280600f81526020017f6e66742e6465736372697074696f6e00000000000000000000000000000000008152508460400151611463565b6109256040518060400160405280600c81526020017f6e66742e696d61676555726c00000000000000000000000000000000000000008152508460600151611463565b6109686040518060400160405280600f81526020017f6e66742e65787465726e616c55726c00000000000000000000000000000000008152508460800151611463565b6109726008611ae0565b3373ffffffffffffffffffffffffffffffffffffffff167f061b141191d79859f7cc6256c1b9e5f380052197831efe9135841c0ff4de7e6342836040516109ba929190613067565b60405180910390a28091505092915050565b6109e783838360405180602001604052806000815250610e75565b505050565b6109f4611af6565b80600a9080519060200190610a0a929190612227565b5050565b6000806002600084815260200190815260200160002060009054906101000a900473ffffffffffffffffffffffffffffffffffffffff169050600073ffffffffffffffffffffffffffffffffffffffff168173ffffffffffffffffffffffffffffffffffffffff161415610ab7576040517f08c379a0000000000000000000000000000000000000000000000000000000008152600401610aae906130dc565b60405180910390fd5b80915050919050565b60008073ffffffffffffffffffffffffffffffffffffffff168273ffffffffffffffffffffffffffffffffffffffff161415610b31576040517f08c379a0000000000000000000000000000000000000000000000000000000008152600401610b289061316e565b60405180910390fd5b600360008373ffffffffffffffffffffffffffffffffffffffff1673ffffffffffffffffffffffffffffffffffffffff168152602001908152602001600020549050919050565b610b80611af6565b610b8a6000611b74565b565b3373ffffffffffffffffffffffffffffffffffffffff163073ffffffffffffffffffffffffffffffffffffffff16636352211e83600001516040518263ffffffff1660e01b8152600401610be09190612878565b602060405180830381865afa158015610bfd573d6000803e3d6000fd5b505050506040513d601f19601f82011682018060405250810190610c2191906131a3565b73ffffffffffffffffffffffffffffffffffffffff1614610c77576040517f08c379a0000000000000000000000000000000000000000000000000000000008152600401610c6e9061321c565b60405180910390fd5b600960009054906101000a900473ffffffffffffffffffffffffffffffffffffffff1673ffffffffffffffffffffffffffffffffffffffff1663eaf5d04e30600c54600b8560200151866040015187606001518860800151610cdc8a60000151611266565b604051602001610cf196959493929190613346565b6040516020818303038152906040526040518463ffffffff1660e01b8152600401610d1e93929190613029565b600060405180830381600087803b158015610d3857600080fd5b505af1158015610d4c573d6000803e3d6000fd5b505050503373ffffffffffffffffffffffffffffffffffffffff167ff221ec3ac93874814a8592a3e084e52a83e1eb2521221848b55ac186e77821dc4283604051610d989291906134eb565b60405180910390a250565b6000600760009054906101000a900473ffffffffffffffffffffffffffffffffffffffff16905090565b606060018054610ddc90612bb3565b80601f0160208091040260200160405190810160405280929190818152602001828054610e0890612bb3565b8015610e555780601f10610e2a57610100808354040283529160200191610e55565b820191906000526020600020905b815481529060010190602001808311610e3857829003601f168201915b5050505050905090565b610e71610e6a611646565b8383611c3a565b5050565b610e86610e80611646565b83611707565b610ec5576040517f08c379a0000000000000000000000000000000000000000000000000000000008152600401610ebc90612e42565b60405180910390fd5b610ed184848484611da7565b50505050565b6060610ee282611e03565b610f21576040517f08c379a0000000000000000000000000000000000000000000000000000000008152600401610f189061358d565b60405180910390fd5b6000610f2b611569565b9050600060405180602001604052806000815250905060006040518060a001604052806040518060400160405280600281526020017f696400000000000000000000000000000000000000000000000000000000000081525081526020016040518060400160405280600481526020017f6e616d650000000000000000000000000000000000000000000000000000000081525081526020016040518060400160405280600b81526020017f6465736372697074696f6e00000000000000000000000000000000000000000081525081526020016040518060400160405280600581526020017f696d61676500000000000000000000000000000000000000000000000000000081525081526020016040518060400160405280600c81526020017f65787465726e616c5f75726c0000000000000000000000000000000000000000815250815250905060005b60058110156111145760008111156110ad578260405160200161109b91906135d3565b60405160208183030381529060405292505b828282600581106110c1576110c06135f9565b5b60200201518383600581106110d9576110d86135f9565b5b60200201516040516020016110f093929190613674565b6040516020818303038152906040529250808061110c906136f2565b915050611078565b508282600b61112288611266565b60405160200161113594939291906137d3565b6040516020818303038152906040529350505050919050565b6000600560008473ffffffffffffffffffffffffffffffffffffffff1673ffffffffffffffffffffffffffffffffffffffff16815260200190815260200160002060008373ffffffffffffffffffffffffffffffffffffffff1673ffffffffffffffffffffffffffffffffffffffff16815260200190815260200160002060009054906101000a900460ff16905092915050565b6111ea611af6565b600073ffffffffffffffffffffffffffffffffffffffff168173ffffffffffffffffffffffffffffffffffffffff16141561125a576040517f08c379a0000000000000000000000000000000000000000000000000000000008152600401611251906138bf565b60405180910390fd5b61126381611b74565b50565b606060008214156112ae576040518060400160405280600181526020017f300000000000000000000000000000000000000000000000000000000000000081525090506113c2565b600082905060005b600082146112e05780806112c9906136f2565b915050600a826112d9919061390e565b91506112b6565b60008167ffffffffffffffff8111156112fc576112fb6125d7565b5b6040519080825280601f01601f19166020018201604052801561132e5781602001600182028036833780820191505090505b5090505b600085146113bb57600182611347919061393f565b9150600a856113569190613973565b603061136291906139a4565b60f81b818381518110611378576113776135f9565b5b60200101907effffffffffffffffffffffffffffffffffffffffffffffffffffffffffffff1916908160001a905350600a856113b4919061390e565b9450611332565b8093505050505b919050565b61145f82826040516024016113dd9291906139fa565b6040516020818303038152906040527f9710a9d0000000000000000000000000000000000000000000000000000000007bffffffffffffffffffffffffffffffffffffffffffffffffffffffff19166020820180517bffffffffffffffffffffffffffffffffffffffffffffffffffffffff8381831617835250505050611e6f565b5050565b6114fb8282604051602401611479929190613a2a565b6040516020818303038152906040527f4b5c4277000000000000000000000000000000000000000000000000000000007bffffffffffffffffffffffffffffffffffffffffffffffffffffffff19166020820180517bffffffffffffffffffffffffffffffffffffffffffffffffffffffff8381831617835250505050611e6f565b5050565b60007f01ffc9a7000000000000000000000000000000000000000000000000000000007bffffffffffffffffffffffffffffffffffffffffffffffffffffffff1916827bffffffffffffffffffffffffffffffffffffffffffffffffffffffff1916149050919050565b6060600a805461157890612bb3565b80601f01602080910402602001604051908101604052809291908181526020018280546115a490612bb3565b80156115f15780601f106115c6576101008083540402835291602001916115f1565b820191906000526020600020905b8154815290600101906020018083116115d457829003601f168201915b5050505050905090565b61160481611e03565b611643576040517f08c379a000000000000000000000000000000000000000000000000000000000815260040161163a906130dc565b60405180910390fd5b50565b600033905090565b816004600083815260200190815260200160002060006101000a81548173ffffffffffffffffffffffffffffffffffffffff021916908373ffffffffffffffffffffffffffffffffffffffff160217905550808273ffffffffffffffffffffffffffffffffffffffff166116c183610a0e565b73ffffffffffffffffffffffffffffffffffffffff167f8c5be1e5ebec7d5bd14f71427d1e84f3dd0314c0f7b2291e5b200ac8c7c3b92560405160405180910390a45050565b60008061171383610a0e565b90508073ffffffffffffffffffffffffffffffffffffffff168473ffffffffffffffffffffffffffffffffffffffff1614806117555750611754818561114e565b5b8061179357508373ffffffffffffffffffffffffffffffffffffffff1661177b8461058e565b73ffffffffffffffffffffffffffffffffffffffff16145b91505092915050565b8273ffffffffffffffffffffffffffffffffffffffff166117bc82610a0e565b73ffffffffffffffffffffffffffffffffffffffff1614611812576040517f08c379a000000000000000000000000000000000000000000000000000000000815260040161180990613ad3565b60405180910390fd5b600073ffffffffffffffffffffffffffffffffffffffff168273ffffffffffffffffffffffffffffffffffffffff161415611882576040517f08c379a000000000000000000000000000000000000000000000000000000000815260040161187990613b65565b60405180910390fd5b61188d838383611e98565b61189860008261164e565b6001600360008573ffffffffffffffffffffffffffffffffffffffff1673ffffffffffffffffffffffffffffffffffffffff16815260200190815260200160002060008282546118e8919061393f565b925050819055506001600360008473ffffffffffffffffffffffffffffffffffffffff1673ffffffffffffffffffffffffffffffffffffffff168152602001908152602001600020600082825461193f91906139a4565b92505081905550816002600083815260200190815260200160002060006101000a81548173ffffffffffffffffffffffffffffffffffffffff021916908373ffffffffffffffffffffffffffffffffffffffff160217905550808273ffffffffffffffffffffffffffffffffffffffff168473ffffffffffffffffffffffffffffffffffffffff167fddf252ad1be2c89b69c2b068fc378daa952ba7f163c4a11628f55a4df523b3ef60405160405180910390a46119fe838383611e9d565b505050565b600081600001549050919050565b611a1b8383611ea2565b611a28600084848461207c565b611a67576040517f08c379a0000000000000000000000000000000000000000000000000000000008152600401611a5e90613bf7565b60405180910390fd5b505050565b611a7582611e03565b611ab4576040517f08c379a0000000000000000000000000000000000000000000000000000000008152600401611aab90613c89565b60405180910390fd5b80600660008481526020019081526020016000209080519060200190611adb929190612227565b505050565b6001816000016000828254019250508190555050565b611afe611646565b73ffffffffffffffffffffffffffffffffffffffff16611b1c610da3565b73ffffffffffffffffffffffffffffffffffffffff1614611b72576040517f08c379a0000000000000000000000000000000000000000000000000000000008152600401611b6990613cf5565b60405180910390fd5b565b6000600760009054906101000a900473ffffffffffffffffffffffffffffffffffffffff16905081600760006101000a81548173ffffffffffffffffffffffffffffffffffffffff021916908373ffffffffffffffffffffffffffffffffffffffff1602179055508173ffffffffffffffffffffffffffffffffffffffff168173ffffffffffffffffffffffffffffffffffffffff167f8be0079c531659141344cd1fd0a4f28419497f9722a3daafe3b4186f6b6457e060405160405180910390a35050565b8173ffffffffffffffffffffffffffffffffffffffff168373ffffffffffffffffffffffffffffffffffffffff161415611ca9576040517f08c379a0000000000000000000000000000000000000000000000000000000008152600401611ca090613d61565b60405180910390fd5b80600560008573ffffffffffffffffffffffffffffffffffffffff1673ffffffffffffffffffffffffffffffffffffffff16815260200190815260200160002060008473ffffffffffffffffffffffffffffffffffffffff1673ffffffffffffffffffffffffffffffffffffffff16815260200190815260200160002060006101000a81548160ff0219169083151502179055508173ffffffffffffffffffffffffffffffffffffffff168373ffffffffffffffffffffffffffffffffffffffff167f17307eab39ab6107e8899845ad3d59bd9653f200f220920489ca2b5937696c3183604051611d9a919061237e565b60405180910390a3505050565b611db284848461179c565b611dbe8484848461207c565b611dfd576040517f08c379a0000000000000000000000000000000000000000000000000000000008152600401611df490613bf7565b60405180910390fd5b50505050565b60008073ffffffffffffffffffffffffffffffffffffffff166002600084815260200190815260200160002060009054906101000a900473ffffffffffffffffffffffffffffffffffffffff1673ffffffffffffffffffffffffffffffffffffffff1614159050919050565b60008151905060006a636f6e736f6c652e6c6f679050602083016000808483855afa5050505050565b505050565b505050565b600073ffffffffffffffffffffffffffffffffffffffff168273ffffffffffffffffffffffffffffffffffffffff161415611f12576040517f08c379a0000000000000000000000000000000000000000000000000000000008152600401611f0990613dcd565b60405180910390fd5b611f1b81611e03565b15611f5b576040517f08c379a0000000000000000000000000000000000000000000000000000000008152600401611f5290613e39565b60405180910390fd5b611f6760008383611e98565b6001600360008473ffffffffffffffffffffffffffffffffffffffff1673ffffffffffffffffffffffffffffffffffffffff1681526020019081526020016000206000828254611fb791906139a4565b92505081905550816002600083815260200190815260200160002060006101000a81548173ffffffffffffffffffffffffffffffffffffffff021916908373ffffffffffffffffffffffffffffffffffffffff160217905550808273ffffffffffffffffffffffffffffffffffffffff16600073ffffffffffffffffffffffffffffffffffffffff167fddf252ad1be2c89b69c2b068fc378daa952ba7f163c4a11628f55a4df523b3ef60405160405180910390a461207860008383611e9d565b5050565b600061209d8473ffffffffffffffffffffffffffffffffffffffff16612204565b156121f7578373ffffffffffffffffffffffffffffffffffffffff1663150b7a026120c6611646565b8786866040518563ffffffff1660e01b81526004016120e89493929190613eae565b6020604051808303816000875af192505050801561212457506040513d601f19601f820116820180604052508101906121219190613f0f565b60015b6121a7573d8060008114612154576040519150601f19603f3d011682016040523d82523d6000602084013e612159565b606091505b5060008151141561219f576040517f08c379a000000000000000000000000000000000000000000000000000000000815260040161219690613bf7565b60405180910390fd5b805181602001fd5b63150b7a0260e01b7bffffffffffffffffffffffffffffffffffffffffffffffffffffffff1916817bffffffffffffffffffffffffffffffffffffffffffffffffffffffff1916149150506121fc565b600190505b949350505050565b6000808273ffffffffffffffffffffffffffffffffffffffff163b119050919050565b82805461223390612bb3565b90600052602060002090601f016020900481019282612255576000855561229c565b82601f1061226e57805160ff191683800117855561229c565b8280016001018555821561229c579182015b8281111561229b578251825591602001919060010190612280565b5b5090506122a991906122ad565b5090565b5b808211156122c65760008160009055506001016122ae565b5090565b6000604051905090565b600080fd5b600080fd5b60007fffffffff0000000000000000000000000000000000000000000000000000000082169050919050565b612313816122de565b811461231e57600080fd5b50565b6000813590506123308161230a565b92915050565b60006020828403121561234c5761234b6122d4565b5b600061235a84828501612321565b91505092915050565b60008115159050919050565b61237881612363565b82525050565b6000602082019050612393600083018461236f565b92915050565b600081519050919050565b600082825260208201905092915050565b60005b838110156123d35780820151818401526020810190506123b8565b838111156123e2576000848401525b50505050565b6000601f19601f8301169050919050565b600061240482612399565b61240e81856123a4565b935061241e8185602086016123b5565b612427816123e8565b840191505092915050565b6000602082019050818103600083015261244c81846123f9565b905092915050565b6000819050919050565b61246781612454565b811461247257600080fd5b50565b6000813590506124848161245e565b92915050565b6000602082840312156124a05761249f6122d4565b5b60006124ae84828501612475565b91505092915050565b600073ffffffffffffffffffffffffffffffffffffffff82169050919050565b60006124e2826124b7565b9050919050565b6124f2816124d7565b82525050565b600060208201905061250d60008301846124e9565b92915050565b61251c816124d7565b811461252757600080fd5b50565b60008135905061253981612513565b92915050565b60008060408385031215612556576125556122d4565b5b60006125648582860161252a565b925050602061257585828601612475565b9150509250929050565b600080600060608486031215612598576125976122d4565b5b60006125a68682870161252a565b93505060206125b78682870161252a565b92505060406125c886828701612475565b9150509250925092565b600080fd5b7f4e487b7100000000000000000000000000000000000000000000000000000000600052604160045260246000fd5b61260f826123e8565b810181811067ffffffffffffffff8211171561262e5761262d6125d7565b5b80604052505050565b60006126416122ca565b905061264d8282612606565b919050565b600080fd5b600080fd5b600080fd5b600067ffffffffffffffff82111561267c5761267b6125d7565b5b612685826123e8565b9050602081019050919050565b82818337600083830152505050565b60006126b46126af84612661565b612637565b9050828152602081018484840111156126d0576126cf61265c565b5b6126db848285612692565b509392505050565b600082601f8301126126f8576126f7612657565b5b81356127088482602086016126a1565b91505092915050565b600060a08284031215612727576127266125d2565b5b61273160a0612637565b9050600061274184828501612475565b600083015250602082013567ffffffffffffffff81111561276557612764612652565b5b612771848285016126e3565b602083015250604082013567ffffffffffffffff81111561279557612794612652565b5b6127a1848285016126e3565b604083015250606082013567ffffffffffffffff8111156127c5576127c4612652565b5b6127d1848285016126e3565b606083015250608082013567ffffffffffffffff8111156127f5576127f4612652565b5b612801848285016126e3565b60808301525092915050565b60008060408385031215612824576128236122d4565b5b60006128328582860161252a565b925050602083013567ffffffffffffffff811115612853576128526122d9565b5b61285f85828601612711565b9150509250929050565b61287281612454565b82525050565b600060208201905061288d6000830184612869565b92915050565b6000602082840312156128a9576128a86122d4565b5b600082013567ffffffffffffffff8111156128c7576128c66122d9565b5b6128d3848285016126e3565b91505092915050565b6000602082840312156128f2576128f16122d4565b5b60006129008482850161252a565b91505092915050565b60006020828403121561291f5761291e6122d4565b5b600082013567ffffffffffffffff81111561293d5761293c6122d9565b5b61294984828501612711565b91505092915050565b61295b81612363565b811461296657600080fd5b50565b60008135905061297881612952565b92915050565b60008060408385031215612995576129946122d4565b5b60006129a38582860161252a565b92505060206129b485828601612969565b9150509250929050565b600067ffffffffffffffff8211156129d9576129d86125d7565b5b6129e2826123e8565b9050602081019050919050565b6000612a026129fd846129be565b612637565b905082815260208101848484011115612a1e57612a1d61265c565b5b612a29848285612692565b509392505050565b600082601f830112612a4657612a45612657565b5b8135612a568482602086016129ef565b91505092915050565b60008060008060808587031215612a7957612a786122d4565b5b6000612a878782880161252a565b9450506020612a988782880161252a565b9350506040612aa987828801612475565b925050606085013567ffffffffffffffff811115612aca57612ac96122d9565b5b612ad687828801612a31565b91505092959194509250565b60008060408385031215612af957612af86122d4565b5b6000612b078582860161252a565b9250506020612b188582860161252a565b9150509250929050565b600081905092915050565b6000612b3882612399565b612b428185612b22565b9350612b528185602086016123b5565b80840191505092915050565b7f53454c4543542532302a25323046524f4d253230000000000000000000000000815250565b7f4e487b7100000000000000000000000000000000000000000000000000000000600052602260045260246000fd5b60006002820490506001821680612bcb57607f821691505b60208210811415612bdf57612bde612b84565b5b50919050565b60008190508160005260206000209050919050565b60008154612c0781612bb3565b612c118186612b22565b94506001821660008114612c2c5760018114612c3d57612c70565b60ff19831686528186019350612c70565b612c4685612be5565b60005b83811015612c6857815481890152600182019150602081019050612c49565b838801955050505b50505092915050565b6000612c858285612b2d565b9150612c9082612b5e565b601482019150612ca08284612bfa565b91508190509392505050565b7f4552433732313a20617070726f76616c20746f2063757272656e74206f776e6560008201527f7200000000000000000000000000000000000000000000000000000000000000602082015250565b6000612d086021836123a4565b9150612d1382612cac565b604082019050919050565b60006020820190508181036000830152612d3781612cfb565b9050919050565b7f4552433732313a20617070726f76652063616c6c6572206973206e6f7420746f60008201527f6b656e206f776e6572206e6f7220617070726f76656420666f7220616c6c0000602082015250565b6000612d9a603e836123a4565b9150612da582612d3e565b604082019050919050565b60006020820190508181036000830152612dc981612d8d565b9050919050565b7f4552433732313a2063616c6c6572206973206e6f7420746f6b656e206f776e6560008201527f72206e6f7220617070726f766564000000000000000000000000000000000000602082015250565b6000612e2c602e836123a4565b9150612e3782612dd0565b604082019050919050565b60006020820190508181036000830152612e5b81612e1f565b9050919050565b7f494e5345525420494e544f200000000000000000000000000000000000000000815250565b7f202869642c206e616d652c206465736372697074696f6e2c20696d6167652c2060008201527f65787465726e616c5f75726c2c206261636b67726f756e645f636f6c6f722c2060208201527f61747472696275746573292056414c5545532028000000000000000000000000604082015250565b6000612f0a605483612b22565b9150612f1582612e88565b605482019050919050565b7f2c20000000000000000000000000000000000000000000000000000000000000815250565b7f2900000000000000000000000000000000000000000000000000000000000000815250565b6000612f7782612e62565b600c82019150612f878289612bfa565b9150612f9282612efd565b9150612f9e8288612b2d565b9150612fa982612f20565b600282019150612fb98287612b2d565b9150612fc482612f20565b600282019150612fd48286612b2d565b9150612fdf82612f20565b600282019150612fef8285612b2d565b9150612ffa82612f20565b60028201915061300a8284612b2d565b915061301582612f46565b600182019150819050979650505050505050565b600060608201905061303e60008301866124e9565b61304b6020830185612869565b818103604083015261305d81846123f9565b9050949350505050565b600060408201905061307c6000830185612869565b6130896020830184612869565b9392505050565b7f4552433732313a20696e76616c696420746f6b656e2049440000000000000000600082015250565b60006130c66018836123a4565b91506130d182613090565b602082019050919050565b600060208201905081810360008301526130f5816130b9565b9050919050565b7f4552433732313a2061646472657373207a65726f206973206e6f74206120766160008201527f6c6964206f776e65720000000000000000000000000000000000000000000000602082015250565b60006131586029836123a4565b9150613163826130fc565b604082019050919050565b600060208201905081810360008301526131878161314b565b9050919050565b60008151905061319d81612513565b92915050565b6000602082840312156131b9576131b86122d4565b5b60006131c78482850161318e565b91505092915050565b7f496e76616c6964206f776e657200000000000000000000000000000000000000600082015250565b6000613206600d836123a4565b9150613211826131d0565b602082019050919050565b60006020820190508181036000830152613235816131f9565b9050919050565b7f5550444154452000000000000000000000000000000000000000000000000000815250565b7f20534554206e616d65203d200000000000000000000000000000000000000000815250565b7f414e44206465736372697074696f6e203d200000000000000000000000000000815250565b7f414e4420696d616765203d200000000000000000000000000000000000000000815250565b7f414e442065787465726e616c5f75726c203d2000000000000000000000000000815250565b7f205748455245206964203d200000000000000000000000000000000000000000815250565b7f3b00000000000000000000000000000000000000000000000000000000000000815250565b60006133518261323c565b6007820191506133618289612bfa565b915061336c82613262565b600c8201915061337c8288612b2d565b915061338782613288565b6012820191506133978287612b2d565b91506133a2826132ae565b600c820191506133b28286612b2d565b91506133bd826132d4565b6013820191506133cd8285612b2d565b91506133d8826132fa565b600c820191506133e88284612b2d565b91506133f382613320565b600182019150819050979650505050505050565b61341081612454565b82525050565b600082825260208201905092915050565b600061343282612399565b61343c8185613416565b935061344c8185602086016123b5565b613455816123e8565b840191505092915050565b600060a0830160008301516134786000860182613407565b50602083015184820360208601526134908282613427565b915050604083015184820360408601526134aa8282613427565b915050606083015184820360608601526134c48282613427565b915050608083015184820360808601526134de8282613427565b9150508091505092915050565b60006040820190506135006000830185612869565b81810360208301526135128184613460565b90509392505050565b7f45524337323155524953746f726167653a2055524920717565727920666f722060008201527f6e6f6e6578697374656e7420746f6b656e000000000000000000000000000000602082015250565b60006135776031836123a4565b91506135828261351b565b604082019050919050565b600060208201905081810360008301526135a68161356a565b9050919050565b7f2c00000000000000000000000000000000000000000000000000000000000000815250565b60006135df8284612b2d565b91506135ea826135ad565b60018201915081905092915050565b7f4e487b7100000000000000000000000000000000000000000000000000000000600052603260045260246000fd5b7f2700000000000000000000000000000000000000000000000000000000000000815250565b7f272c000000000000000000000000000000000000000000000000000000000000815250565b60006136808286612b2d565b915061368b82613628565b60018201915061369b8285612b2d565b91506136a68261364e565b6002820191506136b68284612b2d565b9150819050949350505050565b7f4e487b7100000000000000000000000000000000000000000000000000000000600052601160045260246000fd5b60006136fd82612454565b91507fffffffffffffffffffffffffffffffffffffffffffffffffffffffffffffffff8214156137305761372f6136c3565b5b600182019050919050565b7f53454c4543542532300000000000000000000000000000000000000000000000815250565b7f25323046524f4d25323000000000000000000000000000000000000000000000815250565b7f2532305748455245253230696425334400000000000000000000000000000000815250565b7f266d6f64653d6c69737400000000000000000000000000000000000000000000815250565b60006137df8287612b2d565b91506137ea8261373b565b6009820191506137fa8286612b2d565b915061380582613761565b600a820191506138158285612bfa565b915061382082613787565b6010820191506138308284612b2d565b915061383b826137ad565b600a8201915081905095945050505050565b7f4f776e61626c653a206e6577206f776e657220697320746865207a65726f206160008201527f6464726573730000000000000000000000000000000000000000000000000000602082015250565b60006138a96026836123a4565b91506138b48261384d565b604082019050919050565b600060208201905081810360008301526138d88161389c565b9050919050565b7f4e487b7100000000000000000000000000000000000000000000000000000000600052601260045260246000fd5b600061391982612454565b915061392483612454565b925082613934576139336138df565b5b828204905092915050565b600061394a82612454565b915061395583612454565b925082821015613968576139676136c3565b5b828203905092915050565b600061397e82612454565b915061398983612454565b925082613999576139986138df565b5b828206905092915050565b60006139af82612454565b91506139ba83612454565b9250827fffffffffffffffffffffffffffffffffffffffffffffffffffffffffffffffff038211156139ef576139ee6136c3565b5b828201905092915050565b60006040820190508181036000830152613a1481856123f9565b9050613a236020830184612869565b9392505050565b60006040820190508181036000830152613a4481856123f9565b90508181036020830152613a5881846123f9565b90509392505050565b7f4552433732313a207472616e736665722066726f6d20696e636f72726563742060008201527f6f776e6572000000000000000000000000000000000000000000000000000000602082015250565b6000613abd6025836123a4565b9150613ac882613a61565b604082019050919050565b60006020820190508181036000830152613aec81613ab0565b9050919050565b7f4552433732313a207472616e7366657220746f20746865207a65726f2061646460008201527f7265737300000000000000000000000000000000000000000000000000000000602082015250565b6000613b4f6024836123a4565b9150613b5a82613af3565b604082019050919050565b60006020820190508181036000830152613b7e81613b42565b9050919050565b7f4552433732313a207472616e7366657220746f206e6f6e20455243373231526560008201527f63656976657220696d706c656d656e7465720000000000000000000000000000602082015250565b6000613be16032836123a4565b9150613bec82613b85565b604082019050919050565b60006020820190508181036000830152613c1081613bd4565b9050919050565b7f45524337323155524953746f726167653a2055524920736574206f66206e6f6e60008201527f6578697374656e7420746f6b656e000000000000000000000000000000000000602082015250565b6000613c73602e836123a4565b9150613c7e82613c17565b604082019050919050565b60006020820190508181036000830152613ca281613c66565b9050919050565b7f4f776e61626c653a2063616c6c6572206973206e6f7420746865206f776e6572600082015250565b6000613cdf6020836123a4565b9150613cea82613ca9565b602082019050919050565b60006020820190508181036000830152613d0e81613cd2565b9050919050565b7f4552433732313a20617070726f766520746f2063616c6c657200000000000000600082015250565b6000613d4b6019836123a4565b9150613d5682613d15565b602082019050919050565b60006020820190508181036000830152613d7a81613d3e565b9050919050565b7f4552433732313a206d696e7420746f20746865207a65726f2061646472657373600082015250565b6000613db76020836123a4565b9150613dc282613d81565b602082019050919050565b60006020820190508181036000830152613de681613daa565b9050919050565b7f4552433732313a20746f6b656e20616c7265616479206d696e74656400000000600082015250565b6000613e23601c836123a4565b9150613e2e82613ded565b602082019050919050565b60006020820190508181036000830152613e5281613e16565b9050919050565b600081519050919050565b600082825260208201905092915050565b6000613e8082613e59565b613e8a8185613e64565b9350613e9a8185602086016123b5565b613ea3816123e8565b840191505092915050565b6000608082019050613ec360008301876124e9565b613ed060208301866124e9565b613edd6040830185612869565b8181036060830152613eef8184613e75565b905095945050505050565b600081519050613f098161230a565b92915050565b600060208284031215613f2557613f246122d4565b5b6000613f3384828501613efa565b9150509291505056fea264697066735822122013571543f8d7330affc834126bafd3e9828b2d1ff3b72070571a1fbb9e487adb64736f6c634300080c003368747470733a2f2f746573746e65742e7461626c656c616e642e6e6574776f726b2f71756572793f6d6f64653d6c69737426733d",
  "linkReferences": {},
  "deployedLinkReferences": {}
}