{
  "_format": "hh-sol-artifact-1",
  "contractName": "MojoCore",
  "sourceName": "contracts/MojoCore.sol",
  "abi": [
    {
      "inputs": [
        {
          "internalType": "address",
          "name": "registry",
          "type": "address"
        }
      ],
      "stateMutability": "nonpayable",
      "type": "constructor"
    },
    {
      "anonymous": false,
      "inputs": [
        {
          "indexed": true,
          "internalType": "address",
          "name": "owner",
          "type": "address"
        },
        {
          "indexed": true,
          "internalType": "address",
          "name": "approved",
          "type": "address"
        },
        {
          "indexed": true,
          "internalType": "uint256",
          "name": "tokenId",
          "type": "uint256"
        }
      ],
      "name": "Approval",
      "type": "event"
    },
    {
      "anonymous": false,
      "inputs": [
        {
          "indexed": true,
          "internalType": "address",
          "name": "owner",
          "type": "address"
        },
        {
          "indexed": true,
          "internalType": "address",
          "name": "operator",
          "type": "address"
        },
        {
          "indexed": false,
          "internalType": "bool",
          "name": "approved",
          "type": "bool"
        }
      ],
      "name": "ApprovalForAll",
      "type": "event"
    },
    {
      "anonymous": false,
      "inputs": [
        {
          "indexed": true,
          "internalType": "address",
          "name": "from",
          "type": "address"
        },
        {
          "indexed": false,
          "internalType": "uint256",
          "name": "timestamp",
          "type": "uint256"
        },
        {
          "indexed": false,
          "internalType": "uint256",
          "name": "tokenId",
          "type": "uint256"
        }
      ],
      "name": "NewNftMinted",
      "type": "event"
    },
    {
      "anonymous": false,
      "inputs": [
        {
          "indexed": true,
          "internalType": "address",
          "name": "from",
          "type": "address"
        },
        {
          "indexed": false,
          "internalType": "uint256",
          "name": "timestamp",
          "type": "uint256"
        },
        {
          "components": [
            {
              "internalType": "uint256",
              "name": "tokenId",
              "type": "uint256"
            },
            {
              "internalType": "string",
              "name": "name",
              "type": "string"
            },
            {
              "internalType": "string",
              "name": "description",
              "type": "string"
            },
            {
              "internalType": "string",
              "name": "imageUrl",
              "type": "string"
            },
            {
              "internalType": "string",
              "name": "externalUrl",
              "type": "string"
            },
            {
              "internalType": "string",
              "name": "backgroundColor",
              "type": "string"
            },
            {
              "internalType": "string",
              "name": "attributes",
              "type": "string"
            }
          ],
          "indexed": false,
          "internalType": "struct MojoCore.NFT",
          "name": "nft",
          "type": "tuple"
        }
      ],
      "name": "NftUpdated",
      "type": "event"
    },
    {
      "anonymous": false,
      "inputs": [
        {
          "indexed": true,
          "internalType": "address",
          "name": "previousOwner",
          "type": "address"
        },
        {
          "indexed": true,
          "internalType": "address",
          "name": "newOwner",
          "type": "address"
        }
      ],
      "name": "OwnershipTransferred",
      "type": "event"
    },
    {
      "anonymous": false,
      "inputs": [
        {
          "indexed": true,
          "internalType": "address",
          "name": "from",
          "type": "address"
        },
        {
          "indexed": true,
          "internalType": "address",
          "name": "to",
          "type": "address"
        },
        {
          "indexed": true,
          "internalType": "uint256",
          "name": "tokenId",
          "type": "uint256"
        }
      ],
      "name": "Transfer",
      "type": "event"
    },
    {
      "inputs": [
        {
          "internalType": "address",
          "name": "to",
          "type": "address"
        },
        {
          "internalType": "uint256",
          "name": "tokenId",
          "type": "uint256"
        }
      ],
      "name": "approve",
      "outputs": [],
      "stateMutability": "nonpayable",
      "type": "function"
    },
    {
      "inputs": [
        {
          "internalType": "address",
          "name": "owner",
          "type": "address"
        }
      ],
      "name": "balanceOf",
      "outputs": [
        {
          "internalType": "uint256",
          "name": "",
          "type": "uint256"
        }
      ],
      "stateMutability": "view",
      "type": "function"
    },
    {
      "inputs": [],
      "name": "getAllNfts",
      "outputs": [
        {
          "components": [
            {
              "internalType": "uint256",
              "name": "tokenId",
              "type": "uint256"
            },
            {
              "internalType": "string",
              "name": "name",
              "type": "string"
            },
            {
              "internalType": "string",
              "name": "description",
              "type": "string"
            },
            {
              "internalType": "string",
              "name": "imageUrl",
              "type": "string"
            },
            {
              "internalType": "string",
              "name": "externalUrl",
              "type": "string"
            },
            {
              "internalType": "string",
              "name": "backgroundColor",
              "type": "string"
            },
            {
              "internalType": "string",
              "name": "attributes",
              "type": "string"
            }
          ],
          "internalType": "struct MojoCore.NFT[]",
          "name": "",
          "type": "tuple[]"
        }
      ],
      "stateMutability": "view",
      "type": "function"
    },
    {
      "inputs": [
        {
          "internalType": "uint256",
          "name": "tokenId",
          "type": "uint256"
        }
      ],
      "name": "getApproved",
      "outputs": [
        {
          "internalType": "address",
          "name": "",
          "type": "address"
        }
      ],
      "stateMutability": "view",
      "type": "function"
    },
    {
      "inputs": [
        {
          "internalType": "address",
          "name": "owner",
          "type": "address"
        },
        {
          "internalType": "address",
          "name": "operator",
          "type": "address"
        }
      ],
      "name": "isApprovedForAll",
      "outputs": [
        {
          "internalType": "bool",
          "name": "",
          "type": "bool"
        }
      ],
      "stateMutability": "view",
      "type": "function"
    },
    {
      "inputs": [],
      "name": "name",
      "outputs": [
        {
          "internalType": "string",
          "name": "",
          "type": "string"
        }
      ],
      "stateMutability": "view",
      "type": "function"
    },
    {
      "inputs": [
        {
          "internalType": "uint256",
          "name": "",
          "type": "uint256"
        }
      ],
      "name": "nfts",
      "outputs": [
        {
          "internalType": "uint256",
          "name": "tokenId",
          "type": "uint256"
        },
        {
          "internalType": "string",
          "name": "name",
          "type": "string"
        },
        {
          "internalType": "string",
          "name": "description",
          "type": "string"
        },
        {
          "internalType": "string",
          "name": "imageUrl",
          "type": "string"
        },
        {
          "internalType": "string",
          "name": "externalUrl",
          "type": "string"
        },
        {
          "internalType": "string",
          "name": "backgroundColor",
          "type": "string"
        },
        {
          "internalType": "string",
          "name": "attributes",
          "type": "string"
        }
      ],
      "stateMutability": "view",
      "type": "function"
    },
    {
      "inputs": [],
      "name": "owner",
      "outputs": [
        {
          "internalType": "address",
          "name": "",
          "type": "address"
        }
      ],
      "stateMutability": "view",
      "type": "function"
    },
    {
      "inputs": [
        {
          "internalType": "uint256",
          "name": "tokenId",
          "type": "uint256"
        }
      ],
      "name": "ownerOf",
      "outputs": [
        {
          "internalType": "address",
          "name": "",
          "type": "address"
        }
      ],
      "stateMutability": "view",
      "type": "function"
    },
    {
      "inputs": [],
      "name": "renounceOwnership",
      "outputs": [],
      "stateMutability": "nonpayable",
      "type": "function"
    },
    {
      "inputs": [
        {
          "internalType": "address",
          "name": "to",
          "type": "address"
        },
        {
          "components": [
            {
              "internalType": "uint256",
              "name": "tokenId",
              "type": "uint256"
            },
            {
              "internalType": "string",
              "name": "name",
              "type": "string"
            },
            {
              "internalType": "string",
              "name": "description",
              "type": "string"
            },
            {
              "internalType": "string",
              "name": "imageUrl",
              "type": "string"
            },
            {
              "internalType": "string",
              "name": "externalUrl",
              "type": "string"
            },
            {
              "internalType": "string",
              "name": "backgroundColor",
              "type": "string"
            },
            {
              "internalType": "string",
              "name": "attributes",
              "type": "string"
            }
          ],
          "internalType": "struct MojoCore.NFT",
          "name": "nft",
          "type": "tuple"
        }
      ],
      "name": "safeMint",
      "outputs": [],
      "stateMutability": "nonpayable",
      "type": "function"
    },
    {
      "inputs": [
        {
          "internalType": "address",
          "name": "from",
          "type": "address"
        },
        {
          "internalType": "address",
          "name": "to",
          "type": "address"
        },
        {
          "internalType": "uint256",
          "name": "tokenId",
          "type": "uint256"
        }
      ],
      "name": "safeTransferFrom",
      "outputs": [],
      "stateMutability": "nonpayable",
      "type": "function"
    },
    {
      "inputs": [
        {
          "internalType": "address",
          "name": "from",
          "type": "address"
        },
        {
          "internalType": "address",
          "name": "to",
          "type": "address"
        },
        {
          "internalType": "uint256",
          "name": "tokenId",
          "type": "uint256"
        },
        {
          "internalType": "bytes",
          "name": "data",
          "type": "bytes"
        }
      ],
      "name": "safeTransferFrom",
      "outputs": [],
      "stateMutability": "nonpayable",
      "type": "function"
    },
    {
      "inputs": [
        {
          "internalType": "address",
          "name": "operator",
          "type": "address"
        },
        {
          "internalType": "bool",
          "name": "approved",
          "type": "bool"
        }
      ],
      "name": "setApprovalForAll",
      "outputs": [],
      "stateMutability": "nonpayable",
      "type": "function"
    },
    {
      "inputs": [
        {
          "internalType": "string",
          "name": "attributes",
          "type": "string"
        }
      ],
      "name": "setAttributes",
      "outputs": [],
      "stateMutability": "nonpayable",
      "type": "function"
    },
    {
      "inputs": [
        {
          "internalType": "bytes4",
          "name": "interfaceId",
          "type": "bytes4"
        }
      ],
      "name": "supportsInterface",
      "outputs": [
        {
          "internalType": "bool",
          "name": "",
          "type": "bool"
        }
      ],
      "stateMutability": "view",
      "type": "function"
    },
    {
      "inputs": [],
      "name": "symbol",
      "outputs": [
        {
          "internalType": "string",
          "name": "",
          "type": "string"
        }
      ],
      "stateMutability": "view",
      "type": "function"
    },
    {
      "inputs": [
        {
          "internalType": "uint256",
          "name": "tokenId",
          "type": "uint256"
        }
      ],
      "name": "tokenURI",
      "outputs": [
        {
          "internalType": "string",
          "name": "",
          "type": "string"
        }
      ],
      "stateMutability": "view",
      "type": "function"
    },
    {
      "inputs": [
        {
          "internalType": "address",
          "name": "from",
          "type": "address"
        },
        {
          "internalType": "address",
          "name": "to",
          "type": "address"
        },
        {
          "internalType": "uint256",
          "name": "tokenId",
          "type": "uint256"
        }
      ],
      "name": "transferFrom",
      "outputs": [],
      "stateMutability": "nonpayable",
      "type": "function"
    },
    {
      "inputs": [
        {
          "internalType": "address",
          "name": "newOwner",
          "type": "address"
        }
      ],
      "name": "transferOwnership",
      "outputs": [],
      "stateMutability": "nonpayable",
      "type": "function"
    },
    {
      "inputs": [
        {
          "components": [
            {
              "internalType": "uint256",
              "name": "tokenId",
              "type": "uint256"
            },
            {
              "internalType": "string",
              "name": "name",
              "type": "string"
            },
            {
              "internalType": "string",
              "name": "description",
              "type": "string"
            },
            {
              "internalType": "string",
              "name": "imageUrl",
              "type": "string"
            },
            {
              "internalType": "string",
              "name": "externalUrl",
              "type": "string"
            },
            {
              "internalType": "string",
              "name": "backgroundColor",
              "type": "string"
            },
            {
              "internalType": "string",
              "name": "attributes",
              "type": "string"
            }
          ],
          "internalType": "struct MojoCore.NFT",
          "name": "nft",
          "type": "tuple"
        }
      ],
      "name": "updateNFT",
      "outputs": [],
      "stateMutability": "nonpayable",
      "type": "function"
    }
  ],
  "bytecode": "0x60806040526040518060600160405280602a8152602001620059e5602a9139600a90816200002e9190620008ee565b506040518060400160405280600481526020017f6d6f6a6f00000000000000000000000000000000000000000000000000000000815250600f9081620000759190620008ee565b503480156200008357600080fd5b5060405162005a0f38038062005a0f8339818101604052810190620000a9919062000a3f565b6040518060400160405280600781526020017f4d6f6a6f4e4654000000000000000000000000000000000000000000000000008152506040518060400160405280600481526020017f6d4e4654000000000000000000000000000000000000000000000000000000008152508160009081620001269190620008ee565b508060019081620001389190620008ee565b5050506200015b6200014f6200042d60201b60201c565b6200043560201b60201c565b80600960006101000a81548173ffffffffffffffffffffffffffffffffffffffff021916908373ffffffffffffffffffffffffffffffffffffffff160217905550600960009054906101000a900473ffffffffffffffffffffffffffffffffffffffff1673ffffffffffffffffffffffffffffffffffffffff16633a9151b030600f620001f346620004fb60201b620019b11760201c565b6040516020016200020692919062000c86565b6040516020818303038152906040526040518363ffffffff1660e01b81526004016200023492919062000d51565b6020604051808303816000875af115801562000254573d6000803e3d6000fd5b505050506040513d601f19601f820116820180604052508101906200027a919062000db6565b600c81905550600f6200029846620004fb60201b620019b11760201c565b620002b0600c54620004fb60201b620019b11760201c565b604051602001620002c49392919062000de8565b604051602081830303815290604052600b9081620002e39190620008ee565b50600960009054906101000a900473ffffffffffffffffffffffffffffffffffffffff1673ffffffffffffffffffffffffffffffffffffffff16633a9151b0306200033946620004fb60201b620019b11760201c565b6040516020016200034b919062000fea565b6040516020818303038152906040526040518363ffffffff1660e01b81526004016200037992919062000d51565b6020604051808303816000875af115801562000399573d6000803e3d6000fd5b505050506040513d601f19601f82011682018060405250810190620003bf919062000db6565b600e81905550620003db46620004fb60201b620019b11760201c565b620003f3600e54620004fb60201b620019b11760201c565b6040516020016200040692919062001047565b604051602081830303815290604052600d9081620004259190620008ee565b505062001273565b600033905090565b6000600760009054906101000a900473ffffffffffffffffffffffffffffffffffffffff16905081600760006101000a81548173ffffffffffffffffffffffffffffffffffffffff021916908373ffffffffffffffffffffffffffffffffffffffff1602179055508173ffffffffffffffffffffffffffffffffffffffff168173ffffffffffffffffffffffffffffffffffffffff167f8be0079c531659141344cd1fd0a4f28419497f9722a3daafe3b4186f6b6457e060405160405180910390a35050565b60606000820362000544576040518060400160405280600181526020017f300000000000000000000000000000000000000000000000000000000000000081525090506200066f565b600082905060005b600082146200057c5780806200056290620010c0565b915050600a826200057491906200113c565b91506200054c565b60008167ffffffffffffffff8111156200059b576200059a6200067f565b5b6040519080825280601f01601f191660200182016040528015620005ce5781602001600182028036833780820191505090505b5090505b600085146200066857600182620005ea919062001174565b9150600a85620005fb9190620011af565b6030620006099190620011e7565b60f81b81838151811062000622576200062162001244565b5b60200101907effffffffffffffffffffffffffffffffffffffffffffffffffffffffffffff1916908160001a905350600a856200066091906200113c565b9450620005d2565b8093505050505b919050565b600081519050919050565b7f4e487b7100000000000000000000000000000000000000000000000000000000600052604160045260246000fd5b7f4e487b7100000000000000000000000000000000000000000000000000000000600052602260045260246000fd5b60006002820490506001821680620006f657607f821691505b6020821081036200070c576200070b620006ae565b5b50919050565b60008190508160005260206000209050919050565b60006020601f8301049050919050565b600082821b905092915050565b600060088302620007767fffffffffffffffffffffffffffffffffffffffffffffffffffffffffffffffff8262000737565b62000782868362000737565b95508019841693508086168417925050509392505050565b6000819050919050565b6000819050919050565b6000620007cf620007c9620007c3846200079a565b620007a4565b6200079a565b9050919050565b6000819050919050565b620007eb83620007ae565b62000803620007fa82620007d6565b84845462000744565b825550505050565b600090565b6200081a6200080b565b62000827818484620007e0565b505050565b5b818110156200084f576200084360008262000810565b6001810190506200082d565b5050565b601f8211156200089e57620008688162000712565b620008738462000727565b8101602085101562000883578190505b6200089b620008928562000727565b8301826200082c565b50505b505050565b600082821c905092915050565b6000620008c360001984600802620008a3565b1980831691505092915050565b6000620008de8383620008b0565b9150826002028217905092915050565b620008f98262000674565b67ffffffffffffffff8111156200091557620009146200067f565b5b620009218254620006dd565b6200092e82828562000853565b600060209050601f83116001811462000966576000841562000951578287015190505b6200095d8582620008d0565b865550620009cd565b601f198416620009768662000712565b60005b82811015620009a05784890151825560018201915060208501945060208101905062000979565b86831015620009c05784890151620009bc601f891682620008b0565b8355505b6001600288020188555050505b505050505050565b600080fd5b600073ffffffffffffffffffffffffffffffffffffffff82169050919050565b600062000a0782620009da565b9050919050565b62000a1981620009fa565b811462000a2557600080fd5b50565b60008151905062000a398162000a0e565b92915050565b60006020828403121562000a585762000a57620009d5565b5b600062000a688482850162000a28565b91505092915050565b7f435245415445205441424c452000000000000000000000000000000000000000815250565b600081905092915050565b6000815462000ab181620006dd565b62000abd818662000a97565b9450600182166000811462000adb576001811462000af15762000b28565b60ff198316865281151582028601935062000b28565b62000afc8562000712565b60005b8381101562000b205781548189015260018201915060208101905062000aff565b838801955050505b50505092915050565b7f5f00000000000000000000000000000000000000000000000000000000000000815250565b60005b8381101562000b7757808201518184015260208101905062000b5a565b8381111562000b87576000848401525b50505050565b600062000b9a8262000674565b62000ba6818562000a97565b935062000bb881856020860162000b57565b80840191505092915050565b7f2028696420696e742c206e616d6520746578742c206465736372697074696f6e60008201527f20746578742c20696d61676520746578742c2065787465726e616c5f75726c2060208201527f746578742c206261636b67726f756e645f636f6c6f7220746578742c2061747460408201527f726962757465732074657874293b000000000000000000000000000000000000606082015250565b600062000c6e606e8362000a97565b915062000c7b8262000bc4565b606e82019050919050565b600062000c938262000a71565b600d8201915062000ca5828562000aa2565b915062000cb28262000b31565b60018201915062000cc4828462000b8d565b915062000cd18262000c5f565b91508190509392505050565b62000ce881620009fa565b82525050565b600082825260208201905092915050565b6000601f19601f8301169050919050565b600062000d1d8262000674565b62000d29818562000cee565b935062000d3b81856020860162000b57565b62000d468162000cff565b840191505092915050565b600060408201905062000d68600083018562000cdd565b818103602083015262000d7c818462000d10565b90509392505050565b62000d90816200079a565b811462000d9c57600080fd5b50565b60008151905062000db08162000d85565b92915050565b60006020828403121562000dcf5762000dce620009d5565b5b600062000ddf8482850162000d9f565b91505092915050565b600062000df6828662000aa2565b915062000e038262000b31565b60018201915062000e15828562000b8d565b915062000e228262000b31565b60018201915062000e34828462000b8d565b9150819050949350505050565b7f435245415445205441424c45206d6f6a6f5f6d656469615f6d65746100000000815250565b7f2028696420696e742c206d61785f696e766f636174696f6e7320696e742c207260008201527f6f79616c747920696e742c2073616c65735f746f74616c2c20696e742074697460208201527f6c6520746578742c2063617465676f727920746578742c206c6963656e73652060408201527f746578742c207765627369746520746578742c206c6f6e675f6465736372697060608201527f74696f6e20746578742c20707265766965775f75726c20746578742c2061756460808201527f696f5f766964656f5f7479706520746578742c20617564696f5f766964656f5f60a08201527f75726c20746578742c207265736f6c7574696f6e20746578742c20647572617460c08201527f696f6e20746578742c2073697a6520746578742c20637265617465645f61742060e08201527f74657874293b000000000000000000000000000000000000000000000000000061010082015250565b600062000fd16101068362000a97565b915062000fde8262000e67565b61010682019050919050565b600062000ff78262000e41565b601c8201915062001009828462000b8d565b9150620010168262000fc1565b915081905092915050565b7f6d6f6a6f5f6d656469615f6d6574610000000000000000000000000000000000815250565b6000620010548262001021565b600f8201915062001066828562000b8d565b9150620010738262000b31565b60018201915062001085828462000b8d565b91508190509392505050565b7f4e487b7100000000000000000000000000000000000000000000000000000000600052601160045260246000fd5b6000620010cd826200079a565b91507fffffffffffffffffffffffffffffffffffffffffffffffffffffffffffffffff820362001102576200110162001091565b5b600182019050919050565b7f4e487b7100000000000000000000000000000000000000000000000000000000600052601260045260246000fd5b600062001149826200079a565b915062001156836200079a565b9250826200116957620011686200110d565b5b828204905092915050565b600062001181826200079a565b91506200118e836200079a565b925082821015620011a457620011a362001091565b5b828203905092915050565b6000620011bc826200079a565b9150620011c9836200079a565b925082620011dc57620011db6200110d565b5b828206905092915050565b6000620011f4826200079a565b915062001201836200079a565b9250827fffffffffffffffffffffffffffffffffffffffffffffffffffffffffffffffff0382111562001239576200123862001091565b5b828201905092915050565b7f4e487b7100000000000000000000000000000000000000000000000000000000600052603260045260246000fd5b61476280620012836000396000f3fe608060405234801561001057600080fd5b50600436106101375760003560e01c8063715018a6116100b8578063b88d4fde1161007c578063b88d4fde14610340578063c87b56dd1461035c578063dac968161461038c578063e310bb36146103a8578063e985e9c5146103c4578063f2fde38b146103f457610137565b8063715018a6146102c0578063732e8d73146102ca5780638da5cb5b146102e857806395d89b4114610306578063a22cb4651461032457610137565b806323b872dd116100ff57806323b872dd146101f2578063265aa6211461020e57806342842e0e146102445780636352211e1461026057806370a082311461029057610137565b806301ffc9a71461013c57806306fdde031461016c578063081812fc1461018a578063095ea7b3146101ba5780631677e261146101d6575b600080fd5b61015660048036038101906101519190612804565b610410565b604051610163919061284c565b60405180910390f35b6101746104f2565b6040516101819190612900565b60405180910390f35b6101a4600480360381019061019f9190612958565b610584565b6040516101b191906129c6565b60405180910390f35b6101d460048036038101906101cf9190612a0d565b6105ca565b005b6101f060048036038101906101eb9190612ce8565b6106e1565b005b61020c60048036038101906102079190612d44565b610846565b005b61022860048036038101906102239190612958565b6108a6565b60405161023b9796959493929190612da6565b60405180910390f35b61025e60048036038101906102599190612d44565b610c28565b005b61027a60048036038101906102759190612958565b610c48565b60405161028791906129c6565b60405180910390f35b6102aa60048036038101906102a59190612e3f565b610cf9565b6040516102b79190612e6c565b60405180910390f35b6102c8610db0565b005b6102d2610dc4565b6040516102df9190613061565b60405180910390f35b6102f0611199565b6040516102fd91906129c6565b60405180910390f35b61030e6111c3565b60405161031b9190612900565b60405180910390f35b61033e600480360381019061033991906130af565b611255565b005b61035a60048036038101906103559190613190565b61126b565b005b61037660048036038101906103719190612958565b6112cd565b6040516103839190612900565b60405180910390f35b6103a660048036038101906103a19190613213565b6115ba565b005b6103c260048036038101906103bd91906132bc565b6117d7565b005b6103de60048036038101906103d99190613309565b61189a565b6040516103eb919061284c565b60405180910390f35b61040e60048036038101906104099190612e3f565b61192e565b005b60007f80ac58cd000000000000000000000000000000000000000000000000000000007bffffffffffffffffffffffffffffffffffffffffffffffffffffffff1916827bffffffffffffffffffffffffffffffffffffffffffffffffffffffff191614806104db57507f5b5e139f000000000000000000000000000000000000000000000000000000007bffffffffffffffffffffffffffffffffffffffffffffffffffffffff1916827bffffffffffffffffffffffffffffffffffffffffffffffffffffffff1916145b806104eb57506104ea82611b11565b5b9050919050565b60606000805461050190613378565b80601f016020809104026020016040519081016040528092919081815260200182805461052d90613378565b801561057a5780601f1061054f5761010080835404028352916020019161057a565b820191906000526020600020905b81548152906001019060200180831161055d57829003601f168201915b5050505050905090565b600061058f82611b7b565b6004600083815260200190815260200160002060009054906101000a900473ffffffffffffffffffffffffffffffffffffffff169050919050565b60006105d582610c48565b90508073ffffffffffffffffffffffffffffffffffffffff168373ffffffffffffffffffffffffffffffffffffffff1603610645576040517f08c379a000000000000000000000000000000000000000000000000000000000815260040161063c9061341b565b60405180910390fd5b8073ffffffffffffffffffffffffffffffffffffffff16610664611bc6565b73ffffffffffffffffffffffffffffffffffffffff16148061069357506106928161068d611bc6565b61189a565b5b6106d2576040517f08c379a00000000000000000000000000000000000000000000000000000000081526004016106c9906134ad565b60405180910390fd5b6106dc8383611bce565b505050565b60006106ed6008611c87565b9050600960009054906101000a900473ffffffffffffffffffffffffffffffffffffffff1673ffffffffffffffffffffffffffffffffffffffff1663eaf5d04e30600c54600b61073c866119b1565b8760200151886040015189606001518a608001518b60a00151600d60405160200161076e9897969594939291906136ab565b6040516020818303038152906040526040518463ffffffff1660e01b815260040161079b939291906137a0565b600060405180830381600087803b1580156107b557600080fd5b505af11580156107c9573d6000803e3d6000fd5b505050506107e7838260405180602001604052806000815250611c95565b6107f16008611cf0565b3373ffffffffffffffffffffffffffffffffffffffff167f061b141191d79859f7cc6256c1b9e5f380052197831efe9135841c0ff4de7e6342836040516108399291906137de565b60405180910390a2505050565b610857610851611bc6565b82611d06565b610896576040517f08c379a000000000000000000000000000000000000000000000000000000000815260040161088d90613879565b60405180910390fd5b6108a1838383611d9b565b505050565b601081815481106108b657600080fd5b90600052602060002090600702016000915090508060000154908060010180546108df90613378565b80601f016020809104026020016040519081016040528092919081815260200182805461090b90613378565b80156109585780601f1061092d57610100808354040283529160200191610958565b820191906000526020600020905b81548152906001019060200180831161093b57829003601f168201915b50505050509080600201805461096d90613378565b80601f016020809104026020016040519081016040528092919081815260200182805461099990613378565b80156109e65780601f106109bb576101008083540402835291602001916109e6565b820191906000526020600020905b8154815290600101906020018083116109c957829003601f168201915b5050505050908060030180546109fb90613378565b80601f0160208091040260200160405190810160405280929190818152602001828054610a2790613378565b8015610a745780601f10610a4957610100808354040283529160200191610a74565b820191906000526020600020905b815481529060010190602001808311610a5757829003601f168201915b505050505090806004018054610a8990613378565b80601f0160208091040260200160405190810160405280929190818152602001828054610ab590613378565b8015610b025780601f10610ad757610100808354040283529160200191610b02565b820191906000526020600020905b815481529060010190602001808311610ae557829003601f168201915b505050505090806005018054610b1790613378565b80601f0160208091040260200160405190810160405280929190818152602001828054610b4390613378565b8015610b905780601f10610b6557610100808354040283529160200191610b90565b820191906000526020600020905b815481529060010190602001808311610b7357829003601f168201915b505050505090806006018054610ba590613378565b80601f0160208091040260200160405190810160405280929190818152602001828054610bd190613378565b8015610c1e5780601f10610bf357610100808354040283529160200191610c1e565b820191906000526020600020905b815481529060010190602001808311610c0157829003601f168201915b5050505050905087565b610c438383836040518060200160405280600081525061126b565b505050565b6000806002600084815260200190815260200160002060009054906101000a900473ffffffffffffffffffffffffffffffffffffffff169050600073ffffffffffffffffffffffffffffffffffffffff168173ffffffffffffffffffffffffffffffffffffffff1603610cf0576040517f08c379a0000000000000000000000000000000000000000000000000000000008152600401610ce7906138e5565b60405180910390fd5b80915050919050565b60008073ffffffffffffffffffffffffffffffffffffffff168273ffffffffffffffffffffffffffffffffffffffff1603610d69576040517f08c379a0000000000000000000000000000000000000000000000000000000008152600401610d6090613977565b60405180910390fd5b600360008373ffffffffffffffffffffffffffffffffffffffff1673ffffffffffffffffffffffffffffffffffffffff168152602001908152602001600020549050919050565b610db8612001565b610dc2600061207f565b565b60606010805480602002602001604051908101604052809291908181526020016000905b8282101561119057838290600052602060002090600702016040518060e001604052908160008201548152602001600182018054610e2590613378565b80601f0160208091040260200160405190810160405280929190818152602001828054610e5190613378565b8015610e9e5780601f10610e7357610100808354040283529160200191610e9e565b820191906000526020600020905b815481529060010190602001808311610e8157829003601f168201915b50505050508152602001600282018054610eb790613378565b80601f0160208091040260200160405190810160405280929190818152602001828054610ee390613378565b8015610f305780601f10610f0557610100808354040283529160200191610f30565b820191906000526020600020905b815481529060010190602001808311610f1357829003601f168201915b50505050508152602001600382018054610f4990613378565b80601f0160208091040260200160405190810160405280929190818152602001828054610f7590613378565b8015610fc25780601f10610f9757610100808354040283529160200191610fc2565b820191906000526020600020905b815481529060010190602001808311610fa557829003601f168201915b50505050508152602001600482018054610fdb90613378565b80601f016020809104026020016040519081016040528092919081815260200182805461100790613378565b80156110545780601f1061102957610100808354040283529160200191611054565b820191906000526020600020905b81548152906001019060200180831161103757829003601f168201915b5050505050815260200160058201805461106d90613378565b80601f016020809104026020016040519081016040528092919081815260200182805461109990613378565b80156110e65780601f106110bb576101008083540402835291602001916110e6565b820191906000526020600020905b8154815290600101906020018083116110c957829003601f168201915b505050505081526020016006820180546110ff90613378565b80601f016020809104026020016040519081016040528092919081815260200182805461112b90613378565b80156111785780601f1061114d57610100808354040283529160200191611178565b820191906000526020600020905b81548152906001019060200180831161115b57829003601f168201915b50505050508152505081526020019060010190610de8565b50505050905090565b6000600760009054906101000a900473ffffffffffffffffffffffffffffffffffffffff16905090565b6060600180546111d290613378565b80601f01602080910402602001604051908101604052809291908181526020018280546111fe90613378565b801561124b5780601f106112205761010080835404028352916020019161124b565b820191906000526020600020905b81548152906001019060200180831161122e57829003601f168201915b5050505050905090565b611267611260611bc6565b8383612145565b5050565b61127c611276611bc6565b83611d06565b6112bb576040517f08c379a00000000000000000000000000000000000000000000000000000000081526004016112b290613879565b60405180910390fd5b6112c7848484846122b1565b50505050565b60606112d88261230d565b611317576040517f08c379a000000000000000000000000000000000000000000000000000000000815260040161130e90613a09565b60405180910390fd5b6000611321612379565b9050600060405180602001604052806000815250905060006040518060e001604052806040518060400160405280600281526020017f696400000000000000000000000000000000000000000000000000000000000081525081526020016040518060400160405280600481526020017f6e616d650000000000000000000000000000000000000000000000000000000081525081526020016040518060400160405280600b81526020017f6465736372697074696f6e00000000000000000000000000000000000000000081525081526020016040518060400160405280600581526020017f696d61676500000000000000000000000000000000000000000000000000000081525081526020016040518060400160405280600d81526020017f65787465726e616c5f6c696e6b0000000000000000000000000000000000000081525081526020016040518060400160405280601081526020017f6261636b67726f756e645f636f6c6f720000000000000000000000000000000081525081526020016040518060400160405280600a81526020017f6174747269627574657300000000000000000000000000000000000000000000815250815250905060005b600781101561158057600081111561151957826040516020016115079190613a4f565b60405160208183030381529060405292505b8282826007811061152d5761152c613a75565b5b602002015183836007811061154557611544613a75565b5b602002015160405160200161155c93929190613af0565b6040516020818303038152906040529250808061157890613b6e565b9150506114e4565b508282600b61158e886119b1565b6040516020016115a19493929190613c4e565b6040516020818303038152906040529350505050919050565b3373ffffffffffffffffffffffffffffffffffffffff163073ffffffffffffffffffffffffffffffffffffffff16636352211e83600001516040518263ffffffff1660e01b815260040161160e9190612e6c565b602060405180830381865afa15801561162b573d6000803e3d6000fd5b505050506040513d601f19601f8201168201806040525081019061164f9190613cdd565b73ffffffffffffffffffffffffffffffffffffffff16146116a5576040517f08c379a000000000000000000000000000000000000000000000000000000000815260040161169c90613d56565b60405180910390fd5b600960009054906101000a900473ffffffffffffffffffffffffffffffffffffffff1673ffffffffffffffffffffffffffffffffffffffff1663eaf5d04e30600c54600b85602001518660400151876060015188608001518960a0015161170f8b600001516119b1565b6040516020016117259796959493929190613ea6565b6040516020818303038152906040526040518463ffffffff1660e01b8152600401611752939291906137a0565b600060405180830381600087803b15801561176c57600080fd5b505af1158015611780573d6000803e3d6000fd5b505050503373ffffffffffffffffffffffffffffffffffffffff167f1c81fa93757ed76c409a98dfd00a10688a47d76bc5d1e2a626835aa9485065da42836040516117cc929190614042565b60405180910390a250565b6117df612001565b600960009054906101000a900473ffffffffffffffffffffffffffffffffffffffff1673ffffffffffffffffffffffffffffffffffffffff1663eaf5d04e30600c54600b8686604051602001611837939291906140e3565b6040516020818303038152906040526040518463ffffffff1660e01b8152600401611864939291906137a0565b600060405180830381600087803b15801561187e57600080fd5b505af1158015611892573d6000803e3d6000fd5b505050505050565b6000600560008473ffffffffffffffffffffffffffffffffffffffff1673ffffffffffffffffffffffffffffffffffffffff16815260200190815260200160002060008373ffffffffffffffffffffffffffffffffffffffff1673ffffffffffffffffffffffffffffffffffffffff16815260200190815260200160002060009054906101000a900460ff16905092915050565b611936612001565b600073ffffffffffffffffffffffffffffffffffffffff168173ffffffffffffffffffffffffffffffffffffffff16036119a5576040517f08c379a000000000000000000000000000000000000000000000000000000000815260040161199c906141a8565b60405180910390fd5b6119ae8161207f565b50565b6060600082036119f8576040518060400160405280600181526020017f30000000000000000000000000000000000000000000000000000000000000008152509050611b0c565b600082905060005b60008214611a2a578080611a1390613b6e565b915050600a82611a2391906141f7565b9150611a00565b60008167ffffffffffffffff811115611a4657611a45612a52565b5b6040519080825280601f01601f191660200182016040528015611a785781602001600182028036833780820191505090505b5090505b60008514611b0557600182611a919190614228565b9150600a85611aa0919061425c565b6030611aac919061428d565b60f81b818381518110611ac257611ac1613a75565b5b60200101907effffffffffffffffffffffffffffffffffffffffffffffffffffffffffffff1916908160001a905350600a85611afe91906141f7565b9450611a7c565b8093505050505b919050565b60007f01ffc9a7000000000000000000000000000000000000000000000000000000007bffffffffffffffffffffffffffffffffffffffffffffffffffffffff1916827bffffffffffffffffffffffffffffffffffffffffffffffffffffffff1916149050919050565b611b848161230d565b611bc3576040517f08c379a0000000000000000000000000000000000000000000000000000000008152600401611bba906138e5565b60405180910390fd5b50565b600033905090565b816004600083815260200190815260200160002060006101000a81548173ffffffffffffffffffffffffffffffffffffffff021916908373ffffffffffffffffffffffffffffffffffffffff160217905550808273ffffffffffffffffffffffffffffffffffffffff16611c4183610c48565b73ffffffffffffffffffffffffffffffffffffffff167f8c5be1e5ebec7d5bd14f71427d1e84f3dd0314c0f7b2291e5b200ac8c7c3b92560405160405180910390a45050565b600081600001549050919050565b611c9f838361240b565b611cac60008484846125e4565b611ceb576040517f08c379a0000000000000000000000000000000000000000000000000000000008152600401611ce290614355565b60405180910390fd5b505050565b6001816000016000828254019250508190555050565b600080611d1283610c48565b90508073ffffffffffffffffffffffffffffffffffffffff168473ffffffffffffffffffffffffffffffffffffffff161480611d545750611d53818561189a565b5b80611d9257508373ffffffffffffffffffffffffffffffffffffffff16611d7a84610584565b73ffffffffffffffffffffffffffffffffffffffff16145b91505092915050565b8273ffffffffffffffffffffffffffffffffffffffff16611dbb82610c48565b73ffffffffffffffffffffffffffffffffffffffff1614611e11576040517f08c379a0000000000000000000000000000000000000000000000000000000008152600401611e08906143e7565b60405180910390fd5b600073ffffffffffffffffffffffffffffffffffffffff168273ffffffffffffffffffffffffffffffffffffffff1603611e80576040517f08c379a0000000000000000000000000000000000000000000000000000000008152600401611e7790614479565b60405180910390fd5b611e8b83838361276b565b611e96600082611bce565b6001600360008573ffffffffffffffffffffffffffffffffffffffff1673ffffffffffffffffffffffffffffffffffffffff1681526020019081526020016000206000828254611ee69190614228565b925050819055506001600360008473ffffffffffffffffffffffffffffffffffffffff1673ffffffffffffffffffffffffffffffffffffffff1681526020019081526020016000206000828254611f3d919061428d565b92505081905550816002600083815260200190815260200160002060006101000a81548173ffffffffffffffffffffffffffffffffffffffff021916908373ffffffffffffffffffffffffffffffffffffffff160217905550808273ffffffffffffffffffffffffffffffffffffffff168473ffffffffffffffffffffffffffffffffffffffff167fddf252ad1be2c89b69c2b068fc378daa952ba7f163c4a11628f55a4df523b3ef60405160405180910390a4611ffc838383612770565b505050565b612009611bc6565b73ffffffffffffffffffffffffffffffffffffffff16612027611199565b73ffffffffffffffffffffffffffffffffffffffff161461207d576040517f08c379a0000000000000000000000000000000000000000000000000000000008152600401612074906144e5565b60405180910390fd5b565b6000600760009054906101000a900473ffffffffffffffffffffffffffffffffffffffff16905081600760006101000a81548173ffffffffffffffffffffffffffffffffffffffff021916908373ffffffffffffffffffffffffffffffffffffffff1602179055508173ffffffffffffffffffffffffffffffffffffffff168173ffffffffffffffffffffffffffffffffffffffff167f8be0079c531659141344cd1fd0a4f28419497f9722a3daafe3b4186f6b6457e060405160405180910390a35050565b8173ffffffffffffffffffffffffffffffffffffffff168373ffffffffffffffffffffffffffffffffffffffff16036121b3576040517f08c379a00000000000000000000000000000000000000000000000000000000081526004016121aa90614551565b60405180910390fd5b80600560008573ffffffffffffffffffffffffffffffffffffffff1673ffffffffffffffffffffffffffffffffffffffff16815260200190815260200160002060008473ffffffffffffffffffffffffffffffffffffffff1673ffffffffffffffffffffffffffffffffffffffff16815260200190815260200160002060006101000a81548160ff0219169083151502179055508173ffffffffffffffffffffffffffffffffffffffff168373ffffffffffffffffffffffffffffffffffffffff167f17307eab39ab6107e8899845ad3d59bd9653f200f220920489ca2b5937696c31836040516122a4919061284c565b60405180910390a3505050565b6122bc848484611d9b565b6122c8848484846125e4565b612307576040517f08c379a00000000000000000000000000000000000000000000000000000000081526004016122fe90614355565b60405180910390fd5b50505050565b60008073ffffffffffffffffffffffffffffffffffffffff166002600084815260200190815260200160002060009054906101000a900473ffffffffffffffffffffffffffffffffffffffff1673ffffffffffffffffffffffffffffffffffffffff1614159050919050565b6060600a805461238890613378565b80601f01602080910402602001604051908101604052809291908181526020018280546123b490613378565b80156124015780601f106123d657610100808354040283529160200191612401565b820191906000526020600020905b8154815290600101906020018083116123e457829003601f168201915b5050505050905090565b600073ffffffffffffffffffffffffffffffffffffffff168273ffffffffffffffffffffffffffffffffffffffff160361247a576040517f08c379a0000000000000000000000000000000000000000000000000000000008152600401612471906145bd565b60405180910390fd5b6124838161230d565b156124c3576040517f08c379a00000000000000000000000000000000000000000000000000000000081526004016124ba90614629565b60405180910390fd5b6124cf6000838361276b565b6001600360008473ffffffffffffffffffffffffffffffffffffffff1673ffffffffffffffffffffffffffffffffffffffff168152602001908152602001600020600082825461251f919061428d565b92505081905550816002600083815260200190815260200160002060006101000a81548173ffffffffffffffffffffffffffffffffffffffff021916908373ffffffffffffffffffffffffffffffffffffffff160217905550808273ffffffffffffffffffffffffffffffffffffffff16600073ffffffffffffffffffffffffffffffffffffffff167fddf252ad1be2c89b69c2b068fc378daa952ba7f163c4a11628f55a4df523b3ef60405160405180910390a46125e060008383612770565b5050565b60006126058473ffffffffffffffffffffffffffffffffffffffff16612775565b1561275e578373ffffffffffffffffffffffffffffffffffffffff1663150b7a0261262e611bc6565b8786866040518563ffffffff1660e01b8152600401612650949392919061469e565b6020604051808303816000875af192505050801561268c57506040513d601f19601f8201168201806040525081019061268991906146ff565b60015b61270e573d80600081146126bc576040519150601f19603f3d011682016040523d82523d6000602084013e6126c1565b606091505b506000815103612706576040517f08c379a00000000000000000000000000000000000000000000000000000000081526004016126fd90614355565b60405180910390fd5b805181602001fd5b63150b7a0260e01b7bffffffffffffffffffffffffffffffffffffffffffffffffffffffff1916817bffffffffffffffffffffffffffffffffffffffffffffffffffffffff191614915050612763565b600190505b949350505050565b505050565b505050565b6000808273ffffffffffffffffffffffffffffffffffffffff163b119050919050565b6000604051905090565b600080fd5b600080fd5b60007fffffffff0000000000000000000000000000000000000000000000000000000082169050919050565b6127e1816127ac565b81146127ec57600080fd5b50565b6000813590506127fe816127d8565b92915050565b60006020828403121561281a576128196127a2565b5b6000612828848285016127ef565b91505092915050565b60008115159050919050565b61284681612831565b82525050565b6000602082019050612861600083018461283d565b92915050565b600081519050919050565b600082825260208201905092915050565b60005b838110156128a1578082015181840152602081019050612886565b838111156128b0576000848401525b50505050565b6000601f19601f8301169050919050565b60006128d282612867565b6128dc8185612872565b93506128ec818560208601612883565b6128f5816128b6565b840191505092915050565b6000602082019050818103600083015261291a81846128c7565b905092915050565b6000819050919050565b61293581612922565b811461294057600080fd5b50565b6000813590506129528161292c565b92915050565b60006020828403121561296e5761296d6127a2565b5b600061297c84828501612943565b91505092915050565b600073ffffffffffffffffffffffffffffffffffffffff82169050919050565b60006129b082612985565b9050919050565b6129c0816129a5565b82525050565b60006020820190506129db60008301846129b7565b92915050565b6129ea816129a5565b81146129f557600080fd5b50565b600081359050612a07816129e1565b92915050565b60008060408385031215612a2457612a236127a2565b5b6000612a32858286016129f8565b9250506020612a4385828601612943565b9150509250929050565b600080fd5b7f4e487b7100000000000000000000000000000000000000000000000000000000600052604160045260246000fd5b612a8a826128b6565b810181811067ffffffffffffffff82111715612aa957612aa8612a52565b5b80604052505050565b6000612abc612798565b9050612ac88282612a81565b919050565b600080fd5b600080fd5b600080fd5b600067ffffffffffffffff821115612af757612af6612a52565b5b612b00826128b6565b9050602081019050919050565b82818337600083830152505050565b6000612b2f612b2a84612adc565b612ab2565b905082815260208101848484011115612b4b57612b4a612ad7565b5b612b56848285612b0d565b509392505050565b600082601f830112612b7357612b72612ad2565b5b8135612b83848260208601612b1c565b91505092915050565b600060e08284031215612ba257612ba1612a4d565b5b612bac60e0612ab2565b90506000612bbc84828501612943565b600083015250602082013567ffffffffffffffff811115612be057612bdf612acd565b5b612bec84828501612b5e565b602083015250604082013567ffffffffffffffff811115612c1057612c0f612acd565b5b612c1c84828501612b5e565b604083015250606082013567ffffffffffffffff811115612c4057612c3f612acd565b5b612c4c84828501612b5e565b606083015250608082013567ffffffffffffffff811115612c7057612c6f612acd565b5b612c7c84828501612b5e565b60808301525060a082013567ffffffffffffffff811115612ca057612c9f612acd565b5b612cac84828501612b5e565b60a08301525060c082013567ffffffffffffffff811115612cd057612ccf612acd565b5b612cdc84828501612b5e565b60c08301525092915050565b60008060408385031215612cff57612cfe6127a2565b5b6000612d0d858286016129f8565b925050602083013567ffffffffffffffff811115612d2e57612d2d6127a7565b5b612d3a85828601612b8c565b9150509250929050565b600080600060608486031215612d5d57612d5c6127a2565b5b6000612d6b868287016129f8565b9350506020612d7c868287016129f8565b9250506040612d8d86828701612943565b9150509250925092565b612da081612922565b82525050565b600060e082019050612dbb600083018a612d97565b8181036020830152612dcd81896128c7565b90508181036040830152612de181886128c7565b90508181036060830152612df581876128c7565b90508181036080830152612e0981866128c7565b905081810360a0830152612e1d81856128c7565b905081810360c0830152612e3181846128c7565b905098975050505050505050565b600060208284031215612e5557612e546127a2565b5b6000612e63848285016129f8565b91505092915050565b6000602082019050612e816000830184612d97565b92915050565b600081519050919050565b600082825260208201905092915050565b6000819050602082019050919050565b612ebc81612922565b82525050565b600082825260208201905092915050565b6000612ede82612867565b612ee88185612ec2565b9350612ef8818560208601612883565b612f01816128b6565b840191505092915050565b600060e083016000830151612f246000860182612eb3565b5060208301518482036020860152612f3c8282612ed3565b91505060408301518482036040860152612f568282612ed3565b91505060608301518482036060860152612f708282612ed3565b91505060808301518482036080860152612f8a8282612ed3565b91505060a083015184820360a0860152612fa48282612ed3565b91505060c083015184820360c0860152612fbe8282612ed3565b9150508091505092915050565b6000612fd78383612f0c565b905092915050565b6000602082019050919050565b6000612ff782612e87565b6130018185612e92565b93508360208202850161301385612ea3565b8060005b8581101561304f57848403895281516130308582612fcb565b945061303b83612fdf565b925060208a01995050600181019050613017565b50829750879550505050505092915050565b6000602082019050818103600083015261307b8184612fec565b905092915050565b61308c81612831565b811461309757600080fd5b50565b6000813590506130a981613083565b92915050565b600080604083850312156130c6576130c56127a2565b5b60006130d4858286016129f8565b92505060206130e58582860161309a565b9150509250929050565b600067ffffffffffffffff82111561310a57613109612a52565b5b613113826128b6565b9050602081019050919050565b600061313361312e846130ef565b612ab2565b90508281526020810184848401111561314f5761314e612ad7565b5b61315a848285612b0d565b509392505050565b600082601f83011261317757613176612ad2565b5b8135613187848260208601613120565b91505092915050565b600080600080608085870312156131aa576131a96127a2565b5b60006131b8878288016129f8565b94505060206131c9878288016129f8565b93505060406131da87828801612943565b925050606085013567ffffffffffffffff8111156131fb576131fa6127a7565b5b61320787828801613162565b91505092959194509250565b600060208284031215613229576132286127a2565b5b600082013567ffffffffffffffff811115613247576132466127a7565b5b61325384828501612b8c565b91505092915050565b600080fd5b600080fd5b60008083601f84011261327c5761327b612ad2565b5b8235905067ffffffffffffffff8111156132995761329861325c565b5b6020830191508360018202830111156132b5576132b4613261565b5b9250929050565b600080602083850312156132d3576132d26127a2565b5b600083013567ffffffffffffffff8111156132f1576132f06127a7565b5b6132fd85828601613266565b92509250509250929050565b600080604083850312156133205761331f6127a2565b5b600061332e858286016129f8565b925050602061333f858286016129f8565b9150509250929050565b7f4e487b7100000000000000000000000000000000000000000000000000000000600052602260045260246000fd5b6000600282049050600182168061339057607f821691505b6020821081036133a3576133a2613349565b5b50919050565b7f4552433732313a20617070726f76616c20746f2063757272656e74206f776e6560008201527f7200000000000000000000000000000000000000000000000000000000000000602082015250565b6000613405602183612872565b9150613410826133a9565b604082019050919050565b60006020820190508181036000830152613434816133f8565b9050919050565b7f4552433732313a20617070726f76652063616c6c6572206973206e6f7420746f60008201527f6b656e206f776e6572206e6f7220617070726f76656420666f7220616c6c0000602082015250565b6000613497603e83612872565b91506134a28261343b565b604082019050919050565b600060208201905081810360008301526134c68161348a565b9050919050565b7f494e5345525420494e544f200000000000000000000000000000000000000000815250565b600081905092915050565b60008190508160005260206000209050919050565b6000815461352081613378565b61352a81866134f3565b94506001821660008114613545576001811461355a5761358d565b60ff198316865281151582028601935061358d565b613563856134fe565b60005b8381101561358557815481890152600182019150602081019050613566565b838801955050505b50505092915050565b7f202869642c206e616d652c206465736372697074696f6e2c20696d6167652c2060008201527f65787465726e616c5f75726c2c206261636b67726f756e645f636f6c6f722c2060208201527f61747472696275746573292056414c5545532028000000000000000000000000604082015250565b60006136186054836134f3565b915061362382613596565b605482019050919050565b600061363982612867565b61364381856134f3565b9350613653818560208601612883565b80840191505092915050565b7f2c20000000000000000000000000000000000000000000000000000000000000815250565b7f2c20290000000000000000000000000000000000000000000000000000000000815250565b60006136b6826134cd565b600c820191506136c6828b613513565b91506136d18261360b565b91506136dd828a61362e565b91506136e88261365f565b6002820191506136f8828961362e565b91506137038261365f565b600282019150613713828861362e565b915061371e8261365f565b60028201915061372e828761362e565b91506137398261365f565b600282019150613749828661362e565b91506137548261365f565b600282019150613764828561362e565b915061376f8261365f565b60028201915061377f8284613513565b915061378a82613685565b6003820191508190509998505050505050505050565b60006060820190506137b560008301866129b7565b6137c26020830185612d97565b81810360408301526137d481846128c7565b9050949350505050565b60006040820190506137f36000830185612d97565b6138006020830184612d97565b9392505050565b7f4552433732313a2063616c6c6572206973206e6f7420746f6b656e206f776e6560008201527f72206e6f7220617070726f766564000000000000000000000000000000000000602082015250565b6000613863602e83612872565b915061386e82613807565b604082019050919050565b6000602082019050818103600083015261389281613856565b9050919050565b7f4552433732313a20696e76616c696420746f6b656e2049440000000000000000600082015250565b60006138cf601883612872565b91506138da82613899565b602082019050919050565b600060208201905081810360008301526138fe816138c2565b9050919050565b7f4552433732313a2061646472657373207a65726f206973206e6f74206120766160008201527f6c6964206f776e65720000000000000000000000000000000000000000000000602082015250565b6000613961602983612872565b915061396c82613905565b604082019050919050565b6000602082019050818103600083015261399081613954565b9050919050565b7f45524337323155524953746f726167653a2055524920717565727920666f722060008201527f6e6f6e6578697374656e7420746f6b656e000000000000000000000000000000602082015250565b60006139f3603183612872565b91506139fe82613997565b604082019050919050565b60006020820190508181036000830152613a22816139e6565b9050919050565b7f2c00000000000000000000000000000000000000000000000000000000000000815250565b6000613a5b828461362e565b9150613a6682613a29565b60018201915081905092915050565b7f4e487b7100000000000000000000000000000000000000000000000000000000600052603260045260246000fd5b7f2700000000000000000000000000000000000000000000000000000000000000815250565b7f272c000000000000000000000000000000000000000000000000000000000000815250565b6000613afc828661362e565b9150613b0782613aa4565b600182019150613b17828561362e565b9150613b2282613aca565b600282019150613b32828461362e565b9150819050949350505050565b7f4e487b7100000000000000000000000000000000000000000000000000000000600052601160045260246000fd5b6000613b7982612922565b91507fffffffffffffffffffffffffffffffffffffffffffffffffffffffffffffffff8203613bab57613baa613b3f565b5b600182019050919050565b7f53454c4543542532300000000000000000000000000000000000000000000000815250565b7f25323046524f4d25323000000000000000000000000000000000000000000000815250565b7f2532305748455245253230696425334400000000000000000000000000000000815250565b7f266d6f64653d6c69737400000000000000000000000000000000000000000000815250565b6000613c5a828761362e565b9150613c6582613bb6565b600982019150613c75828661362e565b9150613c8082613bdc565b600a82019150613c908285613513565b9150613c9b82613c02565b601082019150613cab828461362e565b9150613cb682613c28565b600a8201915081905095945050505050565b600081519050613cd7816129e1565b92915050565b600060208284031215613cf357613cf26127a2565b5b6000613d0184828501613cc8565b91505092915050565b7f496e76616c6964206f776e657200000000000000000000000000000000000000600082015250565b6000613d40600d83612872565b9150613d4b82613d0a565b602082019050919050565b60006020820190508181036000830152613d6f81613d33565b9050919050565b7f5550444154452000000000000000000000000000000000000000000000000000815250565b7f20534554206e616d65203d200000000000000000000000000000000000000000815250565b7f2c206465736372697074696f6e203d2000000000000000000000000000000000815250565b7f2c20696d616765203d2000000000000000000000000000000000000000000000815250565b7f2c2065787465726e616c5f75726c203d20000000000000000000000000000000815250565b7f2c206261636b67726f756e645f636f6c6f72203d200000000000000000000000815250565b7f205748455245206964203d200000000000000000000000000000000000000000815250565b7f3b00000000000000000000000000000000000000000000000000000000000000815250565b6000613eb182613d76565b600782019150613ec1828a613513565b9150613ecc82613d9c565b600c82019150613edc828961362e565b9150613ee782613dc2565b601082019150613ef7828861362e565b9150613f0282613de8565b600a82019150613f12828761362e565b9150613f1d82613e0e565b601182019150613f2d828661362e565b9150613f3882613e34565b601582019150613f48828561362e565b9150613f5382613e5a565b600c82019150613f63828461362e565b9150613f6e82613e80565b60018201915081905098975050505050505050565b600060e083016000830151613f9b6000860182612eb3565b5060208301518482036020860152613fb38282612ed3565b91505060408301518482036040860152613fcd8282612ed3565b91505060608301518482036060860152613fe78282612ed3565b915050608083015184820360808601526140018282612ed3565b91505060a083015184820360a086015261401b8282612ed3565b91505060c083015184820360c08601526140358282612ed3565b9150508091505092915050565b60006040820190506140576000830185612d97565b81810360208301526140698184613f83565b90509392505050565b7f7570646174652000000000000000000000000000000000000000000000000000815250565b7f207365742061747472696275746573203d200000000000000000000000000000815250565b60006140ca83856134f3565b93506140d7838584612b0d565b82840190509392505050565b60006140ee82614072565b6007820191506140fe8286613513565b915061410982614098565b60128201915061411a8284866140be565b915061412582613e80565b600182019150819050949350505050565b7f4f776e61626c653a206e6577206f776e657220697320746865207a65726f206160008201527f6464726573730000000000000000000000000000000000000000000000000000602082015250565b6000614192602683612872565b915061419d82614136565b604082019050919050565b600060208201905081810360008301526141c181614185565b9050919050565b7f4e487b7100000000000000000000000000000000000000000000000000000000600052601260045260246000fd5b600061420282612922565b915061420d83612922565b92508261421d5761421c6141c8565b5b828204905092915050565b600061423382612922565b915061423e83612922565b92508282101561425157614250613b3f565b5b828203905092915050565b600061426782612922565b915061427283612922565b925082614282576142816141c8565b5b828206905092915050565b600061429882612922565b91506142a383612922565b9250827fffffffffffffffffffffffffffffffffffffffffffffffffffffffffffffffff038211156142d8576142d7613b3f565b5b828201905092915050565b7f4552433732313a207472616e7366657220746f206e6f6e20455243373231526560008201527f63656976657220696d706c656d656e7465720000000000000000000000000000602082015250565b600061433f603283612872565b915061434a826142e3565b604082019050919050565b6000602082019050818103600083015261436e81614332565b9050919050565b7f4552433732313a207472616e736665722066726f6d20696e636f72726563742060008201527f6f776e6572000000000000000000000000000000000000000000000000000000602082015250565b60006143d1602583612872565b91506143dc82614375565b604082019050919050565b60006020820190508181036000830152614400816143c4565b9050919050565b7f4552433732313a207472616e7366657220746f20746865207a65726f2061646460008201527f7265737300000000000000000000000000000000000000000000000000000000602082015250565b6000614463602483612872565b915061446e82614407565b604082019050919050565b6000602082019050818103600083015261449281614456565b9050919050565b7f4f776e61626c653a2063616c6c6572206973206e6f7420746865206f776e6572600082015250565b60006144cf602083612872565b91506144da82614499565b602082019050919050565b600060208201905081810360008301526144fe816144c2565b9050919050565b7f4552433732313a20617070726f766520746f2063616c6c657200000000000000600082015250565b600061453b601983612872565b915061454682614505565b602082019050919050565b6000602082019050818103600083015261456a8161452e565b9050919050565b7f4552433732313a206d696e7420746f20746865207a65726f2061646472657373600082015250565b60006145a7602083612872565b91506145b282614571565b602082019050919050565b600060208201905081810360008301526145d68161459a565b9050919050565b7f4552433732313a20746f6b656e20616c7265616479206d696e74656400000000600082015250565b6000614613601c83612872565b915061461e826145dd565b602082019050919050565b6000602082019050818103600083015261464281614606565b9050919050565b600081519050919050565b600082825260208201905092915050565b600061467082614649565b61467a8185614654565b935061468a818560208601612883565b614693816128b6565b840191505092915050565b60006080820190506146b360008301876129b7565b6146c060208301866129b7565b6146cd6040830185612d97565b81810360608301526146df8184614665565b905095945050505050565b6000815190506146f9816127d8565b92915050565b600060208284031215614715576147146127a2565b5b6000614723848285016146ea565b9150509291505056fea26469706673582212206846076592c463f0eaeb0c099d17a20524ab7a69592c1cdf9b2718ac28ccc8ca64736f6c634300080f003368747470733a2f2f746573746e65742e7461626c656c616e642e6e6574776f726b2f71756572793f733d",
  "linkReferences": {},
  "deployedLinkReferences": {}
}