{
  "_format": "hh-sol-artifact-1",
  "contractName": "MojoCore",
  "sourceName": "contracts/MojoCore.sol",
  "abi": [
    {
      "inputs": [
        {
          "internalType": "address",
          "name": "registry",
          "type": "address"
        }
      ],
      "stateMutability": "nonpayable",
      "type": "constructor"
    },
    {
      "anonymous": false,
      "inputs": [
        {
          "indexed": true,
          "internalType": "address",
          "name": "owner",
          "type": "address"
        },
        {
          "indexed": true,
          "internalType": "address",
          "name": "approved",
          "type": "address"
        },
        {
          "indexed": true,
          "internalType": "uint256",
          "name": "tokenId",
          "type": "uint256"
        }
      ],
      "name": "Approval",
      "type": "event"
    },
    {
      "anonymous": false,
      "inputs": [
        {
          "indexed": true,
          "internalType": "address",
          "name": "owner",
          "type": "address"
        },
        {
          "indexed": true,
          "internalType": "address",
          "name": "operator",
          "type": "address"
        },
        {
          "indexed": false,
          "internalType": "bool",
          "name": "approved",
          "type": "bool"
        }
      ],
      "name": "ApprovalForAll",
      "type": "event"
    },
    {
      "anonymous": false,
      "inputs": [
        {
          "indexed": true,
          "internalType": "address",
          "name": "from",
          "type": "address"
        },
        {
          "indexed": false,
          "internalType": "uint256",
          "name": "timestamp",
          "type": "uint256"
        },
        {
          "indexed": false,
          "internalType": "uint256",
          "name": "tokenId",
          "type": "uint256"
        }
      ],
      "name": "NewNftMinted",
      "type": "event"
    },
    {
      "anonymous": false,
      "inputs": [
        {
          "indexed": true,
          "internalType": "address",
          "name": "from",
          "type": "address"
        },
        {
          "indexed": false,
          "internalType": "uint256",
          "name": "timestamp",
          "type": "uint256"
        },
        {
          "components": [
            {
              "internalType": "uint256",
              "name": "tokenId",
              "type": "uint256"
            },
            {
              "internalType": "string",
              "name": "name",
              "type": "string"
            },
            {
              "internalType": "string",
              "name": "description",
              "type": "string"
            },
            {
              "internalType": "string",
              "name": "imageUrl",
              "type": "string"
            },
            {
              "internalType": "string",
              "name": "externalUrl",
              "type": "string"
            },
            {
              "internalType": "string",
              "name": "backgroundColor",
              "type": "string"
            },
            {
              "internalType": "string",
              "name": "attributes",
              "type": "string"
            }
          ],
          "indexed": false,
          "internalType": "struct MojoCore.NFT",
          "name": "nft",
          "type": "tuple"
        }
      ],
      "name": "NftUpdated",
      "type": "event"
    },
    {
      "anonymous": false,
      "inputs": [
        {
          "indexed": true,
          "internalType": "address",
          "name": "previousOwner",
          "type": "address"
        },
        {
          "indexed": true,
          "internalType": "address",
          "name": "newOwner",
          "type": "address"
        }
      ],
      "name": "OwnershipTransferred",
      "type": "event"
    },
    {
      "anonymous": false,
      "inputs": [
        {
          "indexed": true,
          "internalType": "address",
          "name": "from",
          "type": "address"
        },
        {
          "indexed": true,
          "internalType": "address",
          "name": "to",
          "type": "address"
        },
        {
          "indexed": true,
          "internalType": "uint256",
          "name": "tokenId",
          "type": "uint256"
        }
      ],
      "name": "Transfer",
      "type": "event"
    },
    {
      "inputs": [
        {
          "internalType": "address",
          "name": "to",
          "type": "address"
        },
        {
          "internalType": "uint256",
          "name": "tokenId",
          "type": "uint256"
        }
      ],
      "name": "approve",
      "outputs": [],
      "stateMutability": "nonpayable",
      "type": "function"
    },
    {
      "inputs": [
        {
          "internalType": "address",
          "name": "owner",
          "type": "address"
        }
      ],
      "name": "balanceOf",
      "outputs": [
        {
          "internalType": "uint256",
          "name": "",
          "type": "uint256"
        }
      ],
      "stateMutability": "view",
      "type": "function"
    },
    {
      "inputs": [],
      "name": "getAllNfts",
      "outputs": [
        {
          "components": [
            {
              "internalType": "uint256",
              "name": "tokenId",
              "type": "uint256"
            },
            {
              "internalType": "string",
              "name": "name",
              "type": "string"
            },
            {
              "internalType": "string",
              "name": "description",
              "type": "string"
            },
            {
              "internalType": "string",
              "name": "imageUrl",
              "type": "string"
            },
            {
              "internalType": "string",
              "name": "externalUrl",
              "type": "string"
            },
            {
              "internalType": "string",
              "name": "backgroundColor",
              "type": "string"
            },
            {
              "internalType": "string",
              "name": "attributes",
              "type": "string"
            }
          ],
          "internalType": "struct MojoCore.NFT[]",
          "name": "",
          "type": "tuple[]"
        }
      ],
      "stateMutability": "view",
      "type": "function"
    },
    {
      "inputs": [
        {
          "internalType": "uint256",
          "name": "tokenId",
          "type": "uint256"
        }
      ],
      "name": "getApproved",
      "outputs": [
        {
          "internalType": "address",
          "name": "",
          "type": "address"
        }
      ],
      "stateMutability": "view",
      "type": "function"
    },
    {
      "inputs": [
        {
          "internalType": "address",
          "name": "owner",
          "type": "address"
        },
        {
          "internalType": "address",
          "name": "operator",
          "type": "address"
        }
      ],
      "name": "isApprovedForAll",
      "outputs": [
        {
          "internalType": "bool",
          "name": "",
          "type": "bool"
        }
      ],
      "stateMutability": "view",
      "type": "function"
    },
    {
      "inputs": [],
      "name": "metadataAttrURI",
      "outputs": [
        {
          "internalType": "string",
          "name": "",
          "type": "string"
        }
      ],
      "stateMutability": "view",
      "type": "function"
    },
    {
      "inputs": [],
      "name": "metadataURI",
      "outputs": [
        {
          "internalType": "string",
          "name": "",
          "type": "string"
        }
      ],
      "stateMutability": "view",
      "type": "function"
    },
    {
      "inputs": [],
      "name": "name",
      "outputs": [
        {
          "internalType": "string",
          "name": "",
          "type": "string"
        }
      ],
      "stateMutability": "view",
      "type": "function"
    },
    {
      "inputs": [
        {
          "internalType": "uint256",
          "name": "",
          "type": "uint256"
        }
      ],
      "name": "nfts",
      "outputs": [
        {
          "internalType": "uint256",
          "name": "tokenId",
          "type": "uint256"
        },
        {
          "internalType": "string",
          "name": "name",
          "type": "string"
        },
        {
          "internalType": "string",
          "name": "description",
          "type": "string"
        },
        {
          "internalType": "string",
          "name": "imageUrl",
          "type": "string"
        },
        {
          "internalType": "string",
          "name": "externalUrl",
          "type": "string"
        },
        {
          "internalType": "string",
          "name": "backgroundColor",
          "type": "string"
        },
        {
          "internalType": "string",
          "name": "attributes",
          "type": "string"
        }
      ],
      "stateMutability": "view",
      "type": "function"
    },
    {
      "inputs": [],
      "name": "owner",
      "outputs": [
        {
          "internalType": "address",
          "name": "",
          "type": "address"
        }
      ],
      "stateMutability": "view",
      "type": "function"
    },
    {
      "inputs": [
        {
          "internalType": "uint256",
          "name": "tokenId",
          "type": "uint256"
        }
      ],
      "name": "ownerOf",
      "outputs": [
        {
          "internalType": "address",
          "name": "",
          "type": "address"
        }
      ],
      "stateMutability": "view",
      "type": "function"
    },
    {
      "inputs": [],
      "name": "renounceOwnership",
      "outputs": [],
      "stateMutability": "nonpayable",
      "type": "function"
    },
    {
      "inputs": [
        {
          "internalType": "address",
          "name": "to",
          "type": "address"
        },
        {
          "components": [
            {
              "internalType": "uint256",
              "name": "tokenId",
              "type": "uint256"
            },
            {
              "internalType": "string",
              "name": "name",
              "type": "string"
            },
            {
              "internalType": "string",
              "name": "description",
              "type": "string"
            },
            {
              "internalType": "string",
              "name": "imageUrl",
              "type": "string"
            },
            {
              "internalType": "string",
              "name": "externalUrl",
              "type": "string"
            },
            {
              "internalType": "string",
              "name": "backgroundColor",
              "type": "string"
            },
            {
              "internalType": "string",
              "name": "attributes",
              "type": "string"
            }
          ],
          "internalType": "struct MojoCore.NFT",
          "name": "nft",
          "type": "tuple"
        }
      ],
      "name": "safeMint",
      "outputs": [
        {
          "internalType": "uint256",
          "name": "",
          "type": "uint256"
        }
      ],
      "stateMutability": "nonpayable",
      "type": "function"
    },
    {
      "inputs": [
        {
          "internalType": "address",
          "name": "from",
          "type": "address"
        },
        {
          "internalType": "address",
          "name": "to",
          "type": "address"
        },
        {
          "internalType": "uint256",
          "name": "tokenId",
          "type": "uint256"
        }
      ],
      "name": "safeTransferFrom",
      "outputs": [],
      "stateMutability": "nonpayable",
      "type": "function"
    },
    {
      "inputs": [
        {
          "internalType": "address",
          "name": "from",
          "type": "address"
        },
        {
          "internalType": "address",
          "name": "to",
          "type": "address"
        },
        {
          "internalType": "uint256",
          "name": "tokenId",
          "type": "uint256"
        },
        {
          "internalType": "bytes",
          "name": "data",
          "type": "bytes"
        }
      ],
      "name": "safeTransferFrom",
      "outputs": [],
      "stateMutability": "nonpayable",
      "type": "function"
    },
    {
      "inputs": [
        {
          "internalType": "address",
          "name": "operator",
          "type": "address"
        },
        {
          "internalType": "bool",
          "name": "approved",
          "type": "bool"
        }
      ],
      "name": "setApprovalForAll",
      "outputs": [],
      "stateMutability": "nonpayable",
      "type": "function"
    },
    {
      "inputs": [
        {
          "internalType": "string",
          "name": "attributes",
          "type": "string"
        }
      ],
      "name": "setAttributes",
      "outputs": [],
      "stateMutability": "nonpayable",
      "type": "function"
    },
    {
      "inputs": [
        {
          "internalType": "bytes4",
          "name": "interfaceId",
          "type": "bytes4"
        }
      ],
      "name": "supportsInterface",
      "outputs": [
        {
          "internalType": "bool",
          "name": "",
          "type": "bool"
        }
      ],
      "stateMutability": "view",
      "type": "function"
    },
    {
      "inputs": [],
      "name": "symbol",
      "outputs": [
        {
          "internalType": "string",
          "name": "",
          "type": "string"
        }
      ],
      "stateMutability": "view",
      "type": "function"
    },
    {
      "inputs": [
        {
          "internalType": "uint256",
          "name": "tokenId",
          "type": "uint256"
        }
      ],
      "name": "tokenURI",
      "outputs": [
        {
          "internalType": "string",
          "name": "",
          "type": "string"
        }
      ],
      "stateMutability": "view",
      "type": "function"
    },
    {
      "inputs": [],
      "name": "totalNftCount",
      "outputs": [
        {
          "internalType": "uint256",
          "name": "",
          "type": "uint256"
        }
      ],
      "stateMutability": "view",
      "type": "function"
    },
    {
      "inputs": [
        {
          "internalType": "address",
          "name": "from",
          "type": "address"
        },
        {
          "internalType": "address",
          "name": "to",
          "type": "address"
        },
        {
          "internalType": "uint256",
          "name": "tokenId",
          "type": "uint256"
        }
      ],
      "name": "transferFrom",
      "outputs": [],
      "stateMutability": "nonpayable",
      "type": "function"
    },
    {
      "inputs": [
        {
          "internalType": "address",
          "name": "newOwner",
          "type": "address"
        }
      ],
      "name": "transferOwnership",
      "outputs": [],
      "stateMutability": "nonpayable",
      "type": "function"
    },
    {
      "inputs": [
        {
          "components": [
            {
              "internalType": "uint256",
              "name": "tokenId",
              "type": "uint256"
            },
            {
              "internalType": "string",
              "name": "name",
              "type": "string"
            },
            {
              "internalType": "string",
              "name": "description",
              "type": "string"
            },
            {
              "internalType": "string",
              "name": "imageUrl",
              "type": "string"
            },
            {
              "internalType": "string",
              "name": "externalUrl",
              "type": "string"
            },
            {
              "internalType": "string",
              "name": "backgroundColor",
              "type": "string"
            },
            {
              "internalType": "string",
              "name": "attributes",
              "type": "string"
            }
          ],
          "internalType": "struct MojoCore.NFT",
          "name": "nft",
          "type": "tuple"
        }
      ],
      "name": "updateNFT",
      "outputs": [],
      "stateMutability": "nonpayable",
      "type": "function"
    }
  ],
  "bytecode": "0x60806040526040518060600160405280602a815260200162005ca4602a9139600a9080519060200190620000359291906200069f565b506040518060400160405280600481526020017f6d6f6a6f00000000000000000000000000000000000000000000000000000000815250600f9080519060200190620000839291906200069f565b503480156200009157600080fd5b5060405162005cce38038062005cce8339818101604052810190620000b79190620007b9565b6040518060400160405280600781526020017f4d6f6a6f4e4654000000000000000000000000000000000000000000000000008152506040518060400160405280600481526020017f6d4e46540000000000000000000000000000000000000000000000000000000081525081600090805190602001906200013b9291906200069f565b508060019080519060200190620001549291906200069f565b505050620001776200016b6200045760201b60201c565b6200045f60201b60201c565b80600960006101000a81548173ffffffffffffffffffffffffffffffffffffffff021916908373ffffffffffffffffffffffffffffffffffffffff160217905550600960009054906101000a900473ffffffffffffffffffffffffffffffffffffffff1673ffffffffffffffffffffffffffffffffffffffff16633a9151b030600f6200020f466200052560201b62001c9d1760201c565b6040516020016200022292919062000a81565b6040516020818303038152906040526040518363ffffffff1660e01b81526004016200025092919062000b4c565b6020604051808303816000875af115801562000270573d6000803e3d6000fd5b505050506040513d601f19601f8201168201806040525081019062000296919062000bbb565b600c81905550600f620002b4466200052560201b62001c9d1760201c565b620002cc600c546200052560201b62001c9d1760201c565b604051602001620002e09392919062000bed565b604051602081830303815290604052600b9080519060200190620003069291906200069f565b50600960009054906101000a900473ffffffffffffffffffffffffffffffffffffffff1673ffffffffffffffffffffffffffffffffffffffff16633a9151b0306200035c466200052560201b62001c9d1760201c565b6040516020016200036e919062000e3f565b6040516020818303038152906040526040518363ffffffff1660e01b81526004016200039c92919062000b4c565b6020604051808303816000875af1158015620003bc573d6000803e3d6000fd5b505050506040513d601f19601f82011682018060405250810190620003e2919062000bbb565b600e81905550620003fe466200052560201b62001c9d1760201c565b62000416600e546200052560201b62001c9d1760201c565b6040516020016200042992919062000ea9565b604051602081830303815290604052600d90805190602001906200044f9291906200069f565b505062001105565b600033905090565b6000600760009054906101000a900473ffffffffffffffffffffffffffffffffffffffff16905081600760006101000a81548173ffffffffffffffffffffffffffffffffffffffff021916908373ffffffffffffffffffffffffffffffffffffffff1602179055508173ffffffffffffffffffffffffffffffffffffffff168173ffffffffffffffffffffffffffffffffffffffff167f8be0079c531659141344cd1fd0a4f28419497f9722a3daafe3b4186f6b6457e060405160405180910390a35050565b606060008214156200056f576040518060400160405280600181526020017f300000000000000000000000000000000000000000000000000000000000000081525090506200069a565b600082905060005b60008214620005a75780806200058d9062000f22565b915050600a826200059f919062000f9f565b915062000577565b60008167ffffffffffffffff811115620005c657620005c562000fd7565b5b6040519080825280601f01601f191660200182016040528015620005f95781602001600182028036833780820191505090505b5090505b60008514620006935760018262000615919062001006565b9150600a8562000626919062001041565b603062000634919062001079565b60f81b8183815181106200064d576200064c620010d6565b5b60200101907effffffffffffffffffffffffffffffffffffffffffffffffffffffffffffff1916908160001a905350600a856200068b919062000f9f565b9450620005fd565b8093505050505b919050565b828054620006ad9062000840565b90600052602060002090601f016020900481019282620006d157600085556200071d565b82601f10620006ec57805160ff19168380011785556200071d565b828001600101855582156200071d579182015b828111156200071c578251825591602001919060010190620006ff565b5b5090506200072c919062000730565b5090565b5b808211156200074b57600081600090555060010162000731565b5090565b600080fd5b600073ffffffffffffffffffffffffffffffffffffffff82169050919050565b6000620007818262000754565b9050919050565b620007938162000774565b81146200079f57600080fd5b50565b600081519050620007b38162000788565b92915050565b600060208284031215620007d257620007d16200074f565b5b6000620007e284828501620007a2565b91505092915050565b7f435245415445205441424c452000000000000000000000000000000000000000815250565b7f4e487b7100000000000000000000000000000000000000000000000000000000600052602260045260246000fd5b600060028204905060018216806200085957607f821691505b6020821081141562000870576200086f62000811565b5b50919050565b600081905092915050565b60008190508160005260206000209050919050565b60008154620008a58162000840565b620008b1818662000876565b94506001821660008114620008cf5760018114620008e15762000918565b60ff1983168652818601935062000918565b620008ec8562000881565b60005b838110156200091057815481890152600182019150602081019050620008ef565b838801955050505b50505092915050565b7f5f00000000000000000000000000000000000000000000000000000000000000815250565b600081519050919050565b60005b838110156200097257808201518184015260208101905062000955565b8381111562000982576000848401525b50505050565b6000620009958262000947565b620009a1818562000876565b9350620009b381856020860162000952565b80840191505092915050565b7f2028696420696e742c206e616d6520746578742c206465736372697074696f6e60008201527f20746578742c20696d61676520746578742c2065787465726e616c5f75726c2060208201527f746578742c206261636b67726f756e645f636f6c6f7220746578742c2061747460408201527f7269627574657320746578742c205052494d415259204b45592028696429293b606082015250565b600062000a6960808362000876565b915062000a7682620009bf565b608082019050919050565b600062000a8e82620007eb565b600d8201915062000aa0828562000896565b915062000aad8262000921565b60018201915062000abf828462000988565b915062000acc8262000a5a565b91508190509392505050565b62000ae38162000774565b82525050565b600082825260208201905092915050565b6000601f19601f8301169050919050565b600062000b188262000947565b62000b24818562000ae9565b935062000b3681856020860162000952565b62000b418162000afa565b840191505092915050565b600060408201905062000b63600083018562000ad8565b818103602083015262000b77818462000b0b565b90509392505050565b6000819050919050565b62000b958162000b80565b811462000ba157600080fd5b50565b60008151905062000bb58162000b8a565b92915050565b60006020828403121562000bd45762000bd36200074f565b5b600062000be48482850162000ba4565b91505092915050565b600062000bfb828662000896565b915062000c088262000921565b60018201915062000c1a828562000988565b915062000c278262000921565b60018201915062000c39828462000988565b9150819050949350505050565b7f435245415445205441424c45206d6f6a6f5f6d6574615f61747472696275746560008201527f7300000000000000000000000000000000000000000000000000000000000000602082015250565b600062000ca460218362000876565b915062000cb18262000c46565b602182019050919050565b7f2028696420696e742c206d61785f696e766f636174696f6e7320696e742c207260008201527f6f79616c747920696e742c2073616c65735f746f74616c20696e742c2074697460208201527f6c6520746578742c2063617465676f727920746578742c206c6963656e73652060408201527f746578742c207765627369746520746578742c206c6f6e675f6465736372697060608201527f74696f6e20746578742c20707265766965775f75726c20746578742c2061756460808201527f696f5f766964656f5f7479706520746578742c20617564696f5f766964656f5f60a08201527f75726c20746578742c207265736f6c7574696f6e20746578742c20647572617460c08201527f696f6e20746578742c2073697a6520746578742c20637265617465645f61742060e08201527f746578742c205052494d415259204b45592028696429293b000000000000000061010082015250565b600062000e266101188362000876565b915062000e338262000cbc565b61011882019050919050565b600062000e4c8262000c95565b915062000e598262000921565b60018201915062000e6b828462000988565b915062000e788262000e16565b915081905092915050565b7f6d6f6a6f5f6d656469615f6d6574610000000000000000000000000000000000815250565b600062000eb68262000e83565b600f8201915062000ec8828562000988565b915062000ed58262000921565b60018201915062000ee7828462000988565b91508190509392505050565b7f4e487b7100000000000000000000000000000000000000000000000000000000600052601160045260246000fd5b600062000f2f8262000b80565b91507fffffffffffffffffffffffffffffffffffffffffffffffffffffffffffffffff82141562000f655762000f6462000ef3565b5b600182019050919050565b7f4e487b7100000000000000000000000000000000000000000000000000000000600052601260045260246000fd5b600062000fac8262000b80565b915062000fb98362000b80565b92508262000fcc5762000fcb62000f70565b5b828204905092915050565b7f4e487b7100000000000000000000000000000000000000000000000000000000600052604160045260246000fd5b6000620010138262000b80565b9150620010208362000b80565b92508282101562001036576200103562000ef3565b5b828203905092915050565b60006200104e8262000b80565b91506200105b8362000b80565b9250826200106e576200106d62000f70565b5b828206905092915050565b6000620010868262000b80565b9150620010938362000b80565b9250827fffffffffffffffffffffffffffffffffffffffffffffffffffffffffffffffff03821115620010cb57620010ca62000ef3565b5b828201905092915050565b7f4e487b7100000000000000000000000000000000000000000000000000000000600052603260045260246000fd5b614b8f80620011156000396000f3fe608060405234801561001057600080fd5b50600436106101585760003560e01c806370a08231116100c3578063b88d4fde1161007c578063b88d4fde146103cf578063c87b56dd146103eb578063dac968161461041b578063e310bb3614610437578063e985e9c514610453578063f2fde38b1461048357610158565b806370a082311461031f578063715018a61461034f578063732e8d73146103595780638da5cb5b1461037757806395d89b4114610395578063a22cb465146103b357610158565b8063222d818911610115578063222d81891461024557806323b872dd14610263578063265aa6211461027f578063272ff9c0146102b557806342842e0e146102d35780636352211e146102ef57610158565b806301ffc9a71461015d57806303ee438c1461018d57806306fdde03146101ab578063081812fc146101c9578063095ea7b3146101f95780631677e26114610215575b600080fd5b61017760048036038101906101729190612b98565b61049f565b6040516101849190612be0565b60405180910390f35b610195610581565b6040516101a29190612c94565b60405180910390f35b6101b36105b8565b6040516101c09190612c94565b60405180910390f35b6101e360048036038101906101de9190612cec565b61064a565b6040516101f09190612d5a565b60405180910390f35b610213600480360381019061020e9190612da1565b610690565b005b61022f600480360381019061022a919061307c565b6107a8565b60405161023c91906130e7565b60405180910390f35b61024d610aec565b60405161025a9190612c94565b60405180910390f35b61027d60048036038101906102789190613102565b610b23565b005b61029960048036038101906102949190612cec565b610b83565b6040516102ac9796959493929190613155565b60405180910390f35b6102bd610f05565b6040516102ca91906130e7565b60405180910390f35b6102ed60048036038101906102e89190613102565b610f0b565b005b61030960048036038101906103049190612cec565b610f2b565b6040516103169190612d5a565b60405180910390f35b610339600480360381019061033491906131ee565b610fdd565b60405161034691906130e7565b60405180910390f35b610357611095565b005b6103616110a9565b60405161036e91906133f5565b60405180910390f35b61037f61147e565b60405161038c9190612d5a565b60405180910390f35b61039d6114a8565b6040516103aa9190612c94565b60405180910390f35b6103cd60048036038101906103c89190613443565b61153a565b005b6103e960048036038101906103e49190613524565b611550565b005b61040560048036038101906104009190612cec565b6115b2565b6040516104129190612c94565b60405180910390f35b610435600480360381019061043091906135a7565b61189f565b005b610451600480360381019061044c9190613650565b611ac2565b005b61046d6004803603810190610468919061369d565b611b85565b60405161047a9190612be0565b60405180910390f35b61049d600480360381019061049891906131ee565b611c19565b005b60007f80ac58cd000000000000000000000000000000000000000000000000000000007bffffffffffffffffffffffffffffffffffffffffffffffffffffffff1916827bffffffffffffffffffffffffffffffffffffffffffffffffffffffff1916148061056a57507f5b5e139f000000000000000000000000000000000000000000000000000000007bffffffffffffffffffffffffffffffffffffffffffffffffffffffff1916827bffffffffffffffffffffffffffffffffffffffffffffffffffffffff1916145b8061057a575061057982611dfe565b5b9050919050565b6060600061058d611e68565b905080600b6040516020016105a3929190613834565b60405160208183030381529060405291505090565b6060600080546105c79061376e565b80601f01602080910402602001604051908101604052809291908181526020018280546105f39061376e565b80156106405780601f1061061557610100808354040283529160200191610640565b820191906000526020600020905b81548152906001019060200180831161062357829003601f168201915b5050505050905090565b600061065582611efa565b6004600083815260200190815260200160002060009054906101000a900473ffffffffffffffffffffffffffffffffffffffff169050919050565b600061069b82610f2b565b90508073ffffffffffffffffffffffffffffffffffffffff168373ffffffffffffffffffffffffffffffffffffffff16141561070c576040517f08c379a0000000000000000000000000000000000000000000000000000000008152600401610703906138d9565b60405180910390fd5b8073ffffffffffffffffffffffffffffffffffffffff1661072b611f45565b73ffffffffffffffffffffffffffffffffffffffff16148061075a575061075981610754611f45565b611b85565b5b610799576040517f08c379a00000000000000000000000000000000000000000000000000000000081526004016107909061396b565b60405180910390fd5b6107a38383611f4d565b505050565b6000806107b56008612006565b9050600960009054906101000a900473ffffffffffffffffffffffffffffffffffffffff1673ffffffffffffffffffffffffffffffffffffffff1663eaf5d04e30600c54600b61080486611c9d565b886020015189604001518a606001518b608001518c60a001518d60c00151604051602001610839989796959493929190613a95565b6040516020818303038152906040526040518463ffffffff1660e01b815260040161086693929190613b8a565b600060405180830381600087803b15801561088057600080fd5b505af1158015610894573d6000803e3d6000fd5b505050506108b2848260405180602001604052806000815250612014565b6001601060008282546108c59190613bf7565b9250508190555060006040518060e00160405280838152602001856020015181526020018560400151815260200185606001518152602001856080015181526020018560a001518152602001600d805461091e9061376e565b80601f016020809104026020016040519081016040528092919081815260200182805461094a9061376e565b80156109975780601f1061096c57610100808354040283529160200191610997565b820191906000526020600020905b81548152906001019060200180831161097a57829003601f168201915b5050505050815250905060118190806001815401808255809150506001900390600052602060002090600702016000909190919091506000820151816000015560208201518160010190805190602001906109f3929190612a89565b506040820151816002019080519060200190610a10929190612a89565b506060820151816003019080519060200190610a2d929190612a89565b506080820151816004019080519060200190610a4a929190612a89565b5060a0820151816005019080519060200190610a67929190612a89565b5060c0820151816006019080519060200190610a84929190612a89565b505050610a91600861206f565b3373ffffffffffffffffffffffffffffffffffffffff167f061b141191d79859f7cc6256c1b9e5f380052197831efe9135841c0ff4de7e634284604051610ad9929190613c4d565b60405180910390a2819250505092915050565b60606000610af8611e68565b905080600d604051602001610b0e929190613834565b60405160208183030381529060405291505090565b610b34610b2e611f45565b82612085565b610b73576040517f08c379a0000000000000000000000000000000000000000000000000000000008152600401610b6a90613ce8565b60405180910390fd5b610b7e83838361211a565b505050565b60118181548110610b9357600080fd5b9060005260206000209060070201600091509050806000015490806001018054610bbc9061376e565b80601f0160208091040260200160405190810160405280929190818152602001828054610be89061376e565b8015610c355780601f10610c0a57610100808354040283529160200191610c35565b820191906000526020600020905b815481529060010190602001808311610c1857829003601f168201915b505050505090806002018054610c4a9061376e565b80601f0160208091040260200160405190810160405280929190818152602001828054610c769061376e565b8015610cc35780601f10610c9857610100808354040283529160200191610cc3565b820191906000526020600020905b815481529060010190602001808311610ca657829003601f168201915b505050505090806003018054610cd89061376e565b80601f0160208091040260200160405190810160405280929190818152602001828054610d049061376e565b8015610d515780601f10610d2657610100808354040283529160200191610d51565b820191906000526020600020905b815481529060010190602001808311610d3457829003601f168201915b505050505090806004018054610d669061376e565b80601f0160208091040260200160405190810160405280929190818152602001828054610d929061376e565b8015610ddf5780601f10610db457610100808354040283529160200191610ddf565b820191906000526020600020905b815481529060010190602001808311610dc257829003601f168201915b505050505090806005018054610df49061376e565b80601f0160208091040260200160405190810160405280929190818152602001828054610e209061376e565b8015610e6d5780601f10610e4257610100808354040283529160200191610e6d565b820191906000526020600020905b815481529060010190602001808311610e5057829003601f168201915b505050505090806006018054610e829061376e565b80601f0160208091040260200160405190810160405280929190818152602001828054610eae9061376e565b8015610efb5780601f10610ed057610100808354040283529160200191610efb565b820191906000526020600020905b815481529060010190602001808311610ede57829003601f168201915b5050505050905087565b60105481565b610f2683838360405180602001604052806000815250611550565b505050565b6000806002600084815260200190815260200160002060009054906101000a900473ffffffffffffffffffffffffffffffffffffffff169050600073ffffffffffffffffffffffffffffffffffffffff168173ffffffffffffffffffffffffffffffffffffffff161415610fd4576040517f08c379a0000000000000000000000000000000000000000000000000000000008152600401610fcb90613d54565b60405180910390fd5b80915050919050565b60008073ffffffffffffffffffffffffffffffffffffffff168273ffffffffffffffffffffffffffffffffffffffff16141561104e576040517f08c379a000000000000000000000000000000000000000000000000000000000815260040161104590613de6565b60405180910390fd5b600360008373ffffffffffffffffffffffffffffffffffffffff1673ffffffffffffffffffffffffffffffffffffffff168152602001908152602001600020549050919050565b61109d612381565b6110a760006123ff565b565b60606011805480602002602001604051908101604052809291908181526020016000905b8282101561147557838290600052602060002090600702016040518060e00160405290816000820154815260200160018201805461110a9061376e565b80601f01602080910402602001604051908101604052809291908181526020018280546111369061376e565b80156111835780601f1061115857610100808354040283529160200191611183565b820191906000526020600020905b81548152906001019060200180831161116657829003601f168201915b5050505050815260200160028201805461119c9061376e565b80601f01602080910402602001604051908101604052809291908181526020018280546111c89061376e565b80156112155780601f106111ea57610100808354040283529160200191611215565b820191906000526020600020905b8154815290600101906020018083116111f857829003601f168201915b5050505050815260200160038201805461122e9061376e565b80601f016020809104026020016040519081016040528092919081815260200182805461125a9061376e565b80156112a75780601f1061127c576101008083540402835291602001916112a7565b820191906000526020600020905b81548152906001019060200180831161128a57829003601f168201915b505050505081526020016004820180546112c09061376e565b80601f01602080910402602001604051908101604052809291908181526020018280546112ec9061376e565b80156113395780601f1061130e57610100808354040283529160200191611339565b820191906000526020600020905b81548152906001019060200180831161131c57829003601f168201915b505050505081526020016005820180546113529061376e565b80601f016020809104026020016040519081016040528092919081815260200182805461137e9061376e565b80156113cb5780601f106113a0576101008083540402835291602001916113cb565b820191906000526020600020905b8154815290600101906020018083116113ae57829003601f168201915b505050505081526020016006820180546113e49061376e565b80601f01602080910402602001604051908101604052809291908181526020018280546114109061376e565b801561145d5780601f106114325761010080835404028352916020019161145d565b820191906000526020600020905b81548152906001019060200180831161144057829003601f168201915b505050505081525050815260200190600101906110cd565b50505050905090565b6000600760009054906101000a900473ffffffffffffffffffffffffffffffffffffffff16905090565b6060600180546114b79061376e565b80601f01602080910402602001604051908101604052809291908181526020018280546114e39061376e565b80156115305780601f1061150557610100808354040283529160200191611530565b820191906000526020600020905b81548152906001019060200180831161151357829003601f168201915b5050505050905090565b61154c611545611f45565b83836124c5565b5050565b61156161155b611f45565b83612085565b6115a0576040517f08c379a000000000000000000000000000000000000000000000000000000000815260040161159790613ce8565b60405180910390fd5b6115ac84848484612632565b50505050565b60606115bd8261268e565b6115fc576040517f08c379a00000000000000000000000000000000000000000000000000000000081526004016115f390613e78565b60405180910390fd5b6000611606611e68565b9050600060405180602001604052806000815250905060006040518060e001604052806040518060400160405280600281526020017f696400000000000000000000000000000000000000000000000000000000000081525081526020016040518060400160405280600481526020017f6e616d650000000000000000000000000000000000000000000000000000000081525081526020016040518060400160405280600b81526020017f6465736372697074696f6e00000000000000000000000000000000000000000081525081526020016040518060400160405280600581526020017f696d61676500000000000000000000000000000000000000000000000000000081525081526020016040518060400160405280600d81526020017f65787465726e616c5f6c696e6b0000000000000000000000000000000000000081525081526020016040518060400160405280601081526020017f6261636b67726f756e645f636f6c6f720000000000000000000000000000000081525081526020016040518060400160405280600a81526020017f6174747269627574657300000000000000000000000000000000000000000000815250815250905060005b60078110156118655760008111156117fe57826040516020016117ec9190613ebe565b60405160208183030381529060405292505b8282826007811061181257611811613ee4565b5b602002015183836007811061182a57611829613ee4565b5b602002015160405160200161184193929190613f5f565b6040516020818303038152906040529250808061185d90613fae565b9150506117c9565b508282600b61187388611c9d565b604051602001611886949392919061408f565b6040516020818303038152906040529350505050919050565b3373ffffffffffffffffffffffffffffffffffffffff163073ffffffffffffffffffffffffffffffffffffffff16636352211e83600001516040518263ffffffff1660e01b81526004016118f391906130e7565b602060405180830381865afa158015611910573d6000803e3d6000fd5b505050506040513d601f19601f82011682018060405250810190611934919061411e565b73ffffffffffffffffffffffffffffffffffffffff161461198a576040517f08c379a000000000000000000000000000000000000000000000000000000000815260040161198190614197565b60405180910390fd5b600960009054906101000a900473ffffffffffffffffffffffffffffffffffffffff1673ffffffffffffffffffffffffffffffffffffffff1663eaf5d04e30600c54600b85602001518660400151876060015188608001518960a001518a60c001516119f98c60000151611c9d565b604051602001611a1098979695949392919061430d565b6040516020818303038152906040526040518463ffffffff1660e01b8152600401611a3d93929190613b8a565b600060405180830381600087803b158015611a5757600080fd5b505af1158015611a6b573d6000803e3d6000fd5b505050503373ffffffffffffffffffffffffffffffffffffffff167f1c81fa93757ed76c409a98dfd00a10688a47d76bc5d1e2a626835aa9485065da4283604051611ab79291906144c5565b60405180910390a250565b611aca612381565b600960009054906101000a900473ffffffffffffffffffffffffffffffffffffffff1673ffffffffffffffffffffffffffffffffffffffff1663eaf5d04e30600c54600b8686604051602001611b2293929190614566565b6040516020818303038152906040526040518463ffffffff1660e01b8152600401611b4f93929190613b8a565b600060405180830381600087803b158015611b6957600080fd5b505af1158015611b7d573d6000803e3d6000fd5b505050505050565b6000600560008473ffffffffffffffffffffffffffffffffffffffff1673ffffffffffffffffffffffffffffffffffffffff16815260200190815260200160002060008373ffffffffffffffffffffffffffffffffffffffff1673ffffffffffffffffffffffffffffffffffffffff16815260200190815260200160002060009054906101000a900460ff16905092915050565b611c21612381565b600073ffffffffffffffffffffffffffffffffffffffff168173ffffffffffffffffffffffffffffffffffffffff161415611c91576040517f08c379a0000000000000000000000000000000000000000000000000000000008152600401611c889061462b565b60405180910390fd5b611c9a816123ff565b50565b60606000821415611ce5576040518060400160405280600181526020017f30000000000000000000000000000000000000000000000000000000000000008152509050611df9565b600082905060005b60008214611d17578080611d0090613fae565b915050600a82611d10919061467a565b9150611ced565b60008167ffffffffffffffff811115611d3357611d32612de6565b5b6040519080825280601f01601f191660200182016040528015611d655781602001600182028036833780820191505090505b5090505b60008514611df257600182611d7e91906146ab565b9150600a85611d8d91906146df565b6030611d999190613bf7565b60f81b818381518110611daf57611dae613ee4565b5b60200101907effffffffffffffffffffffffffffffffffffffffffffffffffffffffffffff1916908160001a905350600a85611deb919061467a565b9450611d69565b8093505050505b919050565b60007f01ffc9a7000000000000000000000000000000000000000000000000000000007bffffffffffffffffffffffffffffffffffffffffffffffffffffffff1916827bffffffffffffffffffffffffffffffffffffffffffffffffffffffff1916149050919050565b6060600a8054611e779061376e565b80601f0160208091040260200160405190810160405280929190818152602001828054611ea39061376e565b8015611ef05780601f10611ec557610100808354040283529160200191611ef0565b820191906000526020600020905b815481529060010190602001808311611ed357829003601f168201915b5050505050905090565b611f038161268e565b611f42576040517f08c379a0000000000000000000000000000000000000000000000000000000008152600401611f3990613d54565b60405180910390fd5b50565b600033905090565b816004600083815260200190815260200160002060006101000a81548173ffffffffffffffffffffffffffffffffffffffff021916908373ffffffffffffffffffffffffffffffffffffffff160217905550808273ffffffffffffffffffffffffffffffffffffffff16611fc083610f2b565b73ffffffffffffffffffffffffffffffffffffffff167f8c5be1e5ebec7d5bd14f71427d1e84f3dd0314c0f7b2291e5b200ac8c7c3b92560405160405180910390a45050565b600081600001549050919050565b61201e83836126fa565b61202b60008484846128d4565b61206a576040517f08c379a000000000000000000000000000000000000000000000000000000000815260040161206190614782565b60405180910390fd5b505050565b6001816000016000828254019250508190555050565b60008061209183610f2b565b90508073ffffffffffffffffffffffffffffffffffffffff168473ffffffffffffffffffffffffffffffffffffffff1614806120d357506120d28185611b85565b5b8061211157508373ffffffffffffffffffffffffffffffffffffffff166120f98461064a565b73ffffffffffffffffffffffffffffffffffffffff16145b91505092915050565b8273ffffffffffffffffffffffffffffffffffffffff1661213a82610f2b565b73ffffffffffffffffffffffffffffffffffffffff1614612190576040517f08c379a000000000000000000000000000000000000000000000000000000000815260040161218790614814565b60405180910390fd5b600073ffffffffffffffffffffffffffffffffffffffff168273ffffffffffffffffffffffffffffffffffffffff161415612200576040517f08c379a00000000000000000000000000000000000000000000000000000000081526004016121f7906148a6565b60405180910390fd5b61220b838383612a5c565b612216600082611f4d565b6001600360008573ffffffffffffffffffffffffffffffffffffffff1673ffffffffffffffffffffffffffffffffffffffff168152602001908152602001600020600082825461226691906146ab565b925050819055506001600360008473ffffffffffffffffffffffffffffffffffffffff1673ffffffffffffffffffffffffffffffffffffffff16815260200190815260200160002060008282546122bd9190613bf7565b92505081905550816002600083815260200190815260200160002060006101000a81548173ffffffffffffffffffffffffffffffffffffffff021916908373ffffffffffffffffffffffffffffffffffffffff160217905550808273ffffffffffffffffffffffffffffffffffffffff168473ffffffffffffffffffffffffffffffffffffffff167fddf252ad1be2c89b69c2b068fc378daa952ba7f163c4a11628f55a4df523b3ef60405160405180910390a461237c838383612a61565b505050565b612389611f45565b73ffffffffffffffffffffffffffffffffffffffff166123a761147e565b73ffffffffffffffffffffffffffffffffffffffff16146123fd576040517f08c379a00000000000000000000000000000000000000000000000000000000081526004016123f490614912565b60405180910390fd5b565b6000600760009054906101000a900473ffffffffffffffffffffffffffffffffffffffff16905081600760006101000a81548173ffffffffffffffffffffffffffffffffffffffff021916908373ffffffffffffffffffffffffffffffffffffffff1602179055508173ffffffffffffffffffffffffffffffffffffffff168173ffffffffffffffffffffffffffffffffffffffff167f8be0079c531659141344cd1fd0a4f28419497f9722a3daafe3b4186f6b6457e060405160405180910390a35050565b8173ffffffffffffffffffffffffffffffffffffffff168373ffffffffffffffffffffffffffffffffffffffff161415612534576040517f08c379a000000000000000000000000000000000000000000000000000000000815260040161252b9061497e565b60405180910390fd5b80600560008573ffffffffffffffffffffffffffffffffffffffff1673ffffffffffffffffffffffffffffffffffffffff16815260200190815260200160002060008473ffffffffffffffffffffffffffffffffffffffff1673ffffffffffffffffffffffffffffffffffffffff16815260200190815260200160002060006101000a81548160ff0219169083151502179055508173ffffffffffffffffffffffffffffffffffffffff168373ffffffffffffffffffffffffffffffffffffffff167f17307eab39ab6107e8899845ad3d59bd9653f200f220920489ca2b5937696c31836040516126259190612be0565b60405180910390a3505050565b61263d84848461211a565b612649848484846128d4565b612688576040517f08c379a000000000000000000000000000000000000000000000000000000000815260040161267f90614782565b60405180910390fd5b50505050565b60008073ffffffffffffffffffffffffffffffffffffffff166002600084815260200190815260200160002060009054906101000a900473ffffffffffffffffffffffffffffffffffffffff1673ffffffffffffffffffffffffffffffffffffffff1614159050919050565b600073ffffffffffffffffffffffffffffffffffffffff168273ffffffffffffffffffffffffffffffffffffffff16141561276a576040517f08c379a0000000000000000000000000000000000000000000000000000000008152600401612761906149ea565b60405180910390fd5b6127738161268e565b156127b3576040517f08c379a00000000000000000000000000000000000000000000000000000000081526004016127aa90614a56565b60405180910390fd5b6127bf60008383612a5c565b6001600360008473ffffffffffffffffffffffffffffffffffffffff1673ffffffffffffffffffffffffffffffffffffffff168152602001908152602001600020600082825461280f9190613bf7565b92505081905550816002600083815260200190815260200160002060006101000a81548173ffffffffffffffffffffffffffffffffffffffff021916908373ffffffffffffffffffffffffffffffffffffffff160217905550808273ffffffffffffffffffffffffffffffffffffffff16600073ffffffffffffffffffffffffffffffffffffffff167fddf252ad1be2c89b69c2b068fc378daa952ba7f163c4a11628f55a4df523b3ef60405160405180910390a46128d060008383612a61565b5050565b60006128f58473ffffffffffffffffffffffffffffffffffffffff16612a66565b15612a4f578373ffffffffffffffffffffffffffffffffffffffff1663150b7a0261291e611f45565b8786866040518563ffffffff1660e01b81526004016129409493929190614acb565b6020604051808303816000875af192505050801561297c57506040513d601f19601f820116820180604052508101906129799190614b2c565b60015b6129ff573d80600081146129ac576040519150601f19603f3d011682016040523d82523d6000602084013e6129b1565b606091505b506000815114156129f7576040517f08c379a00000000000000000000000000000000000000000000000000000000081526004016129ee90614782565b60405180910390fd5b805181602001fd5b63150b7a0260e01b7bffffffffffffffffffffffffffffffffffffffffffffffffffffffff1916817bffffffffffffffffffffffffffffffffffffffffffffffffffffffff191614915050612a54565b600190505b949350505050565b505050565b505050565b6000808273ffffffffffffffffffffffffffffffffffffffff163b119050919050565b828054612a959061376e565b90600052602060002090601f016020900481019282612ab75760008555612afe565b82601f10612ad057805160ff1916838001178555612afe565b82800160010185558215612afe579182015b82811115612afd578251825591602001919060010190612ae2565b5b509050612b0b9190612b0f565b5090565b5b80821115612b28576000816000905550600101612b10565b5090565b6000604051905090565b600080fd5b600080fd5b60007fffffffff0000000000000000000000000000000000000000000000000000000082169050919050565b612b7581612b40565b8114612b8057600080fd5b50565b600081359050612b9281612b6c565b92915050565b600060208284031215612bae57612bad612b36565b5b6000612bbc84828501612b83565b91505092915050565b60008115159050919050565b612bda81612bc5565b82525050565b6000602082019050612bf56000830184612bd1565b92915050565b600081519050919050565b600082825260208201905092915050565b60005b83811015612c35578082015181840152602081019050612c1a565b83811115612c44576000848401525b50505050565b6000601f19601f8301169050919050565b6000612c6682612bfb565b612c708185612c06565b9350612c80818560208601612c17565b612c8981612c4a565b840191505092915050565b60006020820190508181036000830152612cae8184612c5b565b905092915050565b6000819050919050565b612cc981612cb6565b8114612cd457600080fd5b50565b600081359050612ce681612cc0565b92915050565b600060208284031215612d0257612d01612b36565b5b6000612d1084828501612cd7565b91505092915050565b600073ffffffffffffffffffffffffffffffffffffffff82169050919050565b6000612d4482612d19565b9050919050565b612d5481612d39565b82525050565b6000602082019050612d6f6000830184612d4b565b92915050565b612d7e81612d39565b8114612d8957600080fd5b50565b600081359050612d9b81612d75565b92915050565b60008060408385031215612db857612db7612b36565b5b6000612dc685828601612d8c565b9250506020612dd785828601612cd7565b9150509250929050565b600080fd5b7f4e487b7100000000000000000000000000000000000000000000000000000000600052604160045260246000fd5b612e1e82612c4a565b810181811067ffffffffffffffff82111715612e3d57612e3c612de6565b5b80604052505050565b6000612e50612b2c565b9050612e5c8282612e15565b919050565b600080fd5b600080fd5b600080fd5b600067ffffffffffffffff821115612e8b57612e8a612de6565b5b612e9482612c4a565b9050602081019050919050565b82818337600083830152505050565b6000612ec3612ebe84612e70565b612e46565b905082815260208101848484011115612edf57612ede612e6b565b5b612eea848285612ea1565b509392505050565b600082601f830112612f0757612f06612e66565b5b8135612f17848260208601612eb0565b91505092915050565b600060e08284031215612f3657612f35612de1565b5b612f4060e0612e46565b90506000612f5084828501612cd7565b600083015250602082013567ffffffffffffffff811115612f7457612f73612e61565b5b612f8084828501612ef2565b602083015250604082013567ffffffffffffffff811115612fa457612fa3612e61565b5b612fb084828501612ef2565b604083015250606082013567ffffffffffffffff811115612fd457612fd3612e61565b5b612fe084828501612ef2565b606083015250608082013567ffffffffffffffff81111561300457613003612e61565b5b61301084828501612ef2565b60808301525060a082013567ffffffffffffffff81111561303457613033612e61565b5b61304084828501612ef2565b60a08301525060c082013567ffffffffffffffff81111561306457613063612e61565b5b61307084828501612ef2565b60c08301525092915050565b6000806040838503121561309357613092612b36565b5b60006130a185828601612d8c565b925050602083013567ffffffffffffffff8111156130c2576130c1612b3b565b5b6130ce85828601612f20565b9150509250929050565b6130e181612cb6565b82525050565b60006020820190506130fc60008301846130d8565b92915050565b60008060006060848603121561311b5761311a612b36565b5b600061312986828701612d8c565b935050602061313a86828701612d8c565b925050604061314b86828701612cd7565b9150509250925092565b600060e08201905061316a600083018a6130d8565b818103602083015261317c8189612c5b565b905081810360408301526131908188612c5b565b905081810360608301526131a48187612c5b565b905081810360808301526131b88186612c5b565b905081810360a08301526131cc8185612c5b565b905081810360c08301526131e08184612c5b565b905098975050505050505050565b60006020828403121561320457613203612b36565b5b600061321284828501612d8c565b91505092915050565b600081519050919050565b600082825260208201905092915050565b6000819050602082019050919050565b61325081612cb6565b82525050565b600082825260208201905092915050565b600061327282612bfb565b61327c8185613256565b935061328c818560208601612c17565b61329581612c4a565b840191505092915050565b600060e0830160008301516132b86000860182613247565b50602083015184820360208601526132d08282613267565b915050604083015184820360408601526132ea8282613267565b915050606083015184820360608601526133048282613267565b9150506080830151848203608086015261331e8282613267565b91505060a083015184820360a08601526133388282613267565b91505060c083015184820360c08601526133528282613267565b9150508091505092915050565b600061336b83836132a0565b905092915050565b6000602082019050919050565b600061338b8261321b565b6133958185613226565b9350836020820285016133a785613237565b8060005b858110156133e357848403895281516133c4858261335f565b94506133cf83613373565b925060208a019950506001810190506133ab565b50829750879550505050505092915050565b6000602082019050818103600083015261340f8184613380565b905092915050565b61342081612bc5565b811461342b57600080fd5b50565b60008135905061343d81613417565b92915050565b6000806040838503121561345a57613459612b36565b5b600061346885828601612d8c565b92505060206134798582860161342e565b9150509250929050565b600067ffffffffffffffff82111561349e5761349d612de6565b5b6134a782612c4a565b9050602081019050919050565b60006134c76134c284613483565b612e46565b9050828152602081018484840111156134e3576134e2612e6b565b5b6134ee848285612ea1565b509392505050565b600082601f83011261350b5761350a612e66565b5b813561351b8482602086016134b4565b91505092915050565b6000806000806080858703121561353e5761353d612b36565b5b600061354c87828801612d8c565b945050602061355d87828801612d8c565b935050604061356e87828801612cd7565b925050606085013567ffffffffffffffff81111561358f5761358e612b3b565b5b61359b878288016134f6565b91505092959194509250565b6000602082840312156135bd576135bc612b36565b5b600082013567ffffffffffffffff8111156135db576135da612b3b565b5b6135e784828501612f20565b91505092915050565b600080fd5b600080fd5b60008083601f8401126136105761360f612e66565b5b8235905067ffffffffffffffff81111561362d5761362c6135f0565b5b602083019150836001820283011115613649576136486135f5565b5b9250929050565b6000806020838503121561366757613666612b36565b5b600083013567ffffffffffffffff81111561368557613684612b3b565b5b613691858286016135fa565b92509250509250929050565b600080604083850312156136b4576136b3612b36565b5b60006136c285828601612d8c565b92505060206136d385828601612d8c565b9150509250929050565b600081905092915050565b60006136f382612bfb565b6136fd81856136dd565b935061370d818560208601612c17565b80840191505092915050565b7f53454c4543542532302a25323046524f4d253230000000000000000000000000815250565b7f4e487b7100000000000000000000000000000000000000000000000000000000600052602260045260246000fd5b6000600282049050600182168061378657607f821691505b6020821081141561379a5761379961373f565b5b50919050565b60008190508160005260206000209050919050565b600081546137c28161376e565b6137cc81866136dd565b945060018216600081146137e757600181146137f85761382b565b60ff1983168652818601935061382b565b613801856137a0565b60005b8381101561382357815481890152600182019150602081019050613804565b838801955050505b50505092915050565b600061384082856136e8565b915061384b82613719565b60148201915061385b82846137b5565b91508190509392505050565b7f4552433732313a20617070726f76616c20746f2063757272656e74206f776e6560008201527f7200000000000000000000000000000000000000000000000000000000000000602082015250565b60006138c3602183612c06565b91506138ce82613867565b604082019050919050565b600060208201905081810360008301526138f2816138b6565b9050919050565b7f4552433732313a20617070726f76652063616c6c6572206973206e6f7420746f60008201527f6b656e206f776e6572206e6f7220617070726f76656420666f7220616c6c0000602082015250565b6000613955603e83612c06565b9150613960826138f9565b604082019050919050565b6000602082019050818103600083015261398481613948565b9050919050565b7f494e5345525420494e544f200000000000000000000000000000000000000000815250565b7f202869642c206e616d652c206465736372697074696f6e2c20696d6167652c2060008201527f65787465726e616c5f75726c2c206261636b67726f756e645f636f6c6f722c2060208201527f61747472696275746573292056414c5545532028000000000000000000000000604082015250565b6000613a336054836136dd565b9150613a3e826139b1565b605482019050919050565b7f2c20000000000000000000000000000000000000000000000000000000000000815250565b7f2900000000000000000000000000000000000000000000000000000000000000815250565b6000613aa08261398b565b600c82019150613ab0828b6137b5565b9150613abb82613a26565b9150613ac7828a6136e8565b9150613ad282613a49565b600282019150613ae282896136e8565b9150613aed82613a49565b600282019150613afd82886136e8565b9150613b0882613a49565b600282019150613b1882876136e8565b9150613b2382613a49565b600282019150613b3382866136e8565b9150613b3e82613a49565b600282019150613b4e82856136e8565b9150613b5982613a49565b600282019150613b6982846136e8565b9150613b7482613a6f565b6001820191508190509998505050505050505050565b6000606082019050613b9f6000830186612d4b565b613bac60208301856130d8565b8181036040830152613bbe8184612c5b565b9050949350505050565b7f4e487b7100000000000000000000000000000000000000000000000000000000600052601160045260246000fd5b6000613c0282612cb6565b9150613c0d83612cb6565b9250827fffffffffffffffffffffffffffffffffffffffffffffffffffffffffffffffff03821115613c4257613c41613bc8565b5b828201905092915050565b6000604082019050613c6260008301856130d8565b613c6f60208301846130d8565b9392505050565b7f4552433732313a2063616c6c6572206973206e6f7420746f6b656e206f776e6560008201527f72206e6f7220617070726f766564000000000000000000000000000000000000602082015250565b6000613cd2602e83612c06565b9150613cdd82613c76565b604082019050919050565b60006020820190508181036000830152613d0181613cc5565b9050919050565b7f4552433732313a20696e76616c696420746f6b656e2049440000000000000000600082015250565b6000613d3e601883612c06565b9150613d4982613d08565b602082019050919050565b60006020820190508181036000830152613d6d81613d31565b9050919050565b7f4552433732313a2061646472657373207a65726f206973206e6f74206120766160008201527f6c6964206f776e65720000000000000000000000000000000000000000000000602082015250565b6000613dd0602983612c06565b9150613ddb82613d74565b604082019050919050565b60006020820190508181036000830152613dff81613dc3565b9050919050565b7f45524337323155524953746f726167653a2055524920717565727920666f722060008201527f6e6f6e6578697374656e7420746f6b656e000000000000000000000000000000602082015250565b6000613e62603183612c06565b9150613e6d82613e06565b604082019050919050565b60006020820190508181036000830152613e9181613e55565b9050919050565b7f2c00000000000000000000000000000000000000000000000000000000000000815250565b6000613eca82846136e8565b9150613ed582613e98565b60018201915081905092915050565b7f4e487b7100000000000000000000000000000000000000000000000000000000600052603260045260246000fd5b7f2700000000000000000000000000000000000000000000000000000000000000815250565b7f272c000000000000000000000000000000000000000000000000000000000000815250565b6000613f6b82866136e8565b9150613f7682613f13565b600182019150613f8682856136e8565b9150613f9182613f39565b600282019150613fa182846136e8565b9150819050949350505050565b6000613fb982612cb6565b91507fffffffffffffffffffffffffffffffffffffffffffffffffffffffffffffffff821415613fec57613feb613bc8565b5b600182019050919050565b7f53454c4543542532300000000000000000000000000000000000000000000000815250565b7f25323046524f4d25323000000000000000000000000000000000000000000000815250565b7f2532305748455245253230696425334400000000000000000000000000000000815250565b7f266d6f64653d6c69737400000000000000000000000000000000000000000000815250565b600061409b82876136e8565b91506140a682613ff7565b6009820191506140b682866136e8565b91506140c18261401d565b600a820191506140d182856137b5565b91506140dc82614043565b6010820191506140ec82846136e8565b91506140f782614069565b600a8201915081905095945050505050565b60008151905061411881612d75565b92915050565b60006020828403121561413457614133612b36565b5b600061414284828501614109565b91505092915050565b7f496e76616c6964206f776e657200000000000000000000000000000000000000600082015250565b6000614181600d83612c06565b915061418c8261414b565b602082019050919050565b600060208201905081810360008301526141b081614174565b9050919050565b7f5550444154452000000000000000000000000000000000000000000000000000815250565b7f20534554206e616d65203d200000000000000000000000000000000000000000815250565b7f414e44206465736372697074696f6e203d200000000000000000000000000000815250565b7f414e4420696d616765203d200000000000000000000000000000000000000000815250565b7f414e442065787465726e616c5f75726c203d2000000000000000000000000000815250565b7f414e44206261636b67726f756e645f636f6c6f72203d20000000000000000000815250565b7f414e442061747472696275746573203d20000000000000000000000000000000815250565b7f205748455245206964203d200000000000000000000000000000000000000000815250565b7f3b00000000000000000000000000000000000000000000000000000000000000815250565b6000614318826141b7565b600782019150614328828b6137b5565b9150614333826141dd565b600c82019150614343828a6136e8565b915061434e82614203565b60128201915061435e82896136e8565b915061436982614229565b600c8201915061437982886136e8565b91506143848261424f565b60138201915061439482876136e8565b915061439f82614275565b6017820191506143af82866136e8565b91506143ba8261429b565b6011820191506143ca82856136e8565b91506143d5826142c1565b600c820191506143e582846136e8565b91506143f0826142e7565b6001820191508190509998505050505050505050565b600060e08301600083015161441e6000860182613247565b50602083015184820360208601526144368282613267565b915050604083015184820360408601526144508282613267565b9150506060830151848203606086015261446a8282613267565b915050608083015184820360808601526144848282613267565b91505060a083015184820360a086015261449e8282613267565b91505060c083015184820360c08601526144b88282613267565b9150508091505092915050565b60006040820190506144da60008301856130d8565b81810360208301526144ec8184614406565b90509392505050565b7f7570646174652000000000000000000000000000000000000000000000000000815250565b7f207365742061747472696275746573203d200000000000000000000000000000815250565b600061454d83856136dd565b935061455a838584612ea1565b82840190509392505050565b6000614571826144f5565b60078201915061458182866137b5565b915061458c8261451b565b60128201915061459d828486614541565b91506145a8826142e7565b600182019150819050949350505050565b7f4f776e61626c653a206e6577206f776e657220697320746865207a65726f206160008201527f6464726573730000000000000000000000000000000000000000000000000000602082015250565b6000614615602683612c06565b9150614620826145b9565b604082019050919050565b6000602082019050818103600083015261464481614608565b9050919050565b7f4e487b7100000000000000000000000000000000000000000000000000000000600052601260045260246000fd5b600061468582612cb6565b915061469083612cb6565b9250826146a05761469f61464b565b5b828204905092915050565b60006146b682612cb6565b91506146c183612cb6565b9250828210156146d4576146d3613bc8565b5b828203905092915050565b60006146ea82612cb6565b91506146f583612cb6565b9250826147055761470461464b565b5b828206905092915050565b7f4552433732313a207472616e7366657220746f206e6f6e20455243373231526560008201527f63656976657220696d706c656d656e7465720000000000000000000000000000602082015250565b600061476c603283612c06565b915061477782614710565b604082019050919050565b6000602082019050818103600083015261479b8161475f565b9050919050565b7f4552433732313a207472616e736665722066726f6d20696e636f72726563742060008201527f6f776e6572000000000000000000000000000000000000000000000000000000602082015250565b60006147fe602583612c06565b9150614809826147a2565b604082019050919050565b6000602082019050818103600083015261482d816147f1565b9050919050565b7f4552433732313a207472616e7366657220746f20746865207a65726f2061646460008201527f7265737300000000000000000000000000000000000000000000000000000000602082015250565b6000614890602483612c06565b915061489b82614834565b604082019050919050565b600060208201905081810360008301526148bf81614883565b9050919050565b7f4f776e61626c653a2063616c6c6572206973206e6f7420746865206f776e6572600082015250565b60006148fc602083612c06565b9150614907826148c6565b602082019050919050565b6000602082019050818103600083015261492b816148ef565b9050919050565b7f4552433732313a20617070726f766520746f2063616c6c657200000000000000600082015250565b6000614968601983612c06565b915061497382614932565b602082019050919050565b600060208201905081810360008301526149978161495b565b9050919050565b7f4552433732313a206d696e7420746f20746865207a65726f2061646472657373600082015250565b60006149d4602083612c06565b91506149df8261499e565b602082019050919050565b60006020820190508181036000830152614a03816149c7565b9050919050565b7f4552433732313a20746f6b656e20616c7265616479206d696e74656400000000600082015250565b6000614a40601c83612c06565b9150614a4b82614a0a565b602082019050919050565b60006020820190508181036000830152614a6f81614a33565b9050919050565b600081519050919050565b600082825260208201905092915050565b6000614a9d82614a76565b614aa78185614a81565b9350614ab7818560208601612c17565b614ac081612c4a565b840191505092915050565b6000608082019050614ae06000830187612d4b565b614aed6020830186612d4b565b614afa60408301856130d8565b8181036060830152614b0c8184614a92565b905095945050505050565b600081519050614b2681612b6c565b92915050565b600060208284031215614b4257614b41612b36565b5b6000614b5084828501614b17565b9150509291505056fea264697066735822122099f2b0673e7e533d32e7945ae44beef26896cafd6f7d3067240d739b1e030a1d64736f6c634300080c003368747470733a2f2f746573746e65742e7461626c656c616e642e6e6574776f726b2f71756572793f733d",
  "linkReferences": {},
  "deployedLinkReferences": {}
}