{
  "_format": "hh-sol-artifact-1",
  "contractName": "MojoCore",
  "sourceName": "contracts/MojoCore.sol",
  "abi": [
    {
      "anonymous": false,
      "inputs": [
        {
          "indexed": false,
          "internalType": "address",
          "name": "previousAdmin",
          "type": "address"
        },
        {
          "indexed": false,
          "internalType": "address",
          "name": "newAdmin",
          "type": "address"
        }
      ],
      "name": "AdminChanged",
      "type": "event"
    },
    {
      "anonymous": false,
      "inputs": [
        {
          "indexed": true,
          "internalType": "address",
          "name": "owner",
          "type": "address"
        },
        {
          "indexed": true,
          "internalType": "address",
          "name": "approved",
          "type": "address"
        },
        {
          "indexed": true,
          "internalType": "uint256",
          "name": "tokenId",
          "type": "uint256"
        }
      ],
      "name": "Approval",
      "type": "event"
    },
    {
      "anonymous": false,
      "inputs": [
        {
          "indexed": true,
          "internalType": "address",
          "name": "owner",
          "type": "address"
        },
        {
          "indexed": true,
          "internalType": "address",
          "name": "operator",
          "type": "address"
        },
        {
          "indexed": false,
          "internalType": "bool",
          "name": "approved",
          "type": "bool"
        }
      ],
      "name": "ApprovalForAll",
      "type": "event"
    },
    {
      "anonymous": false,
      "inputs": [
        {
          "indexed": true,
          "internalType": "address",
          "name": "beacon",
          "type": "address"
        }
      ],
      "name": "BeaconUpgraded",
      "type": "event"
    },
    {
      "anonymous": false,
      "inputs": [
        {
          "indexed": false,
          "internalType": "uint8",
          "name": "version",
          "type": "uint8"
        }
      ],
      "name": "Initialized",
      "type": "event"
    },
    {
      "anonymous": false,
      "inputs": [
        {
          "indexed": true,
          "internalType": "address",
          "name": "from",
          "type": "address"
        },
        {
          "indexed": false,
          "internalType": "uint256",
          "name": "timestamp",
          "type": "uint256"
        },
        {
          "indexed": false,
          "internalType": "uint256",
          "name": "tokenId",
          "type": "uint256"
        }
      ],
      "name": "NewNftMinted",
      "type": "event"
    },
    {
      "anonymous": false,
      "inputs": [
        {
          "indexed": true,
          "internalType": "address",
          "name": "previousOwner",
          "type": "address"
        },
        {
          "indexed": true,
          "internalType": "address",
          "name": "newOwner",
          "type": "address"
        }
      ],
      "name": "OwnershipTransferred",
      "type": "event"
    },
    {
      "anonymous": false,
      "inputs": [
        {
          "indexed": false,
          "internalType": "address",
          "name": "account",
          "type": "address"
        }
      ],
      "name": "Paused",
      "type": "event"
    },
    {
      "anonymous": false,
      "inputs": [
        {
          "indexed": true,
          "internalType": "address",
          "name": "from",
          "type": "address"
        },
        {
          "indexed": false,
          "internalType": "uint256",
          "name": "timestamp",
          "type": "uint256"
        },
        {
          "indexed": false,
          "internalType": "uint256",
          "name": "aid",
          "type": "uint256"
        },
        {
          "indexed": false,
          "internalType": "uint256",
          "name": "tokenId",
          "type": "uint256"
        }
      ],
      "name": "SetNftAID",
      "type": "event"
    },
    {
      "anonymous": false,
      "inputs": [
        {
          "indexed": true,
          "internalType": "address",
          "name": "from",
          "type": "address"
        },
        {
          "indexed": false,
          "internalType": "uint256",
          "name": "timestamp",
          "type": "uint256"
        },
        {
          "indexed": false,
          "internalType": "uint256",
          "name": "metadataTableId",
          "type": "uint256"
        },
        {
          "indexed": false,
          "internalType": "string",
          "name": "metadataTable",
          "type": "string"
        }
      ],
      "name": "SetNftExternalUrl",
      "type": "event"
    },
    {
      "anonymous": false,
      "inputs": [
        {
          "indexed": true,
          "internalType": "address",
          "name": "from",
          "type": "address"
        },
        {
          "indexed": false,
          "internalType": "uint256",
          "name": "timestamp",
          "type": "uint256"
        },
        {
          "indexed": false,
          "internalType": "uint256",
          "name": "gid",
          "type": "uint256"
        },
        {
          "indexed": false,
          "internalType": "uint256",
          "name": "tokenId",
          "type": "uint256"
        }
      ],
      "name": "SetNftGID",
      "type": "event"
    },
    {
      "anonymous": false,
      "inputs": [
        {
          "indexed": true,
          "internalType": "address",
          "name": "from",
          "type": "address"
        },
        {
          "indexed": true,
          "internalType": "address",
          "name": "to",
          "type": "address"
        },
        {
          "indexed": true,
          "internalType": "uint256",
          "name": "tokenId",
          "type": "uint256"
        }
      ],
      "name": "Transfer",
      "type": "event"
    },
    {
      "anonymous": false,
      "inputs": [
        {
          "indexed": false,
          "internalType": "address",
          "name": "account",
          "type": "address"
        }
      ],
      "name": "Unpaused",
      "type": "event"
    },
    {
      "anonymous": false,
      "inputs": [
        {
          "indexed": true,
          "internalType": "address",
          "name": "implementation",
          "type": "address"
        }
      ],
      "name": "Upgraded",
      "type": "event"
    },
    {
      "inputs": [
        {
          "internalType": "address",
          "name": "to",
          "type": "address"
        },
        {
          "internalType": "uint256",
          "name": "tokenId",
          "type": "uint256"
        }
      ],
      "name": "approve",
      "outputs": [],
      "stateMutability": "nonpayable",
      "type": "function"
    },
    {
      "inputs": [
        {
          "internalType": "address",
          "name": "owner",
          "type": "address"
        }
      ],
      "name": "balanceOf",
      "outputs": [
        {
          "internalType": "uint256",
          "name": "",
          "type": "uint256"
        }
      ],
      "stateMutability": "view",
      "type": "function"
    },
    {
      "inputs": [
        {
          "internalType": "address",
          "name": "registry",
          "type": "address"
        }
      ],
      "name": "createMetadataTable",
      "outputs": [
        {
          "internalType": "uint256",
          "name": "",
          "type": "uint256"
        }
      ],
      "stateMutability": "payable",
      "type": "function"
    },
    {
      "inputs": [
        {
          "internalType": "uint256",
          "name": "tokenId",
          "type": "uint256"
        }
      ],
      "name": "getApproved",
      "outputs": [
        {
          "internalType": "address",
          "name": "",
          "type": "address"
        }
      ],
      "stateMutability": "view",
      "type": "function"
    },
    {
      "inputs": [
        {
          "internalType": "string",
          "name": "baseURI",
          "type": "string"
        },
        {
          "internalType": "string",
          "name": "externalURL",
          "type": "string"
        }
      ],
      "name": "initialize",
      "outputs": [],
      "stateMutability": "nonpayable",
      "type": "function"
    },
    {
      "inputs": [
        {
          "internalType": "address",
          "name": "owner",
          "type": "address"
        },
        {
          "internalType": "address",
          "name": "operator",
          "type": "address"
        }
      ],
      "name": "isApprovedForAll",
      "outputs": [
        {
          "internalType": "bool",
          "name": "",
          "type": "bool"
        }
      ],
      "stateMutability": "view",
      "type": "function"
    },
    {
      "inputs": [],
      "name": "name",
      "outputs": [
        {
          "internalType": "string",
          "name": "",
          "type": "string"
        }
      ],
      "stateMutability": "view",
      "type": "function"
    },
    {
      "inputs": [
        {
          "internalType": "address",
          "name": "",
          "type": "address"
        },
        {
          "internalType": "address",
          "name": "",
          "type": "address"
        },
        {
          "internalType": "uint256",
          "name": "",
          "type": "uint256"
        },
        {
          "internalType": "bytes",
          "name": "",
          "type": "bytes"
        }
      ],
      "name": "onERC721Received",
      "outputs": [
        {
          "internalType": "bytes4",
          "name": "",
          "type": "bytes4"
        }
      ],
      "stateMutability": "nonpayable",
      "type": "function"
    },
    {
      "inputs": [],
      "name": "owner",
      "outputs": [
        {
          "internalType": "address",
          "name": "",
          "type": "address"
        }
      ],
      "stateMutability": "view",
      "type": "function"
    },
    {
      "inputs": [
        {
          "internalType": "uint256",
          "name": "tokenId",
          "type": "uint256"
        }
      ],
      "name": "ownerOf",
      "outputs": [
        {
          "internalType": "address",
          "name": "",
          "type": "address"
        }
      ],
      "stateMutability": "view",
      "type": "function"
    },
    {
      "inputs": [],
      "name": "paused",
      "outputs": [
        {
          "internalType": "bool",
          "name": "",
          "type": "bool"
        }
      ],
      "stateMutability": "view",
      "type": "function"
    },
    {
      "inputs": [],
      "name": "proxiableUUID",
      "outputs": [
        {
          "internalType": "bytes32",
          "name": "",
          "type": "bytes32"
        }
      ],
      "stateMutability": "view",
      "type": "function"
    },
    {
      "inputs": [],
      "name": "renounceOwnership",
      "outputs": [],
      "stateMutability": "nonpayable",
      "type": "function"
    },
    {
      "inputs": [
        {
          "internalType": "address",
          "name": "to",
          "type": "address"
        }
      ],
      "name": "safeMint",
      "outputs": [
        {
          "internalType": "uint256",
          "name": "",
          "type": "uint256"
        }
      ],
      "stateMutability": "nonpayable",
      "type": "function"
    },
    {
      "inputs": [
        {
          "internalType": "address",
          "name": "from",
          "type": "address"
        },
        {
          "internalType": "address",
          "name": "to",
          "type": "address"
        },
        {
          "internalType": "uint256",
          "name": "tokenId",
          "type": "uint256"
        }
      ],
      "name": "safeTransferFrom",
      "outputs": [],
      "stateMutability": "nonpayable",
      "type": "function"
    },
    {
      "inputs": [
        {
          "internalType": "address",
          "name": "from",
          "type": "address"
        },
        {
          "internalType": "address",
          "name": "to",
          "type": "address"
        },
        {
          "internalType": "uint256",
          "name": "tokenId",
          "type": "uint256"
        },
        {
          "internalType": "bytes",
          "name": "data",
          "type": "bytes"
        }
      ],
      "name": "safeTransferFrom",
      "outputs": [],
      "stateMutability": "nonpayable",
      "type": "function"
    },
    {
      "inputs": [
        {
          "internalType": "address",
          "name": "operator",
          "type": "address"
        },
        {
          "internalType": "bool",
          "name": "approved",
          "type": "bool"
        }
      ],
      "name": "setApprovalForAll",
      "outputs": [],
      "stateMutability": "nonpayable",
      "type": "function"
    },
    {
      "inputs": [
        {
          "internalType": "string",
          "name": "externalURL",
          "type": "string"
        }
      ],
      "name": "setExternalURL",
      "outputs": [],
      "stateMutability": "nonpayable",
      "type": "function"
    },
    {
      "inputs": [
        {
          "internalType": "bytes4",
          "name": "interfaceId",
          "type": "bytes4"
        }
      ],
      "name": "supportsInterface",
      "outputs": [
        {
          "internalType": "bool",
          "name": "",
          "type": "bool"
        }
      ],
      "stateMutability": "view",
      "type": "function"
    },
    {
      "inputs": [],
      "name": "symbol",
      "outputs": [
        {
          "internalType": "string",
          "name": "",
          "type": "string"
        }
      ],
      "stateMutability": "view",
      "type": "function"
    },
    {
      "inputs": [
        {
          "internalType": "uint256",
          "name": "tokenId",
          "type": "uint256"
        }
      ],
      "name": "tokenURI",
      "outputs": [
        {
          "internalType": "string",
          "name": "",
          "type": "string"
        }
      ],
      "stateMutability": "view",
      "type": "function"
    },
    {
      "inputs": [
        {
          "internalType": "address",
          "name": "from",
          "type": "address"
        },
        {
          "internalType": "address",
          "name": "to",
          "type": "address"
        },
        {
          "internalType": "uint256",
          "name": "tokenId",
          "type": "uint256"
        }
      ],
      "name": "transferFrom",
      "outputs": [],
      "stateMutability": "nonpayable",
      "type": "function"
    },
    {
      "inputs": [
        {
          "internalType": "address",
          "name": "newOwner",
          "type": "address"
        }
      ],
      "name": "transferOwnership",
      "outputs": [],
      "stateMutability": "nonpayable",
      "type": "function"
    },
    {
      "inputs": [
        {
          "internalType": "uint256",
          "name": "tokenId",
          "type": "uint256"
        },
        {
          "internalType": "uint256",
          "name": "aid",
          "type": "uint256"
        }
      ],
      "name": "updateAID",
      "outputs": [],
      "stateMutability": "nonpayable",
      "type": "function"
    },
    {
      "inputs": [
        {
          "internalType": "uint256",
          "name": "tokenId",
          "type": "uint256"
        },
        {
          "internalType": "uint256",
          "name": "gid",
          "type": "uint256"
        }
      ],
      "name": "updateGID",
      "outputs": [],
      "stateMutability": "nonpayable",
      "type": "function"
    },
    {
      "inputs": [
        {
          "internalType": "address",
          "name": "newImplementation",
          "type": "address"
        }
      ],
      "name": "upgradeTo",
      "outputs": [],
      "stateMutability": "nonpayable",
      "type": "function"
    },
    {
      "inputs": [
        {
          "internalType": "address",
          "name": "newImplementation",
          "type": "address"
        },
        {
          "internalType": "bytes",
          "name": "data",
          "type": "bytes"
        }
      ],
      "name": "upgradeToAndCall",
      "outputs": [],
      "stateMutability": "payable",
      "type": "function"
    }
  ],
  "bytecode": "0x60a06040523073ffffffffffffffffffffffffffffffffffffffff1660809073ffffffffffffffffffffffffffffffffffffffff1681525034801561004357600080fd5b506080516157026200007c60003960008181610afe01528181610b8d01528181610fd601528181611065015261111501526157026000f3fe60806040526004361061019c5760003560e01c80635c975abb116100ec57806397ec82ea1161008a578063b88d4fde11610064578063b88d4fde146105ba578063c87b56dd146105e3578063e985e9c514610620578063f2fde38b1461065d5761019c565b806397ec82ea14610538578063a22cb46514610561578063a8371acc1461058a5761019c565b806370a08231116100c657806370a082311461048e578063715018a6146104cb5780638da5cb5b146104e257806395d89b411461050d5761019c565b80635c975abb146103fd5780636352211e146104285780636dc11e71146104655761019c565b806323b872dd1161015957806342842e0e1161013357806342842e0e146103645780634cd88b761461038d5780634f1ef286146103b657806352d1902d146103d25761019c565b806323b872dd146102d55780633659cfe6146102fe57806340d097c3146103275761019c565b806301dbcd4a146101a157806301ffc9a7146101ca57806306fdde0314610207578063081812fc14610232578063095ea7b31461026f578063150b7a0214610298575b600080fd5b3480156101ad57600080fd5b506101c860048036038101906101c391906133ee565b610686565b005b3480156101d657600080fd5b506101f160048036038101906101ec9190613493565b6107b6565b6040516101fe91906134db565b60405180910390f35b34801561021357600080fd5b5061021c610898565b604051610229919061358f565b60405180910390f35b34801561023e57600080fd5b50610259600480360381019061025491906135e7565b61092a565b6040516102669190613655565b60405180910390f35b34801561027b57600080fd5b506102966004803603810190610291919061369c565b610970565b005b3480156102a457600080fd5b506102bf60048036038101906102ba919061380c565b610a88565b6040516102cc919061389e565b60405180910390f35b3480156102e157600080fd5b506102fc60048036038101906102f791906138b9565b610a9c565b005b34801561030a57600080fd5b506103256004803603810190610320919061390c565b610afc565b005b34801561033357600080fd5b5061034e6004803603810190610349919061390c565b610c85565b60405161035b9190613948565b60405180910390f35b34801561037057600080fd5b5061038b600480360381019061038691906138b9565b610dd7565b005b34801561039957600080fd5b506103b460048036038101906103af9190613a04565b610df7565b005b6103d060048036038101906103cb9190613a7c565b610fd4565b005b3480156103de57600080fd5b506103e7611111565b6040516103f49190613af1565b60405180910390f35b34801561040957600080fd5b506104126111ca565b60405161041f91906134db565b60405180910390f35b34801561043457600080fd5b5061044f600480360381019061044a91906135e7565b6111e2565b60405161045c9190613655565b60405180910390f35b34801561047157600080fd5b5061048c60048036038101906104879190613b0c565b611294565b005b34801561049a57600080fd5b506104b560048036038101906104b0919061390c565b61149e565b6040516104c29190613948565b60405180910390f35b3480156104d757600080fd5b506104e0611556565b005b3480156104ee57600080fd5b506104f761156a565b6040516105049190613655565b60405180910390f35b34801561051957600080fd5b50610522611594565b60405161052f919061358f565b60405180910390f35b34801561054457600080fd5b5061055f600480360381019061055a9190613b0c565b611626565b005b34801561056d57600080fd5b5061058860048036038101906105839190613b78565b611830565b005b6105a4600480360381019061059f919061390c565b611846565b6040516105b19190613948565b60405180910390f35b3480156105c657600080fd5b506105e160048036038101906105dc919061380c565b611970565b005b3480156105ef57600080fd5b5061060a600480360381019061060591906135e7565b6119d2565b604051610617919061358f565b60405180910390f35b34801561062c57600080fd5b5061064760048036038101906106429190613bb8565b611c0f565b60405161065491906134db565b60405180910390f35b34801561066957600080fd5b50610684600480360381019061067f919061390c565b611ca3565b005b61068e611d27565b81816101fb91906106a092919061324c565b506101f660009054906101000a900473ffffffffffffffffffffffffffffffffffffffff1673ffffffffffffffffffffffffffffffffffffffff1663eaf5d04e306101f9546101f886866040516020016106fc93929190613db5565b6040516020818303038152906040526040518463ffffffff1660e01b815260040161072993929190613e17565b600060405180830381600087803b15801561074357600080fd5b505af1158015610757573d6000803e3d6000fd5b505050503373ffffffffffffffffffffffffffffffffffffffff167fa3d15b83e439e2e5347f17a14ec2d5a6559a106d36d4e1cb9d2a9befdb8f1d4f426101f9546101f86040516107aa93929190613ed5565b60405180910390a25050565b60007f80ac58cd000000000000000000000000000000000000000000000000000000007bffffffffffffffffffffffffffffffffffffffffffffffffffffffff1916827bffffffffffffffffffffffffffffffffffffffffffffffffffffffff1916148061088157507f5b5e139f000000000000000000000000000000000000000000000000000000007bffffffffffffffffffffffffffffffffffffffffffffffffffffffff1916827bffffffffffffffffffffffffffffffffffffffffffffffffffffffff1916145b80610891575061089082611da5565b5b9050919050565b6060606580546108a790613c4d565b80601f01602080910402602001604051908101604052809291908181526020018280546108d390613c4d565b80156109205780601f106108f557610100808354040283529160200191610920565b820191906000526020600020905b81548152906001019060200180831161090357829003601f168201915b5050505050905090565b600061093582611e0f565b6069600083815260200190815260200160002060009054906101000a900473ffffffffffffffffffffffffffffffffffffffff169050919050565b600061097b826111e2565b90508073ffffffffffffffffffffffffffffffffffffffff168373ffffffffffffffffffffffffffffffffffffffff1614156109ec576040517f08c379a00000000000000000000000000000000000000000000000000000000081526004016109e390613f85565b60405180910390fd5b8073ffffffffffffffffffffffffffffffffffffffff16610a0b611e5a565b73ffffffffffffffffffffffffffffffffffffffff161480610a3a5750610a3981610a34611e5a565b611c0f565b5b610a79576040517f08c379a0000000000000000000000000000000000000000000000000000000008152600401610a7090614017565b60405180910390fd5b610a838383611e62565b505050565b600063150b7a0260e01b9050949350505050565b610aad610aa7611e5a565b82611f1b565b610aec576040517f08c379a0000000000000000000000000000000000000000000000000000000008152600401610ae3906140a9565b60405180910390fd5b610af7838383611fb0565b505050565b7f000000000000000000000000000000000000000000000000000000000000000073ffffffffffffffffffffffffffffffffffffffff163073ffffffffffffffffffffffffffffffffffffffff161415610b8b576040517f08c379a0000000000000000000000000000000000000000000000000000000008152600401610b829061413b565b60405180910390fd5b7f000000000000000000000000000000000000000000000000000000000000000073ffffffffffffffffffffffffffffffffffffffff16610bca612217565b73ffffffffffffffffffffffffffffffffffffffff1614610c20576040517f08c379a0000000000000000000000000000000000000000000000000000000008152600401610c17906141cd565b60405180910390fd5b610c298161226e565b610c8281600067ffffffffffffffff811115610c4857610c476136e1565b5b6040519080825280601f01601f191660200182016040528015610c7a5781602001600182028036833780820191505090505b506000612279565b50565b600080610c936101f56123e7565b90506101f660009054906101000a900473ffffffffffffffffffffffffffffffffffffffff1673ffffffffffffffffffffffffffffffffffffffff1663eaf5d04e306101f9546101f8610ce5866123f5565b6101fb604051602001610cfa93929190614302565b6040516020818303038152906040526040518463ffffffff1660e01b8152600401610d2793929190613e17565b600060405180830381600087803b158015610d4157600080fd5b505af1158015610d55573d6000803e3d6000fd5b50505050610d73838260405180602001604052806000815250612556565b610d7e6101f56125b1565b3373ffffffffffffffffffffffffffffffffffffffff167f061b141191d79859f7cc6256c1b9e5f380052197831efe9135841c0ff4de7e634283604051610dc692919061436b565b60405180910390a280915050919050565b610df283838360405180602001604052806000815250611970565b505050565b60008060019054906101000a900460ff16159050808015610e285750600160008054906101000a900460ff1660ff16105b80610e555750610e37306125c7565b158015610e545750600160008054906101000a900460ff1660ff16145b5b610e94576040517f08c379a0000000000000000000000000000000000000000000000000000000008152600401610e8b90614406565b60405180910390fd5b60016000806101000a81548160ff021916908360ff1602179055508015610ed1576001600060016101000a81548160ff0219169083151502179055505b610ed96125ea565b610ee161263b565b610ee961268c565b610ef16126e5565b610ef961273e565b826101f79080519060200190610f109291906132d2565b506040518060400160405280600481526020017f6d6f6a6f000000000000000000000000000000000000000000000000000000008152506101fa9080519060200190610f5d9291906132d2565b50816101fb9080519060200190610f759291906132d2565b508015610fcf5760008060016101000a81548160ff0219169083151502179055507f7f26b83ff96e1f2b6a682f133852f6798a09c465da95921460cefb38474024986001604051610fc69190614478565b60405180910390a15b505050565b7f000000000000000000000000000000000000000000000000000000000000000073ffffffffffffffffffffffffffffffffffffffff163073ffffffffffffffffffffffffffffffffffffffff161415611063576040517f08c379a000000000000000000000000000000000000000000000000000000000815260040161105a9061413b565b60405180910390fd5b7f000000000000000000000000000000000000000000000000000000000000000073ffffffffffffffffffffffffffffffffffffffff166110a2612217565b73ffffffffffffffffffffffffffffffffffffffff16146110f8576040517f08c379a00000000000000000000000000000000000000000000000000000000081526004016110ef906141cd565b60405180910390fd5b6111018261226e565b61110d82826001612279565b5050565b60007f000000000000000000000000000000000000000000000000000000000000000073ffffffffffffffffffffffffffffffffffffffff163073ffffffffffffffffffffffffffffffffffffffff16146111a1576040517f08c379a000000000000000000000000000000000000000000000000000000000815260040161119890614505565b60405180910390fd5b7f360894a13ba1a3210667c828492db98dca3e2076cc3735a920a3ca505d382bbc60001b905090565b600061012d60009054906101000a900460ff16905090565b6000806067600084815260200190815260200160002060009054906101000a900473ffffffffffffffffffffffffffffffffffffffff169050600073ffffffffffffffffffffffffffffffffffffffff168173ffffffffffffffffffffffffffffffffffffffff16141561128b576040517f08c379a000000000000000000000000000000000000000000000000000000000815260040161128290614571565b60405180910390fd5b80915050919050565b3373ffffffffffffffffffffffffffffffffffffffff163073ffffffffffffffffffffffffffffffffffffffff16636352211e846040518263ffffffff1660e01b81526004016112e49190613948565b602060405180830381865afa158015611301573d6000803e3d6000fd5b505050506040513d601f19601f8201168201806040525081019061132591906145a6565b73ffffffffffffffffffffffffffffffffffffffff161461137b576040517f08c379a00000000000000000000000000000000000000000000000000000000081526004016113729061461f565b60405180910390fd5b6101f660009054906101000a900473ffffffffffffffffffffffffffffffffffffffff1673ffffffffffffffffffffffffffffffffffffffff1663eaf5d04e306101f9546101f86113cb866123f5565b6113d4886123f5565b6040516020016113e6939291906146b1565b6040516020818303038152906040526040518463ffffffff1660e01b815260040161141393929190613e17565b600060405180830381600087803b15801561142d57600080fd5b505af1158015611441573d6000803e3d6000fd5b505050503373ffffffffffffffffffffffffffffffffffffffff167fea0ca050ffabd8c573efe5976a043c78b8536f93b85fcb9c4e8e026ab4732a80426101f954856040516114929392919061471e565b60405180910390a25050565b60008073ffffffffffffffffffffffffffffffffffffffff168273ffffffffffffffffffffffffffffffffffffffff16141561150f576040517f08c379a0000000000000000000000000000000000000000000000000000000008152600401611506906147c7565b60405180910390fd5b606860008373ffffffffffffffffffffffffffffffffffffffff1673ffffffffffffffffffffffffffffffffffffffff168152602001908152602001600020549050919050565b61155e611d27565b6115686000612797565b565b600060fb60009054906101000a900473ffffffffffffffffffffffffffffffffffffffff16905090565b6060606680546115a390613c4d565b80601f01602080910402602001604051908101604052809291908181526020018280546115cf90613c4d565b801561161c5780601f106115f15761010080835404028352916020019161161c565b820191906000526020600020905b8154815290600101906020018083116115ff57829003601f168201915b5050505050905090565b3373ffffffffffffffffffffffffffffffffffffffff163073ffffffffffffffffffffffffffffffffffffffff16636352211e846040518263ffffffff1660e01b81526004016116769190613948565b602060405180830381865afa158015611693573d6000803e3d6000fd5b505050506040513d601f19601f820116820180604052508101906116b791906145a6565b73ffffffffffffffffffffffffffffffffffffffff161461170d576040517f08c379a00000000000000000000000000000000000000000000000000000000081526004016117049061461f565b60405180910390fd5b6101f660009054906101000a900473ffffffffffffffffffffffffffffffffffffffff1673ffffffffffffffffffffffffffffffffffffffff1663eaf5d04e306101f9546101f861175d866123f5565b611766886123f5565b6040516020016117789392919061480d565b6040516020818303038152906040526040518463ffffffff1660e01b81526004016117a593929190613e17565b600060405180830381600087803b1580156117bf57600080fd5b505af11580156117d3573d6000803e3d6000fd5b505050503373ffffffffffffffffffffffffffffffffffffffff167fe326cd34425a044b30ecda6c63ba14f5a40df1e3ae0d261afd8196b0832a7f53426101f954856040516118249392919061471e565b60405180910390a25050565b61184261183b611e5a565b838361285d565b5050565b6000611850611d27565b816101f660006101000a81548173ffffffffffffffffffffffffffffffffffffffff021916908373ffffffffffffffffffffffffffffffffffffffff1602179055506101f660009054906101000a900473ffffffffffffffffffffffffffffffffffffffff1673ffffffffffffffffffffffffffffffffffffffff16633a9151b0306101fa6118de466123f5565b6040516020016118ef929190614938565b6040516020818303038152906040526040518363ffffffff1660e01b815260040161191b929190614985565b6020604051808303816000875af115801561193a573d6000803e3d6000fd5b505050506040513d601f19601f8201168201806040525081019061195e91906149ca565b6101f9819055506101f9549050919050565b61198161197b611e5a565b83611f1b565b6119c0576040517f08c379a00000000000000000000000000000000000000000000000000000000081526004016119b7906140a9565b60405180910390fd5b6119cc848484846129ca565b50505050565b60606119dd82612a26565b611a1c576040517f08c379a0000000000000000000000000000000000000000000000000000000008152600401611a1390614a69565b60405180910390fd5b6000611a26612a92565b90506000604051806020016040528060008152509050600060405180608001604052806040518060400160405280600281526020017f696400000000000000000000000000000000000000000000000000000000000081525081526020016040518060400160405280600d81526020017f65787465726e616c5f6c696e6b0000000000000000000000000000000000000081525081526020016040518060400160405280600381526020017f616964000000000000000000000000000000000000000000000000000000000081525081526020016040518060400160405280600381526020017f6769640000000000000000000000000000000000000000000000000000000000815250815250905060005b6004811015611bd4576000811115611b6d5782604051602001611b5b9190614aaf565b60405160208183030381529060405292505b82828260048110611b8157611b80614ad5565b5b6020020151838360048110611b9957611b98614ad5565b5b6020020151604051602001611bb093929190614b50565b60405160208183030381529060405292508080611bcc90614bce565b915050611b38565b5082826101f8611be3886123f5565b604051602001611bf69493929190614caf565b6040516020818303038152906040529350505050919050565b6000606a60008473ffffffffffffffffffffffffffffffffffffffff1673ffffffffffffffffffffffffffffffffffffffff16815260200190815260200160002060008373ffffffffffffffffffffffffffffffffffffffff1673ffffffffffffffffffffffffffffffffffffffff16815260200190815260200160002060009054906101000a900460ff16905092915050565b611cab611d27565b600073ffffffffffffffffffffffffffffffffffffffff168173ffffffffffffffffffffffffffffffffffffffff161415611d1b576040517f08c379a0000000000000000000000000000000000000000000000000000000008152600401611d1290614d9b565b60405180910390fd5b611d2481612797565b50565b611d2f611e5a565b73ffffffffffffffffffffffffffffffffffffffff16611d4d61156a565b73ffffffffffffffffffffffffffffffffffffffff1614611da3576040517f08c379a0000000000000000000000000000000000000000000000000000000008152600401611d9a90614e07565b60405180910390fd5b565b60007f01ffc9a7000000000000000000000000000000000000000000000000000000007bffffffffffffffffffffffffffffffffffffffffffffffffffffffff1916827bffffffffffffffffffffffffffffffffffffffffffffffffffffffff1916149050919050565b611e1881612a26565b611e57576040517f08c379a0000000000000000000000000000000000000000000000000000000008152600401611e4e90614571565b60405180910390fd5b50565b600033905090565b816069600083815260200190815260200160002060006101000a81548173ffffffffffffffffffffffffffffffffffffffff021916908373ffffffffffffffffffffffffffffffffffffffff160217905550808273ffffffffffffffffffffffffffffffffffffffff16611ed5836111e2565b73ffffffffffffffffffffffffffffffffffffffff167f8c5be1e5ebec7d5bd14f71427d1e84f3dd0314c0f7b2291e5b200ac8c7c3b92560405160405180910390a45050565b600080611f27836111e2565b90508073ffffffffffffffffffffffffffffffffffffffff168473ffffffffffffffffffffffffffffffffffffffff161480611f695750611f688185611c0f565b5b80611fa757508373ffffffffffffffffffffffffffffffffffffffff16611f8f8461092a565b73ffffffffffffffffffffffffffffffffffffffff16145b91505092915050565b8273ffffffffffffffffffffffffffffffffffffffff16611fd0826111e2565b73ffffffffffffffffffffffffffffffffffffffff1614612026576040517f08c379a000000000000000000000000000000000000000000000000000000000815260040161201d90614e99565b60405180910390fd5b600073ffffffffffffffffffffffffffffffffffffffff168273ffffffffffffffffffffffffffffffffffffffff161415612096576040517f08c379a000000000000000000000000000000000000000000000000000000000815260040161208d90614f2b565b60405180910390fd5b6120a1838383612b25565b6120ac600082611e62565b6001606860008573ffffffffffffffffffffffffffffffffffffffff1673ffffffffffffffffffffffffffffffffffffffff16815260200190815260200160002060008282546120fc9190614f4b565b925050819055506001606860008473ffffffffffffffffffffffffffffffffffffffff1673ffffffffffffffffffffffffffffffffffffffff16815260200190815260200160002060008282546121539190614f7f565b92505081905550816067600083815260200190815260200160002060006101000a81548173ffffffffffffffffffffffffffffffffffffffff021916908373ffffffffffffffffffffffffffffffffffffffff160217905550808273ffffffffffffffffffffffffffffffffffffffff168473ffffffffffffffffffffffffffffffffffffffff167fddf252ad1be2c89b69c2b068fc378daa952ba7f163c4a11628f55a4df523b3ef60405160405180910390a4612212838383612b2a565b505050565b60006122457f360894a13ba1a3210667c828492db98dca3e2076cc3735a920a3ca505d382bbc60001b612b2f565b60000160009054906101000a900473ffffffffffffffffffffffffffffffffffffffff16905090565b612276611d27565b50565b6122a57f4910fdfa16fed3260ed0e7147f7cc6da11a60208b5b9406d12a635614ffd914360001b612b39565b60000160009054906101000a900460ff16156122c9576122c483612b43565b6123e2565b8273ffffffffffffffffffffffffffffffffffffffff166352d1902d6040518163ffffffff1660e01b8152600401602060405180830381865afa92505050801561233157506040513d601f19601f8201168201806040525081019061232e9190615001565b60015b612370576040517f08c379a0000000000000000000000000000000000000000000000000000000008152600401612367906150a0565b60405180910390fd5b7f360894a13ba1a3210667c828492db98dca3e2076cc3735a920a3ca505d382bbc60001b81146123d5576040517f08c379a00000000000000000000000000000000000000000000000000000000081526004016123cc90615132565b60405180910390fd5b506123e1838383612bfc565b5b505050565b600081600001549050919050565b6060600082141561243d576040518060400160405280600181526020017f30000000000000000000000000000000000000000000000000000000000000008152509050612551565b600082905060005b6000821461246f57808061245890614bce565b915050600a826124689190615181565b9150612445565b60008167ffffffffffffffff81111561248b5761248a6136e1565b5b6040519080825280601f01601f1916602001820160405280156124bd5781602001600182028036833780820191505090505b5090505b6000851461254a576001826124d69190614f4b565b9150600a856124e591906151b2565b60306124f19190614f7f565b60f81b81838151811061250757612506614ad5565b5b60200101907effffffffffffffffffffffffffffffffffffffffffffffffffffffffffffff1916908160001a905350600a856125439190615181565b94506124c1565b8093505050505b919050565b6125608383612c28565b61256d6000848484612e02565b6125ac576040517f08c379a00000000000000000000000000000000000000000000000000000000081526004016125a390615255565b60405180910390fd5b505050565b6001816000016000828254019250508190555050565b6000808273ffffffffffffffffffffffffffffffffffffffff163b119050919050565b600060019054906101000a900460ff16612639576040517f08c379a0000000000000000000000000000000000000000000000000000000008152600401612630906152e7565b60405180910390fd5b565b600060019054906101000a900460ff1661268a576040517f08c379a0000000000000000000000000000000000000000000000000000000008152600401612681906152e7565b60405180910390fd5b565b600060019054906101000a900460ff166126db576040517f08c379a00000000000000000000000000000000000000000000000000000000081526004016126d2906152e7565b60405180910390fd5b6126e3612f8a565b565b600060019054906101000a900460ff16612734576040517f08c379a000000000000000000000000000000000000000000000000000000000815260040161272b906152e7565b60405180910390fd5b61273c612feb565b565b600060019054906101000a900460ff1661278d576040517f08c379a0000000000000000000000000000000000000000000000000000000008152600401612784906152e7565b60405180910390fd5b612795613058565b565b600060fb60009054906101000a900473ffffffffffffffffffffffffffffffffffffffff1690508160fb60006101000a81548173ffffffffffffffffffffffffffffffffffffffff021916908373ffffffffffffffffffffffffffffffffffffffff1602179055508173ffffffffffffffffffffffffffffffffffffffff168173ffffffffffffffffffffffffffffffffffffffff167f8be0079c531659141344cd1fd0a4f28419497f9722a3daafe3b4186f6b6457e060405160405180910390a35050565b8173ffffffffffffffffffffffffffffffffffffffff168373ffffffffffffffffffffffffffffffffffffffff1614156128cc576040517f08c379a00000000000000000000000000000000000000000000000000000000081526004016128c390615353565b60405180910390fd5b80606a60008573ffffffffffffffffffffffffffffffffffffffff1673ffffffffffffffffffffffffffffffffffffffff16815260200190815260200160002060008473ffffffffffffffffffffffffffffffffffffffff1673ffffffffffffffffffffffffffffffffffffffff16815260200190815260200160002060006101000a81548160ff0219169083151502179055508173ffffffffffffffffffffffffffffffffffffffff168373ffffffffffffffffffffffffffffffffffffffff167f17307eab39ab6107e8899845ad3d59bd9653f200f220920489ca2b5937696c31836040516129bd91906134db565b60405180910390a3505050565b6129d5848484611fb0565b6129e184848484612e02565b612a20576040517f08c379a0000000000000000000000000000000000000000000000000000000008152600401612a1790615255565b60405180910390fd5b50505050565b60008073ffffffffffffffffffffffffffffffffffffffff166067600084815260200190815260200160002060009054906101000a900473ffffffffffffffffffffffffffffffffffffffff1673ffffffffffffffffffffffffffffffffffffffff1614159050919050565b60606101f78054612aa290613c4d565b80601f0160208091040260200160405190810160405280929190818152602001828054612ace90613c4d565b8015612b1b5780601f10612af057610100808354040283529160200191612b1b565b820191906000526020600020905b815481529060010190602001808311612afe57829003601f168201915b5050505050905090565b505050565b505050565b6000819050919050565b6000819050919050565b612b4c816125c7565b612b8b576040517f08c379a0000000000000000000000000000000000000000000000000000000008152600401612b82906153e5565b60405180910390fd5b80612bb87f360894a13ba1a3210667c828492db98dca3e2076cc3735a920a3ca505d382bbc60001b612b2f565b60000160006101000a81548173ffffffffffffffffffffffffffffffffffffffff021916908373ffffffffffffffffffffffffffffffffffffffff16021790555050565b612c05836130b2565b600082511180612c125750805b15612c2357612c218383613101565b505b505050565b600073ffffffffffffffffffffffffffffffffffffffff168273ffffffffffffffffffffffffffffffffffffffff161415612c98576040517f08c379a0000000000000000000000000000000000000000000000000000000008152600401612c8f90615451565b60405180910390fd5b612ca181612a26565b15612ce1576040517f08c379a0000000000000000000000000000000000000000000000000000000008152600401612cd8906154bd565b60405180910390fd5b612ced60008383612b25565b6001606860008473ffffffffffffffffffffffffffffffffffffffff1673ffffffffffffffffffffffffffffffffffffffff1681526020019081526020016000206000828254612d3d9190614f7f565b92505081905550816067600083815260200190815260200160002060006101000a81548173ffffffffffffffffffffffffffffffffffffffff021916908373ffffffffffffffffffffffffffffffffffffffff160217905550808273ffffffffffffffffffffffffffffffffffffffff16600073ffffffffffffffffffffffffffffffffffffffff167fddf252ad1be2c89b69c2b068fc378daa952ba7f163c4a11628f55a4df523b3ef60405160405180910390a4612dfe60008383612b2a565b5050565b6000612e238473ffffffffffffffffffffffffffffffffffffffff166125c7565b15612f7d578373ffffffffffffffffffffffffffffffffffffffff1663150b7a02612e4c611e5a565b8786866040518563ffffffff1660e01b8152600401612e6e9493929190615532565b6020604051808303816000875af1925050508015612eaa57506040513d601f19601f82011682018060405250810190612ea79190615593565b60015b612f2d573d8060008114612eda576040519150601f19603f3d011682016040523d82523d6000602084013e612edf565b606091505b50600081511415612f25576040517f08c379a0000000000000000000000000000000000000000000000000000000008152600401612f1c90615255565b60405180910390fd5b805181602001fd5b63150b7a0260e01b7bffffffffffffffffffffffffffffffffffffffffffffffffffffffff1916817bffffffffffffffffffffffffffffffffffffffffffffffffffffffff191614915050612f82565b600190505b949350505050565b600060019054906101000a900460ff16612fd9576040517f08c379a0000000000000000000000000000000000000000000000000000000008152600401612fd0906152e7565b60405180910390fd5b612fe9612fe4611e5a565b612797565b565b600060019054906101000a900460ff1661303a576040517f08c379a0000000000000000000000000000000000000000000000000000000008152600401613031906152e7565b60405180910390fd5b600061012d60006101000a81548160ff021916908315150217905550565b600060019054906101000a900460ff166130a7576040517f08c379a000000000000000000000000000000000000000000000000000000000815260040161309e906152e7565b60405180910390fd5b600161015f81905550565b6130bb81612b43565b8073ffffffffffffffffffffffffffffffffffffffff167fbc7cd75a20ee27fd9adebab32041f755214dbc6bffa90cc0225b39da2e5c2d3b60405160405180910390a250565b606061310c836125c7565b61314b576040517f08c379a000000000000000000000000000000000000000000000000000000000815260040161314290615632565b60405180910390fd5b6000808473ffffffffffffffffffffffffffffffffffffffff1684604051613173919061568e565b600060405180830381855af49150503d80600081146131ae576040519150601f19603f3d011682016040523d82523d6000602084013e6131b3565b606091505b50915091506131db82826040518060600160405280602781526020016156a6602791396131e5565b9250505092915050565b606083156131f557829050613245565b6000835111156132085782518084602001fd5b816040517f08c379a000000000000000000000000000000000000000000000000000000000815260040161323c919061358f565b60405180910390fd5b9392505050565b82805461325890613c4d565b90600052602060002090601f01602090048101928261327a57600085556132c1565b82601f1061329357803560ff19168380011785556132c1565b828001600101855582156132c1579182015b828111156132c05782358255916020019190600101906132a5565b5b5090506132ce9190613358565b5090565b8280546132de90613c4d565b90600052602060002090601f0160209004810192826133005760008555613347565b82601f1061331957805160ff1916838001178555613347565b82800160010185558215613347579182015b8281111561334657825182559160200191906001019061332b565b5b5090506133549190613358565b5090565b5b80821115613371576000816000905550600101613359565b5090565b6000604051905090565b600080fd5b600080fd5b600080fd5b600080fd5b600080fd5b60008083601f8401126133ae576133ad613389565b5b8235905067ffffffffffffffff8111156133cb576133ca61338e565b5b6020830191508360018202830111156133e7576133e6613393565b5b9250929050565b600080602083850312156134055761340461337f565b5b600083013567ffffffffffffffff81111561342357613422613384565b5b61342f85828601613398565b92509250509250929050565b60007fffffffff0000000000000000000000000000000000000000000000000000000082169050919050565b6134708161343b565b811461347b57600080fd5b50565b60008135905061348d81613467565b92915050565b6000602082840312156134a9576134a861337f565b5b60006134b78482850161347e565b91505092915050565b60008115159050919050565b6134d5816134c0565b82525050565b60006020820190506134f060008301846134cc565b92915050565b600081519050919050565b600082825260208201905092915050565b60005b83811015613530578082015181840152602081019050613515565b8381111561353f576000848401525b50505050565b6000601f19601f8301169050919050565b6000613561826134f6565b61356b8185613501565b935061357b818560208601613512565b61358481613545565b840191505092915050565b600060208201905081810360008301526135a98184613556565b905092915050565b6000819050919050565b6135c4816135b1565b81146135cf57600080fd5b50565b6000813590506135e1816135bb565b92915050565b6000602082840312156135fd576135fc61337f565b5b600061360b848285016135d2565b91505092915050565b600073ffffffffffffffffffffffffffffffffffffffff82169050919050565b600061363f82613614565b9050919050565b61364f81613634565b82525050565b600060208201905061366a6000830184613646565b92915050565b61367981613634565b811461368457600080fd5b50565b60008135905061369681613670565b92915050565b600080604083850312156136b3576136b261337f565b5b60006136c185828601613687565b92505060206136d2858286016135d2565b9150509250929050565b600080fd5b7f4e487b7100000000000000000000000000000000000000000000000000000000600052604160045260246000fd5b61371982613545565b810181811067ffffffffffffffff82111715613738576137376136e1565b5b80604052505050565b600061374b613375565b90506137578282613710565b919050565b600067ffffffffffffffff821115613777576137766136e1565b5b61378082613545565b9050602081019050919050565b82818337600083830152505050565b60006137af6137aa8461375c565b613741565b9050828152602081018484840111156137cb576137ca6136dc565b5b6137d684828561378d565b509392505050565b600082601f8301126137f3576137f2613389565b5b813561380384826020860161379c565b91505092915050565b600080600080608085870312156138265761382561337f565b5b600061383487828801613687565b945050602061384587828801613687565b9350506040613856878288016135d2565b925050606085013567ffffffffffffffff81111561387757613876613384565b5b613883878288016137de565b91505092959194509250565b6138988161343b565b82525050565b60006020820190506138b3600083018461388f565b92915050565b6000806000606084860312156138d2576138d161337f565b5b60006138e086828701613687565b93505060206138f186828701613687565b9250506040613902868287016135d2565b9150509250925092565b6000602082840312156139225761392161337f565b5b600061393084828501613687565b91505092915050565b613942816135b1565b82525050565b600060208201905061395d6000830184613939565b92915050565b600067ffffffffffffffff82111561397e5761397d6136e1565b5b61398782613545565b9050602081019050919050565b60006139a76139a284613963565b613741565b9050828152602081018484840111156139c3576139c26136dc565b5b6139ce84828561378d565b509392505050565b600082601f8301126139eb576139ea613389565b5b81356139fb848260208601613994565b91505092915050565b60008060408385031215613a1b57613a1a61337f565b5b600083013567ffffffffffffffff811115613a3957613a38613384565b5b613a45858286016139d6565b925050602083013567ffffffffffffffff811115613a6657613a65613384565b5b613a72858286016139d6565b9150509250929050565b60008060408385031215613a9357613a9261337f565b5b6000613aa185828601613687565b925050602083013567ffffffffffffffff811115613ac257613ac1613384565b5b613ace858286016137de565b9150509250929050565b6000819050919050565b613aeb81613ad8565b82525050565b6000602082019050613b066000830184613ae2565b92915050565b60008060408385031215613b2357613b2261337f565b5b6000613b31858286016135d2565b9250506020613b42858286016135d2565b9150509250929050565b613b55816134c0565b8114613b6057600080fd5b50565b600081359050613b7281613b4c565b92915050565b60008060408385031215613b8f57613b8e61337f565b5b6000613b9d85828601613687565b9250506020613bae85828601613b63565b9150509250929050565b60008060408385031215613bcf57613bce61337f565b5b6000613bdd85828601613687565b9250506020613bee85828601613687565b9150509250929050565b7f7570646174652000000000000000000000000000000000000000000000000000815250565b7f4e487b7100000000000000000000000000000000000000000000000000000000600052602260045260246000fd5b60006002820490506001821680613c6557607f821691505b60208210811415613c7957613c78613c1e565b5b50919050565b600081905092915050565b60008190508160005260206000209050919050565b60008154613cac81613c4d565b613cb68186613c7f565b94506001821660008114613cd15760018114613ce257613d15565b60ff19831686528186019350613d15565b613ceb85613c8a565b60005b83811015613d0d57815481890152600182019150602081019050613cee565b838801955050505b50505092915050565b7f207365742065787465726e616c5f6c696e6b203d200000000000000000000000815250565b6000613d508385613c7f565b9350613d5d83858461378d565b82840190509392505050565b7f7c7c273f746f6b656e49643d277c7c6964000000000000000000000000000000815250565b7f3b00000000000000000000000000000000000000000000000000000000000000815250565b6000613dc082613bf8565b600782019150613dd08286613c9f565b9150613ddb82613d1e565b601582019150613dec828486613d44565b9150613df782613d69565b601182019150613e0682613d8f565b600182019150819050949350505050565b6000606082019050613e2c6000830186613646565b613e396020830185613939565b8181036040830152613e4b8184613556565b9050949350505050565b60008154613e6281613c4d565b613e6c8186613501565b94506001821660008114613e875760018114613e9957613ecc565b60ff1983168652602086019350613ecc565b613ea285613c8a565b60005b83811015613ec457815481890152600182019150602081019050613ea5565b808801955050505b50505092915050565b6000606082019050613eea6000830186613939565b613ef76020830185613939565b8181036040830152613f098184613e55565b9050949350505050565b7f4552433732313a20617070726f76616c20746f2063757272656e74206f776e6560008201527f7200000000000000000000000000000000000000000000000000000000000000602082015250565b6000613f6f602183613501565b9150613f7a82613f13565b604082019050919050565b60006020820190508181036000830152613f9e81613f62565b9050919050565b7f4552433732313a20617070726f76652063616c6c6572206973206e6f7420746f60008201527f6b656e206f776e6572206e6f7220617070726f76656420666f7220616c6c0000602082015250565b6000614001603e83613501565b915061400c82613fa5565b604082019050919050565b6000602082019050818103600083015261403081613ff4565b9050919050565b7f4552433732313a2063616c6c6572206973206e6f7420746f6b656e206f776e6560008201527f72206e6f7220617070726f766564000000000000000000000000000000000000602082015250565b6000614093602e83613501565b915061409e82614037565b604082019050919050565b600060208201905081810360008301526140c281614086565b9050919050565b7f46756e6374696f6e206d7573742062652063616c6c6564207468726f7567682060008201527f64656c656761746563616c6c0000000000000000000000000000000000000000602082015250565b6000614125602c83613501565b9150614130826140c9565b604082019050919050565b6000602082019050818103600083015261415481614118565b9050919050565b7f46756e6374696f6e206d7573742062652063616c6c6564207468726f7567682060008201527f6163746976652070726f78790000000000000000000000000000000000000000602082015250565b60006141b7602c83613501565b91506141c28261415b565b604082019050919050565b600060208201905081810360008301526141e6816141aa565b9050919050565b7f494e5345525420494e544f200000000000000000000000000000000000000000815250565b7f202869642c2065787465726e616c5f6c696e6b2c206169642c2067696429205660008201527f414c554553202800000000000000000000000000000000000000000000000000602082015250565b600061426f602783613c7f565b915061427a82614213565b602782019050919050565b6000614290826134f6565b61429a8185613c7f565b93506142aa818560208601613512565b80840191505092915050565b7f2c20270000000000000000000000000000000000000000000000000000000000815250565b7f272c20302c203029000000000000000000000000000000000000000000000000815250565b600061430d826141ed565b600c8201915061431d8286613c9f565b915061432882614262565b91506143348285614285565b915061433f826142b6565b60038201915061434f8284613c9f565b915061435a826142dc565b600882019150819050949350505050565b60006040820190506143806000830185613939565b61438d6020830184613939565b9392505050565b7f496e697469616c697a61626c653a20636f6e747261637420697320616c72656160008201527f647920696e697469616c697a6564000000000000000000000000000000000000602082015250565b60006143f0602e83613501565b91506143fb82614394565b604082019050919050565b6000602082019050818103600083015261441f816143e3565b9050919050565b6000819050919050565b600060ff82169050919050565b6000819050919050565b600061446261445d61445884614426565b61443d565b614430565b9050919050565b61447281614447565b82525050565b600060208201905061448d6000830184614469565b92915050565b7f555550535570677261646561626c653a206d757374206e6f742062652063616c60008201527f6c6564207468726f7567682064656c656761746563616c6c0000000000000000602082015250565b60006144ef603883613501565b91506144fa82614493565b604082019050919050565b6000602082019050818103600083015261451e816144e2565b9050919050565b7f4552433732313a20696e76616c696420746f6b656e2049440000000000000000600082015250565b600061455b601883613501565b915061456682614525565b602082019050919050565b6000602082019050818103600083015261458a8161454e565b9050919050565b6000815190506145a081613670565b92915050565b6000602082840312156145bc576145bb61337f565b5b60006145ca84828501614591565b91505092915050565b7f496e76616c6964206f776e657200000000000000000000000000000000000000600082015250565b6000614609600d83613501565b9150614614826145d3565b602082019050919050565b60006020820190508181036000830152614638816145fc565b9050919050565b7f5550444154452000000000000000000000000000000000000000000000000000815250565b7f2053455420676964203d20000000000000000000000000000000000000000000815250565b7f205748455245206964203d200000000000000000000000000000000000000000815250565b60006146bc8261463f565b6007820191506146cc8286613c9f565b91506146d782614665565b600b820191506146e78285614285565b91506146f28261468b565b600c820191506147028284614285565b915061470d82613d8f565b600182019150819050949350505050565b60006060820190506147336000830186613939565b6147406020830185613939565b61474d6040830184613939565b949350505050565b7f4552433732313a2061646472657373207a65726f206973206e6f74206120766160008201527f6c6964206f776e65720000000000000000000000000000000000000000000000602082015250565b60006147b1602983613501565b91506147bc82614755565b604082019050919050565b600060208201905081810360008301526147e0816147a4565b9050919050565b7f2053455420616964203d20000000000000000000000000000000000000000000815250565b60006148188261463f565b6007820191506148288286613c9f565b9150614833826147e7565b600b820191506148438285614285565b915061484e8261468b565b600c8201915061485e8284614285565b915061486982613d8f565b600182019150819050949350505050565b7f435245415445205441424c452000000000000000000000000000000000000000815250565b7f5f00000000000000000000000000000000000000000000000000000000000000815250565b7f2028696420696e742c2065787465726e616c5f6c696e6b20746578742c20616960008201527f6420696e742c2067696420696e74293b00000000000000000000000000000000602082015250565b6000614922603083613c7f565b915061492d826148c6565b603082019050919050565b60006149438261487a565b600d820191506149538285613c9f565b915061495e826148a0565b60018201915061496e8284614285565b915061497982614915565b91508190509392505050565b600060408201905061499a6000830185613646565b81810360208301526149ac8184613556565b90509392505050565b6000815190506149c4816135bb565b92915050565b6000602082840312156149e0576149df61337f565b5b60006149ee848285016149b5565b91505092915050565b7f45524337323155524953746f726167653a2055524920717565727920666f722060008201527f6e6f6e6578697374656e7420746f6b656e000000000000000000000000000000602082015250565b6000614a53603183613501565b9150614a5e826149f7565b604082019050919050565b60006020820190508181036000830152614a8281614a46565b9050919050565b7f2c00000000000000000000000000000000000000000000000000000000000000815250565b6000614abb8284614285565b9150614ac682614a89565b60018201915081905092915050565b7f4e487b7100000000000000000000000000000000000000000000000000000000600052603260045260246000fd5b7f2700000000000000000000000000000000000000000000000000000000000000815250565b7f272c000000000000000000000000000000000000000000000000000000000000815250565b6000614b5c8286614285565b9150614b6782614b04565b600182019150614b778285614285565b9150614b8282614b2a565b600282019150614b928284614285565b9150819050949350505050565b7f4e487b7100000000000000000000000000000000000000000000000000000000600052601160045260246000fd5b6000614bd9826135b1565b91507fffffffffffffffffffffffffffffffffffffffffffffffffffffffffffffffff821415614c0c57614c0b614b9f565b5b600182019050919050565b7f53454c4543542532300000000000000000000000000000000000000000000000815250565b7f25323046524f4d25323000000000000000000000000000000000000000000000815250565b7f2532305748455245253230696425334400000000000000000000000000000000815250565b7f266d6f64653d6c69737400000000000000000000000000000000000000000000815250565b6000614cbb8287614285565b9150614cc682614c17565b600982019150614cd68286614285565b9150614ce182614c3d565b600a82019150614cf18285613c9f565b9150614cfc82614c63565b601082019150614d0c8284614285565b9150614d1782614c89565b600a8201915081905095945050505050565b7f4f776e61626c653a206e6577206f776e657220697320746865207a65726f206160008201527f6464726573730000000000000000000000000000000000000000000000000000602082015250565b6000614d85602683613501565b9150614d9082614d29565b604082019050919050565b60006020820190508181036000830152614db481614d78565b9050919050565b7f4f776e61626c653a2063616c6c6572206973206e6f7420746865206f776e6572600082015250565b6000614df1602083613501565b9150614dfc82614dbb565b602082019050919050565b60006020820190508181036000830152614e2081614de4565b9050919050565b7f4552433732313a207472616e736665722066726f6d20696e636f72726563742060008201527f6f776e6572000000000000000000000000000000000000000000000000000000602082015250565b6000614e83602583613501565b9150614e8e82614e27565b604082019050919050565b60006020820190508181036000830152614eb281614e76565b9050919050565b7f4552433732313a207472616e7366657220746f20746865207a65726f2061646460008201527f7265737300000000000000000000000000000000000000000000000000000000602082015250565b6000614f15602483613501565b9150614f2082614eb9565b604082019050919050565b60006020820190508181036000830152614f4481614f08565b9050919050565b6000614f56826135b1565b9150614f61836135b1565b925082821015614f7457614f73614b9f565b5b828203905092915050565b6000614f8a826135b1565b9150614f95836135b1565b9250827fffffffffffffffffffffffffffffffffffffffffffffffffffffffffffffffff03821115614fca57614fc9614b9f565b5b828201905092915050565b614fde81613ad8565b8114614fe957600080fd5b50565b600081519050614ffb81614fd5565b92915050565b6000602082840312156150175761501661337f565b5b600061502584828501614fec565b91505092915050565b7f45524331393637557067726164653a206e657720696d706c656d656e7461746960008201527f6f6e206973206e6f742055555053000000000000000000000000000000000000602082015250565b600061508a602e83613501565b91506150958261502e565b604082019050919050565b600060208201905081810360008301526150b98161507d565b9050919050565b7f45524331393637557067726164653a20756e737570706f727465642070726f7860008201527f6961626c65555549440000000000000000000000000000000000000000000000602082015250565b600061511c602983613501565b9150615127826150c0565b604082019050919050565b6000602082019050818103600083015261514b8161510f565b9050919050565b7f4e487b7100000000000000000000000000000000000000000000000000000000600052601260045260246000fd5b600061518c826135b1565b9150615197836135b1565b9250826151a7576151a6615152565b5b828204905092915050565b60006151bd826135b1565b91506151c8836135b1565b9250826151d8576151d7615152565b5b828206905092915050565b7f4552433732313a207472616e7366657220746f206e6f6e20455243373231526560008201527f63656976657220696d706c656d656e7465720000000000000000000000000000602082015250565b600061523f603283613501565b915061524a826151e3565b604082019050919050565b6000602082019050818103600083015261526e81615232565b9050919050565b7f496e697469616c697a61626c653a20636f6e7472616374206973206e6f74206960008201527f6e697469616c697a696e67000000000000000000000000000000000000000000602082015250565b60006152d1602b83613501565b91506152dc82615275565b604082019050919050565b60006020820190508181036000830152615300816152c4565b9050919050565b7f4552433732313a20617070726f766520746f2063616c6c657200000000000000600082015250565b600061533d601983613501565b915061534882615307565b602082019050919050565b6000602082019050818103600083015261536c81615330565b9050919050565b7f455243313936373a206e657720696d706c656d656e746174696f6e206973206e60008201527f6f74206120636f6e747261637400000000000000000000000000000000000000602082015250565b60006153cf602d83613501565b91506153da82615373565b604082019050919050565b600060208201905081810360008301526153fe816153c2565b9050919050565b7f4552433732313a206d696e7420746f20746865207a65726f2061646472657373600082015250565b600061543b602083613501565b915061544682615405565b602082019050919050565b6000602082019050818103600083015261546a8161542e565b9050919050565b7f4552433732313a20746f6b656e20616c7265616479206d696e74656400000000600082015250565b60006154a7601c83613501565b91506154b282615471565b602082019050919050565b600060208201905081810360008301526154d68161549a565b9050919050565b600081519050919050565b600082825260208201905092915050565b6000615504826154dd565b61550e81856154e8565b935061551e818560208601613512565b61552781613545565b840191505092915050565b60006080820190506155476000830187613646565b6155546020830186613646565b6155616040830185613939565b818103606083015261557381846154f9565b905095945050505050565b60008151905061558d81613467565b92915050565b6000602082840312156155a9576155a861337f565b5b60006155b78482850161557e565b91505092915050565b7f416464726573733a2064656c65676174652063616c6c20746f206e6f6e2d636f60008201527f6e74726163740000000000000000000000000000000000000000000000000000602082015250565b600061561c602683613501565b9150615627826155c0565b604082019050919050565b6000602082019050818103600083015261564b8161560f565b9050919050565b600081905092915050565b6000615668826154dd565b6156728185615652565b9350615682818560208601613512565b80840191505092915050565b600061569a828461565d565b91508190509291505056fe416464726573733a206c6f772d6c6576656c2064656c65676174652063616c6c206661696c6564a264697066735822122007363c53500e21d6b570dce4bc0fa28437e9ca56334e9aed44ead49293f244d064736f6c634300080c0033",
  "linkReferences": {},
  "deployedLinkReferences": {}
}