{
  "_format": "hh-sol-artifact-1",
  "contractName": "MojoCore",
  "sourceName": "contracts/MojoCore.sol",
  "abi": [
    {
      "inputs": [
        {
          "internalType": "address",
          "name": "registry",
          "type": "address"
        }
      ],
      "stateMutability": "nonpayable",
      "type": "constructor"
    },
    {
      "anonymous": false,
      "inputs": [
        {
          "indexed": true,
          "internalType": "address",
          "name": "owner",
          "type": "address"
        },
        {
          "indexed": true,
          "internalType": "address",
          "name": "approved",
          "type": "address"
        },
        {
          "indexed": true,
          "internalType": "uint256",
          "name": "tokenId",
          "type": "uint256"
        }
      ],
      "name": "Approval",
      "type": "event"
    },
    {
      "anonymous": false,
      "inputs": [
        {
          "indexed": true,
          "internalType": "address",
          "name": "owner",
          "type": "address"
        },
        {
          "indexed": true,
          "internalType": "address",
          "name": "operator",
          "type": "address"
        },
        {
          "indexed": false,
          "internalType": "bool",
          "name": "approved",
          "type": "bool"
        }
      ],
      "name": "ApprovalForAll",
      "type": "event"
    },
    {
      "anonymous": false,
      "inputs": [
        {
          "indexed": true,
          "internalType": "address",
          "name": "from",
          "type": "address"
        },
        {
          "indexed": false,
          "internalType": "uint256",
          "name": "timestamp",
          "type": "uint256"
        },
        {
          "indexed": false,
          "internalType": "uint256",
          "name": "tokenId",
          "type": "uint256"
        }
      ],
      "name": "NewNftMinted",
      "type": "event"
    },
    {
      "anonymous": false,
      "inputs": [
        {
          "indexed": true,
          "internalType": "address",
          "name": "previousOwner",
          "type": "address"
        },
        {
          "indexed": true,
          "internalType": "address",
          "name": "newOwner",
          "type": "address"
        }
      ],
      "name": "OwnershipTransferred",
      "type": "event"
    },
    {
      "anonymous": false,
      "inputs": [
        {
          "indexed": true,
          "internalType": "address",
          "name": "from",
          "type": "address"
        },
        {
          "indexed": true,
          "internalType": "address",
          "name": "to",
          "type": "address"
        },
        {
          "indexed": true,
          "internalType": "uint256",
          "name": "tokenId",
          "type": "uint256"
        }
      ],
      "name": "Transfer",
      "type": "event"
    },
    {
      "inputs": [
        {
          "internalType": "address",
          "name": "to",
          "type": "address"
        },
        {
          "internalType": "uint256",
          "name": "tokenId",
          "type": "uint256"
        }
      ],
      "name": "approve",
      "outputs": [],
      "stateMutability": "nonpayable",
      "type": "function"
    },
    {
      "inputs": [
        {
          "internalType": "address",
          "name": "owner",
          "type": "address"
        }
      ],
      "name": "balanceOf",
      "outputs": [
        {
          "internalType": "uint256",
          "name": "",
          "type": "uint256"
        }
      ],
      "stateMutability": "view",
      "type": "function"
    },
    {
      "inputs": [
        {
          "internalType": "uint256",
          "name": "tokenId",
          "type": "uint256"
        }
      ],
      "name": "getApproved",
      "outputs": [
        {
          "internalType": "address",
          "name": "",
          "type": "address"
        }
      ],
      "stateMutability": "view",
      "type": "function"
    },
    {
      "inputs": [
        {
          "internalType": "address",
          "name": "owner",
          "type": "address"
        },
        {
          "internalType": "address",
          "name": "operator",
          "type": "address"
        }
      ],
      "name": "isApprovedForAll",
      "outputs": [
        {
          "internalType": "bool",
          "name": "",
          "type": "bool"
        }
      ],
      "stateMutability": "view",
      "type": "function"
    },
    {
      "inputs": [],
      "name": "name",
      "outputs": [
        {
          "internalType": "string",
          "name": "",
          "type": "string"
        }
      ],
      "stateMutability": "view",
      "type": "function"
    },
    {
      "inputs": [],
      "name": "owner",
      "outputs": [
        {
          "internalType": "address",
          "name": "",
          "type": "address"
        }
      ],
      "stateMutability": "view",
      "type": "function"
    },
    {
      "inputs": [
        {
          "internalType": "uint256",
          "name": "tokenId",
          "type": "uint256"
        }
      ],
      "name": "ownerOf",
      "outputs": [
        {
          "internalType": "address",
          "name": "",
          "type": "address"
        }
      ],
      "stateMutability": "view",
      "type": "function"
    },
    {
      "inputs": [],
      "name": "renounceOwnership",
      "outputs": [],
      "stateMutability": "nonpayable",
      "type": "function"
    },
    {
      "inputs": [
        {
          "internalType": "address",
          "name": "to",
          "type": "address"
        }
      ],
      "name": "safeMint",
      "outputs": [
        {
          "internalType": "uint256",
          "name": "",
          "type": "uint256"
        }
      ],
      "stateMutability": "nonpayable",
      "type": "function"
    },
    {
      "inputs": [
        {
          "internalType": "address",
          "name": "from",
          "type": "address"
        },
        {
          "internalType": "address",
          "name": "to",
          "type": "address"
        },
        {
          "internalType": "uint256",
          "name": "tokenId",
          "type": "uint256"
        }
      ],
      "name": "safeTransferFrom",
      "outputs": [],
      "stateMutability": "nonpayable",
      "type": "function"
    },
    {
      "inputs": [
        {
          "internalType": "address",
          "name": "from",
          "type": "address"
        },
        {
          "internalType": "address",
          "name": "to",
          "type": "address"
        },
        {
          "internalType": "uint256",
          "name": "tokenId",
          "type": "uint256"
        },
        {
          "internalType": "bytes",
          "name": "data",
          "type": "bytes"
        }
      ],
      "name": "safeTransferFrom",
      "outputs": [],
      "stateMutability": "nonpayable",
      "type": "function"
    },
    {
      "inputs": [
        {
          "internalType": "address",
          "name": "operator",
          "type": "address"
        },
        {
          "internalType": "bool",
          "name": "approved",
          "type": "bool"
        }
      ],
      "name": "setApprovalForAll",
      "outputs": [],
      "stateMutability": "nonpayable",
      "type": "function"
    },
    {
      "inputs": [
        {
          "internalType": "string",
          "name": "externalURL",
          "type": "string"
        }
      ],
      "name": "setExternalURL",
      "outputs": [],
      "stateMutability": "nonpayable",
      "type": "function"
    },
    {
      "inputs": [
        {
          "internalType": "bytes4",
          "name": "interfaceId",
          "type": "bytes4"
        }
      ],
      "name": "supportsInterface",
      "outputs": [
        {
          "internalType": "bool",
          "name": "",
          "type": "bool"
        }
      ],
      "stateMutability": "view",
      "type": "function"
    },
    {
      "inputs": [],
      "name": "symbol",
      "outputs": [
        {
          "internalType": "string",
          "name": "",
          "type": "string"
        }
      ],
      "stateMutability": "view",
      "type": "function"
    },
    {
      "inputs": [
        {
          "internalType": "uint256",
          "name": "tokenId",
          "type": "uint256"
        }
      ],
      "name": "tokenURI",
      "outputs": [
        {
          "internalType": "string",
          "name": "",
          "type": "string"
        }
      ],
      "stateMutability": "view",
      "type": "function"
    },
    {
      "inputs": [
        {
          "internalType": "address",
          "name": "from",
          "type": "address"
        },
        {
          "internalType": "address",
          "name": "to",
          "type": "address"
        },
        {
          "internalType": "uint256",
          "name": "tokenId",
          "type": "uint256"
        }
      ],
      "name": "transferFrom",
      "outputs": [],
      "stateMutability": "nonpayable",
      "type": "function"
    },
    {
      "inputs": [
        {
          "internalType": "address",
          "name": "newOwner",
          "type": "address"
        }
      ],
      "name": "transferOwnership",
      "outputs": [],
      "stateMutability": "nonpayable",
      "type": "function"
    }
  ],
  "bytecode": "0x60806040526040518060600160405280602a8152602001620041d6602a9139600a908051906020019062000035929190620005a4565b506040518060400160405280600481526020017f6d6f6a6f00000000000000000000000000000000000000000000000000000000815250600d908051906020019062000083929190620005a4565b506040518060400160405280601381526020017f6e6f742e696d706c656d656e7465642e636f6d00000000000000000000000000815250600e9080519060200190620000d1929190620005a4565b50348015620000df57600080fd5b5060405162004200380380620042008339818101604052810190620001059190620006be565b6040518060400160405280600781526020017f4d6f6a6f4e4654000000000000000000000000000000000000000000000000008152506040518060400160405280600481526020017f6d4e465400000000000000000000000000000000000000000000000000000000815250816000908051906020019062000189929190620005a4565b508060019080519060200190620001a2929190620005a4565b505050620001c5620001b96200035c60201b60201c565b6200036460201b60201c565b80600960006101000a81548173ffffffffffffffffffffffffffffffffffffffff021916908373ffffffffffffffffffffffffffffffffffffffff160217905550600960009054906101000a900473ffffffffffffffffffffffffffffffffffffffff1673ffffffffffffffffffffffffffffffffffffffff16633a9151b030600d6200025d466200042a60201b62000ea81760201c565b60405160200162000270929190620008ea565b6040516020818303038152906040526040518363ffffffff1660e01b81526004016200029e929190620009b9565b6020604051808303816000875af1158015620002be573d6000803e3d6000fd5b505050506040513d601f19601f82011682018060405250810190620002e4919062000a28565b600c81905550600d62000302466200042a60201b62000ea81760201c565b6200031a600c546200042a60201b62000ea81760201c565b6040516020016200032e9392919062000a5a565b604051602081830303815290604052600b908051906020019062000354929190620005a4565b505062000cc5565b600033905090565b6000600760009054906101000a900473ffffffffffffffffffffffffffffffffffffffff16905081600760006101000a81548173ffffffffffffffffffffffffffffffffffffffff021916908373ffffffffffffffffffffffffffffffffffffffff1602179055508173ffffffffffffffffffffffffffffffffffffffff168173ffffffffffffffffffffffffffffffffffffffff167f8be0079c531659141344cd1fd0a4f28419497f9722a3daafe3b4186f6b6457e060405160405180910390a35050565b6060600082141562000474576040518060400160405280600181526020017f300000000000000000000000000000000000000000000000000000000000000081525090506200059f565b600082905060005b60008214620004ac578080620004929062000ae2565b915050600a82620004a4919062000b5f565b91506200047c565b60008167ffffffffffffffff811115620004cb57620004ca62000b97565b5b6040519080825280601f01601f191660200182016040528015620004fe5781602001600182028036833780820191505090505b5090505b6000851462000598576001826200051a919062000bc6565b9150600a856200052b919062000c01565b603062000539919062000c39565b60f81b81838151811062000552576200055162000c96565b5b60200101907effffffffffffffffffffffffffffffffffffffffffffffffffffffffffffff1916908160001a905350600a8562000590919062000b5f565b945062000502565b8093505050505b919050565b828054620005b29062000745565b90600052602060002090601f016020900481019282620005d6576000855562000622565b82601f10620005f157805160ff191683800117855562000622565b8280016001018555821562000622579182015b828111156200062157825182559160200191906001019062000604565b5b50905062000631919062000635565b5090565b5b808211156200065057600081600090555060010162000636565b5090565b600080fd5b600073ffffffffffffffffffffffffffffffffffffffff82169050919050565b6000620006868262000659565b9050919050565b620006988162000679565b8114620006a457600080fd5b50565b600081519050620006b8816200068d565b92915050565b600060208284031215620006d757620006d662000654565b5b6000620006e784828501620006a7565b91505092915050565b7f435245415445205441424c452000000000000000000000000000000000000000815250565b7f4e487b7100000000000000000000000000000000000000000000000000000000600052602260045260246000fd5b600060028204905060018216806200075e57607f821691505b6020821081141562000775576200077462000716565b5b50919050565b600081905092915050565b60008190508160005260206000209050919050565b60008154620007aa8162000745565b620007b681866200077b565b94506001821660008114620007d45760018114620007e6576200081d565b60ff198316865281860193506200081d565b620007f18562000786565b60005b838110156200081557815481890152600182019150602081019050620007f4565b838801955050505b50505092915050565b7f5f00000000000000000000000000000000000000000000000000000000000000815250565b600081519050919050565b60005b83811015620008775780820151818401526020810190506200085a565b8381111562000887576000848401525b50505050565b60006200089a826200084c565b620008a681856200077b565b9350620008b881856020860162000857565b80840191505092915050565b7f2028696420696e742c2065787465726e616c5f6c696e6b2074657874293b0000815250565b6000620008f782620006f0565b600d820191506200090982856200079b565b9150620009168262000826565b6001820191506200092882846200088d565b91506200093582620008c4565b601e820191508190509392505050565b620009508162000679565b82525050565b600082825260208201905092915050565b6000601f19601f8301169050919050565b600062000985826200084c565b62000991818562000956565b9350620009a381856020860162000857565b620009ae8162000967565b840191505092915050565b6000604082019050620009d0600083018562000945565b8181036020830152620009e4818462000978565b90509392505050565b6000819050919050565b62000a0281620009ed565b811462000a0e57600080fd5b50565b60008151905062000a2281620009f7565b92915050565b60006020828403121562000a415762000a4062000654565b5b600062000a518482850162000a11565b91505092915050565b600062000a6882866200079b565b915062000a758262000826565b60018201915062000a8782856200088d565b915062000a948262000826565b60018201915062000aa682846200088d565b9150819050949350505050565b7f4e487b7100000000000000000000000000000000000000000000000000000000600052601160045260246000fd5b600062000aef82620009ed565b91507fffffffffffffffffffffffffffffffffffffffffffffffffffffffffffffffff82141562000b255762000b2462000ab3565b5b600182019050919050565b7f4e487b7100000000000000000000000000000000000000000000000000000000600052601260045260246000fd5b600062000b6c82620009ed565b915062000b7983620009ed565b92508262000b8c5762000b8b62000b30565b5b828204905092915050565b7f4e487b7100000000000000000000000000000000000000000000000000000000600052604160045260246000fd5b600062000bd382620009ed565b915062000be083620009ed565b92508282101562000bf65762000bf562000ab3565b5b828203905092915050565b600062000c0e82620009ed565b915062000c1b83620009ed565b92508262000c2e5762000c2d62000b30565b5b828206905092915050565b600062000c4682620009ed565b915062000c5383620009ed565b9250827fffffffffffffffffffffffffffffffffffffffffffffffffffffffffffffffff0382111562000c8b5762000c8a62000ab3565b5b828201905092915050565b7f4e487b7100000000000000000000000000000000000000000000000000000000600052603260045260246000fd5b6135018062000cd56000396000f3fe608060405234801561001057600080fd5b50600436106101165760003560e01c806370a08231116100a2578063a22cb46511610071578063a22cb465146102df578063b88d4fde146102fb578063c87b56dd14610317578063e985e9c514610347578063f2fde38b1461037757610116565b806370a0823114610269578063715018a6146102995780638da5cb5b146102a357806395d89b41146102c157610116565b8063095ea7b3116100e9578063095ea7b3146101b557806323b872dd146101d157806340d097c3146101ed57806342842e0e1461021d5780636352211e1461023957610116565b806301dbcd4a1461011b57806301ffc9a71461013757806306fdde0314610167578063081812fc14610185575b600080fd5b61013560048036038101906101309190611eaa565b610393565b005b610151600480360381019061014c9190611f4f565b610468565b60405161015e9190611f97565b60405180910390f35b61016f61054a565b60405161017c919061204b565b60405180910390f35b61019f600480360381019061019a91906120a3565b6105dc565b6040516101ac9190612111565b60405180910390f35b6101cf60048036038101906101ca9190612158565b610622565b005b6101eb60048036038101906101e69190612198565b61073a565b005b610207600480360381019061020291906121eb565b61079a565b6040516102149190612227565b60405180910390f35b61023760048036038101906102329190612198565b6108f8565b005b610253600480360381019061024e91906120a3565b610918565b6040516102609190612111565b60405180910390f35b610283600480360381019061027e91906121eb565b6109ca565b6040516102909190612227565b60405180910390f35b6102a1610a82565b005b6102ab610a96565b6040516102b89190612111565b60405180910390f35b6102c9610ac0565b6040516102d6919061204b565b60405180910390f35b6102f960048036038101906102f4919061226e565b610b52565b005b610315600480360381019061031091906123de565b610b68565b005b610331600480360381019061032c91906120a3565b610bca565b60405161033e919061204b565b60405180910390f35b610361600480360381019061035c9190612461565b610d90565b60405161036e9190611f97565b60405180910390f35b610391600480360381019061038c91906121eb565b610e24565b005b61039b611009565b8181600e91906103ac929190611d08565b50600960009054906101000a900473ffffffffffffffffffffffffffffffffffffffff1673ffffffffffffffffffffffffffffffffffffffff1663eaf5d04e30600c54600b86866040516020016104059392919061265e565b6040516020818303038152906040526040518463ffffffff1660e01b8152600401610432939291906126c0565b600060405180830381600087803b15801561044c57600080fd5b505af1158015610460573d6000803e3d6000fd5b505050505050565b60007f80ac58cd000000000000000000000000000000000000000000000000000000007bffffffffffffffffffffffffffffffffffffffffffffffffffffffff1916827bffffffffffffffffffffffffffffffffffffffffffffffffffffffff1916148061053357507f5b5e139f000000000000000000000000000000000000000000000000000000007bffffffffffffffffffffffffffffffffffffffffffffffffffffffff1916827bffffffffffffffffffffffffffffffffffffffffffffffffffffffff1916145b80610543575061054282611087565b5b9050919050565b606060008054610559906124f6565b80601f0160208091040260200160405190810160405280929190818152602001828054610585906124f6565b80156105d25780601f106105a7576101008083540402835291602001916105d2565b820191906000526020600020905b8154815290600101906020018083116105b557829003601f168201915b5050505050905090565b60006105e7826110f1565b6004600083815260200190815260200160002060009054906101000a900473ffffffffffffffffffffffffffffffffffffffff169050919050565b600061062d82610918565b90508073ffffffffffffffffffffffffffffffffffffffff168373ffffffffffffffffffffffffffffffffffffffff16141561069e576040517f08c379a000000000000000000000000000000000000000000000000000000000815260040161069590612770565b60405180910390fd5b8073ffffffffffffffffffffffffffffffffffffffff166106bd61113c565b73ffffffffffffffffffffffffffffffffffffffff1614806106ec57506106eb816106e661113c565b610d90565b5b61072b576040517f08c379a000000000000000000000000000000000000000000000000000000000815260040161072290612802565b60405180910390fd5b6107358383611144565b505050565b61074b61074561113c565b826111fd565b61078a576040517f08c379a000000000000000000000000000000000000000000000000000000000815260040161078190612894565b60405180910390fd5b610795838383611292565b505050565b6000806107a760086114f9565b9050600960009054906101000a900473ffffffffffffffffffffffffffffffffffffffff1673ffffffffffffffffffffffffffffffffffffffff1663eaf5d04e30600c54600b6107f686610ea8565b600e60405160200161080a9392919061297d565b6040516020818303038152906040526040518463ffffffff1660e01b8152600401610837939291906126c0565b600060405180830381600087803b15801561085157600080fd5b505af1158015610865573d6000803e3d6000fd5b50505050610883838260405180602001604052806000815250611507565b6108958161089083610bca565b611562565b61089f60086115d6565b3373ffffffffffffffffffffffffffffffffffffffff167f061b141191d79859f7cc6256c1b9e5f380052197831efe9135841c0ff4de7e6342836040516108e79291906129ea565b60405180910390a280915050919050565b61091383838360405180602001604052806000815250610b68565b505050565b6000806002600084815260200190815260200160002060009054906101000a900473ffffffffffffffffffffffffffffffffffffffff169050600073ffffffffffffffffffffffffffffffffffffffff168173ffffffffffffffffffffffffffffffffffffffff1614156109c1576040517f08c379a00000000000000000000000000000000000000000000000000000000081526004016109b890612a5f565b60405180910390fd5b80915050919050565b60008073ffffffffffffffffffffffffffffffffffffffff168273ffffffffffffffffffffffffffffffffffffffff161415610a3b576040517f08c379a0000000000000000000000000000000000000000000000000000000008152600401610a3290612af1565b60405180910390fd5b600360008373ffffffffffffffffffffffffffffffffffffffff1673ffffffffffffffffffffffffffffffffffffffff168152602001908152602001600020549050919050565b610a8a611009565b610a9460006115ec565b565b6000600760009054906101000a900473ffffffffffffffffffffffffffffffffffffffff16905090565b606060018054610acf906124f6565b80601f0160208091040260200160405190810160405280929190818152602001828054610afb906124f6565b8015610b485780601f10610b1d57610100808354040283529160200191610b48565b820191906000526020600020905b815481529060010190602001808311610b2b57829003601f168201915b5050505050905090565b610b64610b5d61113c565b83836116b2565b5050565b610b79610b7361113c565b836111fd565b610bb8576040517f08c379a0000000000000000000000000000000000000000000000000000000008152600401610baf90612894565b60405180910390fd5b610bc48484848461181f565b50505050565b6060610bd58261187b565b610c14576040517f08c379a0000000000000000000000000000000000000000000000000000000008152600401610c0b90612b83565b60405180910390fd5b6000610c1e6118e7565b90506000604051806020016040528060008152509050600060405180604001604052806040518060400160405280600281526020017f696400000000000000000000000000000000000000000000000000000000000081525081526020016040518060400160405280600d81526020017f65787465726e616c5f6c696e6b00000000000000000000000000000000000000815250815250905060005b6002811015610d56576000811115610cef5782604051602001610cdd9190612bc9565b60405160208183030381529060405292505b82828260028110610d0357610d02612bef565b5b6020020151838360028110610d1b57610d1a612bef565b5b6020020151604051602001610d3293929190612c6a565b60405160208183030381529060405292508080610d4e90612ce8565b915050610cba565b508282600b610d6488610ea8565b604051602001610d779493929190612dc9565b6040516020818303038152906040529350505050919050565b6000600560008473ffffffffffffffffffffffffffffffffffffffff1673ffffffffffffffffffffffffffffffffffffffff16815260200190815260200160002060008373ffffffffffffffffffffffffffffffffffffffff1673ffffffffffffffffffffffffffffffffffffffff16815260200190815260200160002060009054906101000a900460ff16905092915050565b610e2c611009565b600073ffffffffffffffffffffffffffffffffffffffff168173ffffffffffffffffffffffffffffffffffffffff161415610e9c576040517f08c379a0000000000000000000000000000000000000000000000000000000008152600401610e9390612eb5565b60405180910390fd5b610ea5816115ec565b50565b60606000821415610ef0576040518060400160405280600181526020017f30000000000000000000000000000000000000000000000000000000000000008152509050611004565b600082905060005b60008214610f22578080610f0b90612ce8565b915050600a82610f1b9190612f04565b9150610ef8565b60008167ffffffffffffffff811115610f3e57610f3d6122b3565b5b6040519080825280601f01601f191660200182016040528015610f705781602001600182028036833780820191505090505b5090505b60008514610ffd57600182610f899190612f35565b9150600a85610f989190612f69565b6030610fa49190612f9a565b60f81b818381518110610fba57610fb9612bef565b5b60200101907effffffffffffffffffffffffffffffffffffffffffffffffffffffffffffff1916908160001a905350600a85610ff69190612f04565b9450610f74565b8093505050505b919050565b61101161113c565b73ffffffffffffffffffffffffffffffffffffffff1661102f610a96565b73ffffffffffffffffffffffffffffffffffffffff1614611085576040517f08c379a000000000000000000000000000000000000000000000000000000000815260040161107c9061303c565b60405180910390fd5b565b60007f01ffc9a7000000000000000000000000000000000000000000000000000000007bffffffffffffffffffffffffffffffffffffffffffffffffffffffff1916827bffffffffffffffffffffffffffffffffffffffffffffffffffffffff1916149050919050565b6110fa8161187b565b611139576040517f08c379a000000000000000000000000000000000000000000000000000000000815260040161113090612a5f565b60405180910390fd5b50565b600033905090565b816004600083815260200190815260200160002060006101000a81548173ffffffffffffffffffffffffffffffffffffffff021916908373ffffffffffffffffffffffffffffffffffffffff160217905550808273ffffffffffffffffffffffffffffffffffffffff166111b783610918565b73ffffffffffffffffffffffffffffffffffffffff167f8c5be1e5ebec7d5bd14f71427d1e84f3dd0314c0f7b2291e5b200ac8c7c3b92560405160405180910390a45050565b60008061120983610918565b90508073ffffffffffffffffffffffffffffffffffffffff168473ffffffffffffffffffffffffffffffffffffffff16148061124b575061124a8185610d90565b5b8061128957508373ffffffffffffffffffffffffffffffffffffffff16611271846105dc565b73ffffffffffffffffffffffffffffffffffffffff16145b91505092915050565b8273ffffffffffffffffffffffffffffffffffffffff166112b282610918565b73ffffffffffffffffffffffffffffffffffffffff1614611308576040517f08c379a00000000000000000000000000000000000000000000000000000000081526004016112ff906130ce565b60405180910390fd5b600073ffffffffffffffffffffffffffffffffffffffff168273ffffffffffffffffffffffffffffffffffffffff161415611378576040517f08c379a000000000000000000000000000000000000000000000000000000000815260040161136f90613160565b60405180910390fd5b611383838383611979565b61138e600082611144565b6001600360008573ffffffffffffffffffffffffffffffffffffffff1673ffffffffffffffffffffffffffffffffffffffff16815260200190815260200160002060008282546113de9190612f35565b925050819055506001600360008473ffffffffffffffffffffffffffffffffffffffff1673ffffffffffffffffffffffffffffffffffffffff16815260200190815260200160002060008282546114359190612f9a565b92505081905550816002600083815260200190815260200160002060006101000a81548173ffffffffffffffffffffffffffffffffffffffff021916908373ffffffffffffffffffffffffffffffffffffffff160217905550808273ffffffffffffffffffffffffffffffffffffffff168473ffffffffffffffffffffffffffffffffffffffff167fddf252ad1be2c89b69c2b068fc378daa952ba7f163c4a11628f55a4df523b3ef60405160405180910390a46114f483838361197e565b505050565b600081600001549050919050565b6115118383611983565b61151e6000848484611b5d565b61155d576040517f08c379a0000000000000000000000000000000000000000000000000000000008152600401611554906131f2565b60405180910390fd5b505050565b61156b8261187b565b6115aa576040517f08c379a00000000000000000000000000000000000000000000000000000000081526004016115a190613284565b60405180910390fd5b806006600084815260200190815260200160002090805190602001906115d1929190611d8e565b505050565b6001816000016000828254019250508190555050565b6000600760009054906101000a900473ffffffffffffffffffffffffffffffffffffffff16905081600760006101000a81548173ffffffffffffffffffffffffffffffffffffffff021916908373ffffffffffffffffffffffffffffffffffffffff1602179055508173ffffffffffffffffffffffffffffffffffffffff168173ffffffffffffffffffffffffffffffffffffffff167f8be0079c531659141344cd1fd0a4f28419497f9722a3daafe3b4186f6b6457e060405160405180910390a35050565b8173ffffffffffffffffffffffffffffffffffffffff168373ffffffffffffffffffffffffffffffffffffffff161415611721576040517f08c379a0000000000000000000000000000000000000000000000000000000008152600401611718906132f0565b60405180910390fd5b80600560008573ffffffffffffffffffffffffffffffffffffffff1673ffffffffffffffffffffffffffffffffffffffff16815260200190815260200160002060008473ffffffffffffffffffffffffffffffffffffffff1673ffffffffffffffffffffffffffffffffffffffff16815260200190815260200160002060006101000a81548160ff0219169083151502179055508173ffffffffffffffffffffffffffffffffffffffff168373ffffffffffffffffffffffffffffffffffffffff167f17307eab39ab6107e8899845ad3d59bd9653f200f220920489ca2b5937696c31836040516118129190611f97565b60405180910390a3505050565b61182a848484611292565b61183684848484611b5d565b611875576040517f08c379a000000000000000000000000000000000000000000000000000000000815260040161186c906131f2565b60405180910390fd5b50505050565b60008073ffffffffffffffffffffffffffffffffffffffff166002600084815260200190815260200160002060009054906101000a900473ffffffffffffffffffffffffffffffffffffffff1673ffffffffffffffffffffffffffffffffffffffff1614159050919050565b6060600a80546118f6906124f6565b80601f0160208091040260200160405190810160405280929190818152602001828054611922906124f6565b801561196f5780601f106119445761010080835404028352916020019161196f565b820191906000526020600020905b81548152906001019060200180831161195257829003601f168201915b5050505050905090565b505050565b505050565b600073ffffffffffffffffffffffffffffffffffffffff168273ffffffffffffffffffffffffffffffffffffffff1614156119f3576040517f08c379a00000000000000000000000000000000000000000000000000000000081526004016119ea9061335c565b60405180910390fd5b6119fc8161187b565b15611a3c576040517f08c379a0000000000000000000000000000000000000000000000000000000008152600401611a33906133c8565b60405180910390fd5b611a4860008383611979565b6001600360008473ffffffffffffffffffffffffffffffffffffffff1673ffffffffffffffffffffffffffffffffffffffff1681526020019081526020016000206000828254611a989190612f9a565b92505081905550816002600083815260200190815260200160002060006101000a81548173ffffffffffffffffffffffffffffffffffffffff021916908373ffffffffffffffffffffffffffffffffffffffff160217905550808273ffffffffffffffffffffffffffffffffffffffff16600073ffffffffffffffffffffffffffffffffffffffff167fddf252ad1be2c89b69c2b068fc378daa952ba7f163c4a11628f55a4df523b3ef60405160405180910390a4611b596000838361197e565b5050565b6000611b7e8473ffffffffffffffffffffffffffffffffffffffff16611ce5565b15611cd8578373ffffffffffffffffffffffffffffffffffffffff1663150b7a02611ba761113c565b8786866040518563ffffffff1660e01b8152600401611bc9949392919061343d565b6020604051808303816000875af1925050508015611c0557506040513d601f19601f82011682018060405250810190611c02919061349e565b60015b611c88573d8060008114611c35576040519150601f19603f3d011682016040523d82523d6000602084013e611c3a565b606091505b50600081511415611c80576040517f08c379a0000000000000000000000000000000000000000000000000000000008152600401611c77906131f2565b60405180910390fd5b805181602001fd5b63150b7a0260e01b7bffffffffffffffffffffffffffffffffffffffffffffffffffffffff1916817bffffffffffffffffffffffffffffffffffffffffffffffffffffffff191614915050611cdd565b600190505b949350505050565b6000808273ffffffffffffffffffffffffffffffffffffffff163b119050919050565b828054611d14906124f6565b90600052602060002090601f016020900481019282611d365760008555611d7d565b82601f10611d4f57803560ff1916838001178555611d7d565b82800160010185558215611d7d579182015b82811115611d7c578235825591602001919060010190611d61565b5b509050611d8a9190611e14565b5090565b828054611d9a906124f6565b90600052602060002090601f016020900481019282611dbc5760008555611e03565b82601f10611dd557805160ff1916838001178555611e03565b82800160010185558215611e03579182015b82811115611e02578251825591602001919060010190611de7565b5b509050611e109190611e14565b5090565b5b80821115611e2d576000816000905550600101611e15565b5090565b6000604051905090565b600080fd5b600080fd5b600080fd5b600080fd5b600080fd5b60008083601f840112611e6a57611e69611e45565b5b8235905067ffffffffffffffff811115611e8757611e86611e4a565b5b602083019150836001820283011115611ea357611ea2611e4f565b5b9250929050565b60008060208385031215611ec157611ec0611e3b565b5b600083013567ffffffffffffffff811115611edf57611ede611e40565b5b611eeb85828601611e54565b92509250509250929050565b60007fffffffff0000000000000000000000000000000000000000000000000000000082169050919050565b611f2c81611ef7565b8114611f3757600080fd5b50565b600081359050611f4981611f23565b92915050565b600060208284031215611f6557611f64611e3b565b5b6000611f7384828501611f3a565b91505092915050565b60008115159050919050565b611f9181611f7c565b82525050565b6000602082019050611fac6000830184611f88565b92915050565b600081519050919050565b600082825260208201905092915050565b60005b83811015611fec578082015181840152602081019050611fd1565b83811115611ffb576000848401525b50505050565b6000601f19601f8301169050919050565b600061201d82611fb2565b6120278185611fbd565b9350612037818560208601611fce565b61204081612001565b840191505092915050565b600060208201905081810360008301526120658184612012565b905092915050565b6000819050919050565b6120808161206d565b811461208b57600080fd5b50565b60008135905061209d81612077565b92915050565b6000602082840312156120b9576120b8611e3b565b5b60006120c78482850161208e565b91505092915050565b600073ffffffffffffffffffffffffffffffffffffffff82169050919050565b60006120fb826120d0565b9050919050565b61210b816120f0565b82525050565b60006020820190506121266000830184612102565b92915050565b612135816120f0565b811461214057600080fd5b50565b6000813590506121528161212c565b92915050565b6000806040838503121561216f5761216e611e3b565b5b600061217d85828601612143565b925050602061218e8582860161208e565b9150509250929050565b6000806000606084860312156121b1576121b0611e3b565b5b60006121bf86828701612143565b93505060206121d086828701612143565b92505060406121e18682870161208e565b9150509250925092565b60006020828403121561220157612200611e3b565b5b600061220f84828501612143565b91505092915050565b6122218161206d565b82525050565b600060208201905061223c6000830184612218565b92915050565b61224b81611f7c565b811461225657600080fd5b50565b60008135905061226881612242565b92915050565b6000806040838503121561228557612284611e3b565b5b600061229385828601612143565b92505060206122a485828601612259565b9150509250929050565b600080fd5b7f4e487b7100000000000000000000000000000000000000000000000000000000600052604160045260246000fd5b6122eb82612001565b810181811067ffffffffffffffff8211171561230a576123096122b3565b5b80604052505050565b600061231d611e31565b905061232982826122e2565b919050565b600067ffffffffffffffff821115612349576123486122b3565b5b61235282612001565b9050602081019050919050565b82818337600083830152505050565b600061238161237c8461232e565b612313565b90508281526020810184848401111561239d5761239c6122ae565b5b6123a884828561235f565b509392505050565b600082601f8301126123c5576123c4611e45565b5b81356123d584826020860161236e565b91505092915050565b600080600080608085870312156123f8576123f7611e3b565b5b600061240687828801612143565b945050602061241787828801612143565b93505060406124288782880161208e565b925050606085013567ffffffffffffffff81111561244957612448611e40565b5b612455878288016123b0565b91505092959194509250565b6000806040838503121561247857612477611e3b565b5b600061248685828601612143565b925050602061249785828601612143565b9150509250929050565b7f7570646174652000000000000000000000000000000000000000000000000000815250565b7f4e487b7100000000000000000000000000000000000000000000000000000000600052602260045260246000fd5b6000600282049050600182168061250e57607f821691505b60208210811415612522576125216124c7565b5b50919050565b600081905092915050565b60008190508160005260206000209050919050565b60008154612555816124f6565b61255f8186612528565b9450600182166000811461257a576001811461258b576125be565b60ff198316865281860193506125be565b61259485612533565b60005b838110156125b657815481890152600182019150602081019050612597565b838801955050505b50505092915050565b7f207365742065787465726e616c5f6c696e6b203d200000000000000000000000815250565b60006125f98385612528565b935061260683858461235f565b82840190509392505050565b7f7c7c273f746f6b656e49643d277c7c6964000000000000000000000000000000815250565b7f3b00000000000000000000000000000000000000000000000000000000000000815250565b6000612669826124a1565b6007820191506126798286612548565b9150612684826125c7565b6015820191506126958284866125ed565b91506126a082612612565b6011820191506126af82612638565b600182019150819050949350505050565b60006060820190506126d56000830186612102565b6126e26020830185612218565b81810360408301526126f48184612012565b9050949350505050565b7f4552433732313a20617070726f76616c20746f2063757272656e74206f776e6560008201527f7200000000000000000000000000000000000000000000000000000000000000602082015250565b600061275a602183611fbd565b9150612765826126fe565b604082019050919050565b600060208201905081810360008301526127898161274d565b9050919050565b7f4552433732313a20617070726f76652063616c6c6572206973206e6f7420746f60008201527f6b656e206f776e6572206e6f7220617070726f76656420666f7220616c6c0000602082015250565b60006127ec603e83611fbd565b91506127f782612790565b604082019050919050565b6000602082019050818103600083015261281b816127df565b9050919050565b7f4552433732313a2063616c6c6572206973206e6f7420746f6b656e206f776e6560008201527f72206e6f7220617070726f766564000000000000000000000000000000000000602082015250565b600061287e602e83611fbd565b915061288982612822565b604082019050919050565b600060208201905081810360008301526128ad81612871565b9050919050565b7f494e5345525420494e544f200000000000000000000000000000000000000000815250565b7f202869642c2065787465726e616c5f6c696e6b292056414c5545532028000000815250565b600061290b82611fb2565b6129158185612528565b9350612925818560208601611fce565b80840191505092915050565b7f2c20270000000000000000000000000000000000000000000000000000000000815250565b7f2729000000000000000000000000000000000000000000000000000000000000815250565b6000612988826128b4565b600c820191506129988286612548565b91506129a3826128da565b601d820191506129b38285612900565b91506129be82612931565b6003820191506129ce8284612548565b91506129d982612957565b600282019150819050949350505050565b60006040820190506129ff6000830185612218565b612a0c6020830184612218565b9392505050565b7f4552433732313a20696e76616c696420746f6b656e2049440000000000000000600082015250565b6000612a49601883611fbd565b9150612a5482612a13565b602082019050919050565b60006020820190508181036000830152612a7881612a3c565b9050919050565b7f4552433732313a2061646472657373207a65726f206973206e6f74206120766160008201527f6c6964206f776e65720000000000000000000000000000000000000000000000602082015250565b6000612adb602983611fbd565b9150612ae682612a7f565b604082019050919050565b60006020820190508181036000830152612b0a81612ace565b9050919050565b7f45524337323155524953746f726167653a2055524920717565727920666f722060008201527f6e6f6e6578697374656e7420746f6b656e000000000000000000000000000000602082015250565b6000612b6d603183611fbd565b9150612b7882612b11565b604082019050919050565b60006020820190508181036000830152612b9c81612b60565b9050919050565b7f2c00000000000000000000000000000000000000000000000000000000000000815250565b6000612bd58284612900565b9150612be082612ba3565b60018201915081905092915050565b7f4e487b7100000000000000000000000000000000000000000000000000000000600052603260045260246000fd5b7f2700000000000000000000000000000000000000000000000000000000000000815250565b7f272c000000000000000000000000000000000000000000000000000000000000815250565b6000612c768286612900565b9150612c8182612c1e565b600182019150612c918285612900565b9150612c9c82612c44565b600282019150612cac8284612900565b9150819050949350505050565b7f4e487b7100000000000000000000000000000000000000000000000000000000600052601160045260246000fd5b6000612cf38261206d565b91507fffffffffffffffffffffffffffffffffffffffffffffffffffffffffffffffff821415612d2657612d25612cb9565b5b600182019050919050565b7f53454c4543542532300000000000000000000000000000000000000000000000815250565b7f25323046524f4d25323000000000000000000000000000000000000000000000815250565b7f2532305748455245253230696425334400000000000000000000000000000000815250565b7f266d6f64653d6c69737400000000000000000000000000000000000000000000815250565b6000612dd58287612900565b9150612de082612d31565b600982019150612df08286612900565b9150612dfb82612d57565b600a82019150612e0b8285612548565b9150612e1682612d7d565b601082019150612e268284612900565b9150612e3182612da3565b600a8201915081905095945050505050565b7f4f776e61626c653a206e6577206f776e657220697320746865207a65726f206160008201527f6464726573730000000000000000000000000000000000000000000000000000602082015250565b6000612e9f602683611fbd565b9150612eaa82612e43565b604082019050919050565b60006020820190508181036000830152612ece81612e92565b9050919050565b7f4e487b7100000000000000000000000000000000000000000000000000000000600052601260045260246000fd5b6000612f0f8261206d565b9150612f1a8361206d565b925082612f2a57612f29612ed5565b5b828204905092915050565b6000612f408261206d565b9150612f4b8361206d565b925082821015612f5e57612f5d612cb9565b5b828203905092915050565b6000612f748261206d565b9150612f7f8361206d565b925082612f8f57612f8e612ed5565b5b828206905092915050565b6000612fa58261206d565b9150612fb08361206d565b9250827fffffffffffffffffffffffffffffffffffffffffffffffffffffffffffffffff03821115612fe557612fe4612cb9565b5b828201905092915050565b7f4f776e61626c653a2063616c6c6572206973206e6f7420746865206f776e6572600082015250565b6000613026602083611fbd565b915061303182612ff0565b602082019050919050565b6000602082019050818103600083015261305581613019565b9050919050565b7f4552433732313a207472616e736665722066726f6d20696e636f72726563742060008201527f6f776e6572000000000000000000000000000000000000000000000000000000602082015250565b60006130b8602583611fbd565b91506130c38261305c565b604082019050919050565b600060208201905081810360008301526130e7816130ab565b9050919050565b7f4552433732313a207472616e7366657220746f20746865207a65726f2061646460008201527f7265737300000000000000000000000000000000000000000000000000000000602082015250565b600061314a602483611fbd565b9150613155826130ee565b604082019050919050565b600060208201905081810360008301526131798161313d565b9050919050565b7f4552433732313a207472616e7366657220746f206e6f6e20455243373231526560008201527f63656976657220696d706c656d656e7465720000000000000000000000000000602082015250565b60006131dc603283611fbd565b91506131e782613180565b604082019050919050565b6000602082019050818103600083015261320b816131cf565b9050919050565b7f45524337323155524953746f726167653a2055524920736574206f66206e6f6e60008201527f6578697374656e7420746f6b656e000000000000000000000000000000000000602082015250565b600061326e602e83611fbd565b915061327982613212565b604082019050919050565b6000602082019050818103600083015261329d81613261565b9050919050565b7f4552433732313a20617070726f766520746f2063616c6c657200000000000000600082015250565b60006132da601983611fbd565b91506132e5826132a4565b602082019050919050565b60006020820190508181036000830152613309816132cd565b9050919050565b7f4552433732313a206d696e7420746f20746865207a65726f2061646472657373600082015250565b6000613346602083611fbd565b915061335182613310565b602082019050919050565b6000602082019050818103600083015261337581613339565b9050919050565b7f4552433732313a20746f6b656e20616c7265616479206d696e74656400000000600082015250565b60006133b2601c83611fbd565b91506133bd8261337c565b602082019050919050565b600060208201905081810360008301526133e1816133a5565b9050919050565b600081519050919050565b600082825260208201905092915050565b600061340f826133e8565b61341981856133f3565b9350613429818560208601611fce565b61343281612001565b840191505092915050565b60006080820190506134526000830187612102565b61345f6020830186612102565b61346c6040830185612218565b818103606083015261347e8184613404565b905095945050505050565b60008151905061349881611f23565b92915050565b6000602082840312156134b4576134b3611e3b565b5b60006134c284828501613489565b9150509291505056fea26469706673582212204340fa461fc53f2392083e387b2c0551997a6b03f31b1b173558086609ea2dc764736f6c634300080c003368747470733a2f2f746573746e65742e7461626c656c616e642e6e6574776f726b2f71756572793f733d",
  "linkReferences": {},
  "deployedLinkReferences": {}
}