{
  "_format": "hh-sol-artifact-1",
  "contractName": "MojoCore",
  "sourceName": "contracts/MojoCore.sol",
  "abi": [
    {
      "inputs": [
        {
          "internalType": "address",
          "name": "registry",
          "type": "address"
        }
      ],
      "stateMutability": "nonpayable",
      "type": "constructor"
    },
    {
      "anonymous": false,
      "inputs": [
        {
          "indexed": true,
          "internalType": "address",
          "name": "owner",
          "type": "address"
        },
        {
          "indexed": true,
          "internalType": "address",
          "name": "approved",
          "type": "address"
        },
        {
          "indexed": true,
          "internalType": "uint256",
          "name": "tokenId",
          "type": "uint256"
        }
      ],
      "name": "Approval",
      "type": "event"
    },
    {
      "anonymous": false,
      "inputs": [
        {
          "indexed": true,
          "internalType": "address",
          "name": "owner",
          "type": "address"
        },
        {
          "indexed": true,
          "internalType": "address",
          "name": "operator",
          "type": "address"
        },
        {
          "indexed": false,
          "internalType": "bool",
          "name": "approved",
          "type": "bool"
        }
      ],
      "name": "ApprovalForAll",
      "type": "event"
    },
    {
      "anonymous": false,
      "inputs": [
        {
          "indexed": true,
          "internalType": "address",
          "name": "from",
          "type": "address"
        },
        {
          "indexed": false,
          "internalType": "uint256",
          "name": "timestamp",
          "type": "uint256"
        },
        {
          "indexed": false,
          "internalType": "uint256",
          "name": "tokenId",
          "type": "uint256"
        }
      ],
      "name": "NewNftMinted",
      "type": "event"
    },
    {
      "anonymous": false,
      "inputs": [
        {
          "indexed": true,
          "internalType": "address",
          "name": "from",
          "type": "address"
        },
        {
          "indexed": false,
          "internalType": "uint256",
          "name": "timestamp",
          "type": "uint256"
        },
        {
          "indexed": false,
          "internalType": "uint256",
          "name": "tokenId",
          "type": "uint256"
        }
      ],
      "name": "NftUpdated",
      "type": "event"
    },
    {
      "anonymous": false,
      "inputs": [
        {
          "indexed": true,
          "internalType": "address",
          "name": "previousOwner",
          "type": "address"
        },
        {
          "indexed": true,
          "internalType": "address",
          "name": "newOwner",
          "type": "address"
        }
      ],
      "name": "OwnershipTransferred",
      "type": "event"
    },
    {
      "anonymous": false,
      "inputs": [
        {
          "indexed": true,
          "internalType": "address",
          "name": "from",
          "type": "address"
        },
        {
          "indexed": true,
          "internalType": "address",
          "name": "to",
          "type": "address"
        },
        {
          "indexed": true,
          "internalType": "uint256",
          "name": "tokenId",
          "type": "uint256"
        }
      ],
      "name": "Transfer",
      "type": "event"
    },
    {
      "inputs": [
        {
          "internalType": "address",
          "name": "to",
          "type": "address"
        },
        {
          "internalType": "uint256",
          "name": "tokenId",
          "type": "uint256"
        }
      ],
      "name": "approve",
      "outputs": [],
      "stateMutability": "nonpayable",
      "type": "function"
    },
    {
      "inputs": [
        {
          "internalType": "address",
          "name": "owner",
          "type": "address"
        }
      ],
      "name": "balanceOf",
      "outputs": [
        {
          "internalType": "uint256",
          "name": "",
          "type": "uint256"
        }
      ],
      "stateMutability": "view",
      "type": "function"
    },
    {
      "inputs": [
        {
          "internalType": "uint256",
          "name": "tokenId",
          "type": "uint256"
        }
      ],
      "name": "getApproved",
      "outputs": [
        {
          "internalType": "address",
          "name": "",
          "type": "address"
        }
      ],
      "stateMutability": "view",
      "type": "function"
    },
    {
      "inputs": [
        {
          "internalType": "address",
          "name": "owner",
          "type": "address"
        },
        {
          "internalType": "address",
          "name": "operator",
          "type": "address"
        }
      ],
      "name": "isApprovedForAll",
      "outputs": [
        {
          "internalType": "bool",
          "name": "",
          "type": "bool"
        }
      ],
      "stateMutability": "view",
      "type": "function"
    },
    {
      "inputs": [],
      "name": "name",
      "outputs": [
        {
          "internalType": "string",
          "name": "",
          "type": "string"
        }
      ],
      "stateMutability": "view",
      "type": "function"
    },
    {
      "inputs": [],
      "name": "owner",
      "outputs": [
        {
          "internalType": "address",
          "name": "",
          "type": "address"
        }
      ],
      "stateMutability": "view",
      "type": "function"
    },
    {
      "inputs": [
        {
          "internalType": "uint256",
          "name": "tokenId",
          "type": "uint256"
        }
      ],
      "name": "ownerOf",
      "outputs": [
        {
          "internalType": "address",
          "name": "",
          "type": "address"
        }
      ],
      "stateMutability": "view",
      "type": "function"
    },
    {
      "inputs": [],
      "name": "renounceOwnership",
      "outputs": [],
      "stateMutability": "nonpayable",
      "type": "function"
    },
    {
      "inputs": [
        {
          "internalType": "address",
          "name": "to",
          "type": "address"
        },
        {
          "internalType": "string",
          "name": "name",
          "type": "string"
        },
        {
          "internalType": "string",
          "name": "description",
          "type": "string"
        },
        {
          "internalType": "string",
          "name": "image",
          "type": "string"
        }
      ],
      "name": "safeMint",
      "outputs": [
        {
          "internalType": "uint256",
          "name": "",
          "type": "uint256"
        }
      ],
      "stateMutability": "nonpayable",
      "type": "function"
    },
    {
      "inputs": [
        {
          "internalType": "address",
          "name": "from",
          "type": "address"
        },
        {
          "internalType": "address",
          "name": "to",
          "type": "address"
        },
        {
          "internalType": "uint256",
          "name": "tokenId",
          "type": "uint256"
        }
      ],
      "name": "safeTransferFrom",
      "outputs": [],
      "stateMutability": "nonpayable",
      "type": "function"
    },
    {
      "inputs": [
        {
          "internalType": "address",
          "name": "from",
          "type": "address"
        },
        {
          "internalType": "address",
          "name": "to",
          "type": "address"
        },
        {
          "internalType": "uint256",
          "name": "tokenId",
          "type": "uint256"
        },
        {
          "internalType": "bytes",
          "name": "data",
          "type": "bytes"
        }
      ],
      "name": "safeTransferFrom",
      "outputs": [],
      "stateMutability": "nonpayable",
      "type": "function"
    },
    {
      "inputs": [
        {
          "internalType": "address",
          "name": "operator",
          "type": "address"
        },
        {
          "internalType": "bool",
          "name": "approved",
          "type": "bool"
        }
      ],
      "name": "setApprovalForAll",
      "outputs": [],
      "stateMutability": "nonpayable",
      "type": "function"
    },
    {
      "inputs": [
        {
          "internalType": "string",
          "name": "externalURL",
          "type": "string"
        }
      ],
      "name": "setExternalURL",
      "outputs": [],
      "stateMutability": "nonpayable",
      "type": "function"
    },
    {
      "inputs": [
        {
          "internalType": "bytes4",
          "name": "interfaceId",
          "type": "bytes4"
        }
      ],
      "name": "supportsInterface",
      "outputs": [
        {
          "internalType": "bool",
          "name": "",
          "type": "bool"
        }
      ],
      "stateMutability": "view",
      "type": "function"
    },
    {
      "inputs": [],
      "name": "symbol",
      "outputs": [
        {
          "internalType": "string",
          "name": "",
          "type": "string"
        }
      ],
      "stateMutability": "view",
      "type": "function"
    },
    {
      "inputs": [
        {
          "internalType": "uint256",
          "name": "tokenId",
          "type": "uint256"
        }
      ],
      "name": "tokenURI",
      "outputs": [
        {
          "internalType": "string",
          "name": "",
          "type": "string"
        }
      ],
      "stateMutability": "view",
      "type": "function"
    },
    {
      "inputs": [
        {
          "internalType": "address",
          "name": "from",
          "type": "address"
        },
        {
          "internalType": "address",
          "name": "to",
          "type": "address"
        },
        {
          "internalType": "uint256",
          "name": "tokenId",
          "type": "uint256"
        }
      ],
      "name": "transferFrom",
      "outputs": [],
      "stateMutability": "nonpayable",
      "type": "function"
    },
    {
      "inputs": [
        {
          "internalType": "address",
          "name": "newOwner",
          "type": "address"
        }
      ],
      "name": "transferOwnership",
      "outputs": [],
      "stateMutability": "nonpayable",
      "type": "function"
    }
  ],
  "bytecode": "0x60806040526040518060600160405280602a81526020016200425f602a9139600a908051906020019062000035929190620005a4565b506040518060400160405280600481526020017f6d6f6a6f00000000000000000000000000000000000000000000000000000000815250600d908051906020019062000083929190620005a4565b506040518060400160405280601381526020017f6e6f742e696d706c656d656e7465642e636f6d00000000000000000000000000815250600e9080519060200190620000d1929190620005a4565b50348015620000df57600080fd5b5060405162004289380380620042898339818101604052810190620001059190620006be565b6040518060400160405280600781526020017f4d6f6a6f4e4654000000000000000000000000000000000000000000000000008152506040518060400160405280600481526020017f6d4e465400000000000000000000000000000000000000000000000000000000815250816000908051906020019062000189929190620005a4565b508060019080519060200190620001a2929190620005a4565b505050620001c5620001b96200035c60201b60201c565b6200036460201b60201c565b80600960006101000a81548173ffffffffffffffffffffffffffffffffffffffff021916908373ffffffffffffffffffffffffffffffffffffffff160217905550600960009054906101000a900473ffffffffffffffffffffffffffffffffffffffff1673ffffffffffffffffffffffffffffffffffffffff16633a9151b030600d6200025d466200042a60201b62000f091760201c565b6040516020016200027092919062000960565b6040516020818303038152906040526040518363ffffffff1660e01b81526004016200029e92919062000a2b565b6020604051808303816000875af1158015620002be573d6000803e3d6000fd5b505050506040513d601f19601f82011682018060405250810190620002e4919062000a9a565b600c81905550600d62000302466200042a60201b62000f091760201c565b6200031a600c546200042a60201b62000f091760201c565b6040516020016200032e9392919062000acc565b604051602081830303815290604052600b908051906020019062000354929190620005a4565b505062000d37565b600033905090565b6000600760009054906101000a900473ffffffffffffffffffffffffffffffffffffffff16905081600760006101000a81548173ffffffffffffffffffffffffffffffffffffffff021916908373ffffffffffffffffffffffffffffffffffffffff1602179055508173ffffffffffffffffffffffffffffffffffffffff168173ffffffffffffffffffffffffffffffffffffffff167f8be0079c531659141344cd1fd0a4f28419497f9722a3daafe3b4186f6b6457e060405160405180910390a35050565b6060600082141562000474576040518060400160405280600181526020017f300000000000000000000000000000000000000000000000000000000000000081525090506200059f565b600082905060005b60008214620004ac578080620004929062000b54565b915050600a82620004a4919062000bd1565b91506200047c565b60008167ffffffffffffffff811115620004cb57620004ca62000c09565b5b6040519080825280601f01601f191660200182016040528015620004fe5781602001600182028036833780820191505090505b5090505b6000851462000598576001826200051a919062000c38565b9150600a856200052b919062000c73565b603062000539919062000cab565b60f81b81838151811062000552576200055162000d08565b5b60200101907effffffffffffffffffffffffffffffffffffffffffffffffffffffffffffff1916908160001a905350600a8562000590919062000bd1565b945062000502565b8093505050505b919050565b828054620005b29062000745565b90600052602060002090601f016020900481019282620005d6576000855562000622565b82601f10620005f157805160ff191683800117855562000622565b8280016001018555821562000622579182015b828111156200062157825182559160200191906001019062000604565b5b50905062000631919062000635565b5090565b5b808211156200065057600081600090555060010162000636565b5090565b600080fd5b600073ffffffffffffffffffffffffffffffffffffffff82169050919050565b6000620006868262000659565b9050919050565b620006988162000679565b8114620006a457600080fd5b50565b600081519050620006b8816200068d565b92915050565b600060208284031215620006d757620006d662000654565b5b6000620006e784828501620006a7565b91505092915050565b7f435245415445205441424c452000000000000000000000000000000000000000815250565b7f4e487b7100000000000000000000000000000000000000000000000000000000600052602260045260246000fd5b600060028204905060018216806200075e57607f821691505b6020821081141562000775576200077462000716565b5b50919050565b600081905092915050565b60008190508160005260206000209050919050565b60008154620007aa8162000745565b620007b681866200077b565b94506001821660008114620007d45760018114620007e6576200081d565b60ff198316865281860193506200081d565b620007f18562000786565b60005b838110156200081557815481890152600182019150602081019050620007f4565b838801955050505b50505092915050565b7f5f00000000000000000000000000000000000000000000000000000000000000815250565b600081519050919050565b60005b83811015620008775780820151818401526020810190506200085a565b8381111562000887576000848401525b50505050565b60006200089a826200084c565b620008a681856200077b565b9350620008b881856020860162000857565b80840191505092915050565b7f2028696420696e742c206e616d6520746578742c206465736372697074696f6e60008201527f20746578742c20696d61676520746578742c2065787465726e616c5f75726c2060208201527f74657874293b0000000000000000000000000000000000000000000000000000604082015250565b6000620009486046836200077b565b91506200095582620008c4565b604682019050919050565b60006200096d82620006f0565b600d820191506200097f82856200079b565b91506200098c8262000826565b6001820191506200099e82846200088d565b9150620009ab8262000939565b91508190509392505050565b620009c28162000679565b82525050565b600082825260208201905092915050565b6000601f19601f8301169050919050565b6000620009f7826200084c565b62000a038185620009c8565b935062000a1581856020860162000857565b62000a2081620009d9565b840191505092915050565b600060408201905062000a426000830185620009b7565b818103602083015262000a568184620009ea565b90509392505050565b6000819050919050565b62000a748162000a5f565b811462000a8057600080fd5b50565b60008151905062000a948162000a69565b92915050565b60006020828403121562000ab35762000ab262000654565b5b600062000ac38482850162000a83565b91505092915050565b600062000ada82866200079b565b915062000ae78262000826565b60018201915062000af982856200088d565b915062000b068262000826565b60018201915062000b1882846200088d565b9150819050949350505050565b7f4e487b7100000000000000000000000000000000000000000000000000000000600052601160045260246000fd5b600062000b618262000a5f565b91507fffffffffffffffffffffffffffffffffffffffffffffffffffffffffffffffff82141562000b975762000b9662000b25565b5b600182019050919050565b7f4e487b7100000000000000000000000000000000000000000000000000000000600052601260045260246000fd5b600062000bde8262000a5f565b915062000beb8362000a5f565b92508262000bfe5762000bfd62000ba2565b5b828204905092915050565b7f4e487b7100000000000000000000000000000000000000000000000000000000600052604160045260246000fd5b600062000c458262000a5f565b915062000c528362000a5f565b92508282101562000c685762000c6762000b25565b5b828203905092915050565b600062000c808262000a5f565b915062000c8d8362000a5f565b92508262000ca05762000c9f62000ba2565b5b828206905092915050565b600062000cb88262000a5f565b915062000cc58362000a5f565b9250827fffffffffffffffffffffffffffffffffffffffffffffffffffffffffffffffff0382111562000cfd5762000cfc62000b25565b5b828201905092915050565b7f4e487b7100000000000000000000000000000000000000000000000000000000600052603260045260246000fd5b6135188062000d476000396000f3fe608060405234801561001057600080fd5b50600436106101165760003560e01c806370a08231116100a2578063a22cb46511610071578063a22cb465146102df578063b88d4fde146102fb578063c87b56dd14610317578063e985e9c514610347578063f2fde38b1461037757610116565b806370a0823114610269578063715018a6146102995780638da5cb5b146102a357806395d89b41146102c157610116565b8063081812fc116100e9578063081812fc146101b5578063095ea7b3146101e557806323b872dd1461020157806342842e0e1461021d5780636352211e1461023957610116565b806301dbcd4a1461011b57806301ffc9a71461013757806303a80dfb1461016757806306fdde0314610197575b600080fd5b61013560048036038101906101309190611e11565b610393565b005b610151600480360381019061014c9190611eb6565b610468565b60405161015e9190611efe565b60405180910390f35b610181600480360381019061017c9190611f77565b61054a565b60405161018e9190612059565b60405180910390f35b61019f610658565b6040516101ac919061210d565b60405180910390f35b6101cf60048036038101906101ca919061215b565b6106ea565b6040516101dc9190612197565b60405180910390f35b6101ff60048036038101906101fa91906121b2565b610730565b005b61021b600480360381019061021691906121f2565b610848565b005b610237600480360381019061023291906121f2565b6108a8565b005b610253600480360381019061024e919061215b565b6108c8565b6040516102609190612197565b60405180910390f35b610283600480360381019061027e9190612245565b61097a565b6040516102909190612059565b60405180910390f35b6102a1610a32565b005b6102ab610a46565b6040516102b89190612197565b60405180910390f35b6102c9610a70565b6040516102d6919061210d565b60405180910390f35b6102f960048036038101906102f4919061229e565b610b02565b005b6103156004803603810190610310919061240e565b610b18565b005b610331600480360381019061032c919061215b565b610b7a565b60405161033e919061210d565b60405180910390f35b610361600480360381019061035c9190612491565b610df1565b60405161036e9190611efe565b60405180910390f35b610391600480360381019061038c9190612245565b610e85565b005b61039b61106a565b8181600e91906103ac929190611cf5565b50600960009054906101000a900473ffffffffffffffffffffffffffffffffffffffff1673ffffffffffffffffffffffffffffffffffffffff1663eaf5d04e30600c54600b86866040516020016104059392919061268e565b6040516020818303038152906040526040518463ffffffff1660e01b8152600401610432939291906126f0565b600060405180830381600087803b15801561044c57600080fd5b505af1158015610460573d6000803e3d6000fd5b505050505050565b60007f80ac58cd000000000000000000000000000000000000000000000000000000007bffffffffffffffffffffffffffffffffffffffffffffffffffffffff1916827bffffffffffffffffffffffffffffffffffffffffffffffffffffffff1916148061053357507f5b5e139f000000000000000000000000000000000000000000000000000000007bffffffffffffffffffffffffffffffffffffffffffffffffffffffff1916827bffffffffffffffffffffffffffffffffffffffffffffffffffffffff1916145b806105435750610542826110e8565b5b9050919050565b6000806105576008611152565b9050600960009054906101000a900473ffffffffffffffffffffffffffffffffffffffff1673ffffffffffffffffffffffffffffffffffffffff1663eaf5d04e30600c54600b6105a686610f09565b8d8d8d8d8d8d600e6040516020016105c699989796959493929190612843565b6040516020818303038152906040526040518463ffffffff1660e01b81526004016105f3939291906126f0565b600060405180830381600087803b15801561060d57600080fd5b505af1158015610621573d6000803e3d6000fd5b5050505061063f898260405180602001604052806000815250611160565b61064960086111bb565b80915050979650505050505050565b60606000805461066790612526565b80601f016020809104026020016040519081016040528092919081815260200182805461069390612526565b80156106e05780601f106106b5576101008083540402835291602001916106e0565b820191906000526020600020905b8154815290600101906020018083116106c357829003601f168201915b5050505050905090565b60006106f5826111d1565b6004600083815260200190815260200160002060009054906101000a900473ffffffffffffffffffffffffffffffffffffffff169050919050565b600061073b826108c8565b90508073ffffffffffffffffffffffffffffffffffffffff168373ffffffffffffffffffffffffffffffffffffffff1614156107ac576040517f08c379a00000000000000000000000000000000000000000000000000000000081526004016107a390612978565b60405180910390fd5b8073ffffffffffffffffffffffffffffffffffffffff166107cb61121c565b73ffffffffffffffffffffffffffffffffffffffff1614806107fa57506107f9816107f461121c565b610df1565b5b610839576040517f08c379a000000000000000000000000000000000000000000000000000000000815260040161083090612a0a565b60405180910390fd5b6108438383611224565b505050565b61085961085361121c565b826112dd565b610898576040517f08c379a000000000000000000000000000000000000000000000000000000000815260040161088f90612a9c565b60405180910390fd5b6108a3838383611372565b505050565b6108c383838360405180602001604052806000815250610b18565b505050565b6000806002600084815260200190815260200160002060009054906101000a900473ffffffffffffffffffffffffffffffffffffffff169050600073ffffffffffffffffffffffffffffffffffffffff168173ffffffffffffffffffffffffffffffffffffffff161415610971576040517f08c379a000000000000000000000000000000000000000000000000000000000815260040161096890612b08565b60405180910390fd5b80915050919050565b60008073ffffffffffffffffffffffffffffffffffffffff168273ffffffffffffffffffffffffffffffffffffffff1614156109eb576040517f08c379a00000000000000000000000000000000000000000000000000000000081526004016109e290612b9a565b60405180910390fd5b600360008373ffffffffffffffffffffffffffffffffffffffff1673ffffffffffffffffffffffffffffffffffffffff168152602001908152602001600020549050919050565b610a3a61106a565b610a4460006115d9565b565b6000600760009054906101000a900473ffffffffffffffffffffffffffffffffffffffff16905090565b606060018054610a7f90612526565b80601f0160208091040260200160405190810160405280929190818152602001828054610aab90612526565b8015610af85780601f10610acd57610100808354040283529160200191610af8565b820191906000526020600020905b815481529060010190602001808311610adb57829003601f168201915b5050505050905090565b610b14610b0d61121c565b838361169f565b5050565b610b29610b2361121c565b836112dd565b610b68576040517f08c379a0000000000000000000000000000000000000000000000000000000008152600401610b5f90612a9c565b60405180910390fd5b610b748484848461180c565b50505050565b6060610b8582611868565b610bc4576040517f08c379a0000000000000000000000000000000000000000000000000000000008152600401610bbb90612c2c565b60405180910390fd5b6000610bce6118d4565b9050600060405180602001604052806000815250905060006040518060a001604052806040518060400160405280600281526020017f696400000000000000000000000000000000000000000000000000000000000081525081526020016040518060400160405280600481526020017f6e616d650000000000000000000000000000000000000000000000000000000081525081526020016040518060400160405280600b81526020017f6465736372697074696f6e00000000000000000000000000000000000000000081525081526020016040518060400160405280600581526020017f696d61676500000000000000000000000000000000000000000000000000000081525081526020016040518060400160405280600c81526020017f65787465726e616c5f75726c0000000000000000000000000000000000000000815250815250905060005b6005811015610db7576000811115610d505782604051602001610d3e9190612c72565b60405160208183030381529060405292505b82828260058110610d6457610d63612c98565b5b6020020151838360058110610d7c57610d7b612c98565b5b6020020151604051602001610d9393929190612d13565b60405160208183030381529060405292508080610daf90612d91565b915050610d1b565b508282600b610dc588610f09565b604051602001610dd89493929190612e72565b6040516020818303038152906040529350505050919050565b6000600560008473ffffffffffffffffffffffffffffffffffffffff1673ffffffffffffffffffffffffffffffffffffffff16815260200190815260200160002060008373ffffffffffffffffffffffffffffffffffffffff1673ffffffffffffffffffffffffffffffffffffffff16815260200190815260200160002060009054906101000a900460ff16905092915050565b610e8d61106a565b600073ffffffffffffffffffffffffffffffffffffffff168173ffffffffffffffffffffffffffffffffffffffff161415610efd576040517f08c379a0000000000000000000000000000000000000000000000000000000008152600401610ef490612f5e565b60405180910390fd5b610f06816115d9565b50565b60606000821415610f51576040518060400160405280600181526020017f30000000000000000000000000000000000000000000000000000000000000008152509050611065565b600082905060005b60008214610f83578080610f6c90612d91565b915050600a82610f7c9190612fad565b9150610f59565b60008167ffffffffffffffff811115610f9f57610f9e6122e3565b5b6040519080825280601f01601f191660200182016040528015610fd15781602001600182028036833780820191505090505b5090505b6000851461105e57600182610fea9190612fde565b9150600a85610ff99190613012565b60306110059190613043565b60f81b81838151811061101b5761101a612c98565b5b60200101907effffffffffffffffffffffffffffffffffffffffffffffffffffffffffffff1916908160001a905350600a856110579190612fad565b9450610fd5565b8093505050505b919050565b61107261121c565b73ffffffffffffffffffffffffffffffffffffffff16611090610a46565b73ffffffffffffffffffffffffffffffffffffffff16146110e6576040517f08c379a00000000000000000000000000000000000000000000000000000000081526004016110dd906130e5565b60405180910390fd5b565b60007f01ffc9a7000000000000000000000000000000000000000000000000000000007bffffffffffffffffffffffffffffffffffffffffffffffffffffffff1916827bffffffffffffffffffffffffffffffffffffffffffffffffffffffff1916149050919050565b600081600001549050919050565b61116a8383611966565b6111776000848484611b40565b6111b6576040517f08c379a00000000000000000000000000000000000000000000000000000000081526004016111ad90613177565b60405180910390fd5b505050565b6001816000016000828254019250508190555050565b6111da81611868565b611219576040517f08c379a000000000000000000000000000000000000000000000000000000000815260040161121090612b08565b60405180910390fd5b50565b600033905090565b816004600083815260200190815260200160002060006101000a81548173ffffffffffffffffffffffffffffffffffffffff021916908373ffffffffffffffffffffffffffffffffffffffff160217905550808273ffffffffffffffffffffffffffffffffffffffff16611297836108c8565b73ffffffffffffffffffffffffffffffffffffffff167f8c5be1e5ebec7d5bd14f71427d1e84f3dd0314c0f7b2291e5b200ac8c7c3b92560405160405180910390a45050565b6000806112e9836108c8565b90508073ffffffffffffffffffffffffffffffffffffffff168473ffffffffffffffffffffffffffffffffffffffff16148061132b575061132a8185610df1565b5b8061136957508373ffffffffffffffffffffffffffffffffffffffff16611351846106ea565b73ffffffffffffffffffffffffffffffffffffffff16145b91505092915050565b8273ffffffffffffffffffffffffffffffffffffffff16611392826108c8565b73ffffffffffffffffffffffffffffffffffffffff16146113e8576040517f08c379a00000000000000000000000000000000000000000000000000000000081526004016113df90613209565b60405180910390fd5b600073ffffffffffffffffffffffffffffffffffffffff168273ffffffffffffffffffffffffffffffffffffffff161415611458576040517f08c379a000000000000000000000000000000000000000000000000000000000815260040161144f9061329b565b60405180910390fd5b611463838383611cc8565b61146e600082611224565b6001600360008573ffffffffffffffffffffffffffffffffffffffff1673ffffffffffffffffffffffffffffffffffffffff16815260200190815260200160002060008282546114be9190612fde565b925050819055506001600360008473ffffffffffffffffffffffffffffffffffffffff1673ffffffffffffffffffffffffffffffffffffffff16815260200190815260200160002060008282546115159190613043565b92505081905550816002600083815260200190815260200160002060006101000a81548173ffffffffffffffffffffffffffffffffffffffff021916908373ffffffffffffffffffffffffffffffffffffffff160217905550808273ffffffffffffffffffffffffffffffffffffffff168473ffffffffffffffffffffffffffffffffffffffff167fddf252ad1be2c89b69c2b068fc378daa952ba7f163c4a11628f55a4df523b3ef60405160405180910390a46115d4838383611ccd565b505050565b6000600760009054906101000a900473ffffffffffffffffffffffffffffffffffffffff16905081600760006101000a81548173ffffffffffffffffffffffffffffffffffffffff021916908373ffffffffffffffffffffffffffffffffffffffff1602179055508173ffffffffffffffffffffffffffffffffffffffff168173ffffffffffffffffffffffffffffffffffffffff167f8be0079c531659141344cd1fd0a4f28419497f9722a3daafe3b4186f6b6457e060405160405180910390a35050565b8173ffffffffffffffffffffffffffffffffffffffff168373ffffffffffffffffffffffffffffffffffffffff16141561170e576040517f08c379a000000000000000000000000000000000000000000000000000000000815260040161170590613307565b60405180910390fd5b80600560008573ffffffffffffffffffffffffffffffffffffffff1673ffffffffffffffffffffffffffffffffffffffff16815260200190815260200160002060008473ffffffffffffffffffffffffffffffffffffffff1673ffffffffffffffffffffffffffffffffffffffff16815260200190815260200160002060006101000a81548160ff0219169083151502179055508173ffffffffffffffffffffffffffffffffffffffff168373ffffffffffffffffffffffffffffffffffffffff167f17307eab39ab6107e8899845ad3d59bd9653f200f220920489ca2b5937696c31836040516117ff9190611efe565b60405180910390a3505050565b611817848484611372565b61182384848484611b40565b611862576040517f08c379a000000000000000000000000000000000000000000000000000000000815260040161185990613177565b60405180910390fd5b50505050565b60008073ffffffffffffffffffffffffffffffffffffffff166002600084815260200190815260200160002060009054906101000a900473ffffffffffffffffffffffffffffffffffffffff1673ffffffffffffffffffffffffffffffffffffffff1614159050919050565b6060600a80546118e390612526565b80601f016020809104026020016040519081016040528092919081815260200182805461190f90612526565b801561195c5780601f106119315761010080835404028352916020019161195c565b820191906000526020600020905b81548152906001019060200180831161193f57829003601f168201915b5050505050905090565b600073ffffffffffffffffffffffffffffffffffffffff168273ffffffffffffffffffffffffffffffffffffffff1614156119d6576040517f08c379a00000000000000000000000000000000000000000000000000000000081526004016119cd90613373565b60405180910390fd5b6119df81611868565b15611a1f576040517f08c379a0000000000000000000000000000000000000000000000000000000008152600401611a16906133df565b60405180910390fd5b611a2b60008383611cc8565b6001600360008473ffffffffffffffffffffffffffffffffffffffff1673ffffffffffffffffffffffffffffffffffffffff1681526020019081526020016000206000828254611a7b9190613043565b92505081905550816002600083815260200190815260200160002060006101000a81548173ffffffffffffffffffffffffffffffffffffffff021916908373ffffffffffffffffffffffffffffffffffffffff160217905550808273ffffffffffffffffffffffffffffffffffffffff16600073ffffffffffffffffffffffffffffffffffffffff167fddf252ad1be2c89b69c2b068fc378daa952ba7f163c4a11628f55a4df523b3ef60405160405180910390a4611b3c60008383611ccd565b5050565b6000611b618473ffffffffffffffffffffffffffffffffffffffff16611cd2565b15611cbb578373ffffffffffffffffffffffffffffffffffffffff1663150b7a02611b8a61121c565b8786866040518563ffffffff1660e01b8152600401611bac9493929190613454565b6020604051808303816000875af1925050508015611be857506040513d601f19601f82011682018060405250810190611be591906134b5565b60015b611c6b573d8060008114611c18576040519150601f19603f3d011682016040523d82523d6000602084013e611c1d565b606091505b50600081511415611c63576040517f08c379a0000000000000000000000000000000000000000000000000000000008152600401611c5a90613177565b60405180910390fd5b805181602001fd5b63150b7a0260e01b7bffffffffffffffffffffffffffffffffffffffffffffffffffffffff1916817bffffffffffffffffffffffffffffffffffffffffffffffffffffffff191614915050611cc0565b600190505b949350505050565b505050565b505050565b6000808273ffffffffffffffffffffffffffffffffffffffff163b119050919050565b828054611d0190612526565b90600052602060002090601f016020900481019282611d235760008555611d6a565b82601f10611d3c57803560ff1916838001178555611d6a565b82800160010185558215611d6a579182015b82811115611d69578235825591602001919060010190611d4e565b5b509050611d779190611d7b565b5090565b5b80821115611d94576000816000905550600101611d7c565b5090565b6000604051905090565b600080fd5b600080fd5b600080fd5b600080fd5b600080fd5b60008083601f840112611dd157611dd0611dac565b5b8235905067ffffffffffffffff811115611dee57611ded611db1565b5b602083019150836001820283011115611e0a57611e09611db6565b5b9250929050565b60008060208385031215611e2857611e27611da2565b5b600083013567ffffffffffffffff811115611e4657611e45611da7565b5b611e5285828601611dbb565b92509250509250929050565b60007fffffffff0000000000000000000000000000000000000000000000000000000082169050919050565b611e9381611e5e565b8114611e9e57600080fd5b50565b600081359050611eb081611e8a565b92915050565b600060208284031215611ecc57611ecb611da2565b5b6000611eda84828501611ea1565b91505092915050565b60008115159050919050565b611ef881611ee3565b82525050565b6000602082019050611f136000830184611eef565b92915050565b600073ffffffffffffffffffffffffffffffffffffffff82169050919050565b6000611f4482611f19565b9050919050565b611f5481611f39565b8114611f5f57600080fd5b50565b600081359050611f7181611f4b565b92915050565b60008060008060008060006080888a031215611f9657611f95611da2565b5b6000611fa48a828b01611f62565b975050602088013567ffffffffffffffff811115611fc557611fc4611da7565b5b611fd18a828b01611dbb565b9650965050604088013567ffffffffffffffff811115611ff457611ff3611da7565b5b6120008a828b01611dbb565b9450945050606088013567ffffffffffffffff81111561202357612022611da7565b5b61202f8a828b01611dbb565b925092505092959891949750929550565b6000819050919050565b61205381612040565b82525050565b600060208201905061206e600083018461204a565b92915050565b600081519050919050565b600082825260208201905092915050565b60005b838110156120ae578082015181840152602081019050612093565b838111156120bd576000848401525b50505050565b6000601f19601f8301169050919050565b60006120df82612074565b6120e9818561207f565b93506120f9818560208601612090565b612102816120c3565b840191505092915050565b6000602082019050818103600083015261212781846120d4565b905092915050565b61213881612040565b811461214357600080fd5b50565b6000813590506121558161212f565b92915050565b60006020828403121561217157612170611da2565b5b600061217f84828501612146565b91505092915050565b61219181611f39565b82525050565b60006020820190506121ac6000830184612188565b92915050565b600080604083850312156121c9576121c8611da2565b5b60006121d785828601611f62565b92505060206121e885828601612146565b9150509250929050565b60008060006060848603121561220b5761220a611da2565b5b600061221986828701611f62565b935050602061222a86828701611f62565b925050604061223b86828701612146565b9150509250925092565b60006020828403121561225b5761225a611da2565b5b600061226984828501611f62565b91505092915050565b61227b81611ee3565b811461228657600080fd5b50565b60008135905061229881612272565b92915050565b600080604083850312156122b5576122b4611da2565b5b60006122c385828601611f62565b92505060206122d485828601612289565b9150509250929050565b600080fd5b7f4e487b7100000000000000000000000000000000000000000000000000000000600052604160045260246000fd5b61231b826120c3565b810181811067ffffffffffffffff8211171561233a576123396122e3565b5b80604052505050565b600061234d611d98565b90506123598282612312565b919050565b600067ffffffffffffffff821115612379576123786122e3565b5b612382826120c3565b9050602081019050919050565b82818337600083830152505050565b60006123b16123ac8461235e565b612343565b9050828152602081018484840111156123cd576123cc6122de565b5b6123d884828561238f565b509392505050565b600082601f8301126123f5576123f4611dac565b5b813561240584826020860161239e565b91505092915050565b6000806000806080858703121561242857612427611da2565b5b600061243687828801611f62565b945050602061244787828801611f62565b935050604061245887828801612146565b925050606085013567ffffffffffffffff81111561247957612478611da7565b5b612485878288016123e0565b91505092959194509250565b600080604083850312156124a8576124a7611da2565b5b60006124b685828601611f62565b92505060206124c785828601611f62565b9150509250929050565b7f7570646174652000000000000000000000000000000000000000000000000000815250565b7f4e487b7100000000000000000000000000000000000000000000000000000000600052602260045260246000fd5b6000600282049050600182168061253e57607f821691505b60208210811415612552576125516124f7565b5b50919050565b600081905092915050565b60008190508160005260206000209050919050565b6000815461258581612526565b61258f8186612558565b945060018216600081146125aa57600181146125bb576125ee565b60ff198316865281860193506125ee565b6125c485612563565b60005b838110156125e6578154818901526001820191506020810190506125c7565b838801955050505b50505092915050565b7f207365742065787465726e616c5f75726c203d20000000000000000000000000815250565b60006126298385612558565b935061263683858461238f565b82840190509392505050565b7f7c7c273f746f6b656e49643d277c7c6964000000000000000000000000000000815250565b7f3b00000000000000000000000000000000000000000000000000000000000000815250565b6000612699826124d1565b6007820191506126a98286612578565b91506126b4826125f7565b6014820191506126c582848661261d565b91506126d082612642565b6011820191506126df82612668565b600182019150819050949350505050565b60006060820190506127056000830186612188565b612712602083018561204a565b818103604083015261272481846120d4565b9050949350505050565b7f494e5345525420494e544f200000000000000000000000000000000000000000815250565b7f202869642c206e616d652c206465736372697074696f6e2c20696d6167652c2060008201527f65787465726e616c5f75726c292056414c554553202800000000000000000000602082015250565b60006127b0603683612558565b91506127bb82612754565b603682019050919050565b60006127d182612074565b6127db8185612558565b93506127eb818560208601612090565b80840191505092915050565b7f2c20270000000000000000000000000000000000000000000000000000000000815250565b7f2729000000000000000000000000000000000000000000000000000000000000815250565b600061284e8261272e565b600c8201915061285e828c612578565b9150612869826127a3565b9150612875828b6127c6565b9150612880826127f7565b60038201915061289182898b61261d565b915061289c826127f7565b6003820191506128ad82878961261d565b91506128b8826127f7565b6003820191506128c982858761261d565b91506128d4826127f7565b6003820191506128e48284612578565b91506128ef8261281d565b6002820191508190509a9950505050505050505050565b7f4552433732313a20617070726f76616c20746f2063757272656e74206f776e6560008201527f7200000000000000000000000000000000000000000000000000000000000000602082015250565b600061296260218361207f565b915061296d82612906565b604082019050919050565b6000602082019050818103600083015261299181612955565b9050919050565b7f4552433732313a20617070726f76652063616c6c6572206973206e6f7420746f60008201527f6b656e206f776e6572206e6f7220617070726f76656420666f7220616c6c0000602082015250565b60006129f4603e8361207f565b91506129ff82612998565b604082019050919050565b60006020820190508181036000830152612a23816129e7565b9050919050565b7f4552433732313a2063616c6c6572206973206e6f7420746f6b656e206f776e6560008201527f72206e6f7220617070726f766564000000000000000000000000000000000000602082015250565b6000612a86602e8361207f565b9150612a9182612a2a565b604082019050919050565b60006020820190508181036000830152612ab581612a79565b9050919050565b7f4552433732313a20696e76616c696420746f6b656e2049440000000000000000600082015250565b6000612af260188361207f565b9150612afd82612abc565b602082019050919050565b60006020820190508181036000830152612b2181612ae5565b9050919050565b7f4552433732313a2061646472657373207a65726f206973206e6f74206120766160008201527f6c6964206f776e65720000000000000000000000000000000000000000000000602082015250565b6000612b8460298361207f565b9150612b8f82612b28565b604082019050919050565b60006020820190508181036000830152612bb381612b77565b9050919050565b7f45524337323155524953746f726167653a2055524920717565727920666f722060008201527f6e6f6e6578697374656e7420746f6b656e000000000000000000000000000000602082015250565b6000612c1660318361207f565b9150612c2182612bba565b604082019050919050565b60006020820190508181036000830152612c4581612c09565b9050919050565b7f2c00000000000000000000000000000000000000000000000000000000000000815250565b6000612c7e82846127c6565b9150612c8982612c4c565b60018201915081905092915050565b7f4e487b7100000000000000000000000000000000000000000000000000000000600052603260045260246000fd5b7f2700000000000000000000000000000000000000000000000000000000000000815250565b7f272c000000000000000000000000000000000000000000000000000000000000815250565b6000612d1f82866127c6565b9150612d2a82612cc7565b600182019150612d3a82856127c6565b9150612d4582612ced565b600282019150612d5582846127c6565b9150819050949350505050565b7f4e487b7100000000000000000000000000000000000000000000000000000000600052601160045260246000fd5b6000612d9c82612040565b91507fffffffffffffffffffffffffffffffffffffffffffffffffffffffffffffffff821415612dcf57612dce612d62565b5b600182019050919050565b7f53454c4543542532300000000000000000000000000000000000000000000000815250565b7f25323046524f4d25323000000000000000000000000000000000000000000000815250565b7f2532305748455245253230696425334400000000000000000000000000000000815250565b7f266d6f64653d6c69737400000000000000000000000000000000000000000000815250565b6000612e7e82876127c6565b9150612e8982612dda565b600982019150612e9982866127c6565b9150612ea482612e00565b600a82019150612eb48285612578565b9150612ebf82612e26565b601082019150612ecf82846127c6565b9150612eda82612e4c565b600a8201915081905095945050505050565b7f4f776e61626c653a206e6577206f776e657220697320746865207a65726f206160008201527f6464726573730000000000000000000000000000000000000000000000000000602082015250565b6000612f4860268361207f565b9150612f5382612eec565b604082019050919050565b60006020820190508181036000830152612f7781612f3b565b9050919050565b7f4e487b7100000000000000000000000000000000000000000000000000000000600052601260045260246000fd5b6000612fb882612040565b9150612fc383612040565b925082612fd357612fd2612f7e565b5b828204905092915050565b6000612fe982612040565b9150612ff483612040565b92508282101561300757613006612d62565b5b828203905092915050565b600061301d82612040565b915061302883612040565b92508261303857613037612f7e565b5b828206905092915050565b600061304e82612040565b915061305983612040565b9250827fffffffffffffffffffffffffffffffffffffffffffffffffffffffffffffffff0382111561308e5761308d612d62565b5b828201905092915050565b7f4f776e61626c653a2063616c6c6572206973206e6f7420746865206f776e6572600082015250565b60006130cf60208361207f565b91506130da82613099565b602082019050919050565b600060208201905081810360008301526130fe816130c2565b9050919050565b7f4552433732313a207472616e7366657220746f206e6f6e20455243373231526560008201527f63656976657220696d706c656d656e7465720000000000000000000000000000602082015250565b600061316160328361207f565b915061316c82613105565b604082019050919050565b6000602082019050818103600083015261319081613154565b9050919050565b7f4552433732313a207472616e736665722066726f6d20696e636f72726563742060008201527f6f776e6572000000000000000000000000000000000000000000000000000000602082015250565b60006131f360258361207f565b91506131fe82613197565b604082019050919050565b60006020820190508181036000830152613222816131e6565b9050919050565b7f4552433732313a207472616e7366657220746f20746865207a65726f2061646460008201527f7265737300000000000000000000000000000000000000000000000000000000602082015250565b600061328560248361207f565b915061329082613229565b604082019050919050565b600060208201905081810360008301526132b481613278565b9050919050565b7f4552433732313a20617070726f766520746f2063616c6c657200000000000000600082015250565b60006132f160198361207f565b91506132fc826132bb565b602082019050919050565b60006020820190508181036000830152613320816132e4565b9050919050565b7f4552433732313a206d696e7420746f20746865207a65726f2061646472657373600082015250565b600061335d60208361207f565b915061336882613327565b602082019050919050565b6000602082019050818103600083015261338c81613350565b9050919050565b7f4552433732313a20746f6b656e20616c7265616479206d696e74656400000000600082015250565b60006133c9601c8361207f565b91506133d482613393565b602082019050919050565b600060208201905081810360008301526133f8816133bc565b9050919050565b600081519050919050565b600082825260208201905092915050565b6000613426826133ff565b613430818561340a565b9350613440818560208601612090565b613449816120c3565b840191505092915050565b60006080820190506134696000830187612188565b6134766020830186612188565b613483604083018561204a565b8181036060830152613495818461341b565b905095945050505050565b6000815190506134af81611e8a565b92915050565b6000602082840312156134cb576134ca611da2565b5b60006134d9848285016134a0565b9150509291505056fea264697066735822122007822d178cdc5b1df92dd5317b3636ba90ecb836c1156db74743e589d5327f0364736f6c634300080c003368747470733a2f2f746573746e65742e7461626c656c616e642e6e6574776f726b2f71756572793f733d",
  "linkReferences": {},
  "deployedLinkReferences": {}
}